{
	"FlightInsurance3.sol": {
		"FlightInsurance3": {
			"abi": [
				{
					"inputs": [
						{
							"internalType": "address",
							"name": "_insuranceProvider",
							"type": "address"
						}
					],
					"stateMutability": "nonpayable",
					"type": "constructor"
				},
				{
					"inputs": [],
					"name": "INDEMNITY",
					"outputs": [
						{
							"internalType": "uint256",
							"name": "",
							"type": "uint256"
						}
					],
					"stateMutability": "view",
					"type": "function"
				},
				{
					"inputs": [],
					"name": "PREMIUM",
					"outputs": [
						{
							"internalType": "uint256",
							"name": "",
							"type": "uint256"
						}
					],
					"stateMutability": "view",
					"type": "function"
				},
				{
					"inputs": [],
					"name": "insuranceProvider",
					"outputs": [
						{
							"internalType": "address",
							"name": "",
							"type": "address"
						}
					],
					"stateMutability": "view",
					"type": "function"
				},
				{
					"inputs": [
						{
							"internalType": "address",
							"name": "passenger",
							"type": "address"
						}
					],
					"name": "payIndemnity",
					"outputs": [
						{
							"internalType": "bool",
							"name": "",
							"type": "bool"
						},
						{
							"internalType": "string",
							"name": "",
							"type": "string"
						}
					],
					"stateMutability": "nonpayable",
					"type": "function"
				},
				{
					"inputs": [
						{
							"internalType": "string",
							"name": "name",
							"type": "string"
						},
						{
							"internalType": "string",
							"name": "flightNo",
							"type": "string"
						},
						{
							"internalType": "string",
							"name": "date",
							"type": "string"
						},
						{
							"internalType": "string",
							"name": "departure",
							"type": "string"
						},
						{
							"internalType": "string",
							"name": "destination",
							"type": "string"
						}
					],
					"name": "purchasePolicy",
					"outputs": [
						{
							"internalType": "bool",
							"name": "",
							"type": "bool"
						},
						{
							"internalType": "string",
							"name": "",
							"type": "string"
						}
					],
					"stateMutability": "payable",
					"type": "function"
				},
				{
					"inputs": [],
					"name": "viewAllPolicies",
					"outputs": [
						{
							"components": [
								{
									"internalType": "string",
									"name": "passengerName",
									"type": "string"
								},
								{
									"internalType": "address",
									"name": "passengerAddress",
									"type": "address"
								},
								{
									"internalType": "string",
									"name": "flightNumber",
									"type": "string"
								},
								{
									"internalType": "string",
									"name": "flightDate",
									"type": "string"
								},
								{
									"internalType": "string",
									"name": "departureCity",
									"type": "string"
								},
								{
									"internalType": "string",
									"name": "destinationCity",
									"type": "string"
								},
								{
									"internalType": "string",
									"name": "policyStatus",
									"type": "string"
								}
							],
							"internalType": "struct FlightInsurance3.InsurancePolicy[]",
							"name": "",
							"type": "tuple[]"
						},
						{
							"internalType": "string",
							"name": "",
							"type": "string"
						}
					],
					"stateMutability": "view",
					"type": "function"
				},
				{
					"inputs": [],
					"name": "viewAvailablePolicy",
					"outputs": [
						{
							"internalType": "string",
							"name": "",
							"type": "string"
						}
					],
					"stateMutability": "pure",
					"type": "function"
				},
				{
					"inputs": [],
					"name": "viewBalance",
					"outputs": [
						{
							"internalType": "uint256",
							"name": "",
							"type": "uint256"
						}
					],
					"stateMutability": "view",
					"type": "function"
				},
				{
					"inputs": [],
					"name": "viewMyPolicy",
					"outputs": [
						{
							"components": [
								{
									"internalType": "string",
									"name": "passengerName",
									"type": "string"
								},
								{
									"internalType": "address",
									"name": "passengerAddress",
									"type": "address"
								},
								{
									"internalType": "string",
									"name": "flightNumber",
									"type": "string"
								},
								{
									"internalType": "string",
									"name": "flightDate",
									"type": "string"
								},
								{
									"internalType": "string",
									"name": "departureCity",
									"type": "string"
								},
								{
									"internalType": "string",
									"name": "destinationCity",
									"type": "string"
								},
								{
									"internalType": "string",
									"name": "policyStatus",
									"type": "string"
								}
							],
							"internalType": "struct FlightInsurance3.InsurancePolicy",
							"name": "",
							"type": "tuple"
						},
						{
							"internalType": "string",
							"name": "",
							"type": "string"
						}
					],
					"stateMutability": "view",
					"type": "function"
				}
			],
			"devdoc": {
				"kind": "dev",
				"methods": {},
				"version": 1
			},
			"evm": {
				"assembly": "    /* \"FlightInsurance3.sol\":58:5883  contract FlightInsurance3 {... */\n  mstore(0x40, 0x80)\n    /* \"FlightInsurance3.sol\":902:997  constructor(address _insuranceProvider) {... */\n  callvalue\n  dup1\n  iszero\n  tag_1\n  jumpi\n  0x00\n  dup1\n  revert\ntag_1:\n  pop\n  mload(0x40)\n  sub(codesize, bytecodeSize)\n  dup1\n  bytecodeSize\n  dup4\n  codecopy\n  dup2\n  dup2\n  add\n  0x40\n  mstore\n  dup2\n  add\n  swap1\n  tag_2\n  swap2\n  swap1\n  tag_3\n  jump\t// in\ntag_2:\n    /* \"FlightInsurance3.sol\":972:990  _insuranceProvider */\n  dup1\n    /* \"FlightInsurance3.sol\":952:969  insuranceProvider */\n  0x00\n  dup1\n    /* \"FlightInsurance3.sol\":952:990  insuranceProvider = _insuranceProvider */\n  0x0100\n  exp\n  dup2\n  sload\n  dup2\n  0xffffffffffffffffffffffffffffffffffffffff\n  mul\n  not\n  and\n  swap1\n  dup4\n  0xffffffffffffffffffffffffffffffffffffffff\n  and\n  mul\n  or\n  swap1\n  sstore\n  pop\n    /* \"FlightInsurance3.sol\":902:997  constructor(address _insuranceProvider) {... */\n  pop\n    /* \"FlightInsurance3.sol\":58:5883  contract FlightInsurance3 {... */\n  jump(tag_6)\n    /* \"#utility.yul\":88:205   */\ntag_8:\n    /* \"#utility.yul\":197:198   */\n  0x00\n    /* \"#utility.yul\":194:195   */\n  dup1\n    /* \"#utility.yul\":187:199   */\n  revert\n    /* \"#utility.yul\":334:460   */\ntag_10:\n    /* \"#utility.yul\":371:378   */\n  0x00\n    /* \"#utility.yul\":411:453   */\n  0xffffffffffffffffffffffffffffffffffffffff\n    /* \"#utility.yul\":404:409   */\n  dup3\n    /* \"#utility.yul\":400:454   */\n  and\n    /* \"#utility.yul\":389:454   */\n  swap1\n  pop\n    /* \"#utility.yul\":334:460   */\n  swap2\n  swap1\n  pop\n  jump\t// out\n    /* \"#utility.yul\":466:562   */\ntag_11:\n    /* \"#utility.yul\":503:510   */\n  0x00\n    /* \"#utility.yul\":532:556   */\n  tag_20\n    /* \"#utility.yul\":550:555   */\n  dup3\n    /* \"#utility.yul\":532:556   */\n  tag_10\n  jump\t// in\ntag_20:\n    /* \"#utility.yul\":521:556   */\n  swap1\n  pop\n    /* \"#utility.yul\":466:562   */\n  swap2\n  swap1\n  pop\n  jump\t// out\n    /* \"#utility.yul\":568:690   */\ntag_12:\n    /* \"#utility.yul\":641:665   */\n  tag_22\n    /* \"#utility.yul\":659:664   */\n  dup2\n    /* \"#utility.yul\":641:665   */\n  tag_11\n  jump\t// in\ntag_22:\n    /* \"#utility.yul\":634:639   */\n  dup2\n    /* \"#utility.yul\":631:666   */\n  eq\n    /* \"#utility.yul\":621:684   */\n  tag_23\n  jumpi\n    /* \"#utility.yul\":680:681   */\n  0x00\n    /* \"#utility.yul\":677:678   */\n  dup1\n    /* \"#utility.yul\":670:682   */\n  revert\n    /* \"#utility.yul\":621:684   */\ntag_23:\n    /* \"#utility.yul\":568:690   */\n  pop\n  jump\t// out\n    /* \"#utility.yul\":696:839   */\ntag_13:\n    /* \"#utility.yul\":753:758   */\n  0x00\n    /* \"#utility.yul\":784:790   */\n  dup2\n    /* \"#utility.yul\":778:791   */\n  mload\n    /* \"#utility.yul\":769:791   */\n  swap1\n  pop\n    /* \"#utility.yul\":800:833   */\n  tag_25\n    /* \"#utility.yul\":827:832   */\n  dup2\n    /* \"#utility.yul\":800:833   */\n  tag_12\n  jump\t// in\ntag_25:\n    /* \"#utility.yul\":696:839   */\n  swap3\n  swap2\n  pop\n  pop\n  jump\t// out\n    /* \"#utility.yul\":845:1196   */\ntag_3:\n    /* \"#utility.yul\":915:921   */\n  0x00\n    /* \"#utility.yul\":964:966   */\n  0x20\n    /* \"#utility.yul\":952:961   */\n  dup3\n    /* \"#utility.yul\":943:950   */\n  dup5\n    /* \"#utility.yul\":939:962   */\n  sub\n    /* \"#utility.yul\":935:967   */\n  slt\n    /* \"#utility.yul\":932:1051   */\n  iszero\n  tag_27\n  jumpi\n    /* \"#utility.yul\":970:1049   */\n  tag_28\n  tag_8\n  jump\t// in\ntag_28:\n    /* \"#utility.yul\":932:1051   */\ntag_27:\n    /* \"#utility.yul\":1090:1091   */\n  0x00\n    /* \"#utility.yul\":1115:1179   */\n  tag_29\n    /* \"#utility.yul\":1171:1178   */\n  dup5\n    /* \"#utility.yul\":1162:1168   */\n  dup3\n    /* \"#utility.yul\":1151:1160   */\n  dup6\n    /* \"#utility.yul\":1147:1169   */\n  add\n    /* \"#utility.yul\":1115:1179   */\n  tag_13\n  jump\t// in\ntag_29:\n    /* \"#utility.yul\":1105:1179   */\n  swap2\n  pop\n    /* \"#utility.yul\":1061:1189   */\n  pop\n    /* \"#utility.yul\":845:1196   */\n  swap3\n  swap2\n  pop\n  pop\n  jump\t// out\n    /* \"FlightInsurance3.sol\":58:5883  contract FlightInsurance3 {... */\ntag_6:\n  dataSize(sub_0)\n  dup1\n  dataOffset(sub_0)\n  0x00\n  codecopy\n  0x00\n  return\nstop\n\nsub_0: assembly {\n        /* \"FlightInsurance3.sol\":58:5883  contract FlightInsurance3 {... */\n      mstore(0x40, 0x80)\n      jumpi(tag_1, lt(calldatasize, 0x04))\n      shr(0xe0, calldataload(0x00))\n      dup1\n      0xa4cd98e6\n      gt\n      tag_11\n      jumpi\n      dup1\n      0xa4cd98e6\n      eq\n      tag_6\n      jumpi\n      dup1\n      0xb6fc3b2a\n      eq\n      tag_7\n      jumpi\n      dup1\n      0xc160693d\n      eq\n      tag_8\n      jumpi\n      dup1\n      0xcd95e777\n      eq\n      tag_9\n      jumpi\n      dup1\n      0xea3696ca\n      eq\n      tag_10\n      jumpi\n      jump(tag_1)\n    tag_11:\n      dup1\n      0x3ff1e05b\n      eq\n      tag_2\n      jumpi\n      dup1\n      0x5d02ed12\n      eq\n      tag_3\n      jumpi\n      dup1\n      0x963163bd\n      eq\n      tag_4\n      jumpi\n      dup1\n      0x9955f67c\n      eq\n      tag_5\n      jumpi\n    tag_1:\n      0x00\n      dup1\n      revert\n        /* \"FlightInsurance3.sol\":4887:4984  function viewBalance() external view returns (uint256) {... */\n    tag_2:\n      callvalue\n      dup1\n      iszero\n      tag_12\n      jumpi\n      0x00\n      dup1\n      revert\n    tag_12:\n      pop\n      tag_13\n      tag_14\n      jump\t// in\n    tag_13:\n      mload(0x40)\n      tag_15\n      swap2\n      swap1\n      tag_16\n      jump\t// in\n    tag_15:\n      mload(0x40)\n      dup1\n      swap2\n      sub\n      swap1\n      return\n        /* \"FlightInsurance3.sol\":1409:3558  function purchasePolicy(... */\n    tag_3:\n      tag_17\n      0x04\n      dup1\n      calldatasize\n      sub\n      dup2\n      add\n      swap1\n      tag_18\n      swap2\n      swap1\n      tag_19\n      jump\t// in\n    tag_18:\n      tag_20\n      jump\t// in\n    tag_17:\n      mload(0x40)\n      tag_21\n      swap3\n      swap2\n      swap1\n      tag_22\n      jump\t// in\n    tag_21:\n      mload(0x40)\n      dup1\n      swap2\n      sub\n      swap1\n      return\n        /* \"FlightInsurance3.sol\":3611:4085  function viewMyPolicy() external view returns (InsurancePolicy memory, string memory) {... */\n    tag_4:\n      callvalue\n      dup1\n      iszero\n      tag_23\n      jumpi\n      0x00\n      dup1\n      revert\n    tag_23:\n      pop\n      tag_24\n      tag_25\n      jump\t// in\n    tag_24:\n      mload(0x40)\n      tag_26\n      swap3\n      swap2\n      swap1\n      tag_27\n      jump\t// in\n    tag_26:\n      mload(0x40)\n      dup1\n      swap2\n      sub\n      swap1\n      return\n        /* \"FlightInsurance3.sol\":562:594  address public insuranceProvider */\n    tag_5:\n      callvalue\n      dup1\n      iszero\n      tag_28\n      jumpi\n      0x00\n      dup1\n      revert\n    tag_28:\n      pop\n      tag_29\n      tag_30\n      jump\t// in\n    tag_29:\n      mload(0x40)\n      tag_31\n      swap2\n      swap1\n      tag_32\n      jump\t// in\n    tag_31:\n      mload(0x40)\n      dup1\n      swap2\n      sub\n      swap1\n      return\n        /* \"FlightInsurance3.sol\":5067:5880  function payIndemnity(address passenger) external returns (bool, string memory) {... */\n    tag_6:\n      callvalue\n      dup1\n      iszero\n      tag_33\n      jumpi\n      0x00\n      dup1\n      revert\n    tag_33:\n      pop\n      tag_34\n      0x04\n      dup1\n      calldatasize\n      sub\n      dup2\n      add\n      swap1\n      tag_35\n      swap2\n      swap1\n      tag_36\n      jump\t// in\n    tag_35:\n      tag_37\n      jump\t// in\n    tag_34:\n      mload(0x40)\n      tag_38\n      swap3\n      swap2\n      swap1\n      tag_22\n      jump\t// in\n    tag_38:\n      mload(0x40)\n      dup1\n      swap2\n      sub\n      swap1\n      return\n        /* \"FlightInsurance3.sol\":1053:1250  function viewAvailablePolicy() external pure returns (string memory) {... */\n    tag_7:\n      callvalue\n      dup1\n      iszero\n      tag_39\n      jumpi\n      0x00\n      dup1\n      revert\n    tag_39:\n      pop\n      tag_40\n      tag_41\n      jump\t// in\n    tag_40:\n      mload(0x40)\n      tag_42\n      swap2\n      swap1\n      tag_43\n      jump\t// in\n    tag_42:\n      mload(0x40)\n      dup1\n      swap2\n      sub\n      swap1\n      return\n        /* \"FlightInsurance3.sol\":4150:4826  function viewAllPolicies() external view returns (InsurancePolicy[] memory, string memory) {... */\n    tag_8:\n      callvalue\n      dup1\n      iszero\n      tag_44\n      jumpi\n      0x00\n      dup1\n      revert\n    tag_44:\n      pop\n      tag_45\n      tag_46\n      jump\t// in\n    tag_45:\n      mload(0x40)\n      tag_47\n      swap3\n      swap2\n      swap1\n      tag_48\n      jump\t// in\n    tag_47:\n      mload(0x40)\n      dup1\n      swap2\n      sub\n      swap1\n      return\n        /* \"FlightInsurance3.sol\":509:555  uint256 public constant INDEMNITY = 0.02 ether */\n    tag_9:\n      callvalue\n      dup1\n      iszero\n      tag_49\n      jumpi\n      0x00\n      dup1\n      revert\n    tag_49:\n      pop\n      tag_50\n      tag_51\n      jump\t// in\n    tag_50:\n      mload(0x40)\n      tag_52\n      swap2\n      swap1\n      tag_16\n      jump\t// in\n    tag_52:\n      mload(0x40)\n      dup1\n      swap2\n      sub\n      swap1\n      return\n        /* \"FlightInsurance3.sol\":459:503  uint256 public constant PREMIUM = 0.01 ether */\n    tag_10:\n      callvalue\n      dup1\n      iszero\n      tag_53\n      jumpi\n      0x00\n      dup1\n      revert\n    tag_53:\n      pop\n      tag_54\n      tag_55\n      jump\t// in\n    tag_54:\n      mload(0x40)\n      tag_56\n      swap2\n      swap1\n      tag_16\n      jump\t// in\n    tag_56:\n      mload(0x40)\n      dup1\n      swap2\n      sub\n      swap1\n      return\n        /* \"FlightInsurance3.sol\":4887:4984  function viewBalance() external view returns (uint256) {... */\n    tag_14:\n        /* \"FlightInsurance3.sol\":4933:4940  uint256 */\n      0x00\n        /* \"FlightInsurance3.sol\":4959:4969  msg.sender */\n      caller\n        /* \"FlightInsurance3.sol\":4959:4977  msg.sender.balance */\n      0xffffffffffffffffffffffffffffffffffffffff\n      and\n      balance\n        /* \"FlightInsurance3.sol\":4952:4977  return msg.sender.balance */\n      swap1\n      pop\n        /* \"FlightInsurance3.sol\":4887:4984  function viewBalance() external view returns (uint256) {... */\n      swap1\n      jump\t// out\n        /* \"FlightInsurance3.sol\":1409:3558  function purchasePolicy(... */\n    tag_20:\n        /* \"FlightInsurance3.sol\":1631:1635  bool */\n      0x00\n        /* \"FlightInsurance3.sol\":1637:1650  string memory */\n      0x60\n        /* \"FlightInsurance3.sol\":1688:1689  0 */\n      0x00\n        /* \"FlightInsurance3.sol\":1672:1676  name */\n      dup13\n      dup13\n        /* \"FlightInsurance3.sol\":1666:1684  bytes(name).length */\n      swap1\n      pop\n        /* \"FlightInsurance3.sol\":1666:1689  bytes(name).length == 0 */\n      eq\n        /* \"FlightInsurance3.sol\":1666:1716  bytes(name).length == 0 || bytes(name).length > 64 */\n      dup1\n      tag_59\n      jumpi\n      pop\n        /* \"FlightInsurance3.sol\":1714:1716  64 */\n      0x40\n        /* \"FlightInsurance3.sol\":1699:1703  name */\n      dup13\n      dup13\n        /* \"FlightInsurance3.sol\":1693:1711  bytes(name).length */\n      swap1\n      pop\n        /* \"FlightInsurance3.sol\":1693:1716  bytes(name).length > 64 */\n      gt\n        /* \"FlightInsurance3.sol\":1666:1716  bytes(name).length == 0 || bytes(name).length > 64 */\n    tag_59:\n        /* \"FlightInsurance3.sol\":1662:1801  if (bytes(name).length == 0 || bytes(name).length > 64) {... */\n      iszero\n      tag_60\n      jumpi\n        /* \"FlightInsurance3.sol\":1740:1745  false */\n      0x00\n        /* \"FlightInsurance3.sol\":1732:1790  return (false, \"Invalid name: Must be a non-empty string\") */\n      mload(0x40)\n      dup1\n      0x60\n      add\n      0x40\n      mstore\n      dup1\n      0x28\n      dup2\n      mstore\n      0x20\n      add\n      data_2673f4d1c5603474cbad76066a3283a83ede72ca4bba932f9698aedefc45fd1c\n      0x28\n      swap2\n      codecopy\n      swap2\n      pop\n      swap2\n      pop\n      jump(tag_58)\n        /* \"FlightInsurance3.sol\":1662:1801  if (bytes(name).length == 0 || bytes(name).length > 64) {... */\n    tag_60:\n        /* \"FlightInsurance3.sol\":1840:1841  2 */\n      0x02\n        /* \"FlightInsurance3.sol\":1821:1829  flightNo */\n      dup11\n      dup11\n        /* \"FlightInsurance3.sol\":1815:1837  bytes(flightNo).length */\n      swap1\n      pop\n        /* \"FlightInsurance3.sol\":1815:1841  bytes(flightNo).length < 2 */\n      lt\n        /* \"FlightInsurance3.sol\":1815:1871  bytes(flightNo).length < 2 || bytes(flightNo).length > 6 */\n      dup1\n      tag_61\n      jumpi\n      pop\n        /* \"FlightInsurance3.sol\":1870:1871  6 */\n      0x06\n        /* \"FlightInsurance3.sol\":1851:1859  flightNo */\n      dup11\n      dup11\n        /* \"FlightInsurance3.sol\":1845:1867  bytes(flightNo).length */\n      swap1\n      pop\n        /* \"FlightInsurance3.sol\":1845:1871  bytes(flightNo).length > 6 */\n      gt\n        /* \"FlightInsurance3.sol\":1815:1871  bytes(flightNo).length < 2 || bytes(flightNo).length > 6 */\n    tag_61:\n        /* \"FlightInsurance3.sol\":1811:1964  if (bytes(flightNo).length < 2 || bytes(flightNo).length > 6) {... */\n      iszero\n      tag_62\n      jumpi\n        /* \"FlightInsurance3.sol\":1895:1900  false */\n      0x00\n        /* \"FlightInsurance3.sol\":1887:1953  return (false, \"Invalid flight number: Must be 2 to 6 characters\") */\n      mload(0x40)\n      dup1\n      0x60\n      add\n      0x40\n      mstore\n      dup1\n      0x30\n      dup2\n      mstore\n      0x20\n      add\n      data_18a7abff09bd8d1ca8f5bd98d09638ca9d6c8c7a20393afd456ee7bb7ae79919\n      0x30\n      swap2\n      codecopy\n      swap2\n      pop\n      swap2\n      pop\n      jump(tag_58)\n        /* \"FlightInsurance3.sol\":1811:1964  if (bytes(flightNo).length < 2 || bytes(flightNo).length > 6) {... */\n    tag_62:\n        /* \"FlightInsurance3.sol\":2206:2217  destination */\n      dup4\n      dup4\n        /* \"FlightInsurance3.sol\":2190:2219  keccak256(bytes(destination)) */\n      mload(0x40)\n      tag_63\n      swap3\n      swap2\n      swap1\n      tag_64\n      jump\t// in\n    tag_63:\n      mload(0x40)\n      dup1\n      swap2\n      sub\n      swap1\n      keccak256\n        /* \"FlightInsurance3.sol\":2175:2184  departure */\n      dup7\n      dup7\n        /* \"FlightInsurance3.sol\":2159:2186  keccak256(bytes(departure)) */\n      mload(0x40)\n      tag_65\n      swap3\n      swap2\n      swap1\n      tag_64\n      jump\t// in\n    tag_65:\n      mload(0x40)\n      dup1\n      swap2\n      sub\n      swap1\n      keccak256\n        /* \"FlightInsurance3.sol\":2159:2219  keccak256(bytes(departure)) == keccak256(bytes(destination)) */\n      sub\n        /* \"FlightInsurance3.sol\":2155:2315  if (keccak256(bytes(departure)) == keccak256(bytes(destination))) {... */\n      tag_66\n      jumpi\n        /* \"FlightInsurance3.sol\":2243:2248  false */\n      0x00\n        /* \"FlightInsurance3.sol\":2235:2304  return (false, \"Departure and destination cities cannot be the same\") */\n      mload(0x40)\n      dup1\n      0x60\n      add\n      0x40\n      mstore\n      dup1\n      0x33\n      dup2\n      mstore\n      0x20\n      add\n      data_6f31ec84f1633147aa3d024eb7f56473d59ec67a9eec6c05e5cf01eb0db0a5c8\n      0x33\n      swap2\n      codecopy\n      swap2\n      pop\n      swap2\n      pop\n      jump(tag_58)\n        /* \"FlightInsurance3.sol\":2155:2315  if (keccak256(bytes(departure)) == keccak256(bytes(destination))) {... */\n    tag_66:\n        /* \"FlightInsurance3.sol\":2351:2353  10 */\n      0x0a\n        /* \"FlightInsurance3.sol\":2335:2339  date */\n      dup9\n      dup9\n        /* \"FlightInsurance3.sol\":2329:2347  bytes(date).length */\n      swap1\n      pop\n        /* \"FlightInsurance3.sol\":2329:2353  bytes(date).length != 10 */\n      eq\n      iszero\n        /* \"FlightInsurance3.sol\":2329:2391  bytes(date).length != 10 || ... */\n      dup1\n      tag_67\n      jumpi\n      pop\n        /* \"FlightInsurance3.sol\":2370:2391  bytes(date)[4] != \"-\" */\n      0x2d00000000000000000000000000000000000000000000000000000000000000\n        /* \"FlightInsurance3.sol\":2376:2380  date */\n      dup9\n      dup9\n        /* \"FlightInsurance3.sol\":2382:2383  4 */\n      0x04\n        /* \"FlightInsurance3.sol\":2370:2384  bytes(date)[4] */\n      dup2\n      dup2\n      lt\n      tag_68\n      jumpi\n      tag_69\n      tag_70\n      jump\t// in\n    tag_69:\n    tag_68:\n      swap1\n      pop\n      add\n      calldataload\n      0xf8\n      shr\n      0xf8\n      shl\n        /* \"FlightInsurance3.sol\":2370:2391  bytes(date)[4] != \"-\" */\n      not(0xffffffffffffffffffffffffffffffffffffffffffffffffffffffffffffff)\n      and\n      eq\n      iszero\n        /* \"FlightInsurance3.sol\":2329:2391  bytes(date).length != 10 || ... */\n    tag_67:\n        /* \"FlightInsurance3.sol\":2329:2429  bytes(date).length != 10 || ... */\n      dup1\n      tag_71\n      jumpi\n      pop\n        /* \"FlightInsurance3.sol\":2408:2429  bytes(date)[7] != \"-\" */\n      0x2d00000000000000000000000000000000000000000000000000000000000000\n        /* \"FlightInsurance3.sol\":2414:2418  date */\n      dup9\n      dup9\n        /* \"FlightInsurance3.sol\":2420:2421  7 */\n      0x07\n        /* \"FlightInsurance3.sol\":2408:2422  bytes(date)[7] */\n      dup2\n      dup2\n      lt\n      tag_72\n      jumpi\n      tag_73\n      tag_70\n      jump\t// in\n    tag_73:\n    tag_72:\n      swap1\n      pop\n      add\n      calldataload\n      0xf8\n      shr\n      0xf8\n      shl\n        /* \"FlightInsurance3.sol\":2408:2429  bytes(date)[7] != \"-\" */\n      not(0xffffffffffffffffffffffffffffffffffffffffffffffffffffffffffffff)\n      and\n      eq\n      iszero\n        /* \"FlightInsurance3.sol\":2329:2429  bytes(date).length != 10 || ... */\n    tag_71:\n        /* \"FlightInsurance3.sol\":2325:2513  if (bytes(date).length != 10 || ... */\n      iszero\n      tag_74\n      jumpi\n        /* \"FlightInsurance3.sol\":2453:2458  false */\n      0x00\n        /* \"FlightInsurance3.sol\":2445:2502  return (false, \"Invalid date format: Must be YYYY-MM-DD\") */\n      mload(0x40)\n      dup1\n      0x60\n      add\n      0x40\n      mstore\n      dup1\n      0x27\n      dup2\n      mstore\n      0x20\n      add\n      data_7a9cdb4f84f8bf3272ff777469639471ce70616242330454e3a21c0d013b6b66\n      0x27\n      swap2\n      codecopy\n      swap2\n      pop\n      swap2\n      pop\n      jump(tag_58)\n        /* \"FlightInsurance3.sol\":2325:2513  if (bytes(date).length != 10 || ... */\n    tag_74:\n        /* \"FlightInsurance3.sol\":493:503  0.01 ether */\n      0x2386f26fc10000\n        /* \"FlightInsurance3.sol\":2527:2536  msg.value */\n      callvalue\n        /* \"FlightInsurance3.sol\":2527:2546  msg.value < PREMIUM */\n      lt\n        /* \"FlightInsurance3.sol\":2523:2636  if (msg.value < PREMIUM) {... */\n      iszero\n      tag_75\n      jumpi\n        /* \"FlightInsurance3.sol\":2570:2575  false */\n      0x00\n        /* \"FlightInsurance3.sol\":2562:2625  return (false, \"Insufficient funds: Minimum 0.01 ETH required\") */\n      mload(0x40)\n      dup1\n      0x60\n      add\n      0x40\n      mstore\n      dup1\n      0x2d\n      dup2\n      mstore\n      0x20\n      add\n      data_ef070f5147518867988621c2539f9f6b08693b883575bb0e1da4e2e6be6fd1e2\n      0x2d\n      swap2\n      codecopy\n      swap2\n      pop\n      swap2\n      pop\n      jump(tag_58)\n        /* \"FlightInsurance3.sol\":2523:2636  if (msg.value < PREMIUM) {... */\n    tag_75:\n        /* \"FlightInsurance3.sol\":2708:2709  0 */\n      0x00\n        /* \"FlightInsurance3.sol\":2650:2710  policiesByAddress[msg.sender].passengerAddress != address(0) */\n      0xffffffffffffffffffffffffffffffffffffffff\n      and\n        /* \"FlightInsurance3.sol\":2650:2667  policiesByAddress */\n      0x01\n        /* \"FlightInsurance3.sol\":2650:2679  policiesByAddress[msg.sender] */\n      0x00\n        /* \"FlightInsurance3.sol\":2668:2678  msg.sender */\n      caller\n        /* \"FlightInsurance3.sol\":2650:2679  policiesByAddress[msg.sender] */\n      0xffffffffffffffffffffffffffffffffffffffff\n      and\n      0xffffffffffffffffffffffffffffffffffffffff\n      and\n      dup2\n      mstore\n      0x20\n      add\n      swap1\n      dup2\n      mstore\n      0x20\n      add\n      0x00\n      keccak256\n        /* \"FlightInsurance3.sol\":2650:2696  policiesByAddress[msg.sender].passengerAddress */\n      0x01\n      add\n      0x00\n      swap1\n      sload\n      swap1\n      0x0100\n      exp\n      swap1\n      div\n      0xffffffffffffffffffffffffffffffffffffffff\n      and\n        /* \"FlightInsurance3.sol\":2650:2710  policiesByAddress[msg.sender].passengerAddress != address(0) */\n      0xffffffffffffffffffffffffffffffffffffffff\n      and\n      eq\n        /* \"FlightInsurance3.sol\":2646:2793  if (policiesByAddress[msg.sender].passengerAddress != address(0)) {... */\n      tag_76\n      jumpi\n        /* \"FlightInsurance3.sol\":2734:2739  false */\n      0x00\n        /* \"FlightInsurance3.sol\":2726:2782  return (false, \"Policy already exists for this address\") */\n      mload(0x40)\n      dup1\n      0x60\n      add\n      0x40\n      mstore\n      dup1\n      0x26\n      dup2\n      mstore\n      0x20\n      add\n      data_90e62f8819c827a807f9699ff7d534f63b1757c7c06d7e0f1b655a13e0c6e2d0\n      0x26\n      swap2\n      codecopy\n      swap2\n      pop\n      swap2\n      pop\n      jump(tag_58)\n        /* \"FlightInsurance3.sol\":2646:2793  if (policiesByAddress[msg.sender].passengerAddress != address(0)) {... */\n    tag_76:\n        /* \"FlightInsurance3.sol\":2874:3161  InsurancePolicy({... */\n      mload(0x40)\n      dup1\n      0xe0\n      add\n      0x40\n      mstore\n      dup1\n        /* \"FlightInsurance3.sol\":2919:2923  name */\n      dup14\n      dup14\n        /* \"FlightInsurance3.sol\":2874:3161  InsurancePolicy({... */\n      dup1\n      dup1\n      0x1f\n      add\n      0x20\n      dup1\n      swap2\n      div\n      mul\n      0x20\n      add\n      mload(0x40)\n      swap1\n      dup2\n      add\n      0x40\n      mstore\n      dup1\n      swap4\n      swap3\n      swap2\n      swap1\n      dup2\n      dup2\n      mstore\n      0x20\n      add\n      dup4\n      dup4\n      dup1\n      dup3\n      dup5\n      calldatacopy\n      0x00\n      dup2\n      dup5\n      add\n      mstore\n      not(0x1f)\n      0x1f\n      dup3\n      add\n      and\n      swap1\n      pop\n      dup1\n      dup4\n      add\n      swap3\n      pop\n      pop\n      pop\n      pop\n      pop\n      pop\n      pop\n      dup2\n      mstore\n      0x20\n      add\n        /* \"FlightInsurance3.sol\":2955:2965  msg.sender */\n      caller\n        /* \"FlightInsurance3.sol\":2874:3161  InsurancePolicy({... */\n      0xffffffffffffffffffffffffffffffffffffffff\n      and\n      dup2\n      mstore\n      0x20\n      add\n        /* \"FlightInsurance3.sol\":2993:3001  flightNo */\n      dup12\n      dup12\n        /* \"FlightInsurance3.sol\":2874:3161  InsurancePolicy({... */\n      dup1\n      dup1\n      0x1f\n      add\n      0x20\n      dup1\n      swap2\n      div\n      mul\n      0x20\n      add\n      mload(0x40)\n      swap1\n      dup2\n      add\n      0x40\n      mstore\n      dup1\n      swap4\n      swap3\n      swap2\n      swap1\n      dup2\n      dup2\n      mstore\n      0x20\n      add\n      dup4\n      dup4\n      dup1\n      dup3\n      dup5\n      calldatacopy\n      0x00\n      dup2\n      dup5\n      add\n      mstore\n      not(0x1f)\n      0x1f\n      dup3\n      add\n      and\n      swap1\n      pop\n      dup1\n      dup4\n      add\n      swap3\n      pop\n      pop\n      pop\n      pop\n      pop\n      pop\n      pop\n      dup2\n      mstore\n      0x20\n      add\n        /* \"FlightInsurance3.sol\":3027:3031  date */\n      dup10\n      dup10\n        /* \"FlightInsurance3.sol\":2874:3161  InsurancePolicy({... */\n      dup1\n      dup1\n      0x1f\n      add\n      0x20\n      dup1\n      swap2\n      div\n      mul\n      0x20\n      add\n      mload(0x40)\n      swap1\n      dup2\n      add\n      0x40\n      mstore\n      dup1\n      swap4\n      swap3\n      swap2\n      swap1\n      dup2\n      dup2\n      mstore\n      0x20\n      add\n      dup4\n      dup4\n      dup1\n      dup3\n      dup5\n      calldatacopy\n      0x00\n      dup2\n      dup5\n      add\n      mstore\n      not(0x1f)\n      0x1f\n      dup3\n      add\n      and\n      swap1\n      pop\n      dup1\n      dup4\n      add\n      swap3\n      pop\n      pop\n      pop\n      pop\n      pop\n      pop\n      pop\n      dup2\n      mstore\n      0x20\n      add\n        /* \"FlightInsurance3.sol\":3060:3069  departure */\n      dup8\n      dup8\n        /* \"FlightInsurance3.sol\":2874:3161  InsurancePolicy({... */\n      dup1\n      dup1\n      0x1f\n      add\n      0x20\n      dup1\n      swap2\n      div\n      mul\n      0x20\n      add\n      mload(0x40)\n      swap1\n      dup2\n      add\n      0x40\n      mstore\n      dup1\n      swap4\n      swap3\n      swap2\n      swap1\n      dup2\n      dup2\n      mstore\n      0x20\n      add\n      dup4\n      dup4\n      dup1\n      dup3\n      dup5\n      calldatacopy\n      0x00\n      dup2\n      dup5\n      add\n      mstore\n      not(0x1f)\n      0x1f\n      dup3\n      add\n      and\n      swap1\n      pop\n      dup1\n      dup4\n      add\n      swap3\n      pop\n      pop\n      pop\n      pop\n      pop\n      pop\n      pop\n      dup2\n      mstore\n      0x20\n      add\n        /* \"FlightInsurance3.sol\":3100:3111  destination */\n      dup6\n      dup6\n        /* \"FlightInsurance3.sol\":2874:3161  InsurancePolicy({... */\n      dup1\n      dup1\n      0x1f\n      add\n      0x20\n      dup1\n      swap2\n      div\n      mul\n      0x20\n      add\n      mload(0x40)\n      swap1\n      dup2\n      add\n      0x40\n      mstore\n      dup1\n      swap4\n      swap3\n      swap2\n      swap1\n      dup2\n      dup2\n      mstore\n      0x20\n      add\n      dup4\n      dup4\n      dup1\n      dup3\n      dup5\n      calldatacopy\n      0x00\n      dup2\n      dup5\n      add\n      mstore\n      not(0x1f)\n      0x1f\n      dup3\n      add\n      and\n      swap1\n      pop\n      dup1\n      dup4\n      add\n      swap3\n      pop\n      pop\n      pop\n      pop\n      pop\n      pop\n      pop\n      dup2\n      mstore\n      0x20\n      add\n      mload(0x40)\n      dup1\n      0x40\n      add\n      0x40\n      mstore\n      dup1\n      0x09\n      dup2\n      mstore\n      0x20\n      add\n      0x7075726368617365640000000000000000000000000000000000000000000000\n      dup2\n      mstore\n      pop\n      dup2\n      mstore\n      pop\n        /* \"FlightInsurance3.sol\":2842:2859  policiesByAddress */\n      0x01\n        /* \"FlightInsurance3.sol\":2842:2871  policiesByAddress[msg.sender] */\n      0x00\n        /* \"FlightInsurance3.sol\":2860:2870  msg.sender */\n      caller\n        /* \"FlightInsurance3.sol\":2842:2871  policiesByAddress[msg.sender] */\n      0xffffffffffffffffffffffffffffffffffffffff\n      and\n      0xffffffffffffffffffffffffffffffffffffffff\n      and\n      dup2\n      mstore\n      0x20\n      add\n      swap1\n      dup2\n      mstore\n      0x20\n      add\n      0x00\n      keccak256\n        /* \"FlightInsurance3.sol\":2842:3161  policiesByAddress[msg.sender] = InsurancePolicy({... */\n      0x00\n      dup3\n      add\n      mload\n      dup2\n      0x00\n      add\n      swap1\n      dup2\n      tag_77\n      swap2\n      swap1\n      tag_78\n      jump\t// in\n    tag_77:\n      pop\n      0x20\n      dup3\n      add\n      mload\n      dup2\n      0x01\n      add\n      exp(0x0100, 0x00)\n      dup2\n      sload\n      dup2\n      0xffffffffffffffffffffffffffffffffffffffff\n      mul\n      not\n      and\n      swap1\n      dup4\n      0xffffffffffffffffffffffffffffffffffffffff\n      and\n      mul\n      or\n      swap1\n      sstore\n      pop\n      0x40\n      dup3\n      add\n      mload\n      dup2\n      0x02\n      add\n      swap1\n      dup2\n      tag_79\n      swap2\n      swap1\n      tag_78\n      jump\t// in\n    tag_79:\n      pop\n      0x60\n      dup3\n      add\n      mload\n      dup2\n      0x03\n      add\n      swap1\n      dup2\n      tag_80\n      swap2\n      swap1\n      tag_78\n      jump\t// in\n    tag_80:\n      pop\n      0x80\n      dup3\n      add\n      mload\n      dup2\n      0x04\n      add\n      swap1\n      dup2\n      tag_81\n      swap2\n      swap1\n      tag_78\n      jump\t// in\n    tag_81:\n      pop\n      0xa0\n      dup3\n      add\n      mload\n      dup2\n      0x05\n      add\n      swap1\n      dup2\n      tag_82\n      swap2\n      swap1\n      tag_78\n      jump\t// in\n    tag_82:\n      pop\n      0xc0\n      dup3\n      add\n      mload\n      dup2\n      0x06\n      add\n      swap1\n      dup2\n      tag_83\n      swap2\n      swap1\n      tag_78\n      jump\t// in\n    tag_83:\n      pop\n      swap1\n      pop\n      pop\n        /* \"FlightInsurance3.sol\":3220:3240  insuredPassengerList */\n      0x02\n        /* \"FlightInsurance3.sol\":3246:3256  msg.sender */\n      caller\n        /* \"FlightInsurance3.sol\":3220:3257  insuredPassengerList.push(msg.sender) */\n      swap1\n      dup1\n      0x01\n      dup2\n      sload\n      add\n      dup1\n      dup3\n      sstore\n      dup1\n      swap2\n      pop\n      pop\n      0x01\n      swap1\n      sub\n      swap1\n      0x00\n      mstore\n      keccak256(0x00, 0x20)\n      add\n      0x00\n      swap1\n      swap2\n      swap1\n      swap2\n      swap1\n      swap2\n      0x0100\n      exp\n      dup2\n      sload\n      dup2\n      0xffffffffffffffffffffffffffffffffffffffff\n      mul\n      not\n      and\n      swap1\n      dup4\n      0xffffffffffffffffffffffffffffffffffffffff\n      and\n      mul\n      or\n      swap1\n      sstore\n      pop\n        /* \"FlightInsurance3.sol\":3320:3337  insuranceProvider */\n      0x00\n      dup1\n      sload\n      swap1\n      0x0100\n      exp\n      swap1\n      div\n      0xffffffffffffffffffffffffffffffffffffffff\n      and\n        /* \"FlightInsurance3.sol\":3312:3347  payable(insuranceProvider).transfer */\n      0xffffffffffffffffffffffffffffffffffffffff\n      and\n        /* \"FlightInsurance3.sol\":3312:3356  payable(insuranceProvider).transfer(PREMIUM) */\n      0x08fc\n        /* \"FlightInsurance3.sol\":493:503  0.01 ether */\n      0x2386f26fc10000\n        /* \"FlightInsurance3.sol\":3312:3356  payable(insuranceProvider).transfer(PREMIUM) */\n      swap1\n      dup2\n      iszero\n      mul\n      swap1\n      mload(0x40)\n      0x00\n      mload(0x40)\n      dup1\n      dup4\n      sub\n      dup2\n      dup6\n      dup9\n      dup9\n      call\n      swap4\n      pop\n      pop\n      pop\n      pop\n      iszero\n      dup1\n      iszero\n      tag_86\n      jumpi\n      returndatasize\n      0x00\n      dup1\n      returndatacopy\n      revert(0x00, returndatasize)\n    tag_86:\n      pop\n        /* \"FlightInsurance3.sol\":3385:3402  insuranceProvider */\n      0x00\n      dup1\n      sload\n      swap1\n      0x0100\n      exp\n      swap1\n      div\n      0xffffffffffffffffffffffffffffffffffffffff\n      and\n        /* \"FlightInsurance3.sol\":3371:3402  msg.sender == insuranceProvider */\n      0xffffffffffffffffffffffffffffffffffffffff\n      and\n        /* \"FlightInsurance3.sol\":3371:3381  msg.sender */\n      caller\n        /* \"FlightInsurance3.sol\":3371:3402  msg.sender == insuranceProvider */\n      0xffffffffffffffffffffffffffffffffffffffff\n      and\n      sub\n        /* \"FlightInsurance3.sol\":3367:3495  if (msg.sender == insuranceProvider) {... */\n      tag_87\n      jumpi\n        /* \"FlightInsurance3.sol\":3426:3430  true */\n      0x01\n        /* \"FlightInsurance3.sol\":3418:3484  return (true, \"Insurance Provider: Policy successfully purchased\") */\n      mload(0x40)\n      dup1\n      0x60\n      add\n      0x40\n      mstore\n      dup1\n      0x31\n      dup2\n      mstore\n      0x20\n      add\n      data_7636276aa9e42f60e147981f2412d538cf369e2766a6d3efed5d122c680b23d3\n      0x31\n      swap2\n      codecopy\n      swap2\n      pop\n      swap2\n      pop\n      jump(tag_58)\n        /* \"FlightInsurance3.sol\":3367:3495  if (msg.sender == insuranceProvider) {... */\n    tag_87:\n        /* \"FlightInsurance3.sol\":3513:3517  true */\n      0x01\n        /* \"FlightInsurance3.sol\":3505:3551  return (true, \"Policy successfully purchased\") */\n      mload(0x40)\n      dup1\n      0x40\n      add\n      0x40\n      mstore\n      dup1\n      0x1d\n      dup2\n      mstore\n      0x20\n      add\n      0x506f6c696379207375636365737366756c6c7920707572636861736564000000\n      dup2\n      mstore\n      pop\n      swap2\n      pop\n      swap2\n      pop\n        /* \"FlightInsurance3.sol\":1409:3558  function purchasePolicy(... */\n    tag_58:\n      swap11\n      pop\n      swap11\n      swap9\n      pop\n      pop\n      pop\n      pop\n      pop\n      pop\n      pop\n      pop\n      pop\n      jump\t// out\n        /* \"FlightInsurance3.sol\":3611:4085  function viewMyPolicy() external view returns (InsurancePolicy memory, string memory) {... */\n    tag_25:\n        /* \"FlightInsurance3.sol\":3658:3680  InsurancePolicy memory */\n      tag_88\n      tag_89\n      jump\t// in\n    tag_88:\n        /* \"FlightInsurance3.sol\":3682:3695  string memory */\n      0x60\n        /* \"FlightInsurance3.sol\":3707:3736  InsurancePolicy memory policy */\n      0x00\n        /* \"FlightInsurance3.sol\":3739:3756  policiesByAddress */\n      0x01\n        /* \"FlightInsurance3.sol\":3739:3768  policiesByAddress[msg.sender] */\n      0x00\n        /* \"FlightInsurance3.sol\":3757:3767  msg.sender */\n      caller\n        /* \"FlightInsurance3.sol\":3739:3768  policiesByAddress[msg.sender] */\n      0xffffffffffffffffffffffffffffffffffffffff\n      and\n      0xffffffffffffffffffffffffffffffffffffffff\n      and\n      dup2\n      mstore\n      0x20\n      add\n      swap1\n      dup2\n      mstore\n      0x20\n      add\n      0x00\n      keccak256\n        /* \"FlightInsurance3.sol\":3707:3768  InsurancePolicy memory policy = policiesByAddress[msg.sender] */\n      mload(0x40)\n      dup1\n      0xe0\n      add\n      0x40\n      mstore\n      swap1\n      dup2\n      0x00\n      dup3\n      add\n      dup1\n      sload\n      tag_91\n      swap1\n      tag_92\n      jump\t// in\n    tag_91:\n      dup1\n      0x1f\n      add\n      0x20\n      dup1\n      swap2\n      div\n      mul\n      0x20\n      add\n      mload(0x40)\n      swap1\n      dup2\n      add\n      0x40\n      mstore\n      dup1\n      swap3\n      swap2\n      swap1\n      dup2\n      dup2\n      mstore\n      0x20\n      add\n      dup3\n      dup1\n      sload\n      tag_93\n      swap1\n      tag_92\n      jump\t// in\n    tag_93:\n      dup1\n      iszero\n      tag_94\n      jumpi\n      dup1\n      0x1f\n      lt\n      tag_95\n      jumpi\n      0x0100\n      dup1\n      dup4\n      sload\n      div\n      mul\n      dup4\n      mstore\n      swap2\n      0x20\n      add\n      swap2\n      jump(tag_94)\n    tag_95:\n      dup3\n      add\n      swap2\n      swap1\n      0x00\n      mstore\n      keccak256(0x00, 0x20)\n      swap1\n    tag_96:\n      dup2\n      sload\n      dup2\n      mstore\n      swap1\n      0x01\n      add\n      swap1\n      0x20\n      add\n      dup1\n      dup4\n      gt\n      tag_96\n      jumpi\n      dup3\n      swap1\n      sub\n      0x1f\n      and\n      dup3\n      add\n      swap2\n    tag_94:\n      pop\n      pop\n      pop\n      pop\n      pop\n      dup2\n      mstore\n      0x20\n      add\n      0x01\n      dup3\n      add\n      0x00\n      swap1\n      sload\n      swap1\n      0x0100\n      exp\n      swap1\n      div\n      0xffffffffffffffffffffffffffffffffffffffff\n      and\n      0xffffffffffffffffffffffffffffffffffffffff\n      and\n      0xffffffffffffffffffffffffffffffffffffffff\n      and\n      dup2\n      mstore\n      0x20\n      add\n      0x02\n      dup3\n      add\n      dup1\n      sload\n      tag_97\n      swap1\n      tag_92\n      jump\t// in\n    tag_97:\n      dup1\n      0x1f\n      add\n      0x20\n      dup1\n      swap2\n      div\n      mul\n      0x20\n      add\n      mload(0x40)\n      swap1\n      dup2\n      add\n      0x40\n      mstore\n      dup1\n      swap3\n      swap2\n      swap1\n      dup2\n      dup2\n      mstore\n      0x20\n      add\n      dup3\n      dup1\n      sload\n      tag_98\n      swap1\n      tag_92\n      jump\t// in\n    tag_98:\n      dup1\n      iszero\n      tag_99\n      jumpi\n      dup1\n      0x1f\n      lt\n      tag_100\n      jumpi\n      0x0100\n      dup1\n      dup4\n      sload\n      div\n      mul\n      dup4\n      mstore\n      swap2\n      0x20\n      add\n      swap2\n      jump(tag_99)\n    tag_100:\n      dup3\n      add\n      swap2\n      swap1\n      0x00\n      mstore\n      keccak256(0x00, 0x20)\n      swap1\n    tag_101:\n      dup2\n      sload\n      dup2\n      mstore\n      swap1\n      0x01\n      add\n      swap1\n      0x20\n      add\n      dup1\n      dup4\n      gt\n      tag_101\n      jumpi\n      dup3\n      swap1\n      sub\n      0x1f\n      and\n      dup3\n      add\n      swap2\n    tag_99:\n      pop\n      pop\n      pop\n      pop\n      pop\n      dup2\n      mstore\n      0x20\n      add\n      0x03\n      dup3\n      add\n      dup1\n      sload\n      tag_102\n      swap1\n      tag_92\n      jump\t// in\n    tag_102:\n      dup1\n      0x1f\n      add\n      0x20\n      dup1\n      swap2\n      div\n      mul\n      0x20\n      add\n      mload(0x40)\n      swap1\n      dup2\n      add\n      0x40\n      mstore\n      dup1\n      swap3\n      swap2\n      swap1\n      dup2\n      dup2\n      mstore\n      0x20\n      add\n      dup3\n      dup1\n      sload\n      tag_103\n      swap1\n      tag_92\n      jump\t// in\n    tag_103:\n      dup1\n      iszero\n      tag_104\n      jumpi\n      dup1\n      0x1f\n      lt\n      tag_105\n      jumpi\n      0x0100\n      dup1\n      dup4\n      sload\n      div\n      mul\n      dup4\n      mstore\n      swap2\n      0x20\n      add\n      swap2\n      jump(tag_104)\n    tag_105:\n      dup3\n      add\n      swap2\n      swap1\n      0x00\n      mstore\n      keccak256(0x00, 0x20)\n      swap1\n    tag_106:\n      dup2\n      sload\n      dup2\n      mstore\n      swap1\n      0x01\n      add\n      swap1\n      0x20\n      add\n      dup1\n      dup4\n      gt\n      tag_106\n      jumpi\n      dup3\n      swap1\n      sub\n      0x1f\n      and\n      dup3\n      add\n      swap2\n    tag_104:\n      pop\n      pop\n      pop\n      pop\n      pop\n      dup2\n      mstore\n      0x20\n      add\n      0x04\n      dup3\n      add\n      dup1\n      sload\n      tag_107\n      swap1\n      tag_92\n      jump\t// in\n    tag_107:\n      dup1\n      0x1f\n      add\n      0x20\n      dup1\n      swap2\n      div\n      mul\n      0x20\n      add\n      mload(0x40)\n      swap1\n      dup2\n      add\n      0x40\n      mstore\n      dup1\n      swap3\n      swap2\n      swap1\n      dup2\n      dup2\n      mstore\n      0x20\n      add\n      dup3\n      dup1\n      sload\n      tag_108\n      swap1\n      tag_92\n      jump\t// in\n    tag_108:\n      dup1\n      iszero\n      tag_109\n      jumpi\n      dup1\n      0x1f\n      lt\n      tag_110\n      jumpi\n      0x0100\n      dup1\n      dup4\n      sload\n      div\n      mul\n      dup4\n      mstore\n      swap2\n      0x20\n      add\n      swap2\n      jump(tag_109)\n    tag_110:\n      dup3\n      add\n      swap2\n      swap1\n      0x00\n      mstore\n      keccak256(0x00, 0x20)\n      swap1\n    tag_111:\n      dup2\n      sload\n      dup2\n      mstore\n      swap1\n      0x01\n      add\n      swap1\n      0x20\n      add\n      dup1\n      dup4\n      gt\n      tag_111\n      jumpi\n      dup3\n      swap1\n      sub\n      0x1f\n      and\n      dup3\n      add\n      swap2\n    tag_109:\n      pop\n      pop\n      pop\n      pop\n      pop\n      dup2\n      mstore\n      0x20\n      add\n      0x05\n      dup3\n      add\n      dup1\n      sload\n      tag_112\n      swap1\n      tag_92\n      jump\t// in\n    tag_112:\n      dup1\n      0x1f\n      add\n      0x20\n      dup1\n      swap2\n      div\n      mul\n      0x20\n      add\n      mload(0x40)\n      swap1\n      dup2\n      add\n      0x40\n      mstore\n      dup1\n      swap3\n      swap2\n      swap1\n      dup2\n      dup2\n      mstore\n      0x20\n      add\n      dup3\n      dup1\n      sload\n      tag_113\n      swap1\n      tag_92\n      jump\t// in\n    tag_113:\n      dup1\n      iszero\n      tag_114\n      jumpi\n      dup1\n      0x1f\n      lt\n      tag_115\n      jumpi\n      0x0100\n      dup1\n      dup4\n      sload\n      div\n      mul\n      dup4\n      mstore\n      swap2\n      0x20\n      add\n      swap2\n      jump(tag_114)\n    tag_115:\n      dup3\n      add\n      swap2\n      swap1\n      0x00\n      mstore\n      keccak256(0x00, 0x20)\n      swap1\n    tag_116:\n      dup2\n      sload\n      dup2\n      mstore\n      swap1\n      0x01\n      add\n      swap1\n      0x20\n      add\n      dup1\n      dup4\n      gt\n      tag_116\n      jumpi\n      dup3\n      swap1\n      sub\n      0x1f\n      and\n      dup3\n      add\n      swap2\n    tag_114:\n      pop\n      pop\n      pop\n      pop\n      pop\n      dup2\n      mstore\n      0x20\n      add\n      0x06\n      dup3\n      add\n      dup1\n      sload\n      tag_117\n      swap1\n      tag_92\n      jump\t// in\n    tag_117:\n      dup1\n      0x1f\n      add\n      0x20\n      dup1\n      swap2\n      div\n      mul\n      0x20\n      add\n      mload(0x40)\n      swap1\n      dup2\n      add\n      0x40\n      mstore\n      dup1\n      swap3\n      swap2\n      swap1\n      dup2\n      dup2\n      mstore\n      0x20\n      add\n      dup3\n      dup1\n      sload\n      tag_118\n      swap1\n      tag_92\n      jump\t// in\n    tag_118:\n      dup1\n      iszero\n      tag_119\n      jumpi\n      dup1\n      0x1f\n      lt\n      tag_120\n      jumpi\n      0x0100\n      dup1\n      dup4\n      sload\n      div\n      mul\n      dup4\n      mstore\n      swap2\n      0x20\n      add\n      swap2\n      jump(tag_119)\n    tag_120:\n      dup3\n      add\n      swap2\n      swap1\n      0x00\n      mstore\n      keccak256(0x00, 0x20)\n      swap1\n    tag_121:\n      dup2\n      sload\n      dup2\n      mstore\n      swap1\n      0x01\n      add\n      swap1\n      0x20\n      add\n      dup1\n      dup4\n      gt\n      tag_121\n      jumpi\n      dup3\n      swap1\n      sub\n      0x1f\n      and\n      dup3\n      add\n      swap2\n    tag_119:\n      pop\n      pop\n      pop\n      pop\n      pop\n      dup2\n      mstore\n      pop\n      pop\n      swap1\n      pop\n        /* \"FlightInsurance3.sol\":3817:3818  0 */\n      0x00\n        /* \"FlightInsurance3.sol\":3782:3819  policy.passengerAddress == address(0) */\n      0xffffffffffffffffffffffffffffffffffffffff\n      and\n        /* \"FlightInsurance3.sol\":3782:3788  policy */\n      dup2\n        /* \"FlightInsurance3.sol\":3782:3805  policy.passengerAddress */\n      0x20\n      add\n      mload\n        /* \"FlightInsurance3.sol\":3782:3819  policy.passengerAddress == address(0) */\n      0xffffffffffffffffffffffffffffffffffffffff\n      and\n      sub\n        /* \"FlightInsurance3.sol\":3778:3880  if (policy.passengerAddress == address(0)) {... */\n      tag_122\n      jumpi\n        /* \"FlightInsurance3.sol\":3843:3849  policy */\n      dup1\n        /* \"FlightInsurance3.sol\":3835:3869  return (policy, \"No policy found\") */\n      mload(0x40)\n      dup1\n      0x40\n      add\n      0x40\n      mstore\n      dup1\n      0x0f\n      dup2\n      mstore\n      0x20\n      add\n      0x4e6f20706f6c69637920666f756e640000000000000000000000000000000000\n      dup2\n      mstore\n      pop\n      swap3\n      pop\n      swap3\n      pop\n      pop\n      jump(tag_90)\n        /* \"FlightInsurance3.sol\":3778:3880  if (policy.passengerAddress == address(0)) {... */\n    tag_122:\n        /* \"FlightInsurance3.sol\":3908:3925  insuranceProvider */\n      0x00\n      dup1\n      sload\n      swap1\n      0x0100\n      exp\n      swap1\n      div\n      0xffffffffffffffffffffffffffffffffffffffff\n      and\n        /* \"FlightInsurance3.sol\":3894:3925  msg.sender == insuranceProvider */\n      0xffffffffffffffffffffffffffffffffffffffff\n      and\n        /* \"FlightInsurance3.sol\":3894:3904  msg.sender */\n      caller\n        /* \"FlightInsurance3.sol\":3894:3925  msg.sender == insuranceProvider */\n      0xffffffffffffffffffffffffffffffffffffffff\n      and\n      sub\n        /* \"FlightInsurance3.sol\":3890:4020  if (msg.sender == insuranceProvider) {... */\n      tag_123\n      jumpi\n        /* \"FlightInsurance3.sol\":3949:3955  policy */\n      dup1\n        /* \"FlightInsurance3.sol\":3941:4009  return (policy, \"Insurance Provider: Policy retrieved successfully\") */\n      mload(0x40)\n      dup1\n      0x60\n      add\n      0x40\n      mstore\n      dup1\n      0x31\n      dup2\n      mstore\n      0x20\n      add\n      data_8fab27788aa2569e6388b55730db481d583fa165812a241294b7b96a90b2a252\n      0x31\n      swap2\n      codecopy\n      swap3\n      pop\n      swap3\n      pop\n      pop\n      jump(tag_90)\n        /* \"FlightInsurance3.sol\":3890:4020  if (msg.sender == insuranceProvider) {... */\n    tag_123:\n        /* \"FlightInsurance3.sol\":4038:4044  policy */\n      dup1\n        /* \"FlightInsurance3.sol\":4030:4078  return (policy, \"Policy retrieved successfully\") */\n      mload(0x40)\n      dup1\n      0x40\n      add\n      0x40\n      mstore\n      dup1\n      0x1d\n      dup2\n      mstore\n      0x20\n      add\n      0x506f6c69637920726574726965766564207375636365737366756c6c79000000\n      dup2\n      mstore\n      pop\n      swap3\n      pop\n      swap3\n      pop\n      pop\n        /* \"FlightInsurance3.sol\":3611:4085  function viewMyPolicy() external view returns (InsurancePolicy memory, string memory) {... */\n    tag_90:\n      swap1\n      swap2\n      jump\t// out\n        /* \"FlightInsurance3.sol\":562:594  address public insuranceProvider */\n    tag_30:\n      0x00\n      dup1\n      sload\n      swap1\n      0x0100\n      exp\n      swap1\n      div\n      0xffffffffffffffffffffffffffffffffffffffff\n      and\n      dup2\n      jump\t// out\n        /* \"FlightInsurance3.sol\":5067:5880  function payIndemnity(address passenger) external returns (bool, string memory) {... */\n    tag_37:\n        /* \"FlightInsurance3.sol\":5126:5130  bool */\n      0x00\n        /* \"FlightInsurance3.sol\":5132:5145  string memory */\n      0x60\n        /* \"FlightInsurance3.sol\":5175:5192  insuranceProvider */\n      0x00\n      dup1\n      sload\n      swap1\n      0x0100\n      exp\n      swap1\n      div\n      0xffffffffffffffffffffffffffffffffffffffff\n      and\n        /* \"FlightInsurance3.sol\":5161:5192  msg.sender != insuranceProvider */\n      0xffffffffffffffffffffffffffffffffffffffff\n      and\n        /* \"FlightInsurance3.sol\":5161:5171  msg.sender */\n      caller\n        /* \"FlightInsurance3.sol\":5161:5192  msg.sender != insuranceProvider */\n      0xffffffffffffffffffffffffffffffffffffffff\n      and\n      eq\n        /* \"FlightInsurance3.sol\":5157:5281  if (msg.sender != insuranceProvider) {... */\n      tag_125\n      jumpi\n        /* \"FlightInsurance3.sol\":5216:5221  false */\n      0x00\n        /* \"FlightInsurance3.sol\":5208:5270  return (false, \"Only insurance provider can initiate payment\") */\n      mload(0x40)\n      dup1\n      0x60\n      add\n      0x40\n      mstore\n      dup1\n      0x2c\n      dup2\n      mstore\n      0x20\n      add\n      data_35c2c118339253cfd42f235be948378bf98d9f4c02c62ef1490e41e10f5494c5\n      0x2c\n      swap2\n      codecopy\n      swap2\n      pop\n      swap2\n      pop\n      jump(tag_124)\n        /* \"FlightInsurance3.sol\":5157:5281  if (msg.sender != insuranceProvider) {... */\n    tag_125:\n        /* \"FlightInsurance3.sol\":5316:5317  0 */\n      0x00\n        /* \"FlightInsurance3.sol\":5295:5318  passenger == address(0) */\n      0xffffffffffffffffffffffffffffffffffffffff\n      and\n        /* \"FlightInsurance3.sol\":5295:5304  passenger */\n      dup4\n        /* \"FlightInsurance3.sol\":5295:5318  passenger == address(0) */\n      0xffffffffffffffffffffffffffffffffffffffff\n      and\n      sub\n        /* \"FlightInsurance3.sol\":5291:5401  if (passenger == address(0)) {... */\n      tag_126\n      jumpi\n        /* \"FlightInsurance3.sol\":5342:5347  false */\n      0x00\n        /* \"FlightInsurance3.sol\":5334:5390  return (false, \"Invalid address: zero address provided\") */\n      mload(0x40)\n      dup1\n      0x60\n      add\n      0x40\n      mstore\n      dup1\n      0x26\n      dup2\n      mstore\n      0x20\n      add\n      data_2a5821b7e6fb0b2894da4a1cf4a905d129b906bf6cb575c5c603b53ecae40c94\n      0x26\n      swap2\n      codecopy\n      swap2\n      pop\n      swap2\n      pop\n      jump(tag_124)\n        /* \"FlightInsurance3.sol\":5291:5401  if (passenger == address(0)) {... */\n    tag_126:\n        /* \"FlightInsurance3.sol\":5411:5441  InsurancePolicy storage policy */\n      0x00\n        /* \"FlightInsurance3.sol\":5444:5461  policiesByAddress */\n      0x01\n        /* \"FlightInsurance3.sol\":5444:5472  policiesByAddress[passenger] */\n      0x00\n        /* \"FlightInsurance3.sol\":5462:5471  passenger */\n      dup6\n        /* \"FlightInsurance3.sol\":5444:5472  policiesByAddress[passenger] */\n      0xffffffffffffffffffffffffffffffffffffffff\n      and\n      0xffffffffffffffffffffffffffffffffffffffff\n      and\n      dup2\n      mstore\n      0x20\n      add\n      swap1\n      dup2\n      mstore\n      0x20\n      add\n      0x00\n      keccak256\n        /* \"FlightInsurance3.sol\":5411:5472  InsurancePolicy storage policy = policiesByAddress[passenger] */\n      swap1\n      pop\n        /* \"FlightInsurance3.sol\":5521:5522  0 */\n      0x00\n        /* \"FlightInsurance3.sol\":5486:5523  policy.passengerAddress == address(0) */\n      0xffffffffffffffffffffffffffffffffffffffff\n      and\n        /* \"FlightInsurance3.sol\":5486:5492  policy */\n      dup2\n        /* \"FlightInsurance3.sol\":5486:5509  policy.passengerAddress */\n      0x01\n      add\n      0x00\n      swap1\n      sload\n      swap1\n      0x0100\n      exp\n      swap1\n      div\n      0xffffffffffffffffffffffffffffffffffffffff\n      and\n        /* \"FlightInsurance3.sol\":5486:5523  policy.passengerAddress == address(0) */\n      0xffffffffffffffffffffffffffffffffffffffff\n      and\n      sub\n        /* \"FlightInsurance3.sol\":5482:5583  if (policy.passengerAddress == address(0)) {... */\n      tag_127\n      jumpi\n        /* \"FlightInsurance3.sol\":5547:5552  false */\n      0x00\n        /* \"FlightInsurance3.sol\":5539:5572  return (false, \"No policy found\") */\n      mload(0x40)\n      dup1\n      0x40\n      add\n      0x40\n      mstore\n      dup1\n      0x0f\n      dup2\n      mstore\n      0x20\n      add\n      0x4e6f20706f6c69637920666f756e640000000000000000000000000000000000\n      dup2\n      mstore\n      pop\n      swap3\n      pop\n      swap3\n      pop\n      pop\n      jump(tag_124)\n        /* \"FlightInsurance3.sol\":5482:5583  if (policy.passengerAddress == address(0)) {... */\n    tag_127:\n        /* \"FlightInsurance3.sol\":5638:5660  keccak256(\"purchased\") */\n      0x8a6496e4880174e791c7333606cc9f71e4c6fc52a65ccc1008e0ddd3dd8d1da5\n        /* \"FlightInsurance3.sol\":5613:5619  policy */\n      dup2\n        /* \"FlightInsurance3.sol\":5613:5632  policy.policyStatus */\n      0x06\n      add\n        /* \"FlightInsurance3.sol\":5597:5634  keccak256(bytes(policy.policyStatus)) */\n      mload(0x40)\n      tag_128\n      swap2\n      swap1\n      tag_129\n      jump\t// in\n    tag_128:\n      mload(0x40)\n      dup1\n      swap2\n      sub\n      swap1\n      keccak256\n        /* \"FlightInsurance3.sol\":5597:5660  keccak256(bytes(policy.policyStatus)) != keccak256(\"purchased\") */\n      eq\n        /* \"FlightInsurance3.sol\":5593:5730  if (keccak256(bytes(policy.policyStatus)) != keccak256(\"purchased\")) {... */\n      tag_130\n      jumpi\n        /* \"FlightInsurance3.sol\":5684:5689  false */\n      0x00\n        /* \"FlightInsurance3.sol\":5676:5719  return (false, \"Indemnity already claimed\") */\n      mload(0x40)\n      dup1\n      0x40\n      add\n      0x40\n      mstore\n      dup1\n      0x19\n      dup2\n      mstore\n      0x20\n      add\n      0x496e64656d6e69747920616c726561647920636c61696d656400000000000000\n      dup2\n      mstore\n      pop\n      swap3\n      pop\n      swap3\n      pop\n      pop\n      jump(tag_124)\n        /* \"FlightInsurance3.sol\":5593:5730  if (keccak256(bytes(policy.policyStatus)) != keccak256(\"purchased\")) {... */\n    tag_130:\n        /* \"FlightInsurance3.sol\":5748:5757  passenger */\n      dup4\n        /* \"FlightInsurance3.sol\":5740:5767  payable(passenger).transfer */\n      0xffffffffffffffffffffffffffffffffffffffff\n      and\n        /* \"FlightInsurance3.sol\":5740:5778  payable(passenger).transfer(INDEMNITY) */\n      0x08fc\n        /* \"FlightInsurance3.sol\":545:555  0.02 ether */\n      0x470de4df820000\n        /* \"FlightInsurance3.sol\":5740:5778  payable(passenger).transfer(INDEMNITY) */\n      swap1\n      dup2\n      iszero\n      mul\n      swap1\n      mload(0x40)\n      0x00\n      mload(0x40)\n      dup1\n      dup4\n      sub\n      dup2\n      dup6\n      dup9\n      dup9\n      call\n      swap4\n      pop\n      pop\n      pop\n      pop\n      iszero\n      dup1\n      iszero\n      tag_132\n      jumpi\n      returndatasize\n      0x00\n      dup1\n      returndatacopy\n      revert(0x00, returndatasize)\n    tag_132:\n      pop\n        /* \"FlightInsurance3.sol\":5788:5819  policy.policyStatus = \"claimed\" */\n      mload(0x40)\n      dup1\n      0x40\n      add\n      0x40\n      mstore\n      dup1\n      0x07\n      dup2\n      mstore\n      0x20\n      add\n      0x636c61696d656400000000000000000000000000000000000000000000000000\n      dup2\n      mstore\n      pop\n        /* \"FlightInsurance3.sol\":5788:5794  policy */\n      dup2\n        /* \"FlightInsurance3.sol\":5788:5807  policy.policyStatus */\n      0x06\n      add\n        /* \"FlightInsurance3.sol\":5788:5819  policy.policyStatus = \"claimed\" */\n      swap1\n      dup2\n      tag_133\n      swap2\n      swap1\n      tag_78\n      jump\t// in\n    tag_133:\n      pop\n        /* \"FlightInsurance3.sol\":5837:5841  true */\n      0x01\n        /* \"FlightInsurance3.sol\":5829:5873  return (true, \"Indemnity successfully paid\") */\n      mload(0x40)\n      dup1\n      0x40\n      add\n      0x40\n      mstore\n      dup1\n      0x1b\n      dup2\n      mstore\n      0x20\n      add\n      0x496e64656d6e697479207375636365737366756c6c7920706169640000000000\n      dup2\n      mstore\n      pop\n      swap3\n      pop\n      swap3\n      pop\n      pop\n        /* \"FlightInsurance3.sol\":5067:5880  function payIndemnity(address passenger) external returns (bool, string memory) {... */\n    tag_124:\n      swap2\n      pop\n      swap2\n      jump\t// out\n        /* \"FlightInsurance3.sol\":1053:1250  function viewAvailablePolicy() external pure returns (string memory) {... */\n    tag_41:\n        /* \"FlightInsurance3.sol\":1107:1120  string memory */\n      0x60\n        /* \"FlightInsurance3.sol\":1132:1243  return \"Premium: 0.01 ETH, Indemnity: 0.02 ETH, Coverage: Extreme Weather Delays (e.g., hail, flooding, etc.).\" */\n      mload(0x40)\n      dup1\n      0xa0\n      add\n      0x40\n      mstore\n      dup1\n      0x66\n      dup2\n      mstore\n      0x20\n      add\n      data_d59989be92bc9d1b4549c043b505eb9c4875cfd9f825df1096982c95975097c2\n      0x66\n      swap2\n      codecopy\n      swap1\n      pop\n        /* \"FlightInsurance3.sol\":1053:1250  function viewAvailablePolicy() external pure returns (string memory) {... */\n      swap1\n      jump\t// out\n        /* \"FlightInsurance3.sol\":4150:4826  function viewAllPolicies() external view returns (InsurancePolicy[] memory, string memory) {... */\n    tag_46:\n        /* \"FlightInsurance3.sol\":4200:4224  InsurancePolicy[] memory */\n      0x60\n        /* \"FlightInsurance3.sol\":4226:4239  string memory */\n      dup1\n        /* \"FlightInsurance3.sol\":4361:4378  insuranceProvider */\n      0x00\n      dup1\n      sload\n      swap1\n      0x0100\n      exp\n      swap1\n      div\n      0xffffffffffffffffffffffffffffffffffffffff\n      and\n        /* \"FlightInsurance3.sol\":4347:4378  msg.sender != insuranceProvider */\n      0xffffffffffffffffffffffffffffffffffffffff\n      and\n        /* \"FlightInsurance3.sol\":4347:4357  msg.sender */\n      caller\n        /* \"FlightInsurance3.sol\":4347:4378  msg.sender != insuranceProvider */\n      0xffffffffffffffffffffffffffffffffffffffff\n      and\n      eq\n        /* \"FlightInsurance3.sol\":4343:4500  if (msg.sender != insuranceProvider) {... */\n      tag_136\n      jumpi\n        /* \"FlightInsurance3.sol\":4394:4424  InsurancePolicy[] memory empty */\n      0x60\n        /* \"FlightInsurance3.sol\":4446:4451  empty */\n      dup1\n        /* \"FlightInsurance3.sol\":4438:4489  return (empty, \"Caller must be insurance provider\") */\n      mload(0x40)\n      dup1\n      0x60\n      add\n      0x40\n      mstore\n      dup1\n      0x21\n      dup2\n      mstore\n      0x20\n      add\n      data_2df0834bdf8786d74360a7c8b8d7de5d15a4289ab85529d73f4e7397c0b8af40\n      0x21\n      swap2\n      codecopy\n      swap3\n      pop\n      swap3\n      pop\n      pop\n      jump(tag_135)\n        /* \"FlightInsurance3.sol\":4343:4500  if (msg.sender != insuranceProvider) {... */\n    tag_136:\n        /* \"FlightInsurance3.sol\":4510:4546  InsurancePolicy[] memory allPolicies */\n      0x00\n        /* \"FlightInsurance3.sol\":4571:4591  insuredPassengerList */\n      0x02\n        /* \"FlightInsurance3.sol\":4571:4598  insuredPassengerList.length */\n      dup1\n      sload\n      swap1\n      pop\n        /* \"FlightInsurance3.sol\":4549:4599  new InsurancePolicy[](insuredPassengerList.length) */\n      0xffffffffffffffff\n      dup2\n      gt\n      iszero\n      tag_137\n      jumpi\n      tag_138\n      tag_139\n      jump\t// in\n    tag_138:\n    tag_137:\n      mload(0x40)\n      swap1\n      dup1\n      dup3\n      mstore\n      dup1\n      0x20\n      mul\n      0x20\n      add\n      dup3\n      add\n      0x40\n      mstore\n      dup1\n      iszero\n      tag_140\n      jumpi\n      dup2\n      0x20\n      add\n    tag_141:\n      tag_142\n      tag_89\n      jump\t// in\n    tag_142:\n      dup2\n      mstore\n      0x20\n      add\n      swap1\n      0x01\n      swap1\n      sub\n      swap1\n      dup2\n      tag_141\n      jumpi\n      swap1\n      pop\n    tag_140:\n      pop\n        /* \"FlightInsurance3.sol\":4510:4599  InsurancePolicy[] memory allPolicies = new InsurancePolicy[](insuredPassengerList.length) */\n      swap1\n      pop\n        /* \"FlightInsurance3.sol\":4614:4623  uint256 i */\n      0x00\n        /* \"FlightInsurance3.sol\":4609:4751  for (uint256 i = 0; i < insuredPassengerList.length; i++) {... */\n    tag_143:\n        /* \"FlightInsurance3.sol\":4633:4653  insuredPassengerList */\n      0x02\n        /* \"FlightInsurance3.sol\":4633:4660  insuredPassengerList.length */\n      dup1\n      sload\n      swap1\n      pop\n        /* \"FlightInsurance3.sol\":4629:4630  i */\n      dup2\n        /* \"FlightInsurance3.sol\":4629:4660  i < insuredPassengerList.length */\n      lt\n        /* \"FlightInsurance3.sol\":4609:4751  for (uint256 i = 0; i < insuredPassengerList.length; i++) {... */\n      iszero\n      tag_144\n      jumpi\n        /* \"FlightInsurance3.sol\":4698:4715  policiesByAddress */\n      0x01\n        /* \"FlightInsurance3.sol\":4698:4740  policiesByAddress[insuredPassengerList[i]] */\n      0x00\n        /* \"FlightInsurance3.sol\":4716:4736  insuredPassengerList */\n      0x02\n        /* \"FlightInsurance3.sol\":4737:4738  i */\n      dup4\n        /* \"FlightInsurance3.sol\":4716:4739  insuredPassengerList[i] */\n      dup2\n      sload\n      dup2\n      lt\n      tag_146\n      jumpi\n      tag_147\n      tag_70\n      jump\t// in\n    tag_147:\n    tag_146:\n      swap1\n      0x00\n      mstore\n      keccak256(0x00, 0x20)\n      add\n      0x00\n      swap1\n      sload\n      swap1\n      0x0100\n      exp\n      swap1\n      div\n      0xffffffffffffffffffffffffffffffffffffffff\n      and\n        /* \"FlightInsurance3.sol\":4698:4740  policiesByAddress[insuredPassengerList[i]] */\n      0xffffffffffffffffffffffffffffffffffffffff\n      and\n      0xffffffffffffffffffffffffffffffffffffffff\n      and\n      dup2\n      mstore\n      0x20\n      add\n      swap1\n      dup2\n      mstore\n      0x20\n      add\n      0x00\n      keccak256\n        /* \"FlightInsurance3.sol\":4681:4740  allPolicies[i] = policiesByAddress[insuredPassengerList[i]] */\n      mload(0x40)\n      dup1\n      0xe0\n      add\n      0x40\n      mstore\n      swap1\n      dup2\n      0x00\n      dup3\n      add\n      dup1\n      sload\n      tag_149\n      swap1\n      tag_92\n      jump\t// in\n    tag_149:\n      dup1\n      0x1f\n      add\n      0x20\n      dup1\n      swap2\n      div\n      mul\n      0x20\n      add\n      mload(0x40)\n      swap1\n      dup2\n      add\n      0x40\n      mstore\n      dup1\n      swap3\n      swap2\n      swap1\n      dup2\n      dup2\n      mstore\n      0x20\n      add\n      dup3\n      dup1\n      sload\n      tag_150\n      swap1\n      tag_92\n      jump\t// in\n    tag_150:\n      dup1\n      iszero\n      tag_151\n      jumpi\n      dup1\n      0x1f\n      lt\n      tag_152\n      jumpi\n      0x0100\n      dup1\n      dup4\n      sload\n      div\n      mul\n      dup4\n      mstore\n      swap2\n      0x20\n      add\n      swap2\n      jump(tag_151)\n    tag_152:\n      dup3\n      add\n      swap2\n      swap1\n      0x00\n      mstore\n      keccak256(0x00, 0x20)\n      swap1\n    tag_153:\n      dup2\n      sload\n      dup2\n      mstore\n      swap1\n      0x01\n      add\n      swap1\n      0x20\n      add\n      dup1\n      dup4\n      gt\n      tag_153\n      jumpi\n      dup3\n      swap1\n      sub\n      0x1f\n      and\n      dup3\n      add\n      swap2\n    tag_151:\n      pop\n      pop\n      pop\n      pop\n      pop\n      dup2\n      mstore\n      0x20\n      add\n      0x01\n      dup3\n      add\n      0x00\n      swap1\n      sload\n      swap1\n      0x0100\n      exp\n      swap1\n      div\n      0xffffffffffffffffffffffffffffffffffffffff\n      and\n      0xffffffffffffffffffffffffffffffffffffffff\n      and\n      0xffffffffffffffffffffffffffffffffffffffff\n      and\n      dup2\n      mstore\n      0x20\n      add\n      0x02\n      dup3\n      add\n      dup1\n      sload\n      tag_154\n      swap1\n      tag_92\n      jump\t// in\n    tag_154:\n      dup1\n      0x1f\n      add\n      0x20\n      dup1\n      swap2\n      div\n      mul\n      0x20\n      add\n      mload(0x40)\n      swap1\n      dup2\n      add\n      0x40\n      mstore\n      dup1\n      swap3\n      swap2\n      swap1\n      dup2\n      dup2\n      mstore\n      0x20\n      add\n      dup3\n      dup1\n      sload\n      tag_155\n      swap1\n      tag_92\n      jump\t// in\n    tag_155:\n      dup1\n      iszero\n      tag_156\n      jumpi\n      dup1\n      0x1f\n      lt\n      tag_157\n      jumpi\n      0x0100\n      dup1\n      dup4\n      sload\n      div\n      mul\n      dup4\n      mstore\n      swap2\n      0x20\n      add\n      swap2\n      jump(tag_156)\n    tag_157:\n      dup3\n      add\n      swap2\n      swap1\n      0x00\n      mstore\n      keccak256(0x00, 0x20)\n      swap1\n    tag_158:\n      dup2\n      sload\n      dup2\n      mstore\n      swap1\n      0x01\n      add\n      swap1\n      0x20\n      add\n      dup1\n      dup4\n      gt\n      tag_158\n      jumpi\n      dup3\n      swap1\n      sub\n      0x1f\n      and\n      dup3\n      add\n      swap2\n    tag_156:\n      pop\n      pop\n      pop\n      pop\n      pop\n      dup2\n      mstore\n      0x20\n      add\n      0x03\n      dup3\n      add\n      dup1\n      sload\n      tag_159\n      swap1\n      tag_92\n      jump\t// in\n    tag_159:\n      dup1\n      0x1f\n      add\n      0x20\n      dup1\n      swap2\n      div\n      mul\n      0x20\n      add\n      mload(0x40)\n      swap1\n      dup2\n      add\n      0x40\n      mstore\n      dup1\n      swap3\n      swap2\n      swap1\n      dup2\n      dup2\n      mstore\n      0x20\n      add\n      dup3\n      dup1\n      sload\n      tag_160\n      swap1\n      tag_92\n      jump\t// in\n    tag_160:\n      dup1\n      iszero\n      tag_161\n      jumpi\n      dup1\n      0x1f\n      lt\n      tag_162\n      jumpi\n      0x0100\n      dup1\n      dup4\n      sload\n      div\n      mul\n      dup4\n      mstore\n      swap2\n      0x20\n      add\n      swap2\n      jump(tag_161)\n    tag_162:\n      dup3\n      add\n      swap2\n      swap1\n      0x00\n      mstore\n      keccak256(0x00, 0x20)\n      swap1\n    tag_163:\n      dup2\n      sload\n      dup2\n      mstore\n      swap1\n      0x01\n      add\n      swap1\n      0x20\n      add\n      dup1\n      dup4\n      gt\n      tag_163\n      jumpi\n      dup3\n      swap1\n      sub\n      0x1f\n      and\n      dup3\n      add\n      swap2\n    tag_161:\n      pop\n      pop\n      pop\n      pop\n      pop\n      dup2\n      mstore\n      0x20\n      add\n      0x04\n      dup3\n      add\n      dup1\n      sload\n      tag_164\n      swap1\n      tag_92\n      jump\t// in\n    tag_164:\n      dup1\n      0x1f\n      add\n      0x20\n      dup1\n      swap2\n      div\n      mul\n      0x20\n      add\n      mload(0x40)\n      swap1\n      dup2\n      add\n      0x40\n      mstore\n      dup1\n      swap3\n      swap2\n      swap1\n      dup2\n      dup2\n      mstore\n      0x20\n      add\n      dup3\n      dup1\n      sload\n      tag_165\n      swap1\n      tag_92\n      jump\t// in\n    tag_165:\n      dup1\n      iszero\n      tag_166\n      jumpi\n      dup1\n      0x1f\n      lt\n      tag_167\n      jumpi\n      0x0100\n      dup1\n      dup4\n      sload\n      div\n      mul\n      dup4\n      mstore\n      swap2\n      0x20\n      add\n      swap2\n      jump(tag_166)\n    tag_167:\n      dup3\n      add\n      swap2\n      swap1\n      0x00\n      mstore\n      keccak256(0x00, 0x20)\n      swap1\n    tag_168:\n      dup2\n      sload\n      dup2\n      mstore\n      swap1\n      0x01\n      add\n      swap1\n      0x20\n      add\n      dup1\n      dup4\n      gt\n      tag_168\n      jumpi\n      dup3\n      swap1\n      sub\n      0x1f\n      and\n      dup3\n      add\n      swap2\n    tag_166:\n      pop\n      pop\n      pop\n      pop\n      pop\n      dup2\n      mstore\n      0x20\n      add\n      0x05\n      dup3\n      add\n      dup1\n      sload\n      tag_169\n      swap1\n      tag_92\n      jump\t// in\n    tag_169:\n      dup1\n      0x1f\n      add\n      0x20\n      dup1\n      swap2\n      div\n      mul\n      0x20\n      add\n      mload(0x40)\n      swap1\n      dup2\n      add\n      0x40\n      mstore\n      dup1\n      swap3\n      swap2\n      swap1\n      dup2\n      dup2\n      mstore\n      0x20\n      add\n      dup3\n      dup1\n      sload\n      tag_170\n      swap1\n      tag_92\n      jump\t// in\n    tag_170:\n      dup1\n      iszero\n      tag_171\n      jumpi\n      dup1\n      0x1f\n      lt\n      tag_172\n      jumpi\n      0x0100\n      dup1\n      dup4\n      sload\n      div\n      mul\n      dup4\n      mstore\n      swap2\n      0x20\n      add\n      swap2\n      jump(tag_171)\n    tag_172:\n      dup3\n      add\n      swap2\n      swap1\n      0x00\n      mstore\n      keccak256(0x00, 0x20)\n      swap1\n    tag_173:\n      dup2\n      sload\n      dup2\n      mstore\n      swap1\n      0x01\n      add\n      swap1\n      0x20\n      add\n      dup1\n      dup4\n      gt\n      tag_173\n      jumpi\n      dup3\n      swap1\n      sub\n      0x1f\n      and\n      dup3\n      add\n      swap2\n    tag_171:\n      pop\n      pop\n      pop\n      pop\n      pop\n      dup2\n      mstore\n      0x20\n      add\n      0x06\n      dup3\n      add\n      dup1\n      sload\n      tag_174\n      swap1\n      tag_92\n      jump\t// in\n    tag_174:\n      dup1\n      0x1f\n      add\n      0x20\n      dup1\n      swap2\n      div\n      mul\n      0x20\n      add\n      mload(0x40)\n      swap1\n      dup2\n      add\n      0x40\n      mstore\n      dup1\n      swap3\n      swap2\n      swap1\n      dup2\n      dup2\n      mstore\n      0x20\n      add\n      dup3\n      dup1\n      sload\n      tag_175\n      swap1\n      tag_92\n      jump\t// in\n    tag_175:\n      dup1\n      iszero\n      tag_176\n      jumpi\n      dup1\n      0x1f\n      lt\n      tag_177\n      jumpi\n      0x0100\n      dup1\n      dup4\n      sload\n      div\n      mul\n      dup4\n      mstore\n      swap2\n      0x20\n      add\n      swap2\n      jump(tag_176)\n    tag_177:\n      dup3\n      add\n      swap2\n      swap1\n      0x00\n      mstore\n      keccak256(0x00, 0x20)\n      swap1\n    tag_178:\n      dup2\n      sload\n      dup2\n      mstore\n      swap1\n      0x01\n      add\n      swap1\n      0x20\n      add\n      dup1\n      dup4\n      gt\n      tag_178\n      jumpi\n      dup3\n      swap1\n      sub\n      0x1f\n      and\n      dup3\n      add\n      swap2\n    tag_176:\n      pop\n      pop\n      pop\n      pop\n      pop\n      dup2\n      mstore\n      pop\n      pop\n        /* \"FlightInsurance3.sol\":4681:4692  allPolicies */\n      dup3\n        /* \"FlightInsurance3.sol\":4693:4694  i */\n      dup3\n        /* \"FlightInsurance3.sol\":4681:4695  allPolicies[i] */\n      dup2\n      mload\n      dup2\n      lt\n      tag_179\n      jumpi\n      tag_180\n      tag_70\n      jump\t// in\n    tag_180:\n    tag_179:\n      0x20\n      mul\n      0x20\n      add\n      add\n        /* \"FlightInsurance3.sol\":4681:4740  allPolicies[i] = policiesByAddress[insuredPassengerList[i]] */\n      dup2\n      swap1\n      mstore\n      pop\n        /* \"FlightInsurance3.sol\":4662:4665  i++ */\n      dup1\n      dup1\n      0x01\n      add\n      swap2\n      pop\n      pop\n        /* \"FlightInsurance3.sol\":4609:4751  for (uint256 i = 0; i < insuredPassengerList.length; i++) {... */\n      jump(tag_143)\n    tag_144:\n      pop\n        /* \"FlightInsurance3.sol\":4768:4779  allPolicies */\n      dup1\n        /* \"FlightInsurance3.sol\":4760:4819  return (allPolicies, \"All policies retrieved successfully\") */\n      mload(0x40)\n      dup1\n      0x60\n      add\n      0x40\n      mstore\n      dup1\n      0x23\n      dup2\n      mstore\n      0x20\n      add\n      data_59323eb6dad5e70cc715cecc9bb2fbfd583fdb1f65d5a10f603cc22277a415f3\n      0x23\n      swap2\n      codecopy\n      swap3\n      pop\n      swap3\n      pop\n      pop\n        /* \"FlightInsurance3.sol\":4150:4826  function viewAllPolicies() external view returns (InsurancePolicy[] memory, string memory) {... */\n    tag_135:\n      swap1\n      swap2\n      jump\t// out\n        /* \"FlightInsurance3.sol\":509:555  uint256 public constant INDEMNITY = 0.02 ether */\n    tag_51:\n        /* \"FlightInsurance3.sol\":545:555  0.02 ether */\n      0x470de4df820000\n        /* \"FlightInsurance3.sol\":509:555  uint256 public constant INDEMNITY = 0.02 ether */\n      dup2\n      jump\t// out\n        /* \"FlightInsurance3.sol\":459:503  uint256 public constant PREMIUM = 0.01 ether */\n    tag_55:\n        /* \"FlightInsurance3.sol\":493:503  0.01 ether */\n      0x2386f26fc10000\n        /* \"FlightInsurance3.sol\":459:503  uint256 public constant PREMIUM = 0.01 ether */\n      dup2\n      jump\t// out\n    tag_89:\n      mload(0x40)\n      dup1\n      0xe0\n      add\n      0x40\n      mstore\n      dup1\n      0x60\n      dup2\n      mstore\n      0x20\n      add\n      and(0xffffffffffffffffffffffffffffffffffffffff, 0x00)\n      dup2\n      mstore\n      0x20\n      add\n      0x60\n      dup2\n      mstore\n      0x20\n      add\n      0x60\n      dup2\n      mstore\n      0x20\n      add\n      0x60\n      dup2\n      mstore\n      0x20\n      add\n      0x60\n      dup2\n      mstore\n      0x20\n      add\n      0x60\n      dup2\n      mstore\n      pop\n      swap1\n      jump\t// out\n        /* \"#utility.yul\":7:84   */\n    tag_181:\n        /* \"#utility.yul\":44:51   */\n      0x00\n        /* \"#utility.yul\":73:78   */\n      dup2\n        /* \"#utility.yul\":62:78   */\n      swap1\n      pop\n        /* \"#utility.yul\":7:84   */\n      swap2\n      swap1\n      pop\n      jump\t// out\n        /* \"#utility.yul\":90:208   */\n    tag_182:\n        /* \"#utility.yul\":177:201   */\n      tag_237\n        /* \"#utility.yul\":195:200   */\n      dup2\n        /* \"#utility.yul\":177:201   */\n      tag_181\n      jump\t// in\n    tag_237:\n        /* \"#utility.yul\":172:175   */\n      dup3\n        /* \"#utility.yul\":165:202   */\n      mstore\n        /* \"#utility.yul\":90:208   */\n      pop\n      pop\n      jump\t// out\n        /* \"#utility.yul\":214:436   */\n    tag_16:\n        /* \"#utility.yul\":307:311   */\n      0x00\n        /* \"#utility.yul\":345:347   */\n      0x20\n        /* \"#utility.yul\":334:343   */\n      dup3\n        /* \"#utility.yul\":330:348   */\n      add\n        /* \"#utility.yul\":322:348   */\n      swap1\n      pop\n        /* \"#utility.yul\":358:429   */\n      tag_239\n        /* \"#utility.yul\":426:427   */\n      0x00\n        /* \"#utility.yul\":415:424   */\n      dup4\n        /* \"#utility.yul\":411:428   */\n      add\n        /* \"#utility.yul\":402:408   */\n      dup5\n        /* \"#utility.yul\":358:429   */\n      tag_182\n      jump\t// in\n    tag_239:\n        /* \"#utility.yul\":214:436   */\n      swap3\n      swap2\n      pop\n      pop\n      jump\t// out\n        /* \"#utility.yul\":523:640   */\n    tag_184:\n        /* \"#utility.yul\":632:633   */\n      0x00\n        /* \"#utility.yul\":629:630   */\n      dup1\n        /* \"#utility.yul\":622:634   */\n      revert\n        /* \"#utility.yul\":646:763   */\n    tag_185:\n        /* \"#utility.yul\":755:756   */\n      0x00\n        /* \"#utility.yul\":752:753   */\n      dup1\n        /* \"#utility.yul\":745:757   */\n      revert\n        /* \"#utility.yul\":769:886   */\n    tag_186:\n        /* \"#utility.yul\":878:879   */\n      0x00\n        /* \"#utility.yul\":875:876   */\n      dup1\n        /* \"#utility.yul\":868:880   */\n      revert\n        /* \"#utility.yul\":892:1009   */\n    tag_187:\n        /* \"#utility.yul\":1001:1002   */\n      0x00\n        /* \"#utility.yul\":998:999   */\n      dup1\n        /* \"#utility.yul\":991:1003   */\n      revert\n        /* \"#utility.yul\":1015:1132   */\n    tag_188:\n        /* \"#utility.yul\":1124:1125   */\n      0x00\n        /* \"#utility.yul\":1121:1122   */\n      dup1\n        /* \"#utility.yul\":1114:1126   */\n      revert\n        /* \"#utility.yul\":1152:1705   */\n    tag_189:\n        /* \"#utility.yul\":1210:1218   */\n      0x00\n        /* \"#utility.yul\":1220:1226   */\n      dup1\n        /* \"#utility.yul\":1270:1273   */\n      dup4\n        /* \"#utility.yul\":1263:1267   */\n      0x1f\n        /* \"#utility.yul\":1255:1261   */\n      dup5\n        /* \"#utility.yul\":1251:1268   */\n      add\n        /* \"#utility.yul\":1247:1274   */\n      slt\n        /* \"#utility.yul\":1237:1359   */\n      tag_247\n      jumpi\n        /* \"#utility.yul\":1278:1357   */\n      tag_248\n      tag_186\n      jump\t// in\n    tag_248:\n        /* \"#utility.yul\":1237:1359   */\n    tag_247:\n        /* \"#utility.yul\":1391:1397   */\n      dup3\n        /* \"#utility.yul\":1378:1398   */\n      calldataload\n        /* \"#utility.yul\":1368:1398   */\n      swap1\n      pop\n        /* \"#utility.yul\":1421:1439   */\n      0xffffffffffffffff\n        /* \"#utility.yul\":1413:1419   */\n      dup2\n        /* \"#utility.yul\":1410:1440   */\n      gt\n        /* \"#utility.yul\":1407:1524   */\n      iszero\n      tag_249\n      jumpi\n        /* \"#utility.yul\":1443:1522   */\n      tag_250\n      tag_187\n      jump\t// in\n    tag_250:\n        /* \"#utility.yul\":1407:1524   */\n    tag_249:\n        /* \"#utility.yul\":1557:1561   */\n      0x20\n        /* \"#utility.yul\":1549:1555   */\n      dup4\n        /* \"#utility.yul\":1545:1562   */\n      add\n        /* \"#utility.yul\":1533:1562   */\n      swap2\n      pop\n        /* \"#utility.yul\":1611:1614   */\n      dup4\n        /* \"#utility.yul\":1603:1607   */\n      0x01\n        /* \"#utility.yul\":1595:1601   */\n      dup3\n        /* \"#utility.yul\":1591:1608   */\n      mul\n        /* \"#utility.yul\":1581:1589   */\n      dup4\n        /* \"#utility.yul\":1577:1609   */\n      add\n        /* \"#utility.yul\":1574:1615   */\n      gt\n        /* \"#utility.yul\":1571:1699   */\n      iszero\n      tag_251\n      jumpi\n        /* \"#utility.yul\":1618:1697   */\n      tag_252\n      tag_188\n      jump\t// in\n    tag_252:\n        /* \"#utility.yul\":1571:1699   */\n    tag_251:\n        /* \"#utility.yul\":1152:1705   */\n      swap3\n      pop\n      swap3\n      swap1\n      pop\n      jump\t// out\n        /* \"#utility.yul\":1711:3622   */\n    tag_19:\n        /* \"#utility.yul\":1866:1872   */\n      0x00\n        /* \"#utility.yul\":1874:1880   */\n      dup1\n        /* \"#utility.yul\":1882:1888   */\n      0x00\n        /* \"#utility.yul\":1890:1896   */\n      dup1\n        /* \"#utility.yul\":1898:1904   */\n      0x00\n        /* \"#utility.yul\":1906:1912   */\n      dup1\n        /* \"#utility.yul\":1914:1920   */\n      0x00\n        /* \"#utility.yul\":1922:1928   */\n      dup1\n        /* \"#utility.yul\":1930:1936   */\n      0x00\n        /* \"#utility.yul\":1938:1944   */\n      dup1\n        /* \"#utility.yul\":1987:1990   */\n      0xa0\n        /* \"#utility.yul\":1975:1984   */\n      dup12\n        /* \"#utility.yul\":1966:1973   */\n      dup14\n        /* \"#utility.yul\":1962:1985   */\n      sub\n        /* \"#utility.yul\":1958:1991   */\n      slt\n        /* \"#utility.yul\":1955:2075   */\n      iszero\n      tag_254\n      jumpi\n        /* \"#utility.yul\":1994:2073   */\n      tag_255\n      tag_184\n      jump\t// in\n    tag_255:\n        /* \"#utility.yul\":1955:2075   */\n    tag_254:\n        /* \"#utility.yul\":2142:2143   */\n      0x00\n        /* \"#utility.yul\":2131:2140   */\n      dup12\n        /* \"#utility.yul\":2127:2144   */\n      add\n        /* \"#utility.yul\":2114:2145   */\n      calldataload\n        /* \"#utility.yul\":2172:2190   */\n      0xffffffffffffffff\n        /* \"#utility.yul\":2164:2170   */\n      dup2\n        /* \"#utility.yul\":2161:2191   */\n      gt\n        /* \"#utility.yul\":2158:2275   */\n      iszero\n      tag_256\n      jumpi\n        /* \"#utility.yul\":2194:2273   */\n      tag_257\n      tag_185\n      jump\t// in\n    tag_257:\n        /* \"#utility.yul\":2158:2275   */\n    tag_256:\n        /* \"#utility.yul\":2307:2372   */\n      tag_258\n        /* \"#utility.yul\":2364:2371   */\n      dup14\n        /* \"#utility.yul\":2355:2361   */\n      dup3\n        /* \"#utility.yul\":2344:2353   */\n      dup15\n        /* \"#utility.yul\":2340:2362   */\n      add\n        /* \"#utility.yul\":2307:2372   */\n      tag_189\n      jump\t// in\n    tag_258:\n        /* \"#utility.yul\":2289:2372   */\n      swap11\n      pop\n      swap11\n      pop\n        /* \"#utility.yul\":2085:2382   */\n      pop\n        /* \"#utility.yul\":2449:2451   */\n      0x20\n        /* \"#utility.yul\":2438:2447   */\n      dup12\n        /* \"#utility.yul\":2434:2452   */\n      add\n        /* \"#utility.yul\":2421:2453   */\n      calldataload\n        /* \"#utility.yul\":2480:2498   */\n      0xffffffffffffffff\n        /* \"#utility.yul\":2472:2478   */\n      dup2\n        /* \"#utility.yul\":2469:2499   */\n      gt\n        /* \"#utility.yul\":2466:2583   */\n      iszero\n      tag_259\n      jumpi\n        /* \"#utility.yul\":2502:2581   */\n      tag_260\n      tag_185\n      jump\t// in\n    tag_260:\n        /* \"#utility.yul\":2466:2583   */\n    tag_259:\n        /* \"#utility.yul\":2615:2680   */\n      tag_261\n        /* \"#utility.yul\":2672:2679   */\n      dup14\n        /* \"#utility.yul\":2663:2669   */\n      dup3\n        /* \"#utility.yul\":2652:2661   */\n      dup15\n        /* \"#utility.yul\":2648:2670   */\n      add\n        /* \"#utility.yul\":2615:2680   */\n      tag_189\n      jump\t// in\n    tag_261:\n        /* \"#utility.yul\":2597:2680   */\n      swap9\n      pop\n      swap9\n      pop\n        /* \"#utility.yul\":2392:2690   */\n      pop\n        /* \"#utility.yul\":2757:2759   */\n      0x40\n        /* \"#utility.yul\":2746:2755   */\n      dup12\n        /* \"#utility.yul\":2742:2760   */\n      add\n        /* \"#utility.yul\":2729:2761   */\n      calldataload\n        /* \"#utility.yul\":2788:2806   */\n      0xffffffffffffffff\n        /* \"#utility.yul\":2780:2786   */\n      dup2\n        /* \"#utility.yul\":2777:2807   */\n      gt\n        /* \"#utility.yul\":2774:2891   */\n      iszero\n      tag_262\n      jumpi\n        /* \"#utility.yul\":2810:2889   */\n      tag_263\n      tag_185\n      jump\t// in\n    tag_263:\n        /* \"#utility.yul\":2774:2891   */\n    tag_262:\n        /* \"#utility.yul\":2923:2988   */\n      tag_264\n        /* \"#utility.yul\":2980:2987   */\n      dup14\n        /* \"#utility.yul\":2971:2977   */\n      dup3\n        /* \"#utility.yul\":2960:2969   */\n      dup15\n        /* \"#utility.yul\":2956:2978   */\n      add\n        /* \"#utility.yul\":2923:2988   */\n      tag_189\n      jump\t// in\n    tag_264:\n        /* \"#utility.yul\":2905:2988   */\n      swap7\n      pop\n      swap7\n      pop\n        /* \"#utility.yul\":2700:2998   */\n      pop\n        /* \"#utility.yul\":3065:3067   */\n      0x60\n        /* \"#utility.yul\":3054:3063   */\n      dup12\n        /* \"#utility.yul\":3050:3068   */\n      add\n        /* \"#utility.yul\":3037:3069   */\n      calldataload\n        /* \"#utility.yul\":3096:3114   */\n      0xffffffffffffffff\n        /* \"#utility.yul\":3088:3094   */\n      dup2\n        /* \"#utility.yul\":3085:3115   */\n      gt\n        /* \"#utility.yul\":3082:3199   */\n      iszero\n      tag_265\n      jumpi\n        /* \"#utility.yul\":3118:3197   */\n      tag_266\n      tag_185\n      jump\t// in\n    tag_266:\n        /* \"#utility.yul\":3082:3199   */\n    tag_265:\n        /* \"#utility.yul\":3231:3296   */\n      tag_267\n        /* \"#utility.yul\":3288:3295   */\n      dup14\n        /* \"#utility.yul\":3279:3285   */\n      dup3\n        /* \"#utility.yul\":3268:3277   */\n      dup15\n        /* \"#utility.yul\":3264:3286   */\n      add\n        /* \"#utility.yul\":3231:3296   */\n      tag_189\n      jump\t// in\n    tag_267:\n        /* \"#utility.yul\":3213:3296   */\n      swap5\n      pop\n      swap5\n      pop\n        /* \"#utility.yul\":3008:3306   */\n      pop\n        /* \"#utility.yul\":3373:3376   */\n      0x80\n        /* \"#utility.yul\":3362:3371   */\n      dup12\n        /* \"#utility.yul\":3358:3377   */\n      add\n        /* \"#utility.yul\":3345:3378   */\n      calldataload\n        /* \"#utility.yul\":3405:3423   */\n      0xffffffffffffffff\n        /* \"#utility.yul\":3397:3403   */\n      dup2\n        /* \"#utility.yul\":3394:3424   */\n      gt\n        /* \"#utility.yul\":3391:3508   */\n      iszero\n      tag_268\n      jumpi\n        /* \"#utility.yul\":3427:3506   */\n      tag_269\n      tag_185\n      jump\t// in\n    tag_269:\n        /* \"#utility.yul\":3391:3508   */\n    tag_268:\n        /* \"#utility.yul\":3540:3605   */\n      tag_270\n        /* \"#utility.yul\":3597:3604   */\n      dup14\n        /* \"#utility.yul\":3588:3594   */\n      dup3\n        /* \"#utility.yul\":3577:3586   */\n      dup15\n        /* \"#utility.yul\":3573:3595   */\n      add\n        /* \"#utility.yul\":3540:3605   */\n      tag_189\n      jump\t// in\n    tag_270:\n        /* \"#utility.yul\":3522:3605   */\n      swap3\n      pop\n      swap3\n      pop\n        /* \"#utility.yul\":3316:3615   */\n      pop\n        /* \"#utility.yul\":1711:3622   */\n      swap3\n      swap6\n      swap9\n      swap12\n      swap2\n      swap5\n      swap8\n      swap11\n      pop\n      swap3\n      swap6\n      swap9\n      pop\n      jump\t// out\n        /* \"#utility.yul\":3628:3718   */\n    tag_190:\n        /* \"#utility.yul\":3662:3669   */\n      0x00\n        /* \"#utility.yul\":3705:3710   */\n      dup2\n        /* \"#utility.yul\":3698:3711   */\n      iszero\n        /* \"#utility.yul\":3691:3712   */\n      iszero\n        /* \"#utility.yul\":3680:3712   */\n      swap1\n      pop\n        /* \"#utility.yul\":3628:3718   */\n      swap2\n      swap1\n      pop\n      jump\t// out\n        /* \"#utility.yul\":3724:3833   */\n    tag_191:\n        /* \"#utility.yul\":3805:3826   */\n      tag_273\n        /* \"#utility.yul\":3820:3825   */\n      dup2\n        /* \"#utility.yul\":3805:3826   */\n      tag_190\n      jump\t// in\n    tag_273:\n        /* \"#utility.yul\":3800:3803   */\n      dup3\n        /* \"#utility.yul\":3793:3827   */\n      mstore\n        /* \"#utility.yul\":3724:3833   */\n      pop\n      pop\n      jump\t// out\n        /* \"#utility.yul\":3839:3938   */\n    tag_192:\n        /* \"#utility.yul\":3891:3897   */\n      0x00\n        /* \"#utility.yul\":3925:3930   */\n      dup2\n        /* \"#utility.yul\":3919:3931   */\n      mload\n        /* \"#utility.yul\":3909:3931   */\n      swap1\n      pop\n        /* \"#utility.yul\":3839:3938   */\n      swap2\n      swap1\n      pop\n      jump\t// out\n        /* \"#utility.yul\":3944:4113   */\n    tag_193:\n        /* \"#utility.yul\":4028:4039   */\n      0x00\n        /* \"#utility.yul\":4062:4068   */\n      dup3\n        /* \"#utility.yul\":4057:4060   */\n      dup3\n        /* \"#utility.yul\":4050:4069   */\n      mstore\n        /* \"#utility.yul\":4102:4106   */\n      0x20\n        /* \"#utility.yul\":4097:4100   */\n      dup3\n        /* \"#utility.yul\":4093:4107   */\n      add\n        /* \"#utility.yul\":4078:4107   */\n      swap1\n      pop\n        /* \"#utility.yul\":3944:4113   */\n      swap3\n      swap2\n      pop\n      pop\n      jump\t// out\n        /* \"#utility.yul\":4119:4258   */\n    tag_194:\n        /* \"#utility.yul\":4208:4214   */\n      dup3\n        /* \"#utility.yul\":4203:4206   */\n      dup2\n        /* \"#utility.yul\":4198:4201   */\n      dup4\n        /* \"#utility.yul\":4192:4215   */\n      mcopy\n        /* \"#utility.yul\":4249:4250   */\n      0x00\n        /* \"#utility.yul\":4240:4246   */\n      dup4\n        /* \"#utility.yul\":4235:4238   */\n      dup4\n        /* \"#utility.yul\":4231:4247   */\n      add\n        /* \"#utility.yul\":4224:4251   */\n      mstore\n        /* \"#utility.yul\":4119:4258   */\n      pop\n      pop\n      pop\n      jump\t// out\n        /* \"#utility.yul\":4264:4366   */\n    tag_195:\n        /* \"#utility.yul\":4305:4311   */\n      0x00\n        /* \"#utility.yul\":4356:4358   */\n      0x1f\n        /* \"#utility.yul\":4352:4359   */\n      not\n        /* \"#utility.yul\":4347:4349   */\n      0x1f\n        /* \"#utility.yul\":4340:4345   */\n      dup4\n        /* \"#utility.yul\":4336:4350   */\n      add\n        /* \"#utility.yul\":4332:4360   */\n      and\n        /* \"#utility.yul\":4322:4360   */\n      swap1\n      pop\n        /* \"#utility.yul\":4264:4366   */\n      swap2\n      swap1\n      pop\n      jump\t// out\n        /* \"#utility.yul\":4372:4749   */\n    tag_196:\n        /* \"#utility.yul\":4460:4463   */\n      0x00\n        /* \"#utility.yul\":4488:4527   */\n      tag_279\n        /* \"#utility.yul\":4521:4526   */\n      dup3\n        /* \"#utility.yul\":4488:4527   */\n      tag_192\n      jump\t// in\n    tag_279:\n        /* \"#utility.yul\":4543:4614   */\n      tag_280\n        /* \"#utility.yul\":4607:4613   */\n      dup2\n        /* \"#utility.yul\":4602:4605   */\n      dup6\n        /* \"#utility.yul\":4543:4614   */\n      tag_193\n      jump\t// in\n    tag_280:\n        /* \"#utility.yul\":4536:4614   */\n      swap4\n      pop\n        /* \"#utility.yul\":4623:4688   */\n      tag_281\n        /* \"#utility.yul\":4681:4687   */\n      dup2\n        /* \"#utility.yul\":4676:4679   */\n      dup6\n        /* \"#utility.yul\":4669:4673   */\n      0x20\n        /* \"#utility.yul\":4662:4667   */\n      dup7\n        /* \"#utility.yul\":4658:4674   */\n      add\n        /* \"#utility.yul\":4623:4688   */\n      tag_194\n      jump\t// in\n    tag_281:\n        /* \"#utility.yul\":4713:4742   */\n      tag_282\n        /* \"#utility.yul\":4735:4741   */\n      dup2\n        /* \"#utility.yul\":4713:4742   */\n      tag_195\n      jump\t// in\n    tag_282:\n        /* \"#utility.yul\":4708:4711   */\n      dup5\n        /* \"#utility.yul\":4704:4743   */\n      add\n        /* \"#utility.yul\":4697:4743   */\n      swap2\n      pop\n        /* \"#utility.yul\":4464:4749   */\n      pop\n        /* \"#utility.yul\":4372:4749   */\n      swap3\n      swap2\n      pop\n      pop\n      jump\t// out\n        /* \"#utility.yul\":4755:5166   */\n    tag_22:\n        /* \"#utility.yul\":4890:4894   */\n      0x00\n        /* \"#utility.yul\":4928:4930   */\n      0x40\n        /* \"#utility.yul\":4917:4926   */\n      dup3\n        /* \"#utility.yul\":4913:4931   */\n      add\n        /* \"#utility.yul\":4905:4931   */\n      swap1\n      pop\n        /* \"#utility.yul\":4941:5006   */\n      tag_284\n        /* \"#utility.yul\":5003:5004   */\n      0x00\n        /* \"#utility.yul\":4992:5001   */\n      dup4\n        /* \"#utility.yul\":4988:5005   */\n      add\n        /* \"#utility.yul\":4979:4985   */\n      dup6\n        /* \"#utility.yul\":4941:5006   */\n      tag_191\n      jump\t// in\n    tag_284:\n        /* \"#utility.yul\":5053:5062   */\n      dup2\n        /* \"#utility.yul\":5047:5051   */\n      dup2\n        /* \"#utility.yul\":5043:5063   */\n      sub\n        /* \"#utility.yul\":5038:5040   */\n      0x20\n        /* \"#utility.yul\":5027:5036   */\n      dup4\n        /* \"#utility.yul\":5023:5041   */\n      add\n        /* \"#utility.yul\":5016:5064   */\n      mstore\n        /* \"#utility.yul\":5081:5159   */\n      tag_285\n        /* \"#utility.yul\":5154:5158   */\n      dup2\n        /* \"#utility.yul\":5145:5151   */\n      dup5\n        /* \"#utility.yul\":5081:5159   */\n      tag_196\n      jump\t// in\n    tag_285:\n        /* \"#utility.yul\":5073:5159   */\n      swap1\n      pop\n        /* \"#utility.yul\":4755:5166   */\n      swap4\n      swap3\n      pop\n      pop\n      pop\n      jump\t// out\n        /* \"#utility.yul\":5172:5331   */\n    tag_197:\n        /* \"#utility.yul\":5246:5257   */\n      0x00\n        /* \"#utility.yul\":5280:5286   */\n      dup3\n        /* \"#utility.yul\":5275:5278   */\n      dup3\n        /* \"#utility.yul\":5268:5287   */\n      mstore\n        /* \"#utility.yul\":5320:5324   */\n      0x20\n        /* \"#utility.yul\":5315:5318   */\n      dup3\n        /* \"#utility.yul\":5311:5325   */\n      add\n        /* \"#utility.yul\":5296:5325   */\n      swap1\n      pop\n        /* \"#utility.yul\":5172:5331   */\n      swap3\n      swap2\n      pop\n      pop\n      jump\t// out\n        /* \"#utility.yul\":5337:5694   */\n    tag_198:\n        /* \"#utility.yul\":5415:5418   */\n      0x00\n        /* \"#utility.yul\":5443:5482   */\n      tag_288\n        /* \"#utility.yul\":5476:5481   */\n      dup3\n        /* \"#utility.yul\":5443:5482   */\n      tag_192\n      jump\t// in\n    tag_288:\n        /* \"#utility.yul\":5498:5559   */\n      tag_289\n        /* \"#utility.yul\":5552:5558   */\n      dup2\n        /* \"#utility.yul\":5547:5550   */\n      dup6\n        /* \"#utility.yul\":5498:5559   */\n      tag_197\n      jump\t// in\n    tag_289:\n        /* \"#utility.yul\":5491:5559   */\n      swap4\n      pop\n        /* \"#utility.yul\":5568:5633   */\n      tag_290\n        /* \"#utility.yul\":5626:5632   */\n      dup2\n        /* \"#utility.yul\":5621:5624   */\n      dup6\n        /* \"#utility.yul\":5614:5618   */\n      0x20\n        /* \"#utility.yul\":5607:5612   */\n      dup7\n        /* \"#utility.yul\":5603:5619   */\n      add\n        /* \"#utility.yul\":5568:5633   */\n      tag_194\n      jump\t// in\n    tag_290:\n        /* \"#utility.yul\":5658:5687   */\n      tag_291\n        /* \"#utility.yul\":5680:5686   */\n      dup2\n        /* \"#utility.yul\":5658:5687   */\n      tag_195\n      jump\t// in\n    tag_291:\n        /* \"#utility.yul\":5653:5656   */\n      dup5\n        /* \"#utility.yul\":5649:5688   */\n      add\n        /* \"#utility.yul\":5642:5688   */\n      swap2\n      pop\n        /* \"#utility.yul\":5419:5694   */\n      pop\n        /* \"#utility.yul\":5337:5694   */\n      swap3\n      swap2\n      pop\n      pop\n      jump\t// out\n        /* \"#utility.yul\":5700:5826   */\n    tag_199:\n        /* \"#utility.yul\":5737:5744   */\n      0x00\n        /* \"#utility.yul\":5777:5819   */\n      0xffffffffffffffffffffffffffffffffffffffff\n        /* \"#utility.yul\":5770:5775   */\n      dup3\n        /* \"#utility.yul\":5766:5820   */\n      and\n        /* \"#utility.yul\":5755:5820   */\n      swap1\n      pop\n        /* \"#utility.yul\":5700:5826   */\n      swap2\n      swap1\n      pop\n      jump\t// out\n        /* \"#utility.yul\":5832:5928   */\n    tag_200:\n        /* \"#utility.yul\":5869:5876   */\n      0x00\n        /* \"#utility.yul\":5898:5922   */\n      tag_294\n        /* \"#utility.yul\":5916:5921   */\n      dup3\n        /* \"#utility.yul\":5898:5922   */\n      tag_199\n      jump\t// in\n    tag_294:\n        /* \"#utility.yul\":5887:5922   */\n      swap1\n      pop\n        /* \"#utility.yul\":5832:5928   */\n      swap2\n      swap1\n      pop\n      jump\t// out\n        /* \"#utility.yul\":5934:6042   */\n    tag_201:\n        /* \"#utility.yul\":6011:6035   */\n      tag_296\n        /* \"#utility.yul\":6029:6034   */\n      dup2\n        /* \"#utility.yul\":6011:6035   */\n      tag_200\n      jump\t// in\n    tag_296:\n        /* \"#utility.yul\":6006:6009   */\n      dup3\n        /* \"#utility.yul\":5999:6036   */\n      mstore\n        /* \"#utility.yul\":5934:6042   */\n      pop\n      pop\n      jump\t// out\n        /* \"#utility.yul\":6138:8044   */\n    tag_202:\n        /* \"#utility.yul\":6269:6272   */\n      0x00\n        /* \"#utility.yul\":6305:6309   */\n      0xe0\n        /* \"#utility.yul\":6300:6303   */\n      dup4\n        /* \"#utility.yul\":6296:6310   */\n      add\n        /* \"#utility.yul\":6401:6405   */\n      0x00\n        /* \"#utility.yul\":6394:6399   */\n      dup4\n        /* \"#utility.yul\":6390:6406   */\n      add\n        /* \"#utility.yul\":6384:6407   */\n      mload\n        /* \"#utility.yul\":6454:6457   */\n      dup5\n        /* \"#utility.yul\":6448:6452   */\n      dup3\n        /* \"#utility.yul\":6444:6458   */\n      sub\n        /* \"#utility.yul\":6437:6441   */\n      0x00\n        /* \"#utility.yul\":6432:6435   */\n      dup7\n        /* \"#utility.yul\":6428:6442   */\n      add\n        /* \"#utility.yul\":6421:6459   */\n      mstore\n        /* \"#utility.yul\":6480:6553   */\n      tag_298\n        /* \"#utility.yul\":6548:6552   */\n      dup3\n        /* \"#utility.yul\":6534:6546   */\n      dup3\n        /* \"#utility.yul\":6480:6553   */\n      tag_198\n      jump\t// in\n    tag_298:\n        /* \"#utility.yul\":6472:6553   */\n      swap2\n      pop\n        /* \"#utility.yul\":6320:6564   */\n      pop\n        /* \"#utility.yul\":6658:6662   */\n      0x20\n        /* \"#utility.yul\":6651:6656   */\n      dup4\n        /* \"#utility.yul\":6647:6663   */\n      add\n        /* \"#utility.yul\":6641:6664   */\n      mload\n        /* \"#utility.yul\":6677:6740   */\n      tag_299\n        /* \"#utility.yul\":6734:6738   */\n      0x20\n        /* \"#utility.yul\":6729:6732   */\n      dup7\n        /* \"#utility.yul\":6725:6739   */\n      add\n        /* \"#utility.yul\":6711:6723   */\n      dup3\n        /* \"#utility.yul\":6677:6740   */\n      tag_201\n      jump\t// in\n    tag_299:\n        /* \"#utility.yul\":6574:6750   */\n      pop\n        /* \"#utility.yul\":6840:6844   */\n      0x40\n        /* \"#utility.yul\":6833:6838   */\n      dup4\n        /* \"#utility.yul\":6829:6845   */\n      add\n        /* \"#utility.yul\":6823:6846   */\n      mload\n        /* \"#utility.yul\":6893:6896   */\n      dup5\n        /* \"#utility.yul\":6887:6891   */\n      dup3\n        /* \"#utility.yul\":6883:6897   */\n      sub\n        /* \"#utility.yul\":6876:6880   */\n      0x40\n        /* \"#utility.yul\":6871:6874   */\n      dup7\n        /* \"#utility.yul\":6867:6881   */\n      add\n        /* \"#utility.yul\":6860:6898   */\n      mstore\n        /* \"#utility.yul\":6919:6992   */\n      tag_300\n        /* \"#utility.yul\":6987:6991   */\n      dup3\n        /* \"#utility.yul\":6973:6985   */\n      dup3\n        /* \"#utility.yul\":6919:6992   */\n      tag_198\n      jump\t// in\n    tag_300:\n        /* \"#utility.yul\":6911:6992   */\n      swap2\n      pop\n        /* \"#utility.yul\":6760:7003   */\n      pop\n        /* \"#utility.yul\":7091:7095   */\n      0x60\n        /* \"#utility.yul\":7084:7089   */\n      dup4\n        /* \"#utility.yul\":7080:7096   */\n      add\n        /* \"#utility.yul\":7074:7097   */\n      mload\n        /* \"#utility.yul\":7144:7147   */\n      dup5\n        /* \"#utility.yul\":7138:7142   */\n      dup3\n        /* \"#utility.yul\":7134:7148   */\n      sub\n        /* \"#utility.yul\":7127:7131   */\n      0x60\n        /* \"#utility.yul\":7122:7125   */\n      dup7\n        /* \"#utility.yul\":7118:7132   */\n      add\n        /* \"#utility.yul\":7111:7149   */\n      mstore\n        /* \"#utility.yul\":7170:7243   */\n      tag_301\n        /* \"#utility.yul\":7238:7242   */\n      dup3\n        /* \"#utility.yul\":7224:7236   */\n      dup3\n        /* \"#utility.yul\":7170:7243   */\n      tag_198\n      jump\t// in\n    tag_301:\n        /* \"#utility.yul\":7162:7243   */\n      swap2\n      pop\n        /* \"#utility.yul\":7013:7254   */\n      pop\n        /* \"#utility.yul\":7345:7349   */\n      0x80\n        /* \"#utility.yul\":7338:7343   */\n      dup4\n        /* \"#utility.yul\":7334:7350   */\n      add\n        /* \"#utility.yul\":7328:7351   */\n      mload\n        /* \"#utility.yul\":7398:7401   */\n      dup5\n        /* \"#utility.yul\":7392:7396   */\n      dup3\n        /* \"#utility.yul\":7388:7402   */\n      sub\n        /* \"#utility.yul\":7381:7385   */\n      0x80\n        /* \"#utility.yul\":7376:7379   */\n      dup7\n        /* \"#utility.yul\":7372:7386   */\n      add\n        /* \"#utility.yul\":7365:7403   */\n      mstore\n        /* \"#utility.yul\":7424:7497   */\n      tag_302\n        /* \"#utility.yul\":7492:7496   */\n      dup3\n        /* \"#utility.yul\":7478:7490   */\n      dup3\n        /* \"#utility.yul\":7424:7497   */\n      tag_198\n      jump\t// in\n    tag_302:\n        /* \"#utility.yul\":7416:7497   */\n      swap2\n      pop\n        /* \"#utility.yul\":7264:7508   */\n      pop\n        /* \"#utility.yul\":7601:7605   */\n      0xa0\n        /* \"#utility.yul\":7594:7599   */\n      dup4\n        /* \"#utility.yul\":7590:7606   */\n      add\n        /* \"#utility.yul\":7584:7607   */\n      mload\n        /* \"#utility.yul\":7654:7657   */\n      dup5\n        /* \"#utility.yul\":7648:7652   */\n      dup3\n        /* \"#utility.yul\":7644:7658   */\n      sub\n        /* \"#utility.yul\":7637:7641   */\n      0xa0\n        /* \"#utility.yul\":7632:7635   */\n      dup7\n        /* \"#utility.yul\":7628:7642   */\n      add\n        /* \"#utility.yul\":7621:7659   */\n      mstore\n        /* \"#utility.yul\":7680:7753   */\n      tag_303\n        /* \"#utility.yul\":7748:7752   */\n      dup3\n        /* \"#utility.yul\":7734:7746   */\n      dup3\n        /* \"#utility.yul\":7680:7753   */\n      tag_198\n      jump\t// in\n    tag_303:\n        /* \"#utility.yul\":7672:7753   */\n      swap2\n      pop\n        /* \"#utility.yul\":7518:7764   */\n      pop\n        /* \"#utility.yul\":7854:7858   */\n      0xc0\n        /* \"#utility.yul\":7847:7852   */\n      dup4\n        /* \"#utility.yul\":7843:7859   */\n      add\n        /* \"#utility.yul\":7837:7860   */\n      mload\n        /* \"#utility.yul\":7907:7910   */\n      dup5\n        /* \"#utility.yul\":7901:7905   */\n      dup3\n        /* \"#utility.yul\":7897:7911   */\n      sub\n        /* \"#utility.yul\":7890:7894   */\n      0xc0\n        /* \"#utility.yul\":7885:7888   */\n      dup7\n        /* \"#utility.yul\":7881:7895   */\n      add\n        /* \"#utility.yul\":7874:7912   */\n      mstore\n        /* \"#utility.yul\":7933:8006   */\n      tag_304\n        /* \"#utility.yul\":8001:8005   */\n      dup3\n        /* \"#utility.yul\":7987:7999   */\n      dup3\n        /* \"#utility.yul\":7933:8006   */\n      tag_198\n      jump\t// in\n    tag_304:\n        /* \"#utility.yul\":7925:8006   */\n      swap2\n      pop\n        /* \"#utility.yul\":7774:8017   */\n      pop\n        /* \"#utility.yul\":8034:8038   */\n      dup1\n        /* \"#utility.yul\":8027:8038   */\n      swap2\n      pop\n        /* \"#utility.yul\":6274:8044   */\n      pop\n        /* \"#utility.yul\":6138:8044   */\n      swap3\n      swap2\n      pop\n      pop\n      jump\t// out\n        /* \"#utility.yul\":8050:8648   */\n    tag_27:\n        /* \"#utility.yul\":8253:8257   */\n      0x00\n        /* \"#utility.yul\":8291:8293   */\n      0x40\n        /* \"#utility.yul\":8280:8289   */\n      dup3\n        /* \"#utility.yul\":8276:8294   */\n      add\n        /* \"#utility.yul\":8268:8294   */\n      swap1\n      pop\n        /* \"#utility.yul\":8340:8349   */\n      dup2\n        /* \"#utility.yul\":8334:8338   */\n      dup2\n        /* \"#utility.yul\":8330:8350   */\n      sub\n        /* \"#utility.yul\":8326:8327   */\n      0x00\n        /* \"#utility.yul\":8315:8324   */\n      dup4\n        /* \"#utility.yul\":8311:8328   */\n      add\n        /* \"#utility.yul\":8304:8351   */\n      mstore\n        /* \"#utility.yul\":8368:8488   */\n      tag_306\n        /* \"#utility.yul\":8483:8487   */\n      dup2\n        /* \"#utility.yul\":8474:8480   */\n      dup6\n        /* \"#utility.yul\":8368:8488   */\n      tag_202\n      jump\t// in\n    tag_306:\n        /* \"#utility.yul\":8360:8488   */\n      swap1\n      pop\n        /* \"#utility.yul\":8535:8544   */\n      dup2\n        /* \"#utility.yul\":8529:8533   */\n      dup2\n        /* \"#utility.yul\":8525:8545   */\n      sub\n        /* \"#utility.yul\":8520:8522   */\n      0x20\n        /* \"#utility.yul\":8509:8518   */\n      dup4\n        /* \"#utility.yul\":8505:8523   */\n      add\n        /* \"#utility.yul\":8498:8546   */\n      mstore\n        /* \"#utility.yul\":8563:8641   */\n      tag_307\n        /* \"#utility.yul\":8636:8640   */\n      dup2\n        /* \"#utility.yul\":8627:8633   */\n      dup5\n        /* \"#utility.yul\":8563:8641   */\n      tag_196\n      jump\t// in\n    tag_307:\n        /* \"#utility.yul\":8555:8641   */\n      swap1\n      pop\n        /* \"#utility.yul\":8050:8648   */\n      swap4\n      swap3\n      pop\n      pop\n      pop\n      jump\t// out\n        /* \"#utility.yul\":8654:8772   */\n    tag_203:\n        /* \"#utility.yul\":8741:8765   */\n      tag_309\n        /* \"#utility.yul\":8759:8764   */\n      dup2\n        /* \"#utility.yul\":8741:8765   */\n      tag_200\n      jump\t// in\n    tag_309:\n        /* \"#utility.yul\":8736:8739   */\n      dup3\n        /* \"#utility.yul\":8729:8766   */\n      mstore\n        /* \"#utility.yul\":8654:8772   */\n      pop\n      pop\n      jump\t// out\n        /* \"#utility.yul\":8778:9000   */\n    tag_32:\n        /* \"#utility.yul\":8871:8875   */\n      0x00\n        /* \"#utility.yul\":8909:8911   */\n      0x20\n        /* \"#utility.yul\":8898:8907   */\n      dup3\n        /* \"#utility.yul\":8894:8912   */\n      add\n        /* \"#utility.yul\":8886:8912   */\n      swap1\n      pop\n        /* \"#utility.yul\":8922:8993   */\n      tag_311\n        /* \"#utility.yul\":8990:8991   */\n      0x00\n        /* \"#utility.yul\":8979:8988   */\n      dup4\n        /* \"#utility.yul\":8975:8992   */\n      add\n        /* \"#utility.yul\":8966:8972   */\n      dup5\n        /* \"#utility.yul\":8922:8993   */\n      tag_203\n      jump\t// in\n    tag_311:\n        /* \"#utility.yul\":8778:9000   */\n      swap3\n      swap2\n      pop\n      pop\n      jump\t// out\n        /* \"#utility.yul\":9006:9128   */\n    tag_204:\n        /* \"#utility.yul\":9079:9103   */\n      tag_313\n        /* \"#utility.yul\":9097:9102   */\n      dup2\n        /* \"#utility.yul\":9079:9103   */\n      tag_200\n      jump\t// in\n    tag_313:\n        /* \"#utility.yul\":9072:9077   */\n      dup2\n        /* \"#utility.yul\":9069:9104   */\n      eq\n        /* \"#utility.yul\":9059:9122   */\n      tag_314\n      jumpi\n        /* \"#utility.yul\":9118:9119   */\n      0x00\n        /* \"#utility.yul\":9115:9116   */\n      dup1\n        /* \"#utility.yul\":9108:9120   */\n      revert\n        /* \"#utility.yul\":9059:9122   */\n    tag_314:\n        /* \"#utility.yul\":9006:9128   */\n      pop\n      jump\t// out\n        /* \"#utility.yul\":9134:9273   */\n    tag_205:\n        /* \"#utility.yul\":9180:9185   */\n      0x00\n        /* \"#utility.yul\":9218:9224   */\n      dup2\n        /* \"#utility.yul\":9205:9225   */\n      calldataload\n        /* \"#utility.yul\":9196:9225   */\n      swap1\n      pop\n        /* \"#utility.yul\":9234:9267   */\n      tag_316\n        /* \"#utility.yul\":9261:9266   */\n      dup2\n        /* \"#utility.yul\":9234:9267   */\n      tag_204\n      jump\t// in\n    tag_316:\n        /* \"#utility.yul\":9134:9273   */\n      swap3\n      swap2\n      pop\n      pop\n      jump\t// out\n        /* \"#utility.yul\":9279:9608   */\n    tag_36:\n        /* \"#utility.yul\":9338:9344   */\n      0x00\n        /* \"#utility.yul\":9387:9389   */\n      0x20\n        /* \"#utility.yul\":9375:9384   */\n      dup3\n        /* \"#utility.yul\":9366:9373   */\n      dup5\n        /* \"#utility.yul\":9362:9385   */\n      sub\n        /* \"#utility.yul\":9358:9390   */\n      slt\n        /* \"#utility.yul\":9355:9474   */\n      iszero\n      tag_318\n      jumpi\n        /* \"#utility.yul\":9393:9472   */\n      tag_319\n      tag_184\n      jump\t// in\n    tag_319:\n        /* \"#utility.yul\":9355:9474   */\n    tag_318:\n        /* \"#utility.yul\":9513:9514   */\n      0x00\n        /* \"#utility.yul\":9538:9591   */\n      tag_320\n        /* \"#utility.yul\":9583:9590   */\n      dup5\n        /* \"#utility.yul\":9574:9580   */\n      dup3\n        /* \"#utility.yul\":9563:9572   */\n      dup6\n        /* \"#utility.yul\":9559:9581   */\n      add\n        /* \"#utility.yul\":9538:9591   */\n      tag_205\n      jump\t// in\n    tag_320:\n        /* \"#utility.yul\":9528:9591   */\n      swap2\n      pop\n        /* \"#utility.yul\":9484:9601   */\n      pop\n        /* \"#utility.yul\":9279:9608   */\n      swap3\n      swap2\n      pop\n      pop\n      jump\t// out\n        /* \"#utility.yul\":9614:9927   */\n    tag_43:\n        /* \"#utility.yul\":9727:9731   */\n      0x00\n        /* \"#utility.yul\":9765:9767   */\n      0x20\n        /* \"#utility.yul\":9754:9763   */\n      dup3\n        /* \"#utility.yul\":9750:9768   */\n      add\n        /* \"#utility.yul\":9742:9768   */\n      swap1\n      pop\n        /* \"#utility.yul\":9814:9823   */\n      dup2\n        /* \"#utility.yul\":9808:9812   */\n      dup2\n        /* \"#utility.yul\":9804:9824   */\n      sub\n        /* \"#utility.yul\":9800:9801   */\n      0x00\n        /* \"#utility.yul\":9789:9798   */\n      dup4\n        /* \"#utility.yul\":9785:9802   */\n      add\n        /* \"#utility.yul\":9778:9825   */\n      mstore\n        /* \"#utility.yul\":9842:9920   */\n      tag_322\n        /* \"#utility.yul\":9915:9919   */\n      dup2\n        /* \"#utility.yul\":9906:9912   */\n      dup5\n        /* \"#utility.yul\":9842:9920   */\n      tag_196\n      jump\t// in\n    tag_322:\n        /* \"#utility.yul\":9834:9920   */\n      swap1\n      pop\n        /* \"#utility.yul\":9614:9927   */\n      swap3\n      swap2\n      pop\n      pop\n      jump\t// out\n        /* \"#utility.yul\":9933:10078   */\n    tag_206:\n        /* \"#utility.yul\":10031:10037   */\n      0x00\n        /* \"#utility.yul\":10065:10070   */\n      dup2\n        /* \"#utility.yul\":10059:10071   */\n      mload\n        /* \"#utility.yul\":10049:10071   */\n      swap1\n      pop\n        /* \"#utility.yul\":9933:10078   */\n      swap2\n      swap1\n      pop\n      jump\t// out\n        /* \"#utility.yul\":10084:10299   */\n    tag_207:\n        /* \"#utility.yul\":10214:10225   */\n      0x00\n        /* \"#utility.yul\":10248:10254   */\n      dup3\n        /* \"#utility.yul\":10243:10246   */\n      dup3\n        /* \"#utility.yul\":10236:10255   */\n      mstore\n        /* \"#utility.yul\":10288:10292   */\n      0x20\n        /* \"#utility.yul\":10283:10286   */\n      dup3\n        /* \"#utility.yul\":10279:10293   */\n      add\n        /* \"#utility.yul\":10264:10293   */\n      swap1\n      pop\n        /* \"#utility.yul\":10084:10299   */\n      swap3\n      swap2\n      pop\n      pop\n      jump\t// out\n        /* \"#utility.yul\":10305:10468   */\n    tag_208:\n        /* \"#utility.yul\":10403:10407   */\n      0x00\n        /* \"#utility.yul\":10426:10429   */\n      dup2\n        /* \"#utility.yul\":10418:10429   */\n      swap1\n      pop\n        /* \"#utility.yul\":10456:10460   */\n      0x20\n        /* \"#utility.yul\":10451:10454   */\n      dup3\n        /* \"#utility.yul\":10447:10461   */\n      add\n        /* \"#utility.yul\":10439:10461   */\n      swap1\n      pop\n        /* \"#utility.yul\":10305:10468   */\n      swap2\n      swap1\n      pop\n      jump\t// out\n        /* \"#utility.yul\":10564:12460   */\n    tag_209:\n        /* \"#utility.yul\":10685:10688   */\n      0x00\n        /* \"#utility.yul\":10721:10725   */\n      0xe0\n        /* \"#utility.yul\":10716:10719   */\n      dup4\n        /* \"#utility.yul\":10712:10726   */\n      add\n        /* \"#utility.yul\":10817:10821   */\n      0x00\n        /* \"#utility.yul\":10810:10815   */\n      dup4\n        /* \"#utility.yul\":10806:10822   */\n      add\n        /* \"#utility.yul\":10800:10823   */\n      mload\n        /* \"#utility.yul\":10870:10873   */\n      dup5\n        /* \"#utility.yul\":10864:10868   */\n      dup3\n        /* \"#utility.yul\":10860:10874   */\n      sub\n        /* \"#utility.yul\":10853:10857   */\n      0x00\n        /* \"#utility.yul\":10848:10851   */\n      dup7\n        /* \"#utility.yul\":10844:10858   */\n      add\n        /* \"#utility.yul\":10837:10875   */\n      mstore\n        /* \"#utility.yul\":10896:10969   */\n      tag_327\n        /* \"#utility.yul\":10964:10968   */\n      dup3\n        /* \"#utility.yul\":10950:10962   */\n      dup3\n        /* \"#utility.yul\":10896:10969   */\n      tag_198\n      jump\t// in\n    tag_327:\n        /* \"#utility.yul\":10888:10969   */\n      swap2\n      pop\n        /* \"#utility.yul\":10736:10980   */\n      pop\n        /* \"#utility.yul\":11074:11078   */\n      0x20\n        /* \"#utility.yul\":11067:11072   */\n      dup4\n        /* \"#utility.yul\":11063:11079   */\n      add\n        /* \"#utility.yul\":11057:11080   */\n      mload\n        /* \"#utility.yul\":11093:11156   */\n      tag_328\n        /* \"#utility.yul\":11150:11154   */\n      0x20\n        /* \"#utility.yul\":11145:11148   */\n      dup7\n        /* \"#utility.yul\":11141:11155   */\n      add\n        /* \"#utility.yul\":11127:11139   */\n      dup3\n        /* \"#utility.yul\":11093:11156   */\n      tag_201\n      jump\t// in\n    tag_328:\n        /* \"#utility.yul\":10990:11166   */\n      pop\n        /* \"#utility.yul\":11256:11260   */\n      0x40\n        /* \"#utility.yul\":11249:11254   */\n      dup4\n        /* \"#utility.yul\":11245:11261   */\n      add\n        /* \"#utility.yul\":11239:11262   */\n      mload\n        /* \"#utility.yul\":11309:11312   */\n      dup5\n        /* \"#utility.yul\":11303:11307   */\n      dup3\n        /* \"#utility.yul\":11299:11313   */\n      sub\n        /* \"#utility.yul\":11292:11296   */\n      0x40\n        /* \"#utility.yul\":11287:11290   */\n      dup7\n        /* \"#utility.yul\":11283:11297   */\n      add\n        /* \"#utility.yul\":11276:11314   */\n      mstore\n        /* \"#utility.yul\":11335:11408   */\n      tag_329\n        /* \"#utility.yul\":11403:11407   */\n      dup3\n        /* \"#utility.yul\":11389:11401   */\n      dup3\n        /* \"#utility.yul\":11335:11408   */\n      tag_198\n      jump\t// in\n    tag_329:\n        /* \"#utility.yul\":11327:11408   */\n      swap2\n      pop\n        /* \"#utility.yul\":11176:11419   */\n      pop\n        /* \"#utility.yul\":11507:11511   */\n      0x60\n        /* \"#utility.yul\":11500:11505   */\n      dup4\n        /* \"#utility.yul\":11496:11512   */\n      add\n        /* \"#utility.yul\":11490:11513   */\n      mload\n        /* \"#utility.yul\":11560:11563   */\n      dup5\n        /* \"#utility.yul\":11554:11558   */\n      dup3\n        /* \"#utility.yul\":11550:11564   */\n      sub\n        /* \"#utility.yul\":11543:11547   */\n      0x60\n        /* \"#utility.yul\":11538:11541   */\n      dup7\n        /* \"#utility.yul\":11534:11548   */\n      add\n        /* \"#utility.yul\":11527:11565   */\n      mstore\n        /* \"#utility.yul\":11586:11659   */\n      tag_330\n        /* \"#utility.yul\":11654:11658   */\n      dup3\n        /* \"#utility.yul\":11640:11652   */\n      dup3\n        /* \"#utility.yul\":11586:11659   */\n      tag_198\n      jump\t// in\n    tag_330:\n        /* \"#utility.yul\":11578:11659   */\n      swap2\n      pop\n        /* \"#utility.yul\":11429:11670   */\n      pop\n        /* \"#utility.yul\":11761:11765   */\n      0x80\n        /* \"#utility.yul\":11754:11759   */\n      dup4\n        /* \"#utility.yul\":11750:11766   */\n      add\n        /* \"#utility.yul\":11744:11767   */\n      mload\n        /* \"#utility.yul\":11814:11817   */\n      dup5\n        /* \"#utility.yul\":11808:11812   */\n      dup3\n        /* \"#utility.yul\":11804:11818   */\n      sub\n        /* \"#utility.yul\":11797:11801   */\n      0x80\n        /* \"#utility.yul\":11792:11795   */\n      dup7\n        /* \"#utility.yul\":11788:11802   */\n      add\n        /* \"#utility.yul\":11781:11819   */\n      mstore\n        /* \"#utility.yul\":11840:11913   */\n      tag_331\n        /* \"#utility.yul\":11908:11912   */\n      dup3\n        /* \"#utility.yul\":11894:11906   */\n      dup3\n        /* \"#utility.yul\":11840:11913   */\n      tag_198\n      jump\t// in\n    tag_331:\n        /* \"#utility.yul\":11832:11913   */\n      swap2\n      pop\n        /* \"#utility.yul\":11680:11924   */\n      pop\n        /* \"#utility.yul\":12017:12021   */\n      0xa0\n        /* \"#utility.yul\":12010:12015   */\n      dup4\n        /* \"#utility.yul\":12006:12022   */\n      add\n        /* \"#utility.yul\":12000:12023   */\n      mload\n        /* \"#utility.yul\":12070:12073   */\n      dup5\n        /* \"#utility.yul\":12064:12068   */\n      dup3\n        /* \"#utility.yul\":12060:12074   */\n      sub\n        /* \"#utility.yul\":12053:12057   */\n      0xa0\n        /* \"#utility.yul\":12048:12051   */\n      dup7\n        /* \"#utility.yul\":12044:12058   */\n      add\n        /* \"#utility.yul\":12037:12075   */\n      mstore\n        /* \"#utility.yul\":12096:12169   */\n      tag_332\n        /* \"#utility.yul\":12164:12168   */\n      dup3\n        /* \"#utility.yul\":12150:12162   */\n      dup3\n        /* \"#utility.yul\":12096:12169   */\n      tag_198\n      jump\t// in\n    tag_332:\n        /* \"#utility.yul\":12088:12169   */\n      swap2\n      pop\n        /* \"#utility.yul\":11934:12180   */\n      pop\n        /* \"#utility.yul\":12270:12274   */\n      0xc0\n        /* \"#utility.yul\":12263:12268   */\n      dup4\n        /* \"#utility.yul\":12259:12275   */\n      add\n        /* \"#utility.yul\":12253:12276   */\n      mload\n        /* \"#utility.yul\":12323:12326   */\n      dup5\n        /* \"#utility.yul\":12317:12321   */\n      dup3\n        /* \"#utility.yul\":12313:12327   */\n      sub\n        /* \"#utility.yul\":12306:12310   */\n      0xc0\n        /* \"#utility.yul\":12301:12304   */\n      dup7\n        /* \"#utility.yul\":12297:12311   */\n      add\n        /* \"#utility.yul\":12290:12328   */\n      mstore\n        /* \"#utility.yul\":12349:12422   */\n      tag_333\n        /* \"#utility.yul\":12417:12421   */\n      dup3\n        /* \"#utility.yul\":12403:12415   */\n      dup3\n        /* \"#utility.yul\":12349:12422   */\n      tag_198\n      jump\t// in\n    tag_333:\n        /* \"#utility.yul\":12341:12422   */\n      swap2\n      pop\n        /* \"#utility.yul\":12190:12433   */\n      pop\n        /* \"#utility.yul\":12450:12454   */\n      dup1\n        /* \"#utility.yul\":12443:12454   */\n      swap2\n      pop\n        /* \"#utility.yul\":10690:12460   */\n      pop\n        /* \"#utility.yul\":10564:12460   */\n      swap3\n      swap2\n      pop\n      pop\n      jump\t// out\n        /* \"#utility.yul\":12466:12746   */\n    tag_210:\n        /* \"#utility.yul\":12597:12607   */\n      0x00\n        /* \"#utility.yul\":12632:12740   */\n      tag_335\n        /* \"#utility.yul\":12736:12739   */\n      dup4\n        /* \"#utility.yul\":12728:12734   */\n      dup4\n        /* \"#utility.yul\":12632:12740   */\n      tag_209\n      jump\t// in\n    tag_335:\n        /* \"#utility.yul\":12618:12740   */\n      swap1\n      pop\n        /* \"#utility.yul\":12466:12746   */\n      swap3\n      swap2\n      pop\n      pop\n      jump\t// out\n        /* \"#utility.yul\":12752:12896   */\n    tag_211:\n        /* \"#utility.yul\":12853:12857   */\n      0x00\n        /* \"#utility.yul\":12885:12889   */\n      0x20\n        /* \"#utility.yul\":12880:12883   */\n      dup3\n        /* \"#utility.yul\":12876:12890   */\n      add\n        /* \"#utility.yul\":12868:12890   */\n      swap1\n      pop\n        /* \"#utility.yul\":12752:12896   */\n      swap2\n      swap1\n      pop\n      jump\t// out\n        /* \"#utility.yul\":12996:14155   */\n    tag_212:\n        /* \"#utility.yul\":13177:13180   */\n      0x00\n        /* \"#utility.yul\":13206:13291   */\n      tag_338\n        /* \"#utility.yul\":13285:13290   */\n      dup3\n        /* \"#utility.yul\":13206:13291   */\n      tag_206\n      jump\t// in\n    tag_338:\n        /* \"#utility.yul\":13307:13424   */\n      tag_339\n        /* \"#utility.yul\":13417:13423   */\n      dup2\n        /* \"#utility.yul\":13412:13415   */\n      dup6\n        /* \"#utility.yul\":13307:13424   */\n      tag_207\n      jump\t// in\n    tag_339:\n        /* \"#utility.yul\":13300:13424   */\n      swap4\n      pop\n        /* \"#utility.yul\":13450:13453   */\n      dup4\n        /* \"#utility.yul\":13495:13499   */\n      0x20\n        /* \"#utility.yul\":13487:13493   */\n      dup3\n        /* \"#utility.yul\":13483:13500   */\n      mul\n        /* \"#utility.yul\":13478:13481   */\n      dup6\n        /* \"#utility.yul\":13474:13501   */\n      add\n        /* \"#utility.yul\":13525:13612   */\n      tag_340\n        /* \"#utility.yul\":13606:13611   */\n      dup6\n        /* \"#utility.yul\":13525:13612   */\n      tag_208\n      jump\t// in\n    tag_340:\n        /* \"#utility.yul\":13635:13642   */\n      dup1\n        /* \"#utility.yul\":13666:13667   */\n      0x00\n        /* \"#utility.yul\":13651:14110   */\n    tag_341:\n        /* \"#utility.yul\":13676:13682   */\n      dup6\n        /* \"#utility.yul\":13673:13674   */\n      dup2\n        /* \"#utility.yul\":13670:13683   */\n      lt\n        /* \"#utility.yul\":13651:14110   */\n      iszero\n      tag_343\n      jumpi\n        /* \"#utility.yul\":13747:13756   */\n      dup5\n        /* \"#utility.yul\":13741:13745   */\n      dup5\n        /* \"#utility.yul\":13737:13757   */\n      sub\n        /* \"#utility.yul\":13732:13735   */\n      dup10\n        /* \"#utility.yul\":13725:13758   */\n      mstore\n        /* \"#utility.yul\":13798:13804   */\n      dup2\n        /* \"#utility.yul\":13792:13805   */\n      mload\n        /* \"#utility.yul\":13826:13952   */\n      tag_344\n        /* \"#utility.yul\":13947:13951   */\n      dup6\n        /* \"#utility.yul\":13932:13945   */\n      dup3\n        /* \"#utility.yul\":13826:13952   */\n      tag_210\n      jump\t// in\n    tag_344:\n        /* \"#utility.yul\":13818:13952   */\n      swap5\n      pop\n        /* \"#utility.yul\":13975:14066   */\n      tag_345\n        /* \"#utility.yul\":14059:14065   */\n      dup4\n        /* \"#utility.yul\":13975:14066   */\n      tag_211\n      jump\t// in\n    tag_345:\n        /* \"#utility.yul\":13965:14066   */\n      swap3\n      pop\n        /* \"#utility.yul\":14095:14099   */\n      0x20\n        /* \"#utility.yul\":14090:14093   */\n      dup11\n        /* \"#utility.yul\":14086:14100   */\n      add\n        /* \"#utility.yul\":14079:14100   */\n      swap10\n      pop\n        /* \"#utility.yul\":13711:14110   */\n      pop\n        /* \"#utility.yul\":13698:13699   */\n      0x01\n        /* \"#utility.yul\":13695:13696   */\n      dup2\n        /* \"#utility.yul\":13691:13700   */\n      add\n        /* \"#utility.yul\":13686:13700   */\n      swap1\n      pop\n        /* \"#utility.yul\":13651:14110   */\n      jump(tag_341)\n    tag_343:\n        /* \"#utility.yul\":13655:13669   */\n      pop\n        /* \"#utility.yul\":14126:14130   */\n      dup3\n        /* \"#utility.yul\":14119:14130   */\n      swap8\n      pop\n        /* \"#utility.yul\":14146:14149   */\n      dup8\n        /* \"#utility.yul\":14139:14149   */\n      swap6\n      pop\n        /* \"#utility.yul\":13182:14155   */\n      pop\n      pop\n      pop\n      pop\n      pop\n        /* \"#utility.yul\":12996:14155   */\n      swap3\n      swap2\n      pop\n      pop\n      jump\t// out\n        /* \"#utility.yul\":14161:14859   */\n    tag_48:\n        /* \"#utility.yul\":14414:14418   */\n      0x00\n        /* \"#utility.yul\":14452:14454   */\n      0x40\n        /* \"#utility.yul\":14441:14450   */\n      dup3\n        /* \"#utility.yul\":14437:14455   */\n      add\n        /* \"#utility.yul\":14429:14455   */\n      swap1\n      pop\n        /* \"#utility.yul\":14501:14510   */\n      dup2\n        /* \"#utility.yul\":14495:14499   */\n      dup2\n        /* \"#utility.yul\":14491:14511   */\n      sub\n        /* \"#utility.yul\":14487:14488   */\n      0x00\n        /* \"#utility.yul\":14476:14485   */\n      dup4\n        /* \"#utility.yul\":14472:14489   */\n      add\n        /* \"#utility.yul\":14465:14512   */\n      mstore\n        /* \"#utility.yul\":14529:14699   */\n      tag_347\n        /* \"#utility.yul\":14694:14698   */\n      dup2\n        /* \"#utility.yul\":14685:14691   */\n      dup6\n        /* \"#utility.yul\":14529:14699   */\n      tag_212\n      jump\t// in\n    tag_347:\n        /* \"#utility.yul\":14521:14699   */\n      swap1\n      pop\n        /* \"#utility.yul\":14746:14755   */\n      dup2\n        /* \"#utility.yul\":14740:14744   */\n      dup2\n        /* \"#utility.yul\":14736:14756   */\n      sub\n        /* \"#utility.yul\":14731:14733   */\n      0x20\n        /* \"#utility.yul\":14720:14729   */\n      dup4\n        /* \"#utility.yul\":14716:14734   */\n      add\n        /* \"#utility.yul\":14709:14757   */\n      mstore\n        /* \"#utility.yul\":14774:14852   */\n      tag_348\n        /* \"#utility.yul\":14847:14851   */\n      dup2\n        /* \"#utility.yul\":14838:14844   */\n      dup5\n        /* \"#utility.yul\":14774:14852   */\n      tag_196\n      jump\t// in\n    tag_348:\n        /* \"#utility.yul\":14766:14852   */\n      swap1\n      pop\n        /* \"#utility.yul\":14161:14859   */\n      swap4\n      swap3\n      pop\n      pop\n      pop\n      jump\t// out\n        /* \"#utility.yul\":14865:15012   */\n    tag_213:\n        /* \"#utility.yul\":14966:14977   */\n      0x00\n        /* \"#utility.yul\":15003:15006   */\n      dup2\n        /* \"#utility.yul\":14988:15006   */\n      swap1\n      pop\n        /* \"#utility.yul\":14865:15012   */\n      swap3\n      swap2\n      pop\n      pop\n      jump\t// out\n        /* \"#utility.yul\":15018:15166   */\n    tag_214:\n        /* \"#utility.yul\":15116:15122   */\n      dup3\n        /* \"#utility.yul\":15111:15114   */\n      dup2\n        /* \"#utility.yul\":15106:15109   */\n      dup4\n        /* \"#utility.yul\":15093:15123   */\n      calldatacopy\n        /* \"#utility.yul\":15157:15158   */\n      0x00\n        /* \"#utility.yul\":15148:15154   */\n      dup4\n        /* \"#utility.yul\":15143:15146   */\n      dup4\n        /* \"#utility.yul\":15139:15155   */\n      add\n        /* \"#utility.yul\":15132:15159   */\n      mstore\n        /* \"#utility.yul\":15018:15166   */\n      pop\n      pop\n      pop\n      jump\t// out\n        /* \"#utility.yul\":15194:15521   */\n    tag_215:\n        /* \"#utility.yul\":15308:15311   */\n      0x00\n        /* \"#utility.yul\":15329:15417   */\n      tag_352\n        /* \"#utility.yul\":15410:15416   */\n      dup4\n        /* \"#utility.yul\":15405:15408   */\n      dup6\n        /* \"#utility.yul\":15329:15417   */\n      tag_213\n      jump\t// in\n    tag_352:\n        /* \"#utility.yul\":15322:15417   */\n      swap4\n      pop\n        /* \"#utility.yul\":15427:15483   */\n      tag_353\n        /* \"#utility.yul\":15476:15482   */\n      dup4\n        /* \"#utility.yul\":15471:15474   */\n      dup6\n        /* \"#utility.yul\":15464:15469   */\n      dup5\n        /* \"#utility.yul\":15427:15483   */\n      tag_214\n      jump\t// in\n    tag_353:\n        /* \"#utility.yul\":15508:15514   */\n      dup3\n        /* \"#utility.yul\":15503:15506   */\n      dup5\n        /* \"#utility.yul\":15499:15515   */\n      add\n        /* \"#utility.yul\":15492:15515   */\n      swap1\n      pop\n        /* \"#utility.yul\":15194:15521   */\n      swap4\n      swap3\n      pop\n      pop\n      pop\n      jump\t// out\n        /* \"#utility.yul\":15527:15818   */\n    tag_64:\n        /* \"#utility.yul\":15667:15670   */\n      0x00\n        /* \"#utility.yul\":15689:15792   */\n      tag_355\n        /* \"#utility.yul\":15788:15791   */\n      dup3\n        /* \"#utility.yul\":15779:15785   */\n      dup5\n        /* \"#utility.yul\":15771:15777   */\n      dup7\n        /* \"#utility.yul\":15689:15792   */\n      tag_215\n      jump\t// in\n    tag_355:\n        /* \"#utility.yul\":15682:15792   */\n      swap2\n      pop\n        /* \"#utility.yul\":15809:15812   */\n      dup2\n        /* \"#utility.yul\":15802:15812   */\n      swap1\n      pop\n        /* \"#utility.yul\":15527:15818   */\n      swap4\n      swap3\n      pop\n      pop\n      pop\n      jump\t// out\n        /* \"#utility.yul\":15824:16004   */\n    tag_70:\n        /* \"#utility.yul\":15872:15949   */\n      0x4e487b7100000000000000000000000000000000000000000000000000000000\n        /* \"#utility.yul\":15869:15870   */\n      0x00\n        /* \"#utility.yul\":15862:15950   */\n      mstore\n        /* \"#utility.yul\":15969:15973   */\n      0x32\n        /* \"#utility.yul\":15966:15967   */\n      0x04\n        /* \"#utility.yul\":15959:15974   */\n      mstore\n        /* \"#utility.yul\":15993:15997   */\n      0x24\n        /* \"#utility.yul\":15990:15991   */\n      0x00\n        /* \"#utility.yul\":15983:15998   */\n      revert\n        /* \"#utility.yul\":16010:16190   */\n    tag_139:\n        /* \"#utility.yul\":16058:16135   */\n      0x4e487b7100000000000000000000000000000000000000000000000000000000\n        /* \"#utility.yul\":16055:16056   */\n      0x00\n        /* \"#utility.yul\":16048:16136   */\n      mstore\n        /* \"#utility.yul\":16155:16159   */\n      0x41\n        /* \"#utility.yul\":16152:16153   */\n      0x04\n        /* \"#utility.yul\":16145:16160   */\n      mstore\n        /* \"#utility.yul\":16179:16183   */\n      0x24\n        /* \"#utility.yul\":16176:16177   */\n      0x00\n        /* \"#utility.yul\":16169:16184   */\n      revert\n        /* \"#utility.yul\":16196:16376   */\n    tag_216:\n        /* \"#utility.yul\":16244:16321   */\n      0x4e487b7100000000000000000000000000000000000000000000000000000000\n        /* \"#utility.yul\":16241:16242   */\n      0x00\n        /* \"#utility.yul\":16234:16322   */\n      mstore\n        /* \"#utility.yul\":16341:16345   */\n      0x22\n        /* \"#utility.yul\":16338:16339   */\n      0x04\n        /* \"#utility.yul\":16331:16346   */\n      mstore\n        /* \"#utility.yul\":16365:16369   */\n      0x24\n        /* \"#utility.yul\":16362:16363   */\n      0x00\n        /* \"#utility.yul\":16355:16370   */\n      revert\n        /* \"#utility.yul\":16382:16702   */\n    tag_92:\n        /* \"#utility.yul\":16426:16432   */\n      0x00\n        /* \"#utility.yul\":16463:16464   */\n      0x02\n        /* \"#utility.yul\":16457:16461   */\n      dup3\n        /* \"#utility.yul\":16453:16465   */\n      div\n        /* \"#utility.yul\":16443:16465   */\n      swap1\n      pop\n        /* \"#utility.yul\":16510:16511   */\n      0x01\n        /* \"#utility.yul\":16504:16508   */\n      dup3\n        /* \"#utility.yul\":16500:16512   */\n      and\n        /* \"#utility.yul\":16531:16549   */\n      dup1\n        /* \"#utility.yul\":16521:16602   */\n      tag_360\n      jumpi\n        /* \"#utility.yul\":16587:16591   */\n      0x7f\n        /* \"#utility.yul\":16579:16585   */\n      dup3\n        /* \"#utility.yul\":16575:16592   */\n      and\n        /* \"#utility.yul\":16565:16592   */\n      swap2\n      pop\n        /* \"#utility.yul\":16521:16602   */\n    tag_360:\n        /* \"#utility.yul\":16649:16651   */\n      0x20\n        /* \"#utility.yul\":16641:16647   */\n      dup3\n        /* \"#utility.yul\":16638:16652   */\n      lt\n        /* \"#utility.yul\":16618:16636   */\n      dup2\n        /* \"#utility.yul\":16615:16653   */\n      sub\n        /* \"#utility.yul\":16612:16696   */\n      tag_361\n      jumpi\n        /* \"#utility.yul\":16668:16686   */\n      tag_362\n      tag_216\n      jump\t// in\n    tag_362:\n        /* \"#utility.yul\":16612:16696   */\n    tag_361:\n        /* \"#utility.yul\":16433:16702   */\n      pop\n        /* \"#utility.yul\":16382:16702   */\n      swap2\n      swap1\n      pop\n      jump\t// out\n        /* \"#utility.yul\":16708:16849   */\n    tag_217:\n        /* \"#utility.yul\":16757:16761   */\n      0x00\n        /* \"#utility.yul\":16780:16783   */\n      dup2\n        /* \"#utility.yul\":16772:16783   */\n      swap1\n      pop\n        /* \"#utility.yul\":16803:16806   */\n      dup2\n        /* \"#utility.yul\":16800:16801   */\n      0x00\n        /* \"#utility.yul\":16793:16807   */\n      mstore\n        /* \"#utility.yul\":16837:16841   */\n      0x20\n        /* \"#utility.yul\":16834:16835   */\n      0x00\n        /* \"#utility.yul\":16824:16842   */\n      keccak256\n        /* \"#utility.yul\":16816:16842   */\n      swap1\n      pop\n        /* \"#utility.yul\":16708:16849   */\n      swap2\n      swap1\n      pop\n      jump\t// out\n        /* \"#utility.yul\":16855:16948   */\n    tag_218:\n        /* \"#utility.yul\":16892:16898   */\n      0x00\n        /* \"#utility.yul\":16939:16941   */\n      0x20\n        /* \"#utility.yul\":16934:16936   */\n      0x1f\n        /* \"#utility.yul\":16927:16932   */\n      dup4\n        /* \"#utility.yul\":16923:16937   */\n      add\n        /* \"#utility.yul\":16919:16942   */\n      div\n        /* \"#utility.yul\":16909:16942   */\n      swap1\n      pop\n        /* \"#utility.yul\":16855:16948   */\n      swap2\n      swap1\n      pop\n      jump\t// out\n        /* \"#utility.yul\":16954:17061   */\n    tag_219:\n        /* \"#utility.yul\":16998:17006   */\n      0x00\n        /* \"#utility.yul\":17048:17053   */\n      dup3\n        /* \"#utility.yul\":17042:17046   */\n      dup3\n        /* \"#utility.yul\":17038:17054   */\n      shl\n        /* \"#utility.yul\":17017:17054   */\n      swap1\n      pop\n        /* \"#utility.yul\":16954:17061   */\n      swap3\n      swap2\n      pop\n      pop\n      jump\t// out\n        /* \"#utility.yul\":17067:17460   */\n    tag_220:\n        /* \"#utility.yul\":17136:17142   */\n      0x00\n        /* \"#utility.yul\":17186:17187   */\n      0x08\n        /* \"#utility.yul\":17174:17184   */\n      dup4\n        /* \"#utility.yul\":17170:17188   */\n      mul\n        /* \"#utility.yul\":17209:17306   */\n      tag_367\n        /* \"#utility.yul\":17239:17305   */\n      0xffffffffffffffffffffffffffffffffffffffffffffffffffffffffffffffff\n        /* \"#utility.yul\":17228:17237   */\n      dup3\n        /* \"#utility.yul\":17209:17306   */\n      tag_219\n      jump\t// in\n    tag_367:\n        /* \"#utility.yul\":17327:17366   */\n      tag_368\n        /* \"#utility.yul\":17357:17365   */\n      dup7\n        /* \"#utility.yul\":17346:17355   */\n      dup4\n        /* \"#utility.yul\":17327:17366   */\n      tag_219\n      jump\t// in\n    tag_368:\n        /* \"#utility.yul\":17315:17366   */\n      swap6\n      pop\n        /* \"#utility.yul\":17399:17403   */\n      dup1\n        /* \"#utility.yul\":17395:17404   */\n      not\n        /* \"#utility.yul\":17388:17393   */\n      dup5\n        /* \"#utility.yul\":17384:17405   */\n      and\n        /* \"#utility.yul\":17375:17405   */\n      swap4\n      pop\n        /* \"#utility.yul\":17448:17452   */\n      dup1\n        /* \"#utility.yul\":17438:17446   */\n      dup7\n        /* \"#utility.yul\":17434:17453   */\n      and\n        /* \"#utility.yul\":17427:17432   */\n      dup5\n        /* \"#utility.yul\":17424:17454   */\n      or\n        /* \"#utility.yul\":17414:17454   */\n      swap3\n      pop\n        /* \"#utility.yul\":17143:17460   */\n      pop\n      pop\n        /* \"#utility.yul\":17067:17460   */\n      swap4\n      swap3\n      pop\n      pop\n      pop\n      jump\t// out\n        /* \"#utility.yul\":17466:17526   */\n    tag_221:\n        /* \"#utility.yul\":17494:17497   */\n      0x00\n        /* \"#utility.yul\":17515:17520   */\n      dup2\n        /* \"#utility.yul\":17508:17520   */\n      swap1\n      pop\n        /* \"#utility.yul\":17466:17526   */\n      swap2\n      swap1\n      pop\n      jump\t// out\n        /* \"#utility.yul\":17532:17674   */\n    tag_222:\n        /* \"#utility.yul\":17582:17591   */\n      0x00\n        /* \"#utility.yul\":17615:17668   */\n      tag_371\n        /* \"#utility.yul\":17633:17667   */\n      tag_372\n        /* \"#utility.yul\":17642:17666   */\n      tag_373\n        /* \"#utility.yul\":17660:17665   */\n      dup5\n        /* \"#utility.yul\":17642:17666   */\n      tag_181\n      jump\t// in\n    tag_373:\n        /* \"#utility.yul\":17633:17667   */\n      tag_221\n      jump\t// in\n    tag_372:\n        /* \"#utility.yul\":17615:17668   */\n      tag_181\n      jump\t// in\n    tag_371:\n        /* \"#utility.yul\":17602:17668   */\n      swap1\n      pop\n        /* \"#utility.yul\":17532:17674   */\n      swap2\n      swap1\n      pop\n      jump\t// out\n        /* \"#utility.yul\":17680:17755   */\n    tag_223:\n        /* \"#utility.yul\":17723:17726   */\n      0x00\n        /* \"#utility.yul\":17744:17749   */\n      dup2\n        /* \"#utility.yul\":17737:17749   */\n      swap1\n      pop\n        /* \"#utility.yul\":17680:17755   */\n      swap2\n      swap1\n      pop\n      jump\t// out\n        /* \"#utility.yul\":17761:18030   */\n    tag_224:\n        /* \"#utility.yul\":17871:17910   */\n      tag_376\n        /* \"#utility.yul\":17902:17909   */\n      dup4\n        /* \"#utility.yul\":17871:17910   */\n      tag_222\n      jump\t// in\n    tag_376:\n        /* \"#utility.yul\":17932:18023   */\n      tag_377\n        /* \"#utility.yul\":17981:18022   */\n      tag_378\n        /* \"#utility.yul\":18005:18021   */\n      dup3\n        /* \"#utility.yul\":17981:18022   */\n      tag_223\n      jump\t// in\n    tag_378:\n        /* \"#utility.yul\":17973:17979   */\n      dup5\n        /* \"#utility.yul\":17966:17970   */\n      dup5\n        /* \"#utility.yul\":17960:17971   */\n      sload\n        /* \"#utility.yul\":17932:18023   */\n      tag_220\n      jump\t// in\n    tag_377:\n        /* \"#utility.yul\":17926:17930   */\n      dup3\n        /* \"#utility.yul\":17919:18024   */\n      sstore\n        /* \"#utility.yul\":17837:18030   */\n      pop\n        /* \"#utility.yul\":17761:18030   */\n      pop\n      pop\n      pop\n      jump\t// out\n        /* \"#utility.yul\":18036:18109   */\n    tag_225:\n        /* \"#utility.yul\":18081:18084   */\n      0x00\n        /* \"#utility.yul\":18036:18109   */\n      swap1\n      jump\t// out\n        /* \"#utility.yul\":18115:18304   */\n    tag_226:\n        /* \"#utility.yul\":18192:18224   */\n      tag_381\n      tag_225\n      jump\t// in\n    tag_381:\n        /* \"#utility.yul\":18233:18298   */\n      tag_382\n        /* \"#utility.yul\":18291:18297   */\n      dup2\n        /* \"#utility.yul\":18283:18289   */\n      dup5\n        /* \"#utility.yul\":18277:18281   */\n      dup5\n        /* \"#utility.yul\":18233:18298   */\n      tag_224\n      jump\t// in\n    tag_382:\n        /* \"#utility.yul\":18168:18304   */\n      pop\n        /* \"#utility.yul\":18115:18304   */\n      pop\n      pop\n      jump\t// out\n        /* \"#utility.yul\":18310:18496   */\n    tag_227:\n        /* \"#utility.yul\":18370:18490   */\n    tag_384:\n        /* \"#utility.yul\":18387:18390   */\n      dup2\n        /* \"#utility.yul\":18380:18385   */\n      dup2\n        /* \"#utility.yul\":18377:18391   */\n      lt\n        /* \"#utility.yul\":18370:18490   */\n      iszero\n      tag_386\n      jumpi\n        /* \"#utility.yul\":18441:18480   */\n      tag_387\n        /* \"#utility.yul\":18478:18479   */\n      0x00\n        /* \"#utility.yul\":18471:18476   */\n      dup3\n        /* \"#utility.yul\":18441:18480   */\n      tag_226\n      jump\t// in\n    tag_387:\n        /* \"#utility.yul\":18414:18415   */\n      0x01\n        /* \"#utility.yul\":18407:18412   */\n      dup2\n        /* \"#utility.yul\":18403:18416   */\n      add\n        /* \"#utility.yul\":18394:18416   */\n      swap1\n      pop\n        /* \"#utility.yul\":18370:18490   */\n      jump(tag_384)\n    tag_386:\n        /* \"#utility.yul\":18310:18496   */\n      pop\n      pop\n      jump\t// out\n        /* \"#utility.yul\":18502:19045   */\n    tag_228:\n        /* \"#utility.yul\":18603:18605   */\n      0x1f\n        /* \"#utility.yul\":18598:18601   */\n      dup3\n        /* \"#utility.yul\":18595:18606   */\n      gt\n        /* \"#utility.yul\":18592:19038   */\n      iszero\n      tag_389\n      jumpi\n        /* \"#utility.yul\":18637:18675   */\n      tag_390\n        /* \"#utility.yul\":18669:18674   */\n      dup2\n        /* \"#utility.yul\":18637:18675   */\n      tag_217\n      jump\t// in\n    tag_390:\n        /* \"#utility.yul\":18721:18750   */\n      tag_391\n        /* \"#utility.yul\":18739:18749   */\n      dup5\n        /* \"#utility.yul\":18721:18750   */\n      tag_218\n      jump\t// in\n    tag_391:\n        /* \"#utility.yul\":18711:18719   */\n      dup2\n        /* \"#utility.yul\":18707:18751   */\n      add\n        /* \"#utility.yul\":18904:18906   */\n      0x20\n        /* \"#utility.yul\":18892:18902   */\n      dup6\n        /* \"#utility.yul\":18889:18907   */\n      lt\n        /* \"#utility.yul\":18886:18935   */\n      iszero\n      tag_392\n      jumpi\n        /* \"#utility.yul\":18925:18933   */\n      dup2\n        /* \"#utility.yul\":18910:18933   */\n      swap1\n      pop\n        /* \"#utility.yul\":18886:18935   */\n    tag_392:\n        /* \"#utility.yul\":18948:19028   */\n      tag_393\n        /* \"#utility.yul\":19004:19026   */\n      tag_394\n        /* \"#utility.yul\":19022:19025   */\n      dup6\n        /* \"#utility.yul\":19004:19026   */\n      tag_218\n      jump\t// in\n    tag_394:\n        /* \"#utility.yul\":18994:19002   */\n      dup4\n        /* \"#utility.yul\":18990:19027   */\n      add\n        /* \"#utility.yul\":18977:18988   */\n      dup3\n        /* \"#utility.yul\":18948:19028   */\n      tag_227\n      jump\t// in\n    tag_393:\n        /* \"#utility.yul\":18607:19038   */\n      pop\n      pop\n        /* \"#utility.yul\":18592:19038   */\n    tag_389:\n        /* \"#utility.yul\":18502:19045   */\n      pop\n      pop\n      pop\n      jump\t// out\n        /* \"#utility.yul\":19051:19168   */\n    tag_229:\n        /* \"#utility.yul\":19105:19113   */\n      0x00\n        /* \"#utility.yul\":19155:19160   */\n      dup3\n        /* \"#utility.yul\":19149:19153   */\n      dup3\n        /* \"#utility.yul\":19145:19161   */\n      shr\n        /* \"#utility.yul\":19124:19161   */\n      swap1\n      pop\n        /* \"#utility.yul\":19051:19168   */\n      swap3\n      swap2\n      pop\n      pop\n      jump\t// out\n        /* \"#utility.yul\":19174:19343   */\n    tag_230:\n        /* \"#utility.yul\":19218:19224   */\n      0x00\n        /* \"#utility.yul\":19251:19302   */\n      tag_397\n        /* \"#utility.yul\":19299:19300   */\n      0x00\n        /* \"#utility.yul\":19295:19301   */\n      not\n        /* \"#utility.yul\":19287:19292   */\n      dup5\n        /* \"#utility.yul\":19284:19285   */\n      0x08\n        /* \"#utility.yul\":19280:19293   */\n      mul\n        /* \"#utility.yul\":19251:19302   */\n      tag_229\n      jump\t// in\n    tag_397:\n        /* \"#utility.yul\":19247:19303   */\n      not\n        /* \"#utility.yul\":19332:19336   */\n      dup1\n        /* \"#utility.yul\":19326:19330   */\n      dup4\n        /* \"#utility.yul\":19322:19337   */\n      and\n        /* \"#utility.yul\":19312:19337   */\n      swap2\n      pop\n        /* \"#utility.yul\":19225:19343   */\n      pop\n        /* \"#utility.yul\":19174:19343   */\n      swap3\n      swap2\n      pop\n      pop\n      jump\t// out\n        /* \"#utility.yul\":19348:19643   */\n    tag_231:\n        /* \"#utility.yul\":19424:19428   */\n      0x00\n        /* \"#utility.yul\":19570:19599   */\n      tag_399\n        /* \"#utility.yul\":19595:19598   */\n      dup4\n        /* \"#utility.yul\":19589:19593   */\n      dup4\n        /* \"#utility.yul\":19570:19599   */\n      tag_230\n      jump\t// in\n    tag_399:\n        /* \"#utility.yul\":19562:19599   */\n      swap2\n      pop\n        /* \"#utility.yul\":19632:19635   */\n      dup3\n        /* \"#utility.yul\":19629:19630   */\n      0x02\n        /* \"#utility.yul\":19625:19636   */\n      mul\n        /* \"#utility.yul\":19619:19623   */\n      dup3\n        /* \"#utility.yul\":19616:19637   */\n      or\n        /* \"#utility.yul\":19608:19637   */\n      swap1\n      pop\n        /* \"#utility.yul\":19348:19643   */\n      swap3\n      swap2\n      pop\n      pop\n      jump\t// out\n        /* \"#utility.yul\":19648:21043   */\n    tag_78:\n        /* \"#utility.yul\":19765:19802   */\n      tag_401\n        /* \"#utility.yul\":19798:19801   */\n      dup3\n        /* \"#utility.yul\":19765:19802   */\n      tag_192\n      jump\t// in\n    tag_401:\n        /* \"#utility.yul\":19867:19885   */\n      0xffffffffffffffff\n        /* \"#utility.yul\":19859:19865   */\n      dup2\n        /* \"#utility.yul\":19856:19886   */\n      gt\n        /* \"#utility.yul\":19853:19909   */\n      iszero\n      tag_402\n      jumpi\n        /* \"#utility.yul\":19889:19907   */\n      tag_403\n      tag_139\n      jump\t// in\n    tag_403:\n        /* \"#utility.yul\":19853:19909   */\n    tag_402:\n        /* \"#utility.yul\":19933:19971   */\n      tag_404\n        /* \"#utility.yul\":19965:19969   */\n      dup3\n        /* \"#utility.yul\":19959:19970   */\n      sload\n        /* \"#utility.yul\":19933:19971   */\n      tag_92\n      jump\t// in\n    tag_404:\n        /* \"#utility.yul\":20018:20085   */\n      tag_405\n        /* \"#utility.yul\":20078:20084   */\n      dup3\n        /* \"#utility.yul\":20070:20076   */\n      dup3\n        /* \"#utility.yul\":20064:20068   */\n      dup6\n        /* \"#utility.yul\":20018:20085   */\n      tag_228\n      jump\t// in\n    tag_405:\n        /* \"#utility.yul\":20112:20113   */\n      0x00\n        /* \"#utility.yul\":20136:20140   */\n      0x20\n        /* \"#utility.yul\":20123:20140   */\n      swap1\n      pop\n        /* \"#utility.yul\":20168:20170   */\n      0x1f\n        /* \"#utility.yul\":20160:20166   */\n      dup4\n        /* \"#utility.yul\":20157:20171   */\n      gt\n        /* \"#utility.yul\":20185:20186   */\n      0x01\n        /* \"#utility.yul\":20180:20798   */\n      dup2\n      eq\n      tag_407\n      jumpi\n        /* \"#utility.yul\":20842:20843   */\n      0x00\n        /* \"#utility.yul\":20859:20865   */\n      dup5\n        /* \"#utility.yul\":20856:20933   */\n      iszero\n      tag_408\n      jumpi\n        /* \"#utility.yul\":20908:20917   */\n      dup3\n        /* \"#utility.yul\":20903:20906   */\n      dup8\n        /* \"#utility.yul\":20899:20918   */\n      add\n        /* \"#utility.yul\":20893:20919   */\n      mload\n        /* \"#utility.yul\":20884:20919   */\n      swap1\n      pop\n        /* \"#utility.yul\":20856:20933   */\n    tag_408:\n        /* \"#utility.yul\":20959:21026   */\n      tag_409\n        /* \"#utility.yul\":21019:21025   */\n      dup6\n        /* \"#utility.yul\":21012:21017   */\n      dup3\n        /* \"#utility.yul\":20959:21026   */\n      tag_231\n      jump\t// in\n    tag_409:\n        /* \"#utility.yul\":20953:20957   */\n      dup7\n        /* \"#utility.yul\":20946:21027   */\n      sstore\n        /* \"#utility.yul\":20815:21037   */\n      pop\n        /* \"#utility.yul\":20150:21037   */\n      jump(tag_406)\n        /* \"#utility.yul\":20180:20798   */\n    tag_407:\n        /* \"#utility.yul\":20232:20236   */\n      0x1f\n        /* \"#utility.yul\":20228:20237   */\n      not\n        /* \"#utility.yul\":20220:20226   */\n      dup5\n        /* \"#utility.yul\":20216:20238   */\n      and\n        /* \"#utility.yul\":20266:20303   */\n      tag_410\n        /* \"#utility.yul\":20298:20302   */\n      dup7\n        /* \"#utility.yul\":20266:20303   */\n      tag_217\n      jump\t// in\n    tag_410:\n        /* \"#utility.yul\":20325:20326   */\n      0x00\n        /* \"#utility.yul\":20339:20547   */\n    tag_411:\n        /* \"#utility.yul\":20353:20360   */\n      dup3\n        /* \"#utility.yul\":20350:20351   */\n      dup2\n        /* \"#utility.yul\":20347:20361   */\n      lt\n        /* \"#utility.yul\":20339:20547   */\n      iszero\n      tag_413\n      jumpi\n        /* \"#utility.yul\":20432:20441   */\n      dup5\n        /* \"#utility.yul\":20427:20430   */\n      dup10\n        /* \"#utility.yul\":20423:20442   */\n      add\n        /* \"#utility.yul\":20417:20443   */\n      mload\n        /* \"#utility.yul\":20409:20415   */\n      dup3\n        /* \"#utility.yul\":20402:20444   */\n      sstore\n        /* \"#utility.yul\":20483:20484   */\n      0x01\n        /* \"#utility.yul\":20475:20481   */\n      dup3\n        /* \"#utility.yul\":20471:20485   */\n      add\n        /* \"#utility.yul\":20461:20485   */\n      swap2\n      pop\n        /* \"#utility.yul\":20530:20532   */\n      0x20\n        /* \"#utility.yul\":20519:20528   */\n      dup6\n        /* \"#utility.yul\":20515:20533   */\n      add\n        /* \"#utility.yul\":20502:20533   */\n      swap5\n      pop\n        /* \"#utility.yul\":20376:20380   */\n      0x20\n        /* \"#utility.yul\":20373:20374   */\n      dup2\n        /* \"#utility.yul\":20369:20381   */\n      add\n        /* \"#utility.yul\":20364:20381   */\n      swap1\n      pop\n        /* \"#utility.yul\":20339:20547   */\n      jump(tag_411)\n    tag_413:\n        /* \"#utility.yul\":20575:20581   */\n      dup7\n        /* \"#utility.yul\":20566:20573   */\n      dup4\n        /* \"#utility.yul\":20563:20582   */\n      lt\n        /* \"#utility.yul\":20560:20739   */\n      iszero\n      tag_414\n      jumpi\n        /* \"#utility.yul\":20633:20642   */\n      dup5\n        /* \"#utility.yul\":20628:20631   */\n      dup10\n        /* \"#utility.yul\":20624:20643   */\n      add\n        /* \"#utility.yul\":20618:20644   */\n      mload\n        /* \"#utility.yul\":20676:20724   */\n      tag_415\n        /* \"#utility.yul\":20718:20722   */\n      0x1f\n        /* \"#utility.yul\":20710:20716   */\n      dup10\n        /* \"#utility.yul\":20706:20723   */\n      and\n        /* \"#utility.yul\":20695:20704   */\n      dup3\n        /* \"#utility.yul\":20676:20724   */\n      tag_230\n      jump\t// in\n    tag_415:\n        /* \"#utility.yul\":20668:20674   */\n      dup4\n        /* \"#utility.yul\":20661:20725   */\n      sstore\n        /* \"#utility.yul\":20583:20739   */\n      pop\n        /* \"#utility.yul\":20560:20739   */\n    tag_414:\n        /* \"#utility.yul\":20785:20786   */\n      0x01\n        /* \"#utility.yul\":20781:20782   */\n      0x02\n        /* \"#utility.yul\":20773:20779   */\n      dup9\n        /* \"#utility.yul\":20769:20783   */\n      mul\n        /* \"#utility.yul\":20765:20787   */\n      add\n        /* \"#utility.yul\":20759:20763   */\n      dup9\n        /* \"#utility.yul\":20752:20788   */\n      sstore\n        /* \"#utility.yul\":20187:20798   */\n      pop\n      pop\n      pop\n        /* \"#utility.yul\":20150:21037   */\n    tag_406:\n      pop\n        /* \"#utility.yul\":19740:21043   */\n      pop\n      pop\n      pop\n        /* \"#utility.yul\":19648:21043   */\n      pop\n      pop\n      jump\t// out\n        /* \"#utility.yul\":21049:21193   */\n    tag_232:\n        /* \"#utility.yul\":21101:21105   */\n      0x00\n        /* \"#utility.yul\":21124:21127   */\n      dup2\n        /* \"#utility.yul\":21116:21127   */\n      swap1\n      pop\n        /* \"#utility.yul\":21147:21150   */\n      dup2\n        /* \"#utility.yul\":21144:21145   */\n      0x00\n        /* \"#utility.yul\":21137:21151   */\n      mstore\n        /* \"#utility.yul\":21181:21185   */\n      0x20\n        /* \"#utility.yul\":21178:21179   */\n      0x00\n        /* \"#utility.yul\":21168:21186   */\n      keccak256\n        /* \"#utility.yul\":21160:21186   */\n      swap1\n      pop\n        /* \"#utility.yul\":21049:21193   */\n      swap2\n      swap1\n      pop\n      jump\t// out\n        /* \"#utility.yul\":21221:22099   */\n    tag_233:\n        /* \"#utility.yul\":21326:21329   */\n      0x00\n        /* \"#utility.yul\":21363:21368   */\n      dup2\n        /* \"#utility.yul\":21357:21369   */\n      sload\n        /* \"#utility.yul\":21392:21428   */\n      tag_418\n        /* \"#utility.yul\":21418:21427   */\n      dup2\n        /* \"#utility.yul\":21392:21428   */\n      tag_92\n      jump\t// in\n    tag_418:\n        /* \"#utility.yul\":21444:21532   */\n      tag_419\n        /* \"#utility.yul\":21525:21531   */\n      dup2\n        /* \"#utility.yul\":21520:21523   */\n      dup7\n        /* \"#utility.yul\":21444:21532   */\n      tag_213\n      jump\t// in\n    tag_419:\n        /* \"#utility.yul\":21437:21532   */\n      swap5\n      pop\n        /* \"#utility.yul\":21563:21564   */\n      0x01\n        /* \"#utility.yul\":21552:21561   */\n      dup3\n        /* \"#utility.yul\":21548:21565   */\n      and\n        /* \"#utility.yul\":21579:21580   */\n      0x00\n        /* \"#utility.yul\":21574:21740   */\n      dup2\n      eq\n      tag_421\n      jumpi\n        /* \"#utility.yul\":21754:21755   */\n      0x01\n        /* \"#utility.yul\":21749:22093   */\n      dup2\n      eq\n      tag_422\n      jumpi\n        /* \"#utility.yul\":21541:22093   */\n      jump(tag_420)\n        /* \"#utility.yul\":21574:21740   */\n    tag_421:\n        /* \"#utility.yul\":21658:21662   */\n      0xff\n        /* \"#utility.yul\":21654:21663   */\n      not\n        /* \"#utility.yul\":21643:21652   */\n      dup4\n        /* \"#utility.yul\":21639:21664   */\n      and\n        /* \"#utility.yul\":21634:21637   */\n      dup7\n        /* \"#utility.yul\":21627:21665   */\n      mstore\n        /* \"#utility.yul\":21720:21726   */\n      dup2\n        /* \"#utility.yul\":21713:21727   */\n      iszero\n        /* \"#utility.yul\":21706:21728   */\n      iszero\n        /* \"#utility.yul\":21698:21704   */\n      dup3\n        /* \"#utility.yul\":21694:21729   */\n      mul\n        /* \"#utility.yul\":21689:21692   */\n      dup7\n        /* \"#utility.yul\":21685:21730   */\n      add\n        /* \"#utility.yul\":21678:21730   */\n      swap4\n      pop\n        /* \"#utility.yul\":21574:21740   */\n      jump(tag_420)\n        /* \"#utility.yul\":21749:22093   */\n    tag_422:\n        /* \"#utility.yul\":21816:21857   */\n      tag_423\n        /* \"#utility.yul\":21851:21856   */\n      dup6\n        /* \"#utility.yul\":21816:21857   */\n      tag_232\n      jump\t// in\n    tag_423:\n        /* \"#utility.yul\":21879:21880   */\n      0x00\n        /* \"#utility.yul\":21893:22047   */\n    tag_424:\n        /* \"#utility.yul\":21907:21913   */\n      dup4\n        /* \"#utility.yul\":21904:21905   */\n      dup2\n        /* \"#utility.yul\":21901:21914   */\n      lt\n        /* \"#utility.yul\":21893:22047   */\n      iszero\n      tag_426\n      jumpi\n        /* \"#utility.yul\":21981:21988   */\n      dup2\n        /* \"#utility.yul\":21975:21989   */\n      sload\n        /* \"#utility.yul\":21971:21972   */\n      dup2\n        /* \"#utility.yul\":21966:21969   */\n      dup10\n        /* \"#utility.yul\":21962:21973   */\n      add\n        /* \"#utility.yul\":21955:21990   */\n      mstore\n        /* \"#utility.yul\":22031:22032   */\n      0x01\n        /* \"#utility.yul\":22022:22029   */\n      dup3\n        /* \"#utility.yul\":22018:22033   */\n      add\n        /* \"#utility.yul\":22007:22033   */\n      swap2\n      pop\n        /* \"#utility.yul\":21929:21933   */\n      0x20\n        /* \"#utility.yul\":21926:21927   */\n      dup2\n        /* \"#utility.yul\":21922:21934   */\n      add\n        /* \"#utility.yul\":21917:21934   */\n      swap1\n      pop\n        /* \"#utility.yul\":21893:22047   */\n      jump(tag_424)\n    tag_426:\n        /* \"#utility.yul\":22076:22082   */\n      dup4\n        /* \"#utility.yul\":22071:22074   */\n      dup9\n        /* \"#utility.yul\":22067:22083   */\n      add\n        /* \"#utility.yul\":22060:22083   */\n      swap6\n      pop\n        /* \"#utility.yul\":21756:22093   */\n      pop\n      pop\n        /* \"#utility.yul\":21541:22093   */\n    tag_420:\n      pop\n        /* \"#utility.yul\":21330:22099   */\n      pop\n      pop\n        /* \"#utility.yul\":21221:22099   */\n      swap3\n      swap2\n      pop\n      pop\n      jump\t// out\n        /* \"#utility.yul\":22105:22378   */\n    tag_129:\n        /* \"#utility.yul\":22236:22239   */\n      0x00\n        /* \"#utility.yul\":22258:22352   */\n      tag_428\n        /* \"#utility.yul\":22348:22351   */\n      dup3\n        /* \"#utility.yul\":22339:22345   */\n      dup5\n        /* \"#utility.yul\":22258:22352   */\n      tag_233\n      jump\t// in\n    tag_428:\n        /* \"#utility.yul\":22251:22352   */\n      swap2\n      pop\n        /* \"#utility.yul\":22369:22372   */\n      dup2\n        /* \"#utility.yul\":22362:22372   */\n      swap1\n      pop\n        /* \"#utility.yul\":22105:22378   */\n      swap3\n      swap2\n      pop\n      pop\n      jump\t// out\n    stop\n    data_18a7abff09bd8d1ca8f5bd98d09638ca9d6c8c7a20393afd456ee7bb7ae79919 496e76616c696420666c69676874206e756d6265723a204d757374206265203220746f20362063686172616374657273\n    data_2673f4d1c5603474cbad76066a3283a83ede72ca4bba932f9698aedefc45fd1c 496e76616c6964206e616d653a204d7573742062652061206e6f6e2d656d70747920737472696e67\n    data_2a5821b7e6fb0b2894da4a1cf4a905d129b906bf6cb575c5c603b53ecae40c94 496e76616c696420616464726573733a207a65726f20616464726573732070726f7669646564\n    data_2df0834bdf8786d74360a7c8b8d7de5d15a4289ab85529d73f4e7397c0b8af40 43616c6c6572206d75737420626520696e737572616e63652070726f7669646572\n    data_35c2c118339253cfd42f235be948378bf98d9f4c02c62ef1490e41e10f5494c5 4f6e6c7920696e737572616e63652070726f76696465722063616e20696e697469617465207061796d656e74\n    data_59323eb6dad5e70cc715cecc9bb2fbfd583fdb1f65d5a10f603cc22277a415f3 416c6c20706f6c696369657320726574726965766564207375636365737366756c6c79\n    data_6f31ec84f1633147aa3d024eb7f56473d59ec67a9eec6c05e5cf01eb0db0a5c8 44657061727475726520616e642064657374696e6174696f6e206369746965732063616e6e6f74206265207468652073616d65\n    data_7636276aa9e42f60e147981f2412d538cf369e2766a6d3efed5d122c680b23d3 496e737572616e63652050726f76696465723a20506f6c696379207375636365737366756c6c7920707572636861736564\n    data_7a9cdb4f84f8bf3272ff777469639471ce70616242330454e3a21c0d013b6b66 496e76616c6964206461746520666f726d61743a204d75737420626520595959592d4d4d2d4444\n    data_8fab27788aa2569e6388b55730db481d583fa165812a241294b7b96a90b2a252 496e737572616e63652050726f76696465723a20506f6c69637920726574726965766564207375636365737366756c6c79\n    data_90e62f8819c827a807f9699ff7d534f63b1757c7c06d7e0f1b655a13e0c6e2d0 506f6c69637920616c72656164792065786973747320666f7220746869732061646472657373\n    data_d59989be92bc9d1b4549c043b505eb9c4875cfd9f825df1096982c95975097c2 5072656d69756d3a20302e3031204554482c20496e64656d6e6974793a20302e3032204554482c20436f7665726167653a2045787472656d6520576561746865722044656c6179732028652e672e2c206861696c2c20666c6f6f64696e672c206574632e292e\n    data_ef070f5147518867988621c2539f9f6b08693b883575bb0e1da4e2e6be6fd1e2 496e73756666696369656e742066756e64733a204d696e696d756d20302e303120455448207265717569726564\n\n    auxdata: 0xa2646970667358221220ec72d6d64389574dc126beb4a71fc99caab4049becacafd0b559b21344d5561864736f6c634300081a0033\n}\n",
				"bytecode": {
					"linkReferences": {},
					"object": "608060405234801561000f575f80fd5b50604051612595380380612595833981810160405281019061003191906100d4565b805f806101000a81548173ffffffffffffffffffffffffffffffffffffffff021916908373ffffffffffffffffffffffffffffffffffffffff160217905550506100ff565b5f80fd5b5f73ffffffffffffffffffffffffffffffffffffffff82169050919050565b5f6100a38261007a565b9050919050565b6100b381610099565b81146100bd575f80fd5b50565b5f815190506100ce816100aa565b92915050565b5f602082840312156100e9576100e8610076565b5b5f6100f6848285016100c0565b91505092915050565b6124898061010c5f395ff3fe608060405260043610610085575f3560e01c8063a4cd98e611610058578063a4cd98e614610139578063b6fc3b2a14610176578063c160693d146101a0578063cd95e777146101cb578063ea3696ca146101f557610085565b80633ff1e05b146100895780635d02ed12146100b3578063963163bd146100e45780639955f67c1461010f575b5f80fd5b348015610094575f80fd5b5061009d61021f565b6040516100aa91906117bf565b60405180910390f35b6100cd60048036038101906100c89190611841565b61023d565b6040516100db9291906119e2565b60405180910390f35b3480156100ef575f80fd5b506100f861095d565b604051610106929190611b53565b60405180910390f35b34801561011a575f80fd5b50610123610e95565b6040516101309190611b97565b60405180910390f35b348015610144575f80fd5b5061015f600480360381019061015a9190611bda565b610eb8565b60405161016d9291906119e2565b60405180910390f35b348015610181575f80fd5b5061018a6111b2565b6040516101979190611c05565b60405180910390f35b3480156101ab575f80fd5b506101b46111d2565b6040516101c2929190611d9c565b60405180910390f35b3480156101d6575f80fd5b506101df61173f565b6040516101ec91906117bf565b60405180910390f35b348015610200575f80fd5b5061020961174a565b60405161021691906117bf565b60405180910390f35b5f3373ffffffffffffffffffffffffffffffffffffffff1631905090565b5f60605f8c8c90501480610254575060408c8c9050115b1561027c575f604051806060016040528060288152602001612221602891399150915061094e565b60028a8a90501080610291575060068a8a9050115b156102b9575f6040518060600160405280603081526020016121f1603091399150915061094e565b83836040516102c9929190611e0d565b604051809103902086866040516102e1929190611e0d565b604051809103902003610311575f6040518060600160405280603381526020016122df603391399150915061094e565b600a8888905014158061038357507f2d000000000000000000000000000000000000000000000000000000000000008888600481811061035457610353611e25565b5b9050013560f81c60f81b7effffffffffffffffffffffffffffffffffffffffffffffffffffffffffffff191614155b806103ed57507f2d00000000000000000000000000000000000000000000000000000000000000888860078181106103be576103bd611e25565b5b9050013560f81c60f81b7effffffffffffffffffffffffffffffffffffffffffffffffffffffffffffff191614155b15610415575f604051806060016040528060278152602001612343602791399150915061094e565b662386f26fc10000341015610447575f6040518060600160405280602d8152602001612427602d91399150915061094e565b5f73ffffffffffffffffffffffffffffffffffffffff1660015f3373ffffffffffffffffffffffffffffffffffffffff1673ffffffffffffffffffffffffffffffffffffffff1681526020019081526020015f206001015f9054906101000a900473ffffffffffffffffffffffffffffffffffffffff1673ffffffffffffffffffffffffffffffffffffffff16146104fc575f60405180606001604052806026815260200161239b602691399150915061094e565b6040518060e001604052808d8d8080601f0160208091040260200160405190810160405280939291908181526020018383808284375f81840152601f19601f8201169050808301925050505050505081526020013373ffffffffffffffffffffffffffffffffffffffff1681526020018b8b8080601f0160208091040260200160405190810160405280939291908181526020018383808284375f81840152601f19601f82011690508083019250505050505050815260200189898080601f0160208091040260200160405190810160405280939291908181526020018383808284375f81840152601f19601f82011690508083019250505050505050815260200187878080601f0160208091040260200160405190810160405280939291908181526020018383808284375f81840152601f19601f82011690508083019250505050505050815260200185858080601f0160208091040260200160405190810160405280939291908181526020018383808284375f81840152601f19601f8201169050808301925050505050505081526020016040518060400160405280600981526020017f707572636861736564000000000000000000000000000000000000000000000081525081525060015f3373ffffffffffffffffffffffffffffffffffffffff1673ffffffffffffffffffffffffffffffffffffffff1681526020019081526020015f205f820151815f0190816107199190612079565b506020820151816001015f6101000a81548173ffffffffffffffffffffffffffffffffffffffff021916908373ffffffffffffffffffffffffffffffffffffffff16021790555060408201518160020190816107759190612079565b50606082015181600301908161078b9190612079565b5060808201518160040190816107a19190612079565b5060a08201518160050190816107b79190612079565b5060c08201518160060190816107cd9190612079565b50905050600233908060018154018082558091505060019003905f5260205f20015f9091909190916101000a81548173ffffffffffffffffffffffffffffffffffffffff021916908373ffffffffffffffffffffffffffffffffffffffff1602179055505f8054906101000a900473ffffffffffffffffffffffffffffffffffffffff1673ffffffffffffffffffffffffffffffffffffffff166108fc662386f26fc1000090811502906040515f60405180830381858888f1935050505015801561089a573d5f803e3d5ffd5b505f8054906101000a900473ffffffffffffffffffffffffffffffffffffffff1673ffffffffffffffffffffffffffffffffffffffff163373ffffffffffffffffffffffffffffffffffffffff1603610911576001604051806060016040528060318152602001612312603191399150915061094e565b60016040518060400160405280601d81526020017f506f6c696379207375636365737366756c6c7920707572636861736564000000815250915091505b9a509a98505050505050505050565b610965611755565b60605f60015f3373ffffffffffffffffffffffffffffffffffffffff1673ffffffffffffffffffffffffffffffffffffffff1681526020019081526020015f206040518060e00160405290815f820180546109bf90611eac565b80601f01602080910402602001604051908101604052809291908181526020018280546109eb90611eac565b8015610a365780601f10610a0d57610100808354040283529160200191610a36565b820191905f5260205f20905b815481529060010190602001808311610a1957829003601f168201915b50505050508152602001600182015f9054906101000a900473ffffffffffffffffffffffffffffffffffffffff1673ffffffffffffffffffffffffffffffffffffffff1673ffffffffffffffffffffffffffffffffffffffff168152602001600282018054610aa490611eac565b80601f0160208091040260200160405190810160405280929190818152602001828054610ad090611eac565b8015610b1b5780601f10610af257610100808354040283529160200191610b1b565b820191905f5260205f20905b815481529060010190602001808311610afe57829003601f168201915b50505050508152602001600382018054610b3490611eac565b80601f0160208091040260200160405190810160405280929190818152602001828054610b6090611eac565b8015610bab5780601f10610b8257610100808354040283529160200191610bab565b820191905f5260205f20905b815481529060010190602001808311610b8e57829003601f168201915b50505050508152602001600482018054610bc490611eac565b80601f0160208091040260200160405190810160405280929190818152602001828054610bf090611eac565b8015610c3b5780601f10610c1257610100808354040283529160200191610c3b565b820191905f5260205f20905b815481529060010190602001808311610c1e57829003601f168201915b50505050508152602001600582018054610c5490611eac565b80601f0160208091040260200160405190810160405280929190818152602001828054610c8090611eac565b8015610ccb5780601f10610ca257610100808354040283529160200191610ccb565b820191905f5260205f20905b815481529060010190602001808311610cae57829003601f168201915b50505050508152602001600682018054610ce490611eac565b80601f0160208091040260200160405190810160405280929190818152602001828054610d1090611eac565b8015610d5b5780601f10610d3257610100808354040283529160200191610d5b565b820191905f5260205f20905b815481529060010190602001808311610d3e57829003601f168201915b50505050508152505090505f73ffffffffffffffffffffffffffffffffffffffff16816020015173ffffffffffffffffffffffffffffffffffffffff1603610dde57806040518060400160405280600f81526020017f4e6f20706f6c69637920666f756e6400000000000000000000000000000000008152509250925050610e91565b5f8054906101000a900473ffffffffffffffffffffffffffffffffffffffff1673ffffffffffffffffffffffffffffffffffffffff163373ffffffffffffffffffffffffffffffffffffffff1603610e54578060405180606001604052806031815260200161236a603191399250925050610e91565b806040518060400160405280601d81526020017f506f6c69637920726574726965766564207375636365737366756c6c7900000081525092509250505b9091565b5f8054906101000a900473ffffffffffffffffffffffffffffffffffffffff1681565b5f60605f8054906101000a900473ffffffffffffffffffffffffffffffffffffffff1673ffffffffffffffffffffffffffffffffffffffff163373ffffffffffffffffffffffffffffffffffffffff1614610f30575f6040518060600160405280602c8152602001612290602c9139915091506111ad565b5f73ffffffffffffffffffffffffffffffffffffffff168373ffffffffffffffffffffffffffffffffffffffff1603610f86575f60405180606001604052806026815260200161224960269139915091506111ad565b5f60015f8573ffffffffffffffffffffffffffffffffffffffff1673ffffffffffffffffffffffffffffffffffffffff1681526020019081526020015f2090505f73ffffffffffffffffffffffffffffffffffffffff16816001015f9054906101000a900473ffffffffffffffffffffffffffffffffffffffff1673ffffffffffffffffffffffffffffffffffffffff160361105d575f6040518060400160405280600f81526020017f4e6f20706f6c69637920666f756e64000000000000000000000000000000000081525092509250506111ad565b7f8a6496e4880174e791c7333606cc9f71e4c6fc52a65ccc1008e0ddd3dd8d1da58160060160405161108f91906121da565b6040518091039020146110dd575f6040518060400160405280601981526020017f496e64656d6e69747920616c726561647920636c61696d65640000000000000081525092509250506111ad565b8373ffffffffffffffffffffffffffffffffffffffff166108fc66470de4df82000090811502906040515f60405180830381858888f19350505050158015611127573d5f803e3d5ffd5b506040518060400160405280600781526020017f636c61696d65640000000000000000000000000000000000000000000000000081525081600601908161116e9190612079565b5060016040518060400160405280601b81526020017f496e64656d6e697479207375636365737366756c6c792070616964000000000081525092509250505b915091565b60606040518060a00160405280606681526020016123c160669139905090565b6060805f8054906101000a900473ffffffffffffffffffffffffffffffffffffffff1673ffffffffffffffffffffffffffffffffffffffff163373ffffffffffffffffffffffffffffffffffffffff161461124d5760608060405180606001604052806021815260200161226f60219139925092505061173b565b5f60028054905067ffffffffffffffff81111561126d5761126c611e52565b5b6040519080825280602002602001820160405280156112a657816020015b611293611755565b81526020019060019003908161128b5790505b5090505f5b60028054905081101561171a5760015f600283815481106112cf576112ce611e25565b5b905f5260205f20015f9054906101000a900473ffffffffffffffffffffffffffffffffffffffff1673ffffffffffffffffffffffffffffffffffffffff1673ffffffffffffffffffffffffffffffffffffffff1681526020019081526020015f206040518060e00160405290815f8201805461134a90611eac565b80601f016020809104026020016040519081016040528092919081815260200182805461137690611eac565b80156113c15780601f10611398576101008083540402835291602001916113c1565b820191905f5260205f20905b8154815290600101906020018083116113a457829003601f168201915b50505050508152602001600182015f9054906101000a900473ffffffffffffffffffffffffffffffffffffffff1673ffffffffffffffffffffffffffffffffffffffff1673ffffffffffffffffffffffffffffffffffffffff16815260200160028201805461142f90611eac565b80601f016020809104026020016040519081016040528092919081815260200182805461145b90611eac565b80156114a65780601f1061147d576101008083540402835291602001916114a6565b820191905f5260205f20905b81548152906001019060200180831161148957829003601f168201915b505050505081526020016003820180546114bf90611eac565b80601f01602080910402602001604051908101604052809291908181526020018280546114eb90611eac565b80156115365780601f1061150d57610100808354040283529160200191611536565b820191905f5260205f20905b81548152906001019060200180831161151957829003601f168201915b5050505050815260200160048201805461154f90611eac565b80601f016020809104026020016040519081016040528092919081815260200182805461157b90611eac565b80156115c65780601f1061159d576101008083540402835291602001916115c6565b820191905f5260205f20905b8154815290600101906020018083116115a957829003601f168201915b505050505081526020016005820180546115df90611eac565b80601f016020809104026020016040519081016040528092919081815260200182805461160b90611eac565b80156116565780601f1061162d57610100808354040283529160200191611656565b820191905f5260205f20905b81548152906001019060200180831161163957829003601f168201915b5050505050815260200160068201805461166f90611eac565b80601f016020809104026020016040519081016040528092919081815260200182805461169b90611eac565b80156116e65780601f106116bd576101008083540402835291602001916116e6565b820191905f5260205f20905b8154815290600101906020018083116116c957829003601f168201915b50505050508152505082828151811061170257611701611e25565b5b602002602001018190525080806001019150506112ab565b50806040518060600160405280602381526020016122bc6023913992509250505b9091565b66470de4df82000081565b662386f26fc1000081565b6040518060e00160405280606081526020015f73ffffffffffffffffffffffffffffffffffffffff16815260200160608152602001606081526020016060815260200160608152602001606081525090565b5f819050919050565b6117b9816117a7565b82525050565b5f6020820190506117d25f8301846117b0565b92915050565b5f80fd5b5f80fd5b5f80fd5b5f80fd5b5f80fd5b5f8083601f840112611801576118006117e0565b5b8235905067ffffffffffffffff81111561181e5761181d6117e4565b5b60208301915083600182028301111561183a576118396117e8565b5b9250929050565b5f805f805f805f805f8060a08b8d03121561185f5761185e6117d8565b5b5f8b013567ffffffffffffffff81111561187c5761187b6117dc565b5b6118888d828e016117ec565b9a509a505060208b013567ffffffffffffffff8111156118ab576118aa6117dc565b5b6118b78d828e016117ec565b985098505060408b013567ffffffffffffffff8111156118da576118d96117dc565b5b6118e68d828e016117ec565b965096505060608b013567ffffffffffffffff811115611909576119086117dc565b5b6119158d828e016117ec565b945094505060808b013567ffffffffffffffff811115611938576119376117dc565b5b6119448d828e016117ec565b92509250509295989b9194979a5092959850565b5f8115159050919050565b61196c81611958565b82525050565b5f81519050919050565b5f82825260208201905092915050565b8281835e5f83830152505050565b5f601f19601f8301169050919050565b5f6119b482611972565b6119be818561197c565b93506119ce81856020860161198c565b6119d78161199a565b840191505092915050565b5f6040820190506119f55f830185611963565b8181036020830152611a0781846119aa565b90509392505050565b5f82825260208201905092915050565b5f611a2a82611972565b611a348185611a10565b9350611a4481856020860161198c565b611a4d8161199a565b840191505092915050565b5f73ffffffffffffffffffffffffffffffffffffffff82169050919050565b5f611a8182611a58565b9050919050565b611a9181611a77565b82525050565b5f60e083015f8301518482035f860152611ab18282611a20565b9150506020830151611ac66020860182611a88565b5060408301518482036040860152611ade8282611a20565b91505060608301518482036060860152611af88282611a20565b91505060808301518482036080860152611b128282611a20565b91505060a083015184820360a0860152611b2c8282611a20565b91505060c083015184820360c0860152611b468282611a20565b9150508091505092915050565b5f6040820190508181035f830152611b6b8185611a97565b90508181036020830152611b7f81846119aa565b90509392505050565b611b9181611a77565b82525050565b5f602082019050611baa5f830184611b88565b92915050565b611bb981611a77565b8114611bc3575f80fd5b50565b5f81359050611bd481611bb0565b92915050565b5f60208284031215611bef57611bee6117d8565b5b5f611bfc84828501611bc6565b91505092915050565b5f6020820190508181035f830152611c1d81846119aa565b905092915050565b5f81519050919050565b5f82825260208201905092915050565b5f819050602082019050919050565b5f60e083015f8301518482035f860152611c688282611a20565b9150506020830151611c7d6020860182611a88565b5060408301518482036040860152611c958282611a20565b91505060608301518482036060860152611caf8282611a20565b91505060808301518482036080860152611cc98282611a20565b91505060a083015184820360a0860152611ce38282611a20565b91505060c083015184820360c0860152611cfd8282611a20565b9150508091505092915050565b5f611d158383611c4e565b905092915050565b5f602082019050919050565b5f611d3382611c25565b611d3d8185611c2f565b935083602082028501611d4f85611c3f565b805f5b85811015611d8a5784840389528151611d6b8582611d0a565b9450611d7683611d1d565b925060208a01995050600181019050611d52565b50829750879550505050505092915050565b5f6040820190508181035f830152611db48185611d29565b90508181036020830152611dc881846119aa565b90509392505050565b5f81905092915050565b828183375f83830152505050565b5f611df48385611dd1565b9350611e01838584611ddb565b82840190509392505050565b5f611e19828486611de9565b91508190509392505050565b7f4e487b71000000000000000000000000000000000000000000000000000000005f52603260045260245ffd5b7f4e487b71000000000000000000000000000000000000000000000000000000005f52604160045260245ffd5b7f4e487b71000000000000000000000000000000000000000000000000000000005f52602260045260245ffd5b5f6002820490506001821680611ec357607f821691505b602082108103611ed657611ed5611e7f565b5b50919050565b5f819050815f5260205f209050919050565b5f6020601f8301049050919050565b5f82821b905092915050565b5f60088302611f387fffffffffffffffffffffffffffffffffffffffffffffffffffffffffffffffff82611efd565b611f428683611efd565b95508019841693508086168417925050509392505050565b5f819050919050565b5f611f7d611f78611f73846117a7565b611f5a565b6117a7565b9050919050565b5f819050919050565b611f9683611f63565b611faa611fa282611f84565b848454611f09565b825550505050565b5f90565b611fbe611fb2565b611fc9818484611f8d565b505050565b5b81811015611fec57611fe15f82611fb6565b600181019050611fcf565b5050565b601f8211156120315761200281611edc565b61200b84611eee565b8101602085101561201a578190505b61202e61202685611eee565b830182611fce565b50505b505050565b5f82821c905092915050565b5f6120515f1984600802612036565b1980831691505092915050565b5f6120698383612042565b9150826002028217905092915050565b61208282611972565b67ffffffffffffffff81111561209b5761209a611e52565b5b6120a58254611eac565b6120b0828285611ff0565b5f60209050601f8311600181146120e1575f84156120cf578287015190505b6120d9858261205e565b865550612140565b601f1984166120ef86611edc565b5f5b82811015612116578489015182556001820191506020850194506020810190506120f1565b86831015612133578489015161212f601f891682612042565b8355505b6001600288020188555050505b505050505050565b5f819050815f5260205f209050919050565b5f815461216681611eac565b6121708186611dd1565b9450600182165f811461218a576001811461219f576121d1565b60ff19831686528115158202860193506121d1565b6121a885612148565b5f5b838110156121c9578154818901526001820191506020810190506121aa565b838801955050505b50505092915050565b5f6121e5828461215a565b91508190509291505056fe496e76616c696420666c69676874206e756d6265723a204d757374206265203220746f20362063686172616374657273496e76616c6964206e616d653a204d7573742062652061206e6f6e2d656d70747920737472696e67496e76616c696420616464726573733a207a65726f20616464726573732070726f766964656443616c6c6572206d75737420626520696e737572616e63652070726f76696465724f6e6c7920696e737572616e63652070726f76696465722063616e20696e697469617465207061796d656e74416c6c20706f6c696369657320726574726965766564207375636365737366756c6c7944657061727475726520616e642064657374696e6174696f6e206369746965732063616e6e6f74206265207468652073616d65496e737572616e63652050726f76696465723a20506f6c696379207375636365737366756c6c7920707572636861736564496e76616c6964206461746520666f726d61743a204d75737420626520595959592d4d4d2d4444496e737572616e63652050726f76696465723a20506f6c69637920726574726965766564207375636365737366756c6c79506f6c69637920616c72656164792065786973747320666f72207468697320616464726573735072656d69756d3a20302e3031204554482c20496e64656d6e6974793a20302e3032204554482c20436f7665726167653a2045787472656d6520576561746865722044656c6179732028652e672e2c206861696c2c20666c6f6f64696e672c206574632e292e496e73756666696369656e742066756e64733a204d696e696d756d20302e303120455448207265717569726564a2646970667358221220ec72d6d64389574dc126beb4a71fc99caab4049becacafd0b559b21344d5561864736f6c634300081a0033",
					"opcodes": "PUSH1 0x80 PUSH1 0x40 MSTORE CALLVALUE DUP1 ISZERO PUSH2 0xF JUMPI PUSH0 DUP1 REVERT JUMPDEST POP PUSH1 0x40 MLOAD PUSH2 0x2595 CODESIZE SUB DUP1 PUSH2 0x2595 DUP4 CODECOPY DUP2 DUP2 ADD PUSH1 0x40 MSTORE DUP2 ADD SWAP1 PUSH2 0x31 SWAP2 SWAP1 PUSH2 0xD4 JUMP JUMPDEST DUP1 PUSH0 DUP1 PUSH2 0x100 EXP DUP2 SLOAD DUP2 PUSH20 0xFFFFFFFFFFFFFFFFFFFFFFFFFFFFFFFFFFFFFFFF MUL NOT AND SWAP1 DUP4 PUSH20 0xFFFFFFFFFFFFFFFFFFFFFFFFFFFFFFFFFFFFFFFF AND MUL OR SWAP1 SSTORE POP POP PUSH2 0xFF JUMP JUMPDEST PUSH0 DUP1 REVERT JUMPDEST PUSH0 PUSH20 0xFFFFFFFFFFFFFFFFFFFFFFFFFFFFFFFFFFFFFFFF DUP3 AND SWAP1 POP SWAP2 SWAP1 POP JUMP JUMPDEST PUSH0 PUSH2 0xA3 DUP3 PUSH2 0x7A JUMP JUMPDEST SWAP1 POP SWAP2 SWAP1 POP JUMP JUMPDEST PUSH2 0xB3 DUP2 PUSH2 0x99 JUMP JUMPDEST DUP2 EQ PUSH2 0xBD JUMPI PUSH0 DUP1 REVERT JUMPDEST POP JUMP JUMPDEST PUSH0 DUP2 MLOAD SWAP1 POP PUSH2 0xCE DUP2 PUSH2 0xAA JUMP JUMPDEST SWAP3 SWAP2 POP POP JUMP JUMPDEST PUSH0 PUSH1 0x20 DUP3 DUP5 SUB SLT ISZERO PUSH2 0xE9 JUMPI PUSH2 0xE8 PUSH2 0x76 JUMP JUMPDEST JUMPDEST PUSH0 PUSH2 0xF6 DUP5 DUP3 DUP6 ADD PUSH2 0xC0 JUMP JUMPDEST SWAP2 POP POP SWAP3 SWAP2 POP POP JUMP JUMPDEST PUSH2 0x2489 DUP1 PUSH2 0x10C PUSH0 CODECOPY PUSH0 RETURN INVALID PUSH1 0x80 PUSH1 0x40 MSTORE PUSH1 0x4 CALLDATASIZE LT PUSH2 0x85 JUMPI PUSH0 CALLDATALOAD PUSH1 0xE0 SHR DUP1 PUSH4 0xA4CD98E6 GT PUSH2 0x58 JUMPI DUP1 PUSH4 0xA4CD98E6 EQ PUSH2 0x139 JUMPI DUP1 PUSH4 0xB6FC3B2A EQ PUSH2 0x176 JUMPI DUP1 PUSH4 0xC160693D EQ PUSH2 0x1A0 JUMPI DUP1 PUSH4 0xCD95E777 EQ PUSH2 0x1CB JUMPI DUP1 PUSH4 0xEA3696CA EQ PUSH2 0x1F5 JUMPI PUSH2 0x85 JUMP JUMPDEST DUP1 PUSH4 0x3FF1E05B EQ PUSH2 0x89 JUMPI DUP1 PUSH4 0x5D02ED12 EQ PUSH2 0xB3 JUMPI DUP1 PUSH4 0x963163BD EQ PUSH2 0xE4 JUMPI DUP1 PUSH4 0x9955F67C EQ PUSH2 0x10F JUMPI JUMPDEST PUSH0 DUP1 REVERT JUMPDEST CALLVALUE DUP1 ISZERO PUSH2 0x94 JUMPI PUSH0 DUP1 REVERT JUMPDEST POP PUSH2 0x9D PUSH2 0x21F JUMP JUMPDEST PUSH1 0x40 MLOAD PUSH2 0xAA SWAP2 SWAP1 PUSH2 0x17BF JUMP JUMPDEST PUSH1 0x40 MLOAD DUP1 SWAP2 SUB SWAP1 RETURN JUMPDEST PUSH2 0xCD PUSH1 0x4 DUP1 CALLDATASIZE SUB DUP2 ADD SWAP1 PUSH2 0xC8 SWAP2 SWAP1 PUSH2 0x1841 JUMP JUMPDEST PUSH2 0x23D JUMP JUMPDEST PUSH1 0x40 MLOAD PUSH2 0xDB SWAP3 SWAP2 SWAP1 PUSH2 0x19E2 JUMP JUMPDEST PUSH1 0x40 MLOAD DUP1 SWAP2 SUB SWAP1 RETURN JUMPDEST CALLVALUE DUP1 ISZERO PUSH2 0xEF JUMPI PUSH0 DUP1 REVERT JUMPDEST POP PUSH2 0xF8 PUSH2 0x95D JUMP JUMPDEST PUSH1 0x40 MLOAD PUSH2 0x106 SWAP3 SWAP2 SWAP1 PUSH2 0x1B53 JUMP JUMPDEST PUSH1 0x40 MLOAD DUP1 SWAP2 SUB SWAP1 RETURN JUMPDEST CALLVALUE DUP1 ISZERO PUSH2 0x11A JUMPI PUSH0 DUP1 REVERT JUMPDEST POP PUSH2 0x123 PUSH2 0xE95 JUMP JUMPDEST PUSH1 0x40 MLOAD PUSH2 0x130 SWAP2 SWAP1 PUSH2 0x1B97 JUMP JUMPDEST PUSH1 0x40 MLOAD DUP1 SWAP2 SUB SWAP1 RETURN JUMPDEST CALLVALUE DUP1 ISZERO PUSH2 0x144 JUMPI PUSH0 DUP1 REVERT JUMPDEST POP PUSH2 0x15F PUSH1 0x4 DUP1 CALLDATASIZE SUB DUP2 ADD SWAP1 PUSH2 0x15A SWAP2 SWAP1 PUSH2 0x1BDA JUMP JUMPDEST PUSH2 0xEB8 JUMP JUMPDEST PUSH1 0x40 MLOAD PUSH2 0x16D SWAP3 SWAP2 SWAP1 PUSH2 0x19E2 JUMP JUMPDEST PUSH1 0x40 MLOAD DUP1 SWAP2 SUB SWAP1 RETURN JUMPDEST CALLVALUE DUP1 ISZERO PUSH2 0x181 JUMPI PUSH0 DUP1 REVERT JUMPDEST POP PUSH2 0x18A PUSH2 0x11B2 JUMP JUMPDEST PUSH1 0x40 MLOAD PUSH2 0x197 SWAP2 SWAP1 PUSH2 0x1C05 JUMP JUMPDEST PUSH1 0x40 MLOAD DUP1 SWAP2 SUB SWAP1 RETURN JUMPDEST CALLVALUE DUP1 ISZERO PUSH2 0x1AB JUMPI PUSH0 DUP1 REVERT JUMPDEST POP PUSH2 0x1B4 PUSH2 0x11D2 JUMP JUMPDEST PUSH1 0x40 MLOAD PUSH2 0x1C2 SWAP3 SWAP2 SWAP1 PUSH2 0x1D9C JUMP JUMPDEST PUSH1 0x40 MLOAD DUP1 SWAP2 SUB SWAP1 RETURN JUMPDEST CALLVALUE DUP1 ISZERO PUSH2 0x1D6 JUMPI PUSH0 DUP1 REVERT JUMPDEST POP PUSH2 0x1DF PUSH2 0x173F JUMP JUMPDEST PUSH1 0x40 MLOAD PUSH2 0x1EC SWAP2 SWAP1 PUSH2 0x17BF JUMP JUMPDEST PUSH1 0x40 MLOAD DUP1 SWAP2 SUB SWAP1 RETURN JUMPDEST CALLVALUE DUP1 ISZERO PUSH2 0x200 JUMPI PUSH0 DUP1 REVERT JUMPDEST POP PUSH2 0x209 PUSH2 0x174A JUMP JUMPDEST PUSH1 0x40 MLOAD PUSH2 0x216 SWAP2 SWAP1 PUSH2 0x17BF JUMP JUMPDEST PUSH1 0x40 MLOAD DUP1 SWAP2 SUB SWAP1 RETURN JUMPDEST PUSH0 CALLER PUSH20 0xFFFFFFFFFFFFFFFFFFFFFFFFFFFFFFFFFFFFFFFF AND BALANCE SWAP1 POP SWAP1 JUMP JUMPDEST PUSH0 PUSH1 0x60 PUSH0 DUP13 DUP13 SWAP1 POP EQ DUP1 PUSH2 0x254 JUMPI POP PUSH1 0x40 DUP13 DUP13 SWAP1 POP GT JUMPDEST ISZERO PUSH2 0x27C JUMPI PUSH0 PUSH1 0x40 MLOAD DUP1 PUSH1 0x60 ADD PUSH1 0x40 MSTORE DUP1 PUSH1 0x28 DUP2 MSTORE PUSH1 0x20 ADD PUSH2 0x2221 PUSH1 0x28 SWAP2 CODECOPY SWAP2 POP SWAP2 POP PUSH2 0x94E JUMP JUMPDEST PUSH1 0x2 DUP11 DUP11 SWAP1 POP LT DUP1 PUSH2 0x291 JUMPI POP PUSH1 0x6 DUP11 DUP11 SWAP1 POP GT JUMPDEST ISZERO PUSH2 0x2B9 JUMPI PUSH0 PUSH1 0x40 MLOAD DUP1 PUSH1 0x60 ADD PUSH1 0x40 MSTORE DUP1 PUSH1 0x30 DUP2 MSTORE PUSH1 0x20 ADD PUSH2 0x21F1 PUSH1 0x30 SWAP2 CODECOPY SWAP2 POP SWAP2 POP PUSH2 0x94E JUMP JUMPDEST DUP4 DUP4 PUSH1 0x40 MLOAD PUSH2 0x2C9 SWAP3 SWAP2 SWAP1 PUSH2 0x1E0D JUMP JUMPDEST PUSH1 0x40 MLOAD DUP1 SWAP2 SUB SWAP1 KECCAK256 DUP7 DUP7 PUSH1 0x40 MLOAD PUSH2 0x2E1 SWAP3 SWAP2 SWAP1 PUSH2 0x1E0D JUMP JUMPDEST PUSH1 0x40 MLOAD DUP1 SWAP2 SUB SWAP1 KECCAK256 SUB PUSH2 0x311 JUMPI PUSH0 PUSH1 0x40 MLOAD DUP1 PUSH1 0x60 ADD PUSH1 0x40 MSTORE DUP1 PUSH1 0x33 DUP2 MSTORE PUSH1 0x20 ADD PUSH2 0x22DF PUSH1 0x33 SWAP2 CODECOPY SWAP2 POP SWAP2 POP PUSH2 0x94E JUMP JUMPDEST PUSH1 0xA DUP9 DUP9 SWAP1 POP EQ ISZERO DUP1 PUSH2 0x383 JUMPI POP PUSH32 0x2D00000000000000000000000000000000000000000000000000000000000000 DUP9 DUP9 PUSH1 0x4 DUP2 DUP2 LT PUSH2 0x354 JUMPI PUSH2 0x353 PUSH2 0x1E25 JUMP JUMPDEST JUMPDEST SWAP1 POP ADD CALLDATALOAD PUSH1 0xF8 SHR PUSH1 0xF8 SHL PUSH31 0xFFFFFFFFFFFFFFFFFFFFFFFFFFFFFFFFFFFFFFFFFFFFFFFFFFFFFFFFFFFFFF NOT AND EQ ISZERO JUMPDEST DUP1 PUSH2 0x3ED JUMPI POP PUSH32 0x2D00000000000000000000000000000000000000000000000000000000000000 DUP9 DUP9 PUSH1 0x7 DUP2 DUP2 LT PUSH2 0x3BE JUMPI PUSH2 0x3BD PUSH2 0x1E25 JUMP JUMPDEST JUMPDEST SWAP1 POP ADD CALLDATALOAD PUSH1 0xF8 SHR PUSH1 0xF8 SHL PUSH31 0xFFFFFFFFFFFFFFFFFFFFFFFFFFFFFFFFFFFFFFFFFFFFFFFFFFFFFFFFFFFFFF NOT AND EQ ISZERO JUMPDEST ISZERO PUSH2 0x415 JUMPI PUSH0 PUSH1 0x40 MLOAD DUP1 PUSH1 0x60 ADD PUSH1 0x40 MSTORE DUP1 PUSH1 0x27 DUP2 MSTORE PUSH1 0x20 ADD PUSH2 0x2343 PUSH1 0x27 SWAP2 CODECOPY SWAP2 POP SWAP2 POP PUSH2 0x94E JUMP JUMPDEST PUSH7 0x2386F26FC10000 CALLVALUE LT ISZERO PUSH2 0x447 JUMPI PUSH0 PUSH1 0x40 MLOAD DUP1 PUSH1 0x60 ADD PUSH1 0x40 MSTORE DUP1 PUSH1 0x2D DUP2 MSTORE PUSH1 0x20 ADD PUSH2 0x2427 PUSH1 0x2D SWAP2 CODECOPY SWAP2 POP SWAP2 POP PUSH2 0x94E JUMP JUMPDEST PUSH0 PUSH20 0xFFFFFFFFFFFFFFFFFFFFFFFFFFFFFFFFFFFFFFFF AND PUSH1 0x1 PUSH0 CALLER PUSH20 0xFFFFFFFFFFFFFFFFFFFFFFFFFFFFFFFFFFFFFFFF AND PUSH20 0xFFFFFFFFFFFFFFFFFFFFFFFFFFFFFFFFFFFFFFFF AND DUP2 MSTORE PUSH1 0x20 ADD SWAP1 DUP2 MSTORE PUSH1 0x20 ADD PUSH0 KECCAK256 PUSH1 0x1 ADD PUSH0 SWAP1 SLOAD SWAP1 PUSH2 0x100 EXP SWAP1 DIV PUSH20 0xFFFFFFFFFFFFFFFFFFFFFFFFFFFFFFFFFFFFFFFF AND PUSH20 0xFFFFFFFFFFFFFFFFFFFFFFFFFFFFFFFFFFFFFFFF AND EQ PUSH2 0x4FC JUMPI PUSH0 PUSH1 0x40 MLOAD DUP1 PUSH1 0x60 ADD PUSH1 0x40 MSTORE DUP1 PUSH1 0x26 DUP2 MSTORE PUSH1 0x20 ADD PUSH2 0x239B PUSH1 0x26 SWAP2 CODECOPY SWAP2 POP SWAP2 POP PUSH2 0x94E JUMP JUMPDEST PUSH1 0x40 MLOAD DUP1 PUSH1 0xE0 ADD PUSH1 0x40 MSTORE DUP1 DUP14 DUP14 DUP1 DUP1 PUSH1 0x1F ADD PUSH1 0x20 DUP1 SWAP2 DIV MUL PUSH1 0x20 ADD PUSH1 0x40 MLOAD SWAP1 DUP2 ADD PUSH1 0x40 MSTORE DUP1 SWAP4 SWAP3 SWAP2 SWAP1 DUP2 DUP2 MSTORE PUSH1 0x20 ADD DUP4 DUP4 DUP1 DUP3 DUP5 CALLDATACOPY PUSH0 DUP2 DUP5 ADD MSTORE PUSH1 0x1F NOT PUSH1 0x1F DUP3 ADD AND SWAP1 POP DUP1 DUP4 ADD SWAP3 POP POP POP POP POP POP POP DUP2 MSTORE PUSH1 0x20 ADD CALLER PUSH20 0xFFFFFFFFFFFFFFFFFFFFFFFFFFFFFFFFFFFFFFFF AND DUP2 MSTORE PUSH1 0x20 ADD DUP12 DUP12 DUP1 DUP1 PUSH1 0x1F ADD PUSH1 0x20 DUP1 SWAP2 DIV MUL PUSH1 0x20 ADD PUSH1 0x40 MLOAD SWAP1 DUP2 ADD PUSH1 0x40 MSTORE DUP1 SWAP4 SWAP3 SWAP2 SWAP1 DUP2 DUP2 MSTORE PUSH1 0x20 ADD DUP4 DUP4 DUP1 DUP3 DUP5 CALLDATACOPY PUSH0 DUP2 DUP5 ADD MSTORE PUSH1 0x1F NOT PUSH1 0x1F DUP3 ADD AND SWAP1 POP DUP1 DUP4 ADD SWAP3 POP POP POP POP POP POP POP DUP2 MSTORE PUSH1 0x20 ADD DUP10 DUP10 DUP1 DUP1 PUSH1 0x1F ADD PUSH1 0x20 DUP1 SWAP2 DIV MUL PUSH1 0x20 ADD PUSH1 0x40 MLOAD SWAP1 DUP2 ADD PUSH1 0x40 MSTORE DUP1 SWAP4 SWAP3 SWAP2 SWAP1 DUP2 DUP2 MSTORE PUSH1 0x20 ADD DUP4 DUP4 DUP1 DUP3 DUP5 CALLDATACOPY PUSH0 DUP2 DUP5 ADD MSTORE PUSH1 0x1F NOT PUSH1 0x1F DUP3 ADD AND SWAP1 POP DUP1 DUP4 ADD SWAP3 POP POP POP POP POP POP POP DUP2 MSTORE PUSH1 0x20 ADD DUP8 DUP8 DUP1 DUP1 PUSH1 0x1F ADD PUSH1 0x20 DUP1 SWAP2 DIV MUL PUSH1 0x20 ADD PUSH1 0x40 MLOAD SWAP1 DUP2 ADD PUSH1 0x40 MSTORE DUP1 SWAP4 SWAP3 SWAP2 SWAP1 DUP2 DUP2 MSTORE PUSH1 0x20 ADD DUP4 DUP4 DUP1 DUP3 DUP5 CALLDATACOPY PUSH0 DUP2 DUP5 ADD MSTORE PUSH1 0x1F NOT PUSH1 0x1F DUP3 ADD AND SWAP1 POP DUP1 DUP4 ADD SWAP3 POP POP POP POP POP POP POP DUP2 MSTORE PUSH1 0x20 ADD DUP6 DUP6 DUP1 DUP1 PUSH1 0x1F ADD PUSH1 0x20 DUP1 SWAP2 DIV MUL PUSH1 0x20 ADD PUSH1 0x40 MLOAD SWAP1 DUP2 ADD PUSH1 0x40 MSTORE DUP1 SWAP4 SWAP3 SWAP2 SWAP1 DUP2 DUP2 MSTORE PUSH1 0x20 ADD DUP4 DUP4 DUP1 DUP3 DUP5 CALLDATACOPY PUSH0 DUP2 DUP5 ADD MSTORE PUSH1 0x1F NOT PUSH1 0x1F DUP3 ADD AND SWAP1 POP DUP1 DUP4 ADD SWAP3 POP POP POP POP POP POP POP DUP2 MSTORE PUSH1 0x20 ADD PUSH1 0x40 MLOAD DUP1 PUSH1 0x40 ADD PUSH1 0x40 MSTORE DUP1 PUSH1 0x9 DUP2 MSTORE PUSH1 0x20 ADD PUSH32 0x7075726368617365640000000000000000000000000000000000000000000000 DUP2 MSTORE POP DUP2 MSTORE POP PUSH1 0x1 PUSH0 CALLER PUSH20 0xFFFFFFFFFFFFFFFFFFFFFFFFFFFFFFFFFFFFFFFF AND PUSH20 0xFFFFFFFFFFFFFFFFFFFFFFFFFFFFFFFFFFFFFFFF AND DUP2 MSTORE PUSH1 0x20 ADD SWAP1 DUP2 MSTORE PUSH1 0x20 ADD PUSH0 KECCAK256 PUSH0 DUP3 ADD MLOAD DUP2 PUSH0 ADD SWAP1 DUP2 PUSH2 0x719 SWAP2 SWAP1 PUSH2 0x2079 JUMP JUMPDEST POP PUSH1 0x20 DUP3 ADD MLOAD DUP2 PUSH1 0x1 ADD PUSH0 PUSH2 0x100 EXP DUP2 SLOAD DUP2 PUSH20 0xFFFFFFFFFFFFFFFFFFFFFFFFFFFFFFFFFFFFFFFF MUL NOT AND SWAP1 DUP4 PUSH20 0xFFFFFFFFFFFFFFFFFFFFFFFFFFFFFFFFFFFFFFFF AND MUL OR SWAP1 SSTORE POP PUSH1 0x40 DUP3 ADD MLOAD DUP2 PUSH1 0x2 ADD SWAP1 DUP2 PUSH2 0x775 SWAP2 SWAP1 PUSH2 0x2079 JUMP JUMPDEST POP PUSH1 0x60 DUP3 ADD MLOAD DUP2 PUSH1 0x3 ADD SWAP1 DUP2 PUSH2 0x78B SWAP2 SWAP1 PUSH2 0x2079 JUMP JUMPDEST POP PUSH1 0x80 DUP3 ADD MLOAD DUP2 PUSH1 0x4 ADD SWAP1 DUP2 PUSH2 0x7A1 SWAP2 SWAP1 PUSH2 0x2079 JUMP JUMPDEST POP PUSH1 0xA0 DUP3 ADD MLOAD DUP2 PUSH1 0x5 ADD SWAP1 DUP2 PUSH2 0x7B7 SWAP2 SWAP1 PUSH2 0x2079 JUMP JUMPDEST POP PUSH1 0xC0 DUP3 ADD MLOAD DUP2 PUSH1 0x6 ADD SWAP1 DUP2 PUSH2 0x7CD SWAP2 SWAP1 PUSH2 0x2079 JUMP JUMPDEST POP SWAP1 POP POP PUSH1 0x2 CALLER SWAP1 DUP1 PUSH1 0x1 DUP2 SLOAD ADD DUP1 DUP3 SSTORE DUP1 SWAP2 POP POP PUSH1 0x1 SWAP1 SUB SWAP1 PUSH0 MSTORE PUSH1 0x20 PUSH0 KECCAK256 ADD PUSH0 SWAP1 SWAP2 SWAP1 SWAP2 SWAP1 SWAP2 PUSH2 0x100 EXP DUP2 SLOAD DUP2 PUSH20 0xFFFFFFFFFFFFFFFFFFFFFFFFFFFFFFFFFFFFFFFF MUL NOT AND SWAP1 DUP4 PUSH20 0xFFFFFFFFFFFFFFFFFFFFFFFFFFFFFFFFFFFFFFFF AND MUL OR SWAP1 SSTORE POP PUSH0 DUP1 SLOAD SWAP1 PUSH2 0x100 EXP SWAP1 DIV PUSH20 0xFFFFFFFFFFFFFFFFFFFFFFFFFFFFFFFFFFFFFFFF AND PUSH20 0xFFFFFFFFFFFFFFFFFFFFFFFFFFFFFFFFFFFFFFFF AND PUSH2 0x8FC PUSH7 0x2386F26FC10000 SWAP1 DUP2 ISZERO MUL SWAP1 PUSH1 0x40 MLOAD PUSH0 PUSH1 0x40 MLOAD DUP1 DUP4 SUB DUP2 DUP6 DUP9 DUP9 CALL SWAP4 POP POP POP POP ISZERO DUP1 ISZERO PUSH2 0x89A JUMPI RETURNDATASIZE PUSH0 DUP1 RETURNDATACOPY RETURNDATASIZE PUSH0 REVERT JUMPDEST POP PUSH0 DUP1 SLOAD SWAP1 PUSH2 0x100 EXP SWAP1 DIV PUSH20 0xFFFFFFFFFFFFFFFFFFFFFFFFFFFFFFFFFFFFFFFF AND PUSH20 0xFFFFFFFFFFFFFFFFFFFFFFFFFFFFFFFFFFFFFFFF AND CALLER PUSH20 0xFFFFFFFFFFFFFFFFFFFFFFFFFFFFFFFFFFFFFFFF AND SUB PUSH2 0x911 JUMPI PUSH1 0x1 PUSH1 0x40 MLOAD DUP1 PUSH1 0x60 ADD PUSH1 0x40 MSTORE DUP1 PUSH1 0x31 DUP2 MSTORE PUSH1 0x20 ADD PUSH2 0x2312 PUSH1 0x31 SWAP2 CODECOPY SWAP2 POP SWAP2 POP PUSH2 0x94E JUMP JUMPDEST PUSH1 0x1 PUSH1 0x40 MLOAD DUP1 PUSH1 0x40 ADD PUSH1 0x40 MSTORE DUP1 PUSH1 0x1D DUP2 MSTORE PUSH1 0x20 ADD PUSH32 0x506F6C696379207375636365737366756C6C7920707572636861736564000000 DUP2 MSTORE POP SWAP2 POP SWAP2 POP JUMPDEST SWAP11 POP SWAP11 SWAP9 POP POP POP POP POP POP POP POP POP JUMP JUMPDEST PUSH2 0x965 PUSH2 0x1755 JUMP JUMPDEST PUSH1 0x60 PUSH0 PUSH1 0x1 PUSH0 CALLER PUSH20 0xFFFFFFFFFFFFFFFFFFFFFFFFFFFFFFFFFFFFFFFF AND PUSH20 0xFFFFFFFFFFFFFFFFFFFFFFFFFFFFFFFFFFFFFFFF AND DUP2 MSTORE PUSH1 0x20 ADD SWAP1 DUP2 MSTORE PUSH1 0x20 ADD PUSH0 KECCAK256 PUSH1 0x40 MLOAD DUP1 PUSH1 0xE0 ADD PUSH1 0x40 MSTORE SWAP1 DUP2 PUSH0 DUP3 ADD DUP1 SLOAD PUSH2 0x9BF SWAP1 PUSH2 0x1EAC JUMP JUMPDEST DUP1 PUSH1 0x1F ADD PUSH1 0x20 DUP1 SWAP2 DIV MUL PUSH1 0x20 ADD PUSH1 0x40 MLOAD SWAP1 DUP2 ADD PUSH1 0x40 MSTORE DUP1 SWAP3 SWAP2 SWAP1 DUP2 DUP2 MSTORE PUSH1 0x20 ADD DUP3 DUP1 SLOAD PUSH2 0x9EB SWAP1 PUSH2 0x1EAC JUMP JUMPDEST DUP1 ISZERO PUSH2 0xA36 JUMPI DUP1 PUSH1 0x1F LT PUSH2 0xA0D JUMPI PUSH2 0x100 DUP1 DUP4 SLOAD DIV MUL DUP4 MSTORE SWAP2 PUSH1 0x20 ADD SWAP2 PUSH2 0xA36 JUMP JUMPDEST DUP3 ADD SWAP2 SWAP1 PUSH0 MSTORE PUSH1 0x20 PUSH0 KECCAK256 SWAP1 JUMPDEST DUP2 SLOAD DUP2 MSTORE SWAP1 PUSH1 0x1 ADD SWAP1 PUSH1 0x20 ADD DUP1 DUP4 GT PUSH2 0xA19 JUMPI DUP3 SWAP1 SUB PUSH1 0x1F AND DUP3 ADD SWAP2 JUMPDEST POP POP POP POP POP DUP2 MSTORE PUSH1 0x20 ADD PUSH1 0x1 DUP3 ADD PUSH0 SWAP1 SLOAD SWAP1 PUSH2 0x100 EXP SWAP1 DIV PUSH20 0xFFFFFFFFFFFFFFFFFFFFFFFFFFFFFFFFFFFFFFFF AND PUSH20 0xFFFFFFFFFFFFFFFFFFFFFFFFFFFFFFFFFFFFFFFF AND PUSH20 0xFFFFFFFFFFFFFFFFFFFFFFFFFFFFFFFFFFFFFFFF AND DUP2 MSTORE PUSH1 0x20 ADD PUSH1 0x2 DUP3 ADD DUP1 SLOAD PUSH2 0xAA4 SWAP1 PUSH2 0x1EAC JUMP JUMPDEST DUP1 PUSH1 0x1F ADD PUSH1 0x20 DUP1 SWAP2 DIV MUL PUSH1 0x20 ADD PUSH1 0x40 MLOAD SWAP1 DUP2 ADD PUSH1 0x40 MSTORE DUP1 SWAP3 SWAP2 SWAP1 DUP2 DUP2 MSTORE PUSH1 0x20 ADD DUP3 DUP1 SLOAD PUSH2 0xAD0 SWAP1 PUSH2 0x1EAC JUMP JUMPDEST DUP1 ISZERO PUSH2 0xB1B JUMPI DUP1 PUSH1 0x1F LT PUSH2 0xAF2 JUMPI PUSH2 0x100 DUP1 DUP4 SLOAD DIV MUL DUP4 MSTORE SWAP2 PUSH1 0x20 ADD SWAP2 PUSH2 0xB1B JUMP JUMPDEST DUP3 ADD SWAP2 SWAP1 PUSH0 MSTORE PUSH1 0x20 PUSH0 KECCAK256 SWAP1 JUMPDEST DUP2 SLOAD DUP2 MSTORE SWAP1 PUSH1 0x1 ADD SWAP1 PUSH1 0x20 ADD DUP1 DUP4 GT PUSH2 0xAFE JUMPI DUP3 SWAP1 SUB PUSH1 0x1F AND DUP3 ADD SWAP2 JUMPDEST POP POP POP POP POP DUP2 MSTORE PUSH1 0x20 ADD PUSH1 0x3 DUP3 ADD DUP1 SLOAD PUSH2 0xB34 SWAP1 PUSH2 0x1EAC JUMP JUMPDEST DUP1 PUSH1 0x1F ADD PUSH1 0x20 DUP1 SWAP2 DIV MUL PUSH1 0x20 ADD PUSH1 0x40 MLOAD SWAP1 DUP2 ADD PUSH1 0x40 MSTORE DUP1 SWAP3 SWAP2 SWAP1 DUP2 DUP2 MSTORE PUSH1 0x20 ADD DUP3 DUP1 SLOAD PUSH2 0xB60 SWAP1 PUSH2 0x1EAC JUMP JUMPDEST DUP1 ISZERO PUSH2 0xBAB JUMPI DUP1 PUSH1 0x1F LT PUSH2 0xB82 JUMPI PUSH2 0x100 DUP1 DUP4 SLOAD DIV MUL DUP4 MSTORE SWAP2 PUSH1 0x20 ADD SWAP2 PUSH2 0xBAB JUMP JUMPDEST DUP3 ADD SWAP2 SWAP1 PUSH0 MSTORE PUSH1 0x20 PUSH0 KECCAK256 SWAP1 JUMPDEST DUP2 SLOAD DUP2 MSTORE SWAP1 PUSH1 0x1 ADD SWAP1 PUSH1 0x20 ADD DUP1 DUP4 GT PUSH2 0xB8E JUMPI DUP3 SWAP1 SUB PUSH1 0x1F AND DUP3 ADD SWAP2 JUMPDEST POP POP POP POP POP DUP2 MSTORE PUSH1 0x20 ADD PUSH1 0x4 DUP3 ADD DUP1 SLOAD PUSH2 0xBC4 SWAP1 PUSH2 0x1EAC JUMP JUMPDEST DUP1 PUSH1 0x1F ADD PUSH1 0x20 DUP1 SWAP2 DIV MUL PUSH1 0x20 ADD PUSH1 0x40 MLOAD SWAP1 DUP2 ADD PUSH1 0x40 MSTORE DUP1 SWAP3 SWAP2 SWAP1 DUP2 DUP2 MSTORE PUSH1 0x20 ADD DUP3 DUP1 SLOAD PUSH2 0xBF0 SWAP1 PUSH2 0x1EAC JUMP JUMPDEST DUP1 ISZERO PUSH2 0xC3B JUMPI DUP1 PUSH1 0x1F LT PUSH2 0xC12 JUMPI PUSH2 0x100 DUP1 DUP4 SLOAD DIV MUL DUP4 MSTORE SWAP2 PUSH1 0x20 ADD SWAP2 PUSH2 0xC3B JUMP JUMPDEST DUP3 ADD SWAP2 SWAP1 PUSH0 MSTORE PUSH1 0x20 PUSH0 KECCAK256 SWAP1 JUMPDEST DUP2 SLOAD DUP2 MSTORE SWAP1 PUSH1 0x1 ADD SWAP1 PUSH1 0x20 ADD DUP1 DUP4 GT PUSH2 0xC1E JUMPI DUP3 SWAP1 SUB PUSH1 0x1F AND DUP3 ADD SWAP2 JUMPDEST POP POP POP POP POP DUP2 MSTORE PUSH1 0x20 ADD PUSH1 0x5 DUP3 ADD DUP1 SLOAD PUSH2 0xC54 SWAP1 PUSH2 0x1EAC JUMP JUMPDEST DUP1 PUSH1 0x1F ADD PUSH1 0x20 DUP1 SWAP2 DIV MUL PUSH1 0x20 ADD PUSH1 0x40 MLOAD SWAP1 DUP2 ADD PUSH1 0x40 MSTORE DUP1 SWAP3 SWAP2 SWAP1 DUP2 DUP2 MSTORE PUSH1 0x20 ADD DUP3 DUP1 SLOAD PUSH2 0xC80 SWAP1 PUSH2 0x1EAC JUMP JUMPDEST DUP1 ISZERO PUSH2 0xCCB JUMPI DUP1 PUSH1 0x1F LT PUSH2 0xCA2 JUMPI PUSH2 0x100 DUP1 DUP4 SLOAD DIV MUL DUP4 MSTORE SWAP2 PUSH1 0x20 ADD SWAP2 PUSH2 0xCCB JUMP JUMPDEST DUP3 ADD SWAP2 SWAP1 PUSH0 MSTORE PUSH1 0x20 PUSH0 KECCAK256 SWAP1 JUMPDEST DUP2 SLOAD DUP2 MSTORE SWAP1 PUSH1 0x1 ADD SWAP1 PUSH1 0x20 ADD DUP1 DUP4 GT PUSH2 0xCAE JUMPI DUP3 SWAP1 SUB PUSH1 0x1F AND DUP3 ADD SWAP2 JUMPDEST POP POP POP POP POP DUP2 MSTORE PUSH1 0x20 ADD PUSH1 0x6 DUP3 ADD DUP1 SLOAD PUSH2 0xCE4 SWAP1 PUSH2 0x1EAC JUMP JUMPDEST DUP1 PUSH1 0x1F ADD PUSH1 0x20 DUP1 SWAP2 DIV MUL PUSH1 0x20 ADD PUSH1 0x40 MLOAD SWAP1 DUP2 ADD PUSH1 0x40 MSTORE DUP1 SWAP3 SWAP2 SWAP1 DUP2 DUP2 MSTORE PUSH1 0x20 ADD DUP3 DUP1 SLOAD PUSH2 0xD10 SWAP1 PUSH2 0x1EAC JUMP JUMPDEST DUP1 ISZERO PUSH2 0xD5B JUMPI DUP1 PUSH1 0x1F LT PUSH2 0xD32 JUMPI PUSH2 0x100 DUP1 DUP4 SLOAD DIV MUL DUP4 MSTORE SWAP2 PUSH1 0x20 ADD SWAP2 PUSH2 0xD5B JUMP JUMPDEST DUP3 ADD SWAP2 SWAP1 PUSH0 MSTORE PUSH1 0x20 PUSH0 KECCAK256 SWAP1 JUMPDEST DUP2 SLOAD DUP2 MSTORE SWAP1 PUSH1 0x1 ADD SWAP1 PUSH1 0x20 ADD DUP1 DUP4 GT PUSH2 0xD3E JUMPI DUP3 SWAP1 SUB PUSH1 0x1F AND DUP3 ADD SWAP2 JUMPDEST POP POP POP POP POP DUP2 MSTORE POP POP SWAP1 POP PUSH0 PUSH20 0xFFFFFFFFFFFFFFFFFFFFFFFFFFFFFFFFFFFFFFFF AND DUP2 PUSH1 0x20 ADD MLOAD PUSH20 0xFFFFFFFFFFFFFFFFFFFFFFFFFFFFFFFFFFFFFFFF AND SUB PUSH2 0xDDE JUMPI DUP1 PUSH1 0x40 MLOAD DUP1 PUSH1 0x40 ADD PUSH1 0x40 MSTORE DUP1 PUSH1 0xF DUP2 MSTORE PUSH1 0x20 ADD PUSH32 0x4E6F20706F6C69637920666F756E640000000000000000000000000000000000 DUP2 MSTORE POP SWAP3 POP SWAP3 POP POP PUSH2 0xE91 JUMP JUMPDEST PUSH0 DUP1 SLOAD SWAP1 PUSH2 0x100 EXP SWAP1 DIV PUSH20 0xFFFFFFFFFFFFFFFFFFFFFFFFFFFFFFFFFFFFFFFF AND PUSH20 0xFFFFFFFFFFFFFFFFFFFFFFFFFFFFFFFFFFFFFFFF AND CALLER PUSH20 0xFFFFFFFFFFFFFFFFFFFFFFFFFFFFFFFFFFFFFFFF AND SUB PUSH2 0xE54 JUMPI DUP1 PUSH1 0x40 MLOAD DUP1 PUSH1 0x60 ADD PUSH1 0x40 MSTORE DUP1 PUSH1 0x31 DUP2 MSTORE PUSH1 0x20 ADD PUSH2 0x236A PUSH1 0x31 SWAP2 CODECOPY SWAP3 POP SWAP3 POP POP PUSH2 0xE91 JUMP JUMPDEST DUP1 PUSH1 0x40 MLOAD DUP1 PUSH1 0x40 ADD PUSH1 0x40 MSTORE DUP1 PUSH1 0x1D DUP2 MSTORE PUSH1 0x20 ADD PUSH32 0x506F6C69637920726574726965766564207375636365737366756C6C79000000 DUP2 MSTORE POP SWAP3 POP SWAP3 POP POP JUMPDEST SWAP1 SWAP2 JUMP JUMPDEST PUSH0 DUP1 SLOAD SWAP1 PUSH2 0x100 EXP SWAP1 DIV PUSH20 0xFFFFFFFFFFFFFFFFFFFFFFFFFFFFFFFFFFFFFFFF AND DUP2 JUMP JUMPDEST PUSH0 PUSH1 0x60 PUSH0 DUP1 SLOAD SWAP1 PUSH2 0x100 EXP SWAP1 DIV PUSH20 0xFFFFFFFFFFFFFFFFFFFFFFFFFFFFFFFFFFFFFFFF AND PUSH20 0xFFFFFFFFFFFFFFFFFFFFFFFFFFFFFFFFFFFFFFFF AND CALLER PUSH20 0xFFFFFFFFFFFFFFFFFFFFFFFFFFFFFFFFFFFFFFFF AND EQ PUSH2 0xF30 JUMPI PUSH0 PUSH1 0x40 MLOAD DUP1 PUSH1 0x60 ADD PUSH1 0x40 MSTORE DUP1 PUSH1 0x2C DUP2 MSTORE PUSH1 0x20 ADD PUSH2 0x2290 PUSH1 0x2C SWAP2 CODECOPY SWAP2 POP SWAP2 POP PUSH2 0x11AD JUMP JUMPDEST PUSH0 PUSH20 0xFFFFFFFFFFFFFFFFFFFFFFFFFFFFFFFFFFFFFFFF AND DUP4 PUSH20 0xFFFFFFFFFFFFFFFFFFFFFFFFFFFFFFFFFFFFFFFF AND SUB PUSH2 0xF86 JUMPI PUSH0 PUSH1 0x40 MLOAD DUP1 PUSH1 0x60 ADD PUSH1 0x40 MSTORE DUP1 PUSH1 0x26 DUP2 MSTORE PUSH1 0x20 ADD PUSH2 0x2249 PUSH1 0x26 SWAP2 CODECOPY SWAP2 POP SWAP2 POP PUSH2 0x11AD JUMP JUMPDEST PUSH0 PUSH1 0x1 PUSH0 DUP6 PUSH20 0xFFFFFFFFFFFFFFFFFFFFFFFFFFFFFFFFFFFFFFFF AND PUSH20 0xFFFFFFFFFFFFFFFFFFFFFFFFFFFFFFFFFFFFFFFF AND DUP2 MSTORE PUSH1 0x20 ADD SWAP1 DUP2 MSTORE PUSH1 0x20 ADD PUSH0 KECCAK256 SWAP1 POP PUSH0 PUSH20 0xFFFFFFFFFFFFFFFFFFFFFFFFFFFFFFFFFFFFFFFF AND DUP2 PUSH1 0x1 ADD PUSH0 SWAP1 SLOAD SWAP1 PUSH2 0x100 EXP SWAP1 DIV PUSH20 0xFFFFFFFFFFFFFFFFFFFFFFFFFFFFFFFFFFFFFFFF AND PUSH20 0xFFFFFFFFFFFFFFFFFFFFFFFFFFFFFFFFFFFFFFFF AND SUB PUSH2 0x105D JUMPI PUSH0 PUSH1 0x40 MLOAD DUP1 PUSH1 0x40 ADD PUSH1 0x40 MSTORE DUP1 PUSH1 0xF DUP2 MSTORE PUSH1 0x20 ADD PUSH32 0x4E6F20706F6C69637920666F756E640000000000000000000000000000000000 DUP2 MSTORE POP SWAP3 POP SWAP3 POP POP PUSH2 0x11AD JUMP JUMPDEST PUSH32 0x8A6496E4880174E791C7333606CC9F71E4C6FC52A65CCC1008E0DDD3DD8D1DA5 DUP2 PUSH1 0x6 ADD PUSH1 0x40 MLOAD PUSH2 0x108F SWAP2 SWAP1 PUSH2 0x21DA JUMP JUMPDEST PUSH1 0x40 MLOAD DUP1 SWAP2 SUB SWAP1 KECCAK256 EQ PUSH2 0x10DD JUMPI PUSH0 PUSH1 0x40 MLOAD DUP1 PUSH1 0x40 ADD PUSH1 0x40 MSTORE DUP1 PUSH1 0x19 DUP2 MSTORE PUSH1 0x20 ADD PUSH32 0x496E64656D6E69747920616C726561647920636C61696D656400000000000000 DUP2 MSTORE POP SWAP3 POP SWAP3 POP POP PUSH2 0x11AD JUMP JUMPDEST DUP4 PUSH20 0xFFFFFFFFFFFFFFFFFFFFFFFFFFFFFFFFFFFFFFFF AND PUSH2 0x8FC PUSH7 0x470DE4DF820000 SWAP1 DUP2 ISZERO MUL SWAP1 PUSH1 0x40 MLOAD PUSH0 PUSH1 0x40 MLOAD DUP1 DUP4 SUB DUP2 DUP6 DUP9 DUP9 CALL SWAP4 POP POP POP POP ISZERO DUP1 ISZERO PUSH2 0x1127 JUMPI RETURNDATASIZE PUSH0 DUP1 RETURNDATACOPY RETURNDATASIZE PUSH0 REVERT JUMPDEST POP PUSH1 0x40 MLOAD DUP1 PUSH1 0x40 ADD PUSH1 0x40 MSTORE DUP1 PUSH1 0x7 DUP2 MSTORE PUSH1 0x20 ADD PUSH32 0x636C61696D656400000000000000000000000000000000000000000000000000 DUP2 MSTORE POP DUP2 PUSH1 0x6 ADD SWAP1 DUP2 PUSH2 0x116E SWAP2 SWAP1 PUSH2 0x2079 JUMP JUMPDEST POP PUSH1 0x1 PUSH1 0x40 MLOAD DUP1 PUSH1 0x40 ADD PUSH1 0x40 MSTORE DUP1 PUSH1 0x1B DUP2 MSTORE PUSH1 0x20 ADD PUSH32 0x496E64656D6E697479207375636365737366756C6C7920706169640000000000 DUP2 MSTORE POP SWAP3 POP SWAP3 POP POP JUMPDEST SWAP2 POP SWAP2 JUMP JUMPDEST PUSH1 0x60 PUSH1 0x40 MLOAD DUP1 PUSH1 0xA0 ADD PUSH1 0x40 MSTORE DUP1 PUSH1 0x66 DUP2 MSTORE PUSH1 0x20 ADD PUSH2 0x23C1 PUSH1 0x66 SWAP2 CODECOPY SWAP1 POP SWAP1 JUMP JUMPDEST PUSH1 0x60 DUP1 PUSH0 DUP1 SLOAD SWAP1 PUSH2 0x100 EXP SWAP1 DIV PUSH20 0xFFFFFFFFFFFFFFFFFFFFFFFFFFFFFFFFFFFFFFFF AND PUSH20 0xFFFFFFFFFFFFFFFFFFFFFFFFFFFFFFFFFFFFFFFF AND CALLER PUSH20 0xFFFFFFFFFFFFFFFFFFFFFFFFFFFFFFFFFFFFFFFF AND EQ PUSH2 0x124D JUMPI PUSH1 0x60 DUP1 PUSH1 0x40 MLOAD DUP1 PUSH1 0x60 ADD PUSH1 0x40 MSTORE DUP1 PUSH1 0x21 DUP2 MSTORE PUSH1 0x20 ADD PUSH2 0x226F PUSH1 0x21 SWAP2 CODECOPY SWAP3 POP SWAP3 POP POP PUSH2 0x173B JUMP JUMPDEST PUSH0 PUSH1 0x2 DUP1 SLOAD SWAP1 POP PUSH8 0xFFFFFFFFFFFFFFFF DUP2 GT ISZERO PUSH2 0x126D JUMPI PUSH2 0x126C PUSH2 0x1E52 JUMP JUMPDEST JUMPDEST PUSH1 0x40 MLOAD SWAP1 DUP1 DUP3 MSTORE DUP1 PUSH1 0x20 MUL PUSH1 0x20 ADD DUP3 ADD PUSH1 0x40 MSTORE DUP1 ISZERO PUSH2 0x12A6 JUMPI DUP2 PUSH1 0x20 ADD JUMPDEST PUSH2 0x1293 PUSH2 0x1755 JUMP JUMPDEST DUP2 MSTORE PUSH1 0x20 ADD SWAP1 PUSH1 0x1 SWAP1 SUB SWAP1 DUP2 PUSH2 0x128B JUMPI SWAP1 POP JUMPDEST POP SWAP1 POP PUSH0 JUMPDEST PUSH1 0x2 DUP1 SLOAD SWAP1 POP DUP2 LT ISZERO PUSH2 0x171A JUMPI PUSH1 0x1 PUSH0 PUSH1 0x2 DUP4 DUP2 SLOAD DUP2 LT PUSH2 0x12CF JUMPI PUSH2 0x12CE PUSH2 0x1E25 JUMP JUMPDEST JUMPDEST SWAP1 PUSH0 MSTORE PUSH1 0x20 PUSH0 KECCAK256 ADD PUSH0 SWAP1 SLOAD SWAP1 PUSH2 0x100 EXP SWAP1 DIV PUSH20 0xFFFFFFFFFFFFFFFFFFFFFFFFFFFFFFFFFFFFFFFF AND PUSH20 0xFFFFFFFFFFFFFFFFFFFFFFFFFFFFFFFFFFFFFFFF AND PUSH20 0xFFFFFFFFFFFFFFFFFFFFFFFFFFFFFFFFFFFFFFFF AND DUP2 MSTORE PUSH1 0x20 ADD SWAP1 DUP2 MSTORE PUSH1 0x20 ADD PUSH0 KECCAK256 PUSH1 0x40 MLOAD DUP1 PUSH1 0xE0 ADD PUSH1 0x40 MSTORE SWAP1 DUP2 PUSH0 DUP3 ADD DUP1 SLOAD PUSH2 0x134A SWAP1 PUSH2 0x1EAC JUMP JUMPDEST DUP1 PUSH1 0x1F ADD PUSH1 0x20 DUP1 SWAP2 DIV MUL PUSH1 0x20 ADD PUSH1 0x40 MLOAD SWAP1 DUP2 ADD PUSH1 0x40 MSTORE DUP1 SWAP3 SWAP2 SWAP1 DUP2 DUP2 MSTORE PUSH1 0x20 ADD DUP3 DUP1 SLOAD PUSH2 0x1376 SWAP1 PUSH2 0x1EAC JUMP JUMPDEST DUP1 ISZERO PUSH2 0x13C1 JUMPI DUP1 PUSH1 0x1F LT PUSH2 0x1398 JUMPI PUSH2 0x100 DUP1 DUP4 SLOAD DIV MUL DUP4 MSTORE SWAP2 PUSH1 0x20 ADD SWAP2 PUSH2 0x13C1 JUMP JUMPDEST DUP3 ADD SWAP2 SWAP1 PUSH0 MSTORE PUSH1 0x20 PUSH0 KECCAK256 SWAP1 JUMPDEST DUP2 SLOAD DUP2 MSTORE SWAP1 PUSH1 0x1 ADD SWAP1 PUSH1 0x20 ADD DUP1 DUP4 GT PUSH2 0x13A4 JUMPI DUP3 SWAP1 SUB PUSH1 0x1F AND DUP3 ADD SWAP2 JUMPDEST POP POP POP POP POP DUP2 MSTORE PUSH1 0x20 ADD PUSH1 0x1 DUP3 ADD PUSH0 SWAP1 SLOAD SWAP1 PUSH2 0x100 EXP SWAP1 DIV PUSH20 0xFFFFFFFFFFFFFFFFFFFFFFFFFFFFFFFFFFFFFFFF AND PUSH20 0xFFFFFFFFFFFFFFFFFFFFFFFFFFFFFFFFFFFFFFFF AND PUSH20 0xFFFFFFFFFFFFFFFFFFFFFFFFFFFFFFFFFFFFFFFF AND DUP2 MSTORE PUSH1 0x20 ADD PUSH1 0x2 DUP3 ADD DUP1 SLOAD PUSH2 0x142F SWAP1 PUSH2 0x1EAC JUMP JUMPDEST DUP1 PUSH1 0x1F ADD PUSH1 0x20 DUP1 SWAP2 DIV MUL PUSH1 0x20 ADD PUSH1 0x40 MLOAD SWAP1 DUP2 ADD PUSH1 0x40 MSTORE DUP1 SWAP3 SWAP2 SWAP1 DUP2 DUP2 MSTORE PUSH1 0x20 ADD DUP3 DUP1 SLOAD PUSH2 0x145B SWAP1 PUSH2 0x1EAC JUMP JUMPDEST DUP1 ISZERO PUSH2 0x14A6 JUMPI DUP1 PUSH1 0x1F LT PUSH2 0x147D JUMPI PUSH2 0x100 DUP1 DUP4 SLOAD DIV MUL DUP4 MSTORE SWAP2 PUSH1 0x20 ADD SWAP2 PUSH2 0x14A6 JUMP JUMPDEST DUP3 ADD SWAP2 SWAP1 PUSH0 MSTORE PUSH1 0x20 PUSH0 KECCAK256 SWAP1 JUMPDEST DUP2 SLOAD DUP2 MSTORE SWAP1 PUSH1 0x1 ADD SWAP1 PUSH1 0x20 ADD DUP1 DUP4 GT PUSH2 0x1489 JUMPI DUP3 SWAP1 SUB PUSH1 0x1F AND DUP3 ADD SWAP2 JUMPDEST POP POP POP POP POP DUP2 MSTORE PUSH1 0x20 ADD PUSH1 0x3 DUP3 ADD DUP1 SLOAD PUSH2 0x14BF SWAP1 PUSH2 0x1EAC JUMP JUMPDEST DUP1 PUSH1 0x1F ADD PUSH1 0x20 DUP1 SWAP2 DIV MUL PUSH1 0x20 ADD PUSH1 0x40 MLOAD SWAP1 DUP2 ADD PUSH1 0x40 MSTORE DUP1 SWAP3 SWAP2 SWAP1 DUP2 DUP2 MSTORE PUSH1 0x20 ADD DUP3 DUP1 SLOAD PUSH2 0x14EB SWAP1 PUSH2 0x1EAC JUMP JUMPDEST DUP1 ISZERO PUSH2 0x1536 JUMPI DUP1 PUSH1 0x1F LT PUSH2 0x150D JUMPI PUSH2 0x100 DUP1 DUP4 SLOAD DIV MUL DUP4 MSTORE SWAP2 PUSH1 0x20 ADD SWAP2 PUSH2 0x1536 JUMP JUMPDEST DUP3 ADD SWAP2 SWAP1 PUSH0 MSTORE PUSH1 0x20 PUSH0 KECCAK256 SWAP1 JUMPDEST DUP2 SLOAD DUP2 MSTORE SWAP1 PUSH1 0x1 ADD SWAP1 PUSH1 0x20 ADD DUP1 DUP4 GT PUSH2 0x1519 JUMPI DUP3 SWAP1 SUB PUSH1 0x1F AND DUP3 ADD SWAP2 JUMPDEST POP POP POP POP POP DUP2 MSTORE PUSH1 0x20 ADD PUSH1 0x4 DUP3 ADD DUP1 SLOAD PUSH2 0x154F SWAP1 PUSH2 0x1EAC JUMP JUMPDEST DUP1 PUSH1 0x1F ADD PUSH1 0x20 DUP1 SWAP2 DIV MUL PUSH1 0x20 ADD PUSH1 0x40 MLOAD SWAP1 DUP2 ADD PUSH1 0x40 MSTORE DUP1 SWAP3 SWAP2 SWAP1 DUP2 DUP2 MSTORE PUSH1 0x20 ADD DUP3 DUP1 SLOAD PUSH2 0x157B SWAP1 PUSH2 0x1EAC JUMP JUMPDEST DUP1 ISZERO PUSH2 0x15C6 JUMPI DUP1 PUSH1 0x1F LT PUSH2 0x159D JUMPI PUSH2 0x100 DUP1 DUP4 SLOAD DIV MUL DUP4 MSTORE SWAP2 PUSH1 0x20 ADD SWAP2 PUSH2 0x15C6 JUMP JUMPDEST DUP3 ADD SWAP2 SWAP1 PUSH0 MSTORE PUSH1 0x20 PUSH0 KECCAK256 SWAP1 JUMPDEST DUP2 SLOAD DUP2 MSTORE SWAP1 PUSH1 0x1 ADD SWAP1 PUSH1 0x20 ADD DUP1 DUP4 GT PUSH2 0x15A9 JUMPI DUP3 SWAP1 SUB PUSH1 0x1F AND DUP3 ADD SWAP2 JUMPDEST POP POP POP POP POP DUP2 MSTORE PUSH1 0x20 ADD PUSH1 0x5 DUP3 ADD DUP1 SLOAD PUSH2 0x15DF SWAP1 PUSH2 0x1EAC JUMP JUMPDEST DUP1 PUSH1 0x1F ADD PUSH1 0x20 DUP1 SWAP2 DIV MUL PUSH1 0x20 ADD PUSH1 0x40 MLOAD SWAP1 DUP2 ADD PUSH1 0x40 MSTORE DUP1 SWAP3 SWAP2 SWAP1 DUP2 DUP2 MSTORE PUSH1 0x20 ADD DUP3 DUP1 SLOAD PUSH2 0x160B SWAP1 PUSH2 0x1EAC JUMP JUMPDEST DUP1 ISZERO PUSH2 0x1656 JUMPI DUP1 PUSH1 0x1F LT PUSH2 0x162D JUMPI PUSH2 0x100 DUP1 DUP4 SLOAD DIV MUL DUP4 MSTORE SWAP2 PUSH1 0x20 ADD SWAP2 PUSH2 0x1656 JUMP JUMPDEST DUP3 ADD SWAP2 SWAP1 PUSH0 MSTORE PUSH1 0x20 PUSH0 KECCAK256 SWAP1 JUMPDEST DUP2 SLOAD DUP2 MSTORE SWAP1 PUSH1 0x1 ADD SWAP1 PUSH1 0x20 ADD DUP1 DUP4 GT PUSH2 0x1639 JUMPI DUP3 SWAP1 SUB PUSH1 0x1F AND DUP3 ADD SWAP2 JUMPDEST POP POP POP POP POP DUP2 MSTORE PUSH1 0x20 ADD PUSH1 0x6 DUP3 ADD DUP1 SLOAD PUSH2 0x166F SWAP1 PUSH2 0x1EAC JUMP JUMPDEST DUP1 PUSH1 0x1F ADD PUSH1 0x20 DUP1 SWAP2 DIV MUL PUSH1 0x20 ADD PUSH1 0x40 MLOAD SWAP1 DUP2 ADD PUSH1 0x40 MSTORE DUP1 SWAP3 SWAP2 SWAP1 DUP2 DUP2 MSTORE PUSH1 0x20 ADD DUP3 DUP1 SLOAD PUSH2 0x169B SWAP1 PUSH2 0x1EAC JUMP JUMPDEST DUP1 ISZERO PUSH2 0x16E6 JUMPI DUP1 PUSH1 0x1F LT PUSH2 0x16BD JUMPI PUSH2 0x100 DUP1 DUP4 SLOAD DIV MUL DUP4 MSTORE SWAP2 PUSH1 0x20 ADD SWAP2 PUSH2 0x16E6 JUMP JUMPDEST DUP3 ADD SWAP2 SWAP1 PUSH0 MSTORE PUSH1 0x20 PUSH0 KECCAK256 SWAP1 JUMPDEST DUP2 SLOAD DUP2 MSTORE SWAP1 PUSH1 0x1 ADD SWAP1 PUSH1 0x20 ADD DUP1 DUP4 GT PUSH2 0x16C9 JUMPI DUP3 SWAP1 SUB PUSH1 0x1F AND DUP3 ADD SWAP2 JUMPDEST POP POP POP POP POP DUP2 MSTORE POP POP DUP3 DUP3 DUP2 MLOAD DUP2 LT PUSH2 0x1702 JUMPI PUSH2 0x1701 PUSH2 0x1E25 JUMP JUMPDEST JUMPDEST PUSH1 0x20 MUL PUSH1 0x20 ADD ADD DUP2 SWAP1 MSTORE POP DUP1 DUP1 PUSH1 0x1 ADD SWAP2 POP POP PUSH2 0x12AB JUMP JUMPDEST POP DUP1 PUSH1 0x40 MLOAD DUP1 PUSH1 0x60 ADD PUSH1 0x40 MSTORE DUP1 PUSH1 0x23 DUP2 MSTORE PUSH1 0x20 ADD PUSH2 0x22BC PUSH1 0x23 SWAP2 CODECOPY SWAP3 POP SWAP3 POP POP JUMPDEST SWAP1 SWAP2 JUMP JUMPDEST PUSH7 0x470DE4DF820000 DUP2 JUMP JUMPDEST PUSH7 0x2386F26FC10000 DUP2 JUMP JUMPDEST PUSH1 0x40 MLOAD DUP1 PUSH1 0xE0 ADD PUSH1 0x40 MSTORE DUP1 PUSH1 0x60 DUP2 MSTORE PUSH1 0x20 ADD PUSH0 PUSH20 0xFFFFFFFFFFFFFFFFFFFFFFFFFFFFFFFFFFFFFFFF AND DUP2 MSTORE PUSH1 0x20 ADD PUSH1 0x60 DUP2 MSTORE PUSH1 0x20 ADD PUSH1 0x60 DUP2 MSTORE PUSH1 0x20 ADD PUSH1 0x60 DUP2 MSTORE PUSH1 0x20 ADD PUSH1 0x60 DUP2 MSTORE PUSH1 0x20 ADD PUSH1 0x60 DUP2 MSTORE POP SWAP1 JUMP JUMPDEST PUSH0 DUP2 SWAP1 POP SWAP2 SWAP1 POP JUMP JUMPDEST PUSH2 0x17B9 DUP2 PUSH2 0x17A7 JUMP JUMPDEST DUP3 MSTORE POP POP JUMP JUMPDEST PUSH0 PUSH1 0x20 DUP3 ADD SWAP1 POP PUSH2 0x17D2 PUSH0 DUP4 ADD DUP5 PUSH2 0x17B0 JUMP JUMPDEST SWAP3 SWAP2 POP POP JUMP JUMPDEST PUSH0 DUP1 REVERT JUMPDEST PUSH0 DUP1 REVERT JUMPDEST PUSH0 DUP1 REVERT JUMPDEST PUSH0 DUP1 REVERT JUMPDEST PUSH0 DUP1 REVERT JUMPDEST PUSH0 DUP1 DUP4 PUSH1 0x1F DUP5 ADD SLT PUSH2 0x1801 JUMPI PUSH2 0x1800 PUSH2 0x17E0 JUMP JUMPDEST JUMPDEST DUP3 CALLDATALOAD SWAP1 POP PUSH8 0xFFFFFFFFFFFFFFFF DUP2 GT ISZERO PUSH2 0x181E JUMPI PUSH2 0x181D PUSH2 0x17E4 JUMP JUMPDEST JUMPDEST PUSH1 0x20 DUP4 ADD SWAP2 POP DUP4 PUSH1 0x1 DUP3 MUL DUP4 ADD GT ISZERO PUSH2 0x183A JUMPI PUSH2 0x1839 PUSH2 0x17E8 JUMP JUMPDEST JUMPDEST SWAP3 POP SWAP3 SWAP1 POP JUMP JUMPDEST PUSH0 DUP1 PUSH0 DUP1 PUSH0 DUP1 PUSH0 DUP1 PUSH0 DUP1 PUSH1 0xA0 DUP12 DUP14 SUB SLT ISZERO PUSH2 0x185F JUMPI PUSH2 0x185E PUSH2 0x17D8 JUMP JUMPDEST JUMPDEST PUSH0 DUP12 ADD CALLDATALOAD PUSH8 0xFFFFFFFFFFFFFFFF DUP2 GT ISZERO PUSH2 0x187C JUMPI PUSH2 0x187B PUSH2 0x17DC JUMP JUMPDEST JUMPDEST PUSH2 0x1888 DUP14 DUP3 DUP15 ADD PUSH2 0x17EC JUMP JUMPDEST SWAP11 POP SWAP11 POP POP PUSH1 0x20 DUP12 ADD CALLDATALOAD PUSH8 0xFFFFFFFFFFFFFFFF DUP2 GT ISZERO PUSH2 0x18AB JUMPI PUSH2 0x18AA PUSH2 0x17DC JUMP JUMPDEST JUMPDEST PUSH2 0x18B7 DUP14 DUP3 DUP15 ADD PUSH2 0x17EC JUMP JUMPDEST SWAP9 POP SWAP9 POP POP PUSH1 0x40 DUP12 ADD CALLDATALOAD PUSH8 0xFFFFFFFFFFFFFFFF DUP2 GT ISZERO PUSH2 0x18DA JUMPI PUSH2 0x18D9 PUSH2 0x17DC JUMP JUMPDEST JUMPDEST PUSH2 0x18E6 DUP14 DUP3 DUP15 ADD PUSH2 0x17EC JUMP JUMPDEST SWAP7 POP SWAP7 POP POP PUSH1 0x60 DUP12 ADD CALLDATALOAD PUSH8 0xFFFFFFFFFFFFFFFF DUP2 GT ISZERO PUSH2 0x1909 JUMPI PUSH2 0x1908 PUSH2 0x17DC JUMP JUMPDEST JUMPDEST PUSH2 0x1915 DUP14 DUP3 DUP15 ADD PUSH2 0x17EC JUMP JUMPDEST SWAP5 POP SWAP5 POP POP PUSH1 0x80 DUP12 ADD CALLDATALOAD PUSH8 0xFFFFFFFFFFFFFFFF DUP2 GT ISZERO PUSH2 0x1938 JUMPI PUSH2 0x1937 PUSH2 0x17DC JUMP JUMPDEST JUMPDEST PUSH2 0x1944 DUP14 DUP3 DUP15 ADD PUSH2 0x17EC JUMP JUMPDEST SWAP3 POP SWAP3 POP POP SWAP3 SWAP6 SWAP9 SWAP12 SWAP2 SWAP5 SWAP8 SWAP11 POP SWAP3 SWAP6 SWAP9 POP JUMP JUMPDEST PUSH0 DUP2 ISZERO ISZERO SWAP1 POP SWAP2 SWAP1 POP JUMP JUMPDEST PUSH2 0x196C DUP2 PUSH2 0x1958 JUMP JUMPDEST DUP3 MSTORE POP POP JUMP JUMPDEST PUSH0 DUP2 MLOAD SWAP1 POP SWAP2 SWAP1 POP JUMP JUMPDEST PUSH0 DUP3 DUP3 MSTORE PUSH1 0x20 DUP3 ADD SWAP1 POP SWAP3 SWAP2 POP POP JUMP JUMPDEST DUP3 DUP2 DUP4 MCOPY PUSH0 DUP4 DUP4 ADD MSTORE POP POP POP JUMP JUMPDEST PUSH0 PUSH1 0x1F NOT PUSH1 0x1F DUP4 ADD AND SWAP1 POP SWAP2 SWAP1 POP JUMP JUMPDEST PUSH0 PUSH2 0x19B4 DUP3 PUSH2 0x1972 JUMP JUMPDEST PUSH2 0x19BE DUP2 DUP6 PUSH2 0x197C JUMP JUMPDEST SWAP4 POP PUSH2 0x19CE DUP2 DUP6 PUSH1 0x20 DUP7 ADD PUSH2 0x198C JUMP JUMPDEST PUSH2 0x19D7 DUP2 PUSH2 0x199A JUMP JUMPDEST DUP5 ADD SWAP2 POP POP SWAP3 SWAP2 POP POP JUMP JUMPDEST PUSH0 PUSH1 0x40 DUP3 ADD SWAP1 POP PUSH2 0x19F5 PUSH0 DUP4 ADD DUP6 PUSH2 0x1963 JUMP JUMPDEST DUP2 DUP2 SUB PUSH1 0x20 DUP4 ADD MSTORE PUSH2 0x1A07 DUP2 DUP5 PUSH2 0x19AA JUMP JUMPDEST SWAP1 POP SWAP4 SWAP3 POP POP POP JUMP JUMPDEST PUSH0 DUP3 DUP3 MSTORE PUSH1 0x20 DUP3 ADD SWAP1 POP SWAP3 SWAP2 POP POP JUMP JUMPDEST PUSH0 PUSH2 0x1A2A DUP3 PUSH2 0x1972 JUMP JUMPDEST PUSH2 0x1A34 DUP2 DUP6 PUSH2 0x1A10 JUMP JUMPDEST SWAP4 POP PUSH2 0x1A44 DUP2 DUP6 PUSH1 0x20 DUP7 ADD PUSH2 0x198C JUMP JUMPDEST PUSH2 0x1A4D DUP2 PUSH2 0x199A JUMP JUMPDEST DUP5 ADD SWAP2 POP POP SWAP3 SWAP2 POP POP JUMP JUMPDEST PUSH0 PUSH20 0xFFFFFFFFFFFFFFFFFFFFFFFFFFFFFFFFFFFFFFFF DUP3 AND SWAP1 POP SWAP2 SWAP1 POP JUMP JUMPDEST PUSH0 PUSH2 0x1A81 DUP3 PUSH2 0x1A58 JUMP JUMPDEST SWAP1 POP SWAP2 SWAP1 POP JUMP JUMPDEST PUSH2 0x1A91 DUP2 PUSH2 0x1A77 JUMP JUMPDEST DUP3 MSTORE POP POP JUMP JUMPDEST PUSH0 PUSH1 0xE0 DUP4 ADD PUSH0 DUP4 ADD MLOAD DUP5 DUP3 SUB PUSH0 DUP7 ADD MSTORE PUSH2 0x1AB1 DUP3 DUP3 PUSH2 0x1A20 JUMP JUMPDEST SWAP2 POP POP PUSH1 0x20 DUP4 ADD MLOAD PUSH2 0x1AC6 PUSH1 0x20 DUP7 ADD DUP3 PUSH2 0x1A88 JUMP JUMPDEST POP PUSH1 0x40 DUP4 ADD MLOAD DUP5 DUP3 SUB PUSH1 0x40 DUP7 ADD MSTORE PUSH2 0x1ADE DUP3 DUP3 PUSH2 0x1A20 JUMP JUMPDEST SWAP2 POP POP PUSH1 0x60 DUP4 ADD MLOAD DUP5 DUP3 SUB PUSH1 0x60 DUP7 ADD MSTORE PUSH2 0x1AF8 DUP3 DUP3 PUSH2 0x1A20 JUMP JUMPDEST SWAP2 POP POP PUSH1 0x80 DUP4 ADD MLOAD DUP5 DUP3 SUB PUSH1 0x80 DUP7 ADD MSTORE PUSH2 0x1B12 DUP3 DUP3 PUSH2 0x1A20 JUMP JUMPDEST SWAP2 POP POP PUSH1 0xA0 DUP4 ADD MLOAD DUP5 DUP3 SUB PUSH1 0xA0 DUP7 ADD MSTORE PUSH2 0x1B2C DUP3 DUP3 PUSH2 0x1A20 JUMP JUMPDEST SWAP2 POP POP PUSH1 0xC0 DUP4 ADD MLOAD DUP5 DUP3 SUB PUSH1 0xC0 DUP7 ADD MSTORE PUSH2 0x1B46 DUP3 DUP3 PUSH2 0x1A20 JUMP JUMPDEST SWAP2 POP POP DUP1 SWAP2 POP POP SWAP3 SWAP2 POP POP JUMP JUMPDEST PUSH0 PUSH1 0x40 DUP3 ADD SWAP1 POP DUP2 DUP2 SUB PUSH0 DUP4 ADD MSTORE PUSH2 0x1B6B DUP2 DUP6 PUSH2 0x1A97 JUMP JUMPDEST SWAP1 POP DUP2 DUP2 SUB PUSH1 0x20 DUP4 ADD MSTORE PUSH2 0x1B7F DUP2 DUP5 PUSH2 0x19AA JUMP JUMPDEST SWAP1 POP SWAP4 SWAP3 POP POP POP JUMP JUMPDEST PUSH2 0x1B91 DUP2 PUSH2 0x1A77 JUMP JUMPDEST DUP3 MSTORE POP POP JUMP JUMPDEST PUSH0 PUSH1 0x20 DUP3 ADD SWAP1 POP PUSH2 0x1BAA PUSH0 DUP4 ADD DUP5 PUSH2 0x1B88 JUMP JUMPDEST SWAP3 SWAP2 POP POP JUMP JUMPDEST PUSH2 0x1BB9 DUP2 PUSH2 0x1A77 JUMP JUMPDEST DUP2 EQ PUSH2 0x1BC3 JUMPI PUSH0 DUP1 REVERT JUMPDEST POP JUMP JUMPDEST PUSH0 DUP2 CALLDATALOAD SWAP1 POP PUSH2 0x1BD4 DUP2 PUSH2 0x1BB0 JUMP JUMPDEST SWAP3 SWAP2 POP POP JUMP JUMPDEST PUSH0 PUSH1 0x20 DUP3 DUP5 SUB SLT ISZERO PUSH2 0x1BEF JUMPI PUSH2 0x1BEE PUSH2 0x17D8 JUMP JUMPDEST JUMPDEST PUSH0 PUSH2 0x1BFC DUP5 DUP3 DUP6 ADD PUSH2 0x1BC6 JUMP JUMPDEST SWAP2 POP POP SWAP3 SWAP2 POP POP JUMP JUMPDEST PUSH0 PUSH1 0x20 DUP3 ADD SWAP1 POP DUP2 DUP2 SUB PUSH0 DUP4 ADD MSTORE PUSH2 0x1C1D DUP2 DUP5 PUSH2 0x19AA JUMP JUMPDEST SWAP1 POP SWAP3 SWAP2 POP POP JUMP JUMPDEST PUSH0 DUP2 MLOAD SWAP1 POP SWAP2 SWAP1 POP JUMP JUMPDEST PUSH0 DUP3 DUP3 MSTORE PUSH1 0x20 DUP3 ADD SWAP1 POP SWAP3 SWAP2 POP POP JUMP JUMPDEST PUSH0 DUP2 SWAP1 POP PUSH1 0x20 DUP3 ADD SWAP1 POP SWAP2 SWAP1 POP JUMP JUMPDEST PUSH0 PUSH1 0xE0 DUP4 ADD PUSH0 DUP4 ADD MLOAD DUP5 DUP3 SUB PUSH0 DUP7 ADD MSTORE PUSH2 0x1C68 DUP3 DUP3 PUSH2 0x1A20 JUMP JUMPDEST SWAP2 POP POP PUSH1 0x20 DUP4 ADD MLOAD PUSH2 0x1C7D PUSH1 0x20 DUP7 ADD DUP3 PUSH2 0x1A88 JUMP JUMPDEST POP PUSH1 0x40 DUP4 ADD MLOAD DUP5 DUP3 SUB PUSH1 0x40 DUP7 ADD MSTORE PUSH2 0x1C95 DUP3 DUP3 PUSH2 0x1A20 JUMP JUMPDEST SWAP2 POP POP PUSH1 0x60 DUP4 ADD MLOAD DUP5 DUP3 SUB PUSH1 0x60 DUP7 ADD MSTORE PUSH2 0x1CAF DUP3 DUP3 PUSH2 0x1A20 JUMP JUMPDEST SWAP2 POP POP PUSH1 0x80 DUP4 ADD MLOAD DUP5 DUP3 SUB PUSH1 0x80 DUP7 ADD MSTORE PUSH2 0x1CC9 DUP3 DUP3 PUSH2 0x1A20 JUMP JUMPDEST SWAP2 POP POP PUSH1 0xA0 DUP4 ADD MLOAD DUP5 DUP3 SUB PUSH1 0xA0 DUP7 ADD MSTORE PUSH2 0x1CE3 DUP3 DUP3 PUSH2 0x1A20 JUMP JUMPDEST SWAP2 POP POP PUSH1 0xC0 DUP4 ADD MLOAD DUP5 DUP3 SUB PUSH1 0xC0 DUP7 ADD MSTORE PUSH2 0x1CFD DUP3 DUP3 PUSH2 0x1A20 JUMP JUMPDEST SWAP2 POP POP DUP1 SWAP2 POP POP SWAP3 SWAP2 POP POP JUMP JUMPDEST PUSH0 PUSH2 0x1D15 DUP4 DUP4 PUSH2 0x1C4E JUMP JUMPDEST SWAP1 POP SWAP3 SWAP2 POP POP JUMP JUMPDEST PUSH0 PUSH1 0x20 DUP3 ADD SWAP1 POP SWAP2 SWAP1 POP JUMP JUMPDEST PUSH0 PUSH2 0x1D33 DUP3 PUSH2 0x1C25 JUMP JUMPDEST PUSH2 0x1D3D DUP2 DUP6 PUSH2 0x1C2F JUMP JUMPDEST SWAP4 POP DUP4 PUSH1 0x20 DUP3 MUL DUP6 ADD PUSH2 0x1D4F DUP6 PUSH2 0x1C3F JUMP JUMPDEST DUP1 PUSH0 JUMPDEST DUP6 DUP2 LT ISZERO PUSH2 0x1D8A JUMPI DUP5 DUP5 SUB DUP10 MSTORE DUP2 MLOAD PUSH2 0x1D6B DUP6 DUP3 PUSH2 0x1D0A JUMP JUMPDEST SWAP5 POP PUSH2 0x1D76 DUP4 PUSH2 0x1D1D JUMP JUMPDEST SWAP3 POP PUSH1 0x20 DUP11 ADD SWAP10 POP POP PUSH1 0x1 DUP2 ADD SWAP1 POP PUSH2 0x1D52 JUMP JUMPDEST POP DUP3 SWAP8 POP DUP8 SWAP6 POP POP POP POP POP POP SWAP3 SWAP2 POP POP JUMP JUMPDEST PUSH0 PUSH1 0x40 DUP3 ADD SWAP1 POP DUP2 DUP2 SUB PUSH0 DUP4 ADD MSTORE PUSH2 0x1DB4 DUP2 DUP6 PUSH2 0x1D29 JUMP JUMPDEST SWAP1 POP DUP2 DUP2 SUB PUSH1 0x20 DUP4 ADD MSTORE PUSH2 0x1DC8 DUP2 DUP5 PUSH2 0x19AA JUMP JUMPDEST SWAP1 POP SWAP4 SWAP3 POP POP POP JUMP JUMPDEST PUSH0 DUP2 SWAP1 POP SWAP3 SWAP2 POP POP JUMP JUMPDEST DUP3 DUP2 DUP4 CALLDATACOPY PUSH0 DUP4 DUP4 ADD MSTORE POP POP POP JUMP JUMPDEST PUSH0 PUSH2 0x1DF4 DUP4 DUP6 PUSH2 0x1DD1 JUMP JUMPDEST SWAP4 POP PUSH2 0x1E01 DUP4 DUP6 DUP5 PUSH2 0x1DDB JUMP JUMPDEST DUP3 DUP5 ADD SWAP1 POP SWAP4 SWAP3 POP POP POP JUMP JUMPDEST PUSH0 PUSH2 0x1E19 DUP3 DUP5 DUP7 PUSH2 0x1DE9 JUMP JUMPDEST SWAP2 POP DUP2 SWAP1 POP SWAP4 SWAP3 POP POP POP JUMP JUMPDEST PUSH32 0x4E487B7100000000000000000000000000000000000000000000000000000000 PUSH0 MSTORE PUSH1 0x32 PUSH1 0x4 MSTORE PUSH1 0x24 PUSH0 REVERT JUMPDEST PUSH32 0x4E487B7100000000000000000000000000000000000000000000000000000000 PUSH0 MSTORE PUSH1 0x41 PUSH1 0x4 MSTORE PUSH1 0x24 PUSH0 REVERT JUMPDEST PUSH32 0x4E487B7100000000000000000000000000000000000000000000000000000000 PUSH0 MSTORE PUSH1 0x22 PUSH1 0x4 MSTORE PUSH1 0x24 PUSH0 REVERT JUMPDEST PUSH0 PUSH1 0x2 DUP3 DIV SWAP1 POP PUSH1 0x1 DUP3 AND DUP1 PUSH2 0x1EC3 JUMPI PUSH1 0x7F DUP3 AND SWAP2 POP JUMPDEST PUSH1 0x20 DUP3 LT DUP2 SUB PUSH2 0x1ED6 JUMPI PUSH2 0x1ED5 PUSH2 0x1E7F JUMP JUMPDEST JUMPDEST POP SWAP2 SWAP1 POP JUMP JUMPDEST PUSH0 DUP2 SWAP1 POP DUP2 PUSH0 MSTORE PUSH1 0x20 PUSH0 KECCAK256 SWAP1 POP SWAP2 SWAP1 POP JUMP JUMPDEST PUSH0 PUSH1 0x20 PUSH1 0x1F DUP4 ADD DIV SWAP1 POP SWAP2 SWAP1 POP JUMP JUMPDEST PUSH0 DUP3 DUP3 SHL SWAP1 POP SWAP3 SWAP2 POP POP JUMP JUMPDEST PUSH0 PUSH1 0x8 DUP4 MUL PUSH2 0x1F38 PUSH32 0xFFFFFFFFFFFFFFFFFFFFFFFFFFFFFFFFFFFFFFFFFFFFFFFFFFFFFFFFFFFFFFFF DUP3 PUSH2 0x1EFD JUMP JUMPDEST PUSH2 0x1F42 DUP7 DUP4 PUSH2 0x1EFD JUMP JUMPDEST SWAP6 POP DUP1 NOT DUP5 AND SWAP4 POP DUP1 DUP7 AND DUP5 OR SWAP3 POP POP POP SWAP4 SWAP3 POP POP POP JUMP JUMPDEST PUSH0 DUP2 SWAP1 POP SWAP2 SWAP1 POP JUMP JUMPDEST PUSH0 PUSH2 0x1F7D PUSH2 0x1F78 PUSH2 0x1F73 DUP5 PUSH2 0x17A7 JUMP JUMPDEST PUSH2 0x1F5A JUMP JUMPDEST PUSH2 0x17A7 JUMP JUMPDEST SWAP1 POP SWAP2 SWAP1 POP JUMP JUMPDEST PUSH0 DUP2 SWAP1 POP SWAP2 SWAP1 POP JUMP JUMPDEST PUSH2 0x1F96 DUP4 PUSH2 0x1F63 JUMP JUMPDEST PUSH2 0x1FAA PUSH2 0x1FA2 DUP3 PUSH2 0x1F84 JUMP JUMPDEST DUP5 DUP5 SLOAD PUSH2 0x1F09 JUMP JUMPDEST DUP3 SSTORE POP POP POP POP JUMP JUMPDEST PUSH0 SWAP1 JUMP JUMPDEST PUSH2 0x1FBE PUSH2 0x1FB2 JUMP JUMPDEST PUSH2 0x1FC9 DUP2 DUP5 DUP5 PUSH2 0x1F8D JUMP JUMPDEST POP POP POP JUMP JUMPDEST JUMPDEST DUP2 DUP2 LT ISZERO PUSH2 0x1FEC JUMPI PUSH2 0x1FE1 PUSH0 DUP3 PUSH2 0x1FB6 JUMP JUMPDEST PUSH1 0x1 DUP2 ADD SWAP1 POP PUSH2 0x1FCF JUMP JUMPDEST POP POP JUMP JUMPDEST PUSH1 0x1F DUP3 GT ISZERO PUSH2 0x2031 JUMPI PUSH2 0x2002 DUP2 PUSH2 0x1EDC JUMP JUMPDEST PUSH2 0x200B DUP5 PUSH2 0x1EEE JUMP JUMPDEST DUP2 ADD PUSH1 0x20 DUP6 LT ISZERO PUSH2 0x201A JUMPI DUP2 SWAP1 POP JUMPDEST PUSH2 0x202E PUSH2 0x2026 DUP6 PUSH2 0x1EEE JUMP JUMPDEST DUP4 ADD DUP3 PUSH2 0x1FCE JUMP JUMPDEST POP POP JUMPDEST POP POP POP JUMP JUMPDEST PUSH0 DUP3 DUP3 SHR SWAP1 POP SWAP3 SWAP2 POP POP JUMP JUMPDEST PUSH0 PUSH2 0x2051 PUSH0 NOT DUP5 PUSH1 0x8 MUL PUSH2 0x2036 JUMP JUMPDEST NOT DUP1 DUP4 AND SWAP2 POP POP SWAP3 SWAP2 POP POP JUMP JUMPDEST PUSH0 PUSH2 0x2069 DUP4 DUP4 PUSH2 0x2042 JUMP JUMPDEST SWAP2 POP DUP3 PUSH1 0x2 MUL DUP3 OR SWAP1 POP SWAP3 SWAP2 POP POP JUMP JUMPDEST PUSH2 0x2082 DUP3 PUSH2 0x1972 JUMP JUMPDEST PUSH8 0xFFFFFFFFFFFFFFFF DUP2 GT ISZERO PUSH2 0x209B JUMPI PUSH2 0x209A PUSH2 0x1E52 JUMP JUMPDEST JUMPDEST PUSH2 0x20A5 DUP3 SLOAD PUSH2 0x1EAC JUMP JUMPDEST PUSH2 0x20B0 DUP3 DUP3 DUP6 PUSH2 0x1FF0 JUMP JUMPDEST PUSH0 PUSH1 0x20 SWAP1 POP PUSH1 0x1F DUP4 GT PUSH1 0x1 DUP2 EQ PUSH2 0x20E1 JUMPI PUSH0 DUP5 ISZERO PUSH2 0x20CF JUMPI DUP3 DUP8 ADD MLOAD SWAP1 POP JUMPDEST PUSH2 0x20D9 DUP6 DUP3 PUSH2 0x205E JUMP JUMPDEST DUP7 SSTORE POP PUSH2 0x2140 JUMP JUMPDEST PUSH1 0x1F NOT DUP5 AND PUSH2 0x20EF DUP7 PUSH2 0x1EDC JUMP JUMPDEST PUSH0 JUMPDEST DUP3 DUP2 LT ISZERO PUSH2 0x2116 JUMPI DUP5 DUP10 ADD MLOAD DUP3 SSTORE PUSH1 0x1 DUP3 ADD SWAP2 POP PUSH1 0x20 DUP6 ADD SWAP5 POP PUSH1 0x20 DUP2 ADD SWAP1 POP PUSH2 0x20F1 JUMP JUMPDEST DUP7 DUP4 LT ISZERO PUSH2 0x2133 JUMPI DUP5 DUP10 ADD MLOAD PUSH2 0x212F PUSH1 0x1F DUP10 AND DUP3 PUSH2 0x2042 JUMP JUMPDEST DUP4 SSTORE POP JUMPDEST PUSH1 0x1 PUSH1 0x2 DUP9 MUL ADD DUP9 SSTORE POP POP POP JUMPDEST POP POP POP POP POP POP JUMP JUMPDEST PUSH0 DUP2 SWAP1 POP DUP2 PUSH0 MSTORE PUSH1 0x20 PUSH0 KECCAK256 SWAP1 POP SWAP2 SWAP1 POP JUMP JUMPDEST PUSH0 DUP2 SLOAD PUSH2 0x2166 DUP2 PUSH2 0x1EAC JUMP JUMPDEST PUSH2 0x2170 DUP2 DUP7 PUSH2 0x1DD1 JUMP JUMPDEST SWAP5 POP PUSH1 0x1 DUP3 AND PUSH0 DUP2 EQ PUSH2 0x218A JUMPI PUSH1 0x1 DUP2 EQ PUSH2 0x219F JUMPI PUSH2 0x21D1 JUMP JUMPDEST PUSH1 0xFF NOT DUP4 AND DUP7 MSTORE DUP2 ISZERO ISZERO DUP3 MUL DUP7 ADD SWAP4 POP PUSH2 0x21D1 JUMP JUMPDEST PUSH2 0x21A8 DUP6 PUSH2 0x2148 JUMP JUMPDEST PUSH0 JUMPDEST DUP4 DUP2 LT ISZERO PUSH2 0x21C9 JUMPI DUP2 SLOAD DUP2 DUP10 ADD MSTORE PUSH1 0x1 DUP3 ADD SWAP2 POP PUSH1 0x20 DUP2 ADD SWAP1 POP PUSH2 0x21AA JUMP JUMPDEST DUP4 DUP9 ADD SWAP6 POP POP POP JUMPDEST POP POP POP SWAP3 SWAP2 POP POP JUMP JUMPDEST PUSH0 PUSH2 0x21E5 DUP3 DUP5 PUSH2 0x215A JUMP JUMPDEST SWAP2 POP DUP2 SWAP1 POP SWAP3 SWAP2 POP POP JUMP INVALID BLOBHASH PUSH15 0x76616C696420666C69676874206E75 PUSH14 0x6265723A204D7573742062652032 KECCAK256 PUSH21 0x6F20362063686172616374657273496E76616C6964 KECCAK256 PUSH15 0x616D653A204D757374206265206120 PUSH15 0x6F6E2D656D70747920737472696E67 BLOBHASH PUSH15 0x76616C696420616464726573733A20 PUSH27 0x65726F20616464726573732070726F766964656443616C6C657220 PUSH14 0x75737420626520696E737572616E PUSH4 0x65207072 PUSH16 0x76696465724F6E6C7920696E73757261 PUSH15 0x63652070726F76696465722063616E KECCAK256 PUSH10 0x6E697469617465207061 PUSH26 0x6D656E74416C6C20706F6C696369657320726574726965766564 KECCAK256 PUSH20 0x75636365737366756C6C79446570617274757265 KECCAK256 PUSH2 0x6E64 KECCAK256 PUSH5 0x657374696E PUSH2 0x7469 PUSH16 0x6E206369746965732063616E6E6F7420 PUSH3 0x652074 PUSH9 0x652073616D65496E73 PUSH22 0x72616E63652050726F76696465723A20506F6C696379 KECCAK256 PUSH20 0x75636365737366756C6C79207075726368617365 PUSH5 0x496E76616C PUSH10 0x64206461746520666F72 PUSH14 0x61743A204D757374206265205959 MSIZE MSIZE 0x2D 0x4D 0x4D 0x2D PREVRANDAO PREVRANDAO BLOBHASH PUSH15 0x737572616E63652050726F76696465 PUSH19 0x3A20506F6C6963792072657472696576656420 PUSH20 0x75636365737366756C6C79506F6C69637920616C PUSH19 0x656164792065786973747320666F7220746869 PUSH20 0x20616464726573735072656D69756D3A20302E30 BALANCE KECCAK256 GASLIMIT SLOAD BASEFEE 0x2C KECCAK256 BLOBHASH PUSH15 0x64656D6E6974793A20302E30322045 SLOAD BASEFEE 0x2C KECCAK256 NUMBER PUSH16 0x7665726167653A2045787472656D6520 JUMPI PUSH6 0x617468657220 PREVRANDAO PUSH6 0x6C6179732028 PUSH6 0x2E672E2C2068 PUSH2 0x696C 0x2C KECCAK256 PUSH7 0x6C6F6F64696E67 0x2C KECCAK256 PUSH6 0x74632E292E49 PUSH15 0x73756666696369656E742066756E64 PUSH20 0x3A204D696E696D756D20302E3031204554482072 PUSH6 0x717569726564 LOG2 PUSH5 0x6970667358 0x22 SLT KECCAK256 0xEC PUSH19 0xD6D64389574DC126BEB4A71FC99CAAB4049BEC 0xAC 0xAF 0xD0 0xB5 MSIZE 0xB2 SGT PREVRANDAO 0xD5 JUMP XOR PUSH5 0x736F6C6343 STOP ADDMOD BYTE STOP CALLER "
				},
				"gasEstimates": {
					"creation": {
						"codeDepositCost": "1870600",
						"executionCost": "infinite",
						"totalCost": "infinite"
					},
					"external": {
						"INDEMNITY()": "391",
						"PREMIUM()": "413",
						"insuranceProvider()": "2572",
						"payIndemnity(address)": "infinite",
						"purchasePolicy(string,string,string,string,string)": "infinite",
						"viewAllPolicies()": "infinite",
						"viewAvailablePolicy()": "infinite",
						"viewBalance()": "2938",
						"viewMyPolicy()": "infinite"
					}
				},
				"methodIdentifiers": {
					"INDEMNITY()": "cd95e777",
					"PREMIUM()": "ea3696ca",
					"insuranceProvider()": "9955f67c",
					"payIndemnity(address)": "a4cd98e6",
					"purchasePolicy(string,string,string,string,string)": "5d02ed12",
					"viewAllPolicies()": "c160693d",
					"viewAvailablePolicy()": "b6fc3b2a",
					"viewBalance()": "3ff1e05b",
					"viewMyPolicy()": "963163bd"
				}
			},
			"storageLayout": {
				"storage": [
					{
						"astId": 24,
						"contract": "FlightInsurance3.sol:FlightInsurance3",
						"label": "insuranceProvider",
						"offset": 0,
						"slot": "0",
						"type": "t_address"
					},
					{
						"astId": 29,
						"contract": "FlightInsurance3.sol:FlightInsurance3",
						"label": "policiesByAddress",
						"offset": 0,
						"slot": "1",
						"type": "t_mapping(t_address,t_struct(InsurancePolicy)16_storage)"
					},
					{
						"astId": 32,
						"contract": "FlightInsurance3.sol:FlightInsurance3",
						"label": "insuredPassengerList",
						"offset": 0,
						"slot": "2",
						"type": "t_array(t_address)dyn_storage"
					}
				],
				"types": {
					"t_address": {
						"encoding": "inplace",
						"label": "address",
						"numberOfBytes": "20"
					},
					"t_array(t_address)dyn_storage": {
						"base": "t_address",
						"encoding": "dynamic_array",
						"label": "address[]",
						"numberOfBytes": "32"
					},
					"t_mapping(t_address,t_struct(InsurancePolicy)16_storage)": {
						"encoding": "mapping",
						"key": "t_address",
						"label": "mapping(address => struct FlightInsurance3.InsurancePolicy)",
						"numberOfBytes": "32",
						"value": "t_struct(InsurancePolicy)16_storage"
					},
					"t_string_storage": {
						"encoding": "bytes",
						"label": "string",
						"numberOfBytes": "32"
					},
					"t_struct(InsurancePolicy)16_storage": {
						"encoding": "inplace",
						"label": "struct FlightInsurance3.InsurancePolicy",
						"members": [
							{
								"astId": 3,
								"contract": "FlightInsurance3.sol:FlightInsurance3",
								"label": "passengerName",
								"offset": 0,
								"slot": "0",
								"type": "t_string_storage"
							},
							{
								"astId": 5,
								"contract": "FlightInsurance3.sol:FlightInsurance3",
								"label": "passengerAddress",
								"offset": 0,
								"slot": "1",
								"type": "t_address"
							},
							{
								"astId": 7,
								"contract": "FlightInsurance3.sol:FlightInsurance3",
								"label": "flightNumber",
								"offset": 0,
								"slot": "2",
								"type": "t_string_storage"
							},
							{
								"astId": 9,
								"contract": "FlightInsurance3.sol:FlightInsurance3",
								"label": "flightDate",
								"offset": 0,
								"slot": "3",
								"type": "t_string_storage"
							},
							{
								"astId": 11,
								"contract": "FlightInsurance3.sol:FlightInsurance3",
								"label": "departureCity",
								"offset": 0,
								"slot": "4",
								"type": "t_string_storage"
							},
							{
								"astId": 13,
								"contract": "FlightInsurance3.sol:FlightInsurance3",
								"label": "destinationCity",
								"offset": 0,
								"slot": "5",
								"type": "t_string_storage"
							},
							{
								"astId": 15,
								"contract": "FlightInsurance3.sol:FlightInsurance3",
								"label": "policyStatus",
								"offset": 0,
								"slot": "6",
								"type": "t_string_storage"
							}
						],
						"numberOfBytes": "224"
					}
				}
			},
			"userdoc": {
				"kind": "user",
				"methods": {},
				"version": 1
			}
		}
	}
}