{
	"FlightInsurance.sol": {
		"FlightInsurance1": {
			"abi": [
				{
					"inputs": [],
					"stateMutability": "nonpayable",
					"type": "constructor"
				},
				{
					"inputs": [],
					"name": "insuranceProvider",
					"outputs": [
						{
							"internalType": "address",
							"name": "",
							"type": "address"
						}
					],
					"stateMutability": "view",
					"type": "function"
				},
				{
					"inputs": [
						{
							"internalType": "string",
							"name": "name",
							"type": "string"
						},
						{
							"internalType": "string",
							"name": "flightNumber",
							"type": "string"
						},
						{
							"internalType": "string",
							"name": "flightDate",
							"type": "string"
						},
						{
							"internalType": "string",
							"name": "departureCity",
							"type": "string"
						},
						{
							"internalType": "string",
							"name": "destinationCity",
							"type": "string"
						}
					],
					"name": "purchasePolicy",
					"outputs": [],
					"stateMutability": "payable",
					"type": "function"
				},
				{
					"inputs": [],
					"name": "viewAllPolicies",
					"outputs": [
						{
							"components": [
								{
									"internalType": "string",
									"name": "passengerName",
									"type": "string"
								},
								{
									"internalType": "address",
									"name": "passengerAddress",
									"type": "address"
								},
								{
									"internalType": "string",
									"name": "flightNumber",
									"type": "string"
								},
								{
									"internalType": "string",
									"name": "flightDate",
									"type": "string"
								},
								{
									"internalType": "string",
									"name": "departureCity",
									"type": "string"
								},
								{
									"internalType": "string",
									"name": "destinationCity",
									"type": "string"
								},
								{
									"internalType": "string",
									"name": "status",
									"type": "string"
								}
							],
							"internalType": "struct FlightInsurance1.Policy[]",
							"name": "",
							"type": "tuple[]"
						}
					],
					"stateMutability": "view",
					"type": "function"
				},
				{
					"inputs": [],
					"name": "viewAvailablePolicy",
					"outputs": [
						{
							"internalType": "string",
							"name": "",
							"type": "string"
						}
					],
					"stateMutability": "pure",
					"type": "function"
				},
				{
					"inputs": [],
					"name": "viewMyPolicy",
					"outputs": [
						{
							"components": [
								{
									"internalType": "string",
									"name": "passengerName",
									"type": "string"
								},
								{
									"internalType": "address",
									"name": "passengerAddress",
									"type": "address"
								},
								{
									"internalType": "string",
									"name": "flightNumber",
									"type": "string"
								},
								{
									"internalType": "string",
									"name": "flightDate",
									"type": "string"
								},
								{
									"internalType": "string",
									"name": "departureCity",
									"type": "string"
								},
								{
									"internalType": "string",
									"name": "destinationCity",
									"type": "string"
								},
								{
									"internalType": "string",
									"name": "status",
									"type": "string"
								}
							],
							"internalType": "struct FlightInsurance1.Policy",
							"name": "",
							"type": "tuple"
						}
					],
					"stateMutability": "view",
					"type": "function"
				}
			],
			"devdoc": {
				"kind": "dev",
				"methods": {},
				"version": 1
			},
			"evm": {
				"assembly": "    /* \"FlightInsurance.sol\":57:2191  contract FlightInsurance1 {... */\n  mstore(0x40, 0x80)\n    /* \"FlightInsurance.sol\":128:189  constructor() {... */\n  callvalue\n  dup1\n  iszero\n  tag_1\n  jumpi\n  0x00\n  dup1\n  revert\ntag_1:\n  pop\n    /* \"FlightInsurance.sol\":172:182  msg.sender */\n  caller\n    /* \"FlightInsurance.sol\":152:169  insuranceProvider */\n  0x00\n  dup1\n    /* \"FlightInsurance.sol\":152:182  insuranceProvider = msg.sender */\n  0x0100\n  exp\n  dup2\n  sload\n  dup2\n  0xffffffffffffffffffffffffffffffffffffffff\n  mul\n  not\n  and\n  swap1\n  dup4\n  0xffffffffffffffffffffffffffffffffffffffff\n  and\n  mul\n  or\n  swap1\n  sstore\n  pop\n    /* \"FlightInsurance.sol\":57:2191  contract FlightInsurance1 {... */\n  dataSize(sub_0)\n  dup1\n  dataOffset(sub_0)\n  0x00\n  codecopy\n  0x00\n  return\nstop\n\nsub_0: assembly {\n        /* \"FlightInsurance.sol\":57:2191  contract FlightInsurance1 {... */\n      mstore(0x40, 0x80)\n      jumpi(tag_1, lt(calldatasize, 0x04))\n      shr(0xe0, calldataload(0x00))\n      dup1\n      0x5d02ed12\n      eq\n      tag_2\n      jumpi\n      dup1\n      0x963163bd\n      eq\n      tag_3\n      jumpi\n      dup1\n      0x9955f67c\n      eq\n      tag_4\n      jumpi\n      dup1\n      0xb6fc3b2a\n      eq\n      tag_5\n      jumpi\n      dup1\n      0xc160693d\n      eq\n      tag_6\n      jumpi\n    tag_1:\n      0x00\n      dup1\n      revert\n        /* \"FlightInsurance.sol\":853:1674  function purchasePolicy(... */\n    tag_2:\n      tag_7\n      0x04\n      dup1\n      calldatasize\n      sub\n      dup2\n      add\n      swap1\n      tag_8\n      swap2\n      swap1\n      tag_9\n      jump\t// in\n    tag_8:\n      tag_10\n      jump\t// in\n    tag_7:\n      stop\n        /* \"FlightInsurance.sol\":1680:1874  function viewMyPolicy() public view returns (Policy memory) {... */\n    tag_3:\n      callvalue\n      dup1\n      iszero\n      tag_11\n      jumpi\n      0x00\n      dup1\n      revert\n    tag_11:\n      pop\n      tag_12\n      tag_13\n      jump\t// in\n    tag_12:\n      mload(0x40)\n      tag_14\n      swap2\n      swap1\n      tag_15\n      jump\t// in\n    tag_14:\n      mload(0x40)\n      dup1\n      swap2\n      sub\n      swap1\n      return\n        /* \"FlightInsurance.sol\":89:121  address public insuranceProvider */\n    tag_4:\n      callvalue\n      dup1\n      iszero\n      tag_16\n      jumpi\n      0x00\n      dup1\n      revert\n    tag_16:\n      pop\n      tag_17\n      tag_18\n      jump\t// in\n    tag_17:\n      mload(0x40)\n      tag_19\n      swap2\n      swap1\n      tag_20\n      jump\t// in\n    tag_19:\n      mload(0x40)\n      dup1\n      swap2\n      sub\n      swap1\n      return\n        /* \"FlightInsurance.sol\":689:847  function viewAvailablePolicy() public pure returns (string memory) {... */\n    tag_5:\n      callvalue\n      dup1\n      iszero\n      tag_21\n      jumpi\n      0x00\n      dup1\n      revert\n    tag_21:\n      pop\n      tag_22\n      tag_23\n      jump\t// in\n    tag_22:\n      mload(0x40)\n      tag_24\n      swap2\n      swap1\n      tag_25\n      jump\t// in\n    tag_24:\n      mload(0x40)\n      dup1\n      swap2\n      sub\n      swap1\n      return\n        /* \"FlightInsurance.sol\":1880:2189  function viewAllPolicies() public view onlyInsuranceProvider returns (Policy[] memory) {... */\n    tag_6:\n      callvalue\n      dup1\n      iszero\n      tag_26\n      jumpi\n      0x00\n      dup1\n      revert\n    tag_26:\n      pop\n      tag_27\n      tag_28\n      jump\t// in\n    tag_27:\n      mload(0x40)\n      tag_29\n      swap2\n      swap1\n      tag_30\n      jump\t// in\n    tag_29:\n      mload(0x40)\n      dup1\n      swap2\n      sub\n      swap1\n      return\n        /* \"FlightInsurance.sol\":853:1674  function purchasePolicy(... */\n    tag_10:\n        /* \"FlightInsurance.sol\":1103:1113  0.01 ether */\n      0x2386f26fc10000\n        /* \"FlightInsurance.sol\":1090:1099  msg.value */\n      callvalue\n        /* \"FlightInsurance.sol\":1090:1113  msg.value == 0.01 ether */\n      eq\n        /* \"FlightInsurance.sol\":1082:1146  require(msg.value == 0.01 ether, \"Must pay exactly 0.01 Ether.\") */\n      tag_32\n      jumpi\n      mload(0x40)\n      0x08c379a000000000000000000000000000000000000000000000000000000000\n      dup2\n      mstore\n      0x04\n      add\n      tag_33\n      swap1\n      tag_34\n      jump\t// in\n    tag_33:\n      mload(0x40)\n      dup1\n      swap2\n      sub\n      swap1\n      revert\n    tag_32:\n        /* \"FlightInsurance.sol\":1213:1214  0 */\n      0x00\n        /* \"FlightInsurance.sol\":1164:1215  policies[msg.sender].passengerAddress == address(0) */\n      0xffffffffffffffffffffffffffffffffffffffff\n      and\n        /* \"FlightInsurance.sol\":1164:1172  policies */\n      0x01\n        /* \"FlightInsurance.sol\":1164:1184  policies[msg.sender] */\n      0x00\n        /* \"FlightInsurance.sol\":1173:1183  msg.sender */\n      caller\n        /* \"FlightInsurance.sol\":1164:1184  policies[msg.sender] */\n      0xffffffffffffffffffffffffffffffffffffffff\n      and\n      0xffffffffffffffffffffffffffffffffffffffff\n      and\n      dup2\n      mstore\n      0x20\n      add\n      swap1\n      dup2\n      mstore\n      0x20\n      add\n      0x00\n      keccak256\n        /* \"FlightInsurance.sol\":1164:1201  policies[msg.sender].passengerAddress */\n      0x01\n      add\n      0x00\n      swap1\n      sload\n      swap1\n      0x0100\n      exp\n      swap1\n      div\n      0xffffffffffffffffffffffffffffffffffffffff\n      and\n        /* \"FlightInsurance.sol\":1164:1215  policies[msg.sender].passengerAddress == address(0) */\n      0xffffffffffffffffffffffffffffffffffffffff\n      and\n      eq\n        /* \"FlightInsurance.sol\":1156:1242  require(policies[msg.sender].passengerAddress == address(0), \"Policy already exists.\") */\n      tag_35\n      jumpi\n      mload(0x40)\n      0x08c379a000000000000000000000000000000000000000000000000000000000\n      dup2\n      mstore\n      0x04\n      add\n      tag_36\n      swap1\n      tag_37\n      jump\t// in\n    tag_36:\n      mload(0x40)\n      dup1\n      swap2\n      sub\n      swap1\n      revert\n    tag_35:\n        /* \"FlightInsurance.sol\":1276:1566  Policy({... */\n      mload(0x40)\n      dup1\n      0xe0\n      add\n      0x40\n      mstore\n      dup1\n        /* \"FlightInsurance.sol\":1312:1316  name */\n      dup7\n        /* \"FlightInsurance.sol\":1276:1566  Policy({... */\n      dup2\n      mstore\n      0x20\n      add\n        /* \"FlightInsurance.sol\":1348:1358  msg.sender */\n      caller\n        /* \"FlightInsurance.sol\":1276:1566  Policy({... */\n      0xffffffffffffffffffffffffffffffffffffffff\n      and\n      dup2\n      mstore\n      0x20\n      add\n        /* \"FlightInsurance.sol\":1386:1398  flightNumber */\n      dup6\n        /* \"FlightInsurance.sol\":1276:1566  Policy({... */\n      dup2\n      mstore\n      0x20\n      add\n        /* \"FlightInsurance.sol\":1424:1434  flightDate */\n      dup5\n        /* \"FlightInsurance.sol\":1276:1566  Policy({... */\n      dup2\n      mstore\n      0x20\n      add\n        /* \"FlightInsurance.sol\":1463:1476  departureCity */\n      dup4\n        /* \"FlightInsurance.sol\":1276:1566  Policy({... */\n      dup2\n      mstore\n      0x20\n      add\n        /* \"FlightInsurance.sol\":1507:1522  destinationCity */\n      dup3\n        /* \"FlightInsurance.sol\":1276:1566  Policy({... */\n      dup2\n      mstore\n      0x20\n      add\n      mload(0x40)\n      dup1\n      0x40\n      add\n      0x40\n      mstore\n      dup1\n      0x09\n      dup2\n      mstore\n      0x20\n      add\n      0x7075726368617365640000000000000000000000000000000000000000000000\n      dup2\n      mstore\n      pop\n      dup2\n      mstore\n      pop\n        /* \"FlightInsurance.sol\":1253:1261  policies */\n      0x01\n        /* \"FlightInsurance.sol\":1253:1273  policies[msg.sender] */\n      0x00\n        /* \"FlightInsurance.sol\":1262:1272  msg.sender */\n      caller\n        /* \"FlightInsurance.sol\":1253:1273  policies[msg.sender] */\n      0xffffffffffffffffffffffffffffffffffffffff\n      and\n      0xffffffffffffffffffffffffffffffffffffffff\n      and\n      dup2\n      mstore\n      0x20\n      add\n      swap1\n      dup2\n      mstore\n      0x20\n      add\n      0x00\n      keccak256\n        /* \"FlightInsurance.sol\":1253:1566  policies[msg.sender] = Policy({... */\n      0x00\n      dup3\n      add\n      mload\n      dup2\n      0x00\n      add\n      swap1\n      dup2\n      tag_38\n      swap2\n      swap1\n      tag_39\n      jump\t// in\n    tag_38:\n      pop\n      0x20\n      dup3\n      add\n      mload\n      dup2\n      0x01\n      add\n      exp(0x0100, 0x00)\n      dup2\n      sload\n      dup2\n      0xffffffffffffffffffffffffffffffffffffffff\n      mul\n      not\n      and\n      swap1\n      dup4\n      0xffffffffffffffffffffffffffffffffffffffff\n      and\n      mul\n      or\n      swap1\n      sstore\n      pop\n      0x40\n      dup3\n      add\n      mload\n      dup2\n      0x02\n      add\n      swap1\n      dup2\n      tag_40\n      swap2\n      swap1\n      tag_39\n      jump\t// in\n    tag_40:\n      pop\n      0x60\n      dup3\n      add\n      mload\n      dup2\n      0x03\n      add\n      swap1\n      dup2\n      tag_41\n      swap2\n      swap1\n      tag_39\n      jump\t// in\n    tag_41:\n      pop\n      0x80\n      dup3\n      add\n      mload\n      dup2\n      0x04\n      add\n      swap1\n      dup2\n      tag_42\n      swap2\n      swap1\n      tag_39\n      jump\t// in\n    tag_42:\n      pop\n      0xa0\n      dup3\n      add\n      mload\n      dup2\n      0x05\n      add\n      swap1\n      dup2\n      tag_43\n      swap2\n      swap1\n      tag_39\n      jump\t// in\n    tag_43:\n      pop\n      0xc0\n      dup3\n      add\n      mload\n      dup2\n      0x06\n      add\n      swap1\n      dup2\n      tag_44\n      swap2\n      swap1\n      tag_39\n      jump\t// in\n    tag_44:\n      pop\n      swap1\n      pop\n      pop\n        /* \"FlightInsurance.sol\":1577:1594  insuredPassengers */\n      0x02\n        /* \"FlightInsurance.sol\":1600:1610  msg.sender */\n      caller\n        /* \"FlightInsurance.sol\":1577:1611  insuredPassengers.push(msg.sender) */\n      swap1\n      dup1\n      0x01\n      dup2\n      sload\n      add\n      dup1\n      dup3\n      sstore\n      dup1\n      swap2\n      pop\n      pop\n      0x01\n      swap1\n      sub\n      swap1\n      0x00\n      mstore\n      keccak256(0x00, 0x20)\n      add\n      0x00\n      swap1\n      swap2\n      swap1\n      swap2\n      swap1\n      swap2\n      0x0100\n      exp\n      dup2\n      sload\n      dup2\n      0xffffffffffffffffffffffffffffffffffffffff\n      mul\n      not\n      and\n      swap1\n      dup4\n      0xffffffffffffffffffffffffffffffffffffffff\n      and\n      mul\n      or\n      swap1\n      sstore\n      pop\n        /* \"FlightInsurance.sol\":1629:1646  insuranceProvider */\n      0x00\n      dup1\n      sload\n      swap1\n      0x0100\n      exp\n      swap1\n      div\n      0xffffffffffffffffffffffffffffffffffffffff\n      and\n        /* \"FlightInsurance.sol\":1621:1656  payable(insuranceProvider).transfer */\n      0xffffffffffffffffffffffffffffffffffffffff\n      and\n        /* \"FlightInsurance.sol\":1621:1667  payable(insuranceProvider).transfer(msg.value) */\n      0x08fc\n        /* \"FlightInsurance.sol\":1657:1666  msg.value */\n      callvalue\n        /* \"FlightInsurance.sol\":1621:1667  payable(insuranceProvider).transfer(msg.value) */\n      swap1\n      dup2\n      iszero\n      mul\n      swap1\n      mload(0x40)\n      0x00\n      mload(0x40)\n      dup1\n      dup4\n      sub\n      dup2\n      dup6\n      dup9\n      dup9\n      call\n      swap4\n      pop\n      pop\n      pop\n      pop\n      iszero\n      dup1\n      iszero\n      tag_47\n      jumpi\n      returndatasize\n      0x00\n      dup1\n      returndatacopy\n      revert(0x00, returndatasize)\n    tag_47:\n      pop\n        /* \"FlightInsurance.sol\":853:1674  function purchasePolicy(... */\n      pop\n      pop\n      pop\n      pop\n      pop\n      jump\t// out\n        /* \"FlightInsurance.sol\":1680:1874  function viewMyPolicy() public view returns (Policy memory) {... */\n    tag_13:\n        /* \"FlightInsurance.sol\":1725:1738  Policy memory */\n      tag_48\n      tag_49\n      jump\t// in\n    tag_48:\n        /* \"FlightInsurance.sol\":1807:1808  0 */\n      0x00\n        /* \"FlightInsurance.sol\":1758:1809  policies[msg.sender].passengerAddress != address(0) */\n      0xffffffffffffffffffffffffffffffffffffffff\n      and\n        /* \"FlightInsurance.sol\":1758:1766  policies */\n      0x01\n        /* \"FlightInsurance.sol\":1758:1778  policies[msg.sender] */\n      0x00\n        /* \"FlightInsurance.sol\":1767:1777  msg.sender */\n      caller\n        /* \"FlightInsurance.sol\":1758:1778  policies[msg.sender] */\n      0xffffffffffffffffffffffffffffffffffffffff\n      and\n      0xffffffffffffffffffffffffffffffffffffffff\n      and\n      dup2\n      mstore\n      0x20\n      add\n      swap1\n      dup2\n      mstore\n      0x20\n      add\n      0x00\n      keccak256\n        /* \"FlightInsurance.sol\":1758:1795  policies[msg.sender].passengerAddress */\n      0x01\n      add\n      0x00\n      swap1\n      sload\n      swap1\n      0x0100\n      exp\n      swap1\n      div\n      0xffffffffffffffffffffffffffffffffffffffff\n      and\n        /* \"FlightInsurance.sol\":1758:1809  policies[msg.sender].passengerAddress != address(0) */\n      0xffffffffffffffffffffffffffffffffffffffff\n      and\n      sub\n        /* \"FlightInsurance.sol\":1750:1830  require(policies[msg.sender].passengerAddress != address(0), \"No policy found.\") */\n      tag_51\n      jumpi\n      mload(0x40)\n      0x08c379a000000000000000000000000000000000000000000000000000000000\n      dup2\n      mstore\n      0x04\n      add\n      tag_52\n      swap1\n      tag_53\n      jump\t// in\n    tag_52:\n      mload(0x40)\n      dup1\n      swap2\n      sub\n      swap1\n      revert\n    tag_51:\n        /* \"FlightInsurance.sol\":1847:1855  policies */\n      0x01\n        /* \"FlightInsurance.sol\":1847:1867  policies[msg.sender] */\n      0x00\n        /* \"FlightInsurance.sol\":1856:1866  msg.sender */\n      caller\n        /* \"FlightInsurance.sol\":1847:1867  policies[msg.sender] */\n      0xffffffffffffffffffffffffffffffffffffffff\n      and\n      0xffffffffffffffffffffffffffffffffffffffff\n      and\n      dup2\n      mstore\n      0x20\n      add\n      swap1\n      dup2\n      mstore\n      0x20\n      add\n      0x00\n      keccak256\n        /* \"FlightInsurance.sol\":1840:1867  return policies[msg.sender] */\n      mload(0x40)\n      dup1\n      0xe0\n      add\n      0x40\n      mstore\n      swap1\n      dup2\n      0x00\n      dup3\n      add\n      dup1\n      sload\n      tag_54\n      swap1\n      tag_55\n      jump\t// in\n    tag_54:\n      dup1\n      0x1f\n      add\n      0x20\n      dup1\n      swap2\n      div\n      mul\n      0x20\n      add\n      mload(0x40)\n      swap1\n      dup2\n      add\n      0x40\n      mstore\n      dup1\n      swap3\n      swap2\n      swap1\n      dup2\n      dup2\n      mstore\n      0x20\n      add\n      dup3\n      dup1\n      sload\n      tag_56\n      swap1\n      tag_55\n      jump\t// in\n    tag_56:\n      dup1\n      iszero\n      tag_57\n      jumpi\n      dup1\n      0x1f\n      lt\n      tag_58\n      jumpi\n      0x0100\n      dup1\n      dup4\n      sload\n      div\n      mul\n      dup4\n      mstore\n      swap2\n      0x20\n      add\n      swap2\n      jump(tag_57)\n    tag_58:\n      dup3\n      add\n      swap2\n      swap1\n      0x00\n      mstore\n      keccak256(0x00, 0x20)\n      swap1\n    tag_59:\n      dup2\n      sload\n      dup2\n      mstore\n      swap1\n      0x01\n      add\n      swap1\n      0x20\n      add\n      dup1\n      dup4\n      gt\n      tag_59\n      jumpi\n      dup3\n      swap1\n      sub\n      0x1f\n      and\n      dup3\n      add\n      swap2\n    tag_57:\n      pop\n      pop\n      pop\n      pop\n      pop\n      dup2\n      mstore\n      0x20\n      add\n      0x01\n      dup3\n      add\n      0x00\n      swap1\n      sload\n      swap1\n      0x0100\n      exp\n      swap1\n      div\n      0xffffffffffffffffffffffffffffffffffffffff\n      and\n      0xffffffffffffffffffffffffffffffffffffffff\n      and\n      0xffffffffffffffffffffffffffffffffffffffff\n      and\n      dup2\n      mstore\n      0x20\n      add\n      0x02\n      dup3\n      add\n      dup1\n      sload\n      tag_60\n      swap1\n      tag_55\n      jump\t// in\n    tag_60:\n      dup1\n      0x1f\n      add\n      0x20\n      dup1\n      swap2\n      div\n      mul\n      0x20\n      add\n      mload(0x40)\n      swap1\n      dup2\n      add\n      0x40\n      mstore\n      dup1\n      swap3\n      swap2\n      swap1\n      dup2\n      dup2\n      mstore\n      0x20\n      add\n      dup3\n      dup1\n      sload\n      tag_61\n      swap1\n      tag_55\n      jump\t// in\n    tag_61:\n      dup1\n      iszero\n      tag_62\n      jumpi\n      dup1\n      0x1f\n      lt\n      tag_63\n      jumpi\n      0x0100\n      dup1\n      dup4\n      sload\n      div\n      mul\n      dup4\n      mstore\n      swap2\n      0x20\n      add\n      swap2\n      jump(tag_62)\n    tag_63:\n      dup3\n      add\n      swap2\n      swap1\n      0x00\n      mstore\n      keccak256(0x00, 0x20)\n      swap1\n    tag_64:\n      dup2\n      sload\n      dup2\n      mstore\n      swap1\n      0x01\n      add\n      swap1\n      0x20\n      add\n      dup1\n      dup4\n      gt\n      tag_64\n      jumpi\n      dup3\n      swap1\n      sub\n      0x1f\n      and\n      dup3\n      add\n      swap2\n    tag_62:\n      pop\n      pop\n      pop\n      pop\n      pop\n      dup2\n      mstore\n      0x20\n      add\n      0x03\n      dup3\n      add\n      dup1\n      sload\n      tag_65\n      swap1\n      tag_55\n      jump\t// in\n    tag_65:\n      dup1\n      0x1f\n      add\n      0x20\n      dup1\n      swap2\n      div\n      mul\n      0x20\n      add\n      mload(0x40)\n      swap1\n      dup2\n      add\n      0x40\n      mstore\n      dup1\n      swap3\n      swap2\n      swap1\n      dup2\n      dup2\n      mstore\n      0x20\n      add\n      dup3\n      dup1\n      sload\n      tag_66\n      swap1\n      tag_55\n      jump\t// in\n    tag_66:\n      dup1\n      iszero\n      tag_67\n      jumpi\n      dup1\n      0x1f\n      lt\n      tag_68\n      jumpi\n      0x0100\n      dup1\n      dup4\n      sload\n      div\n      mul\n      dup4\n      mstore\n      swap2\n      0x20\n      add\n      swap2\n      jump(tag_67)\n    tag_68:\n      dup3\n      add\n      swap2\n      swap1\n      0x00\n      mstore\n      keccak256(0x00, 0x20)\n      swap1\n    tag_69:\n      dup2\n      sload\n      dup2\n      mstore\n      swap1\n      0x01\n      add\n      swap1\n      0x20\n      add\n      dup1\n      dup4\n      gt\n      tag_69\n      jumpi\n      dup3\n      swap1\n      sub\n      0x1f\n      and\n      dup3\n      add\n      swap2\n    tag_67:\n      pop\n      pop\n      pop\n      pop\n      pop\n      dup2\n      mstore\n      0x20\n      add\n      0x04\n      dup3\n      add\n      dup1\n      sload\n      tag_70\n      swap1\n      tag_55\n      jump\t// in\n    tag_70:\n      dup1\n      0x1f\n      add\n      0x20\n      dup1\n      swap2\n      div\n      mul\n      0x20\n      add\n      mload(0x40)\n      swap1\n      dup2\n      add\n      0x40\n      mstore\n      dup1\n      swap3\n      swap2\n      swap1\n      dup2\n      dup2\n      mstore\n      0x20\n      add\n      dup3\n      dup1\n      sload\n      tag_71\n      swap1\n      tag_55\n      jump\t// in\n    tag_71:\n      dup1\n      iszero\n      tag_72\n      jumpi\n      dup1\n      0x1f\n      lt\n      tag_73\n      jumpi\n      0x0100\n      dup1\n      dup4\n      sload\n      div\n      mul\n      dup4\n      mstore\n      swap2\n      0x20\n      add\n      swap2\n      jump(tag_72)\n    tag_73:\n      dup3\n      add\n      swap2\n      swap1\n      0x00\n      mstore\n      keccak256(0x00, 0x20)\n      swap1\n    tag_74:\n      dup2\n      sload\n      dup2\n      mstore\n      swap1\n      0x01\n      add\n      swap1\n      0x20\n      add\n      dup1\n      dup4\n      gt\n      tag_74\n      jumpi\n      dup3\n      swap1\n      sub\n      0x1f\n      and\n      dup3\n      add\n      swap2\n    tag_72:\n      pop\n      pop\n      pop\n      pop\n      pop\n      dup2\n      mstore\n      0x20\n      add\n      0x05\n      dup3\n      add\n      dup1\n      sload\n      tag_75\n      swap1\n      tag_55\n      jump\t// in\n    tag_75:\n      dup1\n      0x1f\n      add\n      0x20\n      dup1\n      swap2\n      div\n      mul\n      0x20\n      add\n      mload(0x40)\n      swap1\n      dup2\n      add\n      0x40\n      mstore\n      dup1\n      swap3\n      swap2\n      swap1\n      dup2\n      dup2\n      mstore\n      0x20\n      add\n      dup3\n      dup1\n      sload\n      tag_76\n      swap1\n      tag_55\n      jump\t// in\n    tag_76:\n      dup1\n      iszero\n      tag_77\n      jumpi\n      dup1\n      0x1f\n      lt\n      tag_78\n      jumpi\n      0x0100\n      dup1\n      dup4\n      sload\n      div\n      mul\n      dup4\n      mstore\n      swap2\n      0x20\n      add\n      swap2\n      jump(tag_77)\n    tag_78:\n      dup3\n      add\n      swap2\n      swap1\n      0x00\n      mstore\n      keccak256(0x00, 0x20)\n      swap1\n    tag_79:\n      dup2\n      sload\n      dup2\n      mstore\n      swap1\n      0x01\n      add\n      swap1\n      0x20\n      add\n      dup1\n      dup4\n      gt\n      tag_79\n      jumpi\n      dup3\n      swap1\n      sub\n      0x1f\n      and\n      dup3\n      add\n      swap2\n    tag_77:\n      pop\n      pop\n      pop\n      pop\n      pop\n      dup2\n      mstore\n      0x20\n      add\n      0x06\n      dup3\n      add\n      dup1\n      sload\n      tag_80\n      swap1\n      tag_55\n      jump\t// in\n    tag_80:\n      dup1\n      0x1f\n      add\n      0x20\n      dup1\n      swap2\n      div\n      mul\n      0x20\n      add\n      mload(0x40)\n      swap1\n      dup2\n      add\n      0x40\n      mstore\n      dup1\n      swap3\n      swap2\n      swap1\n      dup2\n      dup2\n      mstore\n      0x20\n      add\n      dup3\n      dup1\n      sload\n      tag_81\n      swap1\n      tag_55\n      jump\t// in\n    tag_81:\n      dup1\n      iszero\n      tag_82\n      jumpi\n      dup1\n      0x1f\n      lt\n      tag_83\n      jumpi\n      0x0100\n      dup1\n      dup4\n      sload\n      div\n      mul\n      dup4\n      mstore\n      swap2\n      0x20\n      add\n      swap2\n      jump(tag_82)\n    tag_83:\n      dup3\n      add\n      swap2\n      swap1\n      0x00\n      mstore\n      keccak256(0x00, 0x20)\n      swap1\n    tag_84:\n      dup2\n      sload\n      dup2\n      mstore\n      swap1\n      0x01\n      add\n      swap1\n      0x20\n      add\n      dup1\n      dup4\n      gt\n      tag_84\n      jumpi\n      dup3\n      swap1\n      sub\n      0x1f\n      and\n      dup3\n      add\n      swap2\n    tag_82:\n      pop\n      pop\n      pop\n      pop\n      pop\n      dup2\n      mstore\n      pop\n      pop\n      swap1\n      pop\n        /* \"FlightInsurance.sol\":1680:1874  function viewMyPolicy() public view returns (Policy memory) {... */\n      swap1\n      jump\t// out\n        /* \"FlightInsurance.sol\":89:121  address public insuranceProvider */\n    tag_18:\n      0x00\n      dup1\n      sload\n      swap1\n      0x0100\n      exp\n      swap1\n      div\n      0xffffffffffffffffffffffffffffffffffffffff\n      and\n      dup2\n      jump\t// out\n        /* \"FlightInsurance.sol\":689:847  function viewAvailablePolicy() public pure returns (string memory) {... */\n    tag_23:\n        /* \"FlightInsurance.sol\":741:754  string memory */\n      0x60\n        /* \"FlightInsurance.sol\":766:840  return \"Premium: 0.01 Ether, Indemnity: 0.02 Ether, Coverage: Hail, Flood\" */\n      mload(0x40)\n      dup1\n      0x80\n      add\n      0x40\n      mstore\n      dup1\n      0x41\n      dup2\n      mstore\n      0x20\n      add\n      data_55be4177e9c2f1ac8ed4a1d0704357e09dcdbfd2c7a09f19bf5fd0f459d0f2bf\n      0x41\n      swap2\n      codecopy\n      swap1\n      pop\n        /* \"FlightInsurance.sol\":689:847  function viewAvailablePolicy() public pure returns (string memory) {... */\n      swap1\n      jump\t// out\n        /* \"FlightInsurance.sol\":1880:2189  function viewAllPolicies() public view onlyInsuranceProvider returns (Policy[] memory) {... */\n    tag_28:\n        /* \"FlightInsurance.sol\":1950:1965  Policy[] memory */\n      0x60\n        /* \"FlightInsurance.sol\":611:628  insuranceProvider */\n      0x00\n      dup1\n      sload\n      swap1\n      0x0100\n      exp\n      swap1\n      div\n      0xffffffffffffffffffffffffffffffffffffffff\n      and\n        /* \"FlightInsurance.sol\":597:628  msg.sender == insuranceProvider */\n      0xffffffffffffffffffffffffffffffffffffffff\n      and\n        /* \"FlightInsurance.sol\":597:607  msg.sender */\n      caller\n        /* \"FlightInsurance.sol\":597:628  msg.sender == insuranceProvider */\n      0xffffffffffffffffffffffffffffffffffffffff\n      and\n      eq\n        /* \"FlightInsurance.sol\":589:665  require(msg.sender == insuranceProvider, \"Only the provider can call this.\") */\n      tag_87\n      jumpi\n      mload(0x40)\n      0x08c379a000000000000000000000000000000000000000000000000000000000\n      dup2\n      mstore\n      0x04\n      add\n      tag_88\n      swap1\n      tag_89\n      jump\t// in\n    tag_88:\n      mload(0x40)\n      dup1\n      swap2\n      sub\n      swap1\n      revert\n    tag_87:\n        /* \"FlightInsurance.sol\":1977:1996  Policy[] memory all */\n      0x00\n        /* \"FlightInsurance.sol\":2012:2029  insuredPassengers */\n      0x02\n        /* \"FlightInsurance.sol\":2012:2036  insuredPassengers.length */\n      dup1\n      sload\n      swap1\n      pop\n        /* \"FlightInsurance.sol\":1999:2037  new Policy[](insuredPassengers.length) */\n      0xffffffffffffffff\n      dup2\n      gt\n      iszero\n      tag_91\n      jumpi\n      tag_92\n      tag_93\n      jump\t// in\n    tag_92:\n    tag_91:\n      mload(0x40)\n      swap1\n      dup1\n      dup3\n      mstore\n      dup1\n      0x20\n      mul\n      0x20\n      add\n      dup3\n      add\n      0x40\n      mstore\n      dup1\n      iszero\n      tag_94\n      jumpi\n      dup2\n      0x20\n      add\n    tag_95:\n      tag_96\n      tag_49\n      jump\t// in\n    tag_96:\n      dup2\n      mstore\n      0x20\n      add\n      swap1\n      0x01\n      swap1\n      sub\n      swap1\n      dup2\n      tag_95\n      jumpi\n      swap1\n      pop\n    tag_94:\n      pop\n        /* \"FlightInsurance.sol\":1977:2037  Policy[] memory all = new Policy[](insuredPassengers.length) */\n      swap1\n      pop\n        /* \"FlightInsurance.sol\":2052:2058  uint i */\n      0x00\n        /* \"FlightInsurance.sol\":2047:2163  for (uint i = 0; i < insuredPassengers.length; i++) {... */\n    tag_97:\n        /* \"FlightInsurance.sol\":2068:2085  insuredPassengers */\n      0x02\n        /* \"FlightInsurance.sol\":2068:2092  insuredPassengers.length */\n      dup1\n      sload\n      swap1\n      pop\n        /* \"FlightInsurance.sol\":2064:2065  i */\n      dup2\n        /* \"FlightInsurance.sol\":2064:2092  i < insuredPassengers.length */\n      lt\n        /* \"FlightInsurance.sol\":2047:2163  for (uint i = 0; i < insuredPassengers.length; i++) {... */\n      iszero\n      tag_98\n      jumpi\n        /* \"FlightInsurance.sol\":2122:2130  policies */\n      0x01\n        /* \"FlightInsurance.sol\":2122:2152  policies[insuredPassengers[i]] */\n      0x00\n        /* \"FlightInsurance.sol\":2131:2148  insuredPassengers */\n      0x02\n        /* \"FlightInsurance.sol\":2149:2150  i */\n      dup4\n        /* \"FlightInsurance.sol\":2131:2151  insuredPassengers[i] */\n      dup2\n      sload\n      dup2\n      lt\n      tag_100\n      jumpi\n      tag_101\n      tag_102\n      jump\t// in\n    tag_101:\n    tag_100:\n      swap1\n      0x00\n      mstore\n      keccak256(0x00, 0x20)\n      add\n      0x00\n      swap1\n      sload\n      swap1\n      0x0100\n      exp\n      swap1\n      div\n      0xffffffffffffffffffffffffffffffffffffffff\n      and\n        /* \"FlightInsurance.sol\":2122:2152  policies[insuredPassengers[i]] */\n      0xffffffffffffffffffffffffffffffffffffffff\n      and\n      0xffffffffffffffffffffffffffffffffffffffff\n      and\n      dup2\n      mstore\n      0x20\n      add\n      swap1\n      dup2\n      mstore\n      0x20\n      add\n      0x00\n      keccak256\n        /* \"FlightInsurance.sol\":2113:2152  all[i] = policies[insuredPassengers[i]] */\n      mload(0x40)\n      dup1\n      0xe0\n      add\n      0x40\n      mstore\n      swap1\n      dup2\n      0x00\n      dup3\n      add\n      dup1\n      sload\n      tag_104\n      swap1\n      tag_55\n      jump\t// in\n    tag_104:\n      dup1\n      0x1f\n      add\n      0x20\n      dup1\n      swap2\n      div\n      mul\n      0x20\n      add\n      mload(0x40)\n      swap1\n      dup2\n      add\n      0x40\n      mstore\n      dup1\n      swap3\n      swap2\n      swap1\n      dup2\n      dup2\n      mstore\n      0x20\n      add\n      dup3\n      dup1\n      sload\n      tag_105\n      swap1\n      tag_55\n      jump\t// in\n    tag_105:\n      dup1\n      iszero\n      tag_106\n      jumpi\n      dup1\n      0x1f\n      lt\n      tag_107\n      jumpi\n      0x0100\n      dup1\n      dup4\n      sload\n      div\n      mul\n      dup4\n      mstore\n      swap2\n      0x20\n      add\n      swap2\n      jump(tag_106)\n    tag_107:\n      dup3\n      add\n      swap2\n      swap1\n      0x00\n      mstore\n      keccak256(0x00, 0x20)\n      swap1\n    tag_108:\n      dup2\n      sload\n      dup2\n      mstore\n      swap1\n      0x01\n      add\n      swap1\n      0x20\n      add\n      dup1\n      dup4\n      gt\n      tag_108\n      jumpi\n      dup3\n      swap1\n      sub\n      0x1f\n      and\n      dup3\n      add\n      swap2\n    tag_106:\n      pop\n      pop\n      pop\n      pop\n      pop\n      dup2\n      mstore\n      0x20\n      add\n      0x01\n      dup3\n      add\n      0x00\n      swap1\n      sload\n      swap1\n      0x0100\n      exp\n      swap1\n      div\n      0xffffffffffffffffffffffffffffffffffffffff\n      and\n      0xffffffffffffffffffffffffffffffffffffffff\n      and\n      0xffffffffffffffffffffffffffffffffffffffff\n      and\n      dup2\n      mstore\n      0x20\n      add\n      0x02\n      dup3\n      add\n      dup1\n      sload\n      tag_109\n      swap1\n      tag_55\n      jump\t// in\n    tag_109:\n      dup1\n      0x1f\n      add\n      0x20\n      dup1\n      swap2\n      div\n      mul\n      0x20\n      add\n      mload(0x40)\n      swap1\n      dup2\n      add\n      0x40\n      mstore\n      dup1\n      swap3\n      swap2\n      swap1\n      dup2\n      dup2\n      mstore\n      0x20\n      add\n      dup3\n      dup1\n      sload\n      tag_110\n      swap1\n      tag_55\n      jump\t// in\n    tag_110:\n      dup1\n      iszero\n      tag_111\n      jumpi\n      dup1\n      0x1f\n      lt\n      tag_112\n      jumpi\n      0x0100\n      dup1\n      dup4\n      sload\n      div\n      mul\n      dup4\n      mstore\n      swap2\n      0x20\n      add\n      swap2\n      jump(tag_111)\n    tag_112:\n      dup3\n      add\n      swap2\n      swap1\n      0x00\n      mstore\n      keccak256(0x00, 0x20)\n      swap1\n    tag_113:\n      dup2\n      sload\n      dup2\n      mstore\n      swap1\n      0x01\n      add\n      swap1\n      0x20\n      add\n      dup1\n      dup4\n      gt\n      tag_113\n      jumpi\n      dup3\n      swap1\n      sub\n      0x1f\n      and\n      dup3\n      add\n      swap2\n    tag_111:\n      pop\n      pop\n      pop\n      pop\n      pop\n      dup2\n      mstore\n      0x20\n      add\n      0x03\n      dup3\n      add\n      dup1\n      sload\n      tag_114\n      swap1\n      tag_55\n      jump\t// in\n    tag_114:\n      dup1\n      0x1f\n      add\n      0x20\n      dup1\n      swap2\n      div\n      mul\n      0x20\n      add\n      mload(0x40)\n      swap1\n      dup2\n      add\n      0x40\n      mstore\n      dup1\n      swap3\n      swap2\n      swap1\n      dup2\n      dup2\n      mstore\n      0x20\n      add\n      dup3\n      dup1\n      sload\n      tag_115\n      swap1\n      tag_55\n      jump\t// in\n    tag_115:\n      dup1\n      iszero\n      tag_116\n      jumpi\n      dup1\n      0x1f\n      lt\n      tag_117\n      jumpi\n      0x0100\n      dup1\n      dup4\n      sload\n      div\n      mul\n      dup4\n      mstore\n      swap2\n      0x20\n      add\n      swap2\n      jump(tag_116)\n    tag_117:\n      dup3\n      add\n      swap2\n      swap1\n      0x00\n      mstore\n      keccak256(0x00, 0x20)\n      swap1\n    tag_118:\n      dup2\n      sload\n      dup2\n      mstore\n      swap1\n      0x01\n      add\n      swap1\n      0x20\n      add\n      dup1\n      dup4\n      gt\n      tag_118\n      jumpi\n      dup3\n      swap1\n      sub\n      0x1f\n      and\n      dup3\n      add\n      swap2\n    tag_116:\n      pop\n      pop\n      pop\n      pop\n      pop\n      dup2\n      mstore\n      0x20\n      add\n      0x04\n      dup3\n      add\n      dup1\n      sload\n      tag_119\n      swap1\n      tag_55\n      jump\t// in\n    tag_119:\n      dup1\n      0x1f\n      add\n      0x20\n      dup1\n      swap2\n      div\n      mul\n      0x20\n      add\n      mload(0x40)\n      swap1\n      dup2\n      add\n      0x40\n      mstore\n      dup1\n      swap3\n      swap2\n      swap1\n      dup2\n      dup2\n      mstore\n      0x20\n      add\n      dup3\n      dup1\n      sload\n      tag_120\n      swap1\n      tag_55\n      jump\t// in\n    tag_120:\n      dup1\n      iszero\n      tag_121\n      jumpi\n      dup1\n      0x1f\n      lt\n      tag_122\n      jumpi\n      0x0100\n      dup1\n      dup4\n      sload\n      div\n      mul\n      dup4\n      mstore\n      swap2\n      0x20\n      add\n      swap2\n      jump(tag_121)\n    tag_122:\n      dup3\n      add\n      swap2\n      swap1\n      0x00\n      mstore\n      keccak256(0x00, 0x20)\n      swap1\n    tag_123:\n      dup2\n      sload\n      dup2\n      mstore\n      swap1\n      0x01\n      add\n      swap1\n      0x20\n      add\n      dup1\n      dup4\n      gt\n      tag_123\n      jumpi\n      dup3\n      swap1\n      sub\n      0x1f\n      and\n      dup3\n      add\n      swap2\n    tag_121:\n      pop\n      pop\n      pop\n      pop\n      pop\n      dup2\n      mstore\n      0x20\n      add\n      0x05\n      dup3\n      add\n      dup1\n      sload\n      tag_124\n      swap1\n      tag_55\n      jump\t// in\n    tag_124:\n      dup1\n      0x1f\n      add\n      0x20\n      dup1\n      swap2\n      div\n      mul\n      0x20\n      add\n      mload(0x40)\n      swap1\n      dup2\n      add\n      0x40\n      mstore\n      dup1\n      swap3\n      swap2\n      swap1\n      dup2\n      dup2\n      mstore\n      0x20\n      add\n      dup3\n      dup1\n      sload\n      tag_125\n      swap1\n      tag_55\n      jump\t// in\n    tag_125:\n      dup1\n      iszero\n      tag_126\n      jumpi\n      dup1\n      0x1f\n      lt\n      tag_127\n      jumpi\n      0x0100\n      dup1\n      dup4\n      sload\n      div\n      mul\n      dup4\n      mstore\n      swap2\n      0x20\n      add\n      swap2\n      jump(tag_126)\n    tag_127:\n      dup3\n      add\n      swap2\n      swap1\n      0x00\n      mstore\n      keccak256(0x00, 0x20)\n      swap1\n    tag_128:\n      dup2\n      sload\n      dup2\n      mstore\n      swap1\n      0x01\n      add\n      swap1\n      0x20\n      add\n      dup1\n      dup4\n      gt\n      tag_128\n      jumpi\n      dup3\n      swap1\n      sub\n      0x1f\n      and\n      dup3\n      add\n      swap2\n    tag_126:\n      pop\n      pop\n      pop\n      pop\n      pop\n      dup2\n      mstore\n      0x20\n      add\n      0x06\n      dup3\n      add\n      dup1\n      sload\n      tag_129\n      swap1\n      tag_55\n      jump\t// in\n    tag_129:\n      dup1\n      0x1f\n      add\n      0x20\n      dup1\n      swap2\n      div\n      mul\n      0x20\n      add\n      mload(0x40)\n      swap1\n      dup2\n      add\n      0x40\n      mstore\n      dup1\n      swap3\n      swap2\n      swap1\n      dup2\n      dup2\n      mstore\n      0x20\n      add\n      dup3\n      dup1\n      sload\n      tag_130\n      swap1\n      tag_55\n      jump\t// in\n    tag_130:\n      dup1\n      iszero\n      tag_131\n      jumpi\n      dup1\n      0x1f\n      lt\n      tag_132\n      jumpi\n      0x0100\n      dup1\n      dup4\n      sload\n      div\n      mul\n      dup4\n      mstore\n      swap2\n      0x20\n      add\n      swap2\n      jump(tag_131)\n    tag_132:\n      dup3\n      add\n      swap2\n      swap1\n      0x00\n      mstore\n      keccak256(0x00, 0x20)\n      swap1\n    tag_133:\n      dup2\n      sload\n      dup2\n      mstore\n      swap1\n      0x01\n      add\n      swap1\n      0x20\n      add\n      dup1\n      dup4\n      gt\n      tag_133\n      jumpi\n      dup3\n      swap1\n      sub\n      0x1f\n      and\n      dup3\n      add\n      swap2\n    tag_131:\n      pop\n      pop\n      pop\n      pop\n      pop\n      dup2\n      mstore\n      pop\n      pop\n        /* \"FlightInsurance.sol\":2113:2116  all */\n      dup3\n        /* \"FlightInsurance.sol\":2117:2118  i */\n      dup3\n        /* \"FlightInsurance.sol\":2113:2119  all[i] */\n      dup2\n      mload\n      dup2\n      lt\n      tag_134\n      jumpi\n      tag_135\n      tag_102\n      jump\t// in\n    tag_135:\n    tag_134:\n      0x20\n      mul\n      0x20\n      add\n      add\n        /* \"FlightInsurance.sol\":2113:2152  all[i] = policies[insuredPassengers[i]] */\n      dup2\n      swap1\n      mstore\n      pop\n        /* \"FlightInsurance.sol\":2094:2097  i++ */\n      dup1\n      dup1\n      0x01\n      add\n      swap2\n      pop\n      pop\n        /* \"FlightInsurance.sol\":2047:2163  for (uint i = 0; i < insuredPassengers.length; i++) {... */\n      jump(tag_97)\n    tag_98:\n      pop\n        /* \"FlightInsurance.sol\":2179:2182  all */\n      dup1\n        /* \"FlightInsurance.sol\":2172:2182  return all */\n      swap2\n      pop\n      pop\n        /* \"FlightInsurance.sol\":1880:2189  function viewAllPolicies() public view onlyInsuranceProvider returns (Policy[] memory) {... */\n      swap1\n      jump\t// out\n    tag_49:\n      mload(0x40)\n      dup1\n      0xe0\n      add\n      0x40\n      mstore\n      dup1\n      0x60\n      dup2\n      mstore\n      0x20\n      add\n      and(0xffffffffffffffffffffffffffffffffffffffff, 0x00)\n      dup2\n      mstore\n      0x20\n      add\n      0x60\n      dup2\n      mstore\n      0x20\n      add\n      0x60\n      dup2\n      mstore\n      0x20\n      add\n      0x60\n      dup2\n      mstore\n      0x20\n      add\n      0x60\n      dup2\n      mstore\n      0x20\n      add\n      0x60\n      dup2\n      mstore\n      pop\n      swap1\n      jump\t// out\n        /* \"#utility.yul\":7:82   */\n    tag_136:\n        /* \"#utility.yul\":40:46   */\n      0x00\n        /* \"#utility.yul\":73:75   */\n      0x40\n        /* \"#utility.yul\":67:76   */\n      mload\n        /* \"#utility.yul\":57:76   */\n      swap1\n      pop\n        /* \"#utility.yul\":7:82   */\n      swap1\n      jump\t// out\n        /* \"#utility.yul\":88:205   */\n    tag_137:\n        /* \"#utility.yul\":197:198   */\n      0x00\n        /* \"#utility.yul\":194:195   */\n      dup1\n        /* \"#utility.yul\":187:199   */\n      revert\n        /* \"#utility.yul\":211:328   */\n    tag_138:\n        /* \"#utility.yul\":320:321   */\n      0x00\n        /* \"#utility.yul\":317:318   */\n      dup1\n        /* \"#utility.yul\":310:322   */\n      revert\n        /* \"#utility.yul\":334:451   */\n    tag_139:\n        /* \"#utility.yul\":443:444   */\n      0x00\n        /* \"#utility.yul\":440:441   */\n      dup1\n        /* \"#utility.yul\":433:445   */\n      revert\n        /* \"#utility.yul\":457:574   */\n    tag_140:\n        /* \"#utility.yul\":566:567   */\n      0x00\n        /* \"#utility.yul\":563:564   */\n      dup1\n        /* \"#utility.yul\":556:568   */\n      revert\n        /* \"#utility.yul\":580:682   */\n    tag_141:\n        /* \"#utility.yul\":621:627   */\n      0x00\n        /* \"#utility.yul\":672:674   */\n      0x1f\n        /* \"#utility.yul\":668:675   */\n      not\n        /* \"#utility.yul\":663:665   */\n      0x1f\n        /* \"#utility.yul\":656:661   */\n      dup4\n        /* \"#utility.yul\":652:666   */\n      add\n        /* \"#utility.yul\":648:676   */\n      and\n        /* \"#utility.yul\":638:676   */\n      swap1\n      pop\n        /* \"#utility.yul\":580:682   */\n      swap2\n      swap1\n      pop\n      jump\t// out\n        /* \"#utility.yul\":688:868   */\n    tag_93:\n        /* \"#utility.yul\":736:813   */\n      0x4e487b7100000000000000000000000000000000000000000000000000000000\n        /* \"#utility.yul\":733:734   */\n      0x00\n        /* \"#utility.yul\":726:814   */\n      mstore\n        /* \"#utility.yul\":833:837   */\n      0x41\n        /* \"#utility.yul\":830:831   */\n      0x04\n        /* \"#utility.yul\":823:838   */\n      mstore\n        /* \"#utility.yul\":857:861   */\n      0x24\n        /* \"#utility.yul\":854:855   */\n      0x00\n        /* \"#utility.yul\":847:862   */\n      revert\n        /* \"#utility.yul\":874:1155   */\n    tag_142:\n        /* \"#utility.yul\":957:984   */\n      tag_200\n        /* \"#utility.yul\":979:983   */\n      dup3\n        /* \"#utility.yul\":957:984   */\n      tag_141\n      jump\t// in\n    tag_200:\n        /* \"#utility.yul\":949:955   */\n      dup2\n        /* \"#utility.yul\":945:985   */\n      add\n        /* \"#utility.yul\":1087:1093   */\n      dup2\n        /* \"#utility.yul\":1075:1085   */\n      dup2\n        /* \"#utility.yul\":1072:1094   */\n      lt\n        /* \"#utility.yul\":1051:1069   */\n      0xffffffffffffffff\n        /* \"#utility.yul\":1039:1049   */\n      dup3\n        /* \"#utility.yul\":1036:1070   */\n      gt\n        /* \"#utility.yul\":1033:1095   */\n      or\n        /* \"#utility.yul\":1030:1118   */\n      iszero\n      tag_201\n      jumpi\n        /* \"#utility.yul\":1098:1116   */\n      tag_202\n      tag_93\n      jump\t// in\n    tag_202:\n        /* \"#utility.yul\":1030:1118   */\n    tag_201:\n        /* \"#utility.yul\":1138:1148   */\n      dup1\n        /* \"#utility.yul\":1134:1136   */\n      0x40\n        /* \"#utility.yul\":1127:1149   */\n      mstore\n        /* \"#utility.yul\":917:1155   */\n      pop\n        /* \"#utility.yul\":874:1155   */\n      pop\n      pop\n      jump\t// out\n        /* \"#utility.yul\":1161:1290   */\n    tag_143:\n        /* \"#utility.yul\":1195:1201   */\n      0x00\n        /* \"#utility.yul\":1222:1242   */\n      tag_204\n      tag_136\n      jump\t// in\n    tag_204:\n        /* \"#utility.yul\":1212:1242   */\n      swap1\n      pop\n        /* \"#utility.yul\":1251:1284   */\n      tag_205\n        /* \"#utility.yul\":1279:1283   */\n      dup3\n        /* \"#utility.yul\":1271:1277   */\n      dup3\n        /* \"#utility.yul\":1251:1284   */\n      tag_142\n      jump\t// in\n    tag_205:\n        /* \"#utility.yul\":1161:1290   */\n      swap2\n      swap1\n      pop\n      jump\t// out\n        /* \"#utility.yul\":1296:1604   */\n    tag_144:\n        /* \"#utility.yul\":1358:1362   */\n      0x00\n        /* \"#utility.yul\":1448:1466   */\n      0xffffffffffffffff\n        /* \"#utility.yul\":1440:1446   */\n      dup3\n        /* \"#utility.yul\":1437:1467   */\n      gt\n        /* \"#utility.yul\":1434:1490   */\n      iszero\n      tag_207\n      jumpi\n        /* \"#utility.yul\":1470:1488   */\n      tag_208\n      tag_93\n      jump\t// in\n    tag_208:\n        /* \"#utility.yul\":1434:1490   */\n    tag_207:\n        /* \"#utility.yul\":1508:1537   */\n      tag_209\n        /* \"#utility.yul\":1530:1536   */\n      dup3\n        /* \"#utility.yul\":1508:1537   */\n      tag_141\n      jump\t// in\n    tag_209:\n        /* \"#utility.yul\":1500:1537   */\n      swap1\n      pop\n        /* \"#utility.yul\":1592:1596   */\n      0x20\n        /* \"#utility.yul\":1586:1590   */\n      dup2\n        /* \"#utility.yul\":1582:1597   */\n      add\n        /* \"#utility.yul\":1574:1597   */\n      swap1\n      pop\n        /* \"#utility.yul\":1296:1604   */\n      swap2\n      swap1\n      pop\n      jump\t// out\n        /* \"#utility.yul\":1610:1758   */\n    tag_145:\n        /* \"#utility.yul\":1708:1714   */\n      dup3\n        /* \"#utility.yul\":1703:1706   */\n      dup2\n        /* \"#utility.yul\":1698:1701   */\n      dup4\n        /* \"#utility.yul\":1685:1715   */\n      calldatacopy\n        /* \"#utility.yul\":1749:1750   */\n      0x00\n        /* \"#utility.yul\":1740:1746   */\n      dup4\n        /* \"#utility.yul\":1735:1738   */\n      dup4\n        /* \"#utility.yul\":1731:1747   */\n      add\n        /* \"#utility.yul\":1724:1751   */\n      mstore\n        /* \"#utility.yul\":1610:1758   */\n      pop\n      pop\n      pop\n      jump\t// out\n        /* \"#utility.yul\":1764:2189   */\n    tag_146:\n        /* \"#utility.yul\":1842:1847   */\n      0x00\n        /* \"#utility.yul\":1867:1933   */\n      tag_212\n        /* \"#utility.yul\":1883:1932   */\n      tag_213\n        /* \"#utility.yul\":1925:1931   */\n      dup5\n        /* \"#utility.yul\":1883:1932   */\n      tag_144\n      jump\t// in\n    tag_213:\n        /* \"#utility.yul\":1867:1933   */\n      tag_143\n      jump\t// in\n    tag_212:\n        /* \"#utility.yul\":1858:1933   */\n      swap1\n      pop\n        /* \"#utility.yul\":1956:1962   */\n      dup3\n        /* \"#utility.yul\":1949:1954   */\n      dup2\n        /* \"#utility.yul\":1942:1963   */\n      mstore\n        /* \"#utility.yul\":1994:1998   */\n      0x20\n        /* \"#utility.yul\":1987:1992   */\n      dup2\n        /* \"#utility.yul\":1983:1999   */\n      add\n        /* \"#utility.yul\":2032:2035   */\n      dup5\n        /* \"#utility.yul\":2023:2029   */\n      dup5\n        /* \"#utility.yul\":2018:2021   */\n      dup5\n        /* \"#utility.yul\":2014:2030   */\n      add\n        /* \"#utility.yul\":2011:2036   */\n      gt\n        /* \"#utility.yul\":2008:2120   */\n      iszero\n      tag_214\n      jumpi\n        /* \"#utility.yul\":2039:2118   */\n      tag_215\n      tag_140\n      jump\t// in\n    tag_215:\n        /* \"#utility.yul\":2008:2120   */\n    tag_214:\n        /* \"#utility.yul\":2129:2183   */\n      tag_216\n        /* \"#utility.yul\":2176:2182   */\n      dup5\n        /* \"#utility.yul\":2171:2174   */\n      dup3\n        /* \"#utility.yul\":2166:2169   */\n      dup6\n        /* \"#utility.yul\":2129:2183   */\n      tag_145\n      jump\t// in\n    tag_216:\n        /* \"#utility.yul\":1848:2189   */\n      pop\n        /* \"#utility.yul\":1764:2189   */\n      swap4\n      swap3\n      pop\n      pop\n      pop\n      jump\t// out\n        /* \"#utility.yul\":2209:2549   */\n    tag_147:\n        /* \"#utility.yul\":2265:2270   */\n      0x00\n        /* \"#utility.yul\":2314:2317   */\n      dup3\n        /* \"#utility.yul\":2307:2311   */\n      0x1f\n        /* \"#utility.yul\":2299:2305   */\n      dup4\n        /* \"#utility.yul\":2295:2312   */\n      add\n        /* \"#utility.yul\":2291:2318   */\n      slt\n        /* \"#utility.yul\":2281:2403   */\n      tag_218\n      jumpi\n        /* \"#utility.yul\":2322:2401   */\n      tag_219\n      tag_139\n      jump\t// in\n    tag_219:\n        /* \"#utility.yul\":2281:2403   */\n    tag_218:\n        /* \"#utility.yul\":2439:2445   */\n      dup2\n        /* \"#utility.yul\":2426:2446   */\n      calldataload\n        /* \"#utility.yul\":2464:2543   */\n      tag_220\n        /* \"#utility.yul\":2539:2542   */\n      dup5\n        /* \"#utility.yul\":2531:2537   */\n      dup3\n        /* \"#utility.yul\":2524:2528   */\n      0x20\n        /* \"#utility.yul\":2516:2522   */\n      dup7\n        /* \"#utility.yul\":2512:2529   */\n      add\n        /* \"#utility.yul\":2464:2543   */\n      tag_146\n      jump\t// in\n    tag_220:\n        /* \"#utility.yul\":2455:2543   */\n      swap2\n      pop\n        /* \"#utility.yul\":2271:2549   */\n      pop\n        /* \"#utility.yul\":2209:2549   */\n      swap3\n      swap2\n      pop\n      pop\n      jump\t// out\n        /* \"#utility.yul\":2555:4366   */\n    tag_9:\n        /* \"#utility.yul\":2700:2706   */\n      0x00\n        /* \"#utility.yul\":2708:2714   */\n      dup1\n        /* \"#utility.yul\":2716:2722   */\n      0x00\n        /* \"#utility.yul\":2724:2730   */\n      dup1\n        /* \"#utility.yul\":2732:2738   */\n      0x00\n        /* \"#utility.yul\":2781:2784   */\n      0xa0\n        /* \"#utility.yul\":2769:2778   */\n      dup7\n        /* \"#utility.yul\":2760:2767   */\n      dup9\n        /* \"#utility.yul\":2756:2779   */\n      sub\n        /* \"#utility.yul\":2752:2785   */\n      slt\n        /* \"#utility.yul\":2749:2869   */\n      iszero\n      tag_222\n      jumpi\n        /* \"#utility.yul\":2788:2867   */\n      tag_223\n      tag_137\n      jump\t// in\n    tag_223:\n        /* \"#utility.yul\":2749:2869   */\n    tag_222:\n        /* \"#utility.yul\":2936:2937   */\n      0x00\n        /* \"#utility.yul\":2925:2934   */\n      dup7\n        /* \"#utility.yul\":2921:2938   */\n      add\n        /* \"#utility.yul\":2908:2939   */\n      calldataload\n        /* \"#utility.yul\":2966:2984   */\n      0xffffffffffffffff\n        /* \"#utility.yul\":2958:2964   */\n      dup2\n        /* \"#utility.yul\":2955:2985   */\n      gt\n        /* \"#utility.yul\":2952:3069   */\n      iszero\n      tag_224\n      jumpi\n        /* \"#utility.yul\":2988:3067   */\n      tag_225\n      tag_138\n      jump\t// in\n    tag_225:\n        /* \"#utility.yul\":2952:3069   */\n    tag_224:\n        /* \"#utility.yul\":3093:3156   */\n      tag_226\n        /* \"#utility.yul\":3148:3155   */\n      dup9\n        /* \"#utility.yul\":3139:3145   */\n      dup3\n        /* \"#utility.yul\":3128:3137   */\n      dup10\n        /* \"#utility.yul\":3124:3146   */\n      add\n        /* \"#utility.yul\":3093:3156   */\n      tag_147\n      jump\t// in\n    tag_226:\n        /* \"#utility.yul\":3083:3156   */\n      swap6\n      pop\n        /* \"#utility.yul\":2879:3166   */\n      pop\n        /* \"#utility.yul\":3233:3235   */\n      0x20\n        /* \"#utility.yul\":3222:3231   */\n      dup7\n        /* \"#utility.yul\":3218:3236   */\n      add\n        /* \"#utility.yul\":3205:3237   */\n      calldataload\n        /* \"#utility.yul\":3264:3282   */\n      0xffffffffffffffff\n        /* \"#utility.yul\":3256:3262   */\n      dup2\n        /* \"#utility.yul\":3253:3283   */\n      gt\n        /* \"#utility.yul\":3250:3367   */\n      iszero\n      tag_227\n      jumpi\n        /* \"#utility.yul\":3286:3365   */\n      tag_228\n      tag_138\n      jump\t// in\n    tag_228:\n        /* \"#utility.yul\":3250:3367   */\n    tag_227:\n        /* \"#utility.yul\":3391:3454   */\n      tag_229\n        /* \"#utility.yul\":3446:3453   */\n      dup9\n        /* \"#utility.yul\":3437:3443   */\n      dup3\n        /* \"#utility.yul\":3426:3435   */\n      dup10\n        /* \"#utility.yul\":3422:3444   */\n      add\n        /* \"#utility.yul\":3391:3454   */\n      tag_147\n      jump\t// in\n    tag_229:\n        /* \"#utility.yul\":3381:3454   */\n      swap5\n      pop\n        /* \"#utility.yul\":3176:3464   */\n      pop\n        /* \"#utility.yul\":3531:3533   */\n      0x40\n        /* \"#utility.yul\":3520:3529   */\n      dup7\n        /* \"#utility.yul\":3516:3534   */\n      add\n        /* \"#utility.yul\":3503:3535   */\n      calldataload\n        /* \"#utility.yul\":3562:3580   */\n      0xffffffffffffffff\n        /* \"#utility.yul\":3554:3560   */\n      dup2\n        /* \"#utility.yul\":3551:3581   */\n      gt\n        /* \"#utility.yul\":3548:3665   */\n      iszero\n      tag_230\n      jumpi\n        /* \"#utility.yul\":3584:3663   */\n      tag_231\n      tag_138\n      jump\t// in\n    tag_231:\n        /* \"#utility.yul\":3548:3665   */\n    tag_230:\n        /* \"#utility.yul\":3689:3752   */\n      tag_232\n        /* \"#utility.yul\":3744:3751   */\n      dup9\n        /* \"#utility.yul\":3735:3741   */\n      dup3\n        /* \"#utility.yul\":3724:3733   */\n      dup10\n        /* \"#utility.yul\":3720:3742   */\n      add\n        /* \"#utility.yul\":3689:3752   */\n      tag_147\n      jump\t// in\n    tag_232:\n        /* \"#utility.yul\":3679:3752   */\n      swap4\n      pop\n        /* \"#utility.yul\":3474:3762   */\n      pop\n        /* \"#utility.yul\":3829:3831   */\n      0x60\n        /* \"#utility.yul\":3818:3827   */\n      dup7\n        /* \"#utility.yul\":3814:3832   */\n      add\n        /* \"#utility.yul\":3801:3833   */\n      calldataload\n        /* \"#utility.yul\":3860:3878   */\n      0xffffffffffffffff\n        /* \"#utility.yul\":3852:3858   */\n      dup2\n        /* \"#utility.yul\":3849:3879   */\n      gt\n        /* \"#utility.yul\":3846:3963   */\n      iszero\n      tag_233\n      jumpi\n        /* \"#utility.yul\":3882:3961   */\n      tag_234\n      tag_138\n      jump\t// in\n    tag_234:\n        /* \"#utility.yul\":3846:3963   */\n    tag_233:\n        /* \"#utility.yul\":3987:4050   */\n      tag_235\n        /* \"#utility.yul\":4042:4049   */\n      dup9\n        /* \"#utility.yul\":4033:4039   */\n      dup3\n        /* \"#utility.yul\":4022:4031   */\n      dup10\n        /* \"#utility.yul\":4018:4040   */\n      add\n        /* \"#utility.yul\":3987:4050   */\n      tag_147\n      jump\t// in\n    tag_235:\n        /* \"#utility.yul\":3977:4050   */\n      swap3\n      pop\n        /* \"#utility.yul\":3772:4060   */\n      pop\n        /* \"#utility.yul\":4127:4130   */\n      0x80\n        /* \"#utility.yul\":4116:4125   */\n      dup7\n        /* \"#utility.yul\":4112:4131   */\n      add\n        /* \"#utility.yul\":4099:4132   */\n      calldataload\n        /* \"#utility.yul\":4159:4177   */\n      0xffffffffffffffff\n        /* \"#utility.yul\":4151:4157   */\n      dup2\n        /* \"#utility.yul\":4148:4178   */\n      gt\n        /* \"#utility.yul\":4145:4262   */\n      iszero\n      tag_236\n      jumpi\n        /* \"#utility.yul\":4181:4260   */\n      tag_237\n      tag_138\n      jump\t// in\n    tag_237:\n        /* \"#utility.yul\":4145:4262   */\n    tag_236:\n        /* \"#utility.yul\":4286:4349   */\n      tag_238\n        /* \"#utility.yul\":4341:4348   */\n      dup9\n        /* \"#utility.yul\":4332:4338   */\n      dup3\n        /* \"#utility.yul\":4321:4330   */\n      dup10\n        /* \"#utility.yul\":4317:4339   */\n      add\n        /* \"#utility.yul\":4286:4349   */\n      tag_147\n      jump\t// in\n    tag_238:\n        /* \"#utility.yul\":4276:4349   */\n      swap2\n      pop\n        /* \"#utility.yul\":4070:4359   */\n      pop\n        /* \"#utility.yul\":2555:4366   */\n      swap3\n      swap6\n      pop\n      swap3\n      swap6\n      swap1\n      swap4\n      pop\n      jump\t// out\n        /* \"#utility.yul\":4372:4471   */\n    tag_148:\n        /* \"#utility.yul\":4424:4430   */\n      0x00\n        /* \"#utility.yul\":4458:4463   */\n      dup2\n        /* \"#utility.yul\":4452:4464   */\n      mload\n        /* \"#utility.yul\":4442:4464   */\n      swap1\n      pop\n        /* \"#utility.yul\":4372:4471   */\n      swap2\n      swap1\n      pop\n      jump\t// out\n        /* \"#utility.yul\":4477:4636   */\n    tag_149:\n        /* \"#utility.yul\":4551:4562   */\n      0x00\n        /* \"#utility.yul\":4585:4591   */\n      dup3\n        /* \"#utility.yul\":4580:4583   */\n      dup3\n        /* \"#utility.yul\":4573:4592   */\n      mstore\n        /* \"#utility.yul\":4625:4629   */\n      0x20\n        /* \"#utility.yul\":4620:4623   */\n      dup3\n        /* \"#utility.yul\":4616:4630   */\n      add\n        /* \"#utility.yul\":4601:4630   */\n      swap1\n      pop\n        /* \"#utility.yul\":4477:4636   */\n      swap3\n      swap2\n      pop\n      pop\n      jump\t// out\n        /* \"#utility.yul\":4642:4781   */\n    tag_150:\n        /* \"#utility.yul\":4731:4737   */\n      dup3\n        /* \"#utility.yul\":4726:4729   */\n      dup2\n        /* \"#utility.yul\":4721:4724   */\n      dup4\n        /* \"#utility.yul\":4715:4738   */\n      mcopy\n        /* \"#utility.yul\":4772:4773   */\n      0x00\n        /* \"#utility.yul\":4763:4769   */\n      dup4\n        /* \"#utility.yul\":4758:4761   */\n      dup4\n        /* \"#utility.yul\":4754:4770   */\n      add\n        /* \"#utility.yul\":4747:4774   */\n      mstore\n        /* \"#utility.yul\":4642:4781   */\n      pop\n      pop\n      pop\n      jump\t// out\n        /* \"#utility.yul\":4787:5144   */\n    tag_151:\n        /* \"#utility.yul\":4865:4868   */\n      0x00\n        /* \"#utility.yul\":4893:4932   */\n      tag_243\n        /* \"#utility.yul\":4926:4931   */\n      dup3\n        /* \"#utility.yul\":4893:4932   */\n      tag_148\n      jump\t// in\n    tag_243:\n        /* \"#utility.yul\":4948:5009   */\n      tag_244\n        /* \"#utility.yul\":5002:5008   */\n      dup2\n        /* \"#utility.yul\":4997:5000   */\n      dup6\n        /* \"#utility.yul\":4948:5009   */\n      tag_149\n      jump\t// in\n    tag_244:\n        /* \"#utility.yul\":4941:5009   */\n      swap4\n      pop\n        /* \"#utility.yul\":5018:5083   */\n      tag_245\n        /* \"#utility.yul\":5076:5082   */\n      dup2\n        /* \"#utility.yul\":5071:5074   */\n      dup6\n        /* \"#utility.yul\":5064:5068   */\n      0x20\n        /* \"#utility.yul\":5057:5062   */\n      dup7\n        /* \"#utility.yul\":5053:5069   */\n      add\n        /* \"#utility.yul\":5018:5083   */\n      tag_150\n      jump\t// in\n    tag_245:\n        /* \"#utility.yul\":5108:5137   */\n      tag_246\n        /* \"#utility.yul\":5130:5136   */\n      dup2\n        /* \"#utility.yul\":5108:5137   */\n      tag_141\n      jump\t// in\n    tag_246:\n        /* \"#utility.yul\":5103:5106   */\n      dup5\n        /* \"#utility.yul\":5099:5138   */\n      add\n        /* \"#utility.yul\":5092:5138   */\n      swap2\n      pop\n        /* \"#utility.yul\":4869:5144   */\n      pop\n        /* \"#utility.yul\":4787:5144   */\n      swap3\n      swap2\n      pop\n      pop\n      jump\t// out\n        /* \"#utility.yul\":5150:5276   */\n    tag_152:\n        /* \"#utility.yul\":5187:5194   */\n      0x00\n        /* \"#utility.yul\":5227:5269   */\n      0xffffffffffffffffffffffffffffffffffffffff\n        /* \"#utility.yul\":5220:5225   */\n      dup3\n        /* \"#utility.yul\":5216:5270   */\n      and\n        /* \"#utility.yul\":5205:5270   */\n      swap1\n      pop\n        /* \"#utility.yul\":5150:5276   */\n      swap2\n      swap1\n      pop\n      jump\t// out\n        /* \"#utility.yul\":5282:5378   */\n    tag_153:\n        /* \"#utility.yul\":5319:5326   */\n      0x00\n        /* \"#utility.yul\":5348:5372   */\n      tag_249\n        /* \"#utility.yul\":5366:5371   */\n      dup3\n        /* \"#utility.yul\":5348:5372   */\n      tag_152\n      jump\t// in\n    tag_249:\n        /* \"#utility.yul\":5337:5372   */\n      swap1\n      pop\n        /* \"#utility.yul\":5282:5378   */\n      swap2\n      swap1\n      pop\n      jump\t// out\n        /* \"#utility.yul\":5384:5492   */\n    tag_154:\n        /* \"#utility.yul\":5461:5485   */\n      tag_251\n        /* \"#utility.yul\":5479:5484   */\n      dup2\n        /* \"#utility.yul\":5461:5485   */\n      tag_153\n      jump\t// in\n    tag_251:\n        /* \"#utility.yul\":5456:5459   */\n      dup3\n        /* \"#utility.yul\":5449:5486   */\n      mstore\n        /* \"#utility.yul\":5384:5492   */\n      pop\n      pop\n      jump\t// out\n        /* \"#utility.yul\":5570:7452   */\n    tag_155:\n        /* \"#utility.yul\":5683:5686   */\n      0x00\n        /* \"#utility.yul\":5719:5723   */\n      0xe0\n        /* \"#utility.yul\":5714:5717   */\n      dup4\n        /* \"#utility.yul\":5710:5724   */\n      add\n        /* \"#utility.yul\":5815:5819   */\n      0x00\n        /* \"#utility.yul\":5808:5813   */\n      dup4\n        /* \"#utility.yul\":5804:5820   */\n      add\n        /* \"#utility.yul\":5798:5821   */\n      mload\n        /* \"#utility.yul\":5868:5871   */\n      dup5\n        /* \"#utility.yul\":5862:5866   */\n      dup3\n        /* \"#utility.yul\":5858:5872   */\n      sub\n        /* \"#utility.yul\":5851:5855   */\n      0x00\n        /* \"#utility.yul\":5846:5849   */\n      dup7\n        /* \"#utility.yul\":5842:5856   */\n      add\n        /* \"#utility.yul\":5835:5873   */\n      mstore\n        /* \"#utility.yul\":5894:5967   */\n      tag_253\n        /* \"#utility.yul\":5962:5966   */\n      dup3\n        /* \"#utility.yul\":5948:5960   */\n      dup3\n        /* \"#utility.yul\":5894:5967   */\n      tag_151\n      jump\t// in\n    tag_253:\n        /* \"#utility.yul\":5886:5967   */\n      swap2\n      pop\n        /* \"#utility.yul\":5734:5978   */\n      pop\n        /* \"#utility.yul\":6072:6076   */\n      0x20\n        /* \"#utility.yul\":6065:6070   */\n      dup4\n        /* \"#utility.yul\":6061:6077   */\n      add\n        /* \"#utility.yul\":6055:6078   */\n      mload\n        /* \"#utility.yul\":6091:6154   */\n      tag_254\n        /* \"#utility.yul\":6148:6152   */\n      0x20\n        /* \"#utility.yul\":6143:6146   */\n      dup7\n        /* \"#utility.yul\":6139:6153   */\n      add\n        /* \"#utility.yul\":6125:6137   */\n      dup3\n        /* \"#utility.yul\":6091:6154   */\n      tag_154\n      jump\t// in\n    tag_254:\n        /* \"#utility.yul\":5988:6164   */\n      pop\n        /* \"#utility.yul\":6254:6258   */\n      0x40\n        /* \"#utility.yul\":6247:6252   */\n      dup4\n        /* \"#utility.yul\":6243:6259   */\n      add\n        /* \"#utility.yul\":6237:6260   */\n      mload\n        /* \"#utility.yul\":6307:6310   */\n      dup5\n        /* \"#utility.yul\":6301:6305   */\n      dup3\n        /* \"#utility.yul\":6297:6311   */\n      sub\n        /* \"#utility.yul\":6290:6294   */\n      0x40\n        /* \"#utility.yul\":6285:6288   */\n      dup7\n        /* \"#utility.yul\":6281:6295   */\n      add\n        /* \"#utility.yul\":6274:6312   */\n      mstore\n        /* \"#utility.yul\":6333:6406   */\n      tag_255\n        /* \"#utility.yul\":6401:6405   */\n      dup3\n        /* \"#utility.yul\":6387:6399   */\n      dup3\n        /* \"#utility.yul\":6333:6406   */\n      tag_151\n      jump\t// in\n    tag_255:\n        /* \"#utility.yul\":6325:6406   */\n      swap2\n      pop\n        /* \"#utility.yul\":6174:6417   */\n      pop\n        /* \"#utility.yul\":6505:6509   */\n      0x60\n        /* \"#utility.yul\":6498:6503   */\n      dup4\n        /* \"#utility.yul\":6494:6510   */\n      add\n        /* \"#utility.yul\":6488:6511   */\n      mload\n        /* \"#utility.yul\":6558:6561   */\n      dup5\n        /* \"#utility.yul\":6552:6556   */\n      dup3\n        /* \"#utility.yul\":6548:6562   */\n      sub\n        /* \"#utility.yul\":6541:6545   */\n      0x60\n        /* \"#utility.yul\":6536:6539   */\n      dup7\n        /* \"#utility.yul\":6532:6546   */\n      add\n        /* \"#utility.yul\":6525:6563   */\n      mstore\n        /* \"#utility.yul\":6584:6657   */\n      tag_256\n        /* \"#utility.yul\":6652:6656   */\n      dup3\n        /* \"#utility.yul\":6638:6650   */\n      dup3\n        /* \"#utility.yul\":6584:6657   */\n      tag_151\n      jump\t// in\n    tag_256:\n        /* \"#utility.yul\":6576:6657   */\n      swap2\n      pop\n        /* \"#utility.yul\":6427:6668   */\n      pop\n        /* \"#utility.yul\":6759:6763   */\n      0x80\n        /* \"#utility.yul\":6752:6757   */\n      dup4\n        /* \"#utility.yul\":6748:6764   */\n      add\n        /* \"#utility.yul\":6742:6765   */\n      mload\n        /* \"#utility.yul\":6812:6815   */\n      dup5\n        /* \"#utility.yul\":6806:6810   */\n      dup3\n        /* \"#utility.yul\":6802:6816   */\n      sub\n        /* \"#utility.yul\":6795:6799   */\n      0x80\n        /* \"#utility.yul\":6790:6793   */\n      dup7\n        /* \"#utility.yul\":6786:6800   */\n      add\n        /* \"#utility.yul\":6779:6817   */\n      mstore\n        /* \"#utility.yul\":6838:6911   */\n      tag_257\n        /* \"#utility.yul\":6906:6910   */\n      dup3\n        /* \"#utility.yul\":6892:6904   */\n      dup3\n        /* \"#utility.yul\":6838:6911   */\n      tag_151\n      jump\t// in\n    tag_257:\n        /* \"#utility.yul\":6830:6911   */\n      swap2\n      pop\n        /* \"#utility.yul\":6678:6922   */\n      pop\n        /* \"#utility.yul\":7015:7019   */\n      0xa0\n        /* \"#utility.yul\":7008:7013   */\n      dup4\n        /* \"#utility.yul\":7004:7020   */\n      add\n        /* \"#utility.yul\":6998:7021   */\n      mload\n        /* \"#utility.yul\":7068:7071   */\n      dup5\n        /* \"#utility.yul\":7062:7066   */\n      dup3\n        /* \"#utility.yul\":7058:7072   */\n      sub\n        /* \"#utility.yul\":7051:7055   */\n      0xa0\n        /* \"#utility.yul\":7046:7049   */\n      dup7\n        /* \"#utility.yul\":7042:7056   */\n      add\n        /* \"#utility.yul\":7035:7073   */\n      mstore\n        /* \"#utility.yul\":7094:7167   */\n      tag_258\n        /* \"#utility.yul\":7162:7166   */\n      dup3\n        /* \"#utility.yul\":7148:7160   */\n      dup3\n        /* \"#utility.yul\":7094:7167   */\n      tag_151\n      jump\t// in\n    tag_258:\n        /* \"#utility.yul\":7086:7167   */\n      swap2\n      pop\n        /* \"#utility.yul\":6932:7178   */\n      pop\n        /* \"#utility.yul\":7262:7266   */\n      0xc0\n        /* \"#utility.yul\":7255:7260   */\n      dup4\n        /* \"#utility.yul\":7251:7267   */\n      add\n        /* \"#utility.yul\":7245:7268   */\n      mload\n        /* \"#utility.yul\":7315:7318   */\n      dup5\n        /* \"#utility.yul\":7309:7313   */\n      dup3\n        /* \"#utility.yul\":7305:7319   */\n      sub\n        /* \"#utility.yul\":7298:7302   */\n      0xc0\n        /* \"#utility.yul\":7293:7296   */\n      dup7\n        /* \"#utility.yul\":7289:7303   */\n      add\n        /* \"#utility.yul\":7282:7320   */\n      mstore\n        /* \"#utility.yul\":7341:7414   */\n      tag_259\n        /* \"#utility.yul\":7409:7413   */\n      dup3\n        /* \"#utility.yul\":7395:7407   */\n      dup3\n        /* \"#utility.yul\":7341:7414   */\n      tag_151\n      jump\t// in\n    tag_259:\n        /* \"#utility.yul\":7333:7414   */\n      swap2\n      pop\n        /* \"#utility.yul\":7188:7425   */\n      pop\n        /* \"#utility.yul\":7442:7446   */\n      dup1\n        /* \"#utility.yul\":7435:7446   */\n      swap2\n      pop\n        /* \"#utility.yul\":5688:7452   */\n      pop\n        /* \"#utility.yul\":5570:7452   */\n      swap3\n      swap2\n      pop\n      pop\n      jump\t// out\n        /* \"#utility.yul\":7458:7819   */\n    tag_15:\n        /* \"#utility.yul\":7595:7599   */\n      0x00\n        /* \"#utility.yul\":7633:7635   */\n      0x20\n        /* \"#utility.yul\":7622:7631   */\n      dup3\n        /* \"#utility.yul\":7618:7636   */\n      add\n        /* \"#utility.yul\":7610:7636   */\n      swap1\n      pop\n        /* \"#utility.yul\":7682:7691   */\n      dup2\n        /* \"#utility.yul\":7676:7680   */\n      dup2\n        /* \"#utility.yul\":7672:7692   */\n      sub\n        /* \"#utility.yul\":7668:7669   */\n      0x00\n        /* \"#utility.yul\":7657:7666   */\n      dup4\n        /* \"#utility.yul\":7653:7670   */\n      add\n        /* \"#utility.yul\":7646:7693   */\n      mstore\n        /* \"#utility.yul\":7710:7812   */\n      tag_261\n        /* \"#utility.yul\":7807:7811   */\n      dup2\n        /* \"#utility.yul\":7798:7804   */\n      dup5\n        /* \"#utility.yul\":7710:7812   */\n      tag_155\n      jump\t// in\n    tag_261:\n        /* \"#utility.yul\":7702:7812   */\n      swap1\n      pop\n        /* \"#utility.yul\":7458:7819   */\n      swap3\n      swap2\n      pop\n      pop\n      jump\t// out\n        /* \"#utility.yul\":7825:7943   */\n    tag_156:\n        /* \"#utility.yul\":7912:7936   */\n      tag_263\n        /* \"#utility.yul\":7930:7935   */\n      dup2\n        /* \"#utility.yul\":7912:7936   */\n      tag_153\n      jump\t// in\n    tag_263:\n        /* \"#utility.yul\":7907:7910   */\n      dup3\n        /* \"#utility.yul\":7900:7937   */\n      mstore\n        /* \"#utility.yul\":7825:7943   */\n      pop\n      pop\n      jump\t// out\n        /* \"#utility.yul\":7949:8171   */\n    tag_20:\n        /* \"#utility.yul\":8042:8046   */\n      0x00\n        /* \"#utility.yul\":8080:8082   */\n      0x20\n        /* \"#utility.yul\":8069:8078   */\n      dup3\n        /* \"#utility.yul\":8065:8083   */\n      add\n        /* \"#utility.yul\":8057:8083   */\n      swap1\n      pop\n        /* \"#utility.yul\":8093:8164   */\n      tag_265\n        /* \"#utility.yul\":8161:8162   */\n      0x00\n        /* \"#utility.yul\":8150:8159   */\n      dup4\n        /* \"#utility.yul\":8146:8163   */\n      add\n        /* \"#utility.yul\":8137:8143   */\n      dup5\n        /* \"#utility.yul\":8093:8164   */\n      tag_156\n      jump\t// in\n    tag_265:\n        /* \"#utility.yul\":7949:8171   */\n      swap3\n      swap2\n      pop\n      pop\n      jump\t// out\n        /* \"#utility.yul\":8177:8346   */\n    tag_157:\n        /* \"#utility.yul\":8261:8272   */\n      0x00\n        /* \"#utility.yul\":8295:8301   */\n      dup3\n        /* \"#utility.yul\":8290:8293   */\n      dup3\n        /* \"#utility.yul\":8283:8302   */\n      mstore\n        /* \"#utility.yul\":8335:8339   */\n      0x20\n        /* \"#utility.yul\":8330:8333   */\n      dup3\n        /* \"#utility.yul\":8326:8340   */\n      add\n        /* \"#utility.yul\":8311:8340   */\n      swap1\n      pop\n        /* \"#utility.yul\":8177:8346   */\n      swap3\n      swap2\n      pop\n      pop\n      jump\t// out\n        /* \"#utility.yul\":8352:8729   */\n    tag_158:\n        /* \"#utility.yul\":8440:8443   */\n      0x00\n        /* \"#utility.yul\":8468:8507   */\n      tag_268\n        /* \"#utility.yul\":8501:8506   */\n      dup3\n        /* \"#utility.yul\":8468:8507   */\n      tag_148\n      jump\t// in\n    tag_268:\n        /* \"#utility.yul\":8523:8594   */\n      tag_269\n        /* \"#utility.yul\":8587:8593   */\n      dup2\n        /* \"#utility.yul\":8582:8585   */\n      dup6\n        /* \"#utility.yul\":8523:8594   */\n      tag_157\n      jump\t// in\n    tag_269:\n        /* \"#utility.yul\":8516:8594   */\n      swap4\n      pop\n        /* \"#utility.yul\":8603:8668   */\n      tag_270\n        /* \"#utility.yul\":8661:8667   */\n      dup2\n        /* \"#utility.yul\":8656:8659   */\n      dup6\n        /* \"#utility.yul\":8649:8653   */\n      0x20\n        /* \"#utility.yul\":8642:8647   */\n      dup7\n        /* \"#utility.yul\":8638:8654   */\n      add\n        /* \"#utility.yul\":8603:8668   */\n      tag_150\n      jump\t// in\n    tag_270:\n        /* \"#utility.yul\":8693:8722   */\n      tag_271\n        /* \"#utility.yul\":8715:8721   */\n      dup2\n        /* \"#utility.yul\":8693:8722   */\n      tag_141\n      jump\t// in\n    tag_271:\n        /* \"#utility.yul\":8688:8691   */\n      dup5\n        /* \"#utility.yul\":8684:8723   */\n      add\n        /* \"#utility.yul\":8677:8723   */\n      swap2\n      pop\n        /* \"#utility.yul\":8444:8729   */\n      pop\n        /* \"#utility.yul\":8352:8729   */\n      swap3\n      swap2\n      pop\n      pop\n      jump\t// out\n        /* \"#utility.yul\":8735:9048   */\n    tag_25:\n        /* \"#utility.yul\":8848:8852   */\n      0x00\n        /* \"#utility.yul\":8886:8888   */\n      0x20\n        /* \"#utility.yul\":8875:8884   */\n      dup3\n        /* \"#utility.yul\":8871:8889   */\n      add\n        /* \"#utility.yul\":8863:8889   */\n      swap1\n      pop\n        /* \"#utility.yul\":8935:8944   */\n      dup2\n        /* \"#utility.yul\":8929:8933   */\n      dup2\n        /* \"#utility.yul\":8925:8945   */\n      sub\n        /* \"#utility.yul\":8921:8922   */\n      0x00\n        /* \"#utility.yul\":8910:8919   */\n      dup4\n        /* \"#utility.yul\":8906:8923   */\n      add\n        /* \"#utility.yul\":8899:8946   */\n      mstore\n        /* \"#utility.yul\":8963:9041   */\n      tag_273\n        /* \"#utility.yul\":9036:9040   */\n      dup2\n        /* \"#utility.yul\":9027:9033   */\n      dup5\n        /* \"#utility.yul\":8963:9041   */\n      tag_158\n      jump\t// in\n    tag_273:\n        /* \"#utility.yul\":8955:9041   */\n      swap1\n      pop\n        /* \"#utility.yul\":8735:9048   */\n      swap3\n      swap2\n      pop\n      pop\n      jump\t// out\n        /* \"#utility.yul\":9054:9190   */\n    tag_159:\n        /* \"#utility.yul\":9143:9149   */\n      0x00\n        /* \"#utility.yul\":9177:9182   */\n      dup2\n        /* \"#utility.yul\":9171:9183   */\n      mload\n        /* \"#utility.yul\":9161:9183   */\n      swap1\n      pop\n        /* \"#utility.yul\":9054:9190   */\n      swap2\n      swap1\n      pop\n      jump\t// out\n        /* \"#utility.yul\":9196:9402   */\n    tag_160:\n        /* \"#utility.yul\":9317:9328   */\n      0x00\n        /* \"#utility.yul\":9351:9357   */\n      dup3\n        /* \"#utility.yul\":9346:9349   */\n      dup3\n        /* \"#utility.yul\":9339:9358   */\n      mstore\n        /* \"#utility.yul\":9391:9395   */\n      0x20\n        /* \"#utility.yul\":9386:9389   */\n      dup3\n        /* \"#utility.yul\":9382:9396   */\n      add\n        /* \"#utility.yul\":9367:9396   */\n      swap1\n      pop\n        /* \"#utility.yul\":9196:9402   */\n      swap3\n      swap2\n      pop\n      pop\n      jump\t// out\n        /* \"#utility.yul\":9408:9562   */\n    tag_161:\n        /* \"#utility.yul\":9497:9501   */\n      0x00\n        /* \"#utility.yul\":9520:9523   */\n      dup2\n        /* \"#utility.yul\":9512:9523   */\n      swap1\n      pop\n        /* \"#utility.yul\":9550:9554   */\n      0x20\n        /* \"#utility.yul\":9545:9548   */\n      dup3\n        /* \"#utility.yul\":9541:9555   */\n      add\n        /* \"#utility.yul\":9533:9555   */\n      swap1\n      pop\n        /* \"#utility.yul\":9408:9562   */\n      swap2\n      swap1\n      pop\n      jump\t// out\n        /* \"#utility.yul\":9640:11512   */\n    tag_162:\n        /* \"#utility.yul\":9743:9746   */\n      0x00\n        /* \"#utility.yul\":9779:9783   */\n      0xe0\n        /* \"#utility.yul\":9774:9777   */\n      dup4\n        /* \"#utility.yul\":9770:9784   */\n      add\n        /* \"#utility.yul\":9875:9879   */\n      0x00\n        /* \"#utility.yul\":9868:9873   */\n      dup4\n        /* \"#utility.yul\":9864:9880   */\n      add\n        /* \"#utility.yul\":9858:9881   */\n      mload\n        /* \"#utility.yul\":9928:9931   */\n      dup5\n        /* \"#utility.yul\":9922:9926   */\n      dup3\n        /* \"#utility.yul\":9918:9932   */\n      sub\n        /* \"#utility.yul\":9911:9915   */\n      0x00\n        /* \"#utility.yul\":9906:9909   */\n      dup7\n        /* \"#utility.yul\":9902:9916   */\n      add\n        /* \"#utility.yul\":9895:9933   */\n      mstore\n        /* \"#utility.yul\":9954:10027   */\n      tag_278\n        /* \"#utility.yul\":10022:10026   */\n      dup3\n        /* \"#utility.yul\":10008:10020   */\n      dup3\n        /* \"#utility.yul\":9954:10027   */\n      tag_151\n      jump\t// in\n    tag_278:\n        /* \"#utility.yul\":9946:10027   */\n      swap2\n      pop\n        /* \"#utility.yul\":9794:10038   */\n      pop\n        /* \"#utility.yul\":10132:10136   */\n      0x20\n        /* \"#utility.yul\":10125:10130   */\n      dup4\n        /* \"#utility.yul\":10121:10137   */\n      add\n        /* \"#utility.yul\":10115:10138   */\n      mload\n        /* \"#utility.yul\":10151:10214   */\n      tag_279\n        /* \"#utility.yul\":10208:10212   */\n      0x20\n        /* \"#utility.yul\":10203:10206   */\n      dup7\n        /* \"#utility.yul\":10199:10213   */\n      add\n        /* \"#utility.yul\":10185:10197   */\n      dup3\n        /* \"#utility.yul\":10151:10214   */\n      tag_154\n      jump\t// in\n    tag_279:\n        /* \"#utility.yul\":10048:10224   */\n      pop\n        /* \"#utility.yul\":10314:10318   */\n      0x40\n        /* \"#utility.yul\":10307:10312   */\n      dup4\n        /* \"#utility.yul\":10303:10319   */\n      add\n        /* \"#utility.yul\":10297:10320   */\n      mload\n        /* \"#utility.yul\":10367:10370   */\n      dup5\n        /* \"#utility.yul\":10361:10365   */\n      dup3\n        /* \"#utility.yul\":10357:10371   */\n      sub\n        /* \"#utility.yul\":10350:10354   */\n      0x40\n        /* \"#utility.yul\":10345:10348   */\n      dup7\n        /* \"#utility.yul\":10341:10355   */\n      add\n        /* \"#utility.yul\":10334:10372   */\n      mstore\n        /* \"#utility.yul\":10393:10466   */\n      tag_280\n        /* \"#utility.yul\":10461:10465   */\n      dup3\n        /* \"#utility.yul\":10447:10459   */\n      dup3\n        /* \"#utility.yul\":10393:10466   */\n      tag_151\n      jump\t// in\n    tag_280:\n        /* \"#utility.yul\":10385:10466   */\n      swap2\n      pop\n        /* \"#utility.yul\":10234:10477   */\n      pop\n        /* \"#utility.yul\":10565:10569   */\n      0x60\n        /* \"#utility.yul\":10558:10563   */\n      dup4\n        /* \"#utility.yul\":10554:10570   */\n      add\n        /* \"#utility.yul\":10548:10571   */\n      mload\n        /* \"#utility.yul\":10618:10621   */\n      dup5\n        /* \"#utility.yul\":10612:10616   */\n      dup3\n        /* \"#utility.yul\":10608:10622   */\n      sub\n        /* \"#utility.yul\":10601:10605   */\n      0x60\n        /* \"#utility.yul\":10596:10599   */\n      dup7\n        /* \"#utility.yul\":10592:10606   */\n      add\n        /* \"#utility.yul\":10585:10623   */\n      mstore\n        /* \"#utility.yul\":10644:10717   */\n      tag_281\n        /* \"#utility.yul\":10712:10716   */\n      dup3\n        /* \"#utility.yul\":10698:10710   */\n      dup3\n        /* \"#utility.yul\":10644:10717   */\n      tag_151\n      jump\t// in\n    tag_281:\n        /* \"#utility.yul\":10636:10717   */\n      swap2\n      pop\n        /* \"#utility.yul\":10487:10728   */\n      pop\n        /* \"#utility.yul\":10819:10823   */\n      0x80\n        /* \"#utility.yul\":10812:10817   */\n      dup4\n        /* \"#utility.yul\":10808:10824   */\n      add\n        /* \"#utility.yul\":10802:10825   */\n      mload\n        /* \"#utility.yul\":10872:10875   */\n      dup5\n        /* \"#utility.yul\":10866:10870   */\n      dup3\n        /* \"#utility.yul\":10862:10876   */\n      sub\n        /* \"#utility.yul\":10855:10859   */\n      0x80\n        /* \"#utility.yul\":10850:10853   */\n      dup7\n        /* \"#utility.yul\":10846:10860   */\n      add\n        /* \"#utility.yul\":10839:10877   */\n      mstore\n        /* \"#utility.yul\":10898:10971   */\n      tag_282\n        /* \"#utility.yul\":10966:10970   */\n      dup3\n        /* \"#utility.yul\":10952:10964   */\n      dup3\n        /* \"#utility.yul\":10898:10971   */\n      tag_151\n      jump\t// in\n    tag_282:\n        /* \"#utility.yul\":10890:10971   */\n      swap2\n      pop\n        /* \"#utility.yul\":10738:10982   */\n      pop\n        /* \"#utility.yul\":11075:11079   */\n      0xa0\n        /* \"#utility.yul\":11068:11073   */\n      dup4\n        /* \"#utility.yul\":11064:11080   */\n      add\n        /* \"#utility.yul\":11058:11081   */\n      mload\n        /* \"#utility.yul\":11128:11131   */\n      dup5\n        /* \"#utility.yul\":11122:11126   */\n      dup3\n        /* \"#utility.yul\":11118:11132   */\n      sub\n        /* \"#utility.yul\":11111:11115   */\n      0xa0\n        /* \"#utility.yul\":11106:11109   */\n      dup7\n        /* \"#utility.yul\":11102:11116   */\n      add\n        /* \"#utility.yul\":11095:11133   */\n      mstore\n        /* \"#utility.yul\":11154:11227   */\n      tag_283\n        /* \"#utility.yul\":11222:11226   */\n      dup3\n        /* \"#utility.yul\":11208:11220   */\n      dup3\n        /* \"#utility.yul\":11154:11227   */\n      tag_151\n      jump\t// in\n    tag_283:\n        /* \"#utility.yul\":11146:11227   */\n      swap2\n      pop\n        /* \"#utility.yul\":10992:11238   */\n      pop\n        /* \"#utility.yul\":11322:11326   */\n      0xc0\n        /* \"#utility.yul\":11315:11320   */\n      dup4\n        /* \"#utility.yul\":11311:11327   */\n      add\n        /* \"#utility.yul\":11305:11328   */\n      mload\n        /* \"#utility.yul\":11375:11378   */\n      dup5\n        /* \"#utility.yul\":11369:11373   */\n      dup3\n        /* \"#utility.yul\":11365:11379   */\n      sub\n        /* \"#utility.yul\":11358:11362   */\n      0xc0\n        /* \"#utility.yul\":11353:11356   */\n      dup7\n        /* \"#utility.yul\":11349:11363   */\n      add\n        /* \"#utility.yul\":11342:11380   */\n      mstore\n        /* \"#utility.yul\":11401:11474   */\n      tag_284\n        /* \"#utility.yul\":11469:11473   */\n      dup3\n        /* \"#utility.yul\":11455:11467   */\n      dup3\n        /* \"#utility.yul\":11401:11474   */\n      tag_151\n      jump\t// in\n    tag_284:\n        /* \"#utility.yul\":11393:11474   */\n      swap2\n      pop\n        /* \"#utility.yul\":11248:11485   */\n      pop\n        /* \"#utility.yul\":11502:11506   */\n      dup1\n        /* \"#utility.yul\":11495:11506   */\n      swap2\n      pop\n        /* \"#utility.yul\":9748:11512   */\n      pop\n        /* \"#utility.yul\":9640:11512   */\n      swap3\n      swap2\n      pop\n      pop\n      jump\t// out\n        /* \"#utility.yul\":11518:11762   */\n    tag_163:\n        /* \"#utility.yul\":11631:11641   */\n      0x00\n        /* \"#utility.yul\":11666:11756   */\n      tag_286\n        /* \"#utility.yul\":11752:11755   */\n      dup4\n        /* \"#utility.yul\":11744:11750   */\n      dup4\n        /* \"#utility.yul\":11666:11756   */\n      tag_162\n      jump\t// in\n    tag_286:\n        /* \"#utility.yul\":11652:11756   */\n      swap1\n      pop\n        /* \"#utility.yul\":11518:11762   */\n      swap3\n      swap2\n      pop\n      pop\n      jump\t// out\n        /* \"#utility.yul\":11768:11903   */\n    tag_164:\n        /* \"#utility.yul\":11860:11864   */\n      0x00\n        /* \"#utility.yul\":11892:11896   */\n      0x20\n        /* \"#utility.yul\":11887:11890   */\n      dup3\n        /* \"#utility.yul\":11883:11897   */\n      add\n        /* \"#utility.yul\":11875:11897   */\n      swap1\n      pop\n        /* \"#utility.yul\":11768:11903   */\n      swap2\n      swap1\n      pop\n      jump\t// out\n        /* \"#utility.yul\":11985:13072   */\n    tag_165:\n        /* \"#utility.yul\":12148:12151   */\n      0x00\n        /* \"#utility.yul\":12177:12253   */\n      tag_289\n        /* \"#utility.yul\":12247:12252   */\n      dup3\n        /* \"#utility.yul\":12177:12253   */\n      tag_159\n      jump\t// in\n    tag_289:\n        /* \"#utility.yul\":12269:12377   */\n      tag_290\n        /* \"#utility.yul\":12370:12376   */\n      dup2\n        /* \"#utility.yul\":12365:12368   */\n      dup6\n        /* \"#utility.yul\":12269:12377   */\n      tag_160\n      jump\t// in\n    tag_290:\n        /* \"#utility.yul\":12262:12377   */\n      swap4\n      pop\n        /* \"#utility.yul\":12403:12406   */\n      dup4\n        /* \"#utility.yul\":12448:12452   */\n      0x20\n        /* \"#utility.yul\":12440:12446   */\n      dup3\n        /* \"#utility.yul\":12436:12453   */\n      mul\n        /* \"#utility.yul\":12431:12434   */\n      dup6\n        /* \"#utility.yul\":12427:12454   */\n      add\n        /* \"#utility.yul\":12478:12556   */\n      tag_291\n        /* \"#utility.yul\":12550:12555   */\n      dup6\n        /* \"#utility.yul\":12478:12556   */\n      tag_161\n      jump\t// in\n    tag_291:\n        /* \"#utility.yul\":12579:12586   */\n      dup1\n        /* \"#utility.yul\":12610:12611   */\n      0x00\n        /* \"#utility.yul\":12595:13027   */\n    tag_292:\n        /* \"#utility.yul\":12620:12626   */\n      dup6\n        /* \"#utility.yul\":12617:12618   */\n      dup2\n        /* \"#utility.yul\":12614:12627   */\n      lt\n        /* \"#utility.yul\":12595:13027   */\n      iszero\n      tag_294\n      jumpi\n        /* \"#utility.yul\":12691:12700   */\n      dup5\n        /* \"#utility.yul\":12685:12689   */\n      dup5\n        /* \"#utility.yul\":12681:12701   */\n      sub\n        /* \"#utility.yul\":12676:12679   */\n      dup10\n        /* \"#utility.yul\":12669:12702   */\n      mstore\n        /* \"#utility.yul\":12742:12748   */\n      dup2\n        /* \"#utility.yul\":12736:12749   */\n      mload\n        /* \"#utility.yul\":12770:12878   */\n      tag_295\n        /* \"#utility.yul\":12873:12877   */\n      dup6\n        /* \"#utility.yul\":12858:12871   */\n      dup3\n        /* \"#utility.yul\":12770:12878   */\n      tag_163\n      jump\t// in\n    tag_295:\n        /* \"#utility.yul\":12762:12878   */\n      swap5\n      pop\n        /* \"#utility.yul\":12901:12983   */\n      tag_296\n        /* \"#utility.yul\":12976:12982   */\n      dup4\n        /* \"#utility.yul\":12901:12983   */\n      tag_164\n      jump\t// in\n    tag_296:\n        /* \"#utility.yul\":12891:12983   */\n      swap3\n      pop\n        /* \"#utility.yul\":13012:13016   */\n      0x20\n        /* \"#utility.yul\":13007:13010   */\n      dup11\n        /* \"#utility.yul\":13003:13017   */\n      add\n        /* \"#utility.yul\":12996:13017   */\n      swap10\n      pop\n        /* \"#utility.yul\":12655:13027   */\n      pop\n        /* \"#utility.yul\":12642:12643   */\n      0x01\n        /* \"#utility.yul\":12639:12640   */\n      dup2\n        /* \"#utility.yul\":12635:12644   */\n      add\n        /* \"#utility.yul\":12630:12644   */\n      swap1\n      pop\n        /* \"#utility.yul\":12595:13027   */\n      jump(tag_292)\n    tag_294:\n        /* \"#utility.yul\":12599:12613   */\n      pop\n        /* \"#utility.yul\":13043:13047   */\n      dup3\n        /* \"#utility.yul\":13036:13047   */\n      swap8\n      pop\n        /* \"#utility.yul\":13063:13066   */\n      dup8\n        /* \"#utility.yul\":13056:13066   */\n      swap6\n      pop\n        /* \"#utility.yul\":12153:13072   */\n      pop\n      pop\n      pop\n      pop\n      pop\n        /* \"#utility.yul\":11985:13072   */\n      swap3\n      swap2\n      pop\n      pop\n      jump\t// out\n        /* \"#utility.yul\":13078:13539   */\n    tag_30:\n        /* \"#utility.yul\":13265:13269   */\n      0x00\n        /* \"#utility.yul\":13303:13305   */\n      0x20\n        /* \"#utility.yul\":13292:13301   */\n      dup3\n        /* \"#utility.yul\":13288:13306   */\n      add\n        /* \"#utility.yul\":13280:13306   */\n      swap1\n      pop\n        /* \"#utility.yul\":13352:13361   */\n      dup2\n        /* \"#utility.yul\":13346:13350   */\n      dup2\n        /* \"#utility.yul\":13342:13362   */\n      sub\n        /* \"#utility.yul\":13338:13339   */\n      0x00\n        /* \"#utility.yul\":13327:13336   */\n      dup4\n        /* \"#utility.yul\":13323:13340   */\n      add\n        /* \"#utility.yul\":13316:13363   */\n      mstore\n        /* \"#utility.yul\":13380:13532   */\n      tag_298\n        /* \"#utility.yul\":13527:13531   */\n      dup2\n        /* \"#utility.yul\":13518:13524   */\n      dup5\n        /* \"#utility.yul\":13380:13532   */\n      tag_165\n      jump\t// in\n    tag_298:\n        /* \"#utility.yul\":13372:13532   */\n      swap1\n      pop\n        /* \"#utility.yul\":13078:13539   */\n      swap3\n      swap2\n      pop\n      pop\n      jump\t// out\n        /* \"#utility.yul\":13545:13723   */\n    tag_166:\n        /* \"#utility.yul\":13685:13715   */\n      0x4d757374207061792065786163746c7920302e30312045746865722e00000000\n        /* \"#utility.yul\":13681:13682   */\n      0x00\n        /* \"#utility.yul\":13673:13679   */\n      dup3\n        /* \"#utility.yul\":13669:13683   */\n      add\n        /* \"#utility.yul\":13662:13716   */\n      mstore\n        /* \"#utility.yul\":13545:13723   */\n      pop\n      jump\t// out\n        /* \"#utility.yul\":13729:14095   */\n    tag_167:\n        /* \"#utility.yul\":13871:13874   */\n      0x00\n        /* \"#utility.yul\":13892:13959   */\n      tag_301\n        /* \"#utility.yul\":13956:13958   */\n      0x1c\n        /* \"#utility.yul\":13951:13954   */\n      dup4\n        /* \"#utility.yul\":13892:13959   */\n      tag_157\n      jump\t// in\n    tag_301:\n        /* \"#utility.yul\":13885:13959   */\n      swap2\n      pop\n        /* \"#utility.yul\":13968:14061   */\n      tag_302\n        /* \"#utility.yul\":14057:14060   */\n      dup3\n        /* \"#utility.yul\":13968:14061   */\n      tag_166\n      jump\t// in\n    tag_302:\n        /* \"#utility.yul\":14086:14088   */\n      0x20\n        /* \"#utility.yul\":14081:14084   */\n      dup3\n        /* \"#utility.yul\":14077:14089   */\n      add\n        /* \"#utility.yul\":14070:14089   */\n      swap1\n      pop\n        /* \"#utility.yul\":13729:14095   */\n      swap2\n      swap1\n      pop\n      jump\t// out\n        /* \"#utility.yul\":14101:14520   */\n    tag_34:\n        /* \"#utility.yul\":14267:14271   */\n      0x00\n        /* \"#utility.yul\":14305:14307   */\n      0x20\n        /* \"#utility.yul\":14294:14303   */\n      dup3\n        /* \"#utility.yul\":14290:14308   */\n      add\n        /* \"#utility.yul\":14282:14308   */\n      swap1\n      pop\n        /* \"#utility.yul\":14354:14363   */\n      dup2\n        /* \"#utility.yul\":14348:14352   */\n      dup2\n        /* \"#utility.yul\":14344:14364   */\n      sub\n        /* \"#utility.yul\":14340:14341   */\n      0x00\n        /* \"#utility.yul\":14329:14338   */\n      dup4\n        /* \"#utility.yul\":14325:14342   */\n      add\n        /* \"#utility.yul\":14318:14365   */\n      mstore\n        /* \"#utility.yul\":14382:14513   */\n      tag_304\n        /* \"#utility.yul\":14508:14512   */\n      dup2\n        /* \"#utility.yul\":14382:14513   */\n      tag_167\n      jump\t// in\n    tag_304:\n        /* \"#utility.yul\":14374:14513   */\n      swap1\n      pop\n        /* \"#utility.yul\":14101:14520   */\n      swap2\n      swap1\n      pop\n      jump\t// out\n        /* \"#utility.yul\":14526:14698   */\n    tag_168:\n        /* \"#utility.yul\":14666:14690   */\n      0x506f6c69637920616c7265616479206578697374732e00000000000000000000\n        /* \"#utility.yul\":14662:14663   */\n      0x00\n        /* \"#utility.yul\":14654:14660   */\n      dup3\n        /* \"#utility.yul\":14650:14664   */\n      add\n        /* \"#utility.yul\":14643:14691   */\n      mstore\n        /* \"#utility.yul\":14526:14698   */\n      pop\n      jump\t// out\n        /* \"#utility.yul\":14704:15070   */\n    tag_169:\n        /* \"#utility.yul\":14846:14849   */\n      0x00\n        /* \"#utility.yul\":14867:14934   */\n      tag_307\n        /* \"#utility.yul\":14931:14933   */\n      0x16\n        /* \"#utility.yul\":14926:14929   */\n      dup4\n        /* \"#utility.yul\":14867:14934   */\n      tag_157\n      jump\t// in\n    tag_307:\n        /* \"#utility.yul\":14860:14934   */\n      swap2\n      pop\n        /* \"#utility.yul\":14943:15036   */\n      tag_308\n        /* \"#utility.yul\":15032:15035   */\n      dup3\n        /* \"#utility.yul\":14943:15036   */\n      tag_168\n      jump\t// in\n    tag_308:\n        /* \"#utility.yul\":15061:15063   */\n      0x20\n        /* \"#utility.yul\":15056:15059   */\n      dup3\n        /* \"#utility.yul\":15052:15064   */\n      add\n        /* \"#utility.yul\":15045:15064   */\n      swap1\n      pop\n        /* \"#utility.yul\":14704:15070   */\n      swap2\n      swap1\n      pop\n      jump\t// out\n        /* \"#utility.yul\":15076:15495   */\n    tag_37:\n        /* \"#utility.yul\":15242:15246   */\n      0x00\n        /* \"#utility.yul\":15280:15282   */\n      0x20\n        /* \"#utility.yul\":15269:15278   */\n      dup3\n        /* \"#utility.yul\":15265:15283   */\n      add\n        /* \"#utility.yul\":15257:15283   */\n      swap1\n      pop\n        /* \"#utility.yul\":15329:15338   */\n      dup2\n        /* \"#utility.yul\":15323:15327   */\n      dup2\n        /* \"#utility.yul\":15319:15339   */\n      sub\n        /* \"#utility.yul\":15315:15316   */\n      0x00\n        /* \"#utility.yul\":15304:15313   */\n      dup4\n        /* \"#utility.yul\":15300:15317   */\n      add\n        /* \"#utility.yul\":15293:15340   */\n      mstore\n        /* \"#utility.yul\":15357:15488   */\n      tag_310\n        /* \"#utility.yul\":15483:15487   */\n      dup2\n        /* \"#utility.yul\":15357:15488   */\n      tag_169\n      jump\t// in\n    tag_310:\n        /* \"#utility.yul\":15349:15488   */\n      swap1\n      pop\n        /* \"#utility.yul\":15076:15495   */\n      swap2\n      swap1\n      pop\n      jump\t// out\n        /* \"#utility.yul\":15501:15681   */\n    tag_170:\n        /* \"#utility.yul\":15549:15626   */\n      0x4e487b7100000000000000000000000000000000000000000000000000000000\n        /* \"#utility.yul\":15546:15547   */\n      0x00\n        /* \"#utility.yul\":15539:15627   */\n      mstore\n        /* \"#utility.yul\":15646:15650   */\n      0x22\n        /* \"#utility.yul\":15643:15644   */\n      0x04\n        /* \"#utility.yul\":15636:15651   */\n      mstore\n        /* \"#utility.yul\":15670:15674   */\n      0x24\n        /* \"#utility.yul\":15667:15668   */\n      0x00\n        /* \"#utility.yul\":15660:15675   */\n      revert\n        /* \"#utility.yul\":15687:16007   */\n    tag_55:\n        /* \"#utility.yul\":15731:15737   */\n      0x00\n        /* \"#utility.yul\":15768:15769   */\n      0x02\n        /* \"#utility.yul\":15762:15766   */\n      dup3\n        /* \"#utility.yul\":15758:15770   */\n      div\n        /* \"#utility.yul\":15748:15770   */\n      swap1\n      pop\n        /* \"#utility.yul\":15815:15816   */\n      0x01\n        /* \"#utility.yul\":15809:15813   */\n      dup3\n        /* \"#utility.yul\":15805:15817   */\n      and\n        /* \"#utility.yul\":15836:15854   */\n      dup1\n        /* \"#utility.yul\":15826:15907   */\n      tag_313\n      jumpi\n        /* \"#utility.yul\":15892:15896   */\n      0x7f\n        /* \"#utility.yul\":15884:15890   */\n      dup3\n        /* \"#utility.yul\":15880:15897   */\n      and\n        /* \"#utility.yul\":15870:15897   */\n      swap2\n      pop\n        /* \"#utility.yul\":15826:15907   */\n    tag_313:\n        /* \"#utility.yul\":15954:15956   */\n      0x20\n        /* \"#utility.yul\":15946:15952   */\n      dup3\n        /* \"#utility.yul\":15943:15957   */\n      lt\n        /* \"#utility.yul\":15923:15941   */\n      dup2\n        /* \"#utility.yul\":15920:15958   */\n      sub\n        /* \"#utility.yul\":15917:16001   */\n      tag_314\n      jumpi\n        /* \"#utility.yul\":15973:15991   */\n      tag_315\n      tag_170\n      jump\t// in\n    tag_315:\n        /* \"#utility.yul\":15917:16001   */\n    tag_314:\n        /* \"#utility.yul\":15738:16007   */\n      pop\n        /* \"#utility.yul\":15687:16007   */\n      swap2\n      swap1\n      pop\n      jump\t// out\n        /* \"#utility.yul\":16013:16154   */\n    tag_171:\n        /* \"#utility.yul\":16062:16066   */\n      0x00\n        /* \"#utility.yul\":16085:16088   */\n      dup2\n        /* \"#utility.yul\":16077:16088   */\n      swap1\n      pop\n        /* \"#utility.yul\":16108:16111   */\n      dup2\n        /* \"#utility.yul\":16105:16106   */\n      0x00\n        /* \"#utility.yul\":16098:16112   */\n      mstore\n        /* \"#utility.yul\":16142:16146   */\n      0x20\n        /* \"#utility.yul\":16139:16140   */\n      0x00\n        /* \"#utility.yul\":16129:16147   */\n      keccak256\n        /* \"#utility.yul\":16121:16147   */\n      swap1\n      pop\n        /* \"#utility.yul\":16013:16154   */\n      swap2\n      swap1\n      pop\n      jump\t// out\n        /* \"#utility.yul\":16160:16253   */\n    tag_172:\n        /* \"#utility.yul\":16197:16203   */\n      0x00\n        /* \"#utility.yul\":16244:16246   */\n      0x20\n        /* \"#utility.yul\":16239:16241   */\n      0x1f\n        /* \"#utility.yul\":16232:16237   */\n      dup4\n        /* \"#utility.yul\":16228:16242   */\n      add\n        /* \"#utility.yul\":16224:16247   */\n      div\n        /* \"#utility.yul\":16214:16247   */\n      swap1\n      pop\n        /* \"#utility.yul\":16160:16253   */\n      swap2\n      swap1\n      pop\n      jump\t// out\n        /* \"#utility.yul\":16259:16366   */\n    tag_173:\n        /* \"#utility.yul\":16303:16311   */\n      0x00\n        /* \"#utility.yul\":16353:16358   */\n      dup3\n        /* \"#utility.yul\":16347:16351   */\n      dup3\n        /* \"#utility.yul\":16343:16359   */\n      shl\n        /* \"#utility.yul\":16322:16359   */\n      swap1\n      pop\n        /* \"#utility.yul\":16259:16366   */\n      swap3\n      swap2\n      pop\n      pop\n      jump\t// out\n        /* \"#utility.yul\":16372:16765   */\n    tag_174:\n        /* \"#utility.yul\":16441:16447   */\n      0x00\n        /* \"#utility.yul\":16491:16492   */\n      0x08\n        /* \"#utility.yul\":16479:16489   */\n      dup4\n        /* \"#utility.yul\":16475:16493   */\n      mul\n        /* \"#utility.yul\":16514:16611   */\n      tag_320\n        /* \"#utility.yul\":16544:16610   */\n      0xffffffffffffffffffffffffffffffffffffffffffffffffffffffffffffffff\n        /* \"#utility.yul\":16533:16542   */\n      dup3\n        /* \"#utility.yul\":16514:16611   */\n      tag_173\n      jump\t// in\n    tag_320:\n        /* \"#utility.yul\":16632:16671   */\n      tag_321\n        /* \"#utility.yul\":16662:16670   */\n      dup7\n        /* \"#utility.yul\":16651:16660   */\n      dup4\n        /* \"#utility.yul\":16632:16671   */\n      tag_173\n      jump\t// in\n    tag_321:\n        /* \"#utility.yul\":16620:16671   */\n      swap6\n      pop\n        /* \"#utility.yul\":16704:16708   */\n      dup1\n        /* \"#utility.yul\":16700:16709   */\n      not\n        /* \"#utility.yul\":16693:16698   */\n      dup5\n        /* \"#utility.yul\":16689:16710   */\n      and\n        /* \"#utility.yul\":16680:16710   */\n      swap4\n      pop\n        /* \"#utility.yul\":16753:16757   */\n      dup1\n        /* \"#utility.yul\":16743:16751   */\n      dup7\n        /* \"#utility.yul\":16739:16758   */\n      and\n        /* \"#utility.yul\":16732:16737   */\n      dup5\n        /* \"#utility.yul\":16729:16759   */\n      or\n        /* \"#utility.yul\":16719:16759   */\n      swap3\n      pop\n        /* \"#utility.yul\":16448:16765   */\n      pop\n      pop\n        /* \"#utility.yul\":16372:16765   */\n      swap4\n      swap3\n      pop\n      pop\n      pop\n      jump\t// out\n        /* \"#utility.yul\":16771:16848   */\n    tag_175:\n        /* \"#utility.yul\":16808:16815   */\n      0x00\n        /* \"#utility.yul\":16837:16842   */\n      dup2\n        /* \"#utility.yul\":16826:16842   */\n      swap1\n      pop\n        /* \"#utility.yul\":16771:16848   */\n      swap2\n      swap1\n      pop\n      jump\t// out\n        /* \"#utility.yul\":16854:16914   */\n    tag_176:\n        /* \"#utility.yul\":16882:16885   */\n      0x00\n        /* \"#utility.yul\":16903:16908   */\n      dup2\n        /* \"#utility.yul\":16896:16908   */\n      swap1\n      pop\n        /* \"#utility.yul\":16854:16914   */\n      swap2\n      swap1\n      pop\n      jump\t// out\n        /* \"#utility.yul\":16920:17062   */\n    tag_177:\n        /* \"#utility.yul\":16970:16979   */\n      0x00\n        /* \"#utility.yul\":17003:17056   */\n      tag_325\n        /* \"#utility.yul\":17021:17055   */\n      tag_326\n        /* \"#utility.yul\":17030:17054   */\n      tag_327\n        /* \"#utility.yul\":17048:17053   */\n      dup5\n        /* \"#utility.yul\":17030:17054   */\n      tag_175\n      jump\t// in\n    tag_327:\n        /* \"#utility.yul\":17021:17055   */\n      tag_176\n      jump\t// in\n    tag_326:\n        /* \"#utility.yul\":17003:17056   */\n      tag_175\n      jump\t// in\n    tag_325:\n        /* \"#utility.yul\":16990:17056   */\n      swap1\n      pop\n        /* \"#utility.yul\":16920:17062   */\n      swap2\n      swap1\n      pop\n      jump\t// out\n        /* \"#utility.yul\":17068:17143   */\n    tag_178:\n        /* \"#utility.yul\":17111:17114   */\n      0x00\n        /* \"#utility.yul\":17132:17137   */\n      dup2\n        /* \"#utility.yul\":17125:17137   */\n      swap1\n      pop\n        /* \"#utility.yul\":17068:17143   */\n      swap2\n      swap1\n      pop\n      jump\t// out\n        /* \"#utility.yul\":17149:17418   */\n    tag_179:\n        /* \"#utility.yul\":17259:17298   */\n      tag_330\n        /* \"#utility.yul\":17290:17297   */\n      dup4\n        /* \"#utility.yul\":17259:17298   */\n      tag_177\n      jump\t// in\n    tag_330:\n        /* \"#utility.yul\":17320:17411   */\n      tag_331\n        /* \"#utility.yul\":17369:17410   */\n      tag_332\n        /* \"#utility.yul\":17393:17409   */\n      dup3\n        /* \"#utility.yul\":17369:17410   */\n      tag_178\n      jump\t// in\n    tag_332:\n        /* \"#utility.yul\":17361:17367   */\n      dup5\n        /* \"#utility.yul\":17354:17358   */\n      dup5\n        /* \"#utility.yul\":17348:17359   */\n      sload\n        /* \"#utility.yul\":17320:17411   */\n      tag_174\n      jump\t// in\n    tag_331:\n        /* \"#utility.yul\":17314:17318   */\n      dup3\n        /* \"#utility.yul\":17307:17412   */\n      sstore\n        /* \"#utility.yul\":17225:17418   */\n      pop\n        /* \"#utility.yul\":17149:17418   */\n      pop\n      pop\n      pop\n      jump\t// out\n        /* \"#utility.yul\":17424:17497   */\n    tag_180:\n        /* \"#utility.yul\":17469:17472   */\n      0x00\n        /* \"#utility.yul\":17424:17497   */\n      swap1\n      jump\t// out\n        /* \"#utility.yul\":17503:17692   */\n    tag_181:\n        /* \"#utility.yul\":17580:17612   */\n      tag_335\n      tag_180\n      jump\t// in\n    tag_335:\n        /* \"#utility.yul\":17621:17686   */\n      tag_336\n        /* \"#utility.yul\":17679:17685   */\n      dup2\n        /* \"#utility.yul\":17671:17677   */\n      dup5\n        /* \"#utility.yul\":17665:17669   */\n      dup5\n        /* \"#utility.yul\":17621:17686   */\n      tag_179\n      jump\t// in\n    tag_336:\n        /* \"#utility.yul\":17556:17692   */\n      pop\n        /* \"#utility.yul\":17503:17692   */\n      pop\n      pop\n      jump\t// out\n        /* \"#utility.yul\":17698:17884   */\n    tag_182:\n        /* \"#utility.yul\":17758:17878   */\n    tag_338:\n        /* \"#utility.yul\":17775:17778   */\n      dup2\n        /* \"#utility.yul\":17768:17773   */\n      dup2\n        /* \"#utility.yul\":17765:17779   */\n      lt\n        /* \"#utility.yul\":17758:17878   */\n      iszero\n      tag_340\n      jumpi\n        /* \"#utility.yul\":17829:17868   */\n      tag_341\n        /* \"#utility.yul\":17866:17867   */\n      0x00\n        /* \"#utility.yul\":17859:17864   */\n      dup3\n        /* \"#utility.yul\":17829:17868   */\n      tag_181\n      jump\t// in\n    tag_341:\n        /* \"#utility.yul\":17802:17803   */\n      0x01\n        /* \"#utility.yul\":17795:17800   */\n      dup2\n        /* \"#utility.yul\":17791:17804   */\n      add\n        /* \"#utility.yul\":17782:17804   */\n      swap1\n      pop\n        /* \"#utility.yul\":17758:17878   */\n      jump(tag_338)\n    tag_340:\n        /* \"#utility.yul\":17698:17884   */\n      pop\n      pop\n      jump\t// out\n        /* \"#utility.yul\":17890:18433   */\n    tag_183:\n        /* \"#utility.yul\":17991:17993   */\n      0x1f\n        /* \"#utility.yul\":17986:17989   */\n      dup3\n        /* \"#utility.yul\":17983:17994   */\n      gt\n        /* \"#utility.yul\":17980:18426   */\n      iszero\n      tag_343\n      jumpi\n        /* \"#utility.yul\":18025:18063   */\n      tag_344\n        /* \"#utility.yul\":18057:18062   */\n      dup2\n        /* \"#utility.yul\":18025:18063   */\n      tag_171\n      jump\t// in\n    tag_344:\n        /* \"#utility.yul\":18109:18138   */\n      tag_345\n        /* \"#utility.yul\":18127:18137   */\n      dup5\n        /* \"#utility.yul\":18109:18138   */\n      tag_172\n      jump\t// in\n    tag_345:\n        /* \"#utility.yul\":18099:18107   */\n      dup2\n        /* \"#utility.yul\":18095:18139   */\n      add\n        /* \"#utility.yul\":18292:18294   */\n      0x20\n        /* \"#utility.yul\":18280:18290   */\n      dup6\n        /* \"#utility.yul\":18277:18295   */\n      lt\n        /* \"#utility.yul\":18274:18323   */\n      iszero\n      tag_346\n      jumpi\n        /* \"#utility.yul\":18313:18321   */\n      dup2\n        /* \"#utility.yul\":18298:18321   */\n      swap1\n      pop\n        /* \"#utility.yul\":18274:18323   */\n    tag_346:\n        /* \"#utility.yul\":18336:18416   */\n      tag_347\n        /* \"#utility.yul\":18392:18414   */\n      tag_348\n        /* \"#utility.yul\":18410:18413   */\n      dup6\n        /* \"#utility.yul\":18392:18414   */\n      tag_172\n      jump\t// in\n    tag_348:\n        /* \"#utility.yul\":18382:18390   */\n      dup4\n        /* \"#utility.yul\":18378:18415   */\n      add\n        /* \"#utility.yul\":18365:18376   */\n      dup3\n        /* \"#utility.yul\":18336:18416   */\n      tag_182\n      jump\t// in\n    tag_347:\n        /* \"#utility.yul\":17995:18426   */\n      pop\n      pop\n        /* \"#utility.yul\":17980:18426   */\n    tag_343:\n        /* \"#utility.yul\":17890:18433   */\n      pop\n      pop\n      pop\n      jump\t// out\n        /* \"#utility.yul\":18439:18556   */\n    tag_184:\n        /* \"#utility.yul\":18493:18501   */\n      0x00\n        /* \"#utility.yul\":18543:18548   */\n      dup3\n        /* \"#utility.yul\":18537:18541   */\n      dup3\n        /* \"#utility.yul\":18533:18549   */\n      shr\n        /* \"#utility.yul\":18512:18549   */\n      swap1\n      pop\n        /* \"#utility.yul\":18439:18556   */\n      swap3\n      swap2\n      pop\n      pop\n      jump\t// out\n        /* \"#utility.yul\":18562:18731   */\n    tag_185:\n        /* \"#utility.yul\":18606:18612   */\n      0x00\n        /* \"#utility.yul\":18639:18690   */\n      tag_351\n        /* \"#utility.yul\":18687:18688   */\n      0x00\n        /* \"#utility.yul\":18683:18689   */\n      not\n        /* \"#utility.yul\":18675:18680   */\n      dup5\n        /* \"#utility.yul\":18672:18673   */\n      0x08\n        /* \"#utility.yul\":18668:18681   */\n      mul\n        /* \"#utility.yul\":18639:18690   */\n      tag_184\n      jump\t// in\n    tag_351:\n        /* \"#utility.yul\":18635:18691   */\n      not\n        /* \"#utility.yul\":18720:18724   */\n      dup1\n        /* \"#utility.yul\":18714:18718   */\n      dup4\n        /* \"#utility.yul\":18710:18725   */\n      and\n        /* \"#utility.yul\":18700:18725   */\n      swap2\n      pop\n        /* \"#utility.yul\":18613:18731   */\n      pop\n        /* \"#utility.yul\":18562:18731   */\n      swap3\n      swap2\n      pop\n      pop\n      jump\t// out\n        /* \"#utility.yul\":18736:19031   */\n    tag_186:\n        /* \"#utility.yul\":18812:18816   */\n      0x00\n        /* \"#utility.yul\":18958:18987   */\n      tag_353\n        /* \"#utility.yul\":18983:18986   */\n      dup4\n        /* \"#utility.yul\":18977:18981   */\n      dup4\n        /* \"#utility.yul\":18958:18987   */\n      tag_185\n      jump\t// in\n    tag_353:\n        /* \"#utility.yul\":18950:18987   */\n      swap2\n      pop\n        /* \"#utility.yul\":19020:19023   */\n      dup3\n        /* \"#utility.yul\":19017:19018   */\n      0x02\n        /* \"#utility.yul\":19013:19024   */\n      mul\n        /* \"#utility.yul\":19007:19011   */\n      dup3\n        /* \"#utility.yul\":19004:19025   */\n      or\n        /* \"#utility.yul\":18996:19025   */\n      swap1\n      pop\n        /* \"#utility.yul\":18736:19031   */\n      swap3\n      swap2\n      pop\n      pop\n      jump\t// out\n        /* \"#utility.yul\":19036:20431   */\n    tag_39:\n        /* \"#utility.yul\":19153:19190   */\n      tag_355\n        /* \"#utility.yul\":19186:19189   */\n      dup3\n        /* \"#utility.yul\":19153:19190   */\n      tag_148\n      jump\t// in\n    tag_355:\n        /* \"#utility.yul\":19255:19273   */\n      0xffffffffffffffff\n        /* \"#utility.yul\":19247:19253   */\n      dup2\n        /* \"#utility.yul\":19244:19274   */\n      gt\n        /* \"#utility.yul\":19241:19297   */\n      iszero\n      tag_356\n      jumpi\n        /* \"#utility.yul\":19277:19295   */\n      tag_357\n      tag_93\n      jump\t// in\n    tag_357:\n        /* \"#utility.yul\":19241:19297   */\n    tag_356:\n        /* \"#utility.yul\":19321:19359   */\n      tag_358\n        /* \"#utility.yul\":19353:19357   */\n      dup3\n        /* \"#utility.yul\":19347:19358   */\n      sload\n        /* \"#utility.yul\":19321:19359   */\n      tag_55\n      jump\t// in\n    tag_358:\n        /* \"#utility.yul\":19406:19473   */\n      tag_359\n        /* \"#utility.yul\":19466:19472   */\n      dup3\n        /* \"#utility.yul\":19458:19464   */\n      dup3\n        /* \"#utility.yul\":19452:19456   */\n      dup6\n        /* \"#utility.yul\":19406:19473   */\n      tag_183\n      jump\t// in\n    tag_359:\n        /* \"#utility.yul\":19500:19501   */\n      0x00\n        /* \"#utility.yul\":19524:19528   */\n      0x20\n        /* \"#utility.yul\":19511:19528   */\n      swap1\n      pop\n        /* \"#utility.yul\":19556:19558   */\n      0x1f\n        /* \"#utility.yul\":19548:19554   */\n      dup4\n        /* \"#utility.yul\":19545:19559   */\n      gt\n        /* \"#utility.yul\":19573:19574   */\n      0x01\n        /* \"#utility.yul\":19568:20186   */\n      dup2\n      eq\n      tag_361\n      jumpi\n        /* \"#utility.yul\":20230:20231   */\n      0x00\n        /* \"#utility.yul\":20247:20253   */\n      dup5\n        /* \"#utility.yul\":20244:20321   */\n      iszero\n      tag_362\n      jumpi\n        /* \"#utility.yul\":20296:20305   */\n      dup3\n        /* \"#utility.yul\":20291:20294   */\n      dup8\n        /* \"#utility.yul\":20287:20306   */\n      add\n        /* \"#utility.yul\":20281:20307   */\n      mload\n        /* \"#utility.yul\":20272:20307   */\n      swap1\n      pop\n        /* \"#utility.yul\":20244:20321   */\n    tag_362:\n        /* \"#utility.yul\":20347:20414   */\n      tag_363\n        /* \"#utility.yul\":20407:20413   */\n      dup6\n        /* \"#utility.yul\":20400:20405   */\n      dup3\n        /* \"#utility.yul\":20347:20414   */\n      tag_186\n      jump\t// in\n    tag_363:\n        /* \"#utility.yul\":20341:20345   */\n      dup7\n        /* \"#utility.yul\":20334:20415   */\n      sstore\n        /* \"#utility.yul\":20203:20425   */\n      pop\n        /* \"#utility.yul\":19538:20425   */\n      jump(tag_360)\n        /* \"#utility.yul\":19568:20186   */\n    tag_361:\n        /* \"#utility.yul\":19620:19624   */\n      0x1f\n        /* \"#utility.yul\":19616:19625   */\n      not\n        /* \"#utility.yul\":19608:19614   */\n      dup5\n        /* \"#utility.yul\":19604:19626   */\n      and\n        /* \"#utility.yul\":19654:19691   */\n      tag_364\n        /* \"#utility.yul\":19686:19690   */\n      dup7\n        /* \"#utility.yul\":19654:19691   */\n      tag_171\n      jump\t// in\n    tag_364:\n        /* \"#utility.yul\":19713:19714   */\n      0x00\n        /* \"#utility.yul\":19727:19935   */\n    tag_365:\n        /* \"#utility.yul\":19741:19748   */\n      dup3\n        /* \"#utility.yul\":19738:19739   */\n      dup2\n        /* \"#utility.yul\":19735:19749   */\n      lt\n        /* \"#utility.yul\":19727:19935   */\n      iszero\n      tag_367\n      jumpi\n        /* \"#utility.yul\":19820:19829   */\n      dup5\n        /* \"#utility.yul\":19815:19818   */\n      dup10\n        /* \"#utility.yul\":19811:19830   */\n      add\n        /* \"#utility.yul\":19805:19831   */\n      mload\n        /* \"#utility.yul\":19797:19803   */\n      dup3\n        /* \"#utility.yul\":19790:19832   */\n      sstore\n        /* \"#utility.yul\":19871:19872   */\n      0x01\n        /* \"#utility.yul\":19863:19869   */\n      dup3\n        /* \"#utility.yul\":19859:19873   */\n      add\n        /* \"#utility.yul\":19849:19873   */\n      swap2\n      pop\n        /* \"#utility.yul\":19918:19920   */\n      0x20\n        /* \"#utility.yul\":19907:19916   */\n      dup6\n        /* \"#utility.yul\":19903:19921   */\n      add\n        /* \"#utility.yul\":19890:19921   */\n      swap5\n      pop\n        /* \"#utility.yul\":19764:19768   */\n      0x20\n        /* \"#utility.yul\":19761:19762   */\n      dup2\n        /* \"#utility.yul\":19757:19769   */\n      add\n        /* \"#utility.yul\":19752:19769   */\n      swap1\n      pop\n        /* \"#utility.yul\":19727:19935   */\n      jump(tag_365)\n    tag_367:\n        /* \"#utility.yul\":19963:19969   */\n      dup7\n        /* \"#utility.yul\":19954:19961   */\n      dup4\n        /* \"#utility.yul\":19951:19970   */\n      lt\n        /* \"#utility.yul\":19948:20127   */\n      iszero\n      tag_368\n      jumpi\n        /* \"#utility.yul\":20021:20030   */\n      dup5\n        /* \"#utility.yul\":20016:20019   */\n      dup10\n        /* \"#utility.yul\":20012:20031   */\n      add\n        /* \"#utility.yul\":20006:20032   */\n      mload\n        /* \"#utility.yul\":20064:20112   */\n      tag_369\n        /* \"#utility.yul\":20106:20110   */\n      0x1f\n        /* \"#utility.yul\":20098:20104   */\n      dup10\n        /* \"#utility.yul\":20094:20111   */\n      and\n        /* \"#utility.yul\":20083:20092   */\n      dup3\n        /* \"#utility.yul\":20064:20112   */\n      tag_185\n      jump\t// in\n    tag_369:\n        /* \"#utility.yul\":20056:20062   */\n      dup4\n        /* \"#utility.yul\":20049:20113   */\n      sstore\n        /* \"#utility.yul\":19971:20127   */\n      pop\n        /* \"#utility.yul\":19948:20127   */\n    tag_368:\n        /* \"#utility.yul\":20173:20174   */\n      0x01\n        /* \"#utility.yul\":20169:20170   */\n      0x02\n        /* \"#utility.yul\":20161:20167   */\n      dup9\n        /* \"#utility.yul\":20157:20171   */\n      mul\n        /* \"#utility.yul\":20153:20175   */\n      add\n        /* \"#utility.yul\":20147:20151   */\n      dup9\n        /* \"#utility.yul\":20140:20176   */\n      sstore\n        /* \"#utility.yul\":19575:20186   */\n      pop\n      pop\n      pop\n        /* \"#utility.yul\":19538:20425   */\n    tag_360:\n      pop\n        /* \"#utility.yul\":19128:20431   */\n      pop\n      pop\n      pop\n        /* \"#utility.yul\":19036:20431   */\n      pop\n      pop\n      jump\t// out\n        /* \"#utility.yul\":20437:20603   */\n    tag_187:\n        /* \"#utility.yul\":20577:20595   */\n      0x4e6f20706f6c69637920666f756e642e00000000000000000000000000000000\n        /* \"#utility.yul\":20573:20574   */\n      0x00\n        /* \"#utility.yul\":20565:20571   */\n      dup3\n        /* \"#utility.yul\":20561:20575   */\n      add\n        /* \"#utility.yul\":20554:20596   */\n      mstore\n        /* \"#utility.yul\":20437:20603   */\n      pop\n      jump\t// out\n        /* \"#utility.yul\":20609:20975   */\n    tag_188:\n        /* \"#utility.yul\":20751:20754   */\n      0x00\n        /* \"#utility.yul\":20772:20839   */\n      tag_372\n        /* \"#utility.yul\":20836:20838   */\n      0x10\n        /* \"#utility.yul\":20831:20834   */\n      dup4\n        /* \"#utility.yul\":20772:20839   */\n      tag_157\n      jump\t// in\n    tag_372:\n        /* \"#utility.yul\":20765:20839   */\n      swap2\n      pop\n        /* \"#utility.yul\":20848:20941   */\n      tag_373\n        /* \"#utility.yul\":20937:20940   */\n      dup3\n        /* \"#utility.yul\":20848:20941   */\n      tag_187\n      jump\t// in\n    tag_373:\n        /* \"#utility.yul\":20966:20968   */\n      0x20\n        /* \"#utility.yul\":20961:20964   */\n      dup3\n        /* \"#utility.yul\":20957:20969   */\n      add\n        /* \"#utility.yul\":20950:20969   */\n      swap1\n      pop\n        /* \"#utility.yul\":20609:20975   */\n      swap2\n      swap1\n      pop\n      jump\t// out\n        /* \"#utility.yul\":20981:21400   */\n    tag_53:\n        /* \"#utility.yul\":21147:21151   */\n      0x00\n        /* \"#utility.yul\":21185:21187   */\n      0x20\n        /* \"#utility.yul\":21174:21183   */\n      dup3\n        /* \"#utility.yul\":21170:21188   */\n      add\n        /* \"#utility.yul\":21162:21188   */\n      swap1\n      pop\n        /* \"#utility.yul\":21234:21243   */\n      dup2\n        /* \"#utility.yul\":21228:21232   */\n      dup2\n        /* \"#utility.yul\":21224:21244   */\n      sub\n        /* \"#utility.yul\":21220:21221   */\n      0x00\n        /* \"#utility.yul\":21209:21218   */\n      dup4\n        /* \"#utility.yul\":21205:21222   */\n      add\n        /* \"#utility.yul\":21198:21245   */\n      mstore\n        /* \"#utility.yul\":21262:21393   */\n      tag_375\n        /* \"#utility.yul\":21388:21392   */\n      dup2\n        /* \"#utility.yul\":21262:21393   */\n      tag_188\n      jump\t// in\n    tag_375:\n        /* \"#utility.yul\":21254:21393   */\n      swap1\n      pop\n        /* \"#utility.yul\":20981:21400   */\n      swap2\n      swap1\n      pop\n      jump\t// out\n        /* \"#utility.yul\":21406:21588   */\n    tag_189:\n        /* \"#utility.yul\":21546:21580   */\n      0x4f6e6c79207468652070726f76696465722063616e2063616c6c20746869732e\n        /* \"#utility.yul\":21542:21543   */\n      0x00\n        /* \"#utility.yul\":21534:21540   */\n      dup3\n        /* \"#utility.yul\":21530:21544   */\n      add\n        /* \"#utility.yul\":21523:21581   */\n      mstore\n        /* \"#utility.yul\":21406:21588   */\n      pop\n      jump\t// out\n        /* \"#utility.yul\":21594:21960   */\n    tag_190:\n        /* \"#utility.yul\":21736:21739   */\n      0x00\n        /* \"#utility.yul\":21757:21824   */\n      tag_378\n        /* \"#utility.yul\":21821:21823   */\n      0x20\n        /* \"#utility.yul\":21816:21819   */\n      dup4\n        /* \"#utility.yul\":21757:21824   */\n      tag_157\n      jump\t// in\n    tag_378:\n        /* \"#utility.yul\":21750:21824   */\n      swap2\n      pop\n        /* \"#utility.yul\":21833:21926   */\n      tag_379\n        /* \"#utility.yul\":21922:21925   */\n      dup3\n        /* \"#utility.yul\":21833:21926   */\n      tag_189\n      jump\t// in\n    tag_379:\n        /* \"#utility.yul\":21951:21953   */\n      0x20\n        /* \"#utility.yul\":21946:21949   */\n      dup3\n        /* \"#utility.yul\":21942:21954   */\n      add\n        /* \"#utility.yul\":21935:21954   */\n      swap1\n      pop\n        /* \"#utility.yul\":21594:21960   */\n      swap2\n      swap1\n      pop\n      jump\t// out\n        /* \"#utility.yul\":21966:22385   */\n    tag_89:\n        /* \"#utility.yul\":22132:22136   */\n      0x00\n        /* \"#utility.yul\":22170:22172   */\n      0x20\n        /* \"#utility.yul\":22159:22168   */\n      dup3\n        /* \"#utility.yul\":22155:22173   */\n      add\n        /* \"#utility.yul\":22147:22173   */\n      swap1\n      pop\n        /* \"#utility.yul\":22219:22228   */\n      dup2\n        /* \"#utility.yul\":22213:22217   */\n      dup2\n        /* \"#utility.yul\":22209:22229   */\n      sub\n        /* \"#utility.yul\":22205:22206   */\n      0x00\n        /* \"#utility.yul\":22194:22203   */\n      dup4\n        /* \"#utility.yul\":22190:22207   */\n      add\n        /* \"#utility.yul\":22183:22230   */\n      mstore\n        /* \"#utility.yul\":22247:22378   */\n      tag_381\n        /* \"#utility.yul\":22373:22377   */\n      dup2\n        /* \"#utility.yul\":22247:22378   */\n      tag_190\n      jump\t// in\n    tag_381:\n        /* \"#utility.yul\":22239:22378   */\n      swap1\n      pop\n        /* \"#utility.yul\":21966:22385   */\n      swap2\n      swap1\n      pop\n      jump\t// out\n        /* \"#utility.yul\":22391:22571   */\n    tag_102:\n        /* \"#utility.yul\":22439:22516   */\n      0x4e487b7100000000000000000000000000000000000000000000000000000000\n        /* \"#utility.yul\":22436:22437   */\n      0x00\n        /* \"#utility.yul\":22429:22517   */\n      mstore\n        /* \"#utility.yul\":22536:22540   */\n      0x32\n        /* \"#utility.yul\":22533:22534   */\n      0x04\n        /* \"#utility.yul\":22526:22541   */\n      mstore\n        /* \"#utility.yul\":22560:22564   */\n      0x24\n        /* \"#utility.yul\":22557:22558   */\n      0x00\n        /* \"#utility.yul\":22550:22565   */\n      revert\n    stop\n    data_55be4177e9c2f1ac8ed4a1d0704357e09dcdbfd2c7a09f19bf5fd0f459d0f2bf 5072656d69756d3a20302e30312045746865722c20496e64656d6e6974793a20302e30322045746865722c20436f7665726167653a204861696c2c20466c6f6f64\n\n    auxdata: 0xa264697066735822122006049f356263d13802a91622a439e45f1e864409451f84c69be53cdedeed5dbd64736f6c634300081a0033\n}\n",
				"bytecode": {
					"linkReferences": {},
					"object": "6080604052348015600e575f80fd5b50335f806101000a81548173ffffffffffffffffffffffffffffffffffffffff021916908373ffffffffffffffffffffffffffffffffffffffff160217905550611a4e8061005b5f395ff3fe608060405260043610610049575f3560e01c80635d02ed121461004d578063963163bd146100695780639955f67c14610093578063b6fc3b2a146100bd578063c160693d146100e7575b5f80fd5b61006760048036038101906100629190611093565b610111565b005b348015610074575f80fd5b5061007d610477565b60405161008a91906112f1565b60405180910390f35b34801561009e575f80fd5b506100a761094d565b6040516100b49190611320565b60405180910390f35b3480156100c8575f80fd5b506100d1610970565b6040516100de9190611381565b60405180910390f35b3480156100f2575f80fd5b506100fb610990565b6040516101089190611518565b60405180910390f35b662386f26fc10000341461015a576040517f08c379a000000000000000000000000000000000000000000000000000000000815260040161015190611582565b60405180910390fd5b5f73ffffffffffffffffffffffffffffffffffffffff1660015f3373ffffffffffffffffffffffffffffffffffffffff1673ffffffffffffffffffffffffffffffffffffffff1681526020019081526020015f206001015f9054906101000a900473ffffffffffffffffffffffffffffffffffffffff1673ffffffffffffffffffffffffffffffffffffffff1614610227576040517f08c379a000000000000000000000000000000000000000000000000000000000815260040161021e906115ea565b60405180910390fd5b6040518060e001604052808681526020013373ffffffffffffffffffffffffffffffffffffffff1681526020018581526020018481526020018381526020018281526020016040518060400160405280600981526020017f707572636861736564000000000000000000000000000000000000000000000081525081525060015f3373ffffffffffffffffffffffffffffffffffffffff1673ffffffffffffffffffffffffffffffffffffffff1681526020019081526020015f205f820151815f0190816102f5919061180b565b506020820151816001015f6101000a81548173ffffffffffffffffffffffffffffffffffffffff021916908373ffffffffffffffffffffffffffffffffffffffff1602179055506040820151816002019081610351919061180b565b506060820151816003019081610367919061180b565b50608082015181600401908161037d919061180b565b5060a0820151816005019081610393919061180b565b5060c08201518160060190816103a9919061180b565b50905050600233908060018154018082558091505060019003905f5260205f20015f9091909190916101000a81548173ffffffffffffffffffffffffffffffffffffffff021916908373ffffffffffffffffffffffffffffffffffffffff1602179055505f8054906101000a900473ffffffffffffffffffffffffffffffffffffffff1673ffffffffffffffffffffffffffffffffffffffff166108fc3490811502906040515f60405180830381858888f1935050505015801561046f573d5f803e3d5ffd5b505050505050565b61047f610ef4565b5f73ffffffffffffffffffffffffffffffffffffffff1660015f3373ffffffffffffffffffffffffffffffffffffffff1673ffffffffffffffffffffffffffffffffffffffff1681526020019081526020015f206001015f9054906101000a900473ffffffffffffffffffffffffffffffffffffffff1673ffffffffffffffffffffffffffffffffffffffff160361054c576040517f08c379a000000000000000000000000000000000000000000000000000000000815260040161054390611924565b60405180910390fd5b60015f3373ffffffffffffffffffffffffffffffffffffffff1673ffffffffffffffffffffffffffffffffffffffff1681526020019081526020015f206040518060e00160405290815f820180546105a390611635565b80601f01602080910402602001604051908101604052809291908181526020018280546105cf90611635565b801561061a5780601f106105f15761010080835404028352916020019161061a565b820191905f5260205f20905b8154815290600101906020018083116105fd57829003601f168201915b50505050508152602001600182015f9054906101000a900473ffffffffffffffffffffffffffffffffffffffff1673ffffffffffffffffffffffffffffffffffffffff1673ffffffffffffffffffffffffffffffffffffffff16815260200160028201805461068890611635565b80601f01602080910402602001604051908101604052809291908181526020018280546106b490611635565b80156106ff5780601f106106d6576101008083540402835291602001916106ff565b820191905f5260205f20905b8154815290600101906020018083116106e257829003601f168201915b5050505050815260200160038201805461071890611635565b80601f016020809104026020016040519081016040528092919081815260200182805461074490611635565b801561078f5780601f106107665761010080835404028352916020019161078f565b820191905f5260205f20905b81548152906001019060200180831161077257829003601f168201915b505050505081526020016004820180546107a890611635565b80601f01602080910402602001604051908101604052809291908181526020018280546107d490611635565b801561081f5780601f106107f65761010080835404028352916020019161081f565b820191905f5260205f20905b81548152906001019060200180831161080257829003601f168201915b5050505050815260200160058201805461083890611635565b80601f016020809104026020016040519081016040528092919081815260200182805461086490611635565b80156108af5780601f10610886576101008083540402835291602001916108af565b820191905f5260205f20905b81548152906001019060200180831161089257829003601f168201915b505050505081526020016006820180546108c890611635565b80601f01602080910402602001604051908101604052809291908181526020018280546108f490611635565b801561093f5780601f106109165761010080835404028352916020019161093f565b820191905f5260205f20905b81548152906001019060200180831161092257829003601f168201915b505050505081525050905090565b5f8054906101000a900473ffffffffffffffffffffffffffffffffffffffff1681565b60606040518060800160405280604181526020016119d860419139905090565b60605f8054906101000a900473ffffffffffffffffffffffffffffffffffffffff1673ffffffffffffffffffffffffffffffffffffffff163373ffffffffffffffffffffffffffffffffffffffff1614610a1f576040517f08c379a0000000000000000000000000000000000000000000000000000000008152600401610a169061198c565b60405180910390fd5b5f60028054905067ffffffffffffffff811115610a3f57610a3e610f6f565b5b604051908082528060200260200182016040528015610a7857816020015b610a65610ef4565b815260200190600190039081610a5d5790505b5090505f5b600280549050811015610eec5760015f60028381548110610aa157610aa06119aa565b5b905f5260205f20015f9054906101000a900473ffffffffffffffffffffffffffffffffffffffff1673ffffffffffffffffffffffffffffffffffffffff1673ffffffffffffffffffffffffffffffffffffffff1681526020019081526020015f206040518060e00160405290815f82018054610b1c90611635565b80601f0160208091040260200160405190810160405280929190818152602001828054610b4890611635565b8015610b935780601f10610b6a57610100808354040283529160200191610b93565b820191905f5260205f20905b815481529060010190602001808311610b7657829003601f168201915b50505050508152602001600182015f9054906101000a900473ffffffffffffffffffffffffffffffffffffffff1673ffffffffffffffffffffffffffffffffffffffff1673ffffffffffffffffffffffffffffffffffffffff168152602001600282018054610c0190611635565b80601f0160208091040260200160405190810160405280929190818152602001828054610c2d90611635565b8015610c785780601f10610c4f57610100808354040283529160200191610c78565b820191905f5260205f20905b815481529060010190602001808311610c5b57829003601f168201915b50505050508152602001600382018054610c9190611635565b80601f0160208091040260200160405190810160405280929190818152602001828054610cbd90611635565b8015610d085780601f10610cdf57610100808354040283529160200191610d08565b820191905f5260205f20905b815481529060010190602001808311610ceb57829003601f168201915b50505050508152602001600482018054610d2190611635565b80601f0160208091040260200160405190810160405280929190818152602001828054610d4d90611635565b8015610d985780601f10610d6f57610100808354040283529160200191610d98565b820191905f5260205f20905b815481529060010190602001808311610d7b57829003601f168201915b50505050508152602001600582018054610db190611635565b80601f0160208091040260200160405190810160405280929190818152602001828054610ddd90611635565b8015610e285780601f10610dff57610100808354040283529160200191610e28565b820191905f5260205f20905b815481529060010190602001808311610e0b57829003601f168201915b50505050508152602001600682018054610e4190611635565b80601f0160208091040260200160405190810160405280929190818152602001828054610e6d90611635565b8015610eb85780601f10610e8f57610100808354040283529160200191610eb8565b820191905f5260205f20905b815481529060010190602001808311610e9b57829003601f168201915b505050505081525050828281518110610ed457610ed36119aa565b5b60200260200101819052508080600101915050610a7d565b508091505090565b6040518060e00160405280606081526020015f73ffffffffffffffffffffffffffffffffffffffff16815260200160608152602001606081526020016060815260200160608152602001606081525090565b5f604051905090565b5f80fd5b5f80fd5b5f80fd5b5f80fd5b5f601f19601f8301169050919050565b7f4e487b71000000000000000000000000000000000000000000000000000000005f52604160045260245ffd5b610fa582610f5f565b810181811067ffffffffffffffff82111715610fc457610fc3610f6f565b5b80604052505050565b5f610fd6610f46565b9050610fe28282610f9c565b919050565b5f67ffffffffffffffff82111561100157611000610f6f565b5b61100a82610f5f565b9050602081019050919050565b828183375f83830152505050565b5f61103761103284610fe7565b610fcd565b90508281526020810184848401111561105357611052610f5b565b5b61105e848285611017565b509392505050565b5f82601f83011261107a57611079610f57565b5b813561108a848260208601611025565b91505092915050565b5f805f805f60a086880312156110ac576110ab610f4f565b5b5f86013567ffffffffffffffff8111156110c9576110c8610f53565b5b6110d588828901611066565b955050602086013567ffffffffffffffff8111156110f6576110f5610f53565b5b61110288828901611066565b945050604086013567ffffffffffffffff81111561112357611122610f53565b5b61112f88828901611066565b935050606086013567ffffffffffffffff8111156111505761114f610f53565b5b61115c88828901611066565b925050608086013567ffffffffffffffff81111561117d5761117c610f53565b5b61118988828901611066565b9150509295509295909350565b5f81519050919050565b5f82825260208201905092915050565b8281835e5f83830152505050565b5f6111c882611196565b6111d281856111a0565b93506111e28185602086016111b0565b6111eb81610f5f565b840191505092915050565b5f73ffffffffffffffffffffffffffffffffffffffff82169050919050565b5f61121f826111f6565b9050919050565b61122f81611215565b82525050565b5f60e083015f8301518482035f86015261124f82826111be565b91505060208301516112646020860182611226565b506040830151848203604086015261127c82826111be565b9150506060830151848203606086015261129682826111be565b915050608083015184820360808601526112b082826111be565b91505060a083015184820360a08601526112ca82826111be565b91505060c083015184820360c08601526112e482826111be565b9150508091505092915050565b5f6020820190508181035f8301526113098184611235565b905092915050565b61131a81611215565b82525050565b5f6020820190506113335f830184611311565b92915050565b5f82825260208201905092915050565b5f61135382611196565b61135d8185611339565b935061136d8185602086016111b0565b61137681610f5f565b840191505092915050565b5f6020820190508181035f8301526113998184611349565b905092915050565b5f81519050919050565b5f82825260208201905092915050565b5f819050602082019050919050565b5f60e083015f8301518482035f8601526113e482826111be565b91505060208301516113f96020860182611226565b506040830151848203604086015261141182826111be565b9150506060830151848203606086015261142b82826111be565b9150506080830151848203608086015261144582826111be565b91505060a083015184820360a086015261145f82826111be565b91505060c083015184820360c086015261147982826111be565b9150508091505092915050565b5f61149183836113ca565b905092915050565b5f602082019050919050565b5f6114af826113a1565b6114b981856113ab565b9350836020820285016114cb856113bb565b805f5b8581101561150657848403895281516114e78582611486565b94506114f283611499565b925060208a019950506001810190506114ce565b50829750879550505050505092915050565b5f6020820190508181035f83015261153081846114a5565b905092915050565b7f4d757374207061792065786163746c7920302e30312045746865722e000000005f82015250565b5f61156c601c83611339565b915061157782611538565b602082019050919050565b5f6020820190508181035f83015261159981611560565b9050919050565b7f506f6c69637920616c7265616479206578697374732e000000000000000000005f82015250565b5f6115d4601683611339565b91506115df826115a0565b602082019050919050565b5f6020820190508181035f830152611601816115c8565b9050919050565b7f4e487b71000000000000000000000000000000000000000000000000000000005f52602260045260245ffd5b5f600282049050600182168061164c57607f821691505b60208210810361165f5761165e611608565b5b50919050565b5f819050815f5260205f209050919050565b5f6020601f8301049050919050565b5f82821b905092915050565b5f600883026116c17fffffffffffffffffffffffffffffffffffffffffffffffffffffffffffffffff82611686565b6116cb8683611686565b95508019841693508086168417925050509392505050565b5f819050919050565b5f819050919050565b5f61170f61170a611705846116e3565b6116ec565b6116e3565b9050919050565b5f819050919050565b611728836116f5565b61173c61173482611716565b848454611692565b825550505050565b5f90565b611750611744565b61175b81848461171f565b505050565b5b8181101561177e576117735f82611748565b600181019050611761565b5050565b601f8211156117c35761179481611665565b61179d84611677565b810160208510156117ac578190505b6117c06117b885611677565b830182611760565b50505b505050565b5f82821c905092915050565b5f6117e35f19846008026117c8565b1980831691505092915050565b5f6117fb83836117d4565b9150826002028217905092915050565b61181482611196565b67ffffffffffffffff81111561182d5761182c610f6f565b5b6118378254611635565b611842828285611782565b5f60209050601f831160018114611873575f8415611861578287015190505b61186b85826117f0565b8655506118d2565b601f19841661188186611665565b5f5b828110156118a857848901518255600182019150602085019450602081019050611883565b868310156118c557848901516118c1601f8916826117d4565b8355505b6001600288020188555050505b505050505050565b7f4e6f20706f6c69637920666f756e642e000000000000000000000000000000005f82015250565b5f61190e601083611339565b9150611919826118da565b602082019050919050565b5f6020820190508181035f83015261193b81611902565b9050919050565b7f4f6e6c79207468652070726f76696465722063616e2063616c6c20746869732e5f82015250565b5f611976602083611339565b915061198182611942565b602082019050919050565b5f6020820190508181035f8301526119a38161196a565b9050919050565b7f4e487b71000000000000000000000000000000000000000000000000000000005f52603260045260245ffdfe5072656d69756d3a20302e30312045746865722c20496e64656d6e6974793a20302e30322045746865722c20436f7665726167653a204861696c2c20466c6f6f64a264697066735822122006049f356263d13802a91622a439e45f1e864409451f84c69be53cdedeed5dbd64736f6c634300081a0033",
					"opcodes": "PUSH1 0x80 PUSH1 0x40 MSTORE CALLVALUE DUP1 ISZERO PUSH1 0xE JUMPI PUSH0 DUP1 REVERT JUMPDEST POP CALLER PUSH0 DUP1 PUSH2 0x100 EXP DUP2 SLOAD DUP2 PUSH20 0xFFFFFFFFFFFFFFFFFFFFFFFFFFFFFFFFFFFFFFFF MUL NOT AND SWAP1 DUP4 PUSH20 0xFFFFFFFFFFFFFFFFFFFFFFFFFFFFFFFFFFFFFFFF AND MUL OR SWAP1 SSTORE POP PUSH2 0x1A4E DUP1 PUSH2 0x5B PUSH0 CODECOPY PUSH0 RETURN INVALID PUSH1 0x80 PUSH1 0x40 MSTORE PUSH1 0x4 CALLDATASIZE LT PUSH2 0x49 JUMPI PUSH0 CALLDATALOAD PUSH1 0xE0 SHR DUP1 PUSH4 0x5D02ED12 EQ PUSH2 0x4D JUMPI DUP1 PUSH4 0x963163BD EQ PUSH2 0x69 JUMPI DUP1 PUSH4 0x9955F67C EQ PUSH2 0x93 JUMPI DUP1 PUSH4 0xB6FC3B2A EQ PUSH2 0xBD JUMPI DUP1 PUSH4 0xC160693D EQ PUSH2 0xE7 JUMPI JUMPDEST PUSH0 DUP1 REVERT JUMPDEST PUSH2 0x67 PUSH1 0x4 DUP1 CALLDATASIZE SUB DUP2 ADD SWAP1 PUSH2 0x62 SWAP2 SWAP1 PUSH2 0x1093 JUMP JUMPDEST PUSH2 0x111 JUMP JUMPDEST STOP JUMPDEST CALLVALUE DUP1 ISZERO PUSH2 0x74 JUMPI PUSH0 DUP1 REVERT JUMPDEST POP PUSH2 0x7D PUSH2 0x477 JUMP JUMPDEST PUSH1 0x40 MLOAD PUSH2 0x8A SWAP2 SWAP1 PUSH2 0x12F1 JUMP JUMPDEST PUSH1 0x40 MLOAD DUP1 SWAP2 SUB SWAP1 RETURN JUMPDEST CALLVALUE DUP1 ISZERO PUSH2 0x9E JUMPI PUSH0 DUP1 REVERT JUMPDEST POP PUSH2 0xA7 PUSH2 0x94D JUMP JUMPDEST PUSH1 0x40 MLOAD PUSH2 0xB4 SWAP2 SWAP1 PUSH2 0x1320 JUMP JUMPDEST PUSH1 0x40 MLOAD DUP1 SWAP2 SUB SWAP1 RETURN JUMPDEST CALLVALUE DUP1 ISZERO PUSH2 0xC8 JUMPI PUSH0 DUP1 REVERT JUMPDEST POP PUSH2 0xD1 PUSH2 0x970 JUMP JUMPDEST PUSH1 0x40 MLOAD PUSH2 0xDE SWAP2 SWAP1 PUSH2 0x1381 JUMP JUMPDEST PUSH1 0x40 MLOAD DUP1 SWAP2 SUB SWAP1 RETURN JUMPDEST CALLVALUE DUP1 ISZERO PUSH2 0xF2 JUMPI PUSH0 DUP1 REVERT JUMPDEST POP PUSH2 0xFB PUSH2 0x990 JUMP JUMPDEST PUSH1 0x40 MLOAD PUSH2 0x108 SWAP2 SWAP1 PUSH2 0x1518 JUMP JUMPDEST PUSH1 0x40 MLOAD DUP1 SWAP2 SUB SWAP1 RETURN JUMPDEST PUSH7 0x2386F26FC10000 CALLVALUE EQ PUSH2 0x15A JUMPI PUSH1 0x40 MLOAD PUSH32 0x8C379A000000000000000000000000000000000000000000000000000000000 DUP2 MSTORE PUSH1 0x4 ADD PUSH2 0x151 SWAP1 PUSH2 0x1582 JUMP JUMPDEST PUSH1 0x40 MLOAD DUP1 SWAP2 SUB SWAP1 REVERT JUMPDEST PUSH0 PUSH20 0xFFFFFFFFFFFFFFFFFFFFFFFFFFFFFFFFFFFFFFFF AND PUSH1 0x1 PUSH0 CALLER PUSH20 0xFFFFFFFFFFFFFFFFFFFFFFFFFFFFFFFFFFFFFFFF AND PUSH20 0xFFFFFFFFFFFFFFFFFFFFFFFFFFFFFFFFFFFFFFFF AND DUP2 MSTORE PUSH1 0x20 ADD SWAP1 DUP2 MSTORE PUSH1 0x20 ADD PUSH0 KECCAK256 PUSH1 0x1 ADD PUSH0 SWAP1 SLOAD SWAP1 PUSH2 0x100 EXP SWAP1 DIV PUSH20 0xFFFFFFFFFFFFFFFFFFFFFFFFFFFFFFFFFFFFFFFF AND PUSH20 0xFFFFFFFFFFFFFFFFFFFFFFFFFFFFFFFFFFFFFFFF AND EQ PUSH2 0x227 JUMPI PUSH1 0x40 MLOAD PUSH32 0x8C379A000000000000000000000000000000000000000000000000000000000 DUP2 MSTORE PUSH1 0x4 ADD PUSH2 0x21E SWAP1 PUSH2 0x15EA JUMP JUMPDEST PUSH1 0x40 MLOAD DUP1 SWAP2 SUB SWAP1 REVERT JUMPDEST PUSH1 0x40 MLOAD DUP1 PUSH1 0xE0 ADD PUSH1 0x40 MSTORE DUP1 DUP7 DUP2 MSTORE PUSH1 0x20 ADD CALLER PUSH20 0xFFFFFFFFFFFFFFFFFFFFFFFFFFFFFFFFFFFFFFFF AND DUP2 MSTORE PUSH1 0x20 ADD DUP6 DUP2 MSTORE PUSH1 0x20 ADD DUP5 DUP2 MSTORE PUSH1 0x20 ADD DUP4 DUP2 MSTORE PUSH1 0x20 ADD DUP3 DUP2 MSTORE PUSH1 0x20 ADD PUSH1 0x40 MLOAD DUP1 PUSH1 0x40 ADD PUSH1 0x40 MSTORE DUP1 PUSH1 0x9 DUP2 MSTORE PUSH1 0x20 ADD PUSH32 0x7075726368617365640000000000000000000000000000000000000000000000 DUP2 MSTORE POP DUP2 MSTORE POP PUSH1 0x1 PUSH0 CALLER PUSH20 0xFFFFFFFFFFFFFFFFFFFFFFFFFFFFFFFFFFFFFFFF AND PUSH20 0xFFFFFFFFFFFFFFFFFFFFFFFFFFFFFFFFFFFFFFFF AND DUP2 MSTORE PUSH1 0x20 ADD SWAP1 DUP2 MSTORE PUSH1 0x20 ADD PUSH0 KECCAK256 PUSH0 DUP3 ADD MLOAD DUP2 PUSH0 ADD SWAP1 DUP2 PUSH2 0x2F5 SWAP2 SWAP1 PUSH2 0x180B JUMP JUMPDEST POP PUSH1 0x20 DUP3 ADD MLOAD DUP2 PUSH1 0x1 ADD PUSH0 PUSH2 0x100 EXP DUP2 SLOAD DUP2 PUSH20 0xFFFFFFFFFFFFFFFFFFFFFFFFFFFFFFFFFFFFFFFF MUL NOT AND SWAP1 DUP4 PUSH20 0xFFFFFFFFFFFFFFFFFFFFFFFFFFFFFFFFFFFFFFFF AND MUL OR SWAP1 SSTORE POP PUSH1 0x40 DUP3 ADD MLOAD DUP2 PUSH1 0x2 ADD SWAP1 DUP2 PUSH2 0x351 SWAP2 SWAP1 PUSH2 0x180B JUMP JUMPDEST POP PUSH1 0x60 DUP3 ADD MLOAD DUP2 PUSH1 0x3 ADD SWAP1 DUP2 PUSH2 0x367 SWAP2 SWAP1 PUSH2 0x180B JUMP JUMPDEST POP PUSH1 0x80 DUP3 ADD MLOAD DUP2 PUSH1 0x4 ADD SWAP1 DUP2 PUSH2 0x37D SWAP2 SWAP1 PUSH2 0x180B JUMP JUMPDEST POP PUSH1 0xA0 DUP3 ADD MLOAD DUP2 PUSH1 0x5 ADD SWAP1 DUP2 PUSH2 0x393 SWAP2 SWAP1 PUSH2 0x180B JUMP JUMPDEST POP PUSH1 0xC0 DUP3 ADD MLOAD DUP2 PUSH1 0x6 ADD SWAP1 DUP2 PUSH2 0x3A9 SWAP2 SWAP1 PUSH2 0x180B JUMP JUMPDEST POP SWAP1 POP POP PUSH1 0x2 CALLER SWAP1 DUP1 PUSH1 0x1 DUP2 SLOAD ADD DUP1 DUP3 SSTORE DUP1 SWAP2 POP POP PUSH1 0x1 SWAP1 SUB SWAP1 PUSH0 MSTORE PUSH1 0x20 PUSH0 KECCAK256 ADD PUSH0 SWAP1 SWAP2 SWAP1 SWAP2 SWAP1 SWAP2 PUSH2 0x100 EXP DUP2 SLOAD DUP2 PUSH20 0xFFFFFFFFFFFFFFFFFFFFFFFFFFFFFFFFFFFFFFFF MUL NOT AND SWAP1 DUP4 PUSH20 0xFFFFFFFFFFFFFFFFFFFFFFFFFFFFFFFFFFFFFFFF AND MUL OR SWAP1 SSTORE POP PUSH0 DUP1 SLOAD SWAP1 PUSH2 0x100 EXP SWAP1 DIV PUSH20 0xFFFFFFFFFFFFFFFFFFFFFFFFFFFFFFFFFFFFFFFF AND PUSH20 0xFFFFFFFFFFFFFFFFFFFFFFFFFFFFFFFFFFFFFFFF AND PUSH2 0x8FC CALLVALUE SWAP1 DUP2 ISZERO MUL SWAP1 PUSH1 0x40 MLOAD PUSH0 PUSH1 0x40 MLOAD DUP1 DUP4 SUB DUP2 DUP6 DUP9 DUP9 CALL SWAP4 POP POP POP POP ISZERO DUP1 ISZERO PUSH2 0x46F JUMPI RETURNDATASIZE PUSH0 DUP1 RETURNDATACOPY RETURNDATASIZE PUSH0 REVERT JUMPDEST POP POP POP POP POP POP JUMP JUMPDEST PUSH2 0x47F PUSH2 0xEF4 JUMP JUMPDEST PUSH0 PUSH20 0xFFFFFFFFFFFFFFFFFFFFFFFFFFFFFFFFFFFFFFFF AND PUSH1 0x1 PUSH0 CALLER PUSH20 0xFFFFFFFFFFFFFFFFFFFFFFFFFFFFFFFFFFFFFFFF AND PUSH20 0xFFFFFFFFFFFFFFFFFFFFFFFFFFFFFFFFFFFFFFFF AND DUP2 MSTORE PUSH1 0x20 ADD SWAP1 DUP2 MSTORE PUSH1 0x20 ADD PUSH0 KECCAK256 PUSH1 0x1 ADD PUSH0 SWAP1 SLOAD SWAP1 PUSH2 0x100 EXP SWAP1 DIV PUSH20 0xFFFFFFFFFFFFFFFFFFFFFFFFFFFFFFFFFFFFFFFF AND PUSH20 0xFFFFFFFFFFFFFFFFFFFFFFFFFFFFFFFFFFFFFFFF AND SUB PUSH2 0x54C JUMPI PUSH1 0x40 MLOAD PUSH32 0x8C379A000000000000000000000000000000000000000000000000000000000 DUP2 MSTORE PUSH1 0x4 ADD PUSH2 0x543 SWAP1 PUSH2 0x1924 JUMP JUMPDEST PUSH1 0x40 MLOAD DUP1 SWAP2 SUB SWAP1 REVERT JUMPDEST PUSH1 0x1 PUSH0 CALLER PUSH20 0xFFFFFFFFFFFFFFFFFFFFFFFFFFFFFFFFFFFFFFFF AND PUSH20 0xFFFFFFFFFFFFFFFFFFFFFFFFFFFFFFFFFFFFFFFF AND DUP2 MSTORE PUSH1 0x20 ADD SWAP1 DUP2 MSTORE PUSH1 0x20 ADD PUSH0 KECCAK256 PUSH1 0x40 MLOAD DUP1 PUSH1 0xE0 ADD PUSH1 0x40 MSTORE SWAP1 DUP2 PUSH0 DUP3 ADD DUP1 SLOAD PUSH2 0x5A3 SWAP1 PUSH2 0x1635 JUMP JUMPDEST DUP1 PUSH1 0x1F ADD PUSH1 0x20 DUP1 SWAP2 DIV MUL PUSH1 0x20 ADD PUSH1 0x40 MLOAD SWAP1 DUP2 ADD PUSH1 0x40 MSTORE DUP1 SWAP3 SWAP2 SWAP1 DUP2 DUP2 MSTORE PUSH1 0x20 ADD DUP3 DUP1 SLOAD PUSH2 0x5CF SWAP1 PUSH2 0x1635 JUMP JUMPDEST DUP1 ISZERO PUSH2 0x61A JUMPI DUP1 PUSH1 0x1F LT PUSH2 0x5F1 JUMPI PUSH2 0x100 DUP1 DUP4 SLOAD DIV MUL DUP4 MSTORE SWAP2 PUSH1 0x20 ADD SWAP2 PUSH2 0x61A JUMP JUMPDEST DUP3 ADD SWAP2 SWAP1 PUSH0 MSTORE PUSH1 0x20 PUSH0 KECCAK256 SWAP1 JUMPDEST DUP2 SLOAD DUP2 MSTORE SWAP1 PUSH1 0x1 ADD SWAP1 PUSH1 0x20 ADD DUP1 DUP4 GT PUSH2 0x5FD JUMPI DUP3 SWAP1 SUB PUSH1 0x1F AND DUP3 ADD SWAP2 JUMPDEST POP POP POP POP POP DUP2 MSTORE PUSH1 0x20 ADD PUSH1 0x1 DUP3 ADD PUSH0 SWAP1 SLOAD SWAP1 PUSH2 0x100 EXP SWAP1 DIV PUSH20 0xFFFFFFFFFFFFFFFFFFFFFFFFFFFFFFFFFFFFFFFF AND PUSH20 0xFFFFFFFFFFFFFFFFFFFFFFFFFFFFFFFFFFFFFFFF AND PUSH20 0xFFFFFFFFFFFFFFFFFFFFFFFFFFFFFFFFFFFFFFFF AND DUP2 MSTORE PUSH1 0x20 ADD PUSH1 0x2 DUP3 ADD DUP1 SLOAD PUSH2 0x688 SWAP1 PUSH2 0x1635 JUMP JUMPDEST DUP1 PUSH1 0x1F ADD PUSH1 0x20 DUP1 SWAP2 DIV MUL PUSH1 0x20 ADD PUSH1 0x40 MLOAD SWAP1 DUP2 ADD PUSH1 0x40 MSTORE DUP1 SWAP3 SWAP2 SWAP1 DUP2 DUP2 MSTORE PUSH1 0x20 ADD DUP3 DUP1 SLOAD PUSH2 0x6B4 SWAP1 PUSH2 0x1635 JUMP JUMPDEST DUP1 ISZERO PUSH2 0x6FF JUMPI DUP1 PUSH1 0x1F LT PUSH2 0x6D6 JUMPI PUSH2 0x100 DUP1 DUP4 SLOAD DIV MUL DUP4 MSTORE SWAP2 PUSH1 0x20 ADD SWAP2 PUSH2 0x6FF JUMP JUMPDEST DUP3 ADD SWAP2 SWAP1 PUSH0 MSTORE PUSH1 0x20 PUSH0 KECCAK256 SWAP1 JUMPDEST DUP2 SLOAD DUP2 MSTORE SWAP1 PUSH1 0x1 ADD SWAP1 PUSH1 0x20 ADD DUP1 DUP4 GT PUSH2 0x6E2 JUMPI DUP3 SWAP1 SUB PUSH1 0x1F AND DUP3 ADD SWAP2 JUMPDEST POP POP POP POP POP DUP2 MSTORE PUSH1 0x20 ADD PUSH1 0x3 DUP3 ADD DUP1 SLOAD PUSH2 0x718 SWAP1 PUSH2 0x1635 JUMP JUMPDEST DUP1 PUSH1 0x1F ADD PUSH1 0x20 DUP1 SWAP2 DIV MUL PUSH1 0x20 ADD PUSH1 0x40 MLOAD SWAP1 DUP2 ADD PUSH1 0x40 MSTORE DUP1 SWAP3 SWAP2 SWAP1 DUP2 DUP2 MSTORE PUSH1 0x20 ADD DUP3 DUP1 SLOAD PUSH2 0x744 SWAP1 PUSH2 0x1635 JUMP JUMPDEST DUP1 ISZERO PUSH2 0x78F JUMPI DUP1 PUSH1 0x1F LT PUSH2 0x766 JUMPI PUSH2 0x100 DUP1 DUP4 SLOAD DIV MUL DUP4 MSTORE SWAP2 PUSH1 0x20 ADD SWAP2 PUSH2 0x78F JUMP JUMPDEST DUP3 ADD SWAP2 SWAP1 PUSH0 MSTORE PUSH1 0x20 PUSH0 KECCAK256 SWAP1 JUMPDEST DUP2 SLOAD DUP2 MSTORE SWAP1 PUSH1 0x1 ADD SWAP1 PUSH1 0x20 ADD DUP1 DUP4 GT PUSH2 0x772 JUMPI DUP3 SWAP1 SUB PUSH1 0x1F AND DUP3 ADD SWAP2 JUMPDEST POP POP POP POP POP DUP2 MSTORE PUSH1 0x20 ADD PUSH1 0x4 DUP3 ADD DUP1 SLOAD PUSH2 0x7A8 SWAP1 PUSH2 0x1635 JUMP JUMPDEST DUP1 PUSH1 0x1F ADD PUSH1 0x20 DUP1 SWAP2 DIV MUL PUSH1 0x20 ADD PUSH1 0x40 MLOAD SWAP1 DUP2 ADD PUSH1 0x40 MSTORE DUP1 SWAP3 SWAP2 SWAP1 DUP2 DUP2 MSTORE PUSH1 0x20 ADD DUP3 DUP1 SLOAD PUSH2 0x7D4 SWAP1 PUSH2 0x1635 JUMP JUMPDEST DUP1 ISZERO PUSH2 0x81F JUMPI DUP1 PUSH1 0x1F LT PUSH2 0x7F6 JUMPI PUSH2 0x100 DUP1 DUP4 SLOAD DIV MUL DUP4 MSTORE SWAP2 PUSH1 0x20 ADD SWAP2 PUSH2 0x81F JUMP JUMPDEST DUP3 ADD SWAP2 SWAP1 PUSH0 MSTORE PUSH1 0x20 PUSH0 KECCAK256 SWAP1 JUMPDEST DUP2 SLOAD DUP2 MSTORE SWAP1 PUSH1 0x1 ADD SWAP1 PUSH1 0x20 ADD DUP1 DUP4 GT PUSH2 0x802 JUMPI DUP3 SWAP1 SUB PUSH1 0x1F AND DUP3 ADD SWAP2 JUMPDEST POP POP POP POP POP DUP2 MSTORE PUSH1 0x20 ADD PUSH1 0x5 DUP3 ADD DUP1 SLOAD PUSH2 0x838 SWAP1 PUSH2 0x1635 JUMP JUMPDEST DUP1 PUSH1 0x1F ADD PUSH1 0x20 DUP1 SWAP2 DIV MUL PUSH1 0x20 ADD PUSH1 0x40 MLOAD SWAP1 DUP2 ADD PUSH1 0x40 MSTORE DUP1 SWAP3 SWAP2 SWAP1 DUP2 DUP2 MSTORE PUSH1 0x20 ADD DUP3 DUP1 SLOAD PUSH2 0x864 SWAP1 PUSH2 0x1635 JUMP JUMPDEST DUP1 ISZERO PUSH2 0x8AF JUMPI DUP1 PUSH1 0x1F LT PUSH2 0x886 JUMPI PUSH2 0x100 DUP1 DUP4 SLOAD DIV MUL DUP4 MSTORE SWAP2 PUSH1 0x20 ADD SWAP2 PUSH2 0x8AF JUMP JUMPDEST DUP3 ADD SWAP2 SWAP1 PUSH0 MSTORE PUSH1 0x20 PUSH0 KECCAK256 SWAP1 JUMPDEST DUP2 SLOAD DUP2 MSTORE SWAP1 PUSH1 0x1 ADD SWAP1 PUSH1 0x20 ADD DUP1 DUP4 GT PUSH2 0x892 JUMPI DUP3 SWAP1 SUB PUSH1 0x1F AND DUP3 ADD SWAP2 JUMPDEST POP POP POP POP POP DUP2 MSTORE PUSH1 0x20 ADD PUSH1 0x6 DUP3 ADD DUP1 SLOAD PUSH2 0x8C8 SWAP1 PUSH2 0x1635 JUMP JUMPDEST DUP1 PUSH1 0x1F ADD PUSH1 0x20 DUP1 SWAP2 DIV MUL PUSH1 0x20 ADD PUSH1 0x40 MLOAD SWAP1 DUP2 ADD PUSH1 0x40 MSTORE DUP1 SWAP3 SWAP2 SWAP1 DUP2 DUP2 MSTORE PUSH1 0x20 ADD DUP3 DUP1 SLOAD PUSH2 0x8F4 SWAP1 PUSH2 0x1635 JUMP JUMPDEST DUP1 ISZERO PUSH2 0x93F JUMPI DUP1 PUSH1 0x1F LT PUSH2 0x916 JUMPI PUSH2 0x100 DUP1 DUP4 SLOAD DIV MUL DUP4 MSTORE SWAP2 PUSH1 0x20 ADD SWAP2 PUSH2 0x93F JUMP JUMPDEST DUP3 ADD SWAP2 SWAP1 PUSH0 MSTORE PUSH1 0x20 PUSH0 KECCAK256 SWAP1 JUMPDEST DUP2 SLOAD DUP2 MSTORE SWAP1 PUSH1 0x1 ADD SWAP1 PUSH1 0x20 ADD DUP1 DUP4 GT PUSH2 0x922 JUMPI DUP3 SWAP1 SUB PUSH1 0x1F AND DUP3 ADD SWAP2 JUMPDEST POP POP POP POP POP DUP2 MSTORE POP POP SWAP1 POP SWAP1 JUMP JUMPDEST PUSH0 DUP1 SLOAD SWAP1 PUSH2 0x100 EXP SWAP1 DIV PUSH20 0xFFFFFFFFFFFFFFFFFFFFFFFFFFFFFFFFFFFFFFFF AND DUP2 JUMP JUMPDEST PUSH1 0x60 PUSH1 0x40 MLOAD DUP1 PUSH1 0x80 ADD PUSH1 0x40 MSTORE DUP1 PUSH1 0x41 DUP2 MSTORE PUSH1 0x20 ADD PUSH2 0x19D8 PUSH1 0x41 SWAP2 CODECOPY SWAP1 POP SWAP1 JUMP JUMPDEST PUSH1 0x60 PUSH0 DUP1 SLOAD SWAP1 PUSH2 0x100 EXP SWAP1 DIV PUSH20 0xFFFFFFFFFFFFFFFFFFFFFFFFFFFFFFFFFFFFFFFF AND PUSH20 0xFFFFFFFFFFFFFFFFFFFFFFFFFFFFFFFFFFFFFFFF AND CALLER PUSH20 0xFFFFFFFFFFFFFFFFFFFFFFFFFFFFFFFFFFFFFFFF AND EQ PUSH2 0xA1F JUMPI PUSH1 0x40 MLOAD PUSH32 0x8C379A000000000000000000000000000000000000000000000000000000000 DUP2 MSTORE PUSH1 0x4 ADD PUSH2 0xA16 SWAP1 PUSH2 0x198C JUMP JUMPDEST PUSH1 0x40 MLOAD DUP1 SWAP2 SUB SWAP1 REVERT JUMPDEST PUSH0 PUSH1 0x2 DUP1 SLOAD SWAP1 POP PUSH8 0xFFFFFFFFFFFFFFFF DUP2 GT ISZERO PUSH2 0xA3F JUMPI PUSH2 0xA3E PUSH2 0xF6F JUMP JUMPDEST JUMPDEST PUSH1 0x40 MLOAD SWAP1 DUP1 DUP3 MSTORE DUP1 PUSH1 0x20 MUL PUSH1 0x20 ADD DUP3 ADD PUSH1 0x40 MSTORE DUP1 ISZERO PUSH2 0xA78 JUMPI DUP2 PUSH1 0x20 ADD JUMPDEST PUSH2 0xA65 PUSH2 0xEF4 JUMP JUMPDEST DUP2 MSTORE PUSH1 0x20 ADD SWAP1 PUSH1 0x1 SWAP1 SUB SWAP1 DUP2 PUSH2 0xA5D JUMPI SWAP1 POP JUMPDEST POP SWAP1 POP PUSH0 JUMPDEST PUSH1 0x2 DUP1 SLOAD SWAP1 POP DUP2 LT ISZERO PUSH2 0xEEC JUMPI PUSH1 0x1 PUSH0 PUSH1 0x2 DUP4 DUP2 SLOAD DUP2 LT PUSH2 0xAA1 JUMPI PUSH2 0xAA0 PUSH2 0x19AA JUMP JUMPDEST JUMPDEST SWAP1 PUSH0 MSTORE PUSH1 0x20 PUSH0 KECCAK256 ADD PUSH0 SWAP1 SLOAD SWAP1 PUSH2 0x100 EXP SWAP1 DIV PUSH20 0xFFFFFFFFFFFFFFFFFFFFFFFFFFFFFFFFFFFFFFFF AND PUSH20 0xFFFFFFFFFFFFFFFFFFFFFFFFFFFFFFFFFFFFFFFF AND PUSH20 0xFFFFFFFFFFFFFFFFFFFFFFFFFFFFFFFFFFFFFFFF AND DUP2 MSTORE PUSH1 0x20 ADD SWAP1 DUP2 MSTORE PUSH1 0x20 ADD PUSH0 KECCAK256 PUSH1 0x40 MLOAD DUP1 PUSH1 0xE0 ADD PUSH1 0x40 MSTORE SWAP1 DUP2 PUSH0 DUP3 ADD DUP1 SLOAD PUSH2 0xB1C SWAP1 PUSH2 0x1635 JUMP JUMPDEST DUP1 PUSH1 0x1F ADD PUSH1 0x20 DUP1 SWAP2 DIV MUL PUSH1 0x20 ADD PUSH1 0x40 MLOAD SWAP1 DUP2 ADD PUSH1 0x40 MSTORE DUP1 SWAP3 SWAP2 SWAP1 DUP2 DUP2 MSTORE PUSH1 0x20 ADD DUP3 DUP1 SLOAD PUSH2 0xB48 SWAP1 PUSH2 0x1635 JUMP JUMPDEST DUP1 ISZERO PUSH2 0xB93 JUMPI DUP1 PUSH1 0x1F LT PUSH2 0xB6A JUMPI PUSH2 0x100 DUP1 DUP4 SLOAD DIV MUL DUP4 MSTORE SWAP2 PUSH1 0x20 ADD SWAP2 PUSH2 0xB93 JUMP JUMPDEST DUP3 ADD SWAP2 SWAP1 PUSH0 MSTORE PUSH1 0x20 PUSH0 KECCAK256 SWAP1 JUMPDEST DUP2 SLOAD DUP2 MSTORE SWAP1 PUSH1 0x1 ADD SWAP1 PUSH1 0x20 ADD DUP1 DUP4 GT PUSH2 0xB76 JUMPI DUP3 SWAP1 SUB PUSH1 0x1F AND DUP3 ADD SWAP2 JUMPDEST POP POP POP POP POP DUP2 MSTORE PUSH1 0x20 ADD PUSH1 0x1 DUP3 ADD PUSH0 SWAP1 SLOAD SWAP1 PUSH2 0x100 EXP SWAP1 DIV PUSH20 0xFFFFFFFFFFFFFFFFFFFFFFFFFFFFFFFFFFFFFFFF AND PUSH20 0xFFFFFFFFFFFFFFFFFFFFFFFFFFFFFFFFFFFFFFFF AND PUSH20 0xFFFFFFFFFFFFFFFFFFFFFFFFFFFFFFFFFFFFFFFF AND DUP2 MSTORE PUSH1 0x20 ADD PUSH1 0x2 DUP3 ADD DUP1 SLOAD PUSH2 0xC01 SWAP1 PUSH2 0x1635 JUMP JUMPDEST DUP1 PUSH1 0x1F ADD PUSH1 0x20 DUP1 SWAP2 DIV MUL PUSH1 0x20 ADD PUSH1 0x40 MLOAD SWAP1 DUP2 ADD PUSH1 0x40 MSTORE DUP1 SWAP3 SWAP2 SWAP1 DUP2 DUP2 MSTORE PUSH1 0x20 ADD DUP3 DUP1 SLOAD PUSH2 0xC2D SWAP1 PUSH2 0x1635 JUMP JUMPDEST DUP1 ISZERO PUSH2 0xC78 JUMPI DUP1 PUSH1 0x1F LT PUSH2 0xC4F JUMPI PUSH2 0x100 DUP1 DUP4 SLOAD DIV MUL DUP4 MSTORE SWAP2 PUSH1 0x20 ADD SWAP2 PUSH2 0xC78 JUMP JUMPDEST DUP3 ADD SWAP2 SWAP1 PUSH0 MSTORE PUSH1 0x20 PUSH0 KECCAK256 SWAP1 JUMPDEST DUP2 SLOAD DUP2 MSTORE SWAP1 PUSH1 0x1 ADD SWAP1 PUSH1 0x20 ADD DUP1 DUP4 GT PUSH2 0xC5B JUMPI DUP3 SWAP1 SUB PUSH1 0x1F AND DUP3 ADD SWAP2 JUMPDEST POP POP POP POP POP DUP2 MSTORE PUSH1 0x20 ADD PUSH1 0x3 DUP3 ADD DUP1 SLOAD PUSH2 0xC91 SWAP1 PUSH2 0x1635 JUMP JUMPDEST DUP1 PUSH1 0x1F ADD PUSH1 0x20 DUP1 SWAP2 DIV MUL PUSH1 0x20 ADD PUSH1 0x40 MLOAD SWAP1 DUP2 ADD PUSH1 0x40 MSTORE DUP1 SWAP3 SWAP2 SWAP1 DUP2 DUP2 MSTORE PUSH1 0x20 ADD DUP3 DUP1 SLOAD PUSH2 0xCBD SWAP1 PUSH2 0x1635 JUMP JUMPDEST DUP1 ISZERO PUSH2 0xD08 JUMPI DUP1 PUSH1 0x1F LT PUSH2 0xCDF JUMPI PUSH2 0x100 DUP1 DUP4 SLOAD DIV MUL DUP4 MSTORE SWAP2 PUSH1 0x20 ADD SWAP2 PUSH2 0xD08 JUMP JUMPDEST DUP3 ADD SWAP2 SWAP1 PUSH0 MSTORE PUSH1 0x20 PUSH0 KECCAK256 SWAP1 JUMPDEST DUP2 SLOAD DUP2 MSTORE SWAP1 PUSH1 0x1 ADD SWAP1 PUSH1 0x20 ADD DUP1 DUP4 GT PUSH2 0xCEB JUMPI DUP3 SWAP1 SUB PUSH1 0x1F AND DUP3 ADD SWAP2 JUMPDEST POP POP POP POP POP DUP2 MSTORE PUSH1 0x20 ADD PUSH1 0x4 DUP3 ADD DUP1 SLOAD PUSH2 0xD21 SWAP1 PUSH2 0x1635 JUMP JUMPDEST DUP1 PUSH1 0x1F ADD PUSH1 0x20 DUP1 SWAP2 DIV MUL PUSH1 0x20 ADD PUSH1 0x40 MLOAD SWAP1 DUP2 ADD PUSH1 0x40 MSTORE DUP1 SWAP3 SWAP2 SWAP1 DUP2 DUP2 MSTORE PUSH1 0x20 ADD DUP3 DUP1 SLOAD PUSH2 0xD4D SWAP1 PUSH2 0x1635 JUMP JUMPDEST DUP1 ISZERO PUSH2 0xD98 JUMPI DUP1 PUSH1 0x1F LT PUSH2 0xD6F JUMPI PUSH2 0x100 DUP1 DUP4 SLOAD DIV MUL DUP4 MSTORE SWAP2 PUSH1 0x20 ADD SWAP2 PUSH2 0xD98 JUMP JUMPDEST DUP3 ADD SWAP2 SWAP1 PUSH0 MSTORE PUSH1 0x20 PUSH0 KECCAK256 SWAP1 JUMPDEST DUP2 SLOAD DUP2 MSTORE SWAP1 PUSH1 0x1 ADD SWAP1 PUSH1 0x20 ADD DUP1 DUP4 GT PUSH2 0xD7B JUMPI DUP3 SWAP1 SUB PUSH1 0x1F AND DUP3 ADD SWAP2 JUMPDEST POP POP POP POP POP DUP2 MSTORE PUSH1 0x20 ADD PUSH1 0x5 DUP3 ADD DUP1 SLOAD PUSH2 0xDB1 SWAP1 PUSH2 0x1635 JUMP JUMPDEST DUP1 PUSH1 0x1F ADD PUSH1 0x20 DUP1 SWAP2 DIV MUL PUSH1 0x20 ADD PUSH1 0x40 MLOAD SWAP1 DUP2 ADD PUSH1 0x40 MSTORE DUP1 SWAP3 SWAP2 SWAP1 DUP2 DUP2 MSTORE PUSH1 0x20 ADD DUP3 DUP1 SLOAD PUSH2 0xDDD SWAP1 PUSH2 0x1635 JUMP JUMPDEST DUP1 ISZERO PUSH2 0xE28 JUMPI DUP1 PUSH1 0x1F LT PUSH2 0xDFF JUMPI PUSH2 0x100 DUP1 DUP4 SLOAD DIV MUL DUP4 MSTORE SWAP2 PUSH1 0x20 ADD SWAP2 PUSH2 0xE28 JUMP JUMPDEST DUP3 ADD SWAP2 SWAP1 PUSH0 MSTORE PUSH1 0x20 PUSH0 KECCAK256 SWAP1 JUMPDEST DUP2 SLOAD DUP2 MSTORE SWAP1 PUSH1 0x1 ADD SWAP1 PUSH1 0x20 ADD DUP1 DUP4 GT PUSH2 0xE0B JUMPI DUP3 SWAP1 SUB PUSH1 0x1F AND DUP3 ADD SWAP2 JUMPDEST POP POP POP POP POP DUP2 MSTORE PUSH1 0x20 ADD PUSH1 0x6 DUP3 ADD DUP1 SLOAD PUSH2 0xE41 SWAP1 PUSH2 0x1635 JUMP JUMPDEST DUP1 PUSH1 0x1F ADD PUSH1 0x20 DUP1 SWAP2 DIV MUL PUSH1 0x20 ADD PUSH1 0x40 MLOAD SWAP1 DUP2 ADD PUSH1 0x40 MSTORE DUP1 SWAP3 SWAP2 SWAP1 DUP2 DUP2 MSTORE PUSH1 0x20 ADD DUP3 DUP1 SLOAD PUSH2 0xE6D SWAP1 PUSH2 0x1635 JUMP JUMPDEST DUP1 ISZERO PUSH2 0xEB8 JUMPI DUP1 PUSH1 0x1F LT PUSH2 0xE8F JUMPI PUSH2 0x100 DUP1 DUP4 SLOAD DIV MUL DUP4 MSTORE SWAP2 PUSH1 0x20 ADD SWAP2 PUSH2 0xEB8 JUMP JUMPDEST DUP3 ADD SWAP2 SWAP1 PUSH0 MSTORE PUSH1 0x20 PUSH0 KECCAK256 SWAP1 JUMPDEST DUP2 SLOAD DUP2 MSTORE SWAP1 PUSH1 0x1 ADD SWAP1 PUSH1 0x20 ADD DUP1 DUP4 GT PUSH2 0xE9B JUMPI DUP3 SWAP1 SUB PUSH1 0x1F AND DUP3 ADD SWAP2 JUMPDEST POP POP POP POP POP DUP2 MSTORE POP POP DUP3 DUP3 DUP2 MLOAD DUP2 LT PUSH2 0xED4 JUMPI PUSH2 0xED3 PUSH2 0x19AA JUMP JUMPDEST JUMPDEST PUSH1 0x20 MUL PUSH1 0x20 ADD ADD DUP2 SWAP1 MSTORE POP DUP1 DUP1 PUSH1 0x1 ADD SWAP2 POP POP PUSH2 0xA7D JUMP JUMPDEST POP DUP1 SWAP2 POP POP SWAP1 JUMP JUMPDEST PUSH1 0x40 MLOAD DUP1 PUSH1 0xE0 ADD PUSH1 0x40 MSTORE DUP1 PUSH1 0x60 DUP2 MSTORE PUSH1 0x20 ADD PUSH0 PUSH20 0xFFFFFFFFFFFFFFFFFFFFFFFFFFFFFFFFFFFFFFFF AND DUP2 MSTORE PUSH1 0x20 ADD PUSH1 0x60 DUP2 MSTORE PUSH1 0x20 ADD PUSH1 0x60 DUP2 MSTORE PUSH1 0x20 ADD PUSH1 0x60 DUP2 MSTORE PUSH1 0x20 ADD PUSH1 0x60 DUP2 MSTORE PUSH1 0x20 ADD PUSH1 0x60 DUP2 MSTORE POP SWAP1 JUMP JUMPDEST PUSH0 PUSH1 0x40 MLOAD SWAP1 POP SWAP1 JUMP JUMPDEST PUSH0 DUP1 REVERT JUMPDEST PUSH0 DUP1 REVERT JUMPDEST PUSH0 DUP1 REVERT JUMPDEST PUSH0 DUP1 REVERT JUMPDEST PUSH0 PUSH1 0x1F NOT PUSH1 0x1F DUP4 ADD AND SWAP1 POP SWAP2 SWAP1 POP JUMP JUMPDEST PUSH32 0x4E487B7100000000000000000000000000000000000000000000000000000000 PUSH0 MSTORE PUSH1 0x41 PUSH1 0x4 MSTORE PUSH1 0x24 PUSH0 REVERT JUMPDEST PUSH2 0xFA5 DUP3 PUSH2 0xF5F JUMP JUMPDEST DUP2 ADD DUP2 DUP2 LT PUSH8 0xFFFFFFFFFFFFFFFF DUP3 GT OR ISZERO PUSH2 0xFC4 JUMPI PUSH2 0xFC3 PUSH2 0xF6F JUMP JUMPDEST JUMPDEST DUP1 PUSH1 0x40 MSTORE POP POP POP JUMP JUMPDEST PUSH0 PUSH2 0xFD6 PUSH2 0xF46 JUMP JUMPDEST SWAP1 POP PUSH2 0xFE2 DUP3 DUP3 PUSH2 0xF9C JUMP JUMPDEST SWAP2 SWAP1 POP JUMP JUMPDEST PUSH0 PUSH8 0xFFFFFFFFFFFFFFFF DUP3 GT ISZERO PUSH2 0x1001 JUMPI PUSH2 0x1000 PUSH2 0xF6F JUMP JUMPDEST JUMPDEST PUSH2 0x100A DUP3 PUSH2 0xF5F JUMP JUMPDEST SWAP1 POP PUSH1 0x20 DUP2 ADD SWAP1 POP SWAP2 SWAP1 POP JUMP JUMPDEST DUP3 DUP2 DUP4 CALLDATACOPY PUSH0 DUP4 DUP4 ADD MSTORE POP POP POP JUMP JUMPDEST PUSH0 PUSH2 0x1037 PUSH2 0x1032 DUP5 PUSH2 0xFE7 JUMP JUMPDEST PUSH2 0xFCD JUMP JUMPDEST SWAP1 POP DUP3 DUP2 MSTORE PUSH1 0x20 DUP2 ADD DUP5 DUP5 DUP5 ADD GT ISZERO PUSH2 0x1053 JUMPI PUSH2 0x1052 PUSH2 0xF5B JUMP JUMPDEST JUMPDEST PUSH2 0x105E DUP5 DUP3 DUP6 PUSH2 0x1017 JUMP JUMPDEST POP SWAP4 SWAP3 POP POP POP JUMP JUMPDEST PUSH0 DUP3 PUSH1 0x1F DUP4 ADD SLT PUSH2 0x107A JUMPI PUSH2 0x1079 PUSH2 0xF57 JUMP JUMPDEST JUMPDEST DUP2 CALLDATALOAD PUSH2 0x108A DUP5 DUP3 PUSH1 0x20 DUP7 ADD PUSH2 0x1025 JUMP JUMPDEST SWAP2 POP POP SWAP3 SWAP2 POP POP JUMP JUMPDEST PUSH0 DUP1 PUSH0 DUP1 PUSH0 PUSH1 0xA0 DUP7 DUP9 SUB SLT ISZERO PUSH2 0x10AC JUMPI PUSH2 0x10AB PUSH2 0xF4F JUMP JUMPDEST JUMPDEST PUSH0 DUP7 ADD CALLDATALOAD PUSH8 0xFFFFFFFFFFFFFFFF DUP2 GT ISZERO PUSH2 0x10C9 JUMPI PUSH2 0x10C8 PUSH2 0xF53 JUMP JUMPDEST JUMPDEST PUSH2 0x10D5 DUP9 DUP3 DUP10 ADD PUSH2 0x1066 JUMP JUMPDEST SWAP6 POP POP PUSH1 0x20 DUP7 ADD CALLDATALOAD PUSH8 0xFFFFFFFFFFFFFFFF DUP2 GT ISZERO PUSH2 0x10F6 JUMPI PUSH2 0x10F5 PUSH2 0xF53 JUMP JUMPDEST JUMPDEST PUSH2 0x1102 DUP9 DUP3 DUP10 ADD PUSH2 0x1066 JUMP JUMPDEST SWAP5 POP POP PUSH1 0x40 DUP7 ADD CALLDATALOAD PUSH8 0xFFFFFFFFFFFFFFFF DUP2 GT ISZERO PUSH2 0x1123 JUMPI PUSH2 0x1122 PUSH2 0xF53 JUMP JUMPDEST JUMPDEST PUSH2 0x112F DUP9 DUP3 DUP10 ADD PUSH2 0x1066 JUMP JUMPDEST SWAP4 POP POP PUSH1 0x60 DUP7 ADD CALLDATALOAD PUSH8 0xFFFFFFFFFFFFFFFF DUP2 GT ISZERO PUSH2 0x1150 JUMPI PUSH2 0x114F PUSH2 0xF53 JUMP JUMPDEST JUMPDEST PUSH2 0x115C DUP9 DUP3 DUP10 ADD PUSH2 0x1066 JUMP JUMPDEST SWAP3 POP POP PUSH1 0x80 DUP7 ADD CALLDATALOAD PUSH8 0xFFFFFFFFFFFFFFFF DUP2 GT ISZERO PUSH2 0x117D JUMPI PUSH2 0x117C PUSH2 0xF53 JUMP JUMPDEST JUMPDEST PUSH2 0x1189 DUP9 DUP3 DUP10 ADD PUSH2 0x1066 JUMP JUMPDEST SWAP2 POP POP SWAP3 SWAP6 POP SWAP3 SWAP6 SWAP1 SWAP4 POP JUMP JUMPDEST PUSH0 DUP2 MLOAD SWAP1 POP SWAP2 SWAP1 POP JUMP JUMPDEST PUSH0 DUP3 DUP3 MSTORE PUSH1 0x20 DUP3 ADD SWAP1 POP SWAP3 SWAP2 POP POP JUMP JUMPDEST DUP3 DUP2 DUP4 MCOPY PUSH0 DUP4 DUP4 ADD MSTORE POP POP POP JUMP JUMPDEST PUSH0 PUSH2 0x11C8 DUP3 PUSH2 0x1196 JUMP JUMPDEST PUSH2 0x11D2 DUP2 DUP6 PUSH2 0x11A0 JUMP JUMPDEST SWAP4 POP PUSH2 0x11E2 DUP2 DUP6 PUSH1 0x20 DUP7 ADD PUSH2 0x11B0 JUMP JUMPDEST PUSH2 0x11EB DUP2 PUSH2 0xF5F JUMP JUMPDEST DUP5 ADD SWAP2 POP POP SWAP3 SWAP2 POP POP JUMP JUMPDEST PUSH0 PUSH20 0xFFFFFFFFFFFFFFFFFFFFFFFFFFFFFFFFFFFFFFFF DUP3 AND SWAP1 POP SWAP2 SWAP1 POP JUMP JUMPDEST PUSH0 PUSH2 0x121F DUP3 PUSH2 0x11F6 JUMP JUMPDEST SWAP1 POP SWAP2 SWAP1 POP JUMP JUMPDEST PUSH2 0x122F DUP2 PUSH2 0x1215 JUMP JUMPDEST DUP3 MSTORE POP POP JUMP JUMPDEST PUSH0 PUSH1 0xE0 DUP4 ADD PUSH0 DUP4 ADD MLOAD DUP5 DUP3 SUB PUSH0 DUP7 ADD MSTORE PUSH2 0x124F DUP3 DUP3 PUSH2 0x11BE JUMP JUMPDEST SWAP2 POP POP PUSH1 0x20 DUP4 ADD MLOAD PUSH2 0x1264 PUSH1 0x20 DUP7 ADD DUP3 PUSH2 0x1226 JUMP JUMPDEST POP PUSH1 0x40 DUP4 ADD MLOAD DUP5 DUP3 SUB PUSH1 0x40 DUP7 ADD MSTORE PUSH2 0x127C DUP3 DUP3 PUSH2 0x11BE JUMP JUMPDEST SWAP2 POP POP PUSH1 0x60 DUP4 ADD MLOAD DUP5 DUP3 SUB PUSH1 0x60 DUP7 ADD MSTORE PUSH2 0x1296 DUP3 DUP3 PUSH2 0x11BE JUMP JUMPDEST SWAP2 POP POP PUSH1 0x80 DUP4 ADD MLOAD DUP5 DUP3 SUB PUSH1 0x80 DUP7 ADD MSTORE PUSH2 0x12B0 DUP3 DUP3 PUSH2 0x11BE JUMP JUMPDEST SWAP2 POP POP PUSH1 0xA0 DUP4 ADD MLOAD DUP5 DUP3 SUB PUSH1 0xA0 DUP7 ADD MSTORE PUSH2 0x12CA DUP3 DUP3 PUSH2 0x11BE JUMP JUMPDEST SWAP2 POP POP PUSH1 0xC0 DUP4 ADD MLOAD DUP5 DUP3 SUB PUSH1 0xC0 DUP7 ADD MSTORE PUSH2 0x12E4 DUP3 DUP3 PUSH2 0x11BE JUMP JUMPDEST SWAP2 POP POP DUP1 SWAP2 POP POP SWAP3 SWAP2 POP POP JUMP JUMPDEST PUSH0 PUSH1 0x20 DUP3 ADD SWAP1 POP DUP2 DUP2 SUB PUSH0 DUP4 ADD MSTORE PUSH2 0x1309 DUP2 DUP5 PUSH2 0x1235 JUMP JUMPDEST SWAP1 POP SWAP3 SWAP2 POP POP JUMP JUMPDEST PUSH2 0x131A DUP2 PUSH2 0x1215 JUMP JUMPDEST DUP3 MSTORE POP POP JUMP JUMPDEST PUSH0 PUSH1 0x20 DUP3 ADD SWAP1 POP PUSH2 0x1333 PUSH0 DUP4 ADD DUP5 PUSH2 0x1311 JUMP JUMPDEST SWAP3 SWAP2 POP POP JUMP JUMPDEST PUSH0 DUP3 DUP3 MSTORE PUSH1 0x20 DUP3 ADD SWAP1 POP SWAP3 SWAP2 POP POP JUMP JUMPDEST PUSH0 PUSH2 0x1353 DUP3 PUSH2 0x1196 JUMP JUMPDEST PUSH2 0x135D DUP2 DUP6 PUSH2 0x1339 JUMP JUMPDEST SWAP4 POP PUSH2 0x136D DUP2 DUP6 PUSH1 0x20 DUP7 ADD PUSH2 0x11B0 JUMP JUMPDEST PUSH2 0x1376 DUP2 PUSH2 0xF5F JUMP JUMPDEST DUP5 ADD SWAP2 POP POP SWAP3 SWAP2 POP POP JUMP JUMPDEST PUSH0 PUSH1 0x20 DUP3 ADD SWAP1 POP DUP2 DUP2 SUB PUSH0 DUP4 ADD MSTORE PUSH2 0x1399 DUP2 DUP5 PUSH2 0x1349 JUMP JUMPDEST SWAP1 POP SWAP3 SWAP2 POP POP JUMP JUMPDEST PUSH0 DUP2 MLOAD SWAP1 POP SWAP2 SWAP1 POP JUMP JUMPDEST PUSH0 DUP3 DUP3 MSTORE PUSH1 0x20 DUP3 ADD SWAP1 POP SWAP3 SWAP2 POP POP JUMP JUMPDEST PUSH0 DUP2 SWAP1 POP PUSH1 0x20 DUP3 ADD SWAP1 POP SWAP2 SWAP1 POP JUMP JUMPDEST PUSH0 PUSH1 0xE0 DUP4 ADD PUSH0 DUP4 ADD MLOAD DUP5 DUP3 SUB PUSH0 DUP7 ADD MSTORE PUSH2 0x13E4 DUP3 DUP3 PUSH2 0x11BE JUMP JUMPDEST SWAP2 POP POP PUSH1 0x20 DUP4 ADD MLOAD PUSH2 0x13F9 PUSH1 0x20 DUP7 ADD DUP3 PUSH2 0x1226 JUMP JUMPDEST POP PUSH1 0x40 DUP4 ADD MLOAD DUP5 DUP3 SUB PUSH1 0x40 DUP7 ADD MSTORE PUSH2 0x1411 DUP3 DUP3 PUSH2 0x11BE JUMP JUMPDEST SWAP2 POP POP PUSH1 0x60 DUP4 ADD MLOAD DUP5 DUP3 SUB PUSH1 0x60 DUP7 ADD MSTORE PUSH2 0x142B DUP3 DUP3 PUSH2 0x11BE JUMP JUMPDEST SWAP2 POP POP PUSH1 0x80 DUP4 ADD MLOAD DUP5 DUP3 SUB PUSH1 0x80 DUP7 ADD MSTORE PUSH2 0x1445 DUP3 DUP3 PUSH2 0x11BE JUMP JUMPDEST SWAP2 POP POP PUSH1 0xA0 DUP4 ADD MLOAD DUP5 DUP3 SUB PUSH1 0xA0 DUP7 ADD MSTORE PUSH2 0x145F DUP3 DUP3 PUSH2 0x11BE JUMP JUMPDEST SWAP2 POP POP PUSH1 0xC0 DUP4 ADD MLOAD DUP5 DUP3 SUB PUSH1 0xC0 DUP7 ADD MSTORE PUSH2 0x1479 DUP3 DUP3 PUSH2 0x11BE JUMP JUMPDEST SWAP2 POP POP DUP1 SWAP2 POP POP SWAP3 SWAP2 POP POP JUMP JUMPDEST PUSH0 PUSH2 0x1491 DUP4 DUP4 PUSH2 0x13CA JUMP JUMPDEST SWAP1 POP SWAP3 SWAP2 POP POP JUMP JUMPDEST PUSH0 PUSH1 0x20 DUP3 ADD SWAP1 POP SWAP2 SWAP1 POP JUMP JUMPDEST PUSH0 PUSH2 0x14AF DUP3 PUSH2 0x13A1 JUMP JUMPDEST PUSH2 0x14B9 DUP2 DUP6 PUSH2 0x13AB JUMP JUMPDEST SWAP4 POP DUP4 PUSH1 0x20 DUP3 MUL DUP6 ADD PUSH2 0x14CB DUP6 PUSH2 0x13BB JUMP JUMPDEST DUP1 PUSH0 JUMPDEST DUP6 DUP2 LT ISZERO PUSH2 0x1506 JUMPI DUP5 DUP5 SUB DUP10 MSTORE DUP2 MLOAD PUSH2 0x14E7 DUP6 DUP3 PUSH2 0x1486 JUMP JUMPDEST SWAP5 POP PUSH2 0x14F2 DUP4 PUSH2 0x1499 JUMP JUMPDEST SWAP3 POP PUSH1 0x20 DUP11 ADD SWAP10 POP POP PUSH1 0x1 DUP2 ADD SWAP1 POP PUSH2 0x14CE JUMP JUMPDEST POP DUP3 SWAP8 POP DUP8 SWAP6 POP POP POP POP POP POP SWAP3 SWAP2 POP POP JUMP JUMPDEST PUSH0 PUSH1 0x20 DUP3 ADD SWAP1 POP DUP2 DUP2 SUB PUSH0 DUP4 ADD MSTORE PUSH2 0x1530 DUP2 DUP5 PUSH2 0x14A5 JUMP JUMPDEST SWAP1 POP SWAP3 SWAP2 POP POP JUMP JUMPDEST PUSH32 0x4D757374207061792065786163746C7920302E30312045746865722E00000000 PUSH0 DUP3 ADD MSTORE POP JUMP JUMPDEST PUSH0 PUSH2 0x156C PUSH1 0x1C DUP4 PUSH2 0x1339 JUMP JUMPDEST SWAP2 POP PUSH2 0x1577 DUP3 PUSH2 0x1538 JUMP JUMPDEST PUSH1 0x20 DUP3 ADD SWAP1 POP SWAP2 SWAP1 POP JUMP JUMPDEST PUSH0 PUSH1 0x20 DUP3 ADD SWAP1 POP DUP2 DUP2 SUB PUSH0 DUP4 ADD MSTORE PUSH2 0x1599 DUP2 PUSH2 0x1560 JUMP JUMPDEST SWAP1 POP SWAP2 SWAP1 POP JUMP JUMPDEST PUSH32 0x506F6C69637920616C7265616479206578697374732E00000000000000000000 PUSH0 DUP3 ADD MSTORE POP JUMP JUMPDEST PUSH0 PUSH2 0x15D4 PUSH1 0x16 DUP4 PUSH2 0x1339 JUMP JUMPDEST SWAP2 POP PUSH2 0x15DF DUP3 PUSH2 0x15A0 JUMP JUMPDEST PUSH1 0x20 DUP3 ADD SWAP1 POP SWAP2 SWAP1 POP JUMP JUMPDEST PUSH0 PUSH1 0x20 DUP3 ADD SWAP1 POP DUP2 DUP2 SUB PUSH0 DUP4 ADD MSTORE PUSH2 0x1601 DUP2 PUSH2 0x15C8 JUMP JUMPDEST SWAP1 POP SWAP2 SWAP1 POP JUMP JUMPDEST PUSH32 0x4E487B7100000000000000000000000000000000000000000000000000000000 PUSH0 MSTORE PUSH1 0x22 PUSH1 0x4 MSTORE PUSH1 0x24 PUSH0 REVERT JUMPDEST PUSH0 PUSH1 0x2 DUP3 DIV SWAP1 POP PUSH1 0x1 DUP3 AND DUP1 PUSH2 0x164C JUMPI PUSH1 0x7F DUP3 AND SWAP2 POP JUMPDEST PUSH1 0x20 DUP3 LT DUP2 SUB PUSH2 0x165F JUMPI PUSH2 0x165E PUSH2 0x1608 JUMP JUMPDEST JUMPDEST POP SWAP2 SWAP1 POP JUMP JUMPDEST PUSH0 DUP2 SWAP1 POP DUP2 PUSH0 MSTORE PUSH1 0x20 PUSH0 KECCAK256 SWAP1 POP SWAP2 SWAP1 POP JUMP JUMPDEST PUSH0 PUSH1 0x20 PUSH1 0x1F DUP4 ADD DIV SWAP1 POP SWAP2 SWAP1 POP JUMP JUMPDEST PUSH0 DUP3 DUP3 SHL SWAP1 POP SWAP3 SWAP2 POP POP JUMP JUMPDEST PUSH0 PUSH1 0x8 DUP4 MUL PUSH2 0x16C1 PUSH32 0xFFFFFFFFFFFFFFFFFFFFFFFFFFFFFFFFFFFFFFFFFFFFFFFFFFFFFFFFFFFFFFFF DUP3 PUSH2 0x1686 JUMP JUMPDEST PUSH2 0x16CB DUP7 DUP4 PUSH2 0x1686 JUMP JUMPDEST SWAP6 POP DUP1 NOT DUP5 AND SWAP4 POP DUP1 DUP7 AND DUP5 OR SWAP3 POP POP POP SWAP4 SWAP3 POP POP POP JUMP JUMPDEST PUSH0 DUP2 SWAP1 POP SWAP2 SWAP1 POP JUMP JUMPDEST PUSH0 DUP2 SWAP1 POP SWAP2 SWAP1 POP JUMP JUMPDEST PUSH0 PUSH2 0x170F PUSH2 0x170A PUSH2 0x1705 DUP5 PUSH2 0x16E3 JUMP JUMPDEST PUSH2 0x16EC JUMP JUMPDEST PUSH2 0x16E3 JUMP JUMPDEST SWAP1 POP SWAP2 SWAP1 POP JUMP JUMPDEST PUSH0 DUP2 SWAP1 POP SWAP2 SWAP1 POP JUMP JUMPDEST PUSH2 0x1728 DUP4 PUSH2 0x16F5 JUMP JUMPDEST PUSH2 0x173C PUSH2 0x1734 DUP3 PUSH2 0x1716 JUMP JUMPDEST DUP5 DUP5 SLOAD PUSH2 0x1692 JUMP JUMPDEST DUP3 SSTORE POP POP POP POP JUMP JUMPDEST PUSH0 SWAP1 JUMP JUMPDEST PUSH2 0x1750 PUSH2 0x1744 JUMP JUMPDEST PUSH2 0x175B DUP2 DUP5 DUP5 PUSH2 0x171F JUMP JUMPDEST POP POP POP JUMP JUMPDEST JUMPDEST DUP2 DUP2 LT ISZERO PUSH2 0x177E JUMPI PUSH2 0x1773 PUSH0 DUP3 PUSH2 0x1748 JUMP JUMPDEST PUSH1 0x1 DUP2 ADD SWAP1 POP PUSH2 0x1761 JUMP JUMPDEST POP POP JUMP JUMPDEST PUSH1 0x1F DUP3 GT ISZERO PUSH2 0x17C3 JUMPI PUSH2 0x1794 DUP2 PUSH2 0x1665 JUMP JUMPDEST PUSH2 0x179D DUP5 PUSH2 0x1677 JUMP JUMPDEST DUP2 ADD PUSH1 0x20 DUP6 LT ISZERO PUSH2 0x17AC JUMPI DUP2 SWAP1 POP JUMPDEST PUSH2 0x17C0 PUSH2 0x17B8 DUP6 PUSH2 0x1677 JUMP JUMPDEST DUP4 ADD DUP3 PUSH2 0x1760 JUMP JUMPDEST POP POP JUMPDEST POP POP POP JUMP JUMPDEST PUSH0 DUP3 DUP3 SHR SWAP1 POP SWAP3 SWAP2 POP POP JUMP JUMPDEST PUSH0 PUSH2 0x17E3 PUSH0 NOT DUP5 PUSH1 0x8 MUL PUSH2 0x17C8 JUMP JUMPDEST NOT DUP1 DUP4 AND SWAP2 POP POP SWAP3 SWAP2 POP POP JUMP JUMPDEST PUSH0 PUSH2 0x17FB DUP4 DUP4 PUSH2 0x17D4 JUMP JUMPDEST SWAP2 POP DUP3 PUSH1 0x2 MUL DUP3 OR SWAP1 POP SWAP3 SWAP2 POP POP JUMP JUMPDEST PUSH2 0x1814 DUP3 PUSH2 0x1196 JUMP JUMPDEST PUSH8 0xFFFFFFFFFFFFFFFF DUP2 GT ISZERO PUSH2 0x182D JUMPI PUSH2 0x182C PUSH2 0xF6F JUMP JUMPDEST JUMPDEST PUSH2 0x1837 DUP3 SLOAD PUSH2 0x1635 JUMP JUMPDEST PUSH2 0x1842 DUP3 DUP3 DUP6 PUSH2 0x1782 JUMP JUMPDEST PUSH0 PUSH1 0x20 SWAP1 POP PUSH1 0x1F DUP4 GT PUSH1 0x1 DUP2 EQ PUSH2 0x1873 JUMPI PUSH0 DUP5 ISZERO PUSH2 0x1861 JUMPI DUP3 DUP8 ADD MLOAD SWAP1 POP JUMPDEST PUSH2 0x186B DUP6 DUP3 PUSH2 0x17F0 JUMP JUMPDEST DUP7 SSTORE POP PUSH2 0x18D2 JUMP JUMPDEST PUSH1 0x1F NOT DUP5 AND PUSH2 0x1881 DUP7 PUSH2 0x1665 JUMP JUMPDEST PUSH0 JUMPDEST DUP3 DUP2 LT ISZERO PUSH2 0x18A8 JUMPI DUP5 DUP10 ADD MLOAD DUP3 SSTORE PUSH1 0x1 DUP3 ADD SWAP2 POP PUSH1 0x20 DUP6 ADD SWAP5 POP PUSH1 0x20 DUP2 ADD SWAP1 POP PUSH2 0x1883 JUMP JUMPDEST DUP7 DUP4 LT ISZERO PUSH2 0x18C5 JUMPI DUP5 DUP10 ADD MLOAD PUSH2 0x18C1 PUSH1 0x1F DUP10 AND DUP3 PUSH2 0x17D4 JUMP JUMPDEST DUP4 SSTORE POP JUMPDEST PUSH1 0x1 PUSH1 0x2 DUP9 MUL ADD DUP9 SSTORE POP POP POP JUMPDEST POP POP POP POP POP POP JUMP JUMPDEST PUSH32 0x4E6F20706F6C69637920666F756E642E00000000000000000000000000000000 PUSH0 DUP3 ADD MSTORE POP JUMP JUMPDEST PUSH0 PUSH2 0x190E PUSH1 0x10 DUP4 PUSH2 0x1339 JUMP JUMPDEST SWAP2 POP PUSH2 0x1919 DUP3 PUSH2 0x18DA JUMP JUMPDEST PUSH1 0x20 DUP3 ADD SWAP1 POP SWAP2 SWAP1 POP JUMP JUMPDEST PUSH0 PUSH1 0x20 DUP3 ADD SWAP1 POP DUP2 DUP2 SUB PUSH0 DUP4 ADD MSTORE PUSH2 0x193B DUP2 PUSH2 0x1902 JUMP JUMPDEST SWAP1 POP SWAP2 SWAP1 POP JUMP JUMPDEST PUSH32 0x4F6E6C79207468652070726F76696465722063616E2063616C6C20746869732E PUSH0 DUP3 ADD MSTORE POP JUMP JUMPDEST PUSH0 PUSH2 0x1976 PUSH1 0x20 DUP4 PUSH2 0x1339 JUMP JUMPDEST SWAP2 POP PUSH2 0x1981 DUP3 PUSH2 0x1942 JUMP JUMPDEST PUSH1 0x20 DUP3 ADD SWAP1 POP SWAP2 SWAP1 POP JUMP JUMPDEST PUSH0 PUSH1 0x20 DUP3 ADD SWAP1 POP DUP2 DUP2 SUB PUSH0 DUP4 ADD MSTORE PUSH2 0x19A3 DUP2 PUSH2 0x196A JUMP JUMPDEST SWAP1 POP SWAP2 SWAP1 POP JUMP JUMPDEST PUSH32 0x4E487B7100000000000000000000000000000000000000000000000000000000 PUSH0 MSTORE PUSH1 0x32 PUSH1 0x4 MSTORE PUSH1 0x24 PUSH0 REVERT INVALID POP PUSH19 0x656D69756D3A20302E30312045746865722C20 BLOBHASH PUSH15 0x64656D6E6974793A20302E30322045 PUSH21 0x6865722C20436F7665726167653A204861696C2C20 CHAINID PUSH13 0x6F6F64A2646970667358221220 MOD DIV SWAP16 CALLDATALOAD PUSH3 0x63D138 MUL 0xA9 AND 0x22 LOG4 CODECOPY 0xE4 PUSH0 0x1E DUP7 PREVRANDAO MULMOD GASLIMIT 0x1F DUP5 0xC6 SWAP12 0xE5 EXTCODECOPY 0xDE 0xDE 0xED TSTORE 0xBD PUSH5 0x736F6C6343 STOP ADDMOD BYTE STOP CALLER "
				},
				"gasEstimates": {
					"creation": {
						"codeDepositCost": "1346800",
						"executionCost": "25666",
						"totalCost": "1372466"
					},
					"external": {
						"insuranceProvider()": "2527",
						"purchasePolicy(string,string,string,string,string)": "infinite",
						"viewAllPolicies()": "infinite",
						"viewAvailablePolicy()": "infinite",
						"viewMyPolicy()": "infinite"
					}
				},
				"methodIdentifiers": {
					"insuranceProvider()": "9955f67c",
					"purchasePolicy(string,string,string,string,string)": "5d02ed12",
					"viewAllPolicies()": "c160693d",
					"viewAvailablePolicy()": "b6fc3b2a",
					"viewMyPolicy()": "963163bd"
				}
			},
			"storageLayout": {
				"storage": [
					{
						"astId": 3,
						"contract": "FlightInsurance.sol:FlightInsurance1",
						"label": "insuranceProvider",
						"offset": 0,
						"slot": "0",
						"type": "t_address"
					},
					{
						"astId": 32,
						"contract": "FlightInsurance.sol:FlightInsurance1",
						"label": "policies",
						"offset": 0,
						"slot": "1",
						"type": "t_mapping(t_address,t_struct(Policy)27_storage)"
					},
					{
						"astId": 35,
						"contract": "FlightInsurance.sol:FlightInsurance1",
						"label": "insuredPassengers",
						"offset": 0,
						"slot": "2",
						"type": "t_array(t_address)dyn_storage"
					}
				],
				"types": {
					"t_address": {
						"encoding": "inplace",
						"label": "address",
						"numberOfBytes": "20"
					},
					"t_array(t_address)dyn_storage": {
						"base": "t_address",
						"encoding": "dynamic_array",
						"label": "address[]",
						"numberOfBytes": "32"
					},
					"t_mapping(t_address,t_struct(Policy)27_storage)": {
						"encoding": "mapping",
						"key": "t_address",
						"label": "mapping(address => struct FlightInsurance1.Policy)",
						"numberOfBytes": "32",
						"value": "t_struct(Policy)27_storage"
					},
					"t_string_storage": {
						"encoding": "bytes",
						"label": "string",
						"numberOfBytes": "32"
					},
					"t_struct(Policy)27_storage": {
						"encoding": "inplace",
						"label": "struct FlightInsurance1.Policy",
						"members": [
							{
								"astId": 14,
								"contract": "FlightInsurance.sol:FlightInsurance1",
								"label": "passengerName",
								"offset": 0,
								"slot": "0",
								"type": "t_string_storage"
							},
							{
								"astId": 16,
								"contract": "FlightInsurance.sol:FlightInsurance1",
								"label": "passengerAddress",
								"offset": 0,
								"slot": "1",
								"type": "t_address"
							},
							{
								"astId": 18,
								"contract": "FlightInsurance.sol:FlightInsurance1",
								"label": "flightNumber",
								"offset": 0,
								"slot": "2",
								"type": "t_string_storage"
							},
							{
								"astId": 20,
								"contract": "FlightInsurance.sol:FlightInsurance1",
								"label": "flightDate",
								"offset": 0,
								"slot": "3",
								"type": "t_string_storage"
							},
							{
								"astId": 22,
								"contract": "FlightInsurance.sol:FlightInsurance1",
								"label": "departureCity",
								"offset": 0,
								"slot": "4",
								"type": "t_string_storage"
							},
							{
								"astId": 24,
								"contract": "FlightInsurance.sol:FlightInsurance1",
								"label": "destinationCity",
								"offset": 0,
								"slot": "5",
								"type": "t_string_storage"
							},
							{
								"astId": 26,
								"contract": "FlightInsurance.sol:FlightInsurance1",
								"label": "status",
								"offset": 0,
								"slot": "6",
								"type": "t_string_storage"
							}
						],
						"numberOfBytes": "224"
					}
				}
			},
			"userdoc": {
				"kind": "user",
				"methods": {},
				"version": 1
			}
		}
	}
}