{
	"FlightInsurance2.sol": {
		"FlightInsurance1": {
			"abi": [
				{
					"inputs": [
						{
							"internalType": "address",
							"name": "_insuranceProvider",
							"type": "address"
						}
					],
					"stateMutability": "nonpayable",
					"type": "constructor"
				},
				{
					"inputs": [],
					"name": "INDEMNITY",
					"outputs": [
						{
							"internalType": "uint256",
							"name": "",
							"type": "uint256"
						}
					],
					"stateMutability": "view",
					"type": "function"
				},
				{
					"inputs": [],
					"name": "PREMIUM",
					"outputs": [
						{
							"internalType": "uint256",
							"name": "",
							"type": "uint256"
						}
					],
					"stateMutability": "view",
					"type": "function"
				},
				{
					"inputs": [],
					"name": "insuranceProvider",
					"outputs": [
						{
							"internalType": "address",
							"name": "",
							"type": "address"
						}
					],
					"stateMutability": "view",
					"type": "function"
				},
				{
					"inputs": [
						{
							"internalType": "string",
							"name": "name",
							"type": "string"
						},
						{
							"internalType": "string",
							"name": "flightNo",
							"type": "string"
						},
						{
							"internalType": "string",
							"name": "date",
							"type": "string"
						},
						{
							"internalType": "string",
							"name": "departure",
							"type": "string"
						},
						{
							"internalType": "string",
							"name": "destination",
							"type": "string"
						}
					],
					"name": "purchasePolicy",
					"outputs": [
						{
							"internalType": "bool",
							"name": "",
							"type": "bool"
						},
						{
							"internalType": "string",
							"name": "",
							"type": "string"
						}
					],
					"stateMutability": "payable",
					"type": "function"
				},
				{
					"inputs": [],
					"name": "viewAllPolicies",
					"outputs": [
						{
							"components": [
								{
									"internalType": "string",
									"name": "passengerName",
									"type": "string"
								},
								{
									"internalType": "address",
									"name": "passengerAddress",
									"type": "address"
								},
								{
									"internalType": "string",
									"name": "flightNumber",
									"type": "string"
								},
								{
									"internalType": "string",
									"name": "flightDate",
									"type": "string"
								},
								{
									"internalType": "string",
									"name": "departureCity",
									"type": "string"
								},
								{
									"internalType": "string",
									"name": "destinationCity",
									"type": "string"
								},
								{
									"internalType": "string",
									"name": "policyStatus",
									"type": "string"
								}
							],
							"internalType": "struct FlightInsurance1.InsurancePolicy[]",
							"name": "",
							"type": "tuple[]"
						},
						{
							"internalType": "string",
							"name": "",
							"type": "string"
						}
					],
					"stateMutability": "view",
					"type": "function"
				},
				{
					"inputs": [],
					"name": "viewAvailablePolicy",
					"outputs": [
						{
							"internalType": "string",
							"name": "",
							"type": "string"
						}
					],
					"stateMutability": "pure",
					"type": "function"
				},
				{
					"inputs": [],
					"name": "viewMyPolicy",
					"outputs": [
						{
							"components": [
								{
									"internalType": "string",
									"name": "passengerName",
									"type": "string"
								},
								{
									"internalType": "address",
									"name": "passengerAddress",
									"type": "address"
								},
								{
									"internalType": "string",
									"name": "flightNumber",
									"type": "string"
								},
								{
									"internalType": "string",
									"name": "flightDate",
									"type": "string"
								},
								{
									"internalType": "string",
									"name": "departureCity",
									"type": "string"
								},
								{
									"internalType": "string",
									"name": "destinationCity",
									"type": "string"
								},
								{
									"internalType": "string",
									"name": "policyStatus",
									"type": "string"
								}
							],
							"internalType": "struct FlightInsurance1.InsurancePolicy",
							"name": "",
							"type": "tuple"
						},
						{
							"internalType": "string",
							"name": "",
							"type": "string"
						}
					],
					"stateMutability": "view",
					"type": "function"
				}
			],
			"devdoc": {
				"kind": "dev",
				"methods": {},
				"version": 1
			},
			"evm": {
				"assembly": "    /* \"FlightInsurance2.sol\":156:4150  contract FlightInsurance1 is ReentrancyGuard {... */\n  mstore(0x40, 0x80)\n    /* \"FlightInsurance2.sol\":1019:1114  constructor(address _insuranceProvider) {... */\n  callvalue\n  dup1\n  iszero\n  tag_1\n  jumpi\n  0x00\n  dup1\n  revert\ntag_1:\n  pop\n  mload(0x40)\n  sub(codesize, bytecodeSize)\n  dup1\n  bytecodeSize\n  dup4\n  codecopy\n  dup2\n  dup2\n  add\n  0x40\n  mstore\n  dup2\n  add\n  swap1\n  tag_2\n  swap2\n  swap1\n  tag_3\n  jump\t// in\ntag_2:\n    /* \"@openzeppelin/contracts/security/ReentrancyGuard.sol\":1716:1717  1 */\n  0x01\n    /* \"@openzeppelin/contracts/security/ReentrancyGuard.sol\":1821:1828  _status */\n  0x00\n    /* \"@openzeppelin/contracts/security/ReentrancyGuard.sol\":1821:1843  _status = _NOT_ENTERED */\n  dup2\n  swap1\n  sstore\n  pop\n    /* \"FlightInsurance2.sol\":1089:1107  _insuranceProvider */\n  dup1\n    /* \"FlightInsurance2.sol\":1069:1086  insuranceProvider */\n  0x01\n  0x00\n    /* \"FlightInsurance2.sol\":1069:1107  insuranceProvider = _insuranceProvider */\n  0x0100\n  exp\n  dup2\n  sload\n  dup2\n  0xffffffffffffffffffffffffffffffffffffffff\n  mul\n  not\n  and\n  swap1\n  dup4\n  0xffffffffffffffffffffffffffffffffffffffff\n  and\n  mul\n  or\n  swap1\n  sstore\n  pop\n    /* \"FlightInsurance2.sol\":1019:1114  constructor(address _insuranceProvider) {... */\n  pop\n    /* \"FlightInsurance2.sol\":156:4150  contract FlightInsurance1 is ReentrancyGuard {... */\n  jump(tag_8)\n    /* \"#utility.yul\":88:205   */\ntag_10:\n    /* \"#utility.yul\":197:198   */\n  0x00\n    /* \"#utility.yul\":194:195   */\n  dup1\n    /* \"#utility.yul\":187:199   */\n  revert\n    /* \"#utility.yul\":334:460   */\ntag_12:\n    /* \"#utility.yul\":371:378   */\n  0x00\n    /* \"#utility.yul\":411:453   */\n  0xffffffffffffffffffffffffffffffffffffffff\n    /* \"#utility.yul\":404:409   */\n  dup3\n    /* \"#utility.yul\":400:454   */\n  and\n    /* \"#utility.yul\":389:454   */\n  swap1\n  pop\n    /* \"#utility.yul\":334:460   */\n  swap2\n  swap1\n  pop\n  jump\t// out\n    /* \"#utility.yul\":466:562   */\ntag_13:\n    /* \"#utility.yul\":503:510   */\n  0x00\n    /* \"#utility.yul\":532:556   */\n  tag_22\n    /* \"#utility.yul\":550:555   */\n  dup3\n    /* \"#utility.yul\":532:556   */\n  tag_12\n  jump\t// in\ntag_22:\n    /* \"#utility.yul\":521:556   */\n  swap1\n  pop\n    /* \"#utility.yul\":466:562   */\n  swap2\n  swap1\n  pop\n  jump\t// out\n    /* \"#utility.yul\":568:690   */\ntag_14:\n    /* \"#utility.yul\":641:665   */\n  tag_24\n    /* \"#utility.yul\":659:664   */\n  dup2\n    /* \"#utility.yul\":641:665   */\n  tag_13\n  jump\t// in\ntag_24:\n    /* \"#utility.yul\":634:639   */\n  dup2\n    /* \"#utility.yul\":631:666   */\n  eq\n    /* \"#utility.yul\":621:684   */\n  tag_25\n  jumpi\n    /* \"#utility.yul\":680:681   */\n  0x00\n    /* \"#utility.yul\":677:678   */\n  dup1\n    /* \"#utility.yul\":670:682   */\n  revert\n    /* \"#utility.yul\":621:684   */\ntag_25:\n    /* \"#utility.yul\":568:690   */\n  pop\n  jump\t// out\n    /* \"#utility.yul\":696:839   */\ntag_15:\n    /* \"#utility.yul\":753:758   */\n  0x00\n    /* \"#utility.yul\":784:790   */\n  dup2\n    /* \"#utility.yul\":778:791   */\n  mload\n    /* \"#utility.yul\":769:791   */\n  swap1\n  pop\n    /* \"#utility.yul\":800:833   */\n  tag_27\n    /* \"#utility.yul\":827:832   */\n  dup2\n    /* \"#utility.yul\":800:833   */\n  tag_14\n  jump\t// in\ntag_27:\n    /* \"#utility.yul\":696:839   */\n  swap3\n  swap2\n  pop\n  pop\n  jump\t// out\n    /* \"#utility.yul\":845:1196   */\ntag_3:\n    /* \"#utility.yul\":915:921   */\n  0x00\n    /* \"#utility.yul\":964:966   */\n  0x20\n    /* \"#utility.yul\":952:961   */\n  dup3\n    /* \"#utility.yul\":943:950   */\n  dup5\n    /* \"#utility.yul\":939:962   */\n  sub\n    /* \"#utility.yul\":935:967   */\n  slt\n    /* \"#utility.yul\":932:1051   */\n  iszero\n  tag_29\n  jumpi\n    /* \"#utility.yul\":970:1049   */\n  tag_30\n  tag_10\n  jump\t// in\ntag_30:\n    /* \"#utility.yul\":932:1051   */\ntag_29:\n    /* \"#utility.yul\":1090:1091   */\n  0x00\n    /* \"#utility.yul\":1115:1179   */\n  tag_31\n    /* \"#utility.yul\":1171:1178   */\n  dup5\n    /* \"#utility.yul\":1162:1168   */\n  dup3\n    /* \"#utility.yul\":1151:1160   */\n  dup6\n    /* \"#utility.yul\":1147:1169   */\n  add\n    /* \"#utility.yul\":1115:1179   */\n  tag_15\n  jump\t// in\ntag_31:\n    /* \"#utility.yul\":1105:1179   */\n  swap2\n  pop\n    /* \"#utility.yul\":1061:1189   */\n  pop\n    /* \"#utility.yul\":845:1196   */\n  swap3\n  swap2\n  pop\n  pop\n  jump\t// out\n    /* \"FlightInsurance2.sol\":156:4150  contract FlightInsurance1 is ReentrancyGuard {... */\ntag_8:\n  dataSize(sub_0)\n  dup1\n  dataOffset(sub_0)\n  0x00\n  codecopy\n  0x00\n  return\nstop\n\nsub_0: assembly {\n        /* \"FlightInsurance2.sol\":156:4150  contract FlightInsurance1 is ReentrancyGuard {... */\n      mstore(0x40, 0x80)\n      jumpi(tag_1, lt(calldatasize, 0x04))\n      shr(0xe0, calldataload(0x00))\n      dup1\n      0xb6fc3b2a\n      gt\n      tag_9\n      jumpi\n      dup1\n      0xb6fc3b2a\n      eq\n      tag_5\n      jumpi\n      dup1\n      0xc160693d\n      eq\n      tag_6\n      jumpi\n      dup1\n      0xcd95e777\n      eq\n      tag_7\n      jumpi\n      dup1\n      0xea3696ca\n      eq\n      tag_8\n      jumpi\n      jump(tag_1)\n    tag_9:\n      dup1\n      0x5d02ed12\n      eq\n      tag_2\n      jumpi\n      dup1\n      0x963163bd\n      eq\n      tag_3\n      jumpi\n      dup1\n      0x9955f67c\n      eq\n      tag_4\n      jumpi\n    tag_1:\n      0x00\n      dup1\n      revert\n        /* \"FlightInsurance2.sol\":1442:2896  function purchasePolicy(... */\n    tag_2:\n      tag_10\n      0x04\n      dup1\n      calldatasize\n      sub\n      dup2\n      add\n      swap1\n      tag_11\n      swap2\n      swap1\n      tag_12\n      jump\t// in\n    tag_11:\n      tag_13\n      jump\t// in\n    tag_10:\n      mload(0x40)\n      tag_14\n      swap3\n      swap2\n      swap1\n      tag_15\n      jump\t// in\n    tag_14:\n      mload(0x40)\n      dup1\n      swap2\n      sub\n      swap1\n      return\n        /* \"FlightInsurance2.sol\":2949:3407  function viewMyPolicy() external view returns (InsurancePolicy memory, string memory) {... */\n    tag_3:\n      callvalue\n      dup1\n      iszero\n      tag_16\n      jumpi\n      0x00\n      dup1\n      revert\n    tag_16:\n      pop\n      tag_17\n      tag_18\n      jump\t// in\n    tag_17:\n      mload(0x40)\n      tag_19\n      swap3\n      swap2\n      swap1\n      tag_20\n      jump\t// in\n    tag_19:\n      mload(0x40)\n      dup1\n      swap2\n      sub\n      swap1\n      return\n        /* \"FlightInsurance2.sol\":679:711  address public insuranceProvider */\n    tag_4:\n      callvalue\n      dup1\n      iszero\n      tag_21\n      jumpi\n      0x00\n      dup1\n      revert\n    tag_21:\n      pop\n      tag_22\n      tag_23\n      jump\t// in\n    tag_22:\n      mload(0x40)\n      tag_24\n      swap2\n      swap1\n      tag_25\n      jump\t// in\n    tag_24:\n      mload(0x40)\n      dup1\n      swap2\n      sub\n      swap1\n      return\n        /* \"FlightInsurance2.sol\":1170:1367  function viewAvailablePolicy() external pure returns (string memory) {... */\n    tag_5:\n      callvalue\n      dup1\n      iszero\n      tag_26\n      jumpi\n      0x00\n      dup1\n      revert\n    tag_26:\n      pop\n      tag_27\n      tag_28\n      jump\t// in\n    tag_27:\n      mload(0x40)\n      tag_29\n      swap2\n      swap1\n      tag_30\n      jump\t// in\n    tag_29:\n      mload(0x40)\n      dup1\n      swap2\n      sub\n      swap1\n      return\n        /* \"FlightInsurance2.sol\":3472:4148  function viewAllPolicies() external view returns (InsurancePolicy[] memory, string memory) {... */\n    tag_6:\n      callvalue\n      dup1\n      iszero\n      tag_31\n      jumpi\n      0x00\n      dup1\n      revert\n    tag_31:\n      pop\n      tag_32\n      tag_33\n      jump\t// in\n    tag_32:\n      mload(0x40)\n      tag_34\n      swap3\n      swap2\n      swap1\n      tag_35\n      jump\t// in\n    tag_34:\n      mload(0x40)\n      dup1\n      swap2\n      sub\n      swap1\n      return\n        /* \"FlightInsurance2.sol\":626:672  uint256 public constant INDEMNITY = 0.02 ether */\n    tag_7:\n      callvalue\n      dup1\n      iszero\n      tag_36\n      jumpi\n      0x00\n      dup1\n      revert\n    tag_36:\n      pop\n      tag_37\n      tag_38\n      jump\t// in\n    tag_37:\n      mload(0x40)\n      tag_39\n      swap2\n      swap1\n      tag_40\n      jump\t// in\n    tag_39:\n      mload(0x40)\n      dup1\n      swap2\n      sub\n      swap1\n      return\n        /* \"FlightInsurance2.sol\":576:620  uint256 public constant PREMIUM = 0.01 ether */\n    tag_8:\n      callvalue\n      dup1\n      iszero\n      tag_41\n      jumpi\n      0x00\n      dup1\n      revert\n    tag_41:\n      pop\n      tag_42\n      tag_43\n      jump\t// in\n    tag_42:\n      mload(0x40)\n      tag_44\n      swap2\n      swap1\n      tag_40\n      jump\t// in\n    tag_44:\n      mload(0x40)\n      dup1\n      swap2\n      sub\n      swap1\n      return\n        /* \"FlightInsurance2.sol\":1442:2896  function purchasePolicy(... */\n    tag_13:\n        /* \"FlightInsurance2.sol\":1677:1681  bool */\n      0x00\n        /* \"FlightInsurance2.sol\":1683:1696  string memory */\n      0x60\n        /* \"@openzeppelin/contracts/security/ReentrancyGuard.sol\":2261:2282  _nonReentrantBefore() */\n      tag_46\n        /* \"@openzeppelin/contracts/security/ReentrancyGuard.sol\":2261:2280  _nonReentrantBefore */\n      tag_47\n        /* \"@openzeppelin/contracts/security/ReentrancyGuard.sol\":2261:2282  _nonReentrantBefore() */\n      jump\t// in\n    tag_46:\n        /* \"FlightInsurance2.sol\":1726:1743  insuranceProvider */\n      0x01\n      0x00\n      swap1\n      sload\n      swap1\n      0x0100\n      exp\n      swap1\n      div\n      0xffffffffffffffffffffffffffffffffffffffff\n      and\n        /* \"FlightInsurance2.sol\":1712:1743  msg.sender == insuranceProvider */\n      0xffffffffffffffffffffffffffffffffffffffff\n      and\n        /* \"FlightInsurance2.sol\":1712:1722  msg.sender */\n      caller\n        /* \"FlightInsurance2.sol\":1712:1743  msg.sender == insuranceProvider */\n      0xffffffffffffffffffffffffffffffffffffffff\n      and\n      sub\n        /* \"FlightInsurance2.sol\":1708:1822  if (msg.sender == insuranceProvider) {... */\n      tag_49\n      jumpi\n        /* \"FlightInsurance2.sol\":1767:1772  false */\n      0x00\n        /* \"FlightInsurance2.sol\":1759:1811  return (false, \"Invalid Caller: Insurance Provider\") */\n      mload(0x40)\n      dup1\n      0x60\n      add\n      0x40\n      mstore\n      dup1\n      0x22\n      dup2\n      mstore\n      0x20\n      add\n      data_90125a95f140e7c431643cdabd4e1c369c10e0c0b7476bfd704cd47a5bf883f1\n      0x22\n      swap2\n      codecopy\n      swap2\n      pop\n      swap2\n      pop\n      jump(tag_48)\n        /* \"FlightInsurance2.sol\":1708:1822  if (msg.sender == insuranceProvider) {... */\n    tag_49:\n        /* \"FlightInsurance2.sol\":1893:1894  0 */\n      0x00\n        /* \"FlightInsurance2.sol\":1835:1895  policiesByAddress[msg.sender].passengerAddress != address(0) */\n      0xffffffffffffffffffffffffffffffffffffffff\n      and\n        /* \"FlightInsurance2.sol\":1835:1852  policiesByAddress */\n      0x02\n        /* \"FlightInsurance2.sol\":1835:1864  policiesByAddress[msg.sender] */\n      0x00\n        /* \"FlightInsurance2.sol\":1853:1863  msg.sender */\n      caller\n        /* \"FlightInsurance2.sol\":1835:1864  policiesByAddress[msg.sender] */\n      0xffffffffffffffffffffffffffffffffffffffff\n      and\n      0xffffffffffffffffffffffffffffffffffffffff\n      and\n      dup2\n      mstore\n      0x20\n      add\n      swap1\n      dup2\n      mstore\n      0x20\n      add\n      0x00\n      keccak256\n        /* \"FlightInsurance2.sol\":1835:1881  policiesByAddress[msg.sender].passengerAddress */\n      0x01\n      add\n      0x00\n      swap1\n      sload\n      swap1\n      0x0100\n      exp\n      swap1\n      div\n      0xffffffffffffffffffffffffffffffffffffffff\n      and\n        /* \"FlightInsurance2.sol\":1835:1895  policiesByAddress[msg.sender].passengerAddress != address(0) */\n      0xffffffffffffffffffffffffffffffffffffffff\n      and\n      eq\n        /* \"FlightInsurance2.sol\":1831:1978  if (policiesByAddress[msg.sender].passengerAddress != address(0)) {... */\n      tag_50\n      jumpi\n        /* \"FlightInsurance2.sol\":1919:1924  false */\n      0x00\n        /* \"FlightInsurance2.sol\":1911:1967  return (false, \"Policy already exists for this address\") */\n      mload(0x40)\n      dup1\n      0x60\n      add\n      0x40\n      mstore\n      dup1\n      0x26\n      dup2\n      mstore\n      0x20\n      add\n      data_90e62f8819c827a807f9699ff7d534f63b1757c7c06d7e0f1b655a13e0c6e2d0\n      0x26\n      swap2\n      codecopy\n      swap2\n      pop\n      swap2\n      pop\n      jump(tag_48)\n        /* \"FlightInsurance2.sol\":1831:1978  if (policiesByAddress[msg.sender].passengerAddress != address(0)) {... */\n    tag_50:\n        /* \"FlightInsurance2.sol\":2038:2049  destination */\n      dup4\n      dup4\n        /* \"FlightInsurance2.sol\":2022:2051  keccak256(bytes(destination)) */\n      mload(0x40)\n      tag_51\n      swap3\n      swap2\n      swap1\n      tag_52\n      jump\t// in\n    tag_51:\n      mload(0x40)\n      dup1\n      swap2\n      sub\n      swap1\n      keccak256\n        /* \"FlightInsurance2.sol\":2007:2016  departure */\n      dup7\n      dup7\n        /* \"FlightInsurance2.sol\":1991:2018  keccak256(bytes(departure)) */\n      mload(0x40)\n      tag_53\n      swap3\n      swap2\n      swap1\n      tag_52\n      jump\t// in\n    tag_53:\n      mload(0x40)\n      dup1\n      swap2\n      sub\n      swap1\n      keccak256\n        /* \"FlightInsurance2.sol\":1991:2051  keccak256(bytes(departure)) == keccak256(bytes(destination)) */\n      sub\n        /* \"FlightInsurance2.sol\":1987:2147  if (keccak256(bytes(departure)) == keccak256(bytes(destination))) {... */\n      tag_54\n      jumpi\n        /* \"FlightInsurance2.sol\":2075:2080  false */\n      0x00\n        /* \"FlightInsurance2.sol\":2067:2136  return (false, \"Departure and destination cities cannot be the same\") */\n      mload(0x40)\n      dup1\n      0x60\n      add\n      0x40\n      mstore\n      dup1\n      0x33\n      dup2\n      mstore\n      0x20\n      add\n      data_6f31ec84f1633147aa3d024eb7f56473d59ec67a9eec6c05e5cf01eb0db0a5c8\n      0x33\n      swap2\n      codecopy\n      swap2\n      pop\n      swap2\n      pop\n      jump(tag_48)\n        /* \"FlightInsurance2.sol\":1987:2147  if (keccak256(bytes(departure)) == keccak256(bytes(destination))) {... */\n    tag_54:\n        /* \"FlightInsurance2.sol\":610:620  0.01 ether */\n      0x2386f26fc10000\n        /* \"FlightInsurance2.sol\":2160:2169  msg.value */\n      callvalue\n        /* \"FlightInsurance2.sol\":2160:2179  msg.value < PREMIUM */\n      lt\n        /* \"FlightInsurance2.sol\":2156:2269  if (msg.value < PREMIUM) {... */\n      iszero\n      tag_55\n      jumpi\n        /* \"FlightInsurance2.sol\":2203:2208  false */\n      0x00\n        /* \"FlightInsurance2.sol\":2195:2258  return (false, \"Insufficient funds: Minimum 0.01 ETH required\") */\n      mload(0x40)\n      dup1\n      0x60\n      add\n      0x40\n      mstore\n      dup1\n      0x2d\n      dup2\n      mstore\n      0x20\n      add\n      data_ef070f5147518867988621c2539f9f6b08693b883575bb0e1da4e2e6be6fd1e2\n      0x2d\n      swap2\n      codecopy\n      swap2\n      pop\n      swap2\n      pop\n      jump(tag_48)\n        /* \"FlightInsurance2.sol\":2156:2269  if (msg.value < PREMIUM) {... */\n    tag_55:\n        /* \"FlightInsurance2.sol\":2350:2637  InsurancePolicy({... */\n      mload(0x40)\n      dup1\n      0xe0\n      add\n      0x40\n      mstore\n      dup1\n        /* \"FlightInsurance2.sol\":2395:2399  name */\n      dup14\n      dup14\n        /* \"FlightInsurance2.sol\":2350:2637  InsurancePolicy({... */\n      dup1\n      dup1\n      0x1f\n      add\n      0x20\n      dup1\n      swap2\n      div\n      mul\n      0x20\n      add\n      mload(0x40)\n      swap1\n      dup2\n      add\n      0x40\n      mstore\n      dup1\n      swap4\n      swap3\n      swap2\n      swap1\n      dup2\n      dup2\n      mstore\n      0x20\n      add\n      dup4\n      dup4\n      dup1\n      dup3\n      dup5\n      calldatacopy\n      0x00\n      dup2\n      dup5\n      add\n      mstore\n      not(0x1f)\n      0x1f\n      dup3\n      add\n      and\n      swap1\n      pop\n      dup1\n      dup4\n      add\n      swap3\n      pop\n      pop\n      pop\n      pop\n      pop\n      pop\n      pop\n      dup2\n      mstore\n      0x20\n      add\n        /* \"FlightInsurance2.sol\":2431:2441  msg.sender */\n      caller\n        /* \"FlightInsurance2.sol\":2350:2637  InsurancePolicy({... */\n      0xffffffffffffffffffffffffffffffffffffffff\n      and\n      dup2\n      mstore\n      0x20\n      add\n        /* \"FlightInsurance2.sol\":2469:2477  flightNo */\n      dup12\n      dup12\n        /* \"FlightInsurance2.sol\":2350:2637  InsurancePolicy({... */\n      dup1\n      dup1\n      0x1f\n      add\n      0x20\n      dup1\n      swap2\n      div\n      mul\n      0x20\n      add\n      mload(0x40)\n      swap1\n      dup2\n      add\n      0x40\n      mstore\n      dup1\n      swap4\n      swap3\n      swap2\n      swap1\n      dup2\n      dup2\n      mstore\n      0x20\n      add\n      dup4\n      dup4\n      dup1\n      dup3\n      dup5\n      calldatacopy\n      0x00\n      dup2\n      dup5\n      add\n      mstore\n      not(0x1f)\n      0x1f\n      dup3\n      add\n      and\n      swap1\n      pop\n      dup1\n      dup4\n      add\n      swap3\n      pop\n      pop\n      pop\n      pop\n      pop\n      pop\n      pop\n      dup2\n      mstore\n      0x20\n      add\n        /* \"FlightInsurance2.sol\":2503:2507  date */\n      dup10\n      dup10\n        /* \"FlightInsurance2.sol\":2350:2637  InsurancePolicy({... */\n      dup1\n      dup1\n      0x1f\n      add\n      0x20\n      dup1\n      swap2\n      div\n      mul\n      0x20\n      add\n      mload(0x40)\n      swap1\n      dup2\n      add\n      0x40\n      mstore\n      dup1\n      swap4\n      swap3\n      swap2\n      swap1\n      dup2\n      dup2\n      mstore\n      0x20\n      add\n      dup4\n      dup4\n      dup1\n      dup3\n      dup5\n      calldatacopy\n      0x00\n      dup2\n      dup5\n      add\n      mstore\n      not(0x1f)\n      0x1f\n      dup3\n      add\n      and\n      swap1\n      pop\n      dup1\n      dup4\n      add\n      swap3\n      pop\n      pop\n      pop\n      pop\n      pop\n      pop\n      pop\n      dup2\n      mstore\n      0x20\n      add\n        /* \"FlightInsurance2.sol\":2536:2545  departure */\n      dup8\n      dup8\n        /* \"FlightInsurance2.sol\":2350:2637  InsurancePolicy({... */\n      dup1\n      dup1\n      0x1f\n      add\n      0x20\n      dup1\n      swap2\n      div\n      mul\n      0x20\n      add\n      mload(0x40)\n      swap1\n      dup2\n      add\n      0x40\n      mstore\n      dup1\n      swap4\n      swap3\n      swap2\n      swap1\n      dup2\n      dup2\n      mstore\n      0x20\n      add\n      dup4\n      dup4\n      dup1\n      dup3\n      dup5\n      calldatacopy\n      0x00\n      dup2\n      dup5\n      add\n      mstore\n      not(0x1f)\n      0x1f\n      dup3\n      add\n      and\n      swap1\n      pop\n      dup1\n      dup4\n      add\n      swap3\n      pop\n      pop\n      pop\n      pop\n      pop\n      pop\n      pop\n      dup2\n      mstore\n      0x20\n      add\n        /* \"FlightInsurance2.sol\":2576:2587  destination */\n      dup6\n      dup6\n        /* \"FlightInsurance2.sol\":2350:2637  InsurancePolicy({... */\n      dup1\n      dup1\n      0x1f\n      add\n      0x20\n      dup1\n      swap2\n      div\n      mul\n      0x20\n      add\n      mload(0x40)\n      swap1\n      dup2\n      add\n      0x40\n      mstore\n      dup1\n      swap4\n      swap3\n      swap2\n      swap1\n      dup2\n      dup2\n      mstore\n      0x20\n      add\n      dup4\n      dup4\n      dup1\n      dup3\n      dup5\n      calldatacopy\n      0x00\n      dup2\n      dup5\n      add\n      mstore\n      not(0x1f)\n      0x1f\n      dup3\n      add\n      and\n      swap1\n      pop\n      dup1\n      dup4\n      add\n      swap3\n      pop\n      pop\n      pop\n      pop\n      pop\n      pop\n      pop\n      dup2\n      mstore\n      0x20\n      add\n      mload(0x40)\n      dup1\n      0x40\n      add\n      0x40\n      mstore\n      dup1\n      0x09\n      dup2\n      mstore\n      0x20\n      add\n      0x7075726368617365640000000000000000000000000000000000000000000000\n      dup2\n      mstore\n      pop\n      dup2\n      mstore\n      pop\n        /* \"FlightInsurance2.sol\":2318:2335  policiesByAddress */\n      0x02\n        /* \"FlightInsurance2.sol\":2318:2347  policiesByAddress[msg.sender] */\n      0x00\n        /* \"FlightInsurance2.sol\":2336:2346  msg.sender */\n      caller\n        /* \"FlightInsurance2.sol\":2318:2347  policiesByAddress[msg.sender] */\n      0xffffffffffffffffffffffffffffffffffffffff\n      and\n      0xffffffffffffffffffffffffffffffffffffffff\n      and\n      dup2\n      mstore\n      0x20\n      add\n      swap1\n      dup2\n      mstore\n      0x20\n      add\n      0x00\n      keccak256\n        /* \"FlightInsurance2.sol\":2318:2637  policiesByAddress[msg.sender] = InsurancePolicy({... */\n      0x00\n      dup3\n      add\n      mload\n      dup2\n      0x00\n      add\n      swap1\n      dup2\n      tag_56\n      swap2\n      swap1\n      tag_57\n      jump\t// in\n    tag_56:\n      pop\n      0x20\n      dup3\n      add\n      mload\n      dup2\n      0x01\n      add\n      exp(0x0100, 0x00)\n      dup2\n      sload\n      dup2\n      0xffffffffffffffffffffffffffffffffffffffff\n      mul\n      not\n      and\n      swap1\n      dup4\n      0xffffffffffffffffffffffffffffffffffffffff\n      and\n      mul\n      or\n      swap1\n      sstore\n      pop\n      0x40\n      dup3\n      add\n      mload\n      dup2\n      0x02\n      add\n      swap1\n      dup2\n      tag_58\n      swap2\n      swap1\n      tag_57\n      jump\t// in\n    tag_58:\n      pop\n      0x60\n      dup3\n      add\n      mload\n      dup2\n      0x03\n      add\n      swap1\n      dup2\n      tag_59\n      swap2\n      swap1\n      tag_57\n      jump\t// in\n    tag_59:\n      pop\n      0x80\n      dup3\n      add\n      mload\n      dup2\n      0x04\n      add\n      swap1\n      dup2\n      tag_60\n      swap2\n      swap1\n      tag_57\n      jump\t// in\n    tag_60:\n      pop\n      0xa0\n      dup3\n      add\n      mload\n      dup2\n      0x05\n      add\n      swap1\n      dup2\n      tag_61\n      swap2\n      swap1\n      tag_57\n      jump\t// in\n    tag_61:\n      pop\n      0xc0\n      dup3\n      add\n      mload\n      dup2\n      0x06\n      add\n      swap1\n      dup2\n      tag_62\n      swap2\n      swap1\n      tag_57\n      jump\t// in\n    tag_62:\n      pop\n      swap1\n      pop\n      pop\n        /* \"FlightInsurance2.sol\":2696:2716  insuredPassengerList */\n      0x03\n        /* \"FlightInsurance2.sol\":2722:2732  msg.sender */\n      caller\n        /* \"FlightInsurance2.sol\":2696:2733  insuredPassengerList.push(msg.sender) */\n      swap1\n      dup1\n      0x01\n      dup2\n      sload\n      add\n      dup1\n      dup3\n      sstore\n      dup1\n      swap2\n      pop\n      pop\n      0x01\n      swap1\n      sub\n      swap1\n      0x00\n      mstore\n      keccak256(0x00, 0x20)\n      add\n      0x00\n      swap1\n      swap2\n      swap1\n      swap2\n      swap1\n      swap2\n      0x0100\n      exp\n      dup2\n      sload\n      dup2\n      0xffffffffffffffffffffffffffffffffffffffff\n      mul\n      not\n      and\n      swap1\n      dup4\n      0xffffffffffffffffffffffffffffffffffffffff\n      and\n      mul\n      or\n      swap1\n      sstore\n      pop\n        /* \"FlightInsurance2.sol\":2796:2813  insuranceProvider */\n      0x01\n      0x00\n      swap1\n      sload\n      swap1\n      0x0100\n      exp\n      swap1\n      div\n      0xffffffffffffffffffffffffffffffffffffffff\n      and\n        /* \"FlightInsurance2.sol\":2788:2823  payable(insuranceProvider).transfer */\n      0xffffffffffffffffffffffffffffffffffffffff\n      and\n        /* \"FlightInsurance2.sol\":2788:2832  payable(insuranceProvider).transfer(PREMIUM) */\n      0x08fc\n        /* \"FlightInsurance2.sol\":610:620  0.01 ether */\n      0x2386f26fc10000\n        /* \"FlightInsurance2.sol\":2788:2832  payable(insuranceProvider).transfer(PREMIUM) */\n      swap1\n      dup2\n      iszero\n      mul\n      swap1\n      mload(0x40)\n      0x00\n      mload(0x40)\n      dup1\n      dup4\n      sub\n      dup2\n      dup6\n      dup9\n      dup9\n      call\n      swap4\n      pop\n      pop\n      pop\n      pop\n      iszero\n      dup1\n      iszero\n      tag_65\n      jumpi\n      returndatasize\n      0x00\n      dup1\n      returndatacopy\n      revert(0x00, returndatasize)\n    tag_65:\n      pop\n        /* \"FlightInsurance2.sol\":2851:2855  true */\n      0x01\n        /* \"FlightInsurance2.sol\":2843:2889  return (true, \"Policy successfully purchased\") */\n      mload(0x40)\n      dup1\n      0x40\n      add\n      0x40\n      mstore\n      dup1\n      0x1d\n      dup2\n      mstore\n      0x20\n      add\n      0x506f6c696379207375636365737366756c6c7920707572636861736564000000\n      dup2\n      mstore\n      pop\n      swap2\n      pop\n      swap2\n      pop\n        /* \"@openzeppelin/contracts/security/ReentrancyGuard.sol\":2292:2293  _ */\n    tag_48:\n        /* \"@openzeppelin/contracts/security/ReentrancyGuard.sol\":2303:2323  _nonReentrantAfter() */\n      tag_66\n        /* \"@openzeppelin/contracts/security/ReentrancyGuard.sol\":2303:2321  _nonReentrantAfter */\n      tag_67\n        /* \"@openzeppelin/contracts/security/ReentrancyGuard.sol\":2303:2323  _nonReentrantAfter() */\n      jump\t// in\n    tag_66:\n        /* \"FlightInsurance2.sol\":1442:2896  function purchasePolicy(... */\n      swap11\n      pop\n      swap11\n      swap9\n      pop\n      pop\n      pop\n      pop\n      pop\n      pop\n      pop\n      pop\n      pop\n      jump\t// out\n        /* \"FlightInsurance2.sol\":2949:3407  function viewMyPolicy() external view returns (InsurancePolicy memory, string memory) {... */\n    tag_18:\n        /* \"FlightInsurance2.sol\":2996:3018  InsurancePolicy memory */\n      tag_68\n      tag_69\n      jump\t// in\n    tag_68:\n        /* \"FlightInsurance2.sol\":3020:3033  string memory */\n      0x60\n        /* \"FlightInsurance2.sol\":3045:3074  InsurancePolicy memory policy */\n      0x00\n        /* \"FlightInsurance2.sol\":3077:3094  policiesByAddress */\n      0x02\n        /* \"FlightInsurance2.sol\":3077:3106  policiesByAddress[msg.sender] */\n      0x00\n        /* \"FlightInsurance2.sol\":3095:3105  msg.sender */\n      caller\n        /* \"FlightInsurance2.sol\":3077:3106  policiesByAddress[msg.sender] */\n      0xffffffffffffffffffffffffffffffffffffffff\n      and\n      0xffffffffffffffffffffffffffffffffffffffff\n      and\n      dup2\n      mstore\n      0x20\n      add\n      swap1\n      dup2\n      mstore\n      0x20\n      add\n      0x00\n      keccak256\n        /* \"FlightInsurance2.sol\":3045:3106  InsurancePolicy memory policy = policiesByAddress[msg.sender] */\n      mload(0x40)\n      dup1\n      0xe0\n      add\n      0x40\n      mstore\n      swap1\n      dup2\n      0x00\n      dup3\n      add\n      dup1\n      sload\n      tag_71\n      swap1\n      tag_72\n      jump\t// in\n    tag_71:\n      dup1\n      0x1f\n      add\n      0x20\n      dup1\n      swap2\n      div\n      mul\n      0x20\n      add\n      mload(0x40)\n      swap1\n      dup2\n      add\n      0x40\n      mstore\n      dup1\n      swap3\n      swap2\n      swap1\n      dup2\n      dup2\n      mstore\n      0x20\n      add\n      dup3\n      dup1\n      sload\n      tag_73\n      swap1\n      tag_72\n      jump\t// in\n    tag_73:\n      dup1\n      iszero\n      tag_74\n      jumpi\n      dup1\n      0x1f\n      lt\n      tag_75\n      jumpi\n      0x0100\n      dup1\n      dup4\n      sload\n      div\n      mul\n      dup4\n      mstore\n      swap2\n      0x20\n      add\n      swap2\n      jump(tag_74)\n    tag_75:\n      dup3\n      add\n      swap2\n      swap1\n      0x00\n      mstore\n      keccak256(0x00, 0x20)\n      swap1\n    tag_76:\n      dup2\n      sload\n      dup2\n      mstore\n      swap1\n      0x01\n      add\n      swap1\n      0x20\n      add\n      dup1\n      dup4\n      gt\n      tag_76\n      jumpi\n      dup3\n      swap1\n      sub\n      0x1f\n      and\n      dup3\n      add\n      swap2\n    tag_74:\n      pop\n      pop\n      pop\n      pop\n      pop\n      dup2\n      mstore\n      0x20\n      add\n      0x01\n      dup3\n      add\n      0x00\n      swap1\n      sload\n      swap1\n      0x0100\n      exp\n      swap1\n      div\n      0xffffffffffffffffffffffffffffffffffffffff\n      and\n      0xffffffffffffffffffffffffffffffffffffffff\n      and\n      0xffffffffffffffffffffffffffffffffffffffff\n      and\n      dup2\n      mstore\n      0x20\n      add\n      0x02\n      dup3\n      add\n      dup1\n      sload\n      tag_77\n      swap1\n      tag_72\n      jump\t// in\n    tag_77:\n      dup1\n      0x1f\n      add\n      0x20\n      dup1\n      swap2\n      div\n      mul\n      0x20\n      add\n      mload(0x40)\n      swap1\n      dup2\n      add\n      0x40\n      mstore\n      dup1\n      swap3\n      swap2\n      swap1\n      dup2\n      dup2\n      mstore\n      0x20\n      add\n      dup3\n      dup1\n      sload\n      tag_78\n      swap1\n      tag_72\n      jump\t// in\n    tag_78:\n      dup1\n      iszero\n      tag_79\n      jumpi\n      dup1\n      0x1f\n      lt\n      tag_80\n      jumpi\n      0x0100\n      dup1\n      dup4\n      sload\n      div\n      mul\n      dup4\n      mstore\n      swap2\n      0x20\n      add\n      swap2\n      jump(tag_79)\n    tag_80:\n      dup3\n      add\n      swap2\n      swap1\n      0x00\n      mstore\n      keccak256(0x00, 0x20)\n      swap1\n    tag_81:\n      dup2\n      sload\n      dup2\n      mstore\n      swap1\n      0x01\n      add\n      swap1\n      0x20\n      add\n      dup1\n      dup4\n      gt\n      tag_81\n      jumpi\n      dup3\n      swap1\n      sub\n      0x1f\n      and\n      dup3\n      add\n      swap2\n    tag_79:\n      pop\n      pop\n      pop\n      pop\n      pop\n      dup2\n      mstore\n      0x20\n      add\n      0x03\n      dup3\n      add\n      dup1\n      sload\n      tag_82\n      swap1\n      tag_72\n      jump\t// in\n    tag_82:\n      dup1\n      0x1f\n      add\n      0x20\n      dup1\n      swap2\n      div\n      mul\n      0x20\n      add\n      mload(0x40)\n      swap1\n      dup2\n      add\n      0x40\n      mstore\n      dup1\n      swap3\n      swap2\n      swap1\n      dup2\n      dup2\n      mstore\n      0x20\n      add\n      dup3\n      dup1\n      sload\n      tag_83\n      swap1\n      tag_72\n      jump\t// in\n    tag_83:\n      dup1\n      iszero\n      tag_84\n      jumpi\n      dup1\n      0x1f\n      lt\n      tag_85\n      jumpi\n      0x0100\n      dup1\n      dup4\n      sload\n      div\n      mul\n      dup4\n      mstore\n      swap2\n      0x20\n      add\n      swap2\n      jump(tag_84)\n    tag_85:\n      dup3\n      add\n      swap2\n      swap1\n      0x00\n      mstore\n      keccak256(0x00, 0x20)\n      swap1\n    tag_86:\n      dup2\n      sload\n      dup2\n      mstore\n      swap1\n      0x01\n      add\n      swap1\n      0x20\n      add\n      dup1\n      dup4\n      gt\n      tag_86\n      jumpi\n      dup3\n      swap1\n      sub\n      0x1f\n      and\n      dup3\n      add\n      swap2\n    tag_84:\n      pop\n      pop\n      pop\n      pop\n      pop\n      dup2\n      mstore\n      0x20\n      add\n      0x04\n      dup3\n      add\n      dup1\n      sload\n      tag_87\n      swap1\n      tag_72\n      jump\t// in\n    tag_87:\n      dup1\n      0x1f\n      add\n      0x20\n      dup1\n      swap2\n      div\n      mul\n      0x20\n      add\n      mload(0x40)\n      swap1\n      dup2\n      add\n      0x40\n      mstore\n      dup1\n      swap3\n      swap2\n      swap1\n      dup2\n      dup2\n      mstore\n      0x20\n      add\n      dup3\n      dup1\n      sload\n      tag_88\n      swap1\n      tag_72\n      jump\t// in\n    tag_88:\n      dup1\n      iszero\n      tag_89\n      jumpi\n      dup1\n      0x1f\n      lt\n      tag_90\n      jumpi\n      0x0100\n      dup1\n      dup4\n      sload\n      div\n      mul\n      dup4\n      mstore\n      swap2\n      0x20\n      add\n      swap2\n      jump(tag_89)\n    tag_90:\n      dup3\n      add\n      swap2\n      swap1\n      0x00\n      mstore\n      keccak256(0x00, 0x20)\n      swap1\n    tag_91:\n      dup2\n      sload\n      dup2\n      mstore\n      swap1\n      0x01\n      add\n      swap1\n      0x20\n      add\n      dup1\n      dup4\n      gt\n      tag_91\n      jumpi\n      dup3\n      swap1\n      sub\n      0x1f\n      and\n      dup3\n      add\n      swap2\n    tag_89:\n      pop\n      pop\n      pop\n      pop\n      pop\n      dup2\n      mstore\n      0x20\n      add\n      0x05\n      dup3\n      add\n      dup1\n      sload\n      tag_92\n      swap1\n      tag_72\n      jump\t// in\n    tag_92:\n      dup1\n      0x1f\n      add\n      0x20\n      dup1\n      swap2\n      div\n      mul\n      0x20\n      add\n      mload(0x40)\n      swap1\n      dup2\n      add\n      0x40\n      mstore\n      dup1\n      swap3\n      swap2\n      swap1\n      dup2\n      dup2\n      mstore\n      0x20\n      add\n      dup3\n      dup1\n      sload\n      tag_93\n      swap1\n      tag_72\n      jump\t// in\n    tag_93:\n      dup1\n      iszero\n      tag_94\n      jumpi\n      dup1\n      0x1f\n      lt\n      tag_95\n      jumpi\n      0x0100\n      dup1\n      dup4\n      sload\n      div\n      mul\n      dup4\n      mstore\n      swap2\n      0x20\n      add\n      swap2\n      jump(tag_94)\n    tag_95:\n      dup3\n      add\n      swap2\n      swap1\n      0x00\n      mstore\n      keccak256(0x00, 0x20)\n      swap1\n    tag_96:\n      dup2\n      sload\n      dup2\n      mstore\n      swap1\n      0x01\n      add\n      swap1\n      0x20\n      add\n      dup1\n      dup4\n      gt\n      tag_96\n      jumpi\n      dup3\n      swap1\n      sub\n      0x1f\n      and\n      dup3\n      add\n      swap2\n    tag_94:\n      pop\n      pop\n      pop\n      pop\n      pop\n      dup2\n      mstore\n      0x20\n      add\n      0x06\n      dup3\n      add\n      dup1\n      sload\n      tag_97\n      swap1\n      tag_72\n      jump\t// in\n    tag_97:\n      dup1\n      0x1f\n      add\n      0x20\n      dup1\n      swap2\n      div\n      mul\n      0x20\n      add\n      mload(0x40)\n      swap1\n      dup2\n      add\n      0x40\n      mstore\n      dup1\n      swap3\n      swap2\n      swap1\n      dup2\n      dup2\n      mstore\n      0x20\n      add\n      dup3\n      dup1\n      sload\n      tag_98\n      swap1\n      tag_72\n      jump\t// in\n    tag_98:\n      dup1\n      iszero\n      tag_99\n      jumpi\n      dup1\n      0x1f\n      lt\n      tag_100\n      jumpi\n      0x0100\n      dup1\n      dup4\n      sload\n      div\n      mul\n      dup4\n      mstore\n      swap2\n      0x20\n      add\n      swap2\n      jump(tag_99)\n    tag_100:\n      dup3\n      add\n      swap2\n      swap1\n      0x00\n      mstore\n      keccak256(0x00, 0x20)\n      swap1\n    tag_101:\n      dup2\n      sload\n      dup2\n      mstore\n      swap1\n      0x01\n      add\n      swap1\n      0x20\n      add\n      dup1\n      dup4\n      gt\n      tag_101\n      jumpi\n      dup3\n      swap1\n      sub\n      0x1f\n      and\n      dup3\n      add\n      swap2\n    tag_99:\n      pop\n      pop\n      pop\n      pop\n      pop\n      dup2\n      mstore\n      pop\n      pop\n      swap1\n      pop\n        /* \"FlightInsurance2.sol\":3134:3151  insuranceProvider */\n      0x01\n      0x00\n      swap1\n      sload\n      swap1\n      0x0100\n      exp\n      swap1\n      div\n      0xffffffffffffffffffffffffffffffffffffffff\n      and\n        /* \"FlightInsurance2.sol\":3120:3151  msg.sender == insuranceProvider */\n      0xffffffffffffffffffffffffffffffffffffffff\n      and\n        /* \"FlightInsurance2.sol\":3120:3130  msg.sender */\n      caller\n        /* \"FlightInsurance2.sol\":3120:3151  msg.sender == insuranceProvider */\n      0xffffffffffffffffffffffffffffffffffffffff\n      and\n      sub\n        /* \"FlightInsurance2.sol\":3116:3231  if (msg.sender == insuranceProvider) {... */\n      tag_102\n      jumpi\n        /* \"FlightInsurance2.sol\":3175:3181  policy */\n      dup1\n        /* \"FlightInsurance2.sol\":3167:3220  return (policy, \"Invalid Caller: Insurance Provider\") */\n      mload(0x40)\n      dup1\n      0x60\n      add\n      0x40\n      mstore\n      dup1\n      0x22\n      dup2\n      mstore\n      0x20\n      add\n      data_90125a95f140e7c431643cdabd4e1c369c10e0c0b7476bfd704cd47a5bf883f1\n      0x22\n      swap2\n      codecopy\n      swap3\n      pop\n      swap3\n      pop\n      pop\n      jump(tag_70)\n        /* \"FlightInsurance2.sol\":3116:3231  if (msg.sender == insuranceProvider) {... */\n    tag_102:\n        /* \"FlightInsurance2.sol\":3280:3281  0 */\n      0x00\n        /* \"FlightInsurance2.sol\":3245:3282  policy.passengerAddress == address(0) */\n      0xffffffffffffffffffffffffffffffffffffffff\n      and\n        /* \"FlightInsurance2.sol\":3245:3251  policy */\n      dup2\n        /* \"FlightInsurance2.sol\":3245:3268  policy.passengerAddress */\n      0x20\n      add\n      mload\n        /* \"FlightInsurance2.sol\":3245:3282  policy.passengerAddress == address(0) */\n      0xffffffffffffffffffffffffffffffffffffffff\n      and\n      sub\n        /* \"FlightInsurance2.sol\":3241:3343  if (policy.passengerAddress == address(0)) {... */\n      tag_103\n      jumpi\n        /* \"FlightInsurance2.sol\":3306:3312  policy */\n      dup1\n        /* \"FlightInsurance2.sol\":3298:3332  return (policy, \"No policy found\") */\n      mload(0x40)\n      dup1\n      0x40\n      add\n      0x40\n      mstore\n      dup1\n      0x0f\n      dup2\n      mstore\n      0x20\n      add\n      0x4e6f20706f6c69637920666f756e640000000000000000000000000000000000\n      dup2\n      mstore\n      pop\n      swap3\n      pop\n      swap3\n      pop\n      pop\n      jump(tag_70)\n        /* \"FlightInsurance2.sol\":3241:3343  if (policy.passengerAddress == address(0)) {... */\n    tag_103:\n        /* \"FlightInsurance2.sol\":3360:3366  policy */\n      dup1\n        /* \"FlightInsurance2.sol\":3352:3400  return (policy, \"Policy retrieved successfully\") */\n      mload(0x40)\n      dup1\n      0x40\n      add\n      0x40\n      mstore\n      dup1\n      0x1d\n      dup2\n      mstore\n      0x20\n      add\n      0x506f6c69637920726574726965766564207375636365737366756c6c79000000\n      dup2\n      mstore\n      pop\n      swap3\n      pop\n      swap3\n      pop\n      pop\n        /* \"FlightInsurance2.sol\":2949:3407  function viewMyPolicy() external view returns (InsurancePolicy memory, string memory) {... */\n    tag_70:\n      swap1\n      swap2\n      jump\t// out\n        /* \"FlightInsurance2.sol\":679:711  address public insuranceProvider */\n    tag_23:\n      0x01\n      0x00\n      swap1\n      sload\n      swap1\n      0x0100\n      exp\n      swap1\n      div\n      0xffffffffffffffffffffffffffffffffffffffff\n      and\n      dup2\n      jump\t// out\n        /* \"FlightInsurance2.sol\":1170:1367  function viewAvailablePolicy() external pure returns (string memory) {... */\n    tag_28:\n        /* \"FlightInsurance2.sol\":1224:1237  string memory */\n      0x60\n        /* \"FlightInsurance2.sol\":1249:1360  return \"Premium: 0.01 ETH, Indemnity: 0.02 ETH, Coverage: Extreme Weather Delays (e.g., hail, flooding, etc.).\" */\n      mload(0x40)\n      dup1\n      0xa0\n      add\n      0x40\n      mstore\n      dup1\n      0x66\n      dup2\n      mstore\n      0x20\n      add\n      data_d59989be92bc9d1b4549c043b505eb9c4875cfd9f825df1096982c95975097c2\n      0x66\n      swap2\n      codecopy\n      swap1\n      pop\n        /* \"FlightInsurance2.sol\":1170:1367  function viewAvailablePolicy() external pure returns (string memory) {... */\n      swap1\n      jump\t// out\n        /* \"FlightInsurance2.sol\":3472:4148  function viewAllPolicies() external view returns (InsurancePolicy[] memory, string memory) {... */\n    tag_33:\n        /* \"FlightInsurance2.sol\":3522:3546  InsurancePolicy[] memory */\n      0x60\n        /* \"FlightInsurance2.sol\":3548:3561  string memory */\n      dup1\n        /* \"FlightInsurance2.sol\":3683:3700  insuranceProvider */\n      0x01\n      0x00\n      swap1\n      sload\n      swap1\n      0x0100\n      exp\n      swap1\n      div\n      0xffffffffffffffffffffffffffffffffffffffff\n      and\n        /* \"FlightInsurance2.sol\":3669:3700  msg.sender != insuranceProvider */\n      0xffffffffffffffffffffffffffffffffffffffff\n      and\n        /* \"FlightInsurance2.sol\":3669:3679  msg.sender */\n      caller\n        /* \"FlightInsurance2.sol\":3669:3700  msg.sender != insuranceProvider */\n      0xffffffffffffffffffffffffffffffffffffffff\n      and\n      eq\n        /* \"FlightInsurance2.sol\":3665:3822  if (msg.sender != insuranceProvider) {... */\n      tag_106\n      jumpi\n        /* \"FlightInsurance2.sol\":3716:3746  InsurancePolicy[] memory empty */\n      0x60\n        /* \"FlightInsurance2.sol\":3768:3773  empty */\n      dup1\n        /* \"FlightInsurance2.sol\":3760:3811  return (empty, \"Caller must be insurance provider\") */\n      mload(0x40)\n      dup1\n      0x60\n      add\n      0x40\n      mstore\n      dup1\n      0x21\n      dup2\n      mstore\n      0x20\n      add\n      data_2df0834bdf8786d74360a7c8b8d7de5d15a4289ab85529d73f4e7397c0b8af40\n      0x21\n      swap2\n      codecopy\n      swap3\n      pop\n      swap3\n      pop\n      pop\n      jump(tag_105)\n        /* \"FlightInsurance2.sol\":3665:3822  if (msg.sender != insuranceProvider) {... */\n    tag_106:\n        /* \"FlightInsurance2.sol\":3832:3868  InsurancePolicy[] memory allPolicies */\n      0x00\n        /* \"FlightInsurance2.sol\":3893:3913  insuredPassengerList */\n      0x03\n        /* \"FlightInsurance2.sol\":3893:3920  insuredPassengerList.length */\n      dup1\n      sload\n      swap1\n      pop\n        /* \"FlightInsurance2.sol\":3871:3921  new InsurancePolicy[](insuredPassengerList.length) */\n      0xffffffffffffffff\n      dup2\n      gt\n      iszero\n      tag_107\n      jumpi\n      tag_108\n      tag_109\n      jump\t// in\n    tag_108:\n    tag_107:\n      mload(0x40)\n      swap1\n      dup1\n      dup3\n      mstore\n      dup1\n      0x20\n      mul\n      0x20\n      add\n      dup3\n      add\n      0x40\n      mstore\n      dup1\n      iszero\n      tag_110\n      jumpi\n      dup2\n      0x20\n      add\n    tag_111:\n      tag_112\n      tag_69\n      jump\t// in\n    tag_112:\n      dup2\n      mstore\n      0x20\n      add\n      swap1\n      0x01\n      swap1\n      sub\n      swap1\n      dup2\n      tag_111\n      jumpi\n      swap1\n      pop\n    tag_110:\n      pop\n        /* \"FlightInsurance2.sol\":3832:3921  InsurancePolicy[] memory allPolicies = new InsurancePolicy[](insuredPassengerList.length) */\n      swap1\n      pop\n        /* \"FlightInsurance2.sol\":3936:3945  uint256 i */\n      0x00\n        /* \"FlightInsurance2.sol\":3931:4073  for (uint256 i = 0; i < insuredPassengerList.length; i++) {... */\n    tag_113:\n        /* \"FlightInsurance2.sol\":3955:3975  insuredPassengerList */\n      0x03\n        /* \"FlightInsurance2.sol\":3955:3982  insuredPassengerList.length */\n      dup1\n      sload\n      swap1\n      pop\n        /* \"FlightInsurance2.sol\":3951:3952  i */\n      dup2\n        /* \"FlightInsurance2.sol\":3951:3982  i < insuredPassengerList.length */\n      lt\n        /* \"FlightInsurance2.sol\":3931:4073  for (uint256 i = 0; i < insuredPassengerList.length; i++) {... */\n      iszero\n      tag_114\n      jumpi\n        /* \"FlightInsurance2.sol\":4020:4037  policiesByAddress */\n      0x02\n        /* \"FlightInsurance2.sol\":4020:4062  policiesByAddress[insuredPassengerList[i]] */\n      0x00\n        /* \"FlightInsurance2.sol\":4038:4058  insuredPassengerList */\n      0x03\n        /* \"FlightInsurance2.sol\":4059:4060  i */\n      dup4\n        /* \"FlightInsurance2.sol\":4038:4061  insuredPassengerList[i] */\n      dup2\n      sload\n      dup2\n      lt\n      tag_116\n      jumpi\n      tag_117\n      tag_118\n      jump\t// in\n    tag_117:\n    tag_116:\n      swap1\n      0x00\n      mstore\n      keccak256(0x00, 0x20)\n      add\n      0x00\n      swap1\n      sload\n      swap1\n      0x0100\n      exp\n      swap1\n      div\n      0xffffffffffffffffffffffffffffffffffffffff\n      and\n        /* \"FlightInsurance2.sol\":4020:4062  policiesByAddress[insuredPassengerList[i]] */\n      0xffffffffffffffffffffffffffffffffffffffff\n      and\n      0xffffffffffffffffffffffffffffffffffffffff\n      and\n      dup2\n      mstore\n      0x20\n      add\n      swap1\n      dup2\n      mstore\n      0x20\n      add\n      0x00\n      keccak256\n        /* \"FlightInsurance2.sol\":4003:4062  allPolicies[i] = policiesByAddress[insuredPassengerList[i]] */\n      mload(0x40)\n      dup1\n      0xe0\n      add\n      0x40\n      mstore\n      swap1\n      dup2\n      0x00\n      dup3\n      add\n      dup1\n      sload\n      tag_120\n      swap1\n      tag_72\n      jump\t// in\n    tag_120:\n      dup1\n      0x1f\n      add\n      0x20\n      dup1\n      swap2\n      div\n      mul\n      0x20\n      add\n      mload(0x40)\n      swap1\n      dup2\n      add\n      0x40\n      mstore\n      dup1\n      swap3\n      swap2\n      swap1\n      dup2\n      dup2\n      mstore\n      0x20\n      add\n      dup3\n      dup1\n      sload\n      tag_121\n      swap1\n      tag_72\n      jump\t// in\n    tag_121:\n      dup1\n      iszero\n      tag_122\n      jumpi\n      dup1\n      0x1f\n      lt\n      tag_123\n      jumpi\n      0x0100\n      dup1\n      dup4\n      sload\n      div\n      mul\n      dup4\n      mstore\n      swap2\n      0x20\n      add\n      swap2\n      jump(tag_122)\n    tag_123:\n      dup3\n      add\n      swap2\n      swap1\n      0x00\n      mstore\n      keccak256(0x00, 0x20)\n      swap1\n    tag_124:\n      dup2\n      sload\n      dup2\n      mstore\n      swap1\n      0x01\n      add\n      swap1\n      0x20\n      add\n      dup1\n      dup4\n      gt\n      tag_124\n      jumpi\n      dup3\n      swap1\n      sub\n      0x1f\n      and\n      dup3\n      add\n      swap2\n    tag_122:\n      pop\n      pop\n      pop\n      pop\n      pop\n      dup2\n      mstore\n      0x20\n      add\n      0x01\n      dup3\n      add\n      0x00\n      swap1\n      sload\n      swap1\n      0x0100\n      exp\n      swap1\n      div\n      0xffffffffffffffffffffffffffffffffffffffff\n      and\n      0xffffffffffffffffffffffffffffffffffffffff\n      and\n      0xffffffffffffffffffffffffffffffffffffffff\n      and\n      dup2\n      mstore\n      0x20\n      add\n      0x02\n      dup3\n      add\n      dup1\n      sload\n      tag_125\n      swap1\n      tag_72\n      jump\t// in\n    tag_125:\n      dup1\n      0x1f\n      add\n      0x20\n      dup1\n      swap2\n      div\n      mul\n      0x20\n      add\n      mload(0x40)\n      swap1\n      dup2\n      add\n      0x40\n      mstore\n      dup1\n      swap3\n      swap2\n      swap1\n      dup2\n      dup2\n      mstore\n      0x20\n      add\n      dup3\n      dup1\n      sload\n      tag_126\n      swap1\n      tag_72\n      jump\t// in\n    tag_126:\n      dup1\n      iszero\n      tag_127\n      jumpi\n      dup1\n      0x1f\n      lt\n      tag_128\n      jumpi\n      0x0100\n      dup1\n      dup4\n      sload\n      div\n      mul\n      dup4\n      mstore\n      swap2\n      0x20\n      add\n      swap2\n      jump(tag_127)\n    tag_128:\n      dup3\n      add\n      swap2\n      swap1\n      0x00\n      mstore\n      keccak256(0x00, 0x20)\n      swap1\n    tag_129:\n      dup2\n      sload\n      dup2\n      mstore\n      swap1\n      0x01\n      add\n      swap1\n      0x20\n      add\n      dup1\n      dup4\n      gt\n      tag_129\n      jumpi\n      dup3\n      swap1\n      sub\n      0x1f\n      and\n      dup3\n      add\n      swap2\n    tag_127:\n      pop\n      pop\n      pop\n      pop\n      pop\n      dup2\n      mstore\n      0x20\n      add\n      0x03\n      dup3\n      add\n      dup1\n      sload\n      tag_130\n      swap1\n      tag_72\n      jump\t// in\n    tag_130:\n      dup1\n      0x1f\n      add\n      0x20\n      dup1\n      swap2\n      div\n      mul\n      0x20\n      add\n      mload(0x40)\n      swap1\n      dup2\n      add\n      0x40\n      mstore\n      dup1\n      swap3\n      swap2\n      swap1\n      dup2\n      dup2\n      mstore\n      0x20\n      add\n      dup3\n      dup1\n      sload\n      tag_131\n      swap1\n      tag_72\n      jump\t// in\n    tag_131:\n      dup1\n      iszero\n      tag_132\n      jumpi\n      dup1\n      0x1f\n      lt\n      tag_133\n      jumpi\n      0x0100\n      dup1\n      dup4\n      sload\n      div\n      mul\n      dup4\n      mstore\n      swap2\n      0x20\n      add\n      swap2\n      jump(tag_132)\n    tag_133:\n      dup3\n      add\n      swap2\n      swap1\n      0x00\n      mstore\n      keccak256(0x00, 0x20)\n      swap1\n    tag_134:\n      dup2\n      sload\n      dup2\n      mstore\n      swap1\n      0x01\n      add\n      swap1\n      0x20\n      add\n      dup1\n      dup4\n      gt\n      tag_134\n      jumpi\n      dup3\n      swap1\n      sub\n      0x1f\n      and\n      dup3\n      add\n      swap2\n    tag_132:\n      pop\n      pop\n      pop\n      pop\n      pop\n      dup2\n      mstore\n      0x20\n      add\n      0x04\n      dup3\n      add\n      dup1\n      sload\n      tag_135\n      swap1\n      tag_72\n      jump\t// in\n    tag_135:\n      dup1\n      0x1f\n      add\n      0x20\n      dup1\n      swap2\n      div\n      mul\n      0x20\n      add\n      mload(0x40)\n      swap1\n      dup2\n      add\n      0x40\n      mstore\n      dup1\n      swap3\n      swap2\n      swap1\n      dup2\n      dup2\n      mstore\n      0x20\n      add\n      dup3\n      dup1\n      sload\n      tag_136\n      swap1\n      tag_72\n      jump\t// in\n    tag_136:\n      dup1\n      iszero\n      tag_137\n      jumpi\n      dup1\n      0x1f\n      lt\n      tag_138\n      jumpi\n      0x0100\n      dup1\n      dup4\n      sload\n      div\n      mul\n      dup4\n      mstore\n      swap2\n      0x20\n      add\n      swap2\n      jump(tag_137)\n    tag_138:\n      dup3\n      add\n      swap2\n      swap1\n      0x00\n      mstore\n      keccak256(0x00, 0x20)\n      swap1\n    tag_139:\n      dup2\n      sload\n      dup2\n      mstore\n      swap1\n      0x01\n      add\n      swap1\n      0x20\n      add\n      dup1\n      dup4\n      gt\n      tag_139\n      jumpi\n      dup3\n      swap1\n      sub\n      0x1f\n      and\n      dup3\n      add\n      swap2\n    tag_137:\n      pop\n      pop\n      pop\n      pop\n      pop\n      dup2\n      mstore\n      0x20\n      add\n      0x05\n      dup3\n      add\n      dup1\n      sload\n      tag_140\n      swap1\n      tag_72\n      jump\t// in\n    tag_140:\n      dup1\n      0x1f\n      add\n      0x20\n      dup1\n      swap2\n      div\n      mul\n      0x20\n      add\n      mload(0x40)\n      swap1\n      dup2\n      add\n      0x40\n      mstore\n      dup1\n      swap3\n      swap2\n      swap1\n      dup2\n      dup2\n      mstore\n      0x20\n      add\n      dup3\n      dup1\n      sload\n      tag_141\n      swap1\n      tag_72\n      jump\t// in\n    tag_141:\n      dup1\n      iszero\n      tag_142\n      jumpi\n      dup1\n      0x1f\n      lt\n      tag_143\n      jumpi\n      0x0100\n      dup1\n      dup4\n      sload\n      div\n      mul\n      dup4\n      mstore\n      swap2\n      0x20\n      add\n      swap2\n      jump(tag_142)\n    tag_143:\n      dup3\n      add\n      swap2\n      swap1\n      0x00\n      mstore\n      keccak256(0x00, 0x20)\n      swap1\n    tag_144:\n      dup2\n      sload\n      dup2\n      mstore\n      swap1\n      0x01\n      add\n      swap1\n      0x20\n      add\n      dup1\n      dup4\n      gt\n      tag_144\n      jumpi\n      dup3\n      swap1\n      sub\n      0x1f\n      and\n      dup3\n      add\n      swap2\n    tag_142:\n      pop\n      pop\n      pop\n      pop\n      pop\n      dup2\n      mstore\n      0x20\n      add\n      0x06\n      dup3\n      add\n      dup1\n      sload\n      tag_145\n      swap1\n      tag_72\n      jump\t// in\n    tag_145:\n      dup1\n      0x1f\n      add\n      0x20\n      dup1\n      swap2\n      div\n      mul\n      0x20\n      add\n      mload(0x40)\n      swap1\n      dup2\n      add\n      0x40\n      mstore\n      dup1\n      swap3\n      swap2\n      swap1\n      dup2\n      dup2\n      mstore\n      0x20\n      add\n      dup3\n      dup1\n      sload\n      tag_146\n      swap1\n      tag_72\n      jump\t// in\n    tag_146:\n      dup1\n      iszero\n      tag_147\n      jumpi\n      dup1\n      0x1f\n      lt\n      tag_148\n      jumpi\n      0x0100\n      dup1\n      dup4\n      sload\n      div\n      mul\n      dup4\n      mstore\n      swap2\n      0x20\n      add\n      swap2\n      jump(tag_147)\n    tag_148:\n      dup3\n      add\n      swap2\n      swap1\n      0x00\n      mstore\n      keccak256(0x00, 0x20)\n      swap1\n    tag_149:\n      dup2\n      sload\n      dup2\n      mstore\n      swap1\n      0x01\n      add\n      swap1\n      0x20\n      add\n      dup1\n      dup4\n      gt\n      tag_149\n      jumpi\n      dup3\n      swap1\n      sub\n      0x1f\n      and\n      dup3\n      add\n      swap2\n    tag_147:\n      pop\n      pop\n      pop\n      pop\n      pop\n      dup2\n      mstore\n      pop\n      pop\n        /* \"FlightInsurance2.sol\":4003:4014  allPolicies */\n      dup3\n        /* \"FlightInsurance2.sol\":4015:4016  i */\n      dup3\n        /* \"FlightInsurance2.sol\":4003:4017  allPolicies[i] */\n      dup2\n      mload\n      dup2\n      lt\n      tag_150\n      jumpi\n      tag_151\n      tag_118\n      jump\t// in\n    tag_151:\n    tag_150:\n      0x20\n      mul\n      0x20\n      add\n      add\n        /* \"FlightInsurance2.sol\":4003:4062  allPolicies[i] = policiesByAddress[insuredPassengerList[i]] */\n      dup2\n      swap1\n      mstore\n      pop\n        /* \"FlightInsurance2.sol\":3984:3987  i++ */\n      dup1\n      dup1\n      0x01\n      add\n      swap2\n      pop\n      pop\n        /* \"FlightInsurance2.sol\":3931:4073  for (uint256 i = 0; i < insuredPassengerList.length; i++) {... */\n      jump(tag_113)\n    tag_114:\n      pop\n        /* \"FlightInsurance2.sol\":4090:4101  allPolicies */\n      dup1\n        /* \"FlightInsurance2.sol\":4082:4141  return (allPolicies, \"All policies retrieved successfully\") */\n      mload(0x40)\n      dup1\n      0x60\n      add\n      0x40\n      mstore\n      dup1\n      0x23\n      dup2\n      mstore\n      0x20\n      add\n      data_59323eb6dad5e70cc715cecc9bb2fbfd583fdb1f65d5a10f603cc22277a415f3\n      0x23\n      swap2\n      codecopy\n      swap3\n      pop\n      swap3\n      pop\n      pop\n        /* \"FlightInsurance2.sol\":3472:4148  function viewAllPolicies() external view returns (InsurancePolicy[] memory, string memory) {... */\n    tag_105:\n      swap1\n      swap2\n      jump\t// out\n        /* \"FlightInsurance2.sol\":626:672  uint256 public constant INDEMNITY = 0.02 ether */\n    tag_38:\n        /* \"FlightInsurance2.sol\":662:672  0.02 ether */\n      0x470de4df820000\n        /* \"FlightInsurance2.sol\":626:672  uint256 public constant INDEMNITY = 0.02 ether */\n      dup2\n      jump\t// out\n        /* \"FlightInsurance2.sol\":576:620  uint256 public constant PREMIUM = 0.01 ether */\n    tag_43:\n        /* \"FlightInsurance2.sol\":610:620  0.01 ether */\n      0x2386f26fc10000\n        /* \"FlightInsurance2.sol\":576:620  uint256 public constant PREMIUM = 0.01 ether */\n      dup2\n      jump\t// out\n        /* \"@openzeppelin/contracts/security/ReentrancyGuard.sol\":2336:2623  function _nonReentrantBefore() private {... */\n    tag_47:\n        /* \"@openzeppelin/contracts/security/ReentrancyGuard.sol\":1759:1760  2 */\n      0x02\n        /* \"@openzeppelin/contracts/security/ReentrancyGuard.sol\":2468:2475  _status */\n      sload(0x00)\n        /* \"@openzeppelin/contracts/security/ReentrancyGuard.sol\":2468:2487  _status != _ENTERED */\n      sub\n        /* \"@openzeppelin/contracts/security/ReentrancyGuard.sol\":2460:2523  require(_status != _ENTERED, \"ReentrancyGuard: reentrant call\") */\n      tag_153\n      jumpi\n      mload(0x40)\n      0x08c379a000000000000000000000000000000000000000000000000000000000\n      dup2\n      mstore\n      0x04\n      add\n      tag_154\n      swap1\n      tag_155\n      jump\t// in\n    tag_154:\n      mload(0x40)\n      dup1\n      swap2\n      sub\n      swap1\n      revert\n    tag_153:\n        /* \"@openzeppelin/contracts/security/ReentrancyGuard.sol\":1759:1760  2 */\n      0x02\n        /* \"@openzeppelin/contracts/security/ReentrancyGuard.sol\":2598:2605  _status */\n      0x00\n        /* \"@openzeppelin/contracts/security/ReentrancyGuard.sol\":2598:2616  _status = _ENTERED */\n      dup2\n      swap1\n      sstore\n      pop\n        /* \"@openzeppelin/contracts/security/ReentrancyGuard.sol\":2336:2623  function _nonReentrantBefore() private {... */\n      jump\t// out\n        /* \"@openzeppelin/contracts/security/ReentrancyGuard.sol\":2629:2838  function _nonReentrantAfter() private {... */\n    tag_67:\n        /* \"@openzeppelin/contracts/security/ReentrancyGuard.sol\":1716:1717  1 */\n      0x01\n        /* \"@openzeppelin/contracts/security/ReentrancyGuard.sol\":2809:2816  _status */\n      0x00\n        /* \"@openzeppelin/contracts/security/ReentrancyGuard.sol\":2809:2831  _status = _NOT_ENTERED */\n      dup2\n      swap1\n      sstore\n      pop\n        /* \"@openzeppelin/contracts/security/ReentrancyGuard.sol\":2629:2838  function _nonReentrantAfter() private {... */\n      jump\t// out\n    tag_69:\n      mload(0x40)\n      dup1\n      0xe0\n      add\n      0x40\n      mstore\n      dup1\n      0x60\n      dup2\n      mstore\n      0x20\n      add\n      and(0xffffffffffffffffffffffffffffffffffffffff, 0x00)\n      dup2\n      mstore\n      0x20\n      add\n      0x60\n      dup2\n      mstore\n      0x20\n      add\n      0x60\n      dup2\n      mstore\n      0x20\n      add\n      0x60\n      dup2\n      mstore\n      0x20\n      add\n      0x60\n      dup2\n      mstore\n      0x20\n      add\n      0x60\n      dup2\n      mstore\n      pop\n      swap1\n      jump\t// out\n        /* \"#utility.yul\":88:205   */\n    tag_158:\n        /* \"#utility.yul\":197:198   */\n      0x00\n        /* \"#utility.yul\":194:195   */\n      dup1\n        /* \"#utility.yul\":187:199   */\n      revert\n        /* \"#utility.yul\":211:328   */\n    tag_159:\n        /* \"#utility.yul\":320:321   */\n      0x00\n        /* \"#utility.yul\":317:318   */\n      dup1\n        /* \"#utility.yul\":310:322   */\n      revert\n        /* \"#utility.yul\":334:451   */\n    tag_160:\n        /* \"#utility.yul\":443:444   */\n      0x00\n        /* \"#utility.yul\":440:441   */\n      dup1\n        /* \"#utility.yul\":433:445   */\n      revert\n        /* \"#utility.yul\":457:574   */\n    tag_161:\n        /* \"#utility.yul\":566:567   */\n      0x00\n        /* \"#utility.yul\":563:564   */\n      dup1\n        /* \"#utility.yul\":556:568   */\n      revert\n        /* \"#utility.yul\":580:697   */\n    tag_162:\n        /* \"#utility.yul\":689:690   */\n      0x00\n        /* \"#utility.yul\":686:687   */\n      dup1\n        /* \"#utility.yul\":679:691   */\n      revert\n        /* \"#utility.yul\":717:1270   */\n    tag_163:\n        /* \"#utility.yul\":775:783   */\n      0x00\n        /* \"#utility.yul\":785:791   */\n      dup1\n        /* \"#utility.yul\":835:838   */\n      dup4\n        /* \"#utility.yul\":828:832   */\n      0x1f\n        /* \"#utility.yul\":820:826   */\n      dup5\n        /* \"#utility.yul\":816:833   */\n      add\n        /* \"#utility.yul\":812:839   */\n      slt\n        /* \"#utility.yul\":802:924   */\n      tag_216\n      jumpi\n        /* \"#utility.yul\":843:922   */\n      tag_217\n      tag_160\n      jump\t// in\n    tag_217:\n        /* \"#utility.yul\":802:924   */\n    tag_216:\n        /* \"#utility.yul\":956:962   */\n      dup3\n        /* \"#utility.yul\":943:963   */\n      calldataload\n        /* \"#utility.yul\":933:963   */\n      swap1\n      pop\n        /* \"#utility.yul\":986:1004   */\n      0xffffffffffffffff\n        /* \"#utility.yul\":978:984   */\n      dup2\n        /* \"#utility.yul\":975:1005   */\n      gt\n        /* \"#utility.yul\":972:1089   */\n      iszero\n      tag_218\n      jumpi\n        /* \"#utility.yul\":1008:1087   */\n      tag_219\n      tag_161\n      jump\t// in\n    tag_219:\n        /* \"#utility.yul\":972:1089   */\n    tag_218:\n        /* \"#utility.yul\":1122:1126   */\n      0x20\n        /* \"#utility.yul\":1114:1120   */\n      dup4\n        /* \"#utility.yul\":1110:1127   */\n      add\n        /* \"#utility.yul\":1098:1127   */\n      swap2\n      pop\n        /* \"#utility.yul\":1176:1179   */\n      dup4\n        /* \"#utility.yul\":1168:1172   */\n      0x01\n        /* \"#utility.yul\":1160:1166   */\n      dup3\n        /* \"#utility.yul\":1156:1173   */\n      mul\n        /* \"#utility.yul\":1146:1154   */\n      dup4\n        /* \"#utility.yul\":1142:1174   */\n      add\n        /* \"#utility.yul\":1139:1180   */\n      gt\n        /* \"#utility.yul\":1136:1264   */\n      iszero\n      tag_220\n      jumpi\n        /* \"#utility.yul\":1183:1262   */\n      tag_221\n      tag_162\n      jump\t// in\n    tag_221:\n        /* \"#utility.yul\":1136:1264   */\n    tag_220:\n        /* \"#utility.yul\":717:1270   */\n      swap3\n      pop\n      swap3\n      swap1\n      pop\n      jump\t// out\n        /* \"#utility.yul\":1276:3187   */\n    tag_12:\n        /* \"#utility.yul\":1431:1437   */\n      0x00\n        /* \"#utility.yul\":1439:1445   */\n      dup1\n        /* \"#utility.yul\":1447:1453   */\n      0x00\n        /* \"#utility.yul\":1455:1461   */\n      dup1\n        /* \"#utility.yul\":1463:1469   */\n      0x00\n        /* \"#utility.yul\":1471:1477   */\n      dup1\n        /* \"#utility.yul\":1479:1485   */\n      0x00\n        /* \"#utility.yul\":1487:1493   */\n      dup1\n        /* \"#utility.yul\":1495:1501   */\n      0x00\n        /* \"#utility.yul\":1503:1509   */\n      dup1\n        /* \"#utility.yul\":1552:1555   */\n      0xa0\n        /* \"#utility.yul\":1540:1549   */\n      dup12\n        /* \"#utility.yul\":1531:1538   */\n      dup14\n        /* \"#utility.yul\":1527:1550   */\n      sub\n        /* \"#utility.yul\":1523:1556   */\n      slt\n        /* \"#utility.yul\":1520:1640   */\n      iszero\n      tag_223\n      jumpi\n        /* \"#utility.yul\":1559:1638   */\n      tag_224\n      tag_158\n      jump\t// in\n    tag_224:\n        /* \"#utility.yul\":1520:1640   */\n    tag_223:\n        /* \"#utility.yul\":1707:1708   */\n      0x00\n        /* \"#utility.yul\":1696:1705   */\n      dup12\n        /* \"#utility.yul\":1692:1709   */\n      add\n        /* \"#utility.yul\":1679:1710   */\n      calldataload\n        /* \"#utility.yul\":1737:1755   */\n      0xffffffffffffffff\n        /* \"#utility.yul\":1729:1735   */\n      dup2\n        /* \"#utility.yul\":1726:1756   */\n      gt\n        /* \"#utility.yul\":1723:1840   */\n      iszero\n      tag_225\n      jumpi\n        /* \"#utility.yul\":1759:1838   */\n      tag_226\n      tag_159\n      jump\t// in\n    tag_226:\n        /* \"#utility.yul\":1723:1840   */\n    tag_225:\n        /* \"#utility.yul\":1872:1937   */\n      tag_227\n        /* \"#utility.yul\":1929:1936   */\n      dup14\n        /* \"#utility.yul\":1920:1926   */\n      dup3\n        /* \"#utility.yul\":1909:1918   */\n      dup15\n        /* \"#utility.yul\":1905:1927   */\n      add\n        /* \"#utility.yul\":1872:1937   */\n      tag_163\n      jump\t// in\n    tag_227:\n        /* \"#utility.yul\":1854:1937   */\n      swap11\n      pop\n      swap11\n      pop\n        /* \"#utility.yul\":1650:1947   */\n      pop\n        /* \"#utility.yul\":2014:2016   */\n      0x20\n        /* \"#utility.yul\":2003:2012   */\n      dup12\n        /* \"#utility.yul\":1999:2017   */\n      add\n        /* \"#utility.yul\":1986:2018   */\n      calldataload\n        /* \"#utility.yul\":2045:2063   */\n      0xffffffffffffffff\n        /* \"#utility.yul\":2037:2043   */\n      dup2\n        /* \"#utility.yul\":2034:2064   */\n      gt\n        /* \"#utility.yul\":2031:2148   */\n      iszero\n      tag_228\n      jumpi\n        /* \"#utility.yul\":2067:2146   */\n      tag_229\n      tag_159\n      jump\t// in\n    tag_229:\n        /* \"#utility.yul\":2031:2148   */\n    tag_228:\n        /* \"#utility.yul\":2180:2245   */\n      tag_230\n        /* \"#utility.yul\":2237:2244   */\n      dup14\n        /* \"#utility.yul\":2228:2234   */\n      dup3\n        /* \"#utility.yul\":2217:2226   */\n      dup15\n        /* \"#utility.yul\":2213:2235   */\n      add\n        /* \"#utility.yul\":2180:2245   */\n      tag_163\n      jump\t// in\n    tag_230:\n        /* \"#utility.yul\":2162:2245   */\n      swap9\n      pop\n      swap9\n      pop\n        /* \"#utility.yul\":1957:2255   */\n      pop\n        /* \"#utility.yul\":2322:2324   */\n      0x40\n        /* \"#utility.yul\":2311:2320   */\n      dup12\n        /* \"#utility.yul\":2307:2325   */\n      add\n        /* \"#utility.yul\":2294:2326   */\n      calldataload\n        /* \"#utility.yul\":2353:2371   */\n      0xffffffffffffffff\n        /* \"#utility.yul\":2345:2351   */\n      dup2\n        /* \"#utility.yul\":2342:2372   */\n      gt\n        /* \"#utility.yul\":2339:2456   */\n      iszero\n      tag_231\n      jumpi\n        /* \"#utility.yul\":2375:2454   */\n      tag_232\n      tag_159\n      jump\t// in\n    tag_232:\n        /* \"#utility.yul\":2339:2456   */\n    tag_231:\n        /* \"#utility.yul\":2488:2553   */\n      tag_233\n        /* \"#utility.yul\":2545:2552   */\n      dup14\n        /* \"#utility.yul\":2536:2542   */\n      dup3\n        /* \"#utility.yul\":2525:2534   */\n      dup15\n        /* \"#utility.yul\":2521:2543   */\n      add\n        /* \"#utility.yul\":2488:2553   */\n      tag_163\n      jump\t// in\n    tag_233:\n        /* \"#utility.yul\":2470:2553   */\n      swap7\n      pop\n      swap7\n      pop\n        /* \"#utility.yul\":2265:2563   */\n      pop\n        /* \"#utility.yul\":2630:2632   */\n      0x60\n        /* \"#utility.yul\":2619:2628   */\n      dup12\n        /* \"#utility.yul\":2615:2633   */\n      add\n        /* \"#utility.yul\":2602:2634   */\n      calldataload\n        /* \"#utility.yul\":2661:2679   */\n      0xffffffffffffffff\n        /* \"#utility.yul\":2653:2659   */\n      dup2\n        /* \"#utility.yul\":2650:2680   */\n      gt\n        /* \"#utility.yul\":2647:2764   */\n      iszero\n      tag_234\n      jumpi\n        /* \"#utility.yul\":2683:2762   */\n      tag_235\n      tag_159\n      jump\t// in\n    tag_235:\n        /* \"#utility.yul\":2647:2764   */\n    tag_234:\n        /* \"#utility.yul\":2796:2861   */\n      tag_236\n        /* \"#utility.yul\":2853:2860   */\n      dup14\n        /* \"#utility.yul\":2844:2850   */\n      dup3\n        /* \"#utility.yul\":2833:2842   */\n      dup15\n        /* \"#utility.yul\":2829:2851   */\n      add\n        /* \"#utility.yul\":2796:2861   */\n      tag_163\n      jump\t// in\n    tag_236:\n        /* \"#utility.yul\":2778:2861   */\n      swap5\n      pop\n      swap5\n      pop\n        /* \"#utility.yul\":2573:2871   */\n      pop\n        /* \"#utility.yul\":2938:2941   */\n      0x80\n        /* \"#utility.yul\":2927:2936   */\n      dup12\n        /* \"#utility.yul\":2923:2942   */\n      add\n        /* \"#utility.yul\":2910:2943   */\n      calldataload\n        /* \"#utility.yul\":2970:2988   */\n      0xffffffffffffffff\n        /* \"#utility.yul\":2962:2968   */\n      dup2\n        /* \"#utility.yul\":2959:2989   */\n      gt\n        /* \"#utility.yul\":2956:3073   */\n      iszero\n      tag_237\n      jumpi\n        /* \"#utility.yul\":2992:3071   */\n      tag_238\n      tag_159\n      jump\t// in\n    tag_238:\n        /* \"#utility.yul\":2956:3073   */\n    tag_237:\n        /* \"#utility.yul\":3105:3170   */\n      tag_239\n        /* \"#utility.yul\":3162:3169   */\n      dup14\n        /* \"#utility.yul\":3153:3159   */\n      dup3\n        /* \"#utility.yul\":3142:3151   */\n      dup15\n        /* \"#utility.yul\":3138:3160   */\n      add\n        /* \"#utility.yul\":3105:3170   */\n      tag_163\n      jump\t// in\n    tag_239:\n        /* \"#utility.yul\":3087:3170   */\n      swap3\n      pop\n      swap3\n      pop\n        /* \"#utility.yul\":2881:3180   */\n      pop\n        /* \"#utility.yul\":1276:3187   */\n      swap3\n      swap6\n      swap9\n      swap12\n      swap2\n      swap5\n      swap8\n      swap11\n      pop\n      swap3\n      swap6\n      swap9\n      pop\n      jump\t// out\n        /* \"#utility.yul\":3193:3283   */\n    tag_164:\n        /* \"#utility.yul\":3227:3234   */\n      0x00\n        /* \"#utility.yul\":3270:3275   */\n      dup2\n        /* \"#utility.yul\":3263:3276   */\n      iszero\n        /* \"#utility.yul\":3256:3277   */\n      iszero\n        /* \"#utility.yul\":3245:3277   */\n      swap1\n      pop\n        /* \"#utility.yul\":3193:3283   */\n      swap2\n      swap1\n      pop\n      jump\t// out\n        /* \"#utility.yul\":3289:3398   */\n    tag_165:\n        /* \"#utility.yul\":3370:3391   */\n      tag_242\n        /* \"#utility.yul\":3385:3390   */\n      dup2\n        /* \"#utility.yul\":3370:3391   */\n      tag_164\n      jump\t// in\n    tag_242:\n        /* \"#utility.yul\":3365:3368   */\n      dup3\n        /* \"#utility.yul\":3358:3392   */\n      mstore\n        /* \"#utility.yul\":3289:3398   */\n      pop\n      pop\n      jump\t// out\n        /* \"#utility.yul\":3404:3503   */\n    tag_166:\n        /* \"#utility.yul\":3456:3462   */\n      0x00\n        /* \"#utility.yul\":3490:3495   */\n      dup2\n        /* \"#utility.yul\":3484:3496   */\n      mload\n        /* \"#utility.yul\":3474:3496   */\n      swap1\n      pop\n        /* \"#utility.yul\":3404:3503   */\n      swap2\n      swap1\n      pop\n      jump\t// out\n        /* \"#utility.yul\":3509:3678   */\n    tag_167:\n        /* \"#utility.yul\":3593:3604   */\n      0x00\n        /* \"#utility.yul\":3627:3633   */\n      dup3\n        /* \"#utility.yul\":3622:3625   */\n      dup3\n        /* \"#utility.yul\":3615:3634   */\n      mstore\n        /* \"#utility.yul\":3667:3671   */\n      0x20\n        /* \"#utility.yul\":3662:3665   */\n      dup3\n        /* \"#utility.yul\":3658:3672   */\n      add\n        /* \"#utility.yul\":3643:3672   */\n      swap1\n      pop\n        /* \"#utility.yul\":3509:3678   */\n      swap3\n      swap2\n      pop\n      pop\n      jump\t// out\n        /* \"#utility.yul\":3684:3823   */\n    tag_168:\n        /* \"#utility.yul\":3773:3779   */\n      dup3\n        /* \"#utility.yul\":3768:3771   */\n      dup2\n        /* \"#utility.yul\":3763:3766   */\n      dup4\n        /* \"#utility.yul\":3757:3780   */\n      mcopy\n        /* \"#utility.yul\":3814:3815   */\n      0x00\n        /* \"#utility.yul\":3805:3811   */\n      dup4\n        /* \"#utility.yul\":3800:3803   */\n      dup4\n        /* \"#utility.yul\":3796:3812   */\n      add\n        /* \"#utility.yul\":3789:3816   */\n      mstore\n        /* \"#utility.yul\":3684:3823   */\n      pop\n      pop\n      pop\n      jump\t// out\n        /* \"#utility.yul\":3829:3931   */\n    tag_169:\n        /* \"#utility.yul\":3870:3876   */\n      0x00\n        /* \"#utility.yul\":3921:3923   */\n      0x1f\n        /* \"#utility.yul\":3917:3924   */\n      not\n        /* \"#utility.yul\":3912:3914   */\n      0x1f\n        /* \"#utility.yul\":3905:3910   */\n      dup4\n        /* \"#utility.yul\":3901:3915   */\n      add\n        /* \"#utility.yul\":3897:3925   */\n      and\n        /* \"#utility.yul\":3887:3925   */\n      swap1\n      pop\n        /* \"#utility.yul\":3829:3931   */\n      swap2\n      swap1\n      pop\n      jump\t// out\n        /* \"#utility.yul\":3937:4314   */\n    tag_170:\n        /* \"#utility.yul\":4025:4028   */\n      0x00\n        /* \"#utility.yul\":4053:4092   */\n      tag_248\n        /* \"#utility.yul\":4086:4091   */\n      dup3\n        /* \"#utility.yul\":4053:4092   */\n      tag_166\n      jump\t// in\n    tag_248:\n        /* \"#utility.yul\":4108:4179   */\n      tag_249\n        /* \"#utility.yul\":4172:4178   */\n      dup2\n        /* \"#utility.yul\":4167:4170   */\n      dup6\n        /* \"#utility.yul\":4108:4179   */\n      tag_167\n      jump\t// in\n    tag_249:\n        /* \"#utility.yul\":4101:4179   */\n      swap4\n      pop\n        /* \"#utility.yul\":4188:4253   */\n      tag_250\n        /* \"#utility.yul\":4246:4252   */\n      dup2\n        /* \"#utility.yul\":4241:4244   */\n      dup6\n        /* \"#utility.yul\":4234:4238   */\n      0x20\n        /* \"#utility.yul\":4227:4232   */\n      dup7\n        /* \"#utility.yul\":4223:4239   */\n      add\n        /* \"#utility.yul\":4188:4253   */\n      tag_168\n      jump\t// in\n    tag_250:\n        /* \"#utility.yul\":4278:4307   */\n      tag_251\n        /* \"#utility.yul\":4300:4306   */\n      dup2\n        /* \"#utility.yul\":4278:4307   */\n      tag_169\n      jump\t// in\n    tag_251:\n        /* \"#utility.yul\":4273:4276   */\n      dup5\n        /* \"#utility.yul\":4269:4308   */\n      add\n        /* \"#utility.yul\":4262:4308   */\n      swap2\n      pop\n        /* \"#utility.yul\":4029:4314   */\n      pop\n        /* \"#utility.yul\":3937:4314   */\n      swap3\n      swap2\n      pop\n      pop\n      jump\t// out\n        /* \"#utility.yul\":4320:4731   */\n    tag_15:\n        /* \"#utility.yul\":4455:4459   */\n      0x00\n        /* \"#utility.yul\":4493:4495   */\n      0x40\n        /* \"#utility.yul\":4482:4491   */\n      dup3\n        /* \"#utility.yul\":4478:4496   */\n      add\n        /* \"#utility.yul\":4470:4496   */\n      swap1\n      pop\n        /* \"#utility.yul\":4506:4571   */\n      tag_253\n        /* \"#utility.yul\":4568:4569   */\n      0x00\n        /* \"#utility.yul\":4557:4566   */\n      dup4\n        /* \"#utility.yul\":4553:4570   */\n      add\n        /* \"#utility.yul\":4544:4550   */\n      dup6\n        /* \"#utility.yul\":4506:4571   */\n      tag_165\n      jump\t// in\n    tag_253:\n        /* \"#utility.yul\":4618:4627   */\n      dup2\n        /* \"#utility.yul\":4612:4616   */\n      dup2\n        /* \"#utility.yul\":4608:4628   */\n      sub\n        /* \"#utility.yul\":4603:4605   */\n      0x20\n        /* \"#utility.yul\":4592:4601   */\n      dup4\n        /* \"#utility.yul\":4588:4606   */\n      add\n        /* \"#utility.yul\":4581:4629   */\n      mstore\n        /* \"#utility.yul\":4646:4724   */\n      tag_254\n        /* \"#utility.yul\":4719:4723   */\n      dup2\n        /* \"#utility.yul\":4710:4716   */\n      dup5\n        /* \"#utility.yul\":4646:4724   */\n      tag_170\n      jump\t// in\n    tag_254:\n        /* \"#utility.yul\":4638:4724   */\n      swap1\n      pop\n        /* \"#utility.yul\":4320:4731   */\n      swap4\n      swap3\n      pop\n      pop\n      pop\n      jump\t// out\n        /* \"#utility.yul\":4737:4896   */\n    tag_171:\n        /* \"#utility.yul\":4811:4822   */\n      0x00\n        /* \"#utility.yul\":4845:4851   */\n      dup3\n        /* \"#utility.yul\":4840:4843   */\n      dup3\n        /* \"#utility.yul\":4833:4852   */\n      mstore\n        /* \"#utility.yul\":4885:4889   */\n      0x20\n        /* \"#utility.yul\":4880:4883   */\n      dup3\n        /* \"#utility.yul\":4876:4890   */\n      add\n        /* \"#utility.yul\":4861:4890   */\n      swap1\n      pop\n        /* \"#utility.yul\":4737:4896   */\n      swap3\n      swap2\n      pop\n      pop\n      jump\t// out\n        /* \"#utility.yul\":4902:5259   */\n    tag_172:\n        /* \"#utility.yul\":4980:4983   */\n      0x00\n        /* \"#utility.yul\":5008:5047   */\n      tag_257\n        /* \"#utility.yul\":5041:5046   */\n      dup3\n        /* \"#utility.yul\":5008:5047   */\n      tag_166\n      jump\t// in\n    tag_257:\n        /* \"#utility.yul\":5063:5124   */\n      tag_258\n        /* \"#utility.yul\":5117:5123   */\n      dup2\n        /* \"#utility.yul\":5112:5115   */\n      dup6\n        /* \"#utility.yul\":5063:5124   */\n      tag_171\n      jump\t// in\n    tag_258:\n        /* \"#utility.yul\":5056:5124   */\n      swap4\n      pop\n        /* \"#utility.yul\":5133:5198   */\n      tag_259\n        /* \"#utility.yul\":5191:5197   */\n      dup2\n        /* \"#utility.yul\":5186:5189   */\n      dup6\n        /* \"#utility.yul\":5179:5183   */\n      0x20\n        /* \"#utility.yul\":5172:5177   */\n      dup7\n        /* \"#utility.yul\":5168:5184   */\n      add\n        /* \"#utility.yul\":5133:5198   */\n      tag_168\n      jump\t// in\n    tag_259:\n        /* \"#utility.yul\":5223:5252   */\n      tag_260\n        /* \"#utility.yul\":5245:5251   */\n      dup2\n        /* \"#utility.yul\":5223:5252   */\n      tag_169\n      jump\t// in\n    tag_260:\n        /* \"#utility.yul\":5218:5221   */\n      dup5\n        /* \"#utility.yul\":5214:5253   */\n      add\n        /* \"#utility.yul\":5207:5253   */\n      swap2\n      pop\n        /* \"#utility.yul\":4984:5259   */\n      pop\n        /* \"#utility.yul\":4902:5259   */\n      swap3\n      swap2\n      pop\n      pop\n      jump\t// out\n        /* \"#utility.yul\":5265:5391   */\n    tag_173:\n        /* \"#utility.yul\":5302:5309   */\n      0x00\n        /* \"#utility.yul\":5342:5384   */\n      0xffffffffffffffffffffffffffffffffffffffff\n        /* \"#utility.yul\":5335:5340   */\n      dup3\n        /* \"#utility.yul\":5331:5385   */\n      and\n        /* \"#utility.yul\":5320:5385   */\n      swap1\n      pop\n        /* \"#utility.yul\":5265:5391   */\n      swap2\n      swap1\n      pop\n      jump\t// out\n        /* \"#utility.yul\":5397:5493   */\n    tag_174:\n        /* \"#utility.yul\":5434:5441   */\n      0x00\n        /* \"#utility.yul\":5463:5487   */\n      tag_263\n        /* \"#utility.yul\":5481:5486   */\n      dup3\n        /* \"#utility.yul\":5463:5487   */\n      tag_173\n      jump\t// in\n    tag_263:\n        /* \"#utility.yul\":5452:5487   */\n      swap1\n      pop\n        /* \"#utility.yul\":5397:5493   */\n      swap2\n      swap1\n      pop\n      jump\t// out\n        /* \"#utility.yul\":5499:5607   */\n    tag_175:\n        /* \"#utility.yul\":5576:5600   */\n      tag_265\n        /* \"#utility.yul\":5594:5599   */\n      dup2\n        /* \"#utility.yul\":5576:5600   */\n      tag_174\n      jump\t// in\n    tag_265:\n        /* \"#utility.yul\":5571:5574   */\n      dup3\n        /* \"#utility.yul\":5564:5601   */\n      mstore\n        /* \"#utility.yul\":5499:5607   */\n      pop\n      pop\n      jump\t// out\n        /* \"#utility.yul\":5703:7609   */\n    tag_176:\n        /* \"#utility.yul\":5834:5837   */\n      0x00\n        /* \"#utility.yul\":5870:5874   */\n      0xe0\n        /* \"#utility.yul\":5865:5868   */\n      dup4\n        /* \"#utility.yul\":5861:5875   */\n      add\n        /* \"#utility.yul\":5966:5970   */\n      0x00\n        /* \"#utility.yul\":5959:5964   */\n      dup4\n        /* \"#utility.yul\":5955:5971   */\n      add\n        /* \"#utility.yul\":5949:5972   */\n      mload\n        /* \"#utility.yul\":6019:6022   */\n      dup5\n        /* \"#utility.yul\":6013:6017   */\n      dup3\n        /* \"#utility.yul\":6009:6023   */\n      sub\n        /* \"#utility.yul\":6002:6006   */\n      0x00\n        /* \"#utility.yul\":5997:6000   */\n      dup7\n        /* \"#utility.yul\":5993:6007   */\n      add\n        /* \"#utility.yul\":5986:6024   */\n      mstore\n        /* \"#utility.yul\":6045:6118   */\n      tag_267\n        /* \"#utility.yul\":6113:6117   */\n      dup3\n        /* \"#utility.yul\":6099:6111   */\n      dup3\n        /* \"#utility.yul\":6045:6118   */\n      tag_172\n      jump\t// in\n    tag_267:\n        /* \"#utility.yul\":6037:6118   */\n      swap2\n      pop\n        /* \"#utility.yul\":5885:6129   */\n      pop\n        /* \"#utility.yul\":6223:6227   */\n      0x20\n        /* \"#utility.yul\":6216:6221   */\n      dup4\n        /* \"#utility.yul\":6212:6228   */\n      add\n        /* \"#utility.yul\":6206:6229   */\n      mload\n        /* \"#utility.yul\":6242:6305   */\n      tag_268\n        /* \"#utility.yul\":6299:6303   */\n      0x20\n        /* \"#utility.yul\":6294:6297   */\n      dup7\n        /* \"#utility.yul\":6290:6304   */\n      add\n        /* \"#utility.yul\":6276:6288   */\n      dup3\n        /* \"#utility.yul\":6242:6305   */\n      tag_175\n      jump\t// in\n    tag_268:\n        /* \"#utility.yul\":6139:6315   */\n      pop\n        /* \"#utility.yul\":6405:6409   */\n      0x40\n        /* \"#utility.yul\":6398:6403   */\n      dup4\n        /* \"#utility.yul\":6394:6410   */\n      add\n        /* \"#utility.yul\":6388:6411   */\n      mload\n        /* \"#utility.yul\":6458:6461   */\n      dup5\n        /* \"#utility.yul\":6452:6456   */\n      dup3\n        /* \"#utility.yul\":6448:6462   */\n      sub\n        /* \"#utility.yul\":6441:6445   */\n      0x40\n        /* \"#utility.yul\":6436:6439   */\n      dup7\n        /* \"#utility.yul\":6432:6446   */\n      add\n        /* \"#utility.yul\":6425:6463   */\n      mstore\n        /* \"#utility.yul\":6484:6557   */\n      tag_269\n        /* \"#utility.yul\":6552:6556   */\n      dup3\n        /* \"#utility.yul\":6538:6550   */\n      dup3\n        /* \"#utility.yul\":6484:6557   */\n      tag_172\n      jump\t// in\n    tag_269:\n        /* \"#utility.yul\":6476:6557   */\n      swap2\n      pop\n        /* \"#utility.yul\":6325:6568   */\n      pop\n        /* \"#utility.yul\":6656:6660   */\n      0x60\n        /* \"#utility.yul\":6649:6654   */\n      dup4\n        /* \"#utility.yul\":6645:6661   */\n      add\n        /* \"#utility.yul\":6639:6662   */\n      mload\n        /* \"#utility.yul\":6709:6712   */\n      dup5\n        /* \"#utility.yul\":6703:6707   */\n      dup3\n        /* \"#utility.yul\":6699:6713   */\n      sub\n        /* \"#utility.yul\":6692:6696   */\n      0x60\n        /* \"#utility.yul\":6687:6690   */\n      dup7\n        /* \"#utility.yul\":6683:6697   */\n      add\n        /* \"#utility.yul\":6676:6714   */\n      mstore\n        /* \"#utility.yul\":6735:6808   */\n      tag_270\n        /* \"#utility.yul\":6803:6807   */\n      dup3\n        /* \"#utility.yul\":6789:6801   */\n      dup3\n        /* \"#utility.yul\":6735:6808   */\n      tag_172\n      jump\t// in\n    tag_270:\n        /* \"#utility.yul\":6727:6808   */\n      swap2\n      pop\n        /* \"#utility.yul\":6578:6819   */\n      pop\n        /* \"#utility.yul\":6910:6914   */\n      0x80\n        /* \"#utility.yul\":6903:6908   */\n      dup4\n        /* \"#utility.yul\":6899:6915   */\n      add\n        /* \"#utility.yul\":6893:6916   */\n      mload\n        /* \"#utility.yul\":6963:6966   */\n      dup5\n        /* \"#utility.yul\":6957:6961   */\n      dup3\n        /* \"#utility.yul\":6953:6967   */\n      sub\n        /* \"#utility.yul\":6946:6950   */\n      0x80\n        /* \"#utility.yul\":6941:6944   */\n      dup7\n        /* \"#utility.yul\":6937:6951   */\n      add\n        /* \"#utility.yul\":6930:6968   */\n      mstore\n        /* \"#utility.yul\":6989:7062   */\n      tag_271\n        /* \"#utility.yul\":7057:7061   */\n      dup3\n        /* \"#utility.yul\":7043:7055   */\n      dup3\n        /* \"#utility.yul\":6989:7062   */\n      tag_172\n      jump\t// in\n    tag_271:\n        /* \"#utility.yul\":6981:7062   */\n      swap2\n      pop\n        /* \"#utility.yul\":6829:7073   */\n      pop\n        /* \"#utility.yul\":7166:7170   */\n      0xa0\n        /* \"#utility.yul\":7159:7164   */\n      dup4\n        /* \"#utility.yul\":7155:7171   */\n      add\n        /* \"#utility.yul\":7149:7172   */\n      mload\n        /* \"#utility.yul\":7219:7222   */\n      dup5\n        /* \"#utility.yul\":7213:7217   */\n      dup3\n        /* \"#utility.yul\":7209:7223   */\n      sub\n        /* \"#utility.yul\":7202:7206   */\n      0xa0\n        /* \"#utility.yul\":7197:7200   */\n      dup7\n        /* \"#utility.yul\":7193:7207   */\n      add\n        /* \"#utility.yul\":7186:7224   */\n      mstore\n        /* \"#utility.yul\":7245:7318   */\n      tag_272\n        /* \"#utility.yul\":7313:7317   */\n      dup3\n        /* \"#utility.yul\":7299:7311   */\n      dup3\n        /* \"#utility.yul\":7245:7318   */\n      tag_172\n      jump\t// in\n    tag_272:\n        /* \"#utility.yul\":7237:7318   */\n      swap2\n      pop\n        /* \"#utility.yul\":7083:7329   */\n      pop\n        /* \"#utility.yul\":7419:7423   */\n      0xc0\n        /* \"#utility.yul\":7412:7417   */\n      dup4\n        /* \"#utility.yul\":7408:7424   */\n      add\n        /* \"#utility.yul\":7402:7425   */\n      mload\n        /* \"#utility.yul\":7472:7475   */\n      dup5\n        /* \"#utility.yul\":7466:7470   */\n      dup3\n        /* \"#utility.yul\":7462:7476   */\n      sub\n        /* \"#utility.yul\":7455:7459   */\n      0xc0\n        /* \"#utility.yul\":7450:7453   */\n      dup7\n        /* \"#utility.yul\":7446:7460   */\n      add\n        /* \"#utility.yul\":7439:7477   */\n      mstore\n        /* \"#utility.yul\":7498:7571   */\n      tag_273\n        /* \"#utility.yul\":7566:7570   */\n      dup3\n        /* \"#utility.yul\":7552:7564   */\n      dup3\n        /* \"#utility.yul\":7498:7571   */\n      tag_172\n      jump\t// in\n    tag_273:\n        /* \"#utility.yul\":7490:7571   */\n      swap2\n      pop\n        /* \"#utility.yul\":7339:7582   */\n      pop\n        /* \"#utility.yul\":7599:7603   */\n      dup1\n        /* \"#utility.yul\":7592:7603   */\n      swap2\n      pop\n        /* \"#utility.yul\":5839:7609   */\n      pop\n        /* \"#utility.yul\":5703:7609   */\n      swap3\n      swap2\n      pop\n      pop\n      jump\t// out\n        /* \"#utility.yul\":7615:8213   */\n    tag_20:\n        /* \"#utility.yul\":7818:7822   */\n      0x00\n        /* \"#utility.yul\":7856:7858   */\n      0x40\n        /* \"#utility.yul\":7845:7854   */\n      dup3\n        /* \"#utility.yul\":7841:7859   */\n      add\n        /* \"#utility.yul\":7833:7859   */\n      swap1\n      pop\n        /* \"#utility.yul\":7905:7914   */\n      dup2\n        /* \"#utility.yul\":7899:7903   */\n      dup2\n        /* \"#utility.yul\":7895:7915   */\n      sub\n        /* \"#utility.yul\":7891:7892   */\n      0x00\n        /* \"#utility.yul\":7880:7889   */\n      dup4\n        /* \"#utility.yul\":7876:7893   */\n      add\n        /* \"#utility.yul\":7869:7916   */\n      mstore\n        /* \"#utility.yul\":7933:8053   */\n      tag_275\n        /* \"#utility.yul\":8048:8052   */\n      dup2\n        /* \"#utility.yul\":8039:8045   */\n      dup6\n        /* \"#utility.yul\":7933:8053   */\n      tag_176\n      jump\t// in\n    tag_275:\n        /* \"#utility.yul\":7925:8053   */\n      swap1\n      pop\n        /* \"#utility.yul\":8100:8109   */\n      dup2\n        /* \"#utility.yul\":8094:8098   */\n      dup2\n        /* \"#utility.yul\":8090:8110   */\n      sub\n        /* \"#utility.yul\":8085:8087   */\n      0x20\n        /* \"#utility.yul\":8074:8083   */\n      dup4\n        /* \"#utility.yul\":8070:8088   */\n      add\n        /* \"#utility.yul\":8063:8111   */\n      mstore\n        /* \"#utility.yul\":8128:8206   */\n      tag_276\n        /* \"#utility.yul\":8201:8205   */\n      dup2\n        /* \"#utility.yul\":8192:8198   */\n      dup5\n        /* \"#utility.yul\":8128:8206   */\n      tag_170\n      jump\t// in\n    tag_276:\n        /* \"#utility.yul\":8120:8206   */\n      swap1\n      pop\n        /* \"#utility.yul\":7615:8213   */\n      swap4\n      swap3\n      pop\n      pop\n      pop\n      jump\t// out\n        /* \"#utility.yul\":8219:8337   */\n    tag_177:\n        /* \"#utility.yul\":8306:8330   */\n      tag_278\n        /* \"#utility.yul\":8324:8329   */\n      dup2\n        /* \"#utility.yul\":8306:8330   */\n      tag_174\n      jump\t// in\n    tag_278:\n        /* \"#utility.yul\":8301:8304   */\n      dup3\n        /* \"#utility.yul\":8294:8331   */\n      mstore\n        /* \"#utility.yul\":8219:8337   */\n      pop\n      pop\n      jump\t// out\n        /* \"#utility.yul\":8343:8565   */\n    tag_25:\n        /* \"#utility.yul\":8436:8440   */\n      0x00\n        /* \"#utility.yul\":8474:8476   */\n      0x20\n        /* \"#utility.yul\":8463:8472   */\n      dup3\n        /* \"#utility.yul\":8459:8477   */\n      add\n        /* \"#utility.yul\":8451:8477   */\n      swap1\n      pop\n        /* \"#utility.yul\":8487:8558   */\n      tag_280\n        /* \"#utility.yul\":8555:8556   */\n      0x00\n        /* \"#utility.yul\":8544:8553   */\n      dup4\n        /* \"#utility.yul\":8540:8557   */\n      add\n        /* \"#utility.yul\":8531:8537   */\n      dup5\n        /* \"#utility.yul\":8487:8558   */\n      tag_177\n      jump\t// in\n    tag_280:\n        /* \"#utility.yul\":8343:8565   */\n      swap3\n      swap2\n      pop\n      pop\n      jump\t// out\n        /* \"#utility.yul\":8571:8884   */\n    tag_30:\n        /* \"#utility.yul\":8684:8688   */\n      0x00\n        /* \"#utility.yul\":8722:8724   */\n      0x20\n        /* \"#utility.yul\":8711:8720   */\n      dup3\n        /* \"#utility.yul\":8707:8725   */\n      add\n        /* \"#utility.yul\":8699:8725   */\n      swap1\n      pop\n        /* \"#utility.yul\":8771:8780   */\n      dup2\n        /* \"#utility.yul\":8765:8769   */\n      dup2\n        /* \"#utility.yul\":8761:8781   */\n      sub\n        /* \"#utility.yul\":8757:8758   */\n      0x00\n        /* \"#utility.yul\":8746:8755   */\n      dup4\n        /* \"#utility.yul\":8742:8759   */\n      add\n        /* \"#utility.yul\":8735:8782   */\n      mstore\n        /* \"#utility.yul\":8799:8877   */\n      tag_282\n        /* \"#utility.yul\":8872:8876   */\n      dup2\n        /* \"#utility.yul\":8863:8869   */\n      dup5\n        /* \"#utility.yul\":8799:8877   */\n      tag_170\n      jump\t// in\n    tag_282:\n        /* \"#utility.yul\":8791:8877   */\n      swap1\n      pop\n        /* \"#utility.yul\":8571:8884   */\n      swap3\n      swap2\n      pop\n      pop\n      jump\t// out\n        /* \"#utility.yul\":8890:9035   */\n    tag_178:\n        /* \"#utility.yul\":8988:8994   */\n      0x00\n        /* \"#utility.yul\":9022:9027   */\n      dup2\n        /* \"#utility.yul\":9016:9028   */\n      mload\n        /* \"#utility.yul\":9006:9028   */\n      swap1\n      pop\n        /* \"#utility.yul\":8890:9035   */\n      swap2\n      swap1\n      pop\n      jump\t// out\n        /* \"#utility.yul\":9041:9256   */\n    tag_179:\n        /* \"#utility.yul\":9171:9182   */\n      0x00\n        /* \"#utility.yul\":9205:9211   */\n      dup3\n        /* \"#utility.yul\":9200:9203   */\n      dup3\n        /* \"#utility.yul\":9193:9212   */\n      mstore\n        /* \"#utility.yul\":9245:9249   */\n      0x20\n        /* \"#utility.yul\":9240:9243   */\n      dup3\n        /* \"#utility.yul\":9236:9250   */\n      add\n        /* \"#utility.yul\":9221:9250   */\n      swap1\n      pop\n        /* \"#utility.yul\":9041:9256   */\n      swap3\n      swap2\n      pop\n      pop\n      jump\t// out\n        /* \"#utility.yul\":9262:9425   */\n    tag_180:\n        /* \"#utility.yul\":9360:9364   */\n      0x00\n        /* \"#utility.yul\":9383:9386   */\n      dup2\n        /* \"#utility.yul\":9375:9386   */\n      swap1\n      pop\n        /* \"#utility.yul\":9413:9417   */\n      0x20\n        /* \"#utility.yul\":9408:9411   */\n      dup3\n        /* \"#utility.yul\":9404:9418   */\n      add\n        /* \"#utility.yul\":9396:9418   */\n      swap1\n      pop\n        /* \"#utility.yul\":9262:9425   */\n      swap2\n      swap1\n      pop\n      jump\t// out\n        /* \"#utility.yul\":9521:11417   */\n    tag_181:\n        /* \"#utility.yul\":9642:9645   */\n      0x00\n        /* \"#utility.yul\":9678:9682   */\n      0xe0\n        /* \"#utility.yul\":9673:9676   */\n      dup4\n        /* \"#utility.yul\":9669:9683   */\n      add\n        /* \"#utility.yul\":9774:9778   */\n      0x00\n        /* \"#utility.yul\":9767:9772   */\n      dup4\n        /* \"#utility.yul\":9763:9779   */\n      add\n        /* \"#utility.yul\":9757:9780   */\n      mload\n        /* \"#utility.yul\":9827:9830   */\n      dup5\n        /* \"#utility.yul\":9821:9825   */\n      dup3\n        /* \"#utility.yul\":9817:9831   */\n      sub\n        /* \"#utility.yul\":9810:9814   */\n      0x00\n        /* \"#utility.yul\":9805:9808   */\n      dup7\n        /* \"#utility.yul\":9801:9815   */\n      add\n        /* \"#utility.yul\":9794:9832   */\n      mstore\n        /* \"#utility.yul\":9853:9926   */\n      tag_287\n        /* \"#utility.yul\":9921:9925   */\n      dup3\n        /* \"#utility.yul\":9907:9919   */\n      dup3\n        /* \"#utility.yul\":9853:9926   */\n      tag_172\n      jump\t// in\n    tag_287:\n        /* \"#utility.yul\":9845:9926   */\n      swap2\n      pop\n        /* \"#utility.yul\":9693:9937   */\n      pop\n        /* \"#utility.yul\":10031:10035   */\n      0x20\n        /* \"#utility.yul\":10024:10029   */\n      dup4\n        /* \"#utility.yul\":10020:10036   */\n      add\n        /* \"#utility.yul\":10014:10037   */\n      mload\n        /* \"#utility.yul\":10050:10113   */\n      tag_288\n        /* \"#utility.yul\":10107:10111   */\n      0x20\n        /* \"#utility.yul\":10102:10105   */\n      dup7\n        /* \"#utility.yul\":10098:10112   */\n      add\n        /* \"#utility.yul\":10084:10096   */\n      dup3\n        /* \"#utility.yul\":10050:10113   */\n      tag_175\n      jump\t// in\n    tag_288:\n        /* \"#utility.yul\":9947:10123   */\n      pop\n        /* \"#utility.yul\":10213:10217   */\n      0x40\n        /* \"#utility.yul\":10206:10211   */\n      dup4\n        /* \"#utility.yul\":10202:10218   */\n      add\n        /* \"#utility.yul\":10196:10219   */\n      mload\n        /* \"#utility.yul\":10266:10269   */\n      dup5\n        /* \"#utility.yul\":10260:10264   */\n      dup3\n        /* \"#utility.yul\":10256:10270   */\n      sub\n        /* \"#utility.yul\":10249:10253   */\n      0x40\n        /* \"#utility.yul\":10244:10247   */\n      dup7\n        /* \"#utility.yul\":10240:10254   */\n      add\n        /* \"#utility.yul\":10233:10271   */\n      mstore\n        /* \"#utility.yul\":10292:10365   */\n      tag_289\n        /* \"#utility.yul\":10360:10364   */\n      dup3\n        /* \"#utility.yul\":10346:10358   */\n      dup3\n        /* \"#utility.yul\":10292:10365   */\n      tag_172\n      jump\t// in\n    tag_289:\n        /* \"#utility.yul\":10284:10365   */\n      swap2\n      pop\n        /* \"#utility.yul\":10133:10376   */\n      pop\n        /* \"#utility.yul\":10464:10468   */\n      0x60\n        /* \"#utility.yul\":10457:10462   */\n      dup4\n        /* \"#utility.yul\":10453:10469   */\n      add\n        /* \"#utility.yul\":10447:10470   */\n      mload\n        /* \"#utility.yul\":10517:10520   */\n      dup5\n        /* \"#utility.yul\":10511:10515   */\n      dup3\n        /* \"#utility.yul\":10507:10521   */\n      sub\n        /* \"#utility.yul\":10500:10504   */\n      0x60\n        /* \"#utility.yul\":10495:10498   */\n      dup7\n        /* \"#utility.yul\":10491:10505   */\n      add\n        /* \"#utility.yul\":10484:10522   */\n      mstore\n        /* \"#utility.yul\":10543:10616   */\n      tag_290\n        /* \"#utility.yul\":10611:10615   */\n      dup3\n        /* \"#utility.yul\":10597:10609   */\n      dup3\n        /* \"#utility.yul\":10543:10616   */\n      tag_172\n      jump\t// in\n    tag_290:\n        /* \"#utility.yul\":10535:10616   */\n      swap2\n      pop\n        /* \"#utility.yul\":10386:10627   */\n      pop\n        /* \"#utility.yul\":10718:10722   */\n      0x80\n        /* \"#utility.yul\":10711:10716   */\n      dup4\n        /* \"#utility.yul\":10707:10723   */\n      add\n        /* \"#utility.yul\":10701:10724   */\n      mload\n        /* \"#utility.yul\":10771:10774   */\n      dup5\n        /* \"#utility.yul\":10765:10769   */\n      dup3\n        /* \"#utility.yul\":10761:10775   */\n      sub\n        /* \"#utility.yul\":10754:10758   */\n      0x80\n        /* \"#utility.yul\":10749:10752   */\n      dup7\n        /* \"#utility.yul\":10745:10759   */\n      add\n        /* \"#utility.yul\":10738:10776   */\n      mstore\n        /* \"#utility.yul\":10797:10870   */\n      tag_291\n        /* \"#utility.yul\":10865:10869   */\n      dup3\n        /* \"#utility.yul\":10851:10863   */\n      dup3\n        /* \"#utility.yul\":10797:10870   */\n      tag_172\n      jump\t// in\n    tag_291:\n        /* \"#utility.yul\":10789:10870   */\n      swap2\n      pop\n        /* \"#utility.yul\":10637:10881   */\n      pop\n        /* \"#utility.yul\":10974:10978   */\n      0xa0\n        /* \"#utility.yul\":10967:10972   */\n      dup4\n        /* \"#utility.yul\":10963:10979   */\n      add\n        /* \"#utility.yul\":10957:10980   */\n      mload\n        /* \"#utility.yul\":11027:11030   */\n      dup5\n        /* \"#utility.yul\":11021:11025   */\n      dup3\n        /* \"#utility.yul\":11017:11031   */\n      sub\n        /* \"#utility.yul\":11010:11014   */\n      0xa0\n        /* \"#utility.yul\":11005:11008   */\n      dup7\n        /* \"#utility.yul\":11001:11015   */\n      add\n        /* \"#utility.yul\":10994:11032   */\n      mstore\n        /* \"#utility.yul\":11053:11126   */\n      tag_292\n        /* \"#utility.yul\":11121:11125   */\n      dup3\n        /* \"#utility.yul\":11107:11119   */\n      dup3\n        /* \"#utility.yul\":11053:11126   */\n      tag_172\n      jump\t// in\n    tag_292:\n        /* \"#utility.yul\":11045:11126   */\n      swap2\n      pop\n        /* \"#utility.yul\":10891:11137   */\n      pop\n        /* \"#utility.yul\":11227:11231   */\n      0xc0\n        /* \"#utility.yul\":11220:11225   */\n      dup4\n        /* \"#utility.yul\":11216:11232   */\n      add\n        /* \"#utility.yul\":11210:11233   */\n      mload\n        /* \"#utility.yul\":11280:11283   */\n      dup5\n        /* \"#utility.yul\":11274:11278   */\n      dup3\n        /* \"#utility.yul\":11270:11284   */\n      sub\n        /* \"#utility.yul\":11263:11267   */\n      0xc0\n        /* \"#utility.yul\":11258:11261   */\n      dup7\n        /* \"#utility.yul\":11254:11268   */\n      add\n        /* \"#utility.yul\":11247:11285   */\n      mstore\n        /* \"#utility.yul\":11306:11379   */\n      tag_293\n        /* \"#utility.yul\":11374:11378   */\n      dup3\n        /* \"#utility.yul\":11360:11372   */\n      dup3\n        /* \"#utility.yul\":11306:11379   */\n      tag_172\n      jump\t// in\n    tag_293:\n        /* \"#utility.yul\":11298:11379   */\n      swap2\n      pop\n        /* \"#utility.yul\":11147:11390   */\n      pop\n        /* \"#utility.yul\":11407:11411   */\n      dup1\n        /* \"#utility.yul\":11400:11411   */\n      swap2\n      pop\n        /* \"#utility.yul\":9647:11417   */\n      pop\n        /* \"#utility.yul\":9521:11417   */\n      swap3\n      swap2\n      pop\n      pop\n      jump\t// out\n        /* \"#utility.yul\":11423:11703   */\n    tag_182:\n        /* \"#utility.yul\":11554:11564   */\n      0x00\n        /* \"#utility.yul\":11589:11697   */\n      tag_295\n        /* \"#utility.yul\":11693:11696   */\n      dup4\n        /* \"#utility.yul\":11685:11691   */\n      dup4\n        /* \"#utility.yul\":11589:11697   */\n      tag_181\n      jump\t// in\n    tag_295:\n        /* \"#utility.yul\":11575:11697   */\n      swap1\n      pop\n        /* \"#utility.yul\":11423:11703   */\n      swap3\n      swap2\n      pop\n      pop\n      jump\t// out\n        /* \"#utility.yul\":11709:11853   */\n    tag_183:\n        /* \"#utility.yul\":11810:11814   */\n      0x00\n        /* \"#utility.yul\":11842:11846   */\n      0x20\n        /* \"#utility.yul\":11837:11840   */\n      dup3\n        /* \"#utility.yul\":11833:11847   */\n      add\n        /* \"#utility.yul\":11825:11847   */\n      swap1\n      pop\n        /* \"#utility.yul\":11709:11853   */\n      swap2\n      swap1\n      pop\n      jump\t// out\n        /* \"#utility.yul\":11953:13112   */\n    tag_184:\n        /* \"#utility.yul\":12134:12137   */\n      0x00\n        /* \"#utility.yul\":12163:12248   */\n      tag_298\n        /* \"#utility.yul\":12242:12247   */\n      dup3\n        /* \"#utility.yul\":12163:12248   */\n      tag_178\n      jump\t// in\n    tag_298:\n        /* \"#utility.yul\":12264:12381   */\n      tag_299\n        /* \"#utility.yul\":12374:12380   */\n      dup2\n        /* \"#utility.yul\":12369:12372   */\n      dup6\n        /* \"#utility.yul\":12264:12381   */\n      tag_179\n      jump\t// in\n    tag_299:\n        /* \"#utility.yul\":12257:12381   */\n      swap4\n      pop\n        /* \"#utility.yul\":12407:12410   */\n      dup4\n        /* \"#utility.yul\":12452:12456   */\n      0x20\n        /* \"#utility.yul\":12444:12450   */\n      dup3\n        /* \"#utility.yul\":12440:12457   */\n      mul\n        /* \"#utility.yul\":12435:12438   */\n      dup6\n        /* \"#utility.yul\":12431:12458   */\n      add\n        /* \"#utility.yul\":12482:12569   */\n      tag_300\n        /* \"#utility.yul\":12563:12568   */\n      dup6\n        /* \"#utility.yul\":12482:12569   */\n      tag_180\n      jump\t// in\n    tag_300:\n        /* \"#utility.yul\":12592:12599   */\n      dup1\n        /* \"#utility.yul\":12623:12624   */\n      0x00\n        /* \"#utility.yul\":12608:13067   */\n    tag_301:\n        /* \"#utility.yul\":12633:12639   */\n      dup6\n        /* \"#utility.yul\":12630:12631   */\n      dup2\n        /* \"#utility.yul\":12627:12640   */\n      lt\n        /* \"#utility.yul\":12608:13067   */\n      iszero\n      tag_303\n      jumpi\n        /* \"#utility.yul\":12704:12713   */\n      dup5\n        /* \"#utility.yul\":12698:12702   */\n      dup5\n        /* \"#utility.yul\":12694:12714   */\n      sub\n        /* \"#utility.yul\":12689:12692   */\n      dup10\n        /* \"#utility.yul\":12682:12715   */\n      mstore\n        /* \"#utility.yul\":12755:12761   */\n      dup2\n        /* \"#utility.yul\":12749:12762   */\n      mload\n        /* \"#utility.yul\":12783:12909   */\n      tag_304\n        /* \"#utility.yul\":12904:12908   */\n      dup6\n        /* \"#utility.yul\":12889:12902   */\n      dup3\n        /* \"#utility.yul\":12783:12909   */\n      tag_182\n      jump\t// in\n    tag_304:\n        /* \"#utility.yul\":12775:12909   */\n      swap5\n      pop\n        /* \"#utility.yul\":12932:13023   */\n      tag_305\n        /* \"#utility.yul\":13016:13022   */\n      dup4\n        /* \"#utility.yul\":12932:13023   */\n      tag_183\n      jump\t// in\n    tag_305:\n        /* \"#utility.yul\":12922:13023   */\n      swap3\n      pop\n        /* \"#utility.yul\":13052:13056   */\n      0x20\n        /* \"#utility.yul\":13047:13050   */\n      dup11\n        /* \"#utility.yul\":13043:13057   */\n      add\n        /* \"#utility.yul\":13036:13057   */\n      swap10\n      pop\n        /* \"#utility.yul\":12668:13067   */\n      pop\n        /* \"#utility.yul\":12655:12656   */\n      0x01\n        /* \"#utility.yul\":12652:12653   */\n      dup2\n        /* \"#utility.yul\":12648:12657   */\n      add\n        /* \"#utility.yul\":12643:12657   */\n      swap1\n      pop\n        /* \"#utility.yul\":12608:13067   */\n      jump(tag_301)\n    tag_303:\n        /* \"#utility.yul\":12612:12626   */\n      pop\n        /* \"#utility.yul\":13083:13087   */\n      dup3\n        /* \"#utility.yul\":13076:13087   */\n      swap8\n      pop\n        /* \"#utility.yul\":13103:13106   */\n      dup8\n        /* \"#utility.yul\":13096:13106   */\n      swap6\n      pop\n        /* \"#utility.yul\":12139:13112   */\n      pop\n      pop\n      pop\n      pop\n      pop\n        /* \"#utility.yul\":11953:13112   */\n      swap3\n      swap2\n      pop\n      pop\n      jump\t// out\n        /* \"#utility.yul\":13118:13816   */\n    tag_35:\n        /* \"#utility.yul\":13371:13375   */\n      0x00\n        /* \"#utility.yul\":13409:13411   */\n      0x40\n        /* \"#utility.yul\":13398:13407   */\n      dup3\n        /* \"#utility.yul\":13394:13412   */\n      add\n        /* \"#utility.yul\":13386:13412   */\n      swap1\n      pop\n        /* \"#utility.yul\":13458:13467   */\n      dup2\n        /* \"#utility.yul\":13452:13456   */\n      dup2\n        /* \"#utility.yul\":13448:13468   */\n      sub\n        /* \"#utility.yul\":13444:13445   */\n      0x00\n        /* \"#utility.yul\":13433:13442   */\n      dup4\n        /* \"#utility.yul\":13429:13446   */\n      add\n        /* \"#utility.yul\":13422:13469   */\n      mstore\n        /* \"#utility.yul\":13486:13656   */\n      tag_307\n        /* \"#utility.yul\":13651:13655   */\n      dup2\n        /* \"#utility.yul\":13642:13648   */\n      dup6\n        /* \"#utility.yul\":13486:13656   */\n      tag_184\n      jump\t// in\n    tag_307:\n        /* \"#utility.yul\":13478:13656   */\n      swap1\n      pop\n        /* \"#utility.yul\":13703:13712   */\n      dup2\n        /* \"#utility.yul\":13697:13701   */\n      dup2\n        /* \"#utility.yul\":13693:13713   */\n      sub\n        /* \"#utility.yul\":13688:13690   */\n      0x20\n        /* \"#utility.yul\":13677:13686   */\n      dup4\n        /* \"#utility.yul\":13673:13691   */\n      add\n        /* \"#utility.yul\":13666:13714   */\n      mstore\n        /* \"#utility.yul\":13731:13809   */\n      tag_308\n        /* \"#utility.yul\":13804:13808   */\n      dup2\n        /* \"#utility.yul\":13795:13801   */\n      dup5\n        /* \"#utility.yul\":13731:13809   */\n      tag_170\n      jump\t// in\n    tag_308:\n        /* \"#utility.yul\":13723:13809   */\n      swap1\n      pop\n        /* \"#utility.yul\":13118:13816   */\n      swap4\n      swap3\n      pop\n      pop\n      pop\n      jump\t// out\n        /* \"#utility.yul\":13822:13899   */\n    tag_185:\n        /* \"#utility.yul\":13859:13866   */\n      0x00\n        /* \"#utility.yul\":13888:13893   */\n      dup2\n        /* \"#utility.yul\":13877:13893   */\n      swap1\n      pop\n        /* \"#utility.yul\":13822:13899   */\n      swap2\n      swap1\n      pop\n      jump\t// out\n        /* \"#utility.yul\":13905:14023   */\n    tag_186:\n        /* \"#utility.yul\":13992:14016   */\n      tag_311\n        /* \"#utility.yul\":14010:14015   */\n      dup2\n        /* \"#utility.yul\":13992:14016   */\n      tag_185\n      jump\t// in\n    tag_311:\n        /* \"#utility.yul\":13987:13990   */\n      dup3\n        /* \"#utility.yul\":13980:14017   */\n      mstore\n        /* \"#utility.yul\":13905:14023   */\n      pop\n      pop\n      jump\t// out\n        /* \"#utility.yul\":14029:14251   */\n    tag_40:\n        /* \"#utility.yul\":14122:14126   */\n      0x00\n        /* \"#utility.yul\":14160:14162   */\n      0x20\n        /* \"#utility.yul\":14149:14158   */\n      dup3\n        /* \"#utility.yul\":14145:14163   */\n      add\n        /* \"#utility.yul\":14137:14163   */\n      swap1\n      pop\n        /* \"#utility.yul\":14173:14244   */\n      tag_313\n        /* \"#utility.yul\":14241:14242   */\n      0x00\n        /* \"#utility.yul\":14230:14239   */\n      dup4\n        /* \"#utility.yul\":14226:14243   */\n      add\n        /* \"#utility.yul\":14217:14223   */\n      dup5\n        /* \"#utility.yul\":14173:14244   */\n      tag_186\n      jump\t// in\n    tag_313:\n        /* \"#utility.yul\":14029:14251   */\n      swap3\n      swap2\n      pop\n      pop\n      jump\t// out\n        /* \"#utility.yul\":14257:14404   */\n    tag_187:\n        /* \"#utility.yul\":14358:14369   */\n      0x00\n        /* \"#utility.yul\":14395:14398   */\n      dup2\n        /* \"#utility.yul\":14380:14398   */\n      swap1\n      pop\n        /* \"#utility.yul\":14257:14404   */\n      swap3\n      swap2\n      pop\n      pop\n      jump\t// out\n        /* \"#utility.yul\":14410:14558   */\n    tag_188:\n        /* \"#utility.yul\":14508:14514   */\n      dup3\n        /* \"#utility.yul\":14503:14506   */\n      dup2\n        /* \"#utility.yul\":14498:14501   */\n      dup4\n        /* \"#utility.yul\":14485:14515   */\n      calldatacopy\n        /* \"#utility.yul\":14549:14550   */\n      0x00\n        /* \"#utility.yul\":14540:14546   */\n      dup4\n        /* \"#utility.yul\":14535:14538   */\n      dup4\n        /* \"#utility.yul\":14531:14547   */\n      add\n        /* \"#utility.yul\":14524:14551   */\n      mstore\n        /* \"#utility.yul\":14410:14558   */\n      pop\n      pop\n      pop\n      jump\t// out\n        /* \"#utility.yul\":14586:14913   */\n    tag_189:\n        /* \"#utility.yul\":14700:14703   */\n      0x00\n        /* \"#utility.yul\":14721:14809   */\n      tag_317\n        /* \"#utility.yul\":14802:14808   */\n      dup4\n        /* \"#utility.yul\":14797:14800   */\n      dup6\n        /* \"#utility.yul\":14721:14809   */\n      tag_187\n      jump\t// in\n    tag_317:\n        /* \"#utility.yul\":14714:14809   */\n      swap4\n      pop\n        /* \"#utility.yul\":14819:14875   */\n      tag_318\n        /* \"#utility.yul\":14868:14874   */\n      dup4\n        /* \"#utility.yul\":14863:14866   */\n      dup6\n        /* \"#utility.yul\":14856:14861   */\n      dup5\n        /* \"#utility.yul\":14819:14875   */\n      tag_188\n      jump\t// in\n    tag_318:\n        /* \"#utility.yul\":14900:14906   */\n      dup3\n        /* \"#utility.yul\":14895:14898   */\n      dup5\n        /* \"#utility.yul\":14891:14907   */\n      add\n        /* \"#utility.yul\":14884:14907   */\n      swap1\n      pop\n        /* \"#utility.yul\":14586:14913   */\n      swap4\n      swap3\n      pop\n      pop\n      pop\n      jump\t// out\n        /* \"#utility.yul\":14919:15210   */\n    tag_52:\n        /* \"#utility.yul\":15059:15062   */\n      0x00\n        /* \"#utility.yul\":15081:15184   */\n      tag_320\n        /* \"#utility.yul\":15180:15183   */\n      dup3\n        /* \"#utility.yul\":15171:15177   */\n      dup5\n        /* \"#utility.yul\":15163:15169   */\n      dup7\n        /* \"#utility.yul\":15081:15184   */\n      tag_189\n      jump\t// in\n    tag_320:\n        /* \"#utility.yul\":15074:15184   */\n      swap2\n      pop\n        /* \"#utility.yul\":15201:15204   */\n      dup2\n        /* \"#utility.yul\":15194:15204   */\n      swap1\n      pop\n        /* \"#utility.yul\":14919:15210   */\n      swap4\n      swap3\n      pop\n      pop\n      pop\n      jump\t// out\n        /* \"#utility.yul\":15216:15396   */\n    tag_109:\n        /* \"#utility.yul\":15264:15341   */\n      0x4e487b7100000000000000000000000000000000000000000000000000000000\n        /* \"#utility.yul\":15261:15262   */\n      0x00\n        /* \"#utility.yul\":15254:15342   */\n      mstore\n        /* \"#utility.yul\":15361:15365   */\n      0x41\n        /* \"#utility.yul\":15358:15359   */\n      0x04\n        /* \"#utility.yul\":15351:15366   */\n      mstore\n        /* \"#utility.yul\":15385:15389   */\n      0x24\n        /* \"#utility.yul\":15382:15383   */\n      0x00\n        /* \"#utility.yul\":15375:15390   */\n      revert\n        /* \"#utility.yul\":15402:15582   */\n    tag_190:\n        /* \"#utility.yul\":15450:15527   */\n      0x4e487b7100000000000000000000000000000000000000000000000000000000\n        /* \"#utility.yul\":15447:15448   */\n      0x00\n        /* \"#utility.yul\":15440:15528   */\n      mstore\n        /* \"#utility.yul\":15547:15551   */\n      0x22\n        /* \"#utility.yul\":15544:15545   */\n      0x04\n        /* \"#utility.yul\":15537:15552   */\n      mstore\n        /* \"#utility.yul\":15571:15575   */\n      0x24\n        /* \"#utility.yul\":15568:15569   */\n      0x00\n        /* \"#utility.yul\":15561:15576   */\n      revert\n        /* \"#utility.yul\":15588:15908   */\n    tag_72:\n        /* \"#utility.yul\":15632:15638   */\n      0x00\n        /* \"#utility.yul\":15669:15670   */\n      0x02\n        /* \"#utility.yul\":15663:15667   */\n      dup3\n        /* \"#utility.yul\":15659:15671   */\n      div\n        /* \"#utility.yul\":15649:15671   */\n      swap1\n      pop\n        /* \"#utility.yul\":15716:15717   */\n      0x01\n        /* \"#utility.yul\":15710:15714   */\n      dup3\n        /* \"#utility.yul\":15706:15718   */\n      and\n        /* \"#utility.yul\":15737:15755   */\n      dup1\n        /* \"#utility.yul\":15727:15808   */\n      tag_324\n      jumpi\n        /* \"#utility.yul\":15793:15797   */\n      0x7f\n        /* \"#utility.yul\":15785:15791   */\n      dup3\n        /* \"#utility.yul\":15781:15798   */\n      and\n        /* \"#utility.yul\":15771:15798   */\n      swap2\n      pop\n        /* \"#utility.yul\":15727:15808   */\n    tag_324:\n        /* \"#utility.yul\":15855:15857   */\n      0x20\n        /* \"#utility.yul\":15847:15853   */\n      dup3\n        /* \"#utility.yul\":15844:15858   */\n      lt\n        /* \"#utility.yul\":15824:15842   */\n      dup2\n        /* \"#utility.yul\":15821:15859   */\n      sub\n        /* \"#utility.yul\":15818:15902   */\n      tag_325\n      jumpi\n        /* \"#utility.yul\":15874:15892   */\n      tag_326\n      tag_190\n      jump\t// in\n    tag_326:\n        /* \"#utility.yul\":15818:15902   */\n    tag_325:\n        /* \"#utility.yul\":15639:15908   */\n      pop\n        /* \"#utility.yul\":15588:15908   */\n      swap2\n      swap1\n      pop\n      jump\t// out\n        /* \"#utility.yul\":15914:16055   */\n    tag_191:\n        /* \"#utility.yul\":15963:15967   */\n      0x00\n        /* \"#utility.yul\":15986:15989   */\n      dup2\n        /* \"#utility.yul\":15978:15989   */\n      swap1\n      pop\n        /* \"#utility.yul\":16009:16012   */\n      dup2\n        /* \"#utility.yul\":16006:16007   */\n      0x00\n        /* \"#utility.yul\":15999:16013   */\n      mstore\n        /* \"#utility.yul\":16043:16047   */\n      0x20\n        /* \"#utility.yul\":16040:16041   */\n      0x00\n        /* \"#utility.yul\":16030:16048   */\n      keccak256\n        /* \"#utility.yul\":16022:16048   */\n      swap1\n      pop\n        /* \"#utility.yul\":15914:16055   */\n      swap2\n      swap1\n      pop\n      jump\t// out\n        /* \"#utility.yul\":16061:16154   */\n    tag_192:\n        /* \"#utility.yul\":16098:16104   */\n      0x00\n        /* \"#utility.yul\":16145:16147   */\n      0x20\n        /* \"#utility.yul\":16140:16142   */\n      0x1f\n        /* \"#utility.yul\":16133:16138   */\n      dup4\n        /* \"#utility.yul\":16129:16143   */\n      add\n        /* \"#utility.yul\":16125:16148   */\n      div\n        /* \"#utility.yul\":16115:16148   */\n      swap1\n      pop\n        /* \"#utility.yul\":16061:16154   */\n      swap2\n      swap1\n      pop\n      jump\t// out\n        /* \"#utility.yul\":16160:16267   */\n    tag_193:\n        /* \"#utility.yul\":16204:16212   */\n      0x00\n        /* \"#utility.yul\":16254:16259   */\n      dup3\n        /* \"#utility.yul\":16248:16252   */\n      dup3\n        /* \"#utility.yul\":16244:16260   */\n      shl\n        /* \"#utility.yul\":16223:16260   */\n      swap1\n      pop\n        /* \"#utility.yul\":16160:16267   */\n      swap3\n      swap2\n      pop\n      pop\n      jump\t// out\n        /* \"#utility.yul\":16273:16666   */\n    tag_194:\n        /* \"#utility.yul\":16342:16348   */\n      0x00\n        /* \"#utility.yul\":16392:16393   */\n      0x08\n        /* \"#utility.yul\":16380:16390   */\n      dup4\n        /* \"#utility.yul\":16376:16394   */\n      mul\n        /* \"#utility.yul\":16415:16512   */\n      tag_331\n        /* \"#utility.yul\":16445:16511   */\n      0xffffffffffffffffffffffffffffffffffffffffffffffffffffffffffffffff\n        /* \"#utility.yul\":16434:16443   */\n      dup3\n        /* \"#utility.yul\":16415:16512   */\n      tag_193\n      jump\t// in\n    tag_331:\n        /* \"#utility.yul\":16533:16572   */\n      tag_332\n        /* \"#utility.yul\":16563:16571   */\n      dup7\n        /* \"#utility.yul\":16552:16561   */\n      dup4\n        /* \"#utility.yul\":16533:16572   */\n      tag_193\n      jump\t// in\n    tag_332:\n        /* \"#utility.yul\":16521:16572   */\n      swap6\n      pop\n        /* \"#utility.yul\":16605:16609   */\n      dup1\n        /* \"#utility.yul\":16601:16610   */\n      not\n        /* \"#utility.yul\":16594:16599   */\n      dup5\n        /* \"#utility.yul\":16590:16611   */\n      and\n        /* \"#utility.yul\":16581:16611   */\n      swap4\n      pop\n        /* \"#utility.yul\":16654:16658   */\n      dup1\n        /* \"#utility.yul\":16644:16652   */\n      dup7\n        /* \"#utility.yul\":16640:16659   */\n      and\n        /* \"#utility.yul\":16633:16638   */\n      dup5\n        /* \"#utility.yul\":16630:16660   */\n      or\n        /* \"#utility.yul\":16620:16660   */\n      swap3\n      pop\n        /* \"#utility.yul\":16349:16666   */\n      pop\n      pop\n        /* \"#utility.yul\":16273:16666   */\n      swap4\n      swap3\n      pop\n      pop\n      pop\n      jump\t// out\n        /* \"#utility.yul\":16672:16732   */\n    tag_195:\n        /* \"#utility.yul\":16700:16703   */\n      0x00\n        /* \"#utility.yul\":16721:16726   */\n      dup2\n        /* \"#utility.yul\":16714:16726   */\n      swap1\n      pop\n        /* \"#utility.yul\":16672:16732   */\n      swap2\n      swap1\n      pop\n      jump\t// out\n        /* \"#utility.yul\":16738:16880   */\n    tag_196:\n        /* \"#utility.yul\":16788:16797   */\n      0x00\n        /* \"#utility.yul\":16821:16874   */\n      tag_335\n        /* \"#utility.yul\":16839:16873   */\n      tag_336\n        /* \"#utility.yul\":16848:16872   */\n      tag_337\n        /* \"#utility.yul\":16866:16871   */\n      dup5\n        /* \"#utility.yul\":16848:16872   */\n      tag_185\n      jump\t// in\n    tag_337:\n        /* \"#utility.yul\":16839:16873   */\n      tag_195\n      jump\t// in\n    tag_336:\n        /* \"#utility.yul\":16821:16874   */\n      tag_185\n      jump\t// in\n    tag_335:\n        /* \"#utility.yul\":16808:16874   */\n      swap1\n      pop\n        /* \"#utility.yul\":16738:16880   */\n      swap2\n      swap1\n      pop\n      jump\t// out\n        /* \"#utility.yul\":16886:16961   */\n    tag_197:\n        /* \"#utility.yul\":16929:16932   */\n      0x00\n        /* \"#utility.yul\":16950:16955   */\n      dup2\n        /* \"#utility.yul\":16943:16955   */\n      swap1\n      pop\n        /* \"#utility.yul\":16886:16961   */\n      swap2\n      swap1\n      pop\n      jump\t// out\n        /* \"#utility.yul\":16967:17236   */\n    tag_198:\n        /* \"#utility.yul\":17077:17116   */\n      tag_340\n        /* \"#utility.yul\":17108:17115   */\n      dup4\n        /* \"#utility.yul\":17077:17116   */\n      tag_196\n      jump\t// in\n    tag_340:\n        /* \"#utility.yul\":17138:17229   */\n      tag_341\n        /* \"#utility.yul\":17187:17228   */\n      tag_342\n        /* \"#utility.yul\":17211:17227   */\n      dup3\n        /* \"#utility.yul\":17187:17228   */\n      tag_197\n      jump\t// in\n    tag_342:\n        /* \"#utility.yul\":17179:17185   */\n      dup5\n        /* \"#utility.yul\":17172:17176   */\n      dup5\n        /* \"#utility.yul\":17166:17177   */\n      sload\n        /* \"#utility.yul\":17138:17229   */\n      tag_194\n      jump\t// in\n    tag_341:\n        /* \"#utility.yul\":17132:17136   */\n      dup3\n        /* \"#utility.yul\":17125:17230   */\n      sstore\n        /* \"#utility.yul\":17043:17236   */\n      pop\n        /* \"#utility.yul\":16967:17236   */\n      pop\n      pop\n      pop\n      jump\t// out\n        /* \"#utility.yul\":17242:17315   */\n    tag_199:\n        /* \"#utility.yul\":17287:17290   */\n      0x00\n        /* \"#utility.yul\":17242:17315   */\n      swap1\n      jump\t// out\n        /* \"#utility.yul\":17321:17510   */\n    tag_200:\n        /* \"#utility.yul\":17398:17430   */\n      tag_345\n      tag_199\n      jump\t// in\n    tag_345:\n        /* \"#utility.yul\":17439:17504   */\n      tag_346\n        /* \"#utility.yul\":17497:17503   */\n      dup2\n        /* \"#utility.yul\":17489:17495   */\n      dup5\n        /* \"#utility.yul\":17483:17487   */\n      dup5\n        /* \"#utility.yul\":17439:17504   */\n      tag_198\n      jump\t// in\n    tag_346:\n        /* \"#utility.yul\":17374:17510   */\n      pop\n        /* \"#utility.yul\":17321:17510   */\n      pop\n      pop\n      jump\t// out\n        /* \"#utility.yul\":17516:17702   */\n    tag_201:\n        /* \"#utility.yul\":17576:17696   */\n    tag_348:\n        /* \"#utility.yul\":17593:17596   */\n      dup2\n        /* \"#utility.yul\":17586:17591   */\n      dup2\n        /* \"#utility.yul\":17583:17597   */\n      lt\n        /* \"#utility.yul\":17576:17696   */\n      iszero\n      tag_350\n      jumpi\n        /* \"#utility.yul\":17647:17686   */\n      tag_351\n        /* \"#utility.yul\":17684:17685   */\n      0x00\n        /* \"#utility.yul\":17677:17682   */\n      dup3\n        /* \"#utility.yul\":17647:17686   */\n      tag_200\n      jump\t// in\n    tag_351:\n        /* \"#utility.yul\":17620:17621   */\n      0x01\n        /* \"#utility.yul\":17613:17618   */\n      dup2\n        /* \"#utility.yul\":17609:17622   */\n      add\n        /* \"#utility.yul\":17600:17622   */\n      swap1\n      pop\n        /* \"#utility.yul\":17576:17696   */\n      jump(tag_348)\n    tag_350:\n        /* \"#utility.yul\":17516:17702   */\n      pop\n      pop\n      jump\t// out\n        /* \"#utility.yul\":17708:18251   */\n    tag_202:\n        /* \"#utility.yul\":17809:17811   */\n      0x1f\n        /* \"#utility.yul\":17804:17807   */\n      dup3\n        /* \"#utility.yul\":17801:17812   */\n      gt\n        /* \"#utility.yul\":17798:18244   */\n      iszero\n      tag_353\n      jumpi\n        /* \"#utility.yul\":17843:17881   */\n      tag_354\n        /* \"#utility.yul\":17875:17880   */\n      dup2\n        /* \"#utility.yul\":17843:17881   */\n      tag_191\n      jump\t// in\n    tag_354:\n        /* \"#utility.yul\":17927:17956   */\n      tag_355\n        /* \"#utility.yul\":17945:17955   */\n      dup5\n        /* \"#utility.yul\":17927:17956   */\n      tag_192\n      jump\t// in\n    tag_355:\n        /* \"#utility.yul\":17917:17925   */\n      dup2\n        /* \"#utility.yul\":17913:17957   */\n      add\n        /* \"#utility.yul\":18110:18112   */\n      0x20\n        /* \"#utility.yul\":18098:18108   */\n      dup6\n        /* \"#utility.yul\":18095:18113   */\n      lt\n        /* \"#utility.yul\":18092:18141   */\n      iszero\n      tag_356\n      jumpi\n        /* \"#utility.yul\":18131:18139   */\n      dup2\n        /* \"#utility.yul\":18116:18139   */\n      swap1\n      pop\n        /* \"#utility.yul\":18092:18141   */\n    tag_356:\n        /* \"#utility.yul\":18154:18234   */\n      tag_357\n        /* \"#utility.yul\":18210:18232   */\n      tag_358\n        /* \"#utility.yul\":18228:18231   */\n      dup6\n        /* \"#utility.yul\":18210:18232   */\n      tag_192\n      jump\t// in\n    tag_358:\n        /* \"#utility.yul\":18200:18208   */\n      dup4\n        /* \"#utility.yul\":18196:18233   */\n      add\n        /* \"#utility.yul\":18183:18194   */\n      dup3\n        /* \"#utility.yul\":18154:18234   */\n      tag_201\n      jump\t// in\n    tag_357:\n        /* \"#utility.yul\":17813:18244   */\n      pop\n      pop\n        /* \"#utility.yul\":17798:18244   */\n    tag_353:\n        /* \"#utility.yul\":17708:18251   */\n      pop\n      pop\n      pop\n      jump\t// out\n        /* \"#utility.yul\":18257:18374   */\n    tag_203:\n        /* \"#utility.yul\":18311:18319   */\n      0x00\n        /* \"#utility.yul\":18361:18366   */\n      dup3\n        /* \"#utility.yul\":18355:18359   */\n      dup3\n        /* \"#utility.yul\":18351:18367   */\n      shr\n        /* \"#utility.yul\":18330:18367   */\n      swap1\n      pop\n        /* \"#utility.yul\":18257:18374   */\n      swap3\n      swap2\n      pop\n      pop\n      jump\t// out\n        /* \"#utility.yul\":18380:18549   */\n    tag_204:\n        /* \"#utility.yul\":18424:18430   */\n      0x00\n        /* \"#utility.yul\":18457:18508   */\n      tag_361\n        /* \"#utility.yul\":18505:18506   */\n      0x00\n        /* \"#utility.yul\":18501:18507   */\n      not\n        /* \"#utility.yul\":18493:18498   */\n      dup5\n        /* \"#utility.yul\":18490:18491   */\n      0x08\n        /* \"#utility.yul\":18486:18499   */\n      mul\n        /* \"#utility.yul\":18457:18508   */\n      tag_203\n      jump\t// in\n    tag_361:\n        /* \"#utility.yul\":18453:18509   */\n      not\n        /* \"#utility.yul\":18538:18542   */\n      dup1\n        /* \"#utility.yul\":18532:18536   */\n      dup4\n        /* \"#utility.yul\":18528:18543   */\n      and\n        /* \"#utility.yul\":18518:18543   */\n      swap2\n      pop\n        /* \"#utility.yul\":18431:18549   */\n      pop\n        /* \"#utility.yul\":18380:18549   */\n      swap3\n      swap2\n      pop\n      pop\n      jump\t// out\n        /* \"#utility.yul\":18554:18849   */\n    tag_205:\n        /* \"#utility.yul\":18630:18634   */\n      0x00\n        /* \"#utility.yul\":18776:18805   */\n      tag_363\n        /* \"#utility.yul\":18801:18804   */\n      dup4\n        /* \"#utility.yul\":18795:18799   */\n      dup4\n        /* \"#utility.yul\":18776:18805   */\n      tag_204\n      jump\t// in\n    tag_363:\n        /* \"#utility.yul\":18768:18805   */\n      swap2\n      pop\n        /* \"#utility.yul\":18838:18841   */\n      dup3\n        /* \"#utility.yul\":18835:18836   */\n      0x02\n        /* \"#utility.yul\":18831:18842   */\n      mul\n        /* \"#utility.yul\":18825:18829   */\n      dup3\n        /* \"#utility.yul\":18822:18843   */\n      or\n        /* \"#utility.yul\":18814:18843   */\n      swap1\n      pop\n        /* \"#utility.yul\":18554:18849   */\n      swap3\n      swap2\n      pop\n      pop\n      jump\t// out\n        /* \"#utility.yul\":18854:20249   */\n    tag_57:\n        /* \"#utility.yul\":18971:19008   */\n      tag_365\n        /* \"#utility.yul\":19004:19007   */\n      dup3\n        /* \"#utility.yul\":18971:19008   */\n      tag_166\n      jump\t// in\n    tag_365:\n        /* \"#utility.yul\":19073:19091   */\n      0xffffffffffffffff\n        /* \"#utility.yul\":19065:19071   */\n      dup2\n        /* \"#utility.yul\":19062:19092   */\n      gt\n        /* \"#utility.yul\":19059:19115   */\n      iszero\n      tag_366\n      jumpi\n        /* \"#utility.yul\":19095:19113   */\n      tag_367\n      tag_109\n      jump\t// in\n    tag_367:\n        /* \"#utility.yul\":19059:19115   */\n    tag_366:\n        /* \"#utility.yul\":19139:19177   */\n      tag_368\n        /* \"#utility.yul\":19171:19175   */\n      dup3\n        /* \"#utility.yul\":19165:19176   */\n      sload\n        /* \"#utility.yul\":19139:19177   */\n      tag_72\n      jump\t// in\n    tag_368:\n        /* \"#utility.yul\":19224:19291   */\n      tag_369\n        /* \"#utility.yul\":19284:19290   */\n      dup3\n        /* \"#utility.yul\":19276:19282   */\n      dup3\n        /* \"#utility.yul\":19270:19274   */\n      dup6\n        /* \"#utility.yul\":19224:19291   */\n      tag_202\n      jump\t// in\n    tag_369:\n        /* \"#utility.yul\":19318:19319   */\n      0x00\n        /* \"#utility.yul\":19342:19346   */\n      0x20\n        /* \"#utility.yul\":19329:19346   */\n      swap1\n      pop\n        /* \"#utility.yul\":19374:19376   */\n      0x1f\n        /* \"#utility.yul\":19366:19372   */\n      dup4\n        /* \"#utility.yul\":19363:19377   */\n      gt\n        /* \"#utility.yul\":19391:19392   */\n      0x01\n        /* \"#utility.yul\":19386:20004   */\n      dup2\n      eq\n      tag_371\n      jumpi\n        /* \"#utility.yul\":20048:20049   */\n      0x00\n        /* \"#utility.yul\":20065:20071   */\n      dup5\n        /* \"#utility.yul\":20062:20139   */\n      iszero\n      tag_372\n      jumpi\n        /* \"#utility.yul\":20114:20123   */\n      dup3\n        /* \"#utility.yul\":20109:20112   */\n      dup8\n        /* \"#utility.yul\":20105:20124   */\n      add\n        /* \"#utility.yul\":20099:20125   */\n      mload\n        /* \"#utility.yul\":20090:20125   */\n      swap1\n      pop\n        /* \"#utility.yul\":20062:20139   */\n    tag_372:\n        /* \"#utility.yul\":20165:20232   */\n      tag_373\n        /* \"#utility.yul\":20225:20231   */\n      dup6\n        /* \"#utility.yul\":20218:20223   */\n      dup3\n        /* \"#utility.yul\":20165:20232   */\n      tag_205\n      jump\t// in\n    tag_373:\n        /* \"#utility.yul\":20159:20163   */\n      dup7\n        /* \"#utility.yul\":20152:20233   */\n      sstore\n        /* \"#utility.yul\":20021:20243   */\n      pop\n        /* \"#utility.yul\":19356:20243   */\n      jump(tag_370)\n        /* \"#utility.yul\":19386:20004   */\n    tag_371:\n        /* \"#utility.yul\":19438:19442   */\n      0x1f\n        /* \"#utility.yul\":19434:19443   */\n      not\n        /* \"#utility.yul\":19426:19432   */\n      dup5\n        /* \"#utility.yul\":19422:19444   */\n      and\n        /* \"#utility.yul\":19472:19509   */\n      tag_374\n        /* \"#utility.yul\":19504:19508   */\n      dup7\n        /* \"#utility.yul\":19472:19509   */\n      tag_191\n      jump\t// in\n    tag_374:\n        /* \"#utility.yul\":19531:19532   */\n      0x00\n        /* \"#utility.yul\":19545:19753   */\n    tag_375:\n        /* \"#utility.yul\":19559:19566   */\n      dup3\n        /* \"#utility.yul\":19556:19557   */\n      dup2\n        /* \"#utility.yul\":19553:19567   */\n      lt\n        /* \"#utility.yul\":19545:19753   */\n      iszero\n      tag_377\n      jumpi\n        /* \"#utility.yul\":19638:19647   */\n      dup5\n        /* \"#utility.yul\":19633:19636   */\n      dup10\n        /* \"#utility.yul\":19629:19648   */\n      add\n        /* \"#utility.yul\":19623:19649   */\n      mload\n        /* \"#utility.yul\":19615:19621   */\n      dup3\n        /* \"#utility.yul\":19608:19650   */\n      sstore\n        /* \"#utility.yul\":19689:19690   */\n      0x01\n        /* \"#utility.yul\":19681:19687   */\n      dup3\n        /* \"#utility.yul\":19677:19691   */\n      add\n        /* \"#utility.yul\":19667:19691   */\n      swap2\n      pop\n        /* \"#utility.yul\":19736:19738   */\n      0x20\n        /* \"#utility.yul\":19725:19734   */\n      dup6\n        /* \"#utility.yul\":19721:19739   */\n      add\n        /* \"#utility.yul\":19708:19739   */\n      swap5\n      pop\n        /* \"#utility.yul\":19582:19586   */\n      0x20\n        /* \"#utility.yul\":19579:19580   */\n      dup2\n        /* \"#utility.yul\":19575:19587   */\n      add\n        /* \"#utility.yul\":19570:19587   */\n      swap1\n      pop\n        /* \"#utility.yul\":19545:19753   */\n      jump(tag_375)\n    tag_377:\n        /* \"#utility.yul\":19781:19787   */\n      dup7\n        /* \"#utility.yul\":19772:19779   */\n      dup4\n        /* \"#utility.yul\":19769:19788   */\n      lt\n        /* \"#utility.yul\":19766:19945   */\n      iszero\n      tag_378\n      jumpi\n        /* \"#utility.yul\":19839:19848   */\n      dup5\n        /* \"#utility.yul\":19834:19837   */\n      dup10\n        /* \"#utility.yul\":19830:19849   */\n      add\n        /* \"#utility.yul\":19824:19850   */\n      mload\n        /* \"#utility.yul\":19882:19930   */\n      tag_379\n        /* \"#utility.yul\":19924:19928   */\n      0x1f\n        /* \"#utility.yul\":19916:19922   */\n      dup10\n        /* \"#utility.yul\":19912:19929   */\n      and\n        /* \"#utility.yul\":19901:19910   */\n      dup3\n        /* \"#utility.yul\":19882:19930   */\n      tag_204\n      jump\t// in\n    tag_379:\n        /* \"#utility.yul\":19874:19880   */\n      dup4\n        /* \"#utility.yul\":19867:19931   */\n      sstore\n        /* \"#utility.yul\":19789:19945   */\n      pop\n        /* \"#utility.yul\":19766:19945   */\n    tag_378:\n        /* \"#utility.yul\":19991:19992   */\n      0x01\n        /* \"#utility.yul\":19987:19988   */\n      0x02\n        /* \"#utility.yul\":19979:19985   */\n      dup9\n        /* \"#utility.yul\":19975:19989   */\n      mul\n        /* \"#utility.yul\":19971:19993   */\n      add\n        /* \"#utility.yul\":19965:19969   */\n      dup9\n        /* \"#utility.yul\":19958:19994   */\n      sstore\n        /* \"#utility.yul\":19393:20004   */\n      pop\n      pop\n      pop\n        /* \"#utility.yul\":19356:20243   */\n    tag_370:\n      pop\n        /* \"#utility.yul\":18946:20249   */\n      pop\n      pop\n      pop\n        /* \"#utility.yul\":18854:20249   */\n      pop\n      pop\n      jump\t// out\n        /* \"#utility.yul\":20255:20435   */\n    tag_118:\n        /* \"#utility.yul\":20303:20380   */\n      0x4e487b7100000000000000000000000000000000000000000000000000000000\n        /* \"#utility.yul\":20300:20301   */\n      0x00\n        /* \"#utility.yul\":20293:20381   */\n      mstore\n        /* \"#utility.yul\":20400:20404   */\n      0x32\n        /* \"#utility.yul\":20397:20398   */\n      0x04\n        /* \"#utility.yul\":20390:20405   */\n      mstore\n        /* \"#utility.yul\":20424:20428   */\n      0x24\n        /* \"#utility.yul\":20421:20422   */\n      0x00\n        /* \"#utility.yul\":20414:20429   */\n      revert\n        /* \"#utility.yul\":20441:20622   */\n    tag_206:\n        /* \"#utility.yul\":20581:20614   */\n      0x5265656e7472616e637947756172643a207265656e7472616e742063616c6c00\n        /* \"#utility.yul\":20577:20578   */\n      0x00\n        /* \"#utility.yul\":20569:20575   */\n      dup3\n        /* \"#utility.yul\":20565:20579   */\n      add\n        /* \"#utility.yul\":20558:20615   */\n      mstore\n        /* \"#utility.yul\":20441:20622   */\n      pop\n      jump\t// out\n        /* \"#utility.yul\":20628:20994   */\n    tag_207:\n        /* \"#utility.yul\":20770:20773   */\n      0x00\n        /* \"#utility.yul\":20791:20858   */\n      tag_383\n        /* \"#utility.yul\":20855:20857   */\n      0x1f\n        /* \"#utility.yul\":20850:20853   */\n      dup4\n        /* \"#utility.yul\":20791:20858   */\n      tag_167\n      jump\t// in\n    tag_383:\n        /* \"#utility.yul\":20784:20858   */\n      swap2\n      pop\n        /* \"#utility.yul\":20867:20960   */\n      tag_384\n        /* \"#utility.yul\":20956:20959   */\n      dup3\n        /* \"#utility.yul\":20867:20960   */\n      tag_206\n      jump\t// in\n    tag_384:\n        /* \"#utility.yul\":20985:20987   */\n      0x20\n        /* \"#utility.yul\":20980:20983   */\n      dup3\n        /* \"#utility.yul\":20976:20988   */\n      add\n        /* \"#utility.yul\":20969:20988   */\n      swap1\n      pop\n        /* \"#utility.yul\":20628:20994   */\n      swap2\n      swap1\n      pop\n      jump\t// out\n        /* \"#utility.yul\":21000:21419   */\n    tag_155:\n        /* \"#utility.yul\":21166:21170   */\n      0x00\n        /* \"#utility.yul\":21204:21206   */\n      0x20\n        /* \"#utility.yul\":21193:21202   */\n      dup3\n        /* \"#utility.yul\":21189:21207   */\n      add\n        /* \"#utility.yul\":21181:21207   */\n      swap1\n      pop\n        /* \"#utility.yul\":21253:21262   */\n      dup2\n        /* \"#utility.yul\":21247:21251   */\n      dup2\n        /* \"#utility.yul\":21243:21263   */\n      sub\n        /* \"#utility.yul\":21239:21240   */\n      0x00\n        /* \"#utility.yul\":21228:21237   */\n      dup4\n        /* \"#utility.yul\":21224:21241   */\n      add\n        /* \"#utility.yul\":21217:21264   */\n      mstore\n        /* \"#utility.yul\":21281:21412   */\n      tag_386\n        /* \"#utility.yul\":21407:21411   */\n      dup2\n        /* \"#utility.yul\":21281:21412   */\n      tag_207\n      jump\t// in\n    tag_386:\n        /* \"#utility.yul\":21273:21412   */\n      swap1\n      pop\n        /* \"#utility.yul\":21000:21419   */\n      swap2\n      swap1\n      pop\n      jump\t// out\n    stop\n    data_2df0834bdf8786d74360a7c8b8d7de5d15a4289ab85529d73f4e7397c0b8af40 43616c6c6572206d75737420626520696e737572616e63652070726f7669646572\n    data_59323eb6dad5e70cc715cecc9bb2fbfd583fdb1f65d5a10f603cc22277a415f3 416c6c20706f6c696369657320726574726965766564207375636365737366756c6c79\n    data_6f31ec84f1633147aa3d024eb7f56473d59ec67a9eec6c05e5cf01eb0db0a5c8 44657061727475726520616e642064657374696e6174696f6e206369746965732063616e6e6f74206265207468652073616d65\n    data_90125a95f140e7c431643cdabd4e1c369c10e0c0b7476bfd704cd47a5bf883f1 496e76616c69642043616c6c65723a20496e737572616e63652050726f7669646572\n    data_90e62f8819c827a807f9699ff7d534f63b1757c7c06d7e0f1b655a13e0c6e2d0 506f6c69637920616c72656164792065786973747320666f7220746869732061646472657373\n    data_d59989be92bc9d1b4549c043b505eb9c4875cfd9f825df1096982c95975097c2 5072656d69756d3a20302e3031204554482c20496e64656d6e6974793a20302e3032204554482c20436f7665726167653a2045787472656d6520576561746865722044656c6179732028652e672e2c206861696c2c20666c6f6f64696e672c206574632e292e\n    data_ef070f5147518867988621c2539f9f6b08693b883575bb0e1da4e2e6be6fd1e2 496e73756666696369656e742066756e64733a204d696e696d756d20302e303120455448207265717569726564\n\n    auxdata: 0xa26469706673582212200f47854f66d2c56c1fa603a16df80befe0589f1f79088cd2d98a3355b8c00c7764736f6c634300081a0033\n}\n",
				"bytecode": {
					"linkReferences": {},
					"object": "608060405234801561000f575f80fd5b50604051611f54380380611f54833981810160405281019061003191906100dc565b60015f819055508060015f6101000a81548173ffffffffffffffffffffffffffffffffffffffff021916908373ffffffffffffffffffffffffffffffffffffffff16021790555050610107565b5f80fd5b5f73ffffffffffffffffffffffffffffffffffffffff82169050919050565b5f6100ab82610082565b9050919050565b6100bb816100a1565b81146100c5575f80fd5b50565b5f815190506100d6816100b2565b92915050565b5f602082840312156100f1576100f061007e565b5b5f6100fe848285016100c8565b91505092915050565b611e40806101145f395ff3fe60806040526004361061006f575f3560e01c8063b6fc3b2a1161004d578063b6fc3b2a146100f9578063c160693d14610123578063cd95e7771461014e578063ea3696ca146101785761006f565b80635d02ed1214610073578063963163bd146100a45780639955f67c146100cf575b5f80fd5b61008d6004803603810190610088919061136d565b6101a2565b60405161009b92919061150e565b60405180910390f35b3480156100af575f80fd5b506100b8610758565b6040516100c692919061167f565b60405180910390f35b3480156100da575f80fd5b506100e3610c92565b6040516100f091906116c3565b60405180910390f35b348015610104575f80fd5b5061010d610cb7565b60405161011a91906116dc565b60405180910390f35b34801561012e575f80fd5b50610137610cd7565b604051610145929190611873565b60405180910390f35b348015610159575f80fd5b50610162611246565b60405161016f91906118c0565b60405180910390f35b348015610183575f80fd5b5061018c611251565b60405161019991906118c0565b60405180910390f35b5f60606101ad61125c565b60015f9054906101000a900473ffffffffffffffffffffffffffffffffffffffff1673ffffffffffffffffffffffffffffffffffffffff163373ffffffffffffffffffffffffffffffffffffffff1603610224575f604051806060016040528060228152602001611d306022913991509150610741565b5f73ffffffffffffffffffffffffffffffffffffffff1660025f3373ffffffffffffffffffffffffffffffffffffffff1673ffffffffffffffffffffffffffffffffffffffff1681526020019081526020015f206001015f9054906101000a900473ffffffffffffffffffffffffffffffffffffffff1673ffffffffffffffffffffffffffffffffffffffff16146102d9575f604051806060016040528060268152602001611d526026913991509150610741565b83836040516102e9929190611915565b60405180910390208686604051610301929190611915565b604051809103902003610331575f604051806060016040528060338152602001611cfd6033913991509150610741565b662386f26fc10000341015610363575f6040518060600160405280602d8152602001611dde602d913991509150610741565b6040518060e001604052808d8d8080601f0160208091040260200160405190810160405280939291908181526020018383808284375f81840152601f19601f8201169050808301925050505050505081526020013373ffffffffffffffffffffffffffffffffffffffff1681526020018b8b8080601f0160208091040260200160405190810160405280939291908181526020018383808284375f81840152601f19601f82011690508083019250505050505050815260200189898080601f0160208091040260200160405190810160405280939291908181526020018383808284375f81840152601f19601f82011690508083019250505050505050815260200187878080601f0160208091040260200160405190810160405280939291908181526020018383808284375f81840152601f19601f82011690508083019250505050505050815260200185858080601f0160208091040260200160405190810160405280939291908181526020018383808284375f81840152601f19601f8201169050808301925050505050505081526020016040518060400160405280600981526020017f707572636861736564000000000000000000000000000000000000000000000081525081525060025f3373ffffffffffffffffffffffffffffffffffffffff1673ffffffffffffffffffffffffffffffffffffffff1681526020019081526020015f205f820151815f0190816105809190611b54565b506020820151816001015f6101000a81548173ffffffffffffffffffffffffffffffffffffffff021916908373ffffffffffffffffffffffffffffffffffffffff16021790555060408201518160020190816105dc9190611b54565b5060608201518160030190816105f29190611b54565b5060808201518160040190816106089190611b54565b5060a082015181600501908161061e9190611b54565b5060c08201518160060190816106349190611b54565b50905050600333908060018154018082558091505060019003905f5260205f20015f9091909190916101000a81548173ffffffffffffffffffffffffffffffffffffffff021916908373ffffffffffffffffffffffffffffffffffffffff16021790555060015f9054906101000a900473ffffffffffffffffffffffffffffffffffffffff1673ffffffffffffffffffffffffffffffffffffffff166108fc662386f26fc1000090811502906040515f60405180830381858888f19350505050158015610703573d5f803e3d5ffd5b5060016040518060400160405280601d81526020017f506f6c696379207375636365737366756c6c7920707572636861736564000000815250915091505b6107496112a9565b9a509a98505050505050505050565b6107606112b2565b60605f60025f3373ffffffffffffffffffffffffffffffffffffffff1673ffffffffffffffffffffffffffffffffffffffff1681526020019081526020015f206040518060e00160405290815f820180546107ba90611987565b80601f01602080910402602001604051908101604052809291908181526020018280546107e690611987565b80156108315780601f1061080857610100808354040283529160200191610831565b820191905f5260205f20905b81548152906001019060200180831161081457829003601f168201915b50505050508152602001600182015f9054906101000a900473ffffffffffffffffffffffffffffffffffffffff1673ffffffffffffffffffffffffffffffffffffffff1673ffffffffffffffffffffffffffffffffffffffff16815260200160028201805461089f90611987565b80601f01602080910402602001604051908101604052809291908181526020018280546108cb90611987565b80156109165780601f106108ed57610100808354040283529160200191610916565b820191905f5260205f20905b8154815290600101906020018083116108f957829003601f168201915b5050505050815260200160038201805461092f90611987565b80601f016020809104026020016040519081016040528092919081815260200182805461095b90611987565b80156109a65780601f1061097d576101008083540402835291602001916109a6565b820191905f5260205f20905b81548152906001019060200180831161098957829003601f168201915b505050505081526020016004820180546109bf90611987565b80601f01602080910402602001604051908101604052809291908181526020018280546109eb90611987565b8015610a365780601f10610a0d57610100808354040283529160200191610a36565b820191905f5260205f20905b815481529060010190602001808311610a1957829003601f168201915b50505050508152602001600582018054610a4f90611987565b80601f0160208091040260200160405190810160405280929190818152602001828054610a7b90611987565b8015610ac65780601f10610a9d57610100808354040283529160200191610ac6565b820191905f5260205f20905b815481529060010190602001808311610aa957829003601f168201915b50505050508152602001600682018054610adf90611987565b80601f0160208091040260200160405190810160405280929190818152602001828054610b0b90611987565b8015610b565780601f10610b2d57610100808354040283529160200191610b56565b820191905f5260205f20905b815481529060010190602001808311610b3957829003601f168201915b505050505081525050905060015f9054906101000a900473ffffffffffffffffffffffffffffffffffffffff1673ffffffffffffffffffffffffffffffffffffffff163373ffffffffffffffffffffffffffffffffffffffff1603610bd95780604051806060016040528060228152602001611d30602291399250925050610c8e565b5f73ffffffffffffffffffffffffffffffffffffffff16816020015173ffffffffffffffffffffffffffffffffffffffff1603610c5157806040518060400160405280600f81526020017f4e6f20706f6c69637920666f756e6400000000000000000000000000000000008152509250925050610c8e565b806040518060400160405280601d81526020017f506f6c69637920726574726965766564207375636365737366756c6c7900000081525092509250505b9091565b60015f9054906101000a900473ffffffffffffffffffffffffffffffffffffffff1681565b60606040518060a0016040528060668152602001611d7860669139905090565b60608060015f9054906101000a900473ffffffffffffffffffffffffffffffffffffffff1673ffffffffffffffffffffffffffffffffffffffff163373ffffffffffffffffffffffffffffffffffffffff1614610d5457606080604051806060016040528060218152602001611cb9602191399250925050611242565b5f60038054905067ffffffffffffffff811115610d7457610d7361192d565b5b604051908082528060200260200182016040528015610dad57816020015b610d9a6112b2565b815260200190600190039081610d925790505b5090505f5b6003805490508110156112215760025f60038381548110610dd657610dd5611c23565b5b905f5260205f20015f9054906101000a900473ffffffffffffffffffffffffffffffffffffffff1673ffffffffffffffffffffffffffffffffffffffff1673ffffffffffffffffffffffffffffffffffffffff1681526020019081526020015f206040518060e00160405290815f82018054610e5190611987565b80601f0160208091040260200160405190810160405280929190818152602001828054610e7d90611987565b8015610ec85780601f10610e9f57610100808354040283529160200191610ec8565b820191905f5260205f20905b815481529060010190602001808311610eab57829003601f168201915b50505050508152602001600182015f9054906101000a900473ffffffffffffffffffffffffffffffffffffffff1673ffffffffffffffffffffffffffffffffffffffff1673ffffffffffffffffffffffffffffffffffffffff168152602001600282018054610f3690611987565b80601f0160208091040260200160405190810160405280929190818152602001828054610f6290611987565b8015610fad5780601f10610f8457610100808354040283529160200191610fad565b820191905f5260205f20905b815481529060010190602001808311610f9057829003601f168201915b50505050508152602001600382018054610fc690611987565b80601f0160208091040260200160405190810160405280929190818152602001828054610ff290611987565b801561103d5780601f106110145761010080835404028352916020019161103d565b820191905f5260205f20905b81548152906001019060200180831161102057829003601f168201915b5050505050815260200160048201805461105690611987565b80601f016020809104026020016040519081016040528092919081815260200182805461108290611987565b80156110cd5780601f106110a4576101008083540402835291602001916110cd565b820191905f5260205f20905b8154815290600101906020018083116110b057829003601f168201915b505050505081526020016005820180546110e690611987565b80601f016020809104026020016040519081016040528092919081815260200182805461111290611987565b801561115d5780601f106111345761010080835404028352916020019161115d565b820191905f5260205f20905b81548152906001019060200180831161114057829003601f168201915b5050505050815260200160068201805461117690611987565b80601f01602080910402602001604051908101604052809291908181526020018280546111a290611987565b80156111ed5780601f106111c4576101008083540402835291602001916111ed565b820191905f5260205f20905b8154815290600101906020018083116111d057829003601f168201915b50505050508152505082828151811061120957611208611c23565b5b60200260200101819052508080600101915050610db2565b5080604051806060016040528060238152602001611cda6023913992509250505b9091565b66470de4df82000081565b662386f26fc1000081565b60025f54036112a0576040517f08c379a000000000000000000000000000000000000000000000000000000000815260040161129790611c9a565b60405180910390fd5b60025f81905550565b60015f81905550565b6040518060e00160405280606081526020015f73ffffffffffffffffffffffffffffffffffffffff16815260200160608152602001606081526020016060815260200160608152602001606081525090565b5f80fd5b5f80fd5b5f80fd5b5f80fd5b5f80fd5b5f8083601f84011261132d5761132c61130c565b5b8235905067ffffffffffffffff81111561134a57611349611310565b5b60208301915083600182028301111561136657611365611314565b5b9250929050565b5f805f805f805f805f8060a08b8d03121561138b5761138a611304565b5b5f8b013567ffffffffffffffff8111156113a8576113a7611308565b5b6113b48d828e01611318565b9a509a505060208b013567ffffffffffffffff8111156113d7576113d6611308565b5b6113e38d828e01611318565b985098505060408b013567ffffffffffffffff81111561140657611405611308565b5b6114128d828e01611318565b965096505060608b013567ffffffffffffffff81111561143557611434611308565b5b6114418d828e01611318565b945094505060808b013567ffffffffffffffff81111561146457611463611308565b5b6114708d828e01611318565b92509250509295989b9194979a5092959850565b5f8115159050919050565b61149881611484565b82525050565b5f81519050919050565b5f82825260208201905092915050565b8281835e5f83830152505050565b5f601f19601f8301169050919050565b5f6114e08261149e565b6114ea81856114a8565b93506114fa8185602086016114b8565b611503816114c6565b840191505092915050565b5f6040820190506115215f83018561148f565b818103602083015261153381846114d6565b90509392505050565b5f82825260208201905092915050565b5f6115568261149e565b611560818561153c565b93506115708185602086016114b8565b611579816114c6565b840191505092915050565b5f73ffffffffffffffffffffffffffffffffffffffff82169050919050565b5f6115ad82611584565b9050919050565b6115bd816115a3565b82525050565b5f60e083015f8301518482035f8601526115dd828261154c565b91505060208301516115f260208601826115b4565b506040830151848203604086015261160a828261154c565b91505060608301518482036060860152611624828261154c565b9150506080830151848203608086015261163e828261154c565b91505060a083015184820360a0860152611658828261154c565b91505060c083015184820360c0860152611672828261154c565b9150508091505092915050565b5f6040820190508181035f83015261169781856115c3565b905081810360208301526116ab81846114d6565b90509392505050565b6116bd816115a3565b82525050565b5f6020820190506116d65f8301846116b4565b92915050565b5f6020820190508181035f8301526116f481846114d6565b905092915050565b5f81519050919050565b5f82825260208201905092915050565b5f819050602082019050919050565b5f60e083015f8301518482035f86015261173f828261154c565b915050602083015161175460208601826115b4565b506040830151848203604086015261176c828261154c565b91505060608301518482036060860152611786828261154c565b915050608083015184820360808601526117a0828261154c565b91505060a083015184820360a08601526117ba828261154c565b91505060c083015184820360c08601526117d4828261154c565b9150508091505092915050565b5f6117ec8383611725565b905092915050565b5f602082019050919050565b5f61180a826116fc565b6118148185611706565b93508360208202850161182685611716565b805f5b85811015611861578484038952815161184285826117e1565b945061184d836117f4565b925060208a01995050600181019050611829565b50829750879550505050505092915050565b5f6040820190508181035f83015261188b8185611800565b9050818103602083015261189f81846114d6565b90509392505050565b5f819050919050565b6118ba816118a8565b82525050565b5f6020820190506118d35f8301846118b1565b92915050565b5f81905092915050565b828183375f83830152505050565b5f6118fc83856118d9565b93506119098385846118e3565b82840190509392505050565b5f6119218284866118f1565b91508190509392505050565b7f4e487b71000000000000000000000000000000000000000000000000000000005f52604160045260245ffd5b7f4e487b71000000000000000000000000000000000000000000000000000000005f52602260045260245ffd5b5f600282049050600182168061199e57607f821691505b6020821081036119b1576119b061195a565b5b50919050565b5f819050815f5260205f209050919050565b5f6020601f8301049050919050565b5f82821b905092915050565b5f60088302611a137fffffffffffffffffffffffffffffffffffffffffffffffffffffffffffffffff826119d8565b611a1d86836119d8565b95508019841693508086168417925050509392505050565b5f819050919050565b5f611a58611a53611a4e846118a8565b611a35565b6118a8565b9050919050565b5f819050919050565b611a7183611a3e565b611a85611a7d82611a5f565b8484546119e4565b825550505050565b5f90565b611a99611a8d565b611aa4818484611a68565b505050565b5b81811015611ac757611abc5f82611a91565b600181019050611aaa565b5050565b601f821115611b0c57611add816119b7565b611ae6846119c9565b81016020851015611af5578190505b611b09611b01856119c9565b830182611aa9565b50505b505050565b5f82821c905092915050565b5f611b2c5f1984600802611b11565b1980831691505092915050565b5f611b448383611b1d565b9150826002028217905092915050565b611b5d8261149e565b67ffffffffffffffff811115611b7657611b7561192d565b5b611b808254611987565b611b8b828285611acb565b5f60209050601f831160018114611bbc575f8415611baa578287015190505b611bb48582611b39565b865550611c1b565b601f198416611bca866119b7565b5f5b82811015611bf157848901518255600182019150602085019450602081019050611bcc565b86831015611c0e5784890151611c0a601f891682611b1d565b8355505b6001600288020188555050505b505050505050565b7f4e487b71000000000000000000000000000000000000000000000000000000005f52603260045260245ffd5b7f5265656e7472616e637947756172643a207265656e7472616e742063616c6c005f82015250565b5f611c84601f836114a8565b9150611c8f82611c50565b602082019050919050565b5f6020820190508181035f830152611cb181611c78565b905091905056fe43616c6c6572206d75737420626520696e737572616e63652070726f7669646572416c6c20706f6c696369657320726574726965766564207375636365737366756c6c7944657061727475726520616e642064657374696e6174696f6e206369746965732063616e6e6f74206265207468652073616d65496e76616c69642043616c6c65723a20496e737572616e63652050726f7669646572506f6c69637920616c72656164792065786973747320666f72207468697320616464726573735072656d69756d3a20302e3031204554482c20496e64656d6e6974793a20302e3032204554482c20436f7665726167653a2045787472656d6520576561746865722044656c6179732028652e672e2c206861696c2c20666c6f6f64696e672c206574632e292e496e73756666696369656e742066756e64733a204d696e696d756d20302e303120455448207265717569726564a26469706673582212200f47854f66d2c56c1fa603a16df80befe0589f1f79088cd2d98a3355b8c00c7764736f6c634300081a0033",
					"opcodes": "PUSH1 0x80 PUSH1 0x40 MSTORE CALLVALUE DUP1 ISZERO PUSH2 0xF JUMPI PUSH0 DUP1 REVERT JUMPDEST POP PUSH1 0x40 MLOAD PUSH2 0x1F54 CODESIZE SUB DUP1 PUSH2 0x1F54 DUP4 CODECOPY DUP2 DUP2 ADD PUSH1 0x40 MSTORE DUP2 ADD SWAP1 PUSH2 0x31 SWAP2 SWAP1 PUSH2 0xDC JUMP JUMPDEST PUSH1 0x1 PUSH0 DUP2 SWAP1 SSTORE POP DUP1 PUSH1 0x1 PUSH0 PUSH2 0x100 EXP DUP2 SLOAD DUP2 PUSH20 0xFFFFFFFFFFFFFFFFFFFFFFFFFFFFFFFFFFFFFFFF MUL NOT AND SWAP1 DUP4 PUSH20 0xFFFFFFFFFFFFFFFFFFFFFFFFFFFFFFFFFFFFFFFF AND MUL OR SWAP1 SSTORE POP POP PUSH2 0x107 JUMP JUMPDEST PUSH0 DUP1 REVERT JUMPDEST PUSH0 PUSH20 0xFFFFFFFFFFFFFFFFFFFFFFFFFFFFFFFFFFFFFFFF DUP3 AND SWAP1 POP SWAP2 SWAP1 POP JUMP JUMPDEST PUSH0 PUSH2 0xAB DUP3 PUSH2 0x82 JUMP JUMPDEST SWAP1 POP SWAP2 SWAP1 POP JUMP JUMPDEST PUSH2 0xBB DUP2 PUSH2 0xA1 JUMP JUMPDEST DUP2 EQ PUSH2 0xC5 JUMPI PUSH0 DUP1 REVERT JUMPDEST POP JUMP JUMPDEST PUSH0 DUP2 MLOAD SWAP1 POP PUSH2 0xD6 DUP2 PUSH2 0xB2 JUMP JUMPDEST SWAP3 SWAP2 POP POP JUMP JUMPDEST PUSH0 PUSH1 0x20 DUP3 DUP5 SUB SLT ISZERO PUSH2 0xF1 JUMPI PUSH2 0xF0 PUSH2 0x7E JUMP JUMPDEST JUMPDEST PUSH0 PUSH2 0xFE DUP5 DUP3 DUP6 ADD PUSH2 0xC8 JUMP JUMPDEST SWAP2 POP POP SWAP3 SWAP2 POP POP JUMP JUMPDEST PUSH2 0x1E40 DUP1 PUSH2 0x114 PUSH0 CODECOPY PUSH0 RETURN INVALID PUSH1 0x80 PUSH1 0x40 MSTORE PUSH1 0x4 CALLDATASIZE LT PUSH2 0x6F JUMPI PUSH0 CALLDATALOAD PUSH1 0xE0 SHR DUP1 PUSH4 0xB6FC3B2A GT PUSH2 0x4D JUMPI DUP1 PUSH4 0xB6FC3B2A EQ PUSH2 0xF9 JUMPI DUP1 PUSH4 0xC160693D EQ PUSH2 0x123 JUMPI DUP1 PUSH4 0xCD95E777 EQ PUSH2 0x14E JUMPI DUP1 PUSH4 0xEA3696CA EQ PUSH2 0x178 JUMPI PUSH2 0x6F JUMP JUMPDEST DUP1 PUSH4 0x5D02ED12 EQ PUSH2 0x73 JUMPI DUP1 PUSH4 0x963163BD EQ PUSH2 0xA4 JUMPI DUP1 PUSH4 0x9955F67C EQ PUSH2 0xCF JUMPI JUMPDEST PUSH0 DUP1 REVERT JUMPDEST PUSH2 0x8D PUSH1 0x4 DUP1 CALLDATASIZE SUB DUP2 ADD SWAP1 PUSH2 0x88 SWAP2 SWAP1 PUSH2 0x136D JUMP JUMPDEST PUSH2 0x1A2 JUMP JUMPDEST PUSH1 0x40 MLOAD PUSH2 0x9B SWAP3 SWAP2 SWAP1 PUSH2 0x150E JUMP JUMPDEST PUSH1 0x40 MLOAD DUP1 SWAP2 SUB SWAP1 RETURN JUMPDEST CALLVALUE DUP1 ISZERO PUSH2 0xAF JUMPI PUSH0 DUP1 REVERT JUMPDEST POP PUSH2 0xB8 PUSH2 0x758 JUMP JUMPDEST PUSH1 0x40 MLOAD PUSH2 0xC6 SWAP3 SWAP2 SWAP1 PUSH2 0x167F JUMP JUMPDEST PUSH1 0x40 MLOAD DUP1 SWAP2 SUB SWAP1 RETURN JUMPDEST CALLVALUE DUP1 ISZERO PUSH2 0xDA JUMPI PUSH0 DUP1 REVERT JUMPDEST POP PUSH2 0xE3 PUSH2 0xC92 JUMP JUMPDEST PUSH1 0x40 MLOAD PUSH2 0xF0 SWAP2 SWAP1 PUSH2 0x16C3 JUMP JUMPDEST PUSH1 0x40 MLOAD DUP1 SWAP2 SUB SWAP1 RETURN JUMPDEST CALLVALUE DUP1 ISZERO PUSH2 0x104 JUMPI PUSH0 DUP1 REVERT JUMPDEST POP PUSH2 0x10D PUSH2 0xCB7 JUMP JUMPDEST PUSH1 0x40 MLOAD PUSH2 0x11A SWAP2 SWAP1 PUSH2 0x16DC JUMP JUMPDEST PUSH1 0x40 MLOAD DUP1 SWAP2 SUB SWAP1 RETURN JUMPDEST CALLVALUE DUP1 ISZERO PUSH2 0x12E JUMPI PUSH0 DUP1 REVERT JUMPDEST POP PUSH2 0x137 PUSH2 0xCD7 JUMP JUMPDEST PUSH1 0x40 MLOAD PUSH2 0x145 SWAP3 SWAP2 SWAP1 PUSH2 0x1873 JUMP JUMPDEST PUSH1 0x40 MLOAD DUP1 SWAP2 SUB SWAP1 RETURN JUMPDEST CALLVALUE DUP1 ISZERO PUSH2 0x159 JUMPI PUSH0 DUP1 REVERT JUMPDEST POP PUSH2 0x162 PUSH2 0x1246 JUMP JUMPDEST PUSH1 0x40 MLOAD PUSH2 0x16F SWAP2 SWAP1 PUSH2 0x18C0 JUMP JUMPDEST PUSH1 0x40 MLOAD DUP1 SWAP2 SUB SWAP1 RETURN JUMPDEST CALLVALUE DUP1 ISZERO PUSH2 0x183 JUMPI PUSH0 DUP1 REVERT JUMPDEST POP PUSH2 0x18C PUSH2 0x1251 JUMP JUMPDEST PUSH1 0x40 MLOAD PUSH2 0x199 SWAP2 SWAP1 PUSH2 0x18C0 JUMP JUMPDEST PUSH1 0x40 MLOAD DUP1 SWAP2 SUB SWAP1 RETURN JUMPDEST PUSH0 PUSH1 0x60 PUSH2 0x1AD PUSH2 0x125C JUMP JUMPDEST PUSH1 0x1 PUSH0 SWAP1 SLOAD SWAP1 PUSH2 0x100 EXP SWAP1 DIV PUSH20 0xFFFFFFFFFFFFFFFFFFFFFFFFFFFFFFFFFFFFFFFF AND PUSH20 0xFFFFFFFFFFFFFFFFFFFFFFFFFFFFFFFFFFFFFFFF AND CALLER PUSH20 0xFFFFFFFFFFFFFFFFFFFFFFFFFFFFFFFFFFFFFFFF AND SUB PUSH2 0x224 JUMPI PUSH0 PUSH1 0x40 MLOAD DUP1 PUSH1 0x60 ADD PUSH1 0x40 MSTORE DUP1 PUSH1 0x22 DUP2 MSTORE PUSH1 0x20 ADD PUSH2 0x1D30 PUSH1 0x22 SWAP2 CODECOPY SWAP2 POP SWAP2 POP PUSH2 0x741 JUMP JUMPDEST PUSH0 PUSH20 0xFFFFFFFFFFFFFFFFFFFFFFFFFFFFFFFFFFFFFFFF AND PUSH1 0x2 PUSH0 CALLER PUSH20 0xFFFFFFFFFFFFFFFFFFFFFFFFFFFFFFFFFFFFFFFF AND PUSH20 0xFFFFFFFFFFFFFFFFFFFFFFFFFFFFFFFFFFFFFFFF AND DUP2 MSTORE PUSH1 0x20 ADD SWAP1 DUP2 MSTORE PUSH1 0x20 ADD PUSH0 KECCAK256 PUSH1 0x1 ADD PUSH0 SWAP1 SLOAD SWAP1 PUSH2 0x100 EXP SWAP1 DIV PUSH20 0xFFFFFFFFFFFFFFFFFFFFFFFFFFFFFFFFFFFFFFFF AND PUSH20 0xFFFFFFFFFFFFFFFFFFFFFFFFFFFFFFFFFFFFFFFF AND EQ PUSH2 0x2D9 JUMPI PUSH0 PUSH1 0x40 MLOAD DUP1 PUSH1 0x60 ADD PUSH1 0x40 MSTORE DUP1 PUSH1 0x26 DUP2 MSTORE PUSH1 0x20 ADD PUSH2 0x1D52 PUSH1 0x26 SWAP2 CODECOPY SWAP2 POP SWAP2 POP PUSH2 0x741 JUMP JUMPDEST DUP4 DUP4 PUSH1 0x40 MLOAD PUSH2 0x2E9 SWAP3 SWAP2 SWAP1 PUSH2 0x1915 JUMP JUMPDEST PUSH1 0x40 MLOAD DUP1 SWAP2 SUB SWAP1 KECCAK256 DUP7 DUP7 PUSH1 0x40 MLOAD PUSH2 0x301 SWAP3 SWAP2 SWAP1 PUSH2 0x1915 JUMP JUMPDEST PUSH1 0x40 MLOAD DUP1 SWAP2 SUB SWAP1 KECCAK256 SUB PUSH2 0x331 JUMPI PUSH0 PUSH1 0x40 MLOAD DUP1 PUSH1 0x60 ADD PUSH1 0x40 MSTORE DUP1 PUSH1 0x33 DUP2 MSTORE PUSH1 0x20 ADD PUSH2 0x1CFD PUSH1 0x33 SWAP2 CODECOPY SWAP2 POP SWAP2 POP PUSH2 0x741 JUMP JUMPDEST PUSH7 0x2386F26FC10000 CALLVALUE LT ISZERO PUSH2 0x363 JUMPI PUSH0 PUSH1 0x40 MLOAD DUP1 PUSH1 0x60 ADD PUSH1 0x40 MSTORE DUP1 PUSH1 0x2D DUP2 MSTORE PUSH1 0x20 ADD PUSH2 0x1DDE PUSH1 0x2D SWAP2 CODECOPY SWAP2 POP SWAP2 POP PUSH2 0x741 JUMP JUMPDEST PUSH1 0x40 MLOAD DUP1 PUSH1 0xE0 ADD PUSH1 0x40 MSTORE DUP1 DUP14 DUP14 DUP1 DUP1 PUSH1 0x1F ADD PUSH1 0x20 DUP1 SWAP2 DIV MUL PUSH1 0x20 ADD PUSH1 0x40 MLOAD SWAP1 DUP2 ADD PUSH1 0x40 MSTORE DUP1 SWAP4 SWAP3 SWAP2 SWAP1 DUP2 DUP2 MSTORE PUSH1 0x20 ADD DUP4 DUP4 DUP1 DUP3 DUP5 CALLDATACOPY PUSH0 DUP2 DUP5 ADD MSTORE PUSH1 0x1F NOT PUSH1 0x1F DUP3 ADD AND SWAP1 POP DUP1 DUP4 ADD SWAP3 POP POP POP POP POP POP POP DUP2 MSTORE PUSH1 0x20 ADD CALLER PUSH20 0xFFFFFFFFFFFFFFFFFFFFFFFFFFFFFFFFFFFFFFFF AND DUP2 MSTORE PUSH1 0x20 ADD DUP12 DUP12 DUP1 DUP1 PUSH1 0x1F ADD PUSH1 0x20 DUP1 SWAP2 DIV MUL PUSH1 0x20 ADD PUSH1 0x40 MLOAD SWAP1 DUP2 ADD PUSH1 0x40 MSTORE DUP1 SWAP4 SWAP3 SWAP2 SWAP1 DUP2 DUP2 MSTORE PUSH1 0x20 ADD DUP4 DUP4 DUP1 DUP3 DUP5 CALLDATACOPY PUSH0 DUP2 DUP5 ADD MSTORE PUSH1 0x1F NOT PUSH1 0x1F DUP3 ADD AND SWAP1 POP DUP1 DUP4 ADD SWAP3 POP POP POP POP POP POP POP DUP2 MSTORE PUSH1 0x20 ADD DUP10 DUP10 DUP1 DUP1 PUSH1 0x1F ADD PUSH1 0x20 DUP1 SWAP2 DIV MUL PUSH1 0x20 ADD PUSH1 0x40 MLOAD SWAP1 DUP2 ADD PUSH1 0x40 MSTORE DUP1 SWAP4 SWAP3 SWAP2 SWAP1 DUP2 DUP2 MSTORE PUSH1 0x20 ADD DUP4 DUP4 DUP1 DUP3 DUP5 CALLDATACOPY PUSH0 DUP2 DUP5 ADD MSTORE PUSH1 0x1F NOT PUSH1 0x1F DUP3 ADD AND SWAP1 POP DUP1 DUP4 ADD SWAP3 POP POP POP POP POP POP POP DUP2 MSTORE PUSH1 0x20 ADD DUP8 DUP8 DUP1 DUP1 PUSH1 0x1F ADD PUSH1 0x20 DUP1 SWAP2 DIV MUL PUSH1 0x20 ADD PUSH1 0x40 MLOAD SWAP1 DUP2 ADD PUSH1 0x40 MSTORE DUP1 SWAP4 SWAP3 SWAP2 SWAP1 DUP2 DUP2 MSTORE PUSH1 0x20 ADD DUP4 DUP4 DUP1 DUP3 DUP5 CALLDATACOPY PUSH0 DUP2 DUP5 ADD MSTORE PUSH1 0x1F NOT PUSH1 0x1F DUP3 ADD AND SWAP1 POP DUP1 DUP4 ADD SWAP3 POP POP POP POP POP POP POP DUP2 MSTORE PUSH1 0x20 ADD DUP6 DUP6 DUP1 DUP1 PUSH1 0x1F ADD PUSH1 0x20 DUP1 SWAP2 DIV MUL PUSH1 0x20 ADD PUSH1 0x40 MLOAD SWAP1 DUP2 ADD PUSH1 0x40 MSTORE DUP1 SWAP4 SWAP3 SWAP2 SWAP1 DUP2 DUP2 MSTORE PUSH1 0x20 ADD DUP4 DUP4 DUP1 DUP3 DUP5 CALLDATACOPY PUSH0 DUP2 DUP5 ADD MSTORE PUSH1 0x1F NOT PUSH1 0x1F DUP3 ADD AND SWAP1 POP DUP1 DUP4 ADD SWAP3 POP POP POP POP POP POP POP DUP2 MSTORE PUSH1 0x20 ADD PUSH1 0x40 MLOAD DUP1 PUSH1 0x40 ADD PUSH1 0x40 MSTORE DUP1 PUSH1 0x9 DUP2 MSTORE PUSH1 0x20 ADD PUSH32 0x7075726368617365640000000000000000000000000000000000000000000000 DUP2 MSTORE POP DUP2 MSTORE POP PUSH1 0x2 PUSH0 CALLER PUSH20 0xFFFFFFFFFFFFFFFFFFFFFFFFFFFFFFFFFFFFFFFF AND PUSH20 0xFFFFFFFFFFFFFFFFFFFFFFFFFFFFFFFFFFFFFFFF AND DUP2 MSTORE PUSH1 0x20 ADD SWAP1 DUP2 MSTORE PUSH1 0x20 ADD PUSH0 KECCAK256 PUSH0 DUP3 ADD MLOAD DUP2 PUSH0 ADD SWAP1 DUP2 PUSH2 0x580 SWAP2 SWAP1 PUSH2 0x1B54 JUMP JUMPDEST POP PUSH1 0x20 DUP3 ADD MLOAD DUP2 PUSH1 0x1 ADD PUSH0 PUSH2 0x100 EXP DUP2 SLOAD DUP2 PUSH20 0xFFFFFFFFFFFFFFFFFFFFFFFFFFFFFFFFFFFFFFFF MUL NOT AND SWAP1 DUP4 PUSH20 0xFFFFFFFFFFFFFFFFFFFFFFFFFFFFFFFFFFFFFFFF AND MUL OR SWAP1 SSTORE POP PUSH1 0x40 DUP3 ADD MLOAD DUP2 PUSH1 0x2 ADD SWAP1 DUP2 PUSH2 0x5DC SWAP2 SWAP1 PUSH2 0x1B54 JUMP JUMPDEST POP PUSH1 0x60 DUP3 ADD MLOAD DUP2 PUSH1 0x3 ADD SWAP1 DUP2 PUSH2 0x5F2 SWAP2 SWAP1 PUSH2 0x1B54 JUMP JUMPDEST POP PUSH1 0x80 DUP3 ADD MLOAD DUP2 PUSH1 0x4 ADD SWAP1 DUP2 PUSH2 0x608 SWAP2 SWAP1 PUSH2 0x1B54 JUMP JUMPDEST POP PUSH1 0xA0 DUP3 ADD MLOAD DUP2 PUSH1 0x5 ADD SWAP1 DUP2 PUSH2 0x61E SWAP2 SWAP1 PUSH2 0x1B54 JUMP JUMPDEST POP PUSH1 0xC0 DUP3 ADD MLOAD DUP2 PUSH1 0x6 ADD SWAP1 DUP2 PUSH2 0x634 SWAP2 SWAP1 PUSH2 0x1B54 JUMP JUMPDEST POP SWAP1 POP POP PUSH1 0x3 CALLER SWAP1 DUP1 PUSH1 0x1 DUP2 SLOAD ADD DUP1 DUP3 SSTORE DUP1 SWAP2 POP POP PUSH1 0x1 SWAP1 SUB SWAP1 PUSH0 MSTORE PUSH1 0x20 PUSH0 KECCAK256 ADD PUSH0 SWAP1 SWAP2 SWAP1 SWAP2 SWAP1 SWAP2 PUSH2 0x100 EXP DUP2 SLOAD DUP2 PUSH20 0xFFFFFFFFFFFFFFFFFFFFFFFFFFFFFFFFFFFFFFFF MUL NOT AND SWAP1 DUP4 PUSH20 0xFFFFFFFFFFFFFFFFFFFFFFFFFFFFFFFFFFFFFFFF AND MUL OR SWAP1 SSTORE POP PUSH1 0x1 PUSH0 SWAP1 SLOAD SWAP1 PUSH2 0x100 EXP SWAP1 DIV PUSH20 0xFFFFFFFFFFFFFFFFFFFFFFFFFFFFFFFFFFFFFFFF AND PUSH20 0xFFFFFFFFFFFFFFFFFFFFFFFFFFFFFFFFFFFFFFFF AND PUSH2 0x8FC PUSH7 0x2386F26FC10000 SWAP1 DUP2 ISZERO MUL SWAP1 PUSH1 0x40 MLOAD PUSH0 PUSH1 0x40 MLOAD DUP1 DUP4 SUB DUP2 DUP6 DUP9 DUP9 CALL SWAP4 POP POP POP POP ISZERO DUP1 ISZERO PUSH2 0x703 JUMPI RETURNDATASIZE PUSH0 DUP1 RETURNDATACOPY RETURNDATASIZE PUSH0 REVERT JUMPDEST POP PUSH1 0x1 PUSH1 0x40 MLOAD DUP1 PUSH1 0x40 ADD PUSH1 0x40 MSTORE DUP1 PUSH1 0x1D DUP2 MSTORE PUSH1 0x20 ADD PUSH32 0x506F6C696379207375636365737366756C6C7920707572636861736564000000 DUP2 MSTORE POP SWAP2 POP SWAP2 POP JUMPDEST PUSH2 0x749 PUSH2 0x12A9 JUMP JUMPDEST SWAP11 POP SWAP11 SWAP9 POP POP POP POP POP POP POP POP POP JUMP JUMPDEST PUSH2 0x760 PUSH2 0x12B2 JUMP JUMPDEST PUSH1 0x60 PUSH0 PUSH1 0x2 PUSH0 CALLER PUSH20 0xFFFFFFFFFFFFFFFFFFFFFFFFFFFFFFFFFFFFFFFF AND PUSH20 0xFFFFFFFFFFFFFFFFFFFFFFFFFFFFFFFFFFFFFFFF AND DUP2 MSTORE PUSH1 0x20 ADD SWAP1 DUP2 MSTORE PUSH1 0x20 ADD PUSH0 KECCAK256 PUSH1 0x40 MLOAD DUP1 PUSH1 0xE0 ADD PUSH1 0x40 MSTORE SWAP1 DUP2 PUSH0 DUP3 ADD DUP1 SLOAD PUSH2 0x7BA SWAP1 PUSH2 0x1987 JUMP JUMPDEST DUP1 PUSH1 0x1F ADD PUSH1 0x20 DUP1 SWAP2 DIV MUL PUSH1 0x20 ADD PUSH1 0x40 MLOAD SWAP1 DUP2 ADD PUSH1 0x40 MSTORE DUP1 SWAP3 SWAP2 SWAP1 DUP2 DUP2 MSTORE PUSH1 0x20 ADD DUP3 DUP1 SLOAD PUSH2 0x7E6 SWAP1 PUSH2 0x1987 JUMP JUMPDEST DUP1 ISZERO PUSH2 0x831 JUMPI DUP1 PUSH1 0x1F LT PUSH2 0x808 JUMPI PUSH2 0x100 DUP1 DUP4 SLOAD DIV MUL DUP4 MSTORE SWAP2 PUSH1 0x20 ADD SWAP2 PUSH2 0x831 JUMP JUMPDEST DUP3 ADD SWAP2 SWAP1 PUSH0 MSTORE PUSH1 0x20 PUSH0 KECCAK256 SWAP1 JUMPDEST DUP2 SLOAD DUP2 MSTORE SWAP1 PUSH1 0x1 ADD SWAP1 PUSH1 0x20 ADD DUP1 DUP4 GT PUSH2 0x814 JUMPI DUP3 SWAP1 SUB PUSH1 0x1F AND DUP3 ADD SWAP2 JUMPDEST POP POP POP POP POP DUP2 MSTORE PUSH1 0x20 ADD PUSH1 0x1 DUP3 ADD PUSH0 SWAP1 SLOAD SWAP1 PUSH2 0x100 EXP SWAP1 DIV PUSH20 0xFFFFFFFFFFFFFFFFFFFFFFFFFFFFFFFFFFFFFFFF AND PUSH20 0xFFFFFFFFFFFFFFFFFFFFFFFFFFFFFFFFFFFFFFFF AND PUSH20 0xFFFFFFFFFFFFFFFFFFFFFFFFFFFFFFFFFFFFFFFF AND DUP2 MSTORE PUSH1 0x20 ADD PUSH1 0x2 DUP3 ADD DUP1 SLOAD PUSH2 0x89F SWAP1 PUSH2 0x1987 JUMP JUMPDEST DUP1 PUSH1 0x1F ADD PUSH1 0x20 DUP1 SWAP2 DIV MUL PUSH1 0x20 ADD PUSH1 0x40 MLOAD SWAP1 DUP2 ADD PUSH1 0x40 MSTORE DUP1 SWAP3 SWAP2 SWAP1 DUP2 DUP2 MSTORE PUSH1 0x20 ADD DUP3 DUP1 SLOAD PUSH2 0x8CB SWAP1 PUSH2 0x1987 JUMP JUMPDEST DUP1 ISZERO PUSH2 0x916 JUMPI DUP1 PUSH1 0x1F LT PUSH2 0x8ED JUMPI PUSH2 0x100 DUP1 DUP4 SLOAD DIV MUL DUP4 MSTORE SWAP2 PUSH1 0x20 ADD SWAP2 PUSH2 0x916 JUMP JUMPDEST DUP3 ADD SWAP2 SWAP1 PUSH0 MSTORE PUSH1 0x20 PUSH0 KECCAK256 SWAP1 JUMPDEST DUP2 SLOAD DUP2 MSTORE SWAP1 PUSH1 0x1 ADD SWAP1 PUSH1 0x20 ADD DUP1 DUP4 GT PUSH2 0x8F9 JUMPI DUP3 SWAP1 SUB PUSH1 0x1F AND DUP3 ADD SWAP2 JUMPDEST POP POP POP POP POP DUP2 MSTORE PUSH1 0x20 ADD PUSH1 0x3 DUP3 ADD DUP1 SLOAD PUSH2 0x92F SWAP1 PUSH2 0x1987 JUMP JUMPDEST DUP1 PUSH1 0x1F ADD PUSH1 0x20 DUP1 SWAP2 DIV MUL PUSH1 0x20 ADD PUSH1 0x40 MLOAD SWAP1 DUP2 ADD PUSH1 0x40 MSTORE DUP1 SWAP3 SWAP2 SWAP1 DUP2 DUP2 MSTORE PUSH1 0x20 ADD DUP3 DUP1 SLOAD PUSH2 0x95B SWAP1 PUSH2 0x1987 JUMP JUMPDEST DUP1 ISZERO PUSH2 0x9A6 JUMPI DUP1 PUSH1 0x1F LT PUSH2 0x97D JUMPI PUSH2 0x100 DUP1 DUP4 SLOAD DIV MUL DUP4 MSTORE SWAP2 PUSH1 0x20 ADD SWAP2 PUSH2 0x9A6 JUMP JUMPDEST DUP3 ADD SWAP2 SWAP1 PUSH0 MSTORE PUSH1 0x20 PUSH0 KECCAK256 SWAP1 JUMPDEST DUP2 SLOAD DUP2 MSTORE SWAP1 PUSH1 0x1 ADD SWAP1 PUSH1 0x20 ADD DUP1 DUP4 GT PUSH2 0x989 JUMPI DUP3 SWAP1 SUB PUSH1 0x1F AND DUP3 ADD SWAP2 JUMPDEST POP POP POP POP POP DUP2 MSTORE PUSH1 0x20 ADD PUSH1 0x4 DUP3 ADD DUP1 SLOAD PUSH2 0x9BF SWAP1 PUSH2 0x1987 JUMP JUMPDEST DUP1 PUSH1 0x1F ADD PUSH1 0x20 DUP1 SWAP2 DIV MUL PUSH1 0x20 ADD PUSH1 0x40 MLOAD SWAP1 DUP2 ADD PUSH1 0x40 MSTORE DUP1 SWAP3 SWAP2 SWAP1 DUP2 DUP2 MSTORE PUSH1 0x20 ADD DUP3 DUP1 SLOAD PUSH2 0x9EB SWAP1 PUSH2 0x1987 JUMP JUMPDEST DUP1 ISZERO PUSH2 0xA36 JUMPI DUP1 PUSH1 0x1F LT PUSH2 0xA0D JUMPI PUSH2 0x100 DUP1 DUP4 SLOAD DIV MUL DUP4 MSTORE SWAP2 PUSH1 0x20 ADD SWAP2 PUSH2 0xA36 JUMP JUMPDEST DUP3 ADD SWAP2 SWAP1 PUSH0 MSTORE PUSH1 0x20 PUSH0 KECCAK256 SWAP1 JUMPDEST DUP2 SLOAD DUP2 MSTORE SWAP1 PUSH1 0x1 ADD SWAP1 PUSH1 0x20 ADD DUP1 DUP4 GT PUSH2 0xA19 JUMPI DUP3 SWAP1 SUB PUSH1 0x1F AND DUP3 ADD SWAP2 JUMPDEST POP POP POP POP POP DUP2 MSTORE PUSH1 0x20 ADD PUSH1 0x5 DUP3 ADD DUP1 SLOAD PUSH2 0xA4F SWAP1 PUSH2 0x1987 JUMP JUMPDEST DUP1 PUSH1 0x1F ADD PUSH1 0x20 DUP1 SWAP2 DIV MUL PUSH1 0x20 ADD PUSH1 0x40 MLOAD SWAP1 DUP2 ADD PUSH1 0x40 MSTORE DUP1 SWAP3 SWAP2 SWAP1 DUP2 DUP2 MSTORE PUSH1 0x20 ADD DUP3 DUP1 SLOAD PUSH2 0xA7B SWAP1 PUSH2 0x1987 JUMP JUMPDEST DUP1 ISZERO PUSH2 0xAC6 JUMPI DUP1 PUSH1 0x1F LT PUSH2 0xA9D JUMPI PUSH2 0x100 DUP1 DUP4 SLOAD DIV MUL DUP4 MSTORE SWAP2 PUSH1 0x20 ADD SWAP2 PUSH2 0xAC6 JUMP JUMPDEST DUP3 ADD SWAP2 SWAP1 PUSH0 MSTORE PUSH1 0x20 PUSH0 KECCAK256 SWAP1 JUMPDEST DUP2 SLOAD DUP2 MSTORE SWAP1 PUSH1 0x1 ADD SWAP1 PUSH1 0x20 ADD DUP1 DUP4 GT PUSH2 0xAA9 JUMPI DUP3 SWAP1 SUB PUSH1 0x1F AND DUP3 ADD SWAP2 JUMPDEST POP POP POP POP POP DUP2 MSTORE PUSH1 0x20 ADD PUSH1 0x6 DUP3 ADD DUP1 SLOAD PUSH2 0xADF SWAP1 PUSH2 0x1987 JUMP JUMPDEST DUP1 PUSH1 0x1F ADD PUSH1 0x20 DUP1 SWAP2 DIV MUL PUSH1 0x20 ADD PUSH1 0x40 MLOAD SWAP1 DUP2 ADD PUSH1 0x40 MSTORE DUP1 SWAP3 SWAP2 SWAP1 DUP2 DUP2 MSTORE PUSH1 0x20 ADD DUP3 DUP1 SLOAD PUSH2 0xB0B SWAP1 PUSH2 0x1987 JUMP JUMPDEST DUP1 ISZERO PUSH2 0xB56 JUMPI DUP1 PUSH1 0x1F LT PUSH2 0xB2D JUMPI PUSH2 0x100 DUP1 DUP4 SLOAD DIV MUL DUP4 MSTORE SWAP2 PUSH1 0x20 ADD SWAP2 PUSH2 0xB56 JUMP JUMPDEST DUP3 ADD SWAP2 SWAP1 PUSH0 MSTORE PUSH1 0x20 PUSH0 KECCAK256 SWAP1 JUMPDEST DUP2 SLOAD DUP2 MSTORE SWAP1 PUSH1 0x1 ADD SWAP1 PUSH1 0x20 ADD DUP1 DUP4 GT PUSH2 0xB39 JUMPI DUP3 SWAP1 SUB PUSH1 0x1F AND DUP3 ADD SWAP2 JUMPDEST POP POP POP POP POP DUP2 MSTORE POP POP SWAP1 POP PUSH1 0x1 PUSH0 SWAP1 SLOAD SWAP1 PUSH2 0x100 EXP SWAP1 DIV PUSH20 0xFFFFFFFFFFFFFFFFFFFFFFFFFFFFFFFFFFFFFFFF AND PUSH20 0xFFFFFFFFFFFFFFFFFFFFFFFFFFFFFFFFFFFFFFFF AND CALLER PUSH20 0xFFFFFFFFFFFFFFFFFFFFFFFFFFFFFFFFFFFFFFFF AND SUB PUSH2 0xBD9 JUMPI DUP1 PUSH1 0x40 MLOAD DUP1 PUSH1 0x60 ADD PUSH1 0x40 MSTORE DUP1 PUSH1 0x22 DUP2 MSTORE PUSH1 0x20 ADD PUSH2 0x1D30 PUSH1 0x22 SWAP2 CODECOPY SWAP3 POP SWAP3 POP POP PUSH2 0xC8E JUMP JUMPDEST PUSH0 PUSH20 0xFFFFFFFFFFFFFFFFFFFFFFFFFFFFFFFFFFFFFFFF AND DUP2 PUSH1 0x20 ADD MLOAD PUSH20 0xFFFFFFFFFFFFFFFFFFFFFFFFFFFFFFFFFFFFFFFF AND SUB PUSH2 0xC51 JUMPI DUP1 PUSH1 0x40 MLOAD DUP1 PUSH1 0x40 ADD PUSH1 0x40 MSTORE DUP1 PUSH1 0xF DUP2 MSTORE PUSH1 0x20 ADD PUSH32 0x4E6F20706F6C69637920666F756E640000000000000000000000000000000000 DUP2 MSTORE POP SWAP3 POP SWAP3 POP POP PUSH2 0xC8E JUMP JUMPDEST DUP1 PUSH1 0x40 MLOAD DUP1 PUSH1 0x40 ADD PUSH1 0x40 MSTORE DUP1 PUSH1 0x1D DUP2 MSTORE PUSH1 0x20 ADD PUSH32 0x506F6C69637920726574726965766564207375636365737366756C6C79000000 DUP2 MSTORE POP SWAP3 POP SWAP3 POP POP JUMPDEST SWAP1 SWAP2 JUMP JUMPDEST PUSH1 0x1 PUSH0 SWAP1 SLOAD SWAP1 PUSH2 0x100 EXP SWAP1 DIV PUSH20 0xFFFFFFFFFFFFFFFFFFFFFFFFFFFFFFFFFFFFFFFF AND DUP2 JUMP JUMPDEST PUSH1 0x60 PUSH1 0x40 MLOAD DUP1 PUSH1 0xA0 ADD PUSH1 0x40 MSTORE DUP1 PUSH1 0x66 DUP2 MSTORE PUSH1 0x20 ADD PUSH2 0x1D78 PUSH1 0x66 SWAP2 CODECOPY SWAP1 POP SWAP1 JUMP JUMPDEST PUSH1 0x60 DUP1 PUSH1 0x1 PUSH0 SWAP1 SLOAD SWAP1 PUSH2 0x100 EXP SWAP1 DIV PUSH20 0xFFFFFFFFFFFFFFFFFFFFFFFFFFFFFFFFFFFFFFFF AND PUSH20 0xFFFFFFFFFFFFFFFFFFFFFFFFFFFFFFFFFFFFFFFF AND CALLER PUSH20 0xFFFFFFFFFFFFFFFFFFFFFFFFFFFFFFFFFFFFFFFF AND EQ PUSH2 0xD54 JUMPI PUSH1 0x60 DUP1 PUSH1 0x40 MLOAD DUP1 PUSH1 0x60 ADD PUSH1 0x40 MSTORE DUP1 PUSH1 0x21 DUP2 MSTORE PUSH1 0x20 ADD PUSH2 0x1CB9 PUSH1 0x21 SWAP2 CODECOPY SWAP3 POP SWAP3 POP POP PUSH2 0x1242 JUMP JUMPDEST PUSH0 PUSH1 0x3 DUP1 SLOAD SWAP1 POP PUSH8 0xFFFFFFFFFFFFFFFF DUP2 GT ISZERO PUSH2 0xD74 JUMPI PUSH2 0xD73 PUSH2 0x192D JUMP JUMPDEST JUMPDEST PUSH1 0x40 MLOAD SWAP1 DUP1 DUP3 MSTORE DUP1 PUSH1 0x20 MUL PUSH1 0x20 ADD DUP3 ADD PUSH1 0x40 MSTORE DUP1 ISZERO PUSH2 0xDAD JUMPI DUP2 PUSH1 0x20 ADD JUMPDEST PUSH2 0xD9A PUSH2 0x12B2 JUMP JUMPDEST DUP2 MSTORE PUSH1 0x20 ADD SWAP1 PUSH1 0x1 SWAP1 SUB SWAP1 DUP2 PUSH2 0xD92 JUMPI SWAP1 POP JUMPDEST POP SWAP1 POP PUSH0 JUMPDEST PUSH1 0x3 DUP1 SLOAD SWAP1 POP DUP2 LT ISZERO PUSH2 0x1221 JUMPI PUSH1 0x2 PUSH0 PUSH1 0x3 DUP4 DUP2 SLOAD DUP2 LT PUSH2 0xDD6 JUMPI PUSH2 0xDD5 PUSH2 0x1C23 JUMP JUMPDEST JUMPDEST SWAP1 PUSH0 MSTORE PUSH1 0x20 PUSH0 KECCAK256 ADD PUSH0 SWAP1 SLOAD SWAP1 PUSH2 0x100 EXP SWAP1 DIV PUSH20 0xFFFFFFFFFFFFFFFFFFFFFFFFFFFFFFFFFFFFFFFF AND PUSH20 0xFFFFFFFFFFFFFFFFFFFFFFFFFFFFFFFFFFFFFFFF AND PUSH20 0xFFFFFFFFFFFFFFFFFFFFFFFFFFFFFFFFFFFFFFFF AND DUP2 MSTORE PUSH1 0x20 ADD SWAP1 DUP2 MSTORE PUSH1 0x20 ADD PUSH0 KECCAK256 PUSH1 0x40 MLOAD DUP1 PUSH1 0xE0 ADD PUSH1 0x40 MSTORE SWAP1 DUP2 PUSH0 DUP3 ADD DUP1 SLOAD PUSH2 0xE51 SWAP1 PUSH2 0x1987 JUMP JUMPDEST DUP1 PUSH1 0x1F ADD PUSH1 0x20 DUP1 SWAP2 DIV MUL PUSH1 0x20 ADD PUSH1 0x40 MLOAD SWAP1 DUP2 ADD PUSH1 0x40 MSTORE DUP1 SWAP3 SWAP2 SWAP1 DUP2 DUP2 MSTORE PUSH1 0x20 ADD DUP3 DUP1 SLOAD PUSH2 0xE7D SWAP1 PUSH2 0x1987 JUMP JUMPDEST DUP1 ISZERO PUSH2 0xEC8 JUMPI DUP1 PUSH1 0x1F LT PUSH2 0xE9F JUMPI PUSH2 0x100 DUP1 DUP4 SLOAD DIV MUL DUP4 MSTORE SWAP2 PUSH1 0x20 ADD SWAP2 PUSH2 0xEC8 JUMP JUMPDEST DUP3 ADD SWAP2 SWAP1 PUSH0 MSTORE PUSH1 0x20 PUSH0 KECCAK256 SWAP1 JUMPDEST DUP2 SLOAD DUP2 MSTORE SWAP1 PUSH1 0x1 ADD SWAP1 PUSH1 0x20 ADD DUP1 DUP4 GT PUSH2 0xEAB JUMPI DUP3 SWAP1 SUB PUSH1 0x1F AND DUP3 ADD SWAP2 JUMPDEST POP POP POP POP POP DUP2 MSTORE PUSH1 0x20 ADD PUSH1 0x1 DUP3 ADD PUSH0 SWAP1 SLOAD SWAP1 PUSH2 0x100 EXP SWAP1 DIV PUSH20 0xFFFFFFFFFFFFFFFFFFFFFFFFFFFFFFFFFFFFFFFF AND PUSH20 0xFFFFFFFFFFFFFFFFFFFFFFFFFFFFFFFFFFFFFFFF AND PUSH20 0xFFFFFFFFFFFFFFFFFFFFFFFFFFFFFFFFFFFFFFFF AND DUP2 MSTORE PUSH1 0x20 ADD PUSH1 0x2 DUP3 ADD DUP1 SLOAD PUSH2 0xF36 SWAP1 PUSH2 0x1987 JUMP JUMPDEST DUP1 PUSH1 0x1F ADD PUSH1 0x20 DUP1 SWAP2 DIV MUL PUSH1 0x20 ADD PUSH1 0x40 MLOAD SWAP1 DUP2 ADD PUSH1 0x40 MSTORE DUP1 SWAP3 SWAP2 SWAP1 DUP2 DUP2 MSTORE PUSH1 0x20 ADD DUP3 DUP1 SLOAD PUSH2 0xF62 SWAP1 PUSH2 0x1987 JUMP JUMPDEST DUP1 ISZERO PUSH2 0xFAD JUMPI DUP1 PUSH1 0x1F LT PUSH2 0xF84 JUMPI PUSH2 0x100 DUP1 DUP4 SLOAD DIV MUL DUP4 MSTORE SWAP2 PUSH1 0x20 ADD SWAP2 PUSH2 0xFAD JUMP JUMPDEST DUP3 ADD SWAP2 SWAP1 PUSH0 MSTORE PUSH1 0x20 PUSH0 KECCAK256 SWAP1 JUMPDEST DUP2 SLOAD DUP2 MSTORE SWAP1 PUSH1 0x1 ADD SWAP1 PUSH1 0x20 ADD DUP1 DUP4 GT PUSH2 0xF90 JUMPI DUP3 SWAP1 SUB PUSH1 0x1F AND DUP3 ADD SWAP2 JUMPDEST POP POP POP POP POP DUP2 MSTORE PUSH1 0x20 ADD PUSH1 0x3 DUP3 ADD DUP1 SLOAD PUSH2 0xFC6 SWAP1 PUSH2 0x1987 JUMP JUMPDEST DUP1 PUSH1 0x1F ADD PUSH1 0x20 DUP1 SWAP2 DIV MUL PUSH1 0x20 ADD PUSH1 0x40 MLOAD SWAP1 DUP2 ADD PUSH1 0x40 MSTORE DUP1 SWAP3 SWAP2 SWAP1 DUP2 DUP2 MSTORE PUSH1 0x20 ADD DUP3 DUP1 SLOAD PUSH2 0xFF2 SWAP1 PUSH2 0x1987 JUMP JUMPDEST DUP1 ISZERO PUSH2 0x103D JUMPI DUP1 PUSH1 0x1F LT PUSH2 0x1014 JUMPI PUSH2 0x100 DUP1 DUP4 SLOAD DIV MUL DUP4 MSTORE SWAP2 PUSH1 0x20 ADD SWAP2 PUSH2 0x103D JUMP JUMPDEST DUP3 ADD SWAP2 SWAP1 PUSH0 MSTORE PUSH1 0x20 PUSH0 KECCAK256 SWAP1 JUMPDEST DUP2 SLOAD DUP2 MSTORE SWAP1 PUSH1 0x1 ADD SWAP1 PUSH1 0x20 ADD DUP1 DUP4 GT PUSH2 0x1020 JUMPI DUP3 SWAP1 SUB PUSH1 0x1F AND DUP3 ADD SWAP2 JUMPDEST POP POP POP POP POP DUP2 MSTORE PUSH1 0x20 ADD PUSH1 0x4 DUP3 ADD DUP1 SLOAD PUSH2 0x1056 SWAP1 PUSH2 0x1987 JUMP JUMPDEST DUP1 PUSH1 0x1F ADD PUSH1 0x20 DUP1 SWAP2 DIV MUL PUSH1 0x20 ADD PUSH1 0x40 MLOAD SWAP1 DUP2 ADD PUSH1 0x40 MSTORE DUP1 SWAP3 SWAP2 SWAP1 DUP2 DUP2 MSTORE PUSH1 0x20 ADD DUP3 DUP1 SLOAD PUSH2 0x1082 SWAP1 PUSH2 0x1987 JUMP JUMPDEST DUP1 ISZERO PUSH2 0x10CD JUMPI DUP1 PUSH1 0x1F LT PUSH2 0x10A4 JUMPI PUSH2 0x100 DUP1 DUP4 SLOAD DIV MUL DUP4 MSTORE SWAP2 PUSH1 0x20 ADD SWAP2 PUSH2 0x10CD JUMP JUMPDEST DUP3 ADD SWAP2 SWAP1 PUSH0 MSTORE PUSH1 0x20 PUSH0 KECCAK256 SWAP1 JUMPDEST DUP2 SLOAD DUP2 MSTORE SWAP1 PUSH1 0x1 ADD SWAP1 PUSH1 0x20 ADD DUP1 DUP4 GT PUSH2 0x10B0 JUMPI DUP3 SWAP1 SUB PUSH1 0x1F AND DUP3 ADD SWAP2 JUMPDEST POP POP POP POP POP DUP2 MSTORE PUSH1 0x20 ADD PUSH1 0x5 DUP3 ADD DUP1 SLOAD PUSH2 0x10E6 SWAP1 PUSH2 0x1987 JUMP JUMPDEST DUP1 PUSH1 0x1F ADD PUSH1 0x20 DUP1 SWAP2 DIV MUL PUSH1 0x20 ADD PUSH1 0x40 MLOAD SWAP1 DUP2 ADD PUSH1 0x40 MSTORE DUP1 SWAP3 SWAP2 SWAP1 DUP2 DUP2 MSTORE PUSH1 0x20 ADD DUP3 DUP1 SLOAD PUSH2 0x1112 SWAP1 PUSH2 0x1987 JUMP JUMPDEST DUP1 ISZERO PUSH2 0x115D JUMPI DUP1 PUSH1 0x1F LT PUSH2 0x1134 JUMPI PUSH2 0x100 DUP1 DUP4 SLOAD DIV MUL DUP4 MSTORE SWAP2 PUSH1 0x20 ADD SWAP2 PUSH2 0x115D JUMP JUMPDEST DUP3 ADD SWAP2 SWAP1 PUSH0 MSTORE PUSH1 0x20 PUSH0 KECCAK256 SWAP1 JUMPDEST DUP2 SLOAD DUP2 MSTORE SWAP1 PUSH1 0x1 ADD SWAP1 PUSH1 0x20 ADD DUP1 DUP4 GT PUSH2 0x1140 JUMPI DUP3 SWAP1 SUB PUSH1 0x1F AND DUP3 ADD SWAP2 JUMPDEST POP POP POP POP POP DUP2 MSTORE PUSH1 0x20 ADD PUSH1 0x6 DUP3 ADD DUP1 SLOAD PUSH2 0x1176 SWAP1 PUSH2 0x1987 JUMP JUMPDEST DUP1 PUSH1 0x1F ADD PUSH1 0x20 DUP1 SWAP2 DIV MUL PUSH1 0x20 ADD PUSH1 0x40 MLOAD SWAP1 DUP2 ADD PUSH1 0x40 MSTORE DUP1 SWAP3 SWAP2 SWAP1 DUP2 DUP2 MSTORE PUSH1 0x20 ADD DUP3 DUP1 SLOAD PUSH2 0x11A2 SWAP1 PUSH2 0x1987 JUMP JUMPDEST DUP1 ISZERO PUSH2 0x11ED JUMPI DUP1 PUSH1 0x1F LT PUSH2 0x11C4 JUMPI PUSH2 0x100 DUP1 DUP4 SLOAD DIV MUL DUP4 MSTORE SWAP2 PUSH1 0x20 ADD SWAP2 PUSH2 0x11ED JUMP JUMPDEST DUP3 ADD SWAP2 SWAP1 PUSH0 MSTORE PUSH1 0x20 PUSH0 KECCAK256 SWAP1 JUMPDEST DUP2 SLOAD DUP2 MSTORE SWAP1 PUSH1 0x1 ADD SWAP1 PUSH1 0x20 ADD DUP1 DUP4 GT PUSH2 0x11D0 JUMPI DUP3 SWAP1 SUB PUSH1 0x1F AND DUP3 ADD SWAP2 JUMPDEST POP POP POP POP POP DUP2 MSTORE POP POP DUP3 DUP3 DUP2 MLOAD DUP2 LT PUSH2 0x1209 JUMPI PUSH2 0x1208 PUSH2 0x1C23 JUMP JUMPDEST JUMPDEST PUSH1 0x20 MUL PUSH1 0x20 ADD ADD DUP2 SWAP1 MSTORE POP DUP1 DUP1 PUSH1 0x1 ADD SWAP2 POP POP PUSH2 0xDB2 JUMP JUMPDEST POP DUP1 PUSH1 0x40 MLOAD DUP1 PUSH1 0x60 ADD PUSH1 0x40 MSTORE DUP1 PUSH1 0x23 DUP2 MSTORE PUSH1 0x20 ADD PUSH2 0x1CDA PUSH1 0x23 SWAP2 CODECOPY SWAP3 POP SWAP3 POP POP JUMPDEST SWAP1 SWAP2 JUMP JUMPDEST PUSH7 0x470DE4DF820000 DUP2 JUMP JUMPDEST PUSH7 0x2386F26FC10000 DUP2 JUMP JUMPDEST PUSH1 0x2 PUSH0 SLOAD SUB PUSH2 0x12A0 JUMPI PUSH1 0x40 MLOAD PUSH32 0x8C379A000000000000000000000000000000000000000000000000000000000 DUP2 MSTORE PUSH1 0x4 ADD PUSH2 0x1297 SWAP1 PUSH2 0x1C9A JUMP JUMPDEST PUSH1 0x40 MLOAD DUP1 SWAP2 SUB SWAP1 REVERT JUMPDEST PUSH1 0x2 PUSH0 DUP2 SWAP1 SSTORE POP JUMP JUMPDEST PUSH1 0x1 PUSH0 DUP2 SWAP1 SSTORE POP JUMP JUMPDEST PUSH1 0x40 MLOAD DUP1 PUSH1 0xE0 ADD PUSH1 0x40 MSTORE DUP1 PUSH1 0x60 DUP2 MSTORE PUSH1 0x20 ADD PUSH0 PUSH20 0xFFFFFFFFFFFFFFFFFFFFFFFFFFFFFFFFFFFFFFFF AND DUP2 MSTORE PUSH1 0x20 ADD PUSH1 0x60 DUP2 MSTORE PUSH1 0x20 ADD PUSH1 0x60 DUP2 MSTORE PUSH1 0x20 ADD PUSH1 0x60 DUP2 MSTORE PUSH1 0x20 ADD PUSH1 0x60 DUP2 MSTORE PUSH1 0x20 ADD PUSH1 0x60 DUP2 MSTORE POP SWAP1 JUMP JUMPDEST PUSH0 DUP1 REVERT JUMPDEST PUSH0 DUP1 REVERT JUMPDEST PUSH0 DUP1 REVERT JUMPDEST PUSH0 DUP1 REVERT JUMPDEST PUSH0 DUP1 REVERT JUMPDEST PUSH0 DUP1 DUP4 PUSH1 0x1F DUP5 ADD SLT PUSH2 0x132D JUMPI PUSH2 0x132C PUSH2 0x130C JUMP JUMPDEST JUMPDEST DUP3 CALLDATALOAD SWAP1 POP PUSH8 0xFFFFFFFFFFFFFFFF DUP2 GT ISZERO PUSH2 0x134A JUMPI PUSH2 0x1349 PUSH2 0x1310 JUMP JUMPDEST JUMPDEST PUSH1 0x20 DUP4 ADD SWAP2 POP DUP4 PUSH1 0x1 DUP3 MUL DUP4 ADD GT ISZERO PUSH2 0x1366 JUMPI PUSH2 0x1365 PUSH2 0x1314 JUMP JUMPDEST JUMPDEST SWAP3 POP SWAP3 SWAP1 POP JUMP JUMPDEST PUSH0 DUP1 PUSH0 DUP1 PUSH0 DUP1 PUSH0 DUP1 PUSH0 DUP1 PUSH1 0xA0 DUP12 DUP14 SUB SLT ISZERO PUSH2 0x138B JUMPI PUSH2 0x138A PUSH2 0x1304 JUMP JUMPDEST JUMPDEST PUSH0 DUP12 ADD CALLDATALOAD PUSH8 0xFFFFFFFFFFFFFFFF DUP2 GT ISZERO PUSH2 0x13A8 JUMPI PUSH2 0x13A7 PUSH2 0x1308 JUMP JUMPDEST JUMPDEST PUSH2 0x13B4 DUP14 DUP3 DUP15 ADD PUSH2 0x1318 JUMP JUMPDEST SWAP11 POP SWAP11 POP POP PUSH1 0x20 DUP12 ADD CALLDATALOAD PUSH8 0xFFFFFFFFFFFFFFFF DUP2 GT ISZERO PUSH2 0x13D7 JUMPI PUSH2 0x13D6 PUSH2 0x1308 JUMP JUMPDEST JUMPDEST PUSH2 0x13E3 DUP14 DUP3 DUP15 ADD PUSH2 0x1318 JUMP JUMPDEST SWAP9 POP SWAP9 POP POP PUSH1 0x40 DUP12 ADD CALLDATALOAD PUSH8 0xFFFFFFFFFFFFFFFF DUP2 GT ISZERO PUSH2 0x1406 JUMPI PUSH2 0x1405 PUSH2 0x1308 JUMP JUMPDEST JUMPDEST PUSH2 0x1412 DUP14 DUP3 DUP15 ADD PUSH2 0x1318 JUMP JUMPDEST SWAP7 POP SWAP7 POP POP PUSH1 0x60 DUP12 ADD CALLDATALOAD PUSH8 0xFFFFFFFFFFFFFFFF DUP2 GT ISZERO PUSH2 0x1435 JUMPI PUSH2 0x1434 PUSH2 0x1308 JUMP JUMPDEST JUMPDEST PUSH2 0x1441 DUP14 DUP3 DUP15 ADD PUSH2 0x1318 JUMP JUMPDEST SWAP5 POP SWAP5 POP POP PUSH1 0x80 DUP12 ADD CALLDATALOAD PUSH8 0xFFFFFFFFFFFFFFFF DUP2 GT ISZERO PUSH2 0x1464 JUMPI PUSH2 0x1463 PUSH2 0x1308 JUMP JUMPDEST JUMPDEST PUSH2 0x1470 DUP14 DUP3 DUP15 ADD PUSH2 0x1318 JUMP JUMPDEST SWAP3 POP SWAP3 POP POP SWAP3 SWAP6 SWAP9 SWAP12 SWAP2 SWAP5 SWAP8 SWAP11 POP SWAP3 SWAP6 SWAP9 POP JUMP JUMPDEST PUSH0 DUP2 ISZERO ISZERO SWAP1 POP SWAP2 SWAP1 POP JUMP JUMPDEST PUSH2 0x1498 DUP2 PUSH2 0x1484 JUMP JUMPDEST DUP3 MSTORE POP POP JUMP JUMPDEST PUSH0 DUP2 MLOAD SWAP1 POP SWAP2 SWAP1 POP JUMP JUMPDEST PUSH0 DUP3 DUP3 MSTORE PUSH1 0x20 DUP3 ADD SWAP1 POP SWAP3 SWAP2 POP POP JUMP JUMPDEST DUP3 DUP2 DUP4 MCOPY PUSH0 DUP4 DUP4 ADD MSTORE POP POP POP JUMP JUMPDEST PUSH0 PUSH1 0x1F NOT PUSH1 0x1F DUP4 ADD AND SWAP1 POP SWAP2 SWAP1 POP JUMP JUMPDEST PUSH0 PUSH2 0x14E0 DUP3 PUSH2 0x149E JUMP JUMPDEST PUSH2 0x14EA DUP2 DUP6 PUSH2 0x14A8 JUMP JUMPDEST SWAP4 POP PUSH2 0x14FA DUP2 DUP6 PUSH1 0x20 DUP7 ADD PUSH2 0x14B8 JUMP JUMPDEST PUSH2 0x1503 DUP2 PUSH2 0x14C6 JUMP JUMPDEST DUP5 ADD SWAP2 POP POP SWAP3 SWAP2 POP POP JUMP JUMPDEST PUSH0 PUSH1 0x40 DUP3 ADD SWAP1 POP PUSH2 0x1521 PUSH0 DUP4 ADD DUP6 PUSH2 0x148F JUMP JUMPDEST DUP2 DUP2 SUB PUSH1 0x20 DUP4 ADD MSTORE PUSH2 0x1533 DUP2 DUP5 PUSH2 0x14D6 JUMP JUMPDEST SWAP1 POP SWAP4 SWAP3 POP POP POP JUMP JUMPDEST PUSH0 DUP3 DUP3 MSTORE PUSH1 0x20 DUP3 ADD SWAP1 POP SWAP3 SWAP2 POP POP JUMP JUMPDEST PUSH0 PUSH2 0x1556 DUP3 PUSH2 0x149E JUMP JUMPDEST PUSH2 0x1560 DUP2 DUP6 PUSH2 0x153C JUMP JUMPDEST SWAP4 POP PUSH2 0x1570 DUP2 DUP6 PUSH1 0x20 DUP7 ADD PUSH2 0x14B8 JUMP JUMPDEST PUSH2 0x1579 DUP2 PUSH2 0x14C6 JUMP JUMPDEST DUP5 ADD SWAP2 POP POP SWAP3 SWAP2 POP POP JUMP JUMPDEST PUSH0 PUSH20 0xFFFFFFFFFFFFFFFFFFFFFFFFFFFFFFFFFFFFFFFF DUP3 AND SWAP1 POP SWAP2 SWAP1 POP JUMP JUMPDEST PUSH0 PUSH2 0x15AD DUP3 PUSH2 0x1584 JUMP JUMPDEST SWAP1 POP SWAP2 SWAP1 POP JUMP JUMPDEST PUSH2 0x15BD DUP2 PUSH2 0x15A3 JUMP JUMPDEST DUP3 MSTORE POP POP JUMP JUMPDEST PUSH0 PUSH1 0xE0 DUP4 ADD PUSH0 DUP4 ADD MLOAD DUP5 DUP3 SUB PUSH0 DUP7 ADD MSTORE PUSH2 0x15DD DUP3 DUP3 PUSH2 0x154C JUMP JUMPDEST SWAP2 POP POP PUSH1 0x20 DUP4 ADD MLOAD PUSH2 0x15F2 PUSH1 0x20 DUP7 ADD DUP3 PUSH2 0x15B4 JUMP JUMPDEST POP PUSH1 0x40 DUP4 ADD MLOAD DUP5 DUP3 SUB PUSH1 0x40 DUP7 ADD MSTORE PUSH2 0x160A DUP3 DUP3 PUSH2 0x154C JUMP JUMPDEST SWAP2 POP POP PUSH1 0x60 DUP4 ADD MLOAD DUP5 DUP3 SUB PUSH1 0x60 DUP7 ADD MSTORE PUSH2 0x1624 DUP3 DUP3 PUSH2 0x154C JUMP JUMPDEST SWAP2 POP POP PUSH1 0x80 DUP4 ADD MLOAD DUP5 DUP3 SUB PUSH1 0x80 DUP7 ADD MSTORE PUSH2 0x163E DUP3 DUP3 PUSH2 0x154C JUMP JUMPDEST SWAP2 POP POP PUSH1 0xA0 DUP4 ADD MLOAD DUP5 DUP3 SUB PUSH1 0xA0 DUP7 ADD MSTORE PUSH2 0x1658 DUP3 DUP3 PUSH2 0x154C JUMP JUMPDEST SWAP2 POP POP PUSH1 0xC0 DUP4 ADD MLOAD DUP5 DUP3 SUB PUSH1 0xC0 DUP7 ADD MSTORE PUSH2 0x1672 DUP3 DUP3 PUSH2 0x154C JUMP JUMPDEST SWAP2 POP POP DUP1 SWAP2 POP POP SWAP3 SWAP2 POP POP JUMP JUMPDEST PUSH0 PUSH1 0x40 DUP3 ADD SWAP1 POP DUP2 DUP2 SUB PUSH0 DUP4 ADD MSTORE PUSH2 0x1697 DUP2 DUP6 PUSH2 0x15C3 JUMP JUMPDEST SWAP1 POP DUP2 DUP2 SUB PUSH1 0x20 DUP4 ADD MSTORE PUSH2 0x16AB DUP2 DUP5 PUSH2 0x14D6 JUMP JUMPDEST SWAP1 POP SWAP4 SWAP3 POP POP POP JUMP JUMPDEST PUSH2 0x16BD DUP2 PUSH2 0x15A3 JUMP JUMPDEST DUP3 MSTORE POP POP JUMP JUMPDEST PUSH0 PUSH1 0x20 DUP3 ADD SWAP1 POP PUSH2 0x16D6 PUSH0 DUP4 ADD DUP5 PUSH2 0x16B4 JUMP JUMPDEST SWAP3 SWAP2 POP POP JUMP JUMPDEST PUSH0 PUSH1 0x20 DUP3 ADD SWAP1 POP DUP2 DUP2 SUB PUSH0 DUP4 ADD MSTORE PUSH2 0x16F4 DUP2 DUP5 PUSH2 0x14D6 JUMP JUMPDEST SWAP1 POP SWAP3 SWAP2 POP POP JUMP JUMPDEST PUSH0 DUP2 MLOAD SWAP1 POP SWAP2 SWAP1 POP JUMP JUMPDEST PUSH0 DUP3 DUP3 MSTORE PUSH1 0x20 DUP3 ADD SWAP1 POP SWAP3 SWAP2 POP POP JUMP JUMPDEST PUSH0 DUP2 SWAP1 POP PUSH1 0x20 DUP3 ADD SWAP1 POP SWAP2 SWAP1 POP JUMP JUMPDEST PUSH0 PUSH1 0xE0 DUP4 ADD PUSH0 DUP4 ADD MLOAD DUP5 DUP3 SUB PUSH0 DUP7 ADD MSTORE PUSH2 0x173F DUP3 DUP3 PUSH2 0x154C JUMP JUMPDEST SWAP2 POP POP PUSH1 0x20 DUP4 ADD MLOAD PUSH2 0x1754 PUSH1 0x20 DUP7 ADD DUP3 PUSH2 0x15B4 JUMP JUMPDEST POP PUSH1 0x40 DUP4 ADD MLOAD DUP5 DUP3 SUB PUSH1 0x40 DUP7 ADD MSTORE PUSH2 0x176C DUP3 DUP3 PUSH2 0x154C JUMP JUMPDEST SWAP2 POP POP PUSH1 0x60 DUP4 ADD MLOAD DUP5 DUP3 SUB PUSH1 0x60 DUP7 ADD MSTORE PUSH2 0x1786 DUP3 DUP3 PUSH2 0x154C JUMP JUMPDEST SWAP2 POP POP PUSH1 0x80 DUP4 ADD MLOAD DUP5 DUP3 SUB PUSH1 0x80 DUP7 ADD MSTORE PUSH2 0x17A0 DUP3 DUP3 PUSH2 0x154C JUMP JUMPDEST SWAP2 POP POP PUSH1 0xA0 DUP4 ADD MLOAD DUP5 DUP3 SUB PUSH1 0xA0 DUP7 ADD MSTORE PUSH2 0x17BA DUP3 DUP3 PUSH2 0x154C JUMP JUMPDEST SWAP2 POP POP PUSH1 0xC0 DUP4 ADD MLOAD DUP5 DUP3 SUB PUSH1 0xC0 DUP7 ADD MSTORE PUSH2 0x17D4 DUP3 DUP3 PUSH2 0x154C JUMP JUMPDEST SWAP2 POP POP DUP1 SWAP2 POP POP SWAP3 SWAP2 POP POP JUMP JUMPDEST PUSH0 PUSH2 0x17EC DUP4 DUP4 PUSH2 0x1725 JUMP JUMPDEST SWAP1 POP SWAP3 SWAP2 POP POP JUMP JUMPDEST PUSH0 PUSH1 0x20 DUP3 ADD SWAP1 POP SWAP2 SWAP1 POP JUMP JUMPDEST PUSH0 PUSH2 0x180A DUP3 PUSH2 0x16FC JUMP JUMPDEST PUSH2 0x1814 DUP2 DUP6 PUSH2 0x1706 JUMP JUMPDEST SWAP4 POP DUP4 PUSH1 0x20 DUP3 MUL DUP6 ADD PUSH2 0x1826 DUP6 PUSH2 0x1716 JUMP JUMPDEST DUP1 PUSH0 JUMPDEST DUP6 DUP2 LT ISZERO PUSH2 0x1861 JUMPI DUP5 DUP5 SUB DUP10 MSTORE DUP2 MLOAD PUSH2 0x1842 DUP6 DUP3 PUSH2 0x17E1 JUMP JUMPDEST SWAP5 POP PUSH2 0x184D DUP4 PUSH2 0x17F4 JUMP JUMPDEST SWAP3 POP PUSH1 0x20 DUP11 ADD SWAP10 POP POP PUSH1 0x1 DUP2 ADD SWAP1 POP PUSH2 0x1829 JUMP JUMPDEST POP DUP3 SWAP8 POP DUP8 SWAP6 POP POP POP POP POP POP SWAP3 SWAP2 POP POP JUMP JUMPDEST PUSH0 PUSH1 0x40 DUP3 ADD SWAP1 POP DUP2 DUP2 SUB PUSH0 DUP4 ADD MSTORE PUSH2 0x188B DUP2 DUP6 PUSH2 0x1800 JUMP JUMPDEST SWAP1 POP DUP2 DUP2 SUB PUSH1 0x20 DUP4 ADD MSTORE PUSH2 0x189F DUP2 DUP5 PUSH2 0x14D6 JUMP JUMPDEST SWAP1 POP SWAP4 SWAP3 POP POP POP JUMP JUMPDEST PUSH0 DUP2 SWAP1 POP SWAP2 SWAP1 POP JUMP JUMPDEST PUSH2 0x18BA DUP2 PUSH2 0x18A8 JUMP JUMPDEST DUP3 MSTORE POP POP JUMP JUMPDEST PUSH0 PUSH1 0x20 DUP3 ADD SWAP1 POP PUSH2 0x18D3 PUSH0 DUP4 ADD DUP5 PUSH2 0x18B1 JUMP JUMPDEST SWAP3 SWAP2 POP POP JUMP JUMPDEST PUSH0 DUP2 SWAP1 POP SWAP3 SWAP2 POP POP JUMP JUMPDEST DUP3 DUP2 DUP4 CALLDATACOPY PUSH0 DUP4 DUP4 ADD MSTORE POP POP POP JUMP JUMPDEST PUSH0 PUSH2 0x18FC DUP4 DUP6 PUSH2 0x18D9 JUMP JUMPDEST SWAP4 POP PUSH2 0x1909 DUP4 DUP6 DUP5 PUSH2 0x18E3 JUMP JUMPDEST DUP3 DUP5 ADD SWAP1 POP SWAP4 SWAP3 POP POP POP JUMP JUMPDEST PUSH0 PUSH2 0x1921 DUP3 DUP5 DUP7 PUSH2 0x18F1 JUMP JUMPDEST SWAP2 POP DUP2 SWAP1 POP SWAP4 SWAP3 POP POP POP JUMP JUMPDEST PUSH32 0x4E487B7100000000000000000000000000000000000000000000000000000000 PUSH0 MSTORE PUSH1 0x41 PUSH1 0x4 MSTORE PUSH1 0x24 PUSH0 REVERT JUMPDEST PUSH32 0x4E487B7100000000000000000000000000000000000000000000000000000000 PUSH0 MSTORE PUSH1 0x22 PUSH1 0x4 MSTORE PUSH1 0x24 PUSH0 REVERT JUMPDEST PUSH0 PUSH1 0x2 DUP3 DIV SWAP1 POP PUSH1 0x1 DUP3 AND DUP1 PUSH2 0x199E JUMPI PUSH1 0x7F DUP3 AND SWAP2 POP JUMPDEST PUSH1 0x20 DUP3 LT DUP2 SUB PUSH2 0x19B1 JUMPI PUSH2 0x19B0 PUSH2 0x195A JUMP JUMPDEST JUMPDEST POP SWAP2 SWAP1 POP JUMP JUMPDEST PUSH0 DUP2 SWAP1 POP DUP2 PUSH0 MSTORE PUSH1 0x20 PUSH0 KECCAK256 SWAP1 POP SWAP2 SWAP1 POP JUMP JUMPDEST PUSH0 PUSH1 0x20 PUSH1 0x1F DUP4 ADD DIV SWAP1 POP SWAP2 SWAP1 POP JUMP JUMPDEST PUSH0 DUP3 DUP3 SHL SWAP1 POP SWAP3 SWAP2 POP POP JUMP JUMPDEST PUSH0 PUSH1 0x8 DUP4 MUL PUSH2 0x1A13 PUSH32 0xFFFFFFFFFFFFFFFFFFFFFFFFFFFFFFFFFFFFFFFFFFFFFFFFFFFFFFFFFFFFFFFF DUP3 PUSH2 0x19D8 JUMP JUMPDEST PUSH2 0x1A1D DUP7 DUP4 PUSH2 0x19D8 JUMP JUMPDEST SWAP6 POP DUP1 NOT DUP5 AND SWAP4 POP DUP1 DUP7 AND DUP5 OR SWAP3 POP POP POP SWAP4 SWAP3 POP POP POP JUMP JUMPDEST PUSH0 DUP2 SWAP1 POP SWAP2 SWAP1 POP JUMP JUMPDEST PUSH0 PUSH2 0x1A58 PUSH2 0x1A53 PUSH2 0x1A4E DUP5 PUSH2 0x18A8 JUMP JUMPDEST PUSH2 0x1A35 JUMP JUMPDEST PUSH2 0x18A8 JUMP JUMPDEST SWAP1 POP SWAP2 SWAP1 POP JUMP JUMPDEST PUSH0 DUP2 SWAP1 POP SWAP2 SWAP1 POP JUMP JUMPDEST PUSH2 0x1A71 DUP4 PUSH2 0x1A3E JUMP JUMPDEST PUSH2 0x1A85 PUSH2 0x1A7D DUP3 PUSH2 0x1A5F JUMP JUMPDEST DUP5 DUP5 SLOAD PUSH2 0x19E4 JUMP JUMPDEST DUP3 SSTORE POP POP POP POP JUMP JUMPDEST PUSH0 SWAP1 JUMP JUMPDEST PUSH2 0x1A99 PUSH2 0x1A8D JUMP JUMPDEST PUSH2 0x1AA4 DUP2 DUP5 DUP5 PUSH2 0x1A68 JUMP JUMPDEST POP POP POP JUMP JUMPDEST JUMPDEST DUP2 DUP2 LT ISZERO PUSH2 0x1AC7 JUMPI PUSH2 0x1ABC PUSH0 DUP3 PUSH2 0x1A91 JUMP JUMPDEST PUSH1 0x1 DUP2 ADD SWAP1 POP PUSH2 0x1AAA JUMP JUMPDEST POP POP JUMP JUMPDEST PUSH1 0x1F DUP3 GT ISZERO PUSH2 0x1B0C JUMPI PUSH2 0x1ADD DUP2 PUSH2 0x19B7 JUMP JUMPDEST PUSH2 0x1AE6 DUP5 PUSH2 0x19C9 JUMP JUMPDEST DUP2 ADD PUSH1 0x20 DUP6 LT ISZERO PUSH2 0x1AF5 JUMPI DUP2 SWAP1 POP JUMPDEST PUSH2 0x1B09 PUSH2 0x1B01 DUP6 PUSH2 0x19C9 JUMP JUMPDEST DUP4 ADD DUP3 PUSH2 0x1AA9 JUMP JUMPDEST POP POP JUMPDEST POP POP POP JUMP JUMPDEST PUSH0 DUP3 DUP3 SHR SWAP1 POP SWAP3 SWAP2 POP POP JUMP JUMPDEST PUSH0 PUSH2 0x1B2C PUSH0 NOT DUP5 PUSH1 0x8 MUL PUSH2 0x1B11 JUMP JUMPDEST NOT DUP1 DUP4 AND SWAP2 POP POP SWAP3 SWAP2 POP POP JUMP JUMPDEST PUSH0 PUSH2 0x1B44 DUP4 DUP4 PUSH2 0x1B1D JUMP JUMPDEST SWAP2 POP DUP3 PUSH1 0x2 MUL DUP3 OR SWAP1 POP SWAP3 SWAP2 POP POP JUMP JUMPDEST PUSH2 0x1B5D DUP3 PUSH2 0x149E JUMP JUMPDEST PUSH8 0xFFFFFFFFFFFFFFFF DUP2 GT ISZERO PUSH2 0x1B76 JUMPI PUSH2 0x1B75 PUSH2 0x192D JUMP JUMPDEST JUMPDEST PUSH2 0x1B80 DUP3 SLOAD PUSH2 0x1987 JUMP JUMPDEST PUSH2 0x1B8B DUP3 DUP3 DUP6 PUSH2 0x1ACB JUMP JUMPDEST PUSH0 PUSH1 0x20 SWAP1 POP PUSH1 0x1F DUP4 GT PUSH1 0x1 DUP2 EQ PUSH2 0x1BBC JUMPI PUSH0 DUP5 ISZERO PUSH2 0x1BAA JUMPI DUP3 DUP8 ADD MLOAD SWAP1 POP JUMPDEST PUSH2 0x1BB4 DUP6 DUP3 PUSH2 0x1B39 JUMP JUMPDEST DUP7 SSTORE POP PUSH2 0x1C1B JUMP JUMPDEST PUSH1 0x1F NOT DUP5 AND PUSH2 0x1BCA DUP7 PUSH2 0x19B7 JUMP JUMPDEST PUSH0 JUMPDEST DUP3 DUP2 LT ISZERO PUSH2 0x1BF1 JUMPI DUP5 DUP10 ADD MLOAD DUP3 SSTORE PUSH1 0x1 DUP3 ADD SWAP2 POP PUSH1 0x20 DUP6 ADD SWAP5 POP PUSH1 0x20 DUP2 ADD SWAP1 POP PUSH2 0x1BCC JUMP JUMPDEST DUP7 DUP4 LT ISZERO PUSH2 0x1C0E JUMPI DUP5 DUP10 ADD MLOAD PUSH2 0x1C0A PUSH1 0x1F DUP10 AND DUP3 PUSH2 0x1B1D JUMP JUMPDEST DUP4 SSTORE POP JUMPDEST PUSH1 0x1 PUSH1 0x2 DUP9 MUL ADD DUP9 SSTORE POP POP POP JUMPDEST POP POP POP POP POP POP JUMP JUMPDEST PUSH32 0x4E487B7100000000000000000000000000000000000000000000000000000000 PUSH0 MSTORE PUSH1 0x32 PUSH1 0x4 MSTORE PUSH1 0x24 PUSH0 REVERT JUMPDEST PUSH32 0x5265656E7472616E637947756172643A207265656E7472616E742063616C6C00 PUSH0 DUP3 ADD MSTORE POP JUMP JUMPDEST PUSH0 PUSH2 0x1C84 PUSH1 0x1F DUP4 PUSH2 0x14A8 JUMP JUMPDEST SWAP2 POP PUSH2 0x1C8F DUP3 PUSH2 0x1C50 JUMP JUMPDEST PUSH1 0x20 DUP3 ADD SWAP1 POP SWAP2 SWAP1 POP JUMP JUMPDEST PUSH0 PUSH1 0x20 DUP3 ADD SWAP1 POP DUP2 DUP2 SUB PUSH0 DUP4 ADD MSTORE PUSH2 0x1CB1 DUP2 PUSH2 0x1C78 JUMP JUMPDEST SWAP1 POP SWAP2 SWAP1 POP JUMP INVALID NUMBER PUSH2 0x6C6C PUSH6 0x72206D757374 KECCAK256 PUSH3 0x652069 PUSH15 0x737572616E63652070726F76696465 PUSH19 0x416C6C20706F6C696369657320726574726965 PUSH23 0x6564207375636365737366756C6C794465706172747572 PUSH6 0x20616E642064 PUSH6 0x7374696E6174 PUSH10 0x6F6E2063697469657320 PUSH4 0x616E6E6F PUSH21 0x206265207468652073616D65496E76616C69642043 PUSH2 0x6C6C PUSH6 0x723A20496E73 PUSH22 0x72616E63652050726F7669646572506F6C6963792061 PUSH13 0x72656164792065786973747320 PUSH7 0x6F722074686973 KECCAK256 PUSH2 0x6464 PUSH19 0x6573735072656D69756D3A20302E3031204554 BASEFEE 0x2C KECCAK256 BLOBHASH PUSH15 0x64656D6E6974793A20302E30322045 SLOAD BASEFEE 0x2C KECCAK256 NUMBER PUSH16 0x7665726167653A2045787472656D6520 JUMPI PUSH6 0x617468657220 PREVRANDAO PUSH6 0x6C6179732028 PUSH6 0x2E672E2C2068 PUSH2 0x696C 0x2C KECCAK256 PUSH7 0x6C6F6F64696E67 0x2C KECCAK256 PUSH6 0x74632E292E49 PUSH15 0x73756666696369656E742066756E64 PUSH20 0x3A204D696E696D756D20302E3031204554482072 PUSH6 0x717569726564 LOG2 PUSH5 0x6970667358 0x22 SLT KECCAK256 0xF SELFBALANCE DUP6 0x4F PUSH7 0xD2C56C1FA603A1 PUSH14 0xF80BEFE0589F1F79088CD2D98A33 SSTORE 0xB8 0xC0 0xC PUSH24 0x64736F6C634300081A003300000000000000000000000000 "
				},
				"gasEstimates": {
					"creation": {
						"codeDepositCost": "1548800",
						"executionCost": "infinite",
						"totalCost": "infinite"
					},
					"external": {
						"INDEMNITY()": "369",
						"PREMIUM()": "391",
						"insuranceProvider()": "2553",
						"purchasePolicy(string,string,string,string,string)": "infinite",
						"viewAllPolicies()": "infinite",
						"viewAvailablePolicy()": "infinite",
						"viewMyPolicy()": "infinite"
					}
				},
				"methodIdentifiers": {
					"INDEMNITY()": "cd95e777",
					"PREMIUM()": "ea3696ca",
					"insuranceProvider()": "9955f67c",
					"purchasePolicy(string,string,string,string,string)": "5d02ed12",
					"viewAllPolicies()": "c160693d",
					"viewAvailablePolicy()": "b6fc3b2a",
					"viewMyPolicy()": "963163bd"
				}
			},
			"storageLayout": {
				"storage": [
					{
						"astId": 10,
						"contract": "FlightInsurance2.sol:FlightInsurance1",
						"label": "_status",
						"offset": 0,
						"slot": "0",
						"type": "t_uint256"
					},
					{
						"astId": 92,
						"contract": "FlightInsurance2.sol:FlightInsurance1",
						"label": "insuranceProvider",
						"offset": 0,
						"slot": "1",
						"type": "t_address"
					},
					{
						"astId": 97,
						"contract": "FlightInsurance2.sol:FlightInsurance1",
						"label": "policiesByAddress",
						"offset": 0,
						"slot": "2",
						"type": "t_mapping(t_address,t_struct(InsurancePolicy)84_storage)"
					},
					{
						"astId": 100,
						"contract": "FlightInsurance2.sol:FlightInsurance1",
						"label": "insuredPassengerList",
						"offset": 0,
						"slot": "3",
						"type": "t_array(t_address)dyn_storage"
					}
				],
				"types": {
					"t_address": {
						"encoding": "inplace",
						"label": "address",
						"numberOfBytes": "20"
					},
					"t_array(t_address)dyn_storage": {
						"base": "t_address",
						"encoding": "dynamic_array",
						"label": "address[]",
						"numberOfBytes": "32"
					},
					"t_mapping(t_address,t_struct(InsurancePolicy)84_storage)": {
						"encoding": "mapping",
						"key": "t_address",
						"label": "mapping(address => struct FlightInsurance1.InsurancePolicy)",
						"numberOfBytes": "32",
						"value": "t_struct(InsurancePolicy)84_storage"
					},
					"t_string_storage": {
						"encoding": "bytes",
						"label": "string",
						"numberOfBytes": "32"
					},
					"t_struct(InsurancePolicy)84_storage": {
						"encoding": "inplace",
						"label": "struct FlightInsurance1.InsurancePolicy",
						"members": [
							{
								"astId": 71,
								"contract": "FlightInsurance2.sol:FlightInsurance1",
								"label": "passengerName",
								"offset": 0,
								"slot": "0",
								"type": "t_string_storage"
							},
							{
								"astId": 73,
								"contract": "FlightInsurance2.sol:FlightInsurance1",
								"label": "passengerAddress",
								"offset": 0,
								"slot": "1",
								"type": "t_address"
							},
							{
								"astId": 75,
								"contract": "FlightInsurance2.sol:FlightInsurance1",
								"label": "flightNumber",
								"offset": 0,
								"slot": "2",
								"type": "t_string_storage"
							},
							{
								"astId": 77,
								"contract": "FlightInsurance2.sol:FlightInsurance1",
								"label": "flightDate",
								"offset": 0,
								"slot": "3",
								"type": "t_string_storage"
							},
							{
								"astId": 79,
								"contract": "FlightInsurance2.sol:FlightInsurance1",
								"label": "departureCity",
								"offset": 0,
								"slot": "4",
								"type": "t_string_storage"
							},
							{
								"astId": 81,
								"contract": "FlightInsurance2.sol:FlightInsurance1",
								"label": "destinationCity",
								"offset": 0,
								"slot": "5",
								"type": "t_string_storage"
							},
							{
								"astId": 83,
								"contract": "FlightInsurance2.sol:FlightInsurance1",
								"label": "policyStatus",
								"offset": 0,
								"slot": "6",
								"type": "t_string_storage"
							}
						],
						"numberOfBytes": "224"
					},
					"t_uint256": {
						"encoding": "inplace",
						"label": "uint256",
						"numberOfBytes": "32"
					}
				}
			},
			"userdoc": {
				"kind": "user",
				"methods": {},
				"version": 1
			}
		}
	}
}