{
	"FlightInsurance2.sol": {
		"FlightInsurance1": {
			"abi": [
				{
					"inputs": [
						{
							"internalType": "address",
							"name": "_insuranceProvider",
							"type": "address"
						}
					],
					"stateMutability": "nonpayable",
					"type": "constructor"
				},
				{
					"inputs": [],
					"name": "INDEMNITY",
					"outputs": [
						{
							"internalType": "uint256",
							"name": "",
							"type": "uint256"
						}
					],
					"stateMutability": "view",
					"type": "function"
				},
				{
					"inputs": [],
					"name": "PREMIUM",
					"outputs": [
						{
							"internalType": "uint256",
							"name": "",
							"type": "uint256"
						}
					],
					"stateMutability": "view",
					"type": "function"
				},
				{
					"inputs": [],
					"name": "claimInsurance",
					"outputs": [],
					"stateMutability": "nonpayable",
					"type": "function"
				},
				{
					"inputs": [],
					"name": "insuranceProvider",
					"outputs": [
						{
							"internalType": "address",
							"name": "",
							"type": "address"
						}
					],
					"stateMutability": "view",
					"type": "function"
				},
				{
					"inputs": [
						{
							"internalType": "string",
							"name": "name",
							"type": "string"
						},
						{
							"internalType": "string",
							"name": "flightNo",
							"type": "string"
						},
						{
							"internalType": "string",
							"name": "date",
							"type": "string"
						},
						{
							"internalType": "string",
							"name": "fromCity",
							"type": "string"
						},
						{
							"internalType": "string",
							"name": "toCity",
							"type": "string"
						}
					],
					"name": "purchasePolicy",
					"outputs": [],
					"stateMutability": "payable",
					"type": "function"
				},
				{
					"inputs": [],
					"name": "viewAllPolicies",
					"outputs": [
						{
							"components": [
								{
									"internalType": "string",
									"name": "passengerName",
									"type": "string"
								},
								{
									"internalType": "address",
									"name": "passengerAddress",
									"type": "address"
								},
								{
									"internalType": "string",
									"name": "flightNumber",
									"type": "string"
								},
								{
									"internalType": "string",
									"name": "flightDate",
									"type": "string"
								},
								{
									"internalType": "string",
									"name": "departureCity",
									"type": "string"
								},
								{
									"internalType": "string",
									"name": "destinationCity",
									"type": "string"
								},
								{
									"internalType": "string",
									"name": "policyStatus",
									"type": "string"
								}
							],
							"internalType": "struct FlightInsurance1.InsurancePolicy[]",
							"name": "",
							"type": "tuple[]"
						}
					],
					"stateMutability": "view",
					"type": "function"
				},
				{
					"inputs": [],
					"name": "viewAvailablePolicy",
					"outputs": [
						{
							"internalType": "string",
							"name": "",
							"type": "string"
						}
					],
					"stateMutability": "pure",
					"type": "function"
				},
				{
					"inputs": [],
					"name": "viewMyPolicy",
					"outputs": [
						{
							"components": [
								{
									"internalType": "string",
									"name": "passengerName",
									"type": "string"
								},
								{
									"internalType": "address",
									"name": "passengerAddress",
									"type": "address"
								},
								{
									"internalType": "string",
									"name": "flightNumber",
									"type": "string"
								},
								{
									"internalType": "string",
									"name": "flightDate",
									"type": "string"
								},
								{
									"internalType": "string",
									"name": "departureCity",
									"type": "string"
								},
								{
									"internalType": "string",
									"name": "destinationCity",
									"type": "string"
								},
								{
									"internalType": "string",
									"name": "policyStatus",
									"type": "string"
								}
							],
							"internalType": "struct FlightInsurance1.InsurancePolicy",
							"name": "",
							"type": "tuple"
						}
					],
					"stateMutability": "view",
					"type": "function"
				}
			],
			"devdoc": {
				"kind": "dev",
				"methods": {},
				"version": 1
			},
			"evm": {
				"assembly": "    /* \"FlightInsurance2.sol\":121:3181  contract FlightInsurance1 is ReentrancyGuard {... */\n  mstore(0x40, 0x80)\n    /* \"FlightInsurance2.sol\":899:994  constructor(address _insuranceProvider) {... */\n  callvalue\n  dup1\n  iszero\n  tag_1\n  jumpi\n  0x00\n  dup1\n  revert\ntag_1:\n  pop\n  mload(0x40)\n  sub(codesize, bytecodeSize)\n  dup1\n  bytecodeSize\n  dup4\n  codecopy\n  dup2\n  dup2\n  add\n  0x40\n  mstore\n  dup2\n  add\n  swap1\n  tag_2\n  swap2\n  swap1\n  tag_3\n  jump\t// in\ntag_2:\n    /* \"@openzeppelin/contracts/security/ReentrancyGuard.sol\":1716:1717  1 */\n  0x01\n    /* \"@openzeppelin/contracts/security/ReentrancyGuard.sol\":1821:1828  _status */\n  0x00\n    /* \"@openzeppelin/contracts/security/ReentrancyGuard.sol\":1821:1843  _status = _NOT_ENTERED */\n  dup2\n  swap1\n  sstore\n  pop\n    /* \"FlightInsurance2.sol\":969:987  _insuranceProvider */\n  dup1\n    /* \"FlightInsurance2.sol\":949:966  insuranceProvider */\n  0x01\n  0x00\n    /* \"FlightInsurance2.sol\":949:987  insuranceProvider = _insuranceProvider */\n  0x0100\n  exp\n  dup2\n  sload\n  dup2\n  0xffffffffffffffffffffffffffffffffffffffff\n  mul\n  not\n  and\n  swap1\n  dup4\n  0xffffffffffffffffffffffffffffffffffffffff\n  and\n  mul\n  or\n  swap1\n  sstore\n  pop\n    /* \"FlightInsurance2.sol\":899:994  constructor(address _insuranceProvider) {... */\n  pop\n    /* \"FlightInsurance2.sol\":121:3181  contract FlightInsurance1 is ReentrancyGuard {... */\n  jump(tag_8)\n    /* \"#utility.yul\":88:205   */\ntag_10:\n    /* \"#utility.yul\":197:198   */\n  0x00\n    /* \"#utility.yul\":194:195   */\n  dup1\n    /* \"#utility.yul\":187:199   */\n  revert\n    /* \"#utility.yul\":334:460   */\ntag_12:\n    /* \"#utility.yul\":371:378   */\n  0x00\n    /* \"#utility.yul\":411:453   */\n  0xffffffffffffffffffffffffffffffffffffffff\n    /* \"#utility.yul\":404:409   */\n  dup3\n    /* \"#utility.yul\":400:454   */\n  and\n    /* \"#utility.yul\":389:454   */\n  swap1\n  pop\n    /* \"#utility.yul\":334:460   */\n  swap2\n  swap1\n  pop\n  jump\t// out\n    /* \"#utility.yul\":466:562   */\ntag_13:\n    /* \"#utility.yul\":503:510   */\n  0x00\n    /* \"#utility.yul\":532:556   */\n  tag_22\n    /* \"#utility.yul\":550:555   */\n  dup3\n    /* \"#utility.yul\":532:556   */\n  tag_12\n  jump\t// in\ntag_22:\n    /* \"#utility.yul\":521:556   */\n  swap1\n  pop\n    /* \"#utility.yul\":466:562   */\n  swap2\n  swap1\n  pop\n  jump\t// out\n    /* \"#utility.yul\":568:690   */\ntag_14:\n    /* \"#utility.yul\":641:665   */\n  tag_24\n    /* \"#utility.yul\":659:664   */\n  dup2\n    /* \"#utility.yul\":641:665   */\n  tag_13\n  jump\t// in\ntag_24:\n    /* \"#utility.yul\":634:639   */\n  dup2\n    /* \"#utility.yul\":631:666   */\n  eq\n    /* \"#utility.yul\":621:684   */\n  tag_25\n  jumpi\n    /* \"#utility.yul\":680:681   */\n  0x00\n    /* \"#utility.yul\":677:678   */\n  dup1\n    /* \"#utility.yul\":670:682   */\n  revert\n    /* \"#utility.yul\":621:684   */\ntag_25:\n    /* \"#utility.yul\":568:690   */\n  pop\n  jump\t// out\n    /* \"#utility.yul\":696:839   */\ntag_15:\n    /* \"#utility.yul\":753:758   */\n  0x00\n    /* \"#utility.yul\":784:790   */\n  dup2\n    /* \"#utility.yul\":778:791   */\n  mload\n    /* \"#utility.yul\":769:791   */\n  swap1\n  pop\n    /* \"#utility.yul\":800:833   */\n  tag_27\n    /* \"#utility.yul\":827:832   */\n  dup2\n    /* \"#utility.yul\":800:833   */\n  tag_14\n  jump\t// in\ntag_27:\n    /* \"#utility.yul\":696:839   */\n  swap3\n  swap2\n  pop\n  pop\n  jump\t// out\n    /* \"#utility.yul\":845:1196   */\ntag_3:\n    /* \"#utility.yul\":915:921   */\n  0x00\n    /* \"#utility.yul\":964:966   */\n  0x20\n    /* \"#utility.yul\":952:961   */\n  dup3\n    /* \"#utility.yul\":943:950   */\n  dup5\n    /* \"#utility.yul\":939:962   */\n  sub\n    /* \"#utility.yul\":935:967   */\n  slt\n    /* \"#utility.yul\":932:1051   */\n  iszero\n  tag_29\n  jumpi\n    /* \"#utility.yul\":970:1049   */\n  tag_30\n  tag_10\n  jump\t// in\ntag_30:\n    /* \"#utility.yul\":932:1051   */\ntag_29:\n    /* \"#utility.yul\":1090:1091   */\n  0x00\n    /* \"#utility.yul\":1115:1179   */\n  tag_31\n    /* \"#utility.yul\":1171:1178   */\n  dup5\n    /* \"#utility.yul\":1162:1168   */\n  dup3\n    /* \"#utility.yul\":1151:1160   */\n  dup6\n    /* \"#utility.yul\":1147:1169   */\n  add\n    /* \"#utility.yul\":1115:1179   */\n  tag_15\n  jump\t// in\ntag_31:\n    /* \"#utility.yul\":1105:1179   */\n  swap2\n  pop\n    /* \"#utility.yul\":1061:1189   */\n  pop\n    /* \"#utility.yul\":845:1196   */\n  swap3\n  swap2\n  pop\n  pop\n  jump\t// out\n    /* \"FlightInsurance2.sol\":121:3181  contract FlightInsurance1 is ReentrancyGuard {... */\ntag_8:\n  dataSize(sub_0)\n  dup1\n  dataOffset(sub_0)\n  0x00\n  codecopy\n  0x00\n  return\nstop\n\nsub_0: assembly {\n        /* \"FlightInsurance2.sol\":121:3181  contract FlightInsurance1 is ReentrancyGuard {... */\n      mstore(0x40, 0x80)\n      jumpi(tag_1, lt(calldatasize, 0x04))\n      shr(0xe0, calldataload(0x00))\n      dup1\n      0xb6fc3b2a\n      gt\n      tag_10\n      jumpi\n      dup1\n      0xb6fc3b2a\n      eq\n      tag_6\n      jumpi\n      dup1\n      0xc160693d\n      eq\n      tag_7\n      jumpi\n      dup1\n      0xcd95e777\n      eq\n      tag_8\n      jumpi\n      dup1\n      0xea3696ca\n      eq\n      tag_9\n      jumpi\n      jump(tag_1)\n    tag_10:\n      dup1\n      0x5d02ed12\n      eq\n      tag_2\n      jumpi\n      dup1\n      0x963163bd\n      eq\n      tag_3\n      jumpi\n      dup1\n      0x9955f67c\n      eq\n      tag_4\n      jumpi\n      dup1\n      0xa75ac608\n      eq\n      tag_5\n      jumpi\n    tag_1:\n      0x00\n      dup1\n      revert\n        /* \"FlightInsurance2.sol\":1279:2142  function purchasePolicy(... */\n    tag_2:\n      tag_11\n      0x04\n      dup1\n      calldatasize\n      sub\n      dup2\n      add\n      swap1\n      tag_12\n      swap2\n      swap1\n      tag_13\n      jump\t// in\n    tag_12:\n      tag_14\n      jump\t// in\n    tag_11:\n      stop\n        /* \"FlightInsurance2.sol\":2195:2417  function viewMyPolicy() external view returns (InsurancePolicy memory) {... */\n    tag_3:\n      callvalue\n      dup1\n      iszero\n      tag_15\n      jumpi\n      0x00\n      dup1\n      revert\n    tag_15:\n      pop\n      tag_16\n      tag_17\n      jump\t// in\n    tag_16:\n      mload(0x40)\n      tag_18\n      swap2\n      swap1\n      tag_19\n      jump\t// in\n    tag_18:\n      mload(0x40)\n      dup1\n      swap2\n      sub\n      swap1\n      return\n        /* \"FlightInsurance2.sol\":601:633  address public insuranceProvider */\n    tag_4:\n      callvalue\n      dup1\n      iszero\n      tag_20\n      jumpi\n      0x00\n      dup1\n      revert\n    tag_20:\n      pop\n      tag_21\n      tag_22\n      jump\t// in\n    tag_21:\n      mload(0x40)\n      tag_23\n      swap2\n      swap1\n      tag_24\n      jump\t// in\n    tag_23:\n      mload(0x40)\n      dup1\n      swap2\n      sub\n      swap1\n      return\n        /* \"FlightInsurance2.sol\":2943:3179  function claimInsurance() external {... */\n    tag_5:\n      callvalue\n      dup1\n      iszero\n      tag_25\n      jumpi\n      0x00\n      dup1\n      revert\n    tag_25:\n      pop\n      tag_26\n      tag_27\n      jump\t// in\n    tag_26:\n      stop\n        /* \"FlightInsurance2.sol\":1037:1204  function viewAvailablePolicy() external pure returns (string memory) {... */\n    tag_6:\n      callvalue\n      dup1\n      iszero\n      tag_28\n      jumpi\n      0x00\n      dup1\n      revert\n    tag_28:\n      pop\n      tag_29\n      tag_30\n      jump\t// in\n    tag_29:\n      mload(0x40)\n      tag_31\n      swap2\n      swap1\n      tag_32\n      jump\t// in\n    tag_31:\n      mload(0x40)\n      dup1\n      swap2\n      sub\n      swap1\n      return\n        /* \"FlightInsurance2.sol\":2482:2865  function viewAllPolicies() external view onlyInsuranceProvider returns (InsurancePolicy[] memory) {... */\n    tag_7:\n      callvalue\n      dup1\n      iszero\n      tag_33\n      jumpi\n      0x00\n      dup1\n      revert\n    tag_33:\n      pop\n      tag_34\n      tag_35\n      jump\t// in\n    tag_34:\n      mload(0x40)\n      tag_36\n      swap2\n      swap1\n      tag_37\n      jump\t// in\n    tag_36:\n      mload(0x40)\n      dup1\n      swap2\n      sub\n      swap1\n      return\n        /* \"FlightInsurance2.sol\":548:594  uint256 public constant INDEMNITY = 0.02 ether */\n    tag_8:\n      callvalue\n      dup1\n      iszero\n      tag_38\n      jumpi\n      0x00\n      dup1\n      revert\n    tag_38:\n      pop\n      tag_39\n      tag_40\n      jump\t// in\n    tag_39:\n      mload(0x40)\n      tag_41\n      swap2\n      swap1\n      tag_42\n      jump\t// in\n    tag_41:\n      mload(0x40)\n      dup1\n      swap2\n      sub\n      swap1\n      return\n        /* \"FlightInsurance2.sol\":498:542  uint256 public constant PREMIUM = 0.01 ether */\n    tag_9:\n      callvalue\n      dup1\n      iszero\n      tag_43\n      jumpi\n      0x00\n      dup1\n      revert\n    tag_43:\n      pop\n      tag_44\n      tag_45\n      jump\t// in\n    tag_44:\n      mload(0x40)\n      tag_46\n      swap2\n      swap1\n      tag_42\n      jump\t// in\n    tag_46:\n      mload(0x40)\n      dup1\n      swap2\n      sub\n      swap1\n      return\n        /* \"FlightInsurance2.sol\":1279:2142  function purchasePolicy(... */\n    tag_14:\n        /* \"@openzeppelin/contracts/security/ReentrancyGuard.sol\":2261:2282  _nonReentrantBefore() */\n      tag_48\n        /* \"@openzeppelin/contracts/security/ReentrancyGuard.sol\":2261:2280  _nonReentrantBefore */\n      tag_49\n        /* \"@openzeppelin/contracts/security/ReentrancyGuard.sol\":2261:2282  _nonReentrantBefore() */\n      jump\t// in\n    tag_48:\n        /* \"FlightInsurance2.sol\":532:542  0.01 ether */\n      0x2386f26fc10000\n        /* \"FlightInsurance2.sol\":1517:1526  msg.value */\n      callvalue\n        /* \"FlightInsurance2.sol\":1517:1537  msg.value == PREMIUM */\n      eq\n        /* \"FlightInsurance2.sol\":1509:1585  require(msg.value == PREMIUM, \"Incorrect premium: must be exactly 0.01 ETH\") */\n      tag_51\n      jumpi\n      mload(0x40)\n      0x08c379a000000000000000000000000000000000000000000000000000000000\n      dup2\n      mstore\n      0x04\n      add\n      tag_52\n      swap1\n      tag_53\n      jump\t// in\n    tag_52:\n      mload(0x40)\n      dup1\n      swap2\n      sub\n      swap1\n      revert\n    tag_51:\n        /* \"FlightInsurance2.sol\":1661:1662  0 */\n      0x00\n        /* \"FlightInsurance2.sol\":1603:1663  policiesByAddress[msg.sender].passengerAddress == address(0) */\n      0xffffffffffffffffffffffffffffffffffffffff\n      and\n        /* \"FlightInsurance2.sol\":1603:1620  policiesByAddress */\n      0x02\n        /* \"FlightInsurance2.sol\":1603:1632  policiesByAddress[msg.sender] */\n      0x00\n        /* \"FlightInsurance2.sol\":1621:1631  msg.sender */\n      caller\n        /* \"FlightInsurance2.sol\":1603:1632  policiesByAddress[msg.sender] */\n      0xffffffffffffffffffffffffffffffffffffffff\n      and\n      0xffffffffffffffffffffffffffffffffffffffff\n      and\n      dup2\n      mstore\n      0x20\n      add\n      swap1\n      dup2\n      mstore\n      0x20\n      add\n      0x00\n      keccak256\n        /* \"FlightInsurance2.sol\":1603:1649  policiesByAddress[msg.sender].passengerAddress */\n      0x01\n      add\n      0x00\n      swap1\n      sload\n      swap1\n      0x0100\n      exp\n      swap1\n      div\n      0xffffffffffffffffffffffffffffffffffffffff\n      and\n        /* \"FlightInsurance2.sol\":1603:1663  policiesByAddress[msg.sender].passengerAddress == address(0) */\n      0xffffffffffffffffffffffffffffffffffffffff\n      and\n      eq\n        /* \"FlightInsurance2.sol\":1595:1706  require(policiesByAddress[msg.sender].passengerAddress == address(0), \"Policy already exists for this address\") */\n      tag_54\n      jumpi\n      mload(0x40)\n      0x08c379a000000000000000000000000000000000000000000000000000000000\n      dup2\n      mstore\n      0x04\n      add\n      tag_55\n      swap1\n      tag_56\n      jump\t// in\n    tag_55:\n      mload(0x40)\n      dup1\n      swap2\n      sub\n      swap1\n      revert\n    tag_54:\n        /* \"FlightInsurance2.sol\":1749:2030  InsurancePolicy({... */\n      mload(0x40)\n      dup1\n      0xe0\n      add\n      0x40\n      mstore\n      dup1\n        /* \"FlightInsurance2.sol\":1794:1798  name */\n      dup12\n      dup12\n        /* \"FlightInsurance2.sol\":1749:2030  InsurancePolicy({... */\n      dup1\n      dup1\n      0x1f\n      add\n      0x20\n      dup1\n      swap2\n      div\n      mul\n      0x20\n      add\n      mload(0x40)\n      swap1\n      dup2\n      add\n      0x40\n      mstore\n      dup1\n      swap4\n      swap3\n      swap2\n      swap1\n      dup2\n      dup2\n      mstore\n      0x20\n      add\n      dup4\n      dup4\n      dup1\n      dup3\n      dup5\n      calldatacopy\n      0x00\n      dup2\n      dup5\n      add\n      mstore\n      not(0x1f)\n      0x1f\n      dup3\n      add\n      and\n      swap1\n      pop\n      dup1\n      dup4\n      add\n      swap3\n      pop\n      pop\n      pop\n      pop\n      pop\n      pop\n      pop\n      dup2\n      mstore\n      0x20\n      add\n        /* \"FlightInsurance2.sol\":1830:1840  msg.sender */\n      caller\n        /* \"FlightInsurance2.sol\":1749:2030  InsurancePolicy({... */\n      0xffffffffffffffffffffffffffffffffffffffff\n      and\n      dup2\n      mstore\n      0x20\n      add\n        /* \"FlightInsurance2.sol\":1868:1876  flightNo */\n      dup10\n      dup10\n        /* \"FlightInsurance2.sol\":1749:2030  InsurancePolicy({... */\n      dup1\n      dup1\n      0x1f\n      add\n      0x20\n      dup1\n      swap2\n      div\n      mul\n      0x20\n      add\n      mload(0x40)\n      swap1\n      dup2\n      add\n      0x40\n      mstore\n      dup1\n      swap4\n      swap3\n      swap2\n      swap1\n      dup2\n      dup2\n      mstore\n      0x20\n      add\n      dup4\n      dup4\n      dup1\n      dup3\n      dup5\n      calldatacopy\n      0x00\n      dup2\n      dup5\n      add\n      mstore\n      not(0x1f)\n      0x1f\n      dup3\n      add\n      and\n      swap1\n      pop\n      dup1\n      dup4\n      add\n      swap3\n      pop\n      pop\n      pop\n      pop\n      pop\n      pop\n      pop\n      dup2\n      mstore\n      0x20\n      add\n        /* \"FlightInsurance2.sol\":1902:1906  date */\n      dup8\n      dup8\n        /* \"FlightInsurance2.sol\":1749:2030  InsurancePolicy({... */\n      dup1\n      dup1\n      0x1f\n      add\n      0x20\n      dup1\n      swap2\n      div\n      mul\n      0x20\n      add\n      mload(0x40)\n      swap1\n      dup2\n      add\n      0x40\n      mstore\n      dup1\n      swap4\n      swap3\n      swap2\n      swap1\n      dup2\n      dup2\n      mstore\n      0x20\n      add\n      dup4\n      dup4\n      dup1\n      dup3\n      dup5\n      calldatacopy\n      0x00\n      dup2\n      dup5\n      add\n      mstore\n      not(0x1f)\n      0x1f\n      dup3\n      add\n      and\n      swap1\n      pop\n      dup1\n      dup4\n      add\n      swap3\n      pop\n      pop\n      pop\n      pop\n      pop\n      pop\n      pop\n      dup2\n      mstore\n      0x20\n      add\n        /* \"FlightInsurance2.sol\":1935:1943  fromCity */\n      dup6\n      dup6\n        /* \"FlightInsurance2.sol\":1749:2030  InsurancePolicy({... */\n      dup1\n      dup1\n      0x1f\n      add\n      0x20\n      dup1\n      swap2\n      div\n      mul\n      0x20\n      add\n      mload(0x40)\n      swap1\n      dup2\n      add\n      0x40\n      mstore\n      dup1\n      swap4\n      swap3\n      swap2\n      swap1\n      dup2\n      dup2\n      mstore\n      0x20\n      add\n      dup4\n      dup4\n      dup1\n      dup3\n      dup5\n      calldatacopy\n      0x00\n      dup2\n      dup5\n      add\n      mstore\n      not(0x1f)\n      0x1f\n      dup3\n      add\n      and\n      swap1\n      pop\n      dup1\n      dup4\n      add\n      swap3\n      pop\n      pop\n      pop\n      pop\n      pop\n      pop\n      pop\n      dup2\n      mstore\n      0x20\n      add\n        /* \"FlightInsurance2.sol\":1974:1980  toCity */\n      dup4\n      dup4\n        /* \"FlightInsurance2.sol\":1749:2030  InsurancePolicy({... */\n      dup1\n      dup1\n      0x1f\n      add\n      0x20\n      dup1\n      swap2\n      div\n      mul\n      0x20\n      add\n      mload(0x40)\n      swap1\n      dup2\n      add\n      0x40\n      mstore\n      dup1\n      swap4\n      swap3\n      swap2\n      swap1\n      dup2\n      dup2\n      mstore\n      0x20\n      add\n      dup4\n      dup4\n      dup1\n      dup3\n      dup5\n      calldatacopy\n      0x00\n      dup2\n      dup5\n      add\n      mstore\n      not(0x1f)\n      0x1f\n      dup3\n      add\n      and\n      swap1\n      pop\n      dup1\n      dup4\n      add\n      swap3\n      pop\n      pop\n      pop\n      pop\n      pop\n      pop\n      pop\n      dup2\n      mstore\n      0x20\n      add\n      mload(0x40)\n      dup1\n      0x40\n      add\n      0x40\n      mstore\n      dup1\n      0x09\n      dup2\n      mstore\n      0x20\n      add\n      0x7075726368617365640000000000000000000000000000000000000000000000\n      dup2\n      mstore\n      pop\n      dup2\n      mstore\n      pop\n        /* \"FlightInsurance2.sol\":1717:1734  policiesByAddress */\n      0x02\n        /* \"FlightInsurance2.sol\":1717:1746  policiesByAddress[msg.sender] */\n      0x00\n        /* \"FlightInsurance2.sol\":1735:1745  msg.sender */\n      caller\n        /* \"FlightInsurance2.sol\":1717:1746  policiesByAddress[msg.sender] */\n      0xffffffffffffffffffffffffffffffffffffffff\n      and\n      0xffffffffffffffffffffffffffffffffffffffff\n      and\n      dup2\n      mstore\n      0x20\n      add\n      swap1\n      dup2\n      mstore\n      0x20\n      add\n      0x00\n      keccak256\n        /* \"FlightInsurance2.sol\":1717:2030  policiesByAddress[msg.sender] = InsurancePolicy({... */\n      0x00\n      dup3\n      add\n      mload\n      dup2\n      0x00\n      add\n      swap1\n      dup2\n      tag_57\n      swap2\n      swap1\n      tag_58\n      jump\t// in\n    tag_57:\n      pop\n      0x20\n      dup3\n      add\n      mload\n      dup2\n      0x01\n      add\n      exp(0x0100, 0x00)\n      dup2\n      sload\n      dup2\n      0xffffffffffffffffffffffffffffffffffffffff\n      mul\n      not\n      and\n      swap1\n      dup4\n      0xffffffffffffffffffffffffffffffffffffffff\n      and\n      mul\n      or\n      swap1\n      sstore\n      pop\n      0x40\n      dup3\n      add\n      mload\n      dup2\n      0x02\n      add\n      swap1\n      dup2\n      tag_59\n      swap2\n      swap1\n      tag_58\n      jump\t// in\n    tag_59:\n      pop\n      0x60\n      dup3\n      add\n      mload\n      dup2\n      0x03\n      add\n      swap1\n      dup2\n      tag_60\n      swap2\n      swap1\n      tag_58\n      jump\t// in\n    tag_60:\n      pop\n      0x80\n      dup3\n      add\n      mload\n      dup2\n      0x04\n      add\n      swap1\n      dup2\n      tag_61\n      swap2\n      swap1\n      tag_58\n      jump\t// in\n    tag_61:\n      pop\n      0xa0\n      dup3\n      add\n      mload\n      dup2\n      0x05\n      add\n      swap1\n      dup2\n      tag_62\n      swap2\n      swap1\n      tag_58\n      jump\t// in\n    tag_62:\n      pop\n      0xc0\n      dup3\n      add\n      mload\n      dup2\n      0x06\n      add\n      swap1\n      dup2\n      tag_63\n      swap2\n      swap1\n      tag_58\n      jump\t// in\n    tag_63:\n      pop\n      swap1\n      pop\n      pop\n        /* \"FlightInsurance2.sol\":2041:2061  insuredPassengerList */\n      0x03\n        /* \"FlightInsurance2.sol\":2067:2077  msg.sender */\n      caller\n        /* \"FlightInsurance2.sol\":2041:2078  insuredPassengerList.push(msg.sender) */\n      swap1\n      dup1\n      0x01\n      dup2\n      sload\n      add\n      dup1\n      dup3\n      sstore\n      dup1\n      swap2\n      pop\n      pop\n      0x01\n      swap1\n      sub\n      swap1\n      0x00\n      mstore\n      keccak256(0x00, 0x20)\n      add\n      0x00\n      swap1\n      swap2\n      swap1\n      swap2\n      swap1\n      swap2\n      0x0100\n      exp\n      dup2\n      sload\n      dup2\n      0xffffffffffffffffffffffffffffffffffffffff\n      mul\n      not\n      and\n      swap1\n      dup4\n      0xffffffffffffffffffffffffffffffffffffffff\n      and\n      mul\n      or\n      swap1\n      sstore\n      pop\n        /* \"FlightInsurance2.sol\":2097:2114  insuranceProvider */\n      0x01\n      0x00\n      swap1\n      sload\n      swap1\n      0x0100\n      exp\n      swap1\n      div\n      0xffffffffffffffffffffffffffffffffffffffff\n      and\n        /* \"FlightInsurance2.sol\":2089:2124  payable(insuranceProvider).transfer */\n      0xffffffffffffffffffffffffffffffffffffffff\n      and\n        /* \"FlightInsurance2.sol\":2089:2135  payable(insuranceProvider).transfer(msg.value) */\n      0x08fc\n        /* \"FlightInsurance2.sol\":2125:2134  msg.value */\n      callvalue\n        /* \"FlightInsurance2.sol\":2089:2135  payable(insuranceProvider).transfer(msg.value) */\n      swap1\n      dup2\n      iszero\n      mul\n      swap1\n      mload(0x40)\n      0x00\n      mload(0x40)\n      dup1\n      dup4\n      sub\n      dup2\n      dup6\n      dup9\n      dup9\n      call\n      swap4\n      pop\n      pop\n      pop\n      pop\n      iszero\n      dup1\n      iszero\n      tag_66\n      jumpi\n      returndatasize\n      0x00\n      dup1\n      returndatacopy\n      revert(0x00, returndatasize)\n    tag_66:\n      pop\n        /* \"@openzeppelin/contracts/security/ReentrancyGuard.sol\":2303:2323  _nonReentrantAfter() */\n      tag_67\n        /* \"@openzeppelin/contracts/security/ReentrancyGuard.sol\":2303:2321  _nonReentrantAfter */\n      tag_68\n        /* \"@openzeppelin/contracts/security/ReentrancyGuard.sol\":2303:2323  _nonReentrantAfter() */\n      jump\t// in\n    tag_67:\n        /* \"FlightInsurance2.sol\":1279:2142  function purchasePolicy(... */\n      pop\n      pop\n      pop\n      pop\n      pop\n      pop\n      pop\n      pop\n      pop\n      pop\n      jump\t// out\n        /* \"FlightInsurance2.sol\":2195:2417  function viewMyPolicy() external view returns (InsurancePolicy memory) {... */\n    tag_17:\n        /* \"FlightInsurance2.sol\":2242:2264  InsurancePolicy memory */\n      tag_69\n      tag_70\n      jump\t// in\n    tag_69:\n        /* \"FlightInsurance2.sol\":2342:2343  0 */\n      0x00\n        /* \"FlightInsurance2.sol\":2284:2344  policiesByAddress[msg.sender].passengerAddress != address(0) */\n      0xffffffffffffffffffffffffffffffffffffffff\n      and\n        /* \"FlightInsurance2.sol\":2284:2301  policiesByAddress */\n      0x02\n        /* \"FlightInsurance2.sol\":2284:2313  policiesByAddress[msg.sender] */\n      0x00\n        /* \"FlightInsurance2.sol\":2302:2312  msg.sender */\n      caller\n        /* \"FlightInsurance2.sol\":2284:2313  policiesByAddress[msg.sender] */\n      0xffffffffffffffffffffffffffffffffffffffff\n      and\n      0xffffffffffffffffffffffffffffffffffffffff\n      and\n      dup2\n      mstore\n      0x20\n      add\n      swap1\n      dup2\n      mstore\n      0x20\n      add\n      0x00\n      keccak256\n        /* \"FlightInsurance2.sol\":2284:2330  policiesByAddress[msg.sender].passengerAddress */\n      0x01\n      add\n      0x00\n      swap1\n      sload\n      swap1\n      0x0100\n      exp\n      swap1\n      div\n      0xffffffffffffffffffffffffffffffffffffffff\n      and\n        /* \"FlightInsurance2.sol\":2284:2344  policiesByAddress[msg.sender].passengerAddress != address(0) */\n      0xffffffffffffffffffffffffffffffffffffffff\n      and\n      sub\n        /* \"FlightInsurance2.sol\":2276:2364  require(policiesByAddress[msg.sender].passengerAddress != address(0), \"No policy found\") */\n      tag_72\n      jumpi\n      mload(0x40)\n      0x08c379a000000000000000000000000000000000000000000000000000000000\n      dup2\n      mstore\n      0x04\n      add\n      tag_73\n      swap1\n      tag_74\n      jump\t// in\n    tag_73:\n      mload(0x40)\n      dup1\n      swap2\n      sub\n      swap1\n      revert\n    tag_72:\n        /* \"FlightInsurance2.sol\":2381:2398  policiesByAddress */\n      0x02\n        /* \"FlightInsurance2.sol\":2381:2410  policiesByAddress[msg.sender] */\n      0x00\n        /* \"FlightInsurance2.sol\":2399:2409  msg.sender */\n      caller\n        /* \"FlightInsurance2.sol\":2381:2410  policiesByAddress[msg.sender] */\n      0xffffffffffffffffffffffffffffffffffffffff\n      and\n      0xffffffffffffffffffffffffffffffffffffffff\n      and\n      dup2\n      mstore\n      0x20\n      add\n      swap1\n      dup2\n      mstore\n      0x20\n      add\n      0x00\n      keccak256\n        /* \"FlightInsurance2.sol\":2374:2410  return policiesByAddress[msg.sender] */\n      mload(0x40)\n      dup1\n      0xe0\n      add\n      0x40\n      mstore\n      swap1\n      dup2\n      0x00\n      dup3\n      add\n      dup1\n      sload\n      tag_75\n      swap1\n      tag_76\n      jump\t// in\n    tag_75:\n      dup1\n      0x1f\n      add\n      0x20\n      dup1\n      swap2\n      div\n      mul\n      0x20\n      add\n      mload(0x40)\n      swap1\n      dup2\n      add\n      0x40\n      mstore\n      dup1\n      swap3\n      swap2\n      swap1\n      dup2\n      dup2\n      mstore\n      0x20\n      add\n      dup3\n      dup1\n      sload\n      tag_77\n      swap1\n      tag_76\n      jump\t// in\n    tag_77:\n      dup1\n      iszero\n      tag_78\n      jumpi\n      dup1\n      0x1f\n      lt\n      tag_79\n      jumpi\n      0x0100\n      dup1\n      dup4\n      sload\n      div\n      mul\n      dup4\n      mstore\n      swap2\n      0x20\n      add\n      swap2\n      jump(tag_78)\n    tag_79:\n      dup3\n      add\n      swap2\n      swap1\n      0x00\n      mstore\n      keccak256(0x00, 0x20)\n      swap1\n    tag_80:\n      dup2\n      sload\n      dup2\n      mstore\n      swap1\n      0x01\n      add\n      swap1\n      0x20\n      add\n      dup1\n      dup4\n      gt\n      tag_80\n      jumpi\n      dup3\n      swap1\n      sub\n      0x1f\n      and\n      dup3\n      add\n      swap2\n    tag_78:\n      pop\n      pop\n      pop\n      pop\n      pop\n      dup2\n      mstore\n      0x20\n      add\n      0x01\n      dup3\n      add\n      0x00\n      swap1\n      sload\n      swap1\n      0x0100\n      exp\n      swap1\n      div\n      0xffffffffffffffffffffffffffffffffffffffff\n      and\n      0xffffffffffffffffffffffffffffffffffffffff\n      and\n      0xffffffffffffffffffffffffffffffffffffffff\n      and\n      dup2\n      mstore\n      0x20\n      add\n      0x02\n      dup3\n      add\n      dup1\n      sload\n      tag_81\n      swap1\n      tag_76\n      jump\t// in\n    tag_81:\n      dup1\n      0x1f\n      add\n      0x20\n      dup1\n      swap2\n      div\n      mul\n      0x20\n      add\n      mload(0x40)\n      swap1\n      dup2\n      add\n      0x40\n      mstore\n      dup1\n      swap3\n      swap2\n      swap1\n      dup2\n      dup2\n      mstore\n      0x20\n      add\n      dup3\n      dup1\n      sload\n      tag_82\n      swap1\n      tag_76\n      jump\t// in\n    tag_82:\n      dup1\n      iszero\n      tag_83\n      jumpi\n      dup1\n      0x1f\n      lt\n      tag_84\n      jumpi\n      0x0100\n      dup1\n      dup4\n      sload\n      div\n      mul\n      dup4\n      mstore\n      swap2\n      0x20\n      add\n      swap2\n      jump(tag_83)\n    tag_84:\n      dup3\n      add\n      swap2\n      swap1\n      0x00\n      mstore\n      keccak256(0x00, 0x20)\n      swap1\n    tag_85:\n      dup2\n      sload\n      dup2\n      mstore\n      swap1\n      0x01\n      add\n      swap1\n      0x20\n      add\n      dup1\n      dup4\n      gt\n      tag_85\n      jumpi\n      dup3\n      swap1\n      sub\n      0x1f\n      and\n      dup3\n      add\n      swap2\n    tag_83:\n      pop\n      pop\n      pop\n      pop\n      pop\n      dup2\n      mstore\n      0x20\n      add\n      0x03\n      dup3\n      add\n      dup1\n      sload\n      tag_86\n      swap1\n      tag_76\n      jump\t// in\n    tag_86:\n      dup1\n      0x1f\n      add\n      0x20\n      dup1\n      swap2\n      div\n      mul\n      0x20\n      add\n      mload(0x40)\n      swap1\n      dup2\n      add\n      0x40\n      mstore\n      dup1\n      swap3\n      swap2\n      swap1\n      dup2\n      dup2\n      mstore\n      0x20\n      add\n      dup3\n      dup1\n      sload\n      tag_87\n      swap1\n      tag_76\n      jump\t// in\n    tag_87:\n      dup1\n      iszero\n      tag_88\n      jumpi\n      dup1\n      0x1f\n      lt\n      tag_89\n      jumpi\n      0x0100\n      dup1\n      dup4\n      sload\n      div\n      mul\n      dup4\n      mstore\n      swap2\n      0x20\n      add\n      swap2\n      jump(tag_88)\n    tag_89:\n      dup3\n      add\n      swap2\n      swap1\n      0x00\n      mstore\n      keccak256(0x00, 0x20)\n      swap1\n    tag_90:\n      dup2\n      sload\n      dup2\n      mstore\n      swap1\n      0x01\n      add\n      swap1\n      0x20\n      add\n      dup1\n      dup4\n      gt\n      tag_90\n      jumpi\n      dup3\n      swap1\n      sub\n      0x1f\n      and\n      dup3\n      add\n      swap2\n    tag_88:\n      pop\n      pop\n      pop\n      pop\n      pop\n      dup2\n      mstore\n      0x20\n      add\n      0x04\n      dup3\n      add\n      dup1\n      sload\n      tag_91\n      swap1\n      tag_76\n      jump\t// in\n    tag_91:\n      dup1\n      0x1f\n      add\n      0x20\n      dup1\n      swap2\n      div\n      mul\n      0x20\n      add\n      mload(0x40)\n      swap1\n      dup2\n      add\n      0x40\n      mstore\n      dup1\n      swap3\n      swap2\n      swap1\n      dup2\n      dup2\n      mstore\n      0x20\n      add\n      dup3\n      dup1\n      sload\n      tag_92\n      swap1\n      tag_76\n      jump\t// in\n    tag_92:\n      dup1\n      iszero\n      tag_93\n      jumpi\n      dup1\n      0x1f\n      lt\n      tag_94\n      jumpi\n      0x0100\n      dup1\n      dup4\n      sload\n      div\n      mul\n      dup4\n      mstore\n      swap2\n      0x20\n      add\n      swap2\n      jump(tag_93)\n    tag_94:\n      dup3\n      add\n      swap2\n      swap1\n      0x00\n      mstore\n      keccak256(0x00, 0x20)\n      swap1\n    tag_95:\n      dup2\n      sload\n      dup2\n      mstore\n      swap1\n      0x01\n      add\n      swap1\n      0x20\n      add\n      dup1\n      dup4\n      gt\n      tag_95\n      jumpi\n      dup3\n      swap1\n      sub\n      0x1f\n      and\n      dup3\n      add\n      swap2\n    tag_93:\n      pop\n      pop\n      pop\n      pop\n      pop\n      dup2\n      mstore\n      0x20\n      add\n      0x05\n      dup3\n      add\n      dup1\n      sload\n      tag_96\n      swap1\n      tag_76\n      jump\t// in\n    tag_96:\n      dup1\n      0x1f\n      add\n      0x20\n      dup1\n      swap2\n      div\n      mul\n      0x20\n      add\n      mload(0x40)\n      swap1\n      dup2\n      add\n      0x40\n      mstore\n      dup1\n      swap3\n      swap2\n      swap1\n      dup2\n      dup2\n      mstore\n      0x20\n      add\n      dup3\n      dup1\n      sload\n      tag_97\n      swap1\n      tag_76\n      jump\t// in\n    tag_97:\n      dup1\n      iszero\n      tag_98\n      jumpi\n      dup1\n      0x1f\n      lt\n      tag_99\n      jumpi\n      0x0100\n      dup1\n      dup4\n      sload\n      div\n      mul\n      dup4\n      mstore\n      swap2\n      0x20\n      add\n      swap2\n      jump(tag_98)\n    tag_99:\n      dup3\n      add\n      swap2\n      swap1\n      0x00\n      mstore\n      keccak256(0x00, 0x20)\n      swap1\n    tag_100:\n      dup2\n      sload\n      dup2\n      mstore\n      swap1\n      0x01\n      add\n      swap1\n      0x20\n      add\n      dup1\n      dup4\n      gt\n      tag_100\n      jumpi\n      dup3\n      swap1\n      sub\n      0x1f\n      and\n      dup3\n      add\n      swap2\n    tag_98:\n      pop\n      pop\n      pop\n      pop\n      pop\n      dup2\n      mstore\n      0x20\n      add\n      0x06\n      dup3\n      add\n      dup1\n      sload\n      tag_101\n      swap1\n      tag_76\n      jump\t// in\n    tag_101:\n      dup1\n      0x1f\n      add\n      0x20\n      dup1\n      swap2\n      div\n      mul\n      0x20\n      add\n      mload(0x40)\n      swap1\n      dup2\n      add\n      0x40\n      mstore\n      dup1\n      swap3\n      swap2\n      swap1\n      dup2\n      dup2\n      mstore\n      0x20\n      add\n      dup3\n      dup1\n      sload\n      tag_102\n      swap1\n      tag_76\n      jump\t// in\n    tag_102:\n      dup1\n      iszero\n      tag_103\n      jumpi\n      dup1\n      0x1f\n      lt\n      tag_104\n      jumpi\n      0x0100\n      dup1\n      dup4\n      sload\n      div\n      mul\n      dup4\n      mstore\n      swap2\n      0x20\n      add\n      swap2\n      jump(tag_103)\n    tag_104:\n      dup3\n      add\n      swap2\n      swap1\n      0x00\n      mstore\n      keccak256(0x00, 0x20)\n      swap1\n    tag_105:\n      dup2\n      sload\n      dup2\n      mstore\n      swap1\n      0x01\n      add\n      swap1\n      0x20\n      add\n      dup1\n      dup4\n      gt\n      tag_105\n      jumpi\n      dup3\n      swap1\n      sub\n      0x1f\n      and\n      dup3\n      add\n      swap2\n    tag_103:\n      pop\n      pop\n      pop\n      pop\n      pop\n      dup2\n      mstore\n      pop\n      pop\n      swap1\n      pop\n        /* \"FlightInsurance2.sol\":2195:2417  function viewMyPolicy() external view returns (InsurancePolicy memory) {... */\n      swap1\n      jump\t// out\n        /* \"FlightInsurance2.sol\":601:633  address public insuranceProvider */\n    tag_22:\n      0x01\n      0x00\n      swap1\n      sload\n      swap1\n      0x0100\n      exp\n      swap1\n      div\n      0xffffffffffffffffffffffffffffffffffffffff\n      and\n      dup2\n      jump\t// out\n        /* \"FlightInsurance2.sol\":2943:3179  function claimInsurance() external {... */\n    tag_27:\n      jump\t// out\n        /* \"FlightInsurance2.sol\":1037:1204  function viewAvailablePolicy() external pure returns (string memory) {... */\n    tag_30:\n        /* \"FlightInsurance2.sol\":1091:1104  string memory */\n      0x60\n        /* \"FlightInsurance2.sol\":1116:1197  return \"Premium: 0.01 ETH, Indemnity: 0.02 ETH, Coverage: Hail and flood delays.\" */\n      mload(0x40)\n      dup1\n      0x80\n      add\n      0x40\n      mstore\n      dup1\n      0x48\n      dup2\n      mstore\n      0x20\n      add\n      data_4bf159073bada66d17cc3712fc1cee9f2cec69077a4c742fbfa958c93dc4231d\n      0x48\n      swap2\n      codecopy\n      swap1\n      pop\n        /* \"FlightInsurance2.sol\":1037:1204  function viewAvailablePolicy() external pure returns (string memory) {... */\n      swap1\n      jump\t// out\n        /* \"FlightInsurance2.sol\":2482:2865  function viewAllPolicies() external view onlyInsuranceProvider returns (InsurancePolicy[] memory) {... */\n    tag_35:\n        /* \"FlightInsurance2.sol\":2554:2578  InsurancePolicy[] memory */\n      0x60\n        /* \"FlightInsurance2.sol\":817:834  insuranceProvider */\n      0x01\n      0x00\n      swap1\n      sload\n      swap1\n      0x0100\n      exp\n      swap1\n      div\n      0xffffffffffffffffffffffffffffffffffffffff\n      and\n        /* \"FlightInsurance2.sol\":803:834  msg.sender == insuranceProvider */\n      0xffffffffffffffffffffffffffffffffffffffff\n      and\n        /* \"FlightInsurance2.sol\":803:813  msg.sender */\n      caller\n        /* \"FlightInsurance2.sol\":803:834  msg.sender == insuranceProvider */\n      0xffffffffffffffffffffffffffffffffffffffff\n      and\n      eq\n        /* \"FlightInsurance2.sol\":795:875  require(msg.sender == insuranceProvider, \"Caller is not the insurance provider\") */\n      tag_109\n      jumpi\n      mload(0x40)\n      0x08c379a000000000000000000000000000000000000000000000000000000000\n      dup2\n      mstore\n      0x04\n      add\n      tag_110\n      swap1\n      tag_111\n      jump\t// in\n    tag_110:\n      mload(0x40)\n      dup1\n      swap2\n      sub\n      swap1\n      revert\n    tag_109:\n        /* \"FlightInsurance2.sol\":2590:2626  InsurancePolicy[] memory allPolicies */\n      0x00\n        /* \"FlightInsurance2.sol\":2651:2671  insuredPassengerList */\n      0x03\n        /* \"FlightInsurance2.sol\":2651:2678  insuredPassengerList.length */\n      dup1\n      sload\n      swap1\n      pop\n        /* \"FlightInsurance2.sol\":2629:2679  new InsurancePolicy[](insuredPassengerList.length) */\n      0xffffffffffffffff\n      dup2\n      gt\n      iszero\n      tag_113\n      jumpi\n      tag_114\n      tag_115\n      jump\t// in\n    tag_114:\n    tag_113:\n      mload(0x40)\n      swap1\n      dup1\n      dup3\n      mstore\n      dup1\n      0x20\n      mul\n      0x20\n      add\n      dup3\n      add\n      0x40\n      mstore\n      dup1\n      iszero\n      tag_116\n      jumpi\n      dup2\n      0x20\n      add\n    tag_117:\n      tag_118\n      tag_70\n      jump\t// in\n    tag_118:\n      dup2\n      mstore\n      0x20\n      add\n      swap1\n      0x01\n      swap1\n      sub\n      swap1\n      dup2\n      tag_117\n      jumpi\n      swap1\n      pop\n    tag_116:\n      pop\n        /* \"FlightInsurance2.sol\":2590:2679  InsurancePolicy[] memory allPolicies = new InsurancePolicy[](insuredPassengerList.length) */\n      swap1\n      pop\n        /* \"FlightInsurance2.sol\":2694:2703  uint256 i */\n      0x00\n        /* \"FlightInsurance2.sol\":2689:2831  for (uint256 i = 0; i < insuredPassengerList.length; i++) {... */\n    tag_119:\n        /* \"FlightInsurance2.sol\":2713:2733  insuredPassengerList */\n      0x03\n        /* \"FlightInsurance2.sol\":2713:2740  insuredPassengerList.length */\n      dup1\n      sload\n      swap1\n      pop\n        /* \"FlightInsurance2.sol\":2709:2710  i */\n      dup2\n        /* \"FlightInsurance2.sol\":2709:2740  i < insuredPassengerList.length */\n      lt\n        /* \"FlightInsurance2.sol\":2689:2831  for (uint256 i = 0; i < insuredPassengerList.length; i++) {... */\n      iszero\n      tag_120\n      jumpi\n        /* \"FlightInsurance2.sol\":2778:2795  policiesByAddress */\n      0x02\n        /* \"FlightInsurance2.sol\":2778:2820  policiesByAddress[insuredPassengerList[i]] */\n      0x00\n        /* \"FlightInsurance2.sol\":2796:2816  insuredPassengerList */\n      0x03\n        /* \"FlightInsurance2.sol\":2817:2818  i */\n      dup4\n        /* \"FlightInsurance2.sol\":2796:2819  insuredPassengerList[i] */\n      dup2\n      sload\n      dup2\n      lt\n      tag_122\n      jumpi\n      tag_123\n      tag_124\n      jump\t// in\n    tag_123:\n    tag_122:\n      swap1\n      0x00\n      mstore\n      keccak256(0x00, 0x20)\n      add\n      0x00\n      swap1\n      sload\n      swap1\n      0x0100\n      exp\n      swap1\n      div\n      0xffffffffffffffffffffffffffffffffffffffff\n      and\n        /* \"FlightInsurance2.sol\":2778:2820  policiesByAddress[insuredPassengerList[i]] */\n      0xffffffffffffffffffffffffffffffffffffffff\n      and\n      0xffffffffffffffffffffffffffffffffffffffff\n      and\n      dup2\n      mstore\n      0x20\n      add\n      swap1\n      dup2\n      mstore\n      0x20\n      add\n      0x00\n      keccak256\n        /* \"FlightInsurance2.sol\":2761:2820  allPolicies[i] = policiesByAddress[insuredPassengerList[i]] */\n      mload(0x40)\n      dup1\n      0xe0\n      add\n      0x40\n      mstore\n      swap1\n      dup2\n      0x00\n      dup3\n      add\n      dup1\n      sload\n      tag_126\n      swap1\n      tag_76\n      jump\t// in\n    tag_126:\n      dup1\n      0x1f\n      add\n      0x20\n      dup1\n      swap2\n      div\n      mul\n      0x20\n      add\n      mload(0x40)\n      swap1\n      dup2\n      add\n      0x40\n      mstore\n      dup1\n      swap3\n      swap2\n      swap1\n      dup2\n      dup2\n      mstore\n      0x20\n      add\n      dup3\n      dup1\n      sload\n      tag_127\n      swap1\n      tag_76\n      jump\t// in\n    tag_127:\n      dup1\n      iszero\n      tag_128\n      jumpi\n      dup1\n      0x1f\n      lt\n      tag_129\n      jumpi\n      0x0100\n      dup1\n      dup4\n      sload\n      div\n      mul\n      dup4\n      mstore\n      swap2\n      0x20\n      add\n      swap2\n      jump(tag_128)\n    tag_129:\n      dup3\n      add\n      swap2\n      swap1\n      0x00\n      mstore\n      keccak256(0x00, 0x20)\n      swap1\n    tag_130:\n      dup2\n      sload\n      dup2\n      mstore\n      swap1\n      0x01\n      add\n      swap1\n      0x20\n      add\n      dup1\n      dup4\n      gt\n      tag_130\n      jumpi\n      dup3\n      swap1\n      sub\n      0x1f\n      and\n      dup3\n      add\n      swap2\n    tag_128:\n      pop\n      pop\n      pop\n      pop\n      pop\n      dup2\n      mstore\n      0x20\n      add\n      0x01\n      dup3\n      add\n      0x00\n      swap1\n      sload\n      swap1\n      0x0100\n      exp\n      swap1\n      div\n      0xffffffffffffffffffffffffffffffffffffffff\n      and\n      0xffffffffffffffffffffffffffffffffffffffff\n      and\n      0xffffffffffffffffffffffffffffffffffffffff\n      and\n      dup2\n      mstore\n      0x20\n      add\n      0x02\n      dup3\n      add\n      dup1\n      sload\n      tag_131\n      swap1\n      tag_76\n      jump\t// in\n    tag_131:\n      dup1\n      0x1f\n      add\n      0x20\n      dup1\n      swap2\n      div\n      mul\n      0x20\n      add\n      mload(0x40)\n      swap1\n      dup2\n      add\n      0x40\n      mstore\n      dup1\n      swap3\n      swap2\n      swap1\n      dup2\n      dup2\n      mstore\n      0x20\n      add\n      dup3\n      dup1\n      sload\n      tag_132\n      swap1\n      tag_76\n      jump\t// in\n    tag_132:\n      dup1\n      iszero\n      tag_133\n      jumpi\n      dup1\n      0x1f\n      lt\n      tag_134\n      jumpi\n      0x0100\n      dup1\n      dup4\n      sload\n      div\n      mul\n      dup4\n      mstore\n      swap2\n      0x20\n      add\n      swap2\n      jump(tag_133)\n    tag_134:\n      dup3\n      add\n      swap2\n      swap1\n      0x00\n      mstore\n      keccak256(0x00, 0x20)\n      swap1\n    tag_135:\n      dup2\n      sload\n      dup2\n      mstore\n      swap1\n      0x01\n      add\n      swap1\n      0x20\n      add\n      dup1\n      dup4\n      gt\n      tag_135\n      jumpi\n      dup3\n      swap1\n      sub\n      0x1f\n      and\n      dup3\n      add\n      swap2\n    tag_133:\n      pop\n      pop\n      pop\n      pop\n      pop\n      dup2\n      mstore\n      0x20\n      add\n      0x03\n      dup3\n      add\n      dup1\n      sload\n      tag_136\n      swap1\n      tag_76\n      jump\t// in\n    tag_136:\n      dup1\n      0x1f\n      add\n      0x20\n      dup1\n      swap2\n      div\n      mul\n      0x20\n      add\n      mload(0x40)\n      swap1\n      dup2\n      add\n      0x40\n      mstore\n      dup1\n      swap3\n      swap2\n      swap1\n      dup2\n      dup2\n      mstore\n      0x20\n      add\n      dup3\n      dup1\n      sload\n      tag_137\n      swap1\n      tag_76\n      jump\t// in\n    tag_137:\n      dup1\n      iszero\n      tag_138\n      jumpi\n      dup1\n      0x1f\n      lt\n      tag_139\n      jumpi\n      0x0100\n      dup1\n      dup4\n      sload\n      div\n      mul\n      dup4\n      mstore\n      swap2\n      0x20\n      add\n      swap2\n      jump(tag_138)\n    tag_139:\n      dup3\n      add\n      swap2\n      swap1\n      0x00\n      mstore\n      keccak256(0x00, 0x20)\n      swap1\n    tag_140:\n      dup2\n      sload\n      dup2\n      mstore\n      swap1\n      0x01\n      add\n      swap1\n      0x20\n      add\n      dup1\n      dup4\n      gt\n      tag_140\n      jumpi\n      dup3\n      swap1\n      sub\n      0x1f\n      and\n      dup3\n      add\n      swap2\n    tag_138:\n      pop\n      pop\n      pop\n      pop\n      pop\n      dup2\n      mstore\n      0x20\n      add\n      0x04\n      dup3\n      add\n      dup1\n      sload\n      tag_141\n      swap1\n      tag_76\n      jump\t// in\n    tag_141:\n      dup1\n      0x1f\n      add\n      0x20\n      dup1\n      swap2\n      div\n      mul\n      0x20\n      add\n      mload(0x40)\n      swap1\n      dup2\n      add\n      0x40\n      mstore\n      dup1\n      swap3\n      swap2\n      swap1\n      dup2\n      dup2\n      mstore\n      0x20\n      add\n      dup3\n      dup1\n      sload\n      tag_142\n      swap1\n      tag_76\n      jump\t// in\n    tag_142:\n      dup1\n      iszero\n      tag_143\n      jumpi\n      dup1\n      0x1f\n      lt\n      tag_144\n      jumpi\n      0x0100\n      dup1\n      dup4\n      sload\n      div\n      mul\n      dup4\n      mstore\n      swap2\n      0x20\n      add\n      swap2\n      jump(tag_143)\n    tag_144:\n      dup3\n      add\n      swap2\n      swap1\n      0x00\n      mstore\n      keccak256(0x00, 0x20)\n      swap1\n    tag_145:\n      dup2\n      sload\n      dup2\n      mstore\n      swap1\n      0x01\n      add\n      swap1\n      0x20\n      add\n      dup1\n      dup4\n      gt\n      tag_145\n      jumpi\n      dup3\n      swap1\n      sub\n      0x1f\n      and\n      dup3\n      add\n      swap2\n    tag_143:\n      pop\n      pop\n      pop\n      pop\n      pop\n      dup2\n      mstore\n      0x20\n      add\n      0x05\n      dup3\n      add\n      dup1\n      sload\n      tag_146\n      swap1\n      tag_76\n      jump\t// in\n    tag_146:\n      dup1\n      0x1f\n      add\n      0x20\n      dup1\n      swap2\n      div\n      mul\n      0x20\n      add\n      mload(0x40)\n      swap1\n      dup2\n      add\n      0x40\n      mstore\n      dup1\n      swap3\n      swap2\n      swap1\n      dup2\n      dup2\n      mstore\n      0x20\n      add\n      dup3\n      dup1\n      sload\n      tag_147\n      swap1\n      tag_76\n      jump\t// in\n    tag_147:\n      dup1\n      iszero\n      tag_148\n      jumpi\n      dup1\n      0x1f\n      lt\n      tag_149\n      jumpi\n      0x0100\n      dup1\n      dup4\n      sload\n      div\n      mul\n      dup4\n      mstore\n      swap2\n      0x20\n      add\n      swap2\n      jump(tag_148)\n    tag_149:\n      dup3\n      add\n      swap2\n      swap1\n      0x00\n      mstore\n      keccak256(0x00, 0x20)\n      swap1\n    tag_150:\n      dup2\n      sload\n      dup2\n      mstore\n      swap1\n      0x01\n      add\n      swap1\n      0x20\n      add\n      dup1\n      dup4\n      gt\n      tag_150\n      jumpi\n      dup3\n      swap1\n      sub\n      0x1f\n      and\n      dup3\n      add\n      swap2\n    tag_148:\n      pop\n      pop\n      pop\n      pop\n      pop\n      dup2\n      mstore\n      0x20\n      add\n      0x06\n      dup3\n      add\n      dup1\n      sload\n      tag_151\n      swap1\n      tag_76\n      jump\t// in\n    tag_151:\n      dup1\n      0x1f\n      add\n      0x20\n      dup1\n      swap2\n      div\n      mul\n      0x20\n      add\n      mload(0x40)\n      swap1\n      dup2\n      add\n      0x40\n      mstore\n      dup1\n      swap3\n      swap2\n      swap1\n      dup2\n      dup2\n      mstore\n      0x20\n      add\n      dup3\n      dup1\n      sload\n      tag_152\n      swap1\n      tag_76\n      jump\t// in\n    tag_152:\n      dup1\n      iszero\n      tag_153\n      jumpi\n      dup1\n      0x1f\n      lt\n      tag_154\n      jumpi\n      0x0100\n      dup1\n      dup4\n      sload\n      div\n      mul\n      dup4\n      mstore\n      swap2\n      0x20\n      add\n      swap2\n      jump(tag_153)\n    tag_154:\n      dup3\n      add\n      swap2\n      swap1\n      0x00\n      mstore\n      keccak256(0x00, 0x20)\n      swap1\n    tag_155:\n      dup2\n      sload\n      dup2\n      mstore\n      swap1\n      0x01\n      add\n      swap1\n      0x20\n      add\n      dup1\n      dup4\n      gt\n      tag_155\n      jumpi\n      dup3\n      swap1\n      sub\n      0x1f\n      and\n      dup3\n      add\n      swap2\n    tag_153:\n      pop\n      pop\n      pop\n      pop\n      pop\n      dup2\n      mstore\n      pop\n      pop\n        /* \"FlightInsurance2.sol\":2761:2772  allPolicies */\n      dup3\n        /* \"FlightInsurance2.sol\":2773:2774  i */\n      dup3\n        /* \"FlightInsurance2.sol\":2761:2775  allPolicies[i] */\n      dup2\n      mload\n      dup2\n      lt\n      tag_156\n      jumpi\n      tag_157\n      tag_124\n      jump\t// in\n    tag_157:\n    tag_156:\n      0x20\n      mul\n      0x20\n      add\n      add\n        /* \"FlightInsurance2.sol\":2761:2820  allPolicies[i] = policiesByAddress[insuredPassengerList[i]] */\n      dup2\n      swap1\n      mstore\n      pop\n        /* \"FlightInsurance2.sol\":2742:2745  i++ */\n      dup1\n      dup1\n      0x01\n      add\n      swap2\n      pop\n      pop\n        /* \"FlightInsurance2.sol\":2689:2831  for (uint256 i = 0; i < insuredPassengerList.length; i++) {... */\n      jump(tag_119)\n    tag_120:\n      pop\n        /* \"FlightInsurance2.sol\":2847:2858  allPolicies */\n      dup1\n        /* \"FlightInsurance2.sol\":2840:2858  return allPolicies */\n      swap2\n      pop\n      pop\n        /* \"FlightInsurance2.sol\":2482:2865  function viewAllPolicies() external view onlyInsuranceProvider returns (InsurancePolicy[] memory) {... */\n      swap1\n      jump\t// out\n        /* \"FlightInsurance2.sol\":548:594  uint256 public constant INDEMNITY = 0.02 ether */\n    tag_40:\n        /* \"FlightInsurance2.sol\":584:594  0.02 ether */\n      0x470de4df820000\n        /* \"FlightInsurance2.sol\":548:594  uint256 public constant INDEMNITY = 0.02 ether */\n      dup2\n      jump\t// out\n        /* \"FlightInsurance2.sol\":498:542  uint256 public constant PREMIUM = 0.01 ether */\n    tag_45:\n        /* \"FlightInsurance2.sol\":532:542  0.01 ether */\n      0x2386f26fc10000\n        /* \"FlightInsurance2.sol\":498:542  uint256 public constant PREMIUM = 0.01 ether */\n      dup2\n      jump\t// out\n        /* \"@openzeppelin/contracts/security/ReentrancyGuard.sol\":2336:2623  function _nonReentrantBefore() private {... */\n    tag_49:\n        /* \"@openzeppelin/contracts/security/ReentrancyGuard.sol\":1759:1760  2 */\n      0x02\n        /* \"@openzeppelin/contracts/security/ReentrancyGuard.sol\":2468:2475  _status */\n      sload(0x00)\n        /* \"@openzeppelin/contracts/security/ReentrancyGuard.sol\":2468:2487  _status != _ENTERED */\n      sub\n        /* \"@openzeppelin/contracts/security/ReentrancyGuard.sol\":2460:2523  require(_status != _ENTERED, \"ReentrancyGuard: reentrant call\") */\n      tag_159\n      jumpi\n      mload(0x40)\n      0x08c379a000000000000000000000000000000000000000000000000000000000\n      dup2\n      mstore\n      0x04\n      add\n      tag_160\n      swap1\n      tag_161\n      jump\t// in\n    tag_160:\n      mload(0x40)\n      dup1\n      swap2\n      sub\n      swap1\n      revert\n    tag_159:\n        /* \"@openzeppelin/contracts/security/ReentrancyGuard.sol\":1759:1760  2 */\n      0x02\n        /* \"@openzeppelin/contracts/security/ReentrancyGuard.sol\":2598:2605  _status */\n      0x00\n        /* \"@openzeppelin/contracts/security/ReentrancyGuard.sol\":2598:2616  _status = _ENTERED */\n      dup2\n      swap1\n      sstore\n      pop\n        /* \"@openzeppelin/contracts/security/ReentrancyGuard.sol\":2336:2623  function _nonReentrantBefore() private {... */\n      jump\t// out\n        /* \"@openzeppelin/contracts/security/ReentrancyGuard.sol\":2629:2838  function _nonReentrantAfter() private {... */\n    tag_68:\n        /* \"@openzeppelin/contracts/security/ReentrancyGuard.sol\":1716:1717  1 */\n      0x01\n        /* \"@openzeppelin/contracts/security/ReentrancyGuard.sol\":2809:2816  _status */\n      0x00\n        /* \"@openzeppelin/contracts/security/ReentrancyGuard.sol\":2809:2831  _status = _NOT_ENTERED */\n      dup2\n      swap1\n      sstore\n      pop\n        /* \"@openzeppelin/contracts/security/ReentrancyGuard.sol\":2629:2838  function _nonReentrantAfter() private {... */\n      jump\t// out\n    tag_70:\n      mload(0x40)\n      dup1\n      0xe0\n      add\n      0x40\n      mstore\n      dup1\n      0x60\n      dup2\n      mstore\n      0x20\n      add\n      and(0xffffffffffffffffffffffffffffffffffffffff, 0x00)\n      dup2\n      mstore\n      0x20\n      add\n      0x60\n      dup2\n      mstore\n      0x20\n      add\n      0x60\n      dup2\n      mstore\n      0x20\n      add\n      0x60\n      dup2\n      mstore\n      0x20\n      add\n      0x60\n      dup2\n      mstore\n      0x20\n      add\n      0x60\n      dup2\n      mstore\n      pop\n      swap1\n      jump\t// out\n        /* \"#utility.yul\":88:205   */\n    tag_164:\n        /* \"#utility.yul\":197:198   */\n      0x00\n        /* \"#utility.yul\":194:195   */\n      dup1\n        /* \"#utility.yul\":187:199   */\n      revert\n        /* \"#utility.yul\":211:328   */\n    tag_165:\n        /* \"#utility.yul\":320:321   */\n      0x00\n        /* \"#utility.yul\":317:318   */\n      dup1\n        /* \"#utility.yul\":310:322   */\n      revert\n        /* \"#utility.yul\":334:451   */\n    tag_166:\n        /* \"#utility.yul\":443:444   */\n      0x00\n        /* \"#utility.yul\":440:441   */\n      dup1\n        /* \"#utility.yul\":433:445   */\n      revert\n        /* \"#utility.yul\":457:574   */\n    tag_167:\n        /* \"#utility.yul\":566:567   */\n      0x00\n        /* \"#utility.yul\":563:564   */\n      dup1\n        /* \"#utility.yul\":556:568   */\n      revert\n        /* \"#utility.yul\":580:697   */\n    tag_168:\n        /* \"#utility.yul\":689:690   */\n      0x00\n        /* \"#utility.yul\":686:687   */\n      dup1\n        /* \"#utility.yul\":679:691   */\n      revert\n        /* \"#utility.yul\":717:1270   */\n    tag_169:\n        /* \"#utility.yul\":775:783   */\n      0x00\n        /* \"#utility.yul\":785:791   */\n      dup1\n        /* \"#utility.yul\":835:838   */\n      dup4\n        /* \"#utility.yul\":828:832   */\n      0x1f\n        /* \"#utility.yul\":820:826   */\n      dup5\n        /* \"#utility.yul\":816:833   */\n      add\n        /* \"#utility.yul\":812:839   */\n      slt\n        /* \"#utility.yul\":802:924   */\n      tag_225\n      jumpi\n        /* \"#utility.yul\":843:922   */\n      tag_226\n      tag_166\n      jump\t// in\n    tag_226:\n        /* \"#utility.yul\":802:924   */\n    tag_225:\n        /* \"#utility.yul\":956:962   */\n      dup3\n        /* \"#utility.yul\":943:963   */\n      calldataload\n        /* \"#utility.yul\":933:963   */\n      swap1\n      pop\n        /* \"#utility.yul\":986:1004   */\n      0xffffffffffffffff\n        /* \"#utility.yul\":978:984   */\n      dup2\n        /* \"#utility.yul\":975:1005   */\n      gt\n        /* \"#utility.yul\":972:1089   */\n      iszero\n      tag_227\n      jumpi\n        /* \"#utility.yul\":1008:1087   */\n      tag_228\n      tag_167\n      jump\t// in\n    tag_228:\n        /* \"#utility.yul\":972:1089   */\n    tag_227:\n        /* \"#utility.yul\":1122:1126   */\n      0x20\n        /* \"#utility.yul\":1114:1120   */\n      dup4\n        /* \"#utility.yul\":1110:1127   */\n      add\n        /* \"#utility.yul\":1098:1127   */\n      swap2\n      pop\n        /* \"#utility.yul\":1176:1179   */\n      dup4\n        /* \"#utility.yul\":1168:1172   */\n      0x01\n        /* \"#utility.yul\":1160:1166   */\n      dup3\n        /* \"#utility.yul\":1156:1173   */\n      mul\n        /* \"#utility.yul\":1146:1154   */\n      dup4\n        /* \"#utility.yul\":1142:1174   */\n      add\n        /* \"#utility.yul\":1139:1180   */\n      gt\n        /* \"#utility.yul\":1136:1264   */\n      iszero\n      tag_229\n      jumpi\n        /* \"#utility.yul\":1183:1262   */\n      tag_230\n      tag_168\n      jump\t// in\n    tag_230:\n        /* \"#utility.yul\":1136:1264   */\n    tag_229:\n        /* \"#utility.yul\":717:1270   */\n      swap3\n      pop\n      swap3\n      swap1\n      pop\n      jump\t// out\n        /* \"#utility.yul\":1276:3187   */\n    tag_13:\n        /* \"#utility.yul\":1431:1437   */\n      0x00\n        /* \"#utility.yul\":1439:1445   */\n      dup1\n        /* \"#utility.yul\":1447:1453   */\n      0x00\n        /* \"#utility.yul\":1455:1461   */\n      dup1\n        /* \"#utility.yul\":1463:1469   */\n      0x00\n        /* \"#utility.yul\":1471:1477   */\n      dup1\n        /* \"#utility.yul\":1479:1485   */\n      0x00\n        /* \"#utility.yul\":1487:1493   */\n      dup1\n        /* \"#utility.yul\":1495:1501   */\n      0x00\n        /* \"#utility.yul\":1503:1509   */\n      dup1\n        /* \"#utility.yul\":1552:1555   */\n      0xa0\n        /* \"#utility.yul\":1540:1549   */\n      dup12\n        /* \"#utility.yul\":1531:1538   */\n      dup14\n        /* \"#utility.yul\":1527:1550   */\n      sub\n        /* \"#utility.yul\":1523:1556   */\n      slt\n        /* \"#utility.yul\":1520:1640   */\n      iszero\n      tag_232\n      jumpi\n        /* \"#utility.yul\":1559:1638   */\n      tag_233\n      tag_164\n      jump\t// in\n    tag_233:\n        /* \"#utility.yul\":1520:1640   */\n    tag_232:\n        /* \"#utility.yul\":1707:1708   */\n      0x00\n        /* \"#utility.yul\":1696:1705   */\n      dup12\n        /* \"#utility.yul\":1692:1709   */\n      add\n        /* \"#utility.yul\":1679:1710   */\n      calldataload\n        /* \"#utility.yul\":1737:1755   */\n      0xffffffffffffffff\n        /* \"#utility.yul\":1729:1735   */\n      dup2\n        /* \"#utility.yul\":1726:1756   */\n      gt\n        /* \"#utility.yul\":1723:1840   */\n      iszero\n      tag_234\n      jumpi\n        /* \"#utility.yul\":1759:1838   */\n      tag_235\n      tag_165\n      jump\t// in\n    tag_235:\n        /* \"#utility.yul\":1723:1840   */\n    tag_234:\n        /* \"#utility.yul\":1872:1937   */\n      tag_236\n        /* \"#utility.yul\":1929:1936   */\n      dup14\n        /* \"#utility.yul\":1920:1926   */\n      dup3\n        /* \"#utility.yul\":1909:1918   */\n      dup15\n        /* \"#utility.yul\":1905:1927   */\n      add\n        /* \"#utility.yul\":1872:1937   */\n      tag_169\n      jump\t// in\n    tag_236:\n        /* \"#utility.yul\":1854:1937   */\n      swap11\n      pop\n      swap11\n      pop\n        /* \"#utility.yul\":1650:1947   */\n      pop\n        /* \"#utility.yul\":2014:2016   */\n      0x20\n        /* \"#utility.yul\":2003:2012   */\n      dup12\n        /* \"#utility.yul\":1999:2017   */\n      add\n        /* \"#utility.yul\":1986:2018   */\n      calldataload\n        /* \"#utility.yul\":2045:2063   */\n      0xffffffffffffffff\n        /* \"#utility.yul\":2037:2043   */\n      dup2\n        /* \"#utility.yul\":2034:2064   */\n      gt\n        /* \"#utility.yul\":2031:2148   */\n      iszero\n      tag_237\n      jumpi\n        /* \"#utility.yul\":2067:2146   */\n      tag_238\n      tag_165\n      jump\t// in\n    tag_238:\n        /* \"#utility.yul\":2031:2148   */\n    tag_237:\n        /* \"#utility.yul\":2180:2245   */\n      tag_239\n        /* \"#utility.yul\":2237:2244   */\n      dup14\n        /* \"#utility.yul\":2228:2234   */\n      dup3\n        /* \"#utility.yul\":2217:2226   */\n      dup15\n        /* \"#utility.yul\":2213:2235   */\n      add\n        /* \"#utility.yul\":2180:2245   */\n      tag_169\n      jump\t// in\n    tag_239:\n        /* \"#utility.yul\":2162:2245   */\n      swap9\n      pop\n      swap9\n      pop\n        /* \"#utility.yul\":1957:2255   */\n      pop\n        /* \"#utility.yul\":2322:2324   */\n      0x40\n        /* \"#utility.yul\":2311:2320   */\n      dup12\n        /* \"#utility.yul\":2307:2325   */\n      add\n        /* \"#utility.yul\":2294:2326   */\n      calldataload\n        /* \"#utility.yul\":2353:2371   */\n      0xffffffffffffffff\n        /* \"#utility.yul\":2345:2351   */\n      dup2\n        /* \"#utility.yul\":2342:2372   */\n      gt\n        /* \"#utility.yul\":2339:2456   */\n      iszero\n      tag_240\n      jumpi\n        /* \"#utility.yul\":2375:2454   */\n      tag_241\n      tag_165\n      jump\t// in\n    tag_241:\n        /* \"#utility.yul\":2339:2456   */\n    tag_240:\n        /* \"#utility.yul\":2488:2553   */\n      tag_242\n        /* \"#utility.yul\":2545:2552   */\n      dup14\n        /* \"#utility.yul\":2536:2542   */\n      dup3\n        /* \"#utility.yul\":2525:2534   */\n      dup15\n        /* \"#utility.yul\":2521:2543   */\n      add\n        /* \"#utility.yul\":2488:2553   */\n      tag_169\n      jump\t// in\n    tag_242:\n        /* \"#utility.yul\":2470:2553   */\n      swap7\n      pop\n      swap7\n      pop\n        /* \"#utility.yul\":2265:2563   */\n      pop\n        /* \"#utility.yul\":2630:2632   */\n      0x60\n        /* \"#utility.yul\":2619:2628   */\n      dup12\n        /* \"#utility.yul\":2615:2633   */\n      add\n        /* \"#utility.yul\":2602:2634   */\n      calldataload\n        /* \"#utility.yul\":2661:2679   */\n      0xffffffffffffffff\n        /* \"#utility.yul\":2653:2659   */\n      dup2\n        /* \"#utility.yul\":2650:2680   */\n      gt\n        /* \"#utility.yul\":2647:2764   */\n      iszero\n      tag_243\n      jumpi\n        /* \"#utility.yul\":2683:2762   */\n      tag_244\n      tag_165\n      jump\t// in\n    tag_244:\n        /* \"#utility.yul\":2647:2764   */\n    tag_243:\n        /* \"#utility.yul\":2796:2861   */\n      tag_245\n        /* \"#utility.yul\":2853:2860   */\n      dup14\n        /* \"#utility.yul\":2844:2850   */\n      dup3\n        /* \"#utility.yul\":2833:2842   */\n      dup15\n        /* \"#utility.yul\":2829:2851   */\n      add\n        /* \"#utility.yul\":2796:2861   */\n      tag_169\n      jump\t// in\n    tag_245:\n        /* \"#utility.yul\":2778:2861   */\n      swap5\n      pop\n      swap5\n      pop\n        /* \"#utility.yul\":2573:2871   */\n      pop\n        /* \"#utility.yul\":2938:2941   */\n      0x80\n        /* \"#utility.yul\":2927:2936   */\n      dup12\n        /* \"#utility.yul\":2923:2942   */\n      add\n        /* \"#utility.yul\":2910:2943   */\n      calldataload\n        /* \"#utility.yul\":2970:2988   */\n      0xffffffffffffffff\n        /* \"#utility.yul\":2962:2968   */\n      dup2\n        /* \"#utility.yul\":2959:2989   */\n      gt\n        /* \"#utility.yul\":2956:3073   */\n      iszero\n      tag_246\n      jumpi\n        /* \"#utility.yul\":2992:3071   */\n      tag_247\n      tag_165\n      jump\t// in\n    tag_247:\n        /* \"#utility.yul\":2956:3073   */\n    tag_246:\n        /* \"#utility.yul\":3105:3170   */\n      tag_248\n        /* \"#utility.yul\":3162:3169   */\n      dup14\n        /* \"#utility.yul\":3153:3159   */\n      dup3\n        /* \"#utility.yul\":3142:3151   */\n      dup15\n        /* \"#utility.yul\":3138:3160   */\n      add\n        /* \"#utility.yul\":3105:3170   */\n      tag_169\n      jump\t// in\n    tag_248:\n        /* \"#utility.yul\":3087:3170   */\n      swap3\n      pop\n      swap3\n      pop\n        /* \"#utility.yul\":2881:3180   */\n      pop\n        /* \"#utility.yul\":1276:3187   */\n      swap3\n      swap6\n      swap9\n      swap12\n      swap2\n      swap5\n      swap8\n      swap11\n      pop\n      swap3\n      swap6\n      swap9\n      pop\n      jump\t// out\n        /* \"#utility.yul\":3193:3292   */\n    tag_170:\n        /* \"#utility.yul\":3245:3251   */\n      0x00\n        /* \"#utility.yul\":3279:3284   */\n      dup2\n        /* \"#utility.yul\":3273:3285   */\n      mload\n        /* \"#utility.yul\":3263:3285   */\n      swap1\n      pop\n        /* \"#utility.yul\":3193:3292   */\n      swap2\n      swap1\n      pop\n      jump\t// out\n        /* \"#utility.yul\":3298:3457   */\n    tag_171:\n        /* \"#utility.yul\":3372:3383   */\n      0x00\n        /* \"#utility.yul\":3406:3412   */\n      dup3\n        /* \"#utility.yul\":3401:3404   */\n      dup3\n        /* \"#utility.yul\":3394:3413   */\n      mstore\n        /* \"#utility.yul\":3446:3450   */\n      0x20\n        /* \"#utility.yul\":3441:3444   */\n      dup3\n        /* \"#utility.yul\":3437:3451   */\n      add\n        /* \"#utility.yul\":3422:3451   */\n      swap1\n      pop\n        /* \"#utility.yul\":3298:3457   */\n      swap3\n      swap2\n      pop\n      pop\n      jump\t// out\n        /* \"#utility.yul\":3463:3602   */\n    tag_172:\n        /* \"#utility.yul\":3552:3558   */\n      dup3\n        /* \"#utility.yul\":3547:3550   */\n      dup2\n        /* \"#utility.yul\":3542:3545   */\n      dup4\n        /* \"#utility.yul\":3536:3559   */\n      mcopy\n        /* \"#utility.yul\":3593:3594   */\n      0x00\n        /* \"#utility.yul\":3584:3590   */\n      dup4\n        /* \"#utility.yul\":3579:3582   */\n      dup4\n        /* \"#utility.yul\":3575:3591   */\n      add\n        /* \"#utility.yul\":3568:3595   */\n      mstore\n        /* \"#utility.yul\":3463:3602   */\n      pop\n      pop\n      pop\n      jump\t// out\n        /* \"#utility.yul\":3608:3710   */\n    tag_173:\n        /* \"#utility.yul\":3649:3655   */\n      0x00\n        /* \"#utility.yul\":3700:3702   */\n      0x1f\n        /* \"#utility.yul\":3696:3703   */\n      not\n        /* \"#utility.yul\":3691:3693   */\n      0x1f\n        /* \"#utility.yul\":3684:3689   */\n      dup4\n        /* \"#utility.yul\":3680:3694   */\n      add\n        /* \"#utility.yul\":3676:3704   */\n      and\n        /* \"#utility.yul\":3666:3704   */\n      swap1\n      pop\n        /* \"#utility.yul\":3608:3710   */\n      swap2\n      swap1\n      pop\n      jump\t// out\n        /* \"#utility.yul\":3716:4073   */\n    tag_174:\n        /* \"#utility.yul\":3794:3797   */\n      0x00\n        /* \"#utility.yul\":3822:3861   */\n      tag_254\n        /* \"#utility.yul\":3855:3860   */\n      dup3\n        /* \"#utility.yul\":3822:3861   */\n      tag_170\n      jump\t// in\n    tag_254:\n        /* \"#utility.yul\":3877:3938   */\n      tag_255\n        /* \"#utility.yul\":3931:3937   */\n      dup2\n        /* \"#utility.yul\":3926:3929   */\n      dup6\n        /* \"#utility.yul\":3877:3938   */\n      tag_171\n      jump\t// in\n    tag_255:\n        /* \"#utility.yul\":3870:3938   */\n      swap4\n      pop\n        /* \"#utility.yul\":3947:4012   */\n      tag_256\n        /* \"#utility.yul\":4005:4011   */\n      dup2\n        /* \"#utility.yul\":4000:4003   */\n      dup6\n        /* \"#utility.yul\":3993:3997   */\n      0x20\n        /* \"#utility.yul\":3986:3991   */\n      dup7\n        /* \"#utility.yul\":3982:3998   */\n      add\n        /* \"#utility.yul\":3947:4012   */\n      tag_172\n      jump\t// in\n    tag_256:\n        /* \"#utility.yul\":4037:4066   */\n      tag_257\n        /* \"#utility.yul\":4059:4065   */\n      dup2\n        /* \"#utility.yul\":4037:4066   */\n      tag_173\n      jump\t// in\n    tag_257:\n        /* \"#utility.yul\":4032:4035   */\n      dup5\n        /* \"#utility.yul\":4028:4067   */\n      add\n        /* \"#utility.yul\":4021:4067   */\n      swap2\n      pop\n        /* \"#utility.yul\":3798:4073   */\n      pop\n        /* \"#utility.yul\":3716:4073   */\n      swap3\n      swap2\n      pop\n      pop\n      jump\t// out\n        /* \"#utility.yul\":4079:4205   */\n    tag_175:\n        /* \"#utility.yul\":4116:4123   */\n      0x00\n        /* \"#utility.yul\":4156:4198   */\n      0xffffffffffffffffffffffffffffffffffffffff\n        /* \"#utility.yul\":4149:4154   */\n      dup3\n        /* \"#utility.yul\":4145:4199   */\n      and\n        /* \"#utility.yul\":4134:4199   */\n      swap1\n      pop\n        /* \"#utility.yul\":4079:4205   */\n      swap2\n      swap1\n      pop\n      jump\t// out\n        /* \"#utility.yul\":4211:4307   */\n    tag_176:\n        /* \"#utility.yul\":4248:4255   */\n      0x00\n        /* \"#utility.yul\":4277:4301   */\n      tag_260\n        /* \"#utility.yul\":4295:4300   */\n      dup3\n        /* \"#utility.yul\":4277:4301   */\n      tag_175\n      jump\t// in\n    tag_260:\n        /* \"#utility.yul\":4266:4301   */\n      swap1\n      pop\n        /* \"#utility.yul\":4211:4307   */\n      swap2\n      swap1\n      pop\n      jump\t// out\n        /* \"#utility.yul\":4313:4421   */\n    tag_177:\n        /* \"#utility.yul\":4390:4414   */\n      tag_262\n        /* \"#utility.yul\":4408:4413   */\n      dup2\n        /* \"#utility.yul\":4390:4414   */\n      tag_176\n      jump\t// in\n    tag_262:\n        /* \"#utility.yul\":4385:4388   */\n      dup3\n        /* \"#utility.yul\":4378:4415   */\n      mstore\n        /* \"#utility.yul\":4313:4421   */\n      pop\n      pop\n      jump\t// out\n        /* \"#utility.yul\":4517:6423   */\n    tag_178:\n        /* \"#utility.yul\":4648:4651   */\n      0x00\n        /* \"#utility.yul\":4684:4688   */\n      0xe0\n        /* \"#utility.yul\":4679:4682   */\n      dup4\n        /* \"#utility.yul\":4675:4689   */\n      add\n        /* \"#utility.yul\":4780:4784   */\n      0x00\n        /* \"#utility.yul\":4773:4778   */\n      dup4\n        /* \"#utility.yul\":4769:4785   */\n      add\n        /* \"#utility.yul\":4763:4786   */\n      mload\n        /* \"#utility.yul\":4833:4836   */\n      dup5\n        /* \"#utility.yul\":4827:4831   */\n      dup3\n        /* \"#utility.yul\":4823:4837   */\n      sub\n        /* \"#utility.yul\":4816:4820   */\n      0x00\n        /* \"#utility.yul\":4811:4814   */\n      dup7\n        /* \"#utility.yul\":4807:4821   */\n      add\n        /* \"#utility.yul\":4800:4838   */\n      mstore\n        /* \"#utility.yul\":4859:4932   */\n      tag_264\n        /* \"#utility.yul\":4927:4931   */\n      dup3\n        /* \"#utility.yul\":4913:4925   */\n      dup3\n        /* \"#utility.yul\":4859:4932   */\n      tag_174\n      jump\t// in\n    tag_264:\n        /* \"#utility.yul\":4851:4932   */\n      swap2\n      pop\n        /* \"#utility.yul\":4699:4943   */\n      pop\n        /* \"#utility.yul\":5037:5041   */\n      0x20\n        /* \"#utility.yul\":5030:5035   */\n      dup4\n        /* \"#utility.yul\":5026:5042   */\n      add\n        /* \"#utility.yul\":5020:5043   */\n      mload\n        /* \"#utility.yul\":5056:5119   */\n      tag_265\n        /* \"#utility.yul\":5113:5117   */\n      0x20\n        /* \"#utility.yul\":5108:5111   */\n      dup7\n        /* \"#utility.yul\":5104:5118   */\n      add\n        /* \"#utility.yul\":5090:5102   */\n      dup3\n        /* \"#utility.yul\":5056:5119   */\n      tag_177\n      jump\t// in\n    tag_265:\n        /* \"#utility.yul\":4953:5129   */\n      pop\n        /* \"#utility.yul\":5219:5223   */\n      0x40\n        /* \"#utility.yul\":5212:5217   */\n      dup4\n        /* \"#utility.yul\":5208:5224   */\n      add\n        /* \"#utility.yul\":5202:5225   */\n      mload\n        /* \"#utility.yul\":5272:5275   */\n      dup5\n        /* \"#utility.yul\":5266:5270   */\n      dup3\n        /* \"#utility.yul\":5262:5276   */\n      sub\n        /* \"#utility.yul\":5255:5259   */\n      0x40\n        /* \"#utility.yul\":5250:5253   */\n      dup7\n        /* \"#utility.yul\":5246:5260   */\n      add\n        /* \"#utility.yul\":5239:5277   */\n      mstore\n        /* \"#utility.yul\":5298:5371   */\n      tag_266\n        /* \"#utility.yul\":5366:5370   */\n      dup3\n        /* \"#utility.yul\":5352:5364   */\n      dup3\n        /* \"#utility.yul\":5298:5371   */\n      tag_174\n      jump\t// in\n    tag_266:\n        /* \"#utility.yul\":5290:5371   */\n      swap2\n      pop\n        /* \"#utility.yul\":5139:5382   */\n      pop\n        /* \"#utility.yul\":5470:5474   */\n      0x60\n        /* \"#utility.yul\":5463:5468   */\n      dup4\n        /* \"#utility.yul\":5459:5475   */\n      add\n        /* \"#utility.yul\":5453:5476   */\n      mload\n        /* \"#utility.yul\":5523:5526   */\n      dup5\n        /* \"#utility.yul\":5517:5521   */\n      dup3\n        /* \"#utility.yul\":5513:5527   */\n      sub\n        /* \"#utility.yul\":5506:5510   */\n      0x60\n        /* \"#utility.yul\":5501:5504   */\n      dup7\n        /* \"#utility.yul\":5497:5511   */\n      add\n        /* \"#utility.yul\":5490:5528   */\n      mstore\n        /* \"#utility.yul\":5549:5622   */\n      tag_267\n        /* \"#utility.yul\":5617:5621   */\n      dup3\n        /* \"#utility.yul\":5603:5615   */\n      dup3\n        /* \"#utility.yul\":5549:5622   */\n      tag_174\n      jump\t// in\n    tag_267:\n        /* \"#utility.yul\":5541:5622   */\n      swap2\n      pop\n        /* \"#utility.yul\":5392:5633   */\n      pop\n        /* \"#utility.yul\":5724:5728   */\n      0x80\n        /* \"#utility.yul\":5717:5722   */\n      dup4\n        /* \"#utility.yul\":5713:5729   */\n      add\n        /* \"#utility.yul\":5707:5730   */\n      mload\n        /* \"#utility.yul\":5777:5780   */\n      dup5\n        /* \"#utility.yul\":5771:5775   */\n      dup3\n        /* \"#utility.yul\":5767:5781   */\n      sub\n        /* \"#utility.yul\":5760:5764   */\n      0x80\n        /* \"#utility.yul\":5755:5758   */\n      dup7\n        /* \"#utility.yul\":5751:5765   */\n      add\n        /* \"#utility.yul\":5744:5782   */\n      mstore\n        /* \"#utility.yul\":5803:5876   */\n      tag_268\n        /* \"#utility.yul\":5871:5875   */\n      dup3\n        /* \"#utility.yul\":5857:5869   */\n      dup3\n        /* \"#utility.yul\":5803:5876   */\n      tag_174\n      jump\t// in\n    tag_268:\n        /* \"#utility.yul\":5795:5876   */\n      swap2\n      pop\n        /* \"#utility.yul\":5643:5887   */\n      pop\n        /* \"#utility.yul\":5980:5984   */\n      0xa0\n        /* \"#utility.yul\":5973:5978   */\n      dup4\n        /* \"#utility.yul\":5969:5985   */\n      add\n        /* \"#utility.yul\":5963:5986   */\n      mload\n        /* \"#utility.yul\":6033:6036   */\n      dup5\n        /* \"#utility.yul\":6027:6031   */\n      dup3\n        /* \"#utility.yul\":6023:6037   */\n      sub\n        /* \"#utility.yul\":6016:6020   */\n      0xa0\n        /* \"#utility.yul\":6011:6014   */\n      dup7\n        /* \"#utility.yul\":6007:6021   */\n      add\n        /* \"#utility.yul\":6000:6038   */\n      mstore\n        /* \"#utility.yul\":6059:6132   */\n      tag_269\n        /* \"#utility.yul\":6127:6131   */\n      dup3\n        /* \"#utility.yul\":6113:6125   */\n      dup3\n        /* \"#utility.yul\":6059:6132   */\n      tag_174\n      jump\t// in\n    tag_269:\n        /* \"#utility.yul\":6051:6132   */\n      swap2\n      pop\n        /* \"#utility.yul\":5897:6143   */\n      pop\n        /* \"#utility.yul\":6233:6237   */\n      0xc0\n        /* \"#utility.yul\":6226:6231   */\n      dup4\n        /* \"#utility.yul\":6222:6238   */\n      add\n        /* \"#utility.yul\":6216:6239   */\n      mload\n        /* \"#utility.yul\":6286:6289   */\n      dup5\n        /* \"#utility.yul\":6280:6284   */\n      dup3\n        /* \"#utility.yul\":6276:6290   */\n      sub\n        /* \"#utility.yul\":6269:6273   */\n      0xc0\n        /* \"#utility.yul\":6264:6267   */\n      dup7\n        /* \"#utility.yul\":6260:6274   */\n      add\n        /* \"#utility.yul\":6253:6291   */\n      mstore\n        /* \"#utility.yul\":6312:6385   */\n      tag_270\n        /* \"#utility.yul\":6380:6384   */\n      dup3\n        /* \"#utility.yul\":6366:6378   */\n      dup3\n        /* \"#utility.yul\":6312:6385   */\n      tag_174\n      jump\t// in\n    tag_270:\n        /* \"#utility.yul\":6304:6385   */\n      swap2\n      pop\n        /* \"#utility.yul\":6153:6396   */\n      pop\n        /* \"#utility.yul\":6413:6417   */\n      dup1\n        /* \"#utility.yul\":6406:6417   */\n      swap2\n      pop\n        /* \"#utility.yul\":4653:6423   */\n      pop\n        /* \"#utility.yul\":4517:6423   */\n      swap3\n      swap2\n      pop\n      pop\n      jump\t// out\n        /* \"#utility.yul\":6429:6826   */\n    tag_19:\n        /* \"#utility.yul\":6584:6588   */\n      0x00\n        /* \"#utility.yul\":6622:6624   */\n      0x20\n        /* \"#utility.yul\":6611:6620   */\n      dup3\n        /* \"#utility.yul\":6607:6625   */\n      add\n        /* \"#utility.yul\":6599:6625   */\n      swap1\n      pop\n        /* \"#utility.yul\":6671:6680   */\n      dup2\n        /* \"#utility.yul\":6665:6669   */\n      dup2\n        /* \"#utility.yul\":6661:6681   */\n      sub\n        /* \"#utility.yul\":6657:6658   */\n      0x00\n        /* \"#utility.yul\":6646:6655   */\n      dup4\n        /* \"#utility.yul\":6642:6659   */\n      add\n        /* \"#utility.yul\":6635:6682   */\n      mstore\n        /* \"#utility.yul\":6699:6819   */\n      tag_272\n        /* \"#utility.yul\":6814:6818   */\n      dup2\n        /* \"#utility.yul\":6805:6811   */\n      dup5\n        /* \"#utility.yul\":6699:6819   */\n      tag_178\n      jump\t// in\n    tag_272:\n        /* \"#utility.yul\":6691:6819   */\n      swap1\n      pop\n        /* \"#utility.yul\":6429:6826   */\n      swap3\n      swap2\n      pop\n      pop\n      jump\t// out\n        /* \"#utility.yul\":6832:6950   */\n    tag_179:\n        /* \"#utility.yul\":6919:6943   */\n      tag_274\n        /* \"#utility.yul\":6937:6942   */\n      dup2\n        /* \"#utility.yul\":6919:6943   */\n      tag_176\n      jump\t// in\n    tag_274:\n        /* \"#utility.yul\":6914:6917   */\n      dup3\n        /* \"#utility.yul\":6907:6944   */\n      mstore\n        /* \"#utility.yul\":6832:6950   */\n      pop\n      pop\n      jump\t// out\n        /* \"#utility.yul\":6956:7178   */\n    tag_24:\n        /* \"#utility.yul\":7049:7053   */\n      0x00\n        /* \"#utility.yul\":7087:7089   */\n      0x20\n        /* \"#utility.yul\":7076:7085   */\n      dup3\n        /* \"#utility.yul\":7072:7090   */\n      add\n        /* \"#utility.yul\":7064:7090   */\n      swap1\n      pop\n        /* \"#utility.yul\":7100:7171   */\n      tag_276\n        /* \"#utility.yul\":7168:7169   */\n      0x00\n        /* \"#utility.yul\":7157:7166   */\n      dup4\n        /* \"#utility.yul\":7153:7170   */\n      add\n        /* \"#utility.yul\":7144:7150   */\n      dup5\n        /* \"#utility.yul\":7100:7171   */\n      tag_179\n      jump\t// in\n    tag_276:\n        /* \"#utility.yul\":6956:7178   */\n      swap3\n      swap2\n      pop\n      pop\n      jump\t// out\n        /* \"#utility.yul\":7184:7353   */\n    tag_180:\n        /* \"#utility.yul\":7268:7279   */\n      0x00\n        /* \"#utility.yul\":7302:7308   */\n      dup3\n        /* \"#utility.yul\":7297:7300   */\n      dup3\n        /* \"#utility.yul\":7290:7309   */\n      mstore\n        /* \"#utility.yul\":7342:7346   */\n      0x20\n        /* \"#utility.yul\":7337:7340   */\n      dup3\n        /* \"#utility.yul\":7333:7347   */\n      add\n        /* \"#utility.yul\":7318:7347   */\n      swap1\n      pop\n        /* \"#utility.yul\":7184:7353   */\n      swap3\n      swap2\n      pop\n      pop\n      jump\t// out\n        /* \"#utility.yul\":7359:7736   */\n    tag_181:\n        /* \"#utility.yul\":7447:7450   */\n      0x00\n        /* \"#utility.yul\":7475:7514   */\n      tag_279\n        /* \"#utility.yul\":7508:7513   */\n      dup3\n        /* \"#utility.yul\":7475:7514   */\n      tag_170\n      jump\t// in\n    tag_279:\n        /* \"#utility.yul\":7530:7601   */\n      tag_280\n        /* \"#utility.yul\":7594:7600   */\n      dup2\n        /* \"#utility.yul\":7589:7592   */\n      dup6\n        /* \"#utility.yul\":7530:7601   */\n      tag_180\n      jump\t// in\n    tag_280:\n        /* \"#utility.yul\":7523:7601   */\n      swap4\n      pop\n        /* \"#utility.yul\":7610:7675   */\n      tag_281\n        /* \"#utility.yul\":7668:7674   */\n      dup2\n        /* \"#utility.yul\":7663:7666   */\n      dup6\n        /* \"#utility.yul\":7656:7660   */\n      0x20\n        /* \"#utility.yul\":7649:7654   */\n      dup7\n        /* \"#utility.yul\":7645:7661   */\n      add\n        /* \"#utility.yul\":7610:7675   */\n      tag_172\n      jump\t// in\n    tag_281:\n        /* \"#utility.yul\":7700:7729   */\n      tag_282\n        /* \"#utility.yul\":7722:7728   */\n      dup2\n        /* \"#utility.yul\":7700:7729   */\n      tag_173\n      jump\t// in\n    tag_282:\n        /* \"#utility.yul\":7695:7698   */\n      dup5\n        /* \"#utility.yul\":7691:7730   */\n      add\n        /* \"#utility.yul\":7684:7730   */\n      swap2\n      pop\n        /* \"#utility.yul\":7451:7736   */\n      pop\n        /* \"#utility.yul\":7359:7736   */\n      swap3\n      swap2\n      pop\n      pop\n      jump\t// out\n        /* \"#utility.yul\":7742:8055   */\n    tag_32:\n        /* \"#utility.yul\":7855:7859   */\n      0x00\n        /* \"#utility.yul\":7893:7895   */\n      0x20\n        /* \"#utility.yul\":7882:7891   */\n      dup3\n        /* \"#utility.yul\":7878:7896   */\n      add\n        /* \"#utility.yul\":7870:7896   */\n      swap1\n      pop\n        /* \"#utility.yul\":7942:7951   */\n      dup2\n        /* \"#utility.yul\":7936:7940   */\n      dup2\n        /* \"#utility.yul\":7932:7952   */\n      sub\n        /* \"#utility.yul\":7928:7929   */\n      0x00\n        /* \"#utility.yul\":7917:7926   */\n      dup4\n        /* \"#utility.yul\":7913:7930   */\n      add\n        /* \"#utility.yul\":7906:7953   */\n      mstore\n        /* \"#utility.yul\":7970:8048   */\n      tag_284\n        /* \"#utility.yul\":8043:8047   */\n      dup2\n        /* \"#utility.yul\":8034:8040   */\n      dup5\n        /* \"#utility.yul\":7970:8048   */\n      tag_181\n      jump\t// in\n    tag_284:\n        /* \"#utility.yul\":7962:8048   */\n      swap1\n      pop\n        /* \"#utility.yul\":7742:8055   */\n      swap3\n      swap2\n      pop\n      pop\n      jump\t// out\n        /* \"#utility.yul\":8061:8206   */\n    tag_182:\n        /* \"#utility.yul\":8159:8165   */\n      0x00\n        /* \"#utility.yul\":8193:8198   */\n      dup2\n        /* \"#utility.yul\":8187:8199   */\n      mload\n        /* \"#utility.yul\":8177:8199   */\n      swap1\n      pop\n        /* \"#utility.yul\":8061:8206   */\n      swap2\n      swap1\n      pop\n      jump\t// out\n        /* \"#utility.yul\":8212:8427   */\n    tag_183:\n        /* \"#utility.yul\":8342:8353   */\n      0x00\n        /* \"#utility.yul\":8376:8382   */\n      dup3\n        /* \"#utility.yul\":8371:8374   */\n      dup3\n        /* \"#utility.yul\":8364:8383   */\n      mstore\n        /* \"#utility.yul\":8416:8420   */\n      0x20\n        /* \"#utility.yul\":8411:8414   */\n      dup3\n        /* \"#utility.yul\":8407:8421   */\n      add\n        /* \"#utility.yul\":8392:8421   */\n      swap1\n      pop\n        /* \"#utility.yul\":8212:8427   */\n      swap3\n      swap2\n      pop\n      pop\n      jump\t// out\n        /* \"#utility.yul\":8433:8596   */\n    tag_184:\n        /* \"#utility.yul\":8531:8535   */\n      0x00\n        /* \"#utility.yul\":8554:8557   */\n      dup2\n        /* \"#utility.yul\":8546:8557   */\n      swap1\n      pop\n        /* \"#utility.yul\":8584:8588   */\n      0x20\n        /* \"#utility.yul\":8579:8582   */\n      dup3\n        /* \"#utility.yul\":8575:8589   */\n      add\n        /* \"#utility.yul\":8567:8589   */\n      swap1\n      pop\n        /* \"#utility.yul\":8433:8596   */\n      swap2\n      swap1\n      pop\n      jump\t// out\n        /* \"#utility.yul\":8692:10588   */\n    tag_185:\n        /* \"#utility.yul\":8813:8816   */\n      0x00\n        /* \"#utility.yul\":8849:8853   */\n      0xe0\n        /* \"#utility.yul\":8844:8847   */\n      dup4\n        /* \"#utility.yul\":8840:8854   */\n      add\n        /* \"#utility.yul\":8945:8949   */\n      0x00\n        /* \"#utility.yul\":8938:8943   */\n      dup4\n        /* \"#utility.yul\":8934:8950   */\n      add\n        /* \"#utility.yul\":8928:8951   */\n      mload\n        /* \"#utility.yul\":8998:9001   */\n      dup5\n        /* \"#utility.yul\":8992:8996   */\n      dup3\n        /* \"#utility.yul\":8988:9002   */\n      sub\n        /* \"#utility.yul\":8981:8985   */\n      0x00\n        /* \"#utility.yul\":8976:8979   */\n      dup7\n        /* \"#utility.yul\":8972:8986   */\n      add\n        /* \"#utility.yul\":8965:9003   */\n      mstore\n        /* \"#utility.yul\":9024:9097   */\n      tag_289\n        /* \"#utility.yul\":9092:9096   */\n      dup3\n        /* \"#utility.yul\":9078:9090   */\n      dup3\n        /* \"#utility.yul\":9024:9097   */\n      tag_174\n      jump\t// in\n    tag_289:\n        /* \"#utility.yul\":9016:9097   */\n      swap2\n      pop\n        /* \"#utility.yul\":8864:9108   */\n      pop\n        /* \"#utility.yul\":9202:9206   */\n      0x20\n        /* \"#utility.yul\":9195:9200   */\n      dup4\n        /* \"#utility.yul\":9191:9207   */\n      add\n        /* \"#utility.yul\":9185:9208   */\n      mload\n        /* \"#utility.yul\":9221:9284   */\n      tag_290\n        /* \"#utility.yul\":9278:9282   */\n      0x20\n        /* \"#utility.yul\":9273:9276   */\n      dup7\n        /* \"#utility.yul\":9269:9283   */\n      add\n        /* \"#utility.yul\":9255:9267   */\n      dup3\n        /* \"#utility.yul\":9221:9284   */\n      tag_177\n      jump\t// in\n    tag_290:\n        /* \"#utility.yul\":9118:9294   */\n      pop\n        /* \"#utility.yul\":9384:9388   */\n      0x40\n        /* \"#utility.yul\":9377:9382   */\n      dup4\n        /* \"#utility.yul\":9373:9389   */\n      add\n        /* \"#utility.yul\":9367:9390   */\n      mload\n        /* \"#utility.yul\":9437:9440   */\n      dup5\n        /* \"#utility.yul\":9431:9435   */\n      dup3\n        /* \"#utility.yul\":9427:9441   */\n      sub\n        /* \"#utility.yul\":9420:9424   */\n      0x40\n        /* \"#utility.yul\":9415:9418   */\n      dup7\n        /* \"#utility.yul\":9411:9425   */\n      add\n        /* \"#utility.yul\":9404:9442   */\n      mstore\n        /* \"#utility.yul\":9463:9536   */\n      tag_291\n        /* \"#utility.yul\":9531:9535   */\n      dup3\n        /* \"#utility.yul\":9517:9529   */\n      dup3\n        /* \"#utility.yul\":9463:9536   */\n      tag_174\n      jump\t// in\n    tag_291:\n        /* \"#utility.yul\":9455:9536   */\n      swap2\n      pop\n        /* \"#utility.yul\":9304:9547   */\n      pop\n        /* \"#utility.yul\":9635:9639   */\n      0x60\n        /* \"#utility.yul\":9628:9633   */\n      dup4\n        /* \"#utility.yul\":9624:9640   */\n      add\n        /* \"#utility.yul\":9618:9641   */\n      mload\n        /* \"#utility.yul\":9688:9691   */\n      dup5\n        /* \"#utility.yul\":9682:9686   */\n      dup3\n        /* \"#utility.yul\":9678:9692   */\n      sub\n        /* \"#utility.yul\":9671:9675   */\n      0x60\n        /* \"#utility.yul\":9666:9669   */\n      dup7\n        /* \"#utility.yul\":9662:9676   */\n      add\n        /* \"#utility.yul\":9655:9693   */\n      mstore\n        /* \"#utility.yul\":9714:9787   */\n      tag_292\n        /* \"#utility.yul\":9782:9786   */\n      dup3\n        /* \"#utility.yul\":9768:9780   */\n      dup3\n        /* \"#utility.yul\":9714:9787   */\n      tag_174\n      jump\t// in\n    tag_292:\n        /* \"#utility.yul\":9706:9787   */\n      swap2\n      pop\n        /* \"#utility.yul\":9557:9798   */\n      pop\n        /* \"#utility.yul\":9889:9893   */\n      0x80\n        /* \"#utility.yul\":9882:9887   */\n      dup4\n        /* \"#utility.yul\":9878:9894   */\n      add\n        /* \"#utility.yul\":9872:9895   */\n      mload\n        /* \"#utility.yul\":9942:9945   */\n      dup5\n        /* \"#utility.yul\":9936:9940   */\n      dup3\n        /* \"#utility.yul\":9932:9946   */\n      sub\n        /* \"#utility.yul\":9925:9929   */\n      0x80\n        /* \"#utility.yul\":9920:9923   */\n      dup7\n        /* \"#utility.yul\":9916:9930   */\n      add\n        /* \"#utility.yul\":9909:9947   */\n      mstore\n        /* \"#utility.yul\":9968:10041   */\n      tag_293\n        /* \"#utility.yul\":10036:10040   */\n      dup3\n        /* \"#utility.yul\":10022:10034   */\n      dup3\n        /* \"#utility.yul\":9968:10041   */\n      tag_174\n      jump\t// in\n    tag_293:\n        /* \"#utility.yul\":9960:10041   */\n      swap2\n      pop\n        /* \"#utility.yul\":9808:10052   */\n      pop\n        /* \"#utility.yul\":10145:10149   */\n      0xa0\n        /* \"#utility.yul\":10138:10143   */\n      dup4\n        /* \"#utility.yul\":10134:10150   */\n      add\n        /* \"#utility.yul\":10128:10151   */\n      mload\n        /* \"#utility.yul\":10198:10201   */\n      dup5\n        /* \"#utility.yul\":10192:10196   */\n      dup3\n        /* \"#utility.yul\":10188:10202   */\n      sub\n        /* \"#utility.yul\":10181:10185   */\n      0xa0\n        /* \"#utility.yul\":10176:10179   */\n      dup7\n        /* \"#utility.yul\":10172:10186   */\n      add\n        /* \"#utility.yul\":10165:10203   */\n      mstore\n        /* \"#utility.yul\":10224:10297   */\n      tag_294\n        /* \"#utility.yul\":10292:10296   */\n      dup3\n        /* \"#utility.yul\":10278:10290   */\n      dup3\n        /* \"#utility.yul\":10224:10297   */\n      tag_174\n      jump\t// in\n    tag_294:\n        /* \"#utility.yul\":10216:10297   */\n      swap2\n      pop\n        /* \"#utility.yul\":10062:10308   */\n      pop\n        /* \"#utility.yul\":10398:10402   */\n      0xc0\n        /* \"#utility.yul\":10391:10396   */\n      dup4\n        /* \"#utility.yul\":10387:10403   */\n      add\n        /* \"#utility.yul\":10381:10404   */\n      mload\n        /* \"#utility.yul\":10451:10454   */\n      dup5\n        /* \"#utility.yul\":10445:10449   */\n      dup3\n        /* \"#utility.yul\":10441:10455   */\n      sub\n        /* \"#utility.yul\":10434:10438   */\n      0xc0\n        /* \"#utility.yul\":10429:10432   */\n      dup7\n        /* \"#utility.yul\":10425:10439   */\n      add\n        /* \"#utility.yul\":10418:10456   */\n      mstore\n        /* \"#utility.yul\":10477:10550   */\n      tag_295\n        /* \"#utility.yul\":10545:10549   */\n      dup3\n        /* \"#utility.yul\":10531:10543   */\n      dup3\n        /* \"#utility.yul\":10477:10550   */\n      tag_174\n      jump\t// in\n    tag_295:\n        /* \"#utility.yul\":10469:10550   */\n      swap2\n      pop\n        /* \"#utility.yul\":10318:10561   */\n      pop\n        /* \"#utility.yul\":10578:10582   */\n      dup1\n        /* \"#utility.yul\":10571:10582   */\n      swap2\n      pop\n        /* \"#utility.yul\":8818:10588   */\n      pop\n        /* \"#utility.yul\":8692:10588   */\n      swap3\n      swap2\n      pop\n      pop\n      jump\t// out\n        /* \"#utility.yul\":10594:10874   */\n    tag_186:\n        /* \"#utility.yul\":10725:10735   */\n      0x00\n        /* \"#utility.yul\":10760:10868   */\n      tag_297\n        /* \"#utility.yul\":10864:10867   */\n      dup4\n        /* \"#utility.yul\":10856:10862   */\n      dup4\n        /* \"#utility.yul\":10760:10868   */\n      tag_185\n      jump\t// in\n    tag_297:\n        /* \"#utility.yul\":10746:10868   */\n      swap1\n      pop\n        /* \"#utility.yul\":10594:10874   */\n      swap3\n      swap2\n      pop\n      pop\n      jump\t// out\n        /* \"#utility.yul\":10880:11024   */\n    tag_187:\n        /* \"#utility.yul\":10981:10985   */\n      0x00\n        /* \"#utility.yul\":11013:11017   */\n      0x20\n        /* \"#utility.yul\":11008:11011   */\n      dup3\n        /* \"#utility.yul\":11004:11018   */\n      add\n        /* \"#utility.yul\":10996:11018   */\n      swap1\n      pop\n        /* \"#utility.yul\":10880:11024   */\n      swap2\n      swap1\n      pop\n      jump\t// out\n        /* \"#utility.yul\":11124:12283   */\n    tag_188:\n        /* \"#utility.yul\":11305:11308   */\n      0x00\n        /* \"#utility.yul\":11334:11419   */\n      tag_300\n        /* \"#utility.yul\":11413:11418   */\n      dup3\n        /* \"#utility.yul\":11334:11419   */\n      tag_182\n      jump\t// in\n    tag_300:\n        /* \"#utility.yul\":11435:11552   */\n      tag_301\n        /* \"#utility.yul\":11545:11551   */\n      dup2\n        /* \"#utility.yul\":11540:11543   */\n      dup6\n        /* \"#utility.yul\":11435:11552   */\n      tag_183\n      jump\t// in\n    tag_301:\n        /* \"#utility.yul\":11428:11552   */\n      swap4\n      pop\n        /* \"#utility.yul\":11578:11581   */\n      dup4\n        /* \"#utility.yul\":11623:11627   */\n      0x20\n        /* \"#utility.yul\":11615:11621   */\n      dup3\n        /* \"#utility.yul\":11611:11628   */\n      mul\n        /* \"#utility.yul\":11606:11609   */\n      dup6\n        /* \"#utility.yul\":11602:11629   */\n      add\n        /* \"#utility.yul\":11653:11740   */\n      tag_302\n        /* \"#utility.yul\":11734:11739   */\n      dup6\n        /* \"#utility.yul\":11653:11740   */\n      tag_184\n      jump\t// in\n    tag_302:\n        /* \"#utility.yul\":11763:11770   */\n      dup1\n        /* \"#utility.yul\":11794:11795   */\n      0x00\n        /* \"#utility.yul\":11779:12238   */\n    tag_303:\n        /* \"#utility.yul\":11804:11810   */\n      dup6\n        /* \"#utility.yul\":11801:11802   */\n      dup2\n        /* \"#utility.yul\":11798:11811   */\n      lt\n        /* \"#utility.yul\":11779:12238   */\n      iszero\n      tag_305\n      jumpi\n        /* \"#utility.yul\":11875:11884   */\n      dup5\n        /* \"#utility.yul\":11869:11873   */\n      dup5\n        /* \"#utility.yul\":11865:11885   */\n      sub\n        /* \"#utility.yul\":11860:11863   */\n      dup10\n        /* \"#utility.yul\":11853:11886   */\n      mstore\n        /* \"#utility.yul\":11926:11932   */\n      dup2\n        /* \"#utility.yul\":11920:11933   */\n      mload\n        /* \"#utility.yul\":11954:12080   */\n      tag_306\n        /* \"#utility.yul\":12075:12079   */\n      dup6\n        /* \"#utility.yul\":12060:12073   */\n      dup3\n        /* \"#utility.yul\":11954:12080   */\n      tag_186\n      jump\t// in\n    tag_306:\n        /* \"#utility.yul\":11946:12080   */\n      swap5\n      pop\n        /* \"#utility.yul\":12103:12194   */\n      tag_307\n        /* \"#utility.yul\":12187:12193   */\n      dup4\n        /* \"#utility.yul\":12103:12194   */\n      tag_187\n      jump\t// in\n    tag_307:\n        /* \"#utility.yul\":12093:12194   */\n      swap3\n      pop\n        /* \"#utility.yul\":12223:12227   */\n      0x20\n        /* \"#utility.yul\":12218:12221   */\n      dup11\n        /* \"#utility.yul\":12214:12228   */\n      add\n        /* \"#utility.yul\":12207:12228   */\n      swap10\n      pop\n        /* \"#utility.yul\":11839:12238   */\n      pop\n        /* \"#utility.yul\":11826:11827   */\n      0x01\n        /* \"#utility.yul\":11823:11824   */\n      dup2\n        /* \"#utility.yul\":11819:11828   */\n      add\n        /* \"#utility.yul\":11814:11828   */\n      swap1\n      pop\n        /* \"#utility.yul\":11779:12238   */\n      jump(tag_303)\n    tag_305:\n        /* \"#utility.yul\":11783:11797   */\n      pop\n        /* \"#utility.yul\":12254:12258   */\n      dup3\n        /* \"#utility.yul\":12247:12258   */\n      swap8\n      pop\n        /* \"#utility.yul\":12274:12277   */\n      dup8\n        /* \"#utility.yul\":12267:12277   */\n      swap6\n      pop\n        /* \"#utility.yul\":11310:12283   */\n      pop\n      pop\n      pop\n      pop\n      pop\n        /* \"#utility.yul\":11124:12283   */\n      swap3\n      swap2\n      pop\n      pop\n      jump\t// out\n        /* \"#utility.yul\":12289:12786   */\n    tag_37:\n        /* \"#utility.yul\":12494:12498   */\n      0x00\n        /* \"#utility.yul\":12532:12534   */\n      0x20\n        /* \"#utility.yul\":12521:12530   */\n      dup3\n        /* \"#utility.yul\":12517:12535   */\n      add\n        /* \"#utility.yul\":12509:12535   */\n      swap1\n      pop\n        /* \"#utility.yul\":12581:12590   */\n      dup2\n        /* \"#utility.yul\":12575:12579   */\n      dup2\n        /* \"#utility.yul\":12571:12591   */\n      sub\n        /* \"#utility.yul\":12567:12568   */\n      0x00\n        /* \"#utility.yul\":12556:12565   */\n      dup4\n        /* \"#utility.yul\":12552:12569   */\n      add\n        /* \"#utility.yul\":12545:12592   */\n      mstore\n        /* \"#utility.yul\":12609:12779   */\n      tag_309\n        /* \"#utility.yul\":12774:12778   */\n      dup2\n        /* \"#utility.yul\":12765:12771   */\n      dup5\n        /* \"#utility.yul\":12609:12779   */\n      tag_188\n      jump\t// in\n    tag_309:\n        /* \"#utility.yul\":12601:12779   */\n      swap1\n      pop\n        /* \"#utility.yul\":12289:12786   */\n      swap3\n      swap2\n      pop\n      pop\n      jump\t// out\n        /* \"#utility.yul\":12792:12869   */\n    tag_189:\n        /* \"#utility.yul\":12829:12836   */\n      0x00\n        /* \"#utility.yul\":12858:12863   */\n      dup2\n        /* \"#utility.yul\":12847:12863   */\n      swap1\n      pop\n        /* \"#utility.yul\":12792:12869   */\n      swap2\n      swap1\n      pop\n      jump\t// out\n        /* \"#utility.yul\":12875:12993   */\n    tag_190:\n        /* \"#utility.yul\":12962:12986   */\n      tag_312\n        /* \"#utility.yul\":12980:12985   */\n      dup2\n        /* \"#utility.yul\":12962:12986   */\n      tag_189\n      jump\t// in\n    tag_312:\n        /* \"#utility.yul\":12957:12960   */\n      dup3\n        /* \"#utility.yul\":12950:12987   */\n      mstore\n        /* \"#utility.yul\":12875:12993   */\n      pop\n      pop\n      jump\t// out\n        /* \"#utility.yul\":12999:13221   */\n    tag_42:\n        /* \"#utility.yul\":13092:13096   */\n      0x00\n        /* \"#utility.yul\":13130:13132   */\n      0x20\n        /* \"#utility.yul\":13119:13128   */\n      dup3\n        /* \"#utility.yul\":13115:13133   */\n      add\n        /* \"#utility.yul\":13107:13133   */\n      swap1\n      pop\n        /* \"#utility.yul\":13143:13214   */\n      tag_314\n        /* \"#utility.yul\":13211:13212   */\n      0x00\n        /* \"#utility.yul\":13200:13209   */\n      dup4\n        /* \"#utility.yul\":13196:13213   */\n      add\n        /* \"#utility.yul\":13187:13193   */\n      dup5\n        /* \"#utility.yul\":13143:13214   */\n      tag_190\n      jump\t// in\n    tag_314:\n        /* \"#utility.yul\":12999:13221   */\n      swap3\n      swap2\n      pop\n      pop\n      jump\t// out\n        /* \"#utility.yul\":13227:13457   */\n    tag_191:\n        /* \"#utility.yul\":13367:13401   */\n      0x496e636f7272656374207072656d69756d3a206d757374206265206578616374\n        /* \"#utility.yul\":13363:13364   */\n      0x00\n        /* \"#utility.yul\":13355:13361   */\n      dup3\n        /* \"#utility.yul\":13351:13365   */\n      add\n        /* \"#utility.yul\":13344:13402   */\n      mstore\n        /* \"#utility.yul\":13436:13449   */\n      0x6c7920302e303120455448000000000000000000000000000000000000000000\n        /* \"#utility.yul\":13431:13433   */\n      0x20\n        /* \"#utility.yul\":13423:13429   */\n      dup3\n        /* \"#utility.yul\":13419:13434   */\n      add\n        /* \"#utility.yul\":13412:13450   */\n      mstore\n        /* \"#utility.yul\":13227:13457   */\n      pop\n      jump\t// out\n        /* \"#utility.yul\":13463:13829   */\n    tag_192:\n        /* \"#utility.yul\":13605:13608   */\n      0x00\n        /* \"#utility.yul\":13626:13693   */\n      tag_317\n        /* \"#utility.yul\":13690:13692   */\n      0x2b\n        /* \"#utility.yul\":13685:13688   */\n      dup4\n        /* \"#utility.yul\":13626:13693   */\n      tag_180\n      jump\t// in\n    tag_317:\n        /* \"#utility.yul\":13619:13693   */\n      swap2\n      pop\n        /* \"#utility.yul\":13702:13795   */\n      tag_318\n        /* \"#utility.yul\":13791:13794   */\n      dup3\n        /* \"#utility.yul\":13702:13795   */\n      tag_191\n      jump\t// in\n    tag_318:\n        /* \"#utility.yul\":13820:13822   */\n      0x40\n        /* \"#utility.yul\":13815:13818   */\n      dup3\n        /* \"#utility.yul\":13811:13823   */\n      add\n        /* \"#utility.yul\":13804:13823   */\n      swap1\n      pop\n        /* \"#utility.yul\":13463:13829   */\n      swap2\n      swap1\n      pop\n      jump\t// out\n        /* \"#utility.yul\":13835:14254   */\n    tag_53:\n        /* \"#utility.yul\":14001:14005   */\n      0x00\n        /* \"#utility.yul\":14039:14041   */\n      0x20\n        /* \"#utility.yul\":14028:14037   */\n      dup3\n        /* \"#utility.yul\":14024:14042   */\n      add\n        /* \"#utility.yul\":14016:14042   */\n      swap1\n      pop\n        /* \"#utility.yul\":14088:14097   */\n      dup2\n        /* \"#utility.yul\":14082:14086   */\n      dup2\n        /* \"#utility.yul\":14078:14098   */\n      sub\n        /* \"#utility.yul\":14074:14075   */\n      0x00\n        /* \"#utility.yul\":14063:14072   */\n      dup4\n        /* \"#utility.yul\":14059:14076   */\n      add\n        /* \"#utility.yul\":14052:14099   */\n      mstore\n        /* \"#utility.yul\":14116:14247   */\n      tag_320\n        /* \"#utility.yul\":14242:14246   */\n      dup2\n        /* \"#utility.yul\":14116:14247   */\n      tag_192\n      jump\t// in\n    tag_320:\n        /* \"#utility.yul\":14108:14247   */\n      swap1\n      pop\n        /* \"#utility.yul\":13835:14254   */\n      swap2\n      swap1\n      pop\n      jump\t// out\n        /* \"#utility.yul\":14260:14485   */\n    tag_193:\n        /* \"#utility.yul\":14400:14434   */\n      0x506f6c69637920616c72656164792065786973747320666f7220746869732061\n        /* \"#utility.yul\":14396:14397   */\n      0x00\n        /* \"#utility.yul\":14388:14394   */\n      dup3\n        /* \"#utility.yul\":14384:14398   */\n      add\n        /* \"#utility.yul\":14377:14435   */\n      mstore\n        /* \"#utility.yul\":14469:14477   */\n      0x6464726573730000000000000000000000000000000000000000000000000000\n        /* \"#utility.yul\":14464:14466   */\n      0x20\n        /* \"#utility.yul\":14456:14462   */\n      dup3\n        /* \"#utility.yul\":14452:14467   */\n      add\n        /* \"#utility.yul\":14445:14478   */\n      mstore\n        /* \"#utility.yul\":14260:14485   */\n      pop\n      jump\t// out\n        /* \"#utility.yul\":14491:14857   */\n    tag_194:\n        /* \"#utility.yul\":14633:14636   */\n      0x00\n        /* \"#utility.yul\":14654:14721   */\n      tag_323\n        /* \"#utility.yul\":14718:14720   */\n      0x26\n        /* \"#utility.yul\":14713:14716   */\n      dup4\n        /* \"#utility.yul\":14654:14721   */\n      tag_180\n      jump\t// in\n    tag_323:\n        /* \"#utility.yul\":14647:14721   */\n      swap2\n      pop\n        /* \"#utility.yul\":14730:14823   */\n      tag_324\n        /* \"#utility.yul\":14819:14822   */\n      dup3\n        /* \"#utility.yul\":14730:14823   */\n      tag_193\n      jump\t// in\n    tag_324:\n        /* \"#utility.yul\":14848:14850   */\n      0x40\n        /* \"#utility.yul\":14843:14846   */\n      dup3\n        /* \"#utility.yul\":14839:14851   */\n      add\n        /* \"#utility.yul\":14832:14851   */\n      swap1\n      pop\n        /* \"#utility.yul\":14491:14857   */\n      swap2\n      swap1\n      pop\n      jump\t// out\n        /* \"#utility.yul\":14863:15282   */\n    tag_56:\n        /* \"#utility.yul\":15029:15033   */\n      0x00\n        /* \"#utility.yul\":15067:15069   */\n      0x20\n        /* \"#utility.yul\":15056:15065   */\n      dup3\n        /* \"#utility.yul\":15052:15070   */\n      add\n        /* \"#utility.yul\":15044:15070   */\n      swap1\n      pop\n        /* \"#utility.yul\":15116:15125   */\n      dup2\n        /* \"#utility.yul\":15110:15114   */\n      dup2\n        /* \"#utility.yul\":15106:15126   */\n      sub\n        /* \"#utility.yul\":15102:15103   */\n      0x00\n        /* \"#utility.yul\":15091:15100   */\n      dup4\n        /* \"#utility.yul\":15087:15104   */\n      add\n        /* \"#utility.yul\":15080:15127   */\n      mstore\n        /* \"#utility.yul\":15144:15275   */\n      tag_326\n        /* \"#utility.yul\":15270:15274   */\n      dup2\n        /* \"#utility.yul\":15144:15275   */\n      tag_194\n      jump\t// in\n    tag_326:\n        /* \"#utility.yul\":15136:15275   */\n      swap1\n      pop\n        /* \"#utility.yul\":14863:15282   */\n      swap2\n      swap1\n      pop\n      jump\t// out\n        /* \"#utility.yul\":15288:15468   */\n    tag_115:\n        /* \"#utility.yul\":15336:15413   */\n      0x4e487b7100000000000000000000000000000000000000000000000000000000\n        /* \"#utility.yul\":15333:15334   */\n      0x00\n        /* \"#utility.yul\":15326:15414   */\n      mstore\n        /* \"#utility.yul\":15433:15437   */\n      0x41\n        /* \"#utility.yul\":15430:15431   */\n      0x04\n        /* \"#utility.yul\":15423:15438   */\n      mstore\n        /* \"#utility.yul\":15457:15461   */\n      0x24\n        /* \"#utility.yul\":15454:15455   */\n      0x00\n        /* \"#utility.yul\":15447:15462   */\n      revert\n        /* \"#utility.yul\":15474:15654   */\n    tag_195:\n        /* \"#utility.yul\":15522:15599   */\n      0x4e487b7100000000000000000000000000000000000000000000000000000000\n        /* \"#utility.yul\":15519:15520   */\n      0x00\n        /* \"#utility.yul\":15512:15600   */\n      mstore\n        /* \"#utility.yul\":15619:15623   */\n      0x22\n        /* \"#utility.yul\":15616:15617   */\n      0x04\n        /* \"#utility.yul\":15609:15624   */\n      mstore\n        /* \"#utility.yul\":15643:15647   */\n      0x24\n        /* \"#utility.yul\":15640:15641   */\n      0x00\n        /* \"#utility.yul\":15633:15648   */\n      revert\n        /* \"#utility.yul\":15660:15980   */\n    tag_76:\n        /* \"#utility.yul\":15704:15710   */\n      0x00\n        /* \"#utility.yul\":15741:15742   */\n      0x02\n        /* \"#utility.yul\":15735:15739   */\n      dup3\n        /* \"#utility.yul\":15731:15743   */\n      div\n        /* \"#utility.yul\":15721:15743   */\n      swap1\n      pop\n        /* \"#utility.yul\":15788:15789   */\n      0x01\n        /* \"#utility.yul\":15782:15786   */\n      dup3\n        /* \"#utility.yul\":15778:15790   */\n      and\n        /* \"#utility.yul\":15809:15827   */\n      dup1\n        /* \"#utility.yul\":15799:15880   */\n      tag_330\n      jumpi\n        /* \"#utility.yul\":15865:15869   */\n      0x7f\n        /* \"#utility.yul\":15857:15863   */\n      dup3\n        /* \"#utility.yul\":15853:15870   */\n      and\n        /* \"#utility.yul\":15843:15870   */\n      swap2\n      pop\n        /* \"#utility.yul\":15799:15880   */\n    tag_330:\n        /* \"#utility.yul\":15927:15929   */\n      0x20\n        /* \"#utility.yul\":15919:15925   */\n      dup3\n        /* \"#utility.yul\":15916:15930   */\n      lt\n        /* \"#utility.yul\":15896:15914   */\n      dup2\n        /* \"#utility.yul\":15893:15931   */\n      sub\n        /* \"#utility.yul\":15890:15974   */\n      tag_331\n      jumpi\n        /* \"#utility.yul\":15946:15964   */\n      tag_332\n      tag_195\n      jump\t// in\n    tag_332:\n        /* \"#utility.yul\":15890:15974   */\n    tag_331:\n        /* \"#utility.yul\":15711:15980   */\n      pop\n        /* \"#utility.yul\":15660:15980   */\n      swap2\n      swap1\n      pop\n      jump\t// out\n        /* \"#utility.yul\":15986:16127   */\n    tag_196:\n        /* \"#utility.yul\":16035:16039   */\n      0x00\n        /* \"#utility.yul\":16058:16061   */\n      dup2\n        /* \"#utility.yul\":16050:16061   */\n      swap1\n      pop\n        /* \"#utility.yul\":16081:16084   */\n      dup2\n        /* \"#utility.yul\":16078:16079   */\n      0x00\n        /* \"#utility.yul\":16071:16085   */\n      mstore\n        /* \"#utility.yul\":16115:16119   */\n      0x20\n        /* \"#utility.yul\":16112:16113   */\n      0x00\n        /* \"#utility.yul\":16102:16120   */\n      keccak256\n        /* \"#utility.yul\":16094:16120   */\n      swap1\n      pop\n        /* \"#utility.yul\":15986:16127   */\n      swap2\n      swap1\n      pop\n      jump\t// out\n        /* \"#utility.yul\":16133:16226   */\n    tag_197:\n        /* \"#utility.yul\":16170:16176   */\n      0x00\n        /* \"#utility.yul\":16217:16219   */\n      0x20\n        /* \"#utility.yul\":16212:16214   */\n      0x1f\n        /* \"#utility.yul\":16205:16210   */\n      dup4\n        /* \"#utility.yul\":16201:16215   */\n      add\n        /* \"#utility.yul\":16197:16220   */\n      div\n        /* \"#utility.yul\":16187:16220   */\n      swap1\n      pop\n        /* \"#utility.yul\":16133:16226   */\n      swap2\n      swap1\n      pop\n      jump\t// out\n        /* \"#utility.yul\":16232:16339   */\n    tag_198:\n        /* \"#utility.yul\":16276:16284   */\n      0x00\n        /* \"#utility.yul\":16326:16331   */\n      dup3\n        /* \"#utility.yul\":16320:16324   */\n      dup3\n        /* \"#utility.yul\":16316:16332   */\n      shl\n        /* \"#utility.yul\":16295:16332   */\n      swap1\n      pop\n        /* \"#utility.yul\":16232:16339   */\n      swap3\n      swap2\n      pop\n      pop\n      jump\t// out\n        /* \"#utility.yul\":16345:16738   */\n    tag_199:\n        /* \"#utility.yul\":16414:16420   */\n      0x00\n        /* \"#utility.yul\":16464:16465   */\n      0x08\n        /* \"#utility.yul\":16452:16462   */\n      dup4\n        /* \"#utility.yul\":16448:16466   */\n      mul\n        /* \"#utility.yul\":16487:16584   */\n      tag_337\n        /* \"#utility.yul\":16517:16583   */\n      0xffffffffffffffffffffffffffffffffffffffffffffffffffffffffffffffff\n        /* \"#utility.yul\":16506:16515   */\n      dup3\n        /* \"#utility.yul\":16487:16584   */\n      tag_198\n      jump\t// in\n    tag_337:\n        /* \"#utility.yul\":16605:16644   */\n      tag_338\n        /* \"#utility.yul\":16635:16643   */\n      dup7\n        /* \"#utility.yul\":16624:16633   */\n      dup4\n        /* \"#utility.yul\":16605:16644   */\n      tag_198\n      jump\t// in\n    tag_338:\n        /* \"#utility.yul\":16593:16644   */\n      swap6\n      pop\n        /* \"#utility.yul\":16677:16681   */\n      dup1\n        /* \"#utility.yul\":16673:16682   */\n      not\n        /* \"#utility.yul\":16666:16671   */\n      dup5\n        /* \"#utility.yul\":16662:16683   */\n      and\n        /* \"#utility.yul\":16653:16683   */\n      swap4\n      pop\n        /* \"#utility.yul\":16726:16730   */\n      dup1\n        /* \"#utility.yul\":16716:16724   */\n      dup7\n        /* \"#utility.yul\":16712:16731   */\n      and\n        /* \"#utility.yul\":16705:16710   */\n      dup5\n        /* \"#utility.yul\":16702:16732   */\n      or\n        /* \"#utility.yul\":16692:16732   */\n      swap3\n      pop\n        /* \"#utility.yul\":16421:16738   */\n      pop\n      pop\n        /* \"#utility.yul\":16345:16738   */\n      swap4\n      swap3\n      pop\n      pop\n      pop\n      jump\t// out\n        /* \"#utility.yul\":16744:16804   */\n    tag_200:\n        /* \"#utility.yul\":16772:16775   */\n      0x00\n        /* \"#utility.yul\":16793:16798   */\n      dup2\n        /* \"#utility.yul\":16786:16798   */\n      swap1\n      pop\n        /* \"#utility.yul\":16744:16804   */\n      swap2\n      swap1\n      pop\n      jump\t// out\n        /* \"#utility.yul\":16810:16952   */\n    tag_201:\n        /* \"#utility.yul\":16860:16869   */\n      0x00\n        /* \"#utility.yul\":16893:16946   */\n      tag_341\n        /* \"#utility.yul\":16911:16945   */\n      tag_342\n        /* \"#utility.yul\":16920:16944   */\n      tag_343\n        /* \"#utility.yul\":16938:16943   */\n      dup5\n        /* \"#utility.yul\":16920:16944   */\n      tag_189\n      jump\t// in\n    tag_343:\n        /* \"#utility.yul\":16911:16945   */\n      tag_200\n      jump\t// in\n    tag_342:\n        /* \"#utility.yul\":16893:16946   */\n      tag_189\n      jump\t// in\n    tag_341:\n        /* \"#utility.yul\":16880:16946   */\n      swap1\n      pop\n        /* \"#utility.yul\":16810:16952   */\n      swap2\n      swap1\n      pop\n      jump\t// out\n        /* \"#utility.yul\":16958:17033   */\n    tag_202:\n        /* \"#utility.yul\":17001:17004   */\n      0x00\n        /* \"#utility.yul\":17022:17027   */\n      dup2\n        /* \"#utility.yul\":17015:17027   */\n      swap1\n      pop\n        /* \"#utility.yul\":16958:17033   */\n      swap2\n      swap1\n      pop\n      jump\t// out\n        /* \"#utility.yul\":17039:17308   */\n    tag_203:\n        /* \"#utility.yul\":17149:17188   */\n      tag_346\n        /* \"#utility.yul\":17180:17187   */\n      dup4\n        /* \"#utility.yul\":17149:17188   */\n      tag_201\n      jump\t// in\n    tag_346:\n        /* \"#utility.yul\":17210:17301   */\n      tag_347\n        /* \"#utility.yul\":17259:17300   */\n      tag_348\n        /* \"#utility.yul\":17283:17299   */\n      dup3\n        /* \"#utility.yul\":17259:17300   */\n      tag_202\n      jump\t// in\n    tag_348:\n        /* \"#utility.yul\":17251:17257   */\n      dup5\n        /* \"#utility.yul\":17244:17248   */\n      dup5\n        /* \"#utility.yul\":17238:17249   */\n      sload\n        /* \"#utility.yul\":17210:17301   */\n      tag_199\n      jump\t// in\n    tag_347:\n        /* \"#utility.yul\":17204:17208   */\n      dup3\n        /* \"#utility.yul\":17197:17302   */\n      sstore\n        /* \"#utility.yul\":17115:17308   */\n      pop\n        /* \"#utility.yul\":17039:17308   */\n      pop\n      pop\n      pop\n      jump\t// out\n        /* \"#utility.yul\":17314:17387   */\n    tag_204:\n        /* \"#utility.yul\":17359:17362   */\n      0x00\n        /* \"#utility.yul\":17314:17387   */\n      swap1\n      jump\t// out\n        /* \"#utility.yul\":17393:17582   */\n    tag_205:\n        /* \"#utility.yul\":17470:17502   */\n      tag_351\n      tag_204\n      jump\t// in\n    tag_351:\n        /* \"#utility.yul\":17511:17576   */\n      tag_352\n        /* \"#utility.yul\":17569:17575   */\n      dup2\n        /* \"#utility.yul\":17561:17567   */\n      dup5\n        /* \"#utility.yul\":17555:17559   */\n      dup5\n        /* \"#utility.yul\":17511:17576   */\n      tag_203\n      jump\t// in\n    tag_352:\n        /* \"#utility.yul\":17446:17582   */\n      pop\n        /* \"#utility.yul\":17393:17582   */\n      pop\n      pop\n      jump\t// out\n        /* \"#utility.yul\":17588:17774   */\n    tag_206:\n        /* \"#utility.yul\":17648:17768   */\n    tag_354:\n        /* \"#utility.yul\":17665:17668   */\n      dup2\n        /* \"#utility.yul\":17658:17663   */\n      dup2\n        /* \"#utility.yul\":17655:17669   */\n      lt\n        /* \"#utility.yul\":17648:17768   */\n      iszero\n      tag_356\n      jumpi\n        /* \"#utility.yul\":17719:17758   */\n      tag_357\n        /* \"#utility.yul\":17756:17757   */\n      0x00\n        /* \"#utility.yul\":17749:17754   */\n      dup3\n        /* \"#utility.yul\":17719:17758   */\n      tag_205\n      jump\t// in\n    tag_357:\n        /* \"#utility.yul\":17692:17693   */\n      0x01\n        /* \"#utility.yul\":17685:17690   */\n      dup2\n        /* \"#utility.yul\":17681:17694   */\n      add\n        /* \"#utility.yul\":17672:17694   */\n      swap1\n      pop\n        /* \"#utility.yul\":17648:17768   */\n      jump(tag_354)\n    tag_356:\n        /* \"#utility.yul\":17588:17774   */\n      pop\n      pop\n      jump\t// out\n        /* \"#utility.yul\":17780:18323   */\n    tag_207:\n        /* \"#utility.yul\":17881:17883   */\n      0x1f\n        /* \"#utility.yul\":17876:17879   */\n      dup3\n        /* \"#utility.yul\":17873:17884   */\n      gt\n        /* \"#utility.yul\":17870:18316   */\n      iszero\n      tag_359\n      jumpi\n        /* \"#utility.yul\":17915:17953   */\n      tag_360\n        /* \"#utility.yul\":17947:17952   */\n      dup2\n        /* \"#utility.yul\":17915:17953   */\n      tag_196\n      jump\t// in\n    tag_360:\n        /* \"#utility.yul\":17999:18028   */\n      tag_361\n        /* \"#utility.yul\":18017:18027   */\n      dup5\n        /* \"#utility.yul\":17999:18028   */\n      tag_197\n      jump\t// in\n    tag_361:\n        /* \"#utility.yul\":17989:17997   */\n      dup2\n        /* \"#utility.yul\":17985:18029   */\n      add\n        /* \"#utility.yul\":18182:18184   */\n      0x20\n        /* \"#utility.yul\":18170:18180   */\n      dup6\n        /* \"#utility.yul\":18167:18185   */\n      lt\n        /* \"#utility.yul\":18164:18213   */\n      iszero\n      tag_362\n      jumpi\n        /* \"#utility.yul\":18203:18211   */\n      dup2\n        /* \"#utility.yul\":18188:18211   */\n      swap1\n      pop\n        /* \"#utility.yul\":18164:18213   */\n    tag_362:\n        /* \"#utility.yul\":18226:18306   */\n      tag_363\n        /* \"#utility.yul\":18282:18304   */\n      tag_364\n        /* \"#utility.yul\":18300:18303   */\n      dup6\n        /* \"#utility.yul\":18282:18304   */\n      tag_197\n      jump\t// in\n    tag_364:\n        /* \"#utility.yul\":18272:18280   */\n      dup4\n        /* \"#utility.yul\":18268:18305   */\n      add\n        /* \"#utility.yul\":18255:18266   */\n      dup3\n        /* \"#utility.yul\":18226:18306   */\n      tag_206\n      jump\t// in\n    tag_363:\n        /* \"#utility.yul\":17885:18316   */\n      pop\n      pop\n        /* \"#utility.yul\":17870:18316   */\n    tag_359:\n        /* \"#utility.yul\":17780:18323   */\n      pop\n      pop\n      pop\n      jump\t// out\n        /* \"#utility.yul\":18329:18446   */\n    tag_208:\n        /* \"#utility.yul\":18383:18391   */\n      0x00\n        /* \"#utility.yul\":18433:18438   */\n      dup3\n        /* \"#utility.yul\":18427:18431   */\n      dup3\n        /* \"#utility.yul\":18423:18439   */\n      shr\n        /* \"#utility.yul\":18402:18439   */\n      swap1\n      pop\n        /* \"#utility.yul\":18329:18446   */\n      swap3\n      swap2\n      pop\n      pop\n      jump\t// out\n        /* \"#utility.yul\":18452:18621   */\n    tag_209:\n        /* \"#utility.yul\":18496:18502   */\n      0x00\n        /* \"#utility.yul\":18529:18580   */\n      tag_367\n        /* \"#utility.yul\":18577:18578   */\n      0x00\n        /* \"#utility.yul\":18573:18579   */\n      not\n        /* \"#utility.yul\":18565:18570   */\n      dup5\n        /* \"#utility.yul\":18562:18563   */\n      0x08\n        /* \"#utility.yul\":18558:18571   */\n      mul\n        /* \"#utility.yul\":18529:18580   */\n      tag_208\n      jump\t// in\n    tag_367:\n        /* \"#utility.yul\":18525:18581   */\n      not\n        /* \"#utility.yul\":18610:18614   */\n      dup1\n        /* \"#utility.yul\":18604:18608   */\n      dup4\n        /* \"#utility.yul\":18600:18615   */\n      and\n        /* \"#utility.yul\":18590:18615   */\n      swap2\n      pop\n        /* \"#utility.yul\":18503:18621   */\n      pop\n        /* \"#utility.yul\":18452:18621   */\n      swap3\n      swap2\n      pop\n      pop\n      jump\t// out\n        /* \"#utility.yul\":18626:18921   */\n    tag_210:\n        /* \"#utility.yul\":18702:18706   */\n      0x00\n        /* \"#utility.yul\":18848:18877   */\n      tag_369\n        /* \"#utility.yul\":18873:18876   */\n      dup4\n        /* \"#utility.yul\":18867:18871   */\n      dup4\n        /* \"#utility.yul\":18848:18877   */\n      tag_209\n      jump\t// in\n    tag_369:\n        /* \"#utility.yul\":18840:18877   */\n      swap2\n      pop\n        /* \"#utility.yul\":18910:18913   */\n      dup3\n        /* \"#utility.yul\":18907:18908   */\n      0x02\n        /* \"#utility.yul\":18903:18914   */\n      mul\n        /* \"#utility.yul\":18897:18901   */\n      dup3\n        /* \"#utility.yul\":18894:18915   */\n      or\n        /* \"#utility.yul\":18886:18915   */\n      swap1\n      pop\n        /* \"#utility.yul\":18626:18921   */\n      swap3\n      swap2\n      pop\n      pop\n      jump\t// out\n        /* \"#utility.yul\":18926:20321   */\n    tag_58:\n        /* \"#utility.yul\":19043:19080   */\n      tag_371\n        /* \"#utility.yul\":19076:19079   */\n      dup3\n        /* \"#utility.yul\":19043:19080   */\n      tag_170\n      jump\t// in\n    tag_371:\n        /* \"#utility.yul\":19145:19163   */\n      0xffffffffffffffff\n        /* \"#utility.yul\":19137:19143   */\n      dup2\n        /* \"#utility.yul\":19134:19164   */\n      gt\n        /* \"#utility.yul\":19131:19187   */\n      iszero\n      tag_372\n      jumpi\n        /* \"#utility.yul\":19167:19185   */\n      tag_373\n      tag_115\n      jump\t// in\n    tag_373:\n        /* \"#utility.yul\":19131:19187   */\n    tag_372:\n        /* \"#utility.yul\":19211:19249   */\n      tag_374\n        /* \"#utility.yul\":19243:19247   */\n      dup3\n        /* \"#utility.yul\":19237:19248   */\n      sload\n        /* \"#utility.yul\":19211:19249   */\n      tag_76\n      jump\t// in\n    tag_374:\n        /* \"#utility.yul\":19296:19363   */\n      tag_375\n        /* \"#utility.yul\":19356:19362   */\n      dup3\n        /* \"#utility.yul\":19348:19354   */\n      dup3\n        /* \"#utility.yul\":19342:19346   */\n      dup6\n        /* \"#utility.yul\":19296:19363   */\n      tag_207\n      jump\t// in\n    tag_375:\n        /* \"#utility.yul\":19390:19391   */\n      0x00\n        /* \"#utility.yul\":19414:19418   */\n      0x20\n        /* \"#utility.yul\":19401:19418   */\n      swap1\n      pop\n        /* \"#utility.yul\":19446:19448   */\n      0x1f\n        /* \"#utility.yul\":19438:19444   */\n      dup4\n        /* \"#utility.yul\":19435:19449   */\n      gt\n        /* \"#utility.yul\":19463:19464   */\n      0x01\n        /* \"#utility.yul\":19458:20076   */\n      dup2\n      eq\n      tag_377\n      jumpi\n        /* \"#utility.yul\":20120:20121   */\n      0x00\n        /* \"#utility.yul\":20137:20143   */\n      dup5\n        /* \"#utility.yul\":20134:20211   */\n      iszero\n      tag_378\n      jumpi\n        /* \"#utility.yul\":20186:20195   */\n      dup3\n        /* \"#utility.yul\":20181:20184   */\n      dup8\n        /* \"#utility.yul\":20177:20196   */\n      add\n        /* \"#utility.yul\":20171:20197   */\n      mload\n        /* \"#utility.yul\":20162:20197   */\n      swap1\n      pop\n        /* \"#utility.yul\":20134:20211   */\n    tag_378:\n        /* \"#utility.yul\":20237:20304   */\n      tag_379\n        /* \"#utility.yul\":20297:20303   */\n      dup6\n        /* \"#utility.yul\":20290:20295   */\n      dup3\n        /* \"#utility.yul\":20237:20304   */\n      tag_210\n      jump\t// in\n    tag_379:\n        /* \"#utility.yul\":20231:20235   */\n      dup7\n        /* \"#utility.yul\":20224:20305   */\n      sstore\n        /* \"#utility.yul\":20093:20315   */\n      pop\n        /* \"#utility.yul\":19428:20315   */\n      jump(tag_376)\n        /* \"#utility.yul\":19458:20076   */\n    tag_377:\n        /* \"#utility.yul\":19510:19514   */\n      0x1f\n        /* \"#utility.yul\":19506:19515   */\n      not\n        /* \"#utility.yul\":19498:19504   */\n      dup5\n        /* \"#utility.yul\":19494:19516   */\n      and\n        /* \"#utility.yul\":19544:19581   */\n      tag_380\n        /* \"#utility.yul\":19576:19580   */\n      dup7\n        /* \"#utility.yul\":19544:19581   */\n      tag_196\n      jump\t// in\n    tag_380:\n        /* \"#utility.yul\":19603:19604   */\n      0x00\n        /* \"#utility.yul\":19617:19825   */\n    tag_381:\n        /* \"#utility.yul\":19631:19638   */\n      dup3\n        /* \"#utility.yul\":19628:19629   */\n      dup2\n        /* \"#utility.yul\":19625:19639   */\n      lt\n        /* \"#utility.yul\":19617:19825   */\n      iszero\n      tag_383\n      jumpi\n        /* \"#utility.yul\":19710:19719   */\n      dup5\n        /* \"#utility.yul\":19705:19708   */\n      dup10\n        /* \"#utility.yul\":19701:19720   */\n      add\n        /* \"#utility.yul\":19695:19721   */\n      mload\n        /* \"#utility.yul\":19687:19693   */\n      dup3\n        /* \"#utility.yul\":19680:19722   */\n      sstore\n        /* \"#utility.yul\":19761:19762   */\n      0x01\n        /* \"#utility.yul\":19753:19759   */\n      dup3\n        /* \"#utility.yul\":19749:19763   */\n      add\n        /* \"#utility.yul\":19739:19763   */\n      swap2\n      pop\n        /* \"#utility.yul\":19808:19810   */\n      0x20\n        /* \"#utility.yul\":19797:19806   */\n      dup6\n        /* \"#utility.yul\":19793:19811   */\n      add\n        /* \"#utility.yul\":19780:19811   */\n      swap5\n      pop\n        /* \"#utility.yul\":19654:19658   */\n      0x20\n        /* \"#utility.yul\":19651:19652   */\n      dup2\n        /* \"#utility.yul\":19647:19659   */\n      add\n        /* \"#utility.yul\":19642:19659   */\n      swap1\n      pop\n        /* \"#utility.yul\":19617:19825   */\n      jump(tag_381)\n    tag_383:\n        /* \"#utility.yul\":19853:19859   */\n      dup7\n        /* \"#utility.yul\":19844:19851   */\n      dup4\n        /* \"#utility.yul\":19841:19860   */\n      lt\n        /* \"#utility.yul\":19838:20017   */\n      iszero\n      tag_384\n      jumpi\n        /* \"#utility.yul\":19911:19920   */\n      dup5\n        /* \"#utility.yul\":19906:19909   */\n      dup10\n        /* \"#utility.yul\":19902:19921   */\n      add\n        /* \"#utility.yul\":19896:19922   */\n      mload\n        /* \"#utility.yul\":19954:20002   */\n      tag_385\n        /* \"#utility.yul\":19996:20000   */\n      0x1f\n        /* \"#utility.yul\":19988:19994   */\n      dup10\n        /* \"#utility.yul\":19984:20001   */\n      and\n        /* \"#utility.yul\":19973:19982   */\n      dup3\n        /* \"#utility.yul\":19954:20002   */\n      tag_209\n      jump\t// in\n    tag_385:\n        /* \"#utility.yul\":19946:19952   */\n      dup4\n        /* \"#utility.yul\":19939:20003   */\n      sstore\n        /* \"#utility.yul\":19861:20017   */\n      pop\n        /* \"#utility.yul\":19838:20017   */\n    tag_384:\n        /* \"#utility.yul\":20063:20064   */\n      0x01\n        /* \"#utility.yul\":20059:20060   */\n      0x02\n        /* \"#utility.yul\":20051:20057   */\n      dup9\n        /* \"#utility.yul\":20047:20061   */\n      mul\n        /* \"#utility.yul\":20043:20065   */\n      add\n        /* \"#utility.yul\":20037:20041   */\n      dup9\n        /* \"#utility.yul\":20030:20066   */\n      sstore\n        /* \"#utility.yul\":19465:20076   */\n      pop\n      pop\n      pop\n        /* \"#utility.yul\":19428:20315   */\n    tag_376:\n      pop\n        /* \"#utility.yul\":19018:20321   */\n      pop\n      pop\n      pop\n        /* \"#utility.yul\":18926:20321   */\n      pop\n      pop\n      jump\t// out\n        /* \"#utility.yul\":20327:20492   */\n    tag_211:\n        /* \"#utility.yul\":20467:20484   */\n      0x4e6f20706f6c69637920666f756e640000000000000000000000000000000000\n        /* \"#utility.yul\":20463:20464   */\n      0x00\n        /* \"#utility.yul\":20455:20461   */\n      dup3\n        /* \"#utility.yul\":20451:20465   */\n      add\n        /* \"#utility.yul\":20444:20485   */\n      mstore\n        /* \"#utility.yul\":20327:20492   */\n      pop\n      jump\t// out\n        /* \"#utility.yul\":20498:20864   */\n    tag_212:\n        /* \"#utility.yul\":20640:20643   */\n      0x00\n        /* \"#utility.yul\":20661:20728   */\n      tag_388\n        /* \"#utility.yul\":20725:20727   */\n      0x0f\n        /* \"#utility.yul\":20720:20723   */\n      dup4\n        /* \"#utility.yul\":20661:20728   */\n      tag_180\n      jump\t// in\n    tag_388:\n        /* \"#utility.yul\":20654:20728   */\n      swap2\n      pop\n        /* \"#utility.yul\":20737:20830   */\n      tag_389\n        /* \"#utility.yul\":20826:20829   */\n      dup3\n        /* \"#utility.yul\":20737:20830   */\n      tag_211\n      jump\t// in\n    tag_389:\n        /* \"#utility.yul\":20855:20857   */\n      0x20\n        /* \"#utility.yul\":20850:20853   */\n      dup3\n        /* \"#utility.yul\":20846:20858   */\n      add\n        /* \"#utility.yul\":20839:20858   */\n      swap1\n      pop\n        /* \"#utility.yul\":20498:20864   */\n      swap2\n      swap1\n      pop\n      jump\t// out\n        /* \"#utility.yul\":20870:21289   */\n    tag_74:\n        /* \"#utility.yul\":21036:21040   */\n      0x00\n        /* \"#utility.yul\":21074:21076   */\n      0x20\n        /* \"#utility.yul\":21063:21072   */\n      dup3\n        /* \"#utility.yul\":21059:21077   */\n      add\n        /* \"#utility.yul\":21051:21077   */\n      swap1\n      pop\n        /* \"#utility.yul\":21123:21132   */\n      dup2\n        /* \"#utility.yul\":21117:21121   */\n      dup2\n        /* \"#utility.yul\":21113:21133   */\n      sub\n        /* \"#utility.yul\":21109:21110   */\n      0x00\n        /* \"#utility.yul\":21098:21107   */\n      dup4\n        /* \"#utility.yul\":21094:21111   */\n      add\n        /* \"#utility.yul\":21087:21134   */\n      mstore\n        /* \"#utility.yul\":21151:21282   */\n      tag_391\n        /* \"#utility.yul\":21277:21281   */\n      dup2\n        /* \"#utility.yul\":21151:21282   */\n      tag_212\n      jump\t// in\n    tag_391:\n        /* \"#utility.yul\":21143:21282   */\n      swap1\n      pop\n        /* \"#utility.yul\":20870:21289   */\n      swap2\n      swap1\n      pop\n      jump\t// out\n        /* \"#utility.yul\":21295:21518   */\n    tag_213:\n        /* \"#utility.yul\":21435:21469   */\n      0x43616c6c6572206973206e6f742074686520696e737572616e63652070726f76\n        /* \"#utility.yul\":21431:21432   */\n      0x00\n        /* \"#utility.yul\":21423:21429   */\n      dup3\n        /* \"#utility.yul\":21419:21433   */\n      add\n        /* \"#utility.yul\":21412:21470   */\n      mstore\n        /* \"#utility.yul\":21504:21510   */\n      0x6964657200000000000000000000000000000000000000000000000000000000\n        /* \"#utility.yul\":21499:21501   */\n      0x20\n        /* \"#utility.yul\":21491:21497   */\n      dup3\n        /* \"#utility.yul\":21487:21502   */\n      add\n        /* \"#utility.yul\":21480:21511   */\n      mstore\n        /* \"#utility.yul\":21295:21518   */\n      pop\n      jump\t// out\n        /* \"#utility.yul\":21524:21890   */\n    tag_214:\n        /* \"#utility.yul\":21666:21669   */\n      0x00\n        /* \"#utility.yul\":21687:21754   */\n      tag_394\n        /* \"#utility.yul\":21751:21753   */\n      0x24\n        /* \"#utility.yul\":21746:21749   */\n      dup4\n        /* \"#utility.yul\":21687:21754   */\n      tag_180\n      jump\t// in\n    tag_394:\n        /* \"#utility.yul\":21680:21754   */\n      swap2\n      pop\n        /* \"#utility.yul\":21763:21856   */\n      tag_395\n        /* \"#utility.yul\":21852:21855   */\n      dup3\n        /* \"#utility.yul\":21763:21856   */\n      tag_213\n      jump\t// in\n    tag_395:\n        /* \"#utility.yul\":21881:21883   */\n      0x40\n        /* \"#utility.yul\":21876:21879   */\n      dup3\n        /* \"#utility.yul\":21872:21884   */\n      add\n        /* \"#utility.yul\":21865:21884   */\n      swap1\n      pop\n        /* \"#utility.yul\":21524:21890   */\n      swap2\n      swap1\n      pop\n      jump\t// out\n        /* \"#utility.yul\":21896:22315   */\n    tag_111:\n        /* \"#utility.yul\":22062:22066   */\n      0x00\n        /* \"#utility.yul\":22100:22102   */\n      0x20\n        /* \"#utility.yul\":22089:22098   */\n      dup3\n        /* \"#utility.yul\":22085:22103   */\n      add\n        /* \"#utility.yul\":22077:22103   */\n      swap1\n      pop\n        /* \"#utility.yul\":22149:22158   */\n      dup2\n        /* \"#utility.yul\":22143:22147   */\n      dup2\n        /* \"#utility.yul\":22139:22159   */\n      sub\n        /* \"#utility.yul\":22135:22136   */\n      0x00\n        /* \"#utility.yul\":22124:22133   */\n      dup4\n        /* \"#utility.yul\":22120:22137   */\n      add\n        /* \"#utility.yul\":22113:22160   */\n      mstore\n        /* \"#utility.yul\":22177:22308   */\n      tag_397\n        /* \"#utility.yul\":22303:22307   */\n      dup2\n        /* \"#utility.yul\":22177:22308   */\n      tag_214\n      jump\t// in\n    tag_397:\n        /* \"#utility.yul\":22169:22308   */\n      swap1\n      pop\n        /* \"#utility.yul\":21896:22315   */\n      swap2\n      swap1\n      pop\n      jump\t// out\n        /* \"#utility.yul\":22321:22501   */\n    tag_124:\n        /* \"#utility.yul\":22369:22446   */\n      0x4e487b7100000000000000000000000000000000000000000000000000000000\n        /* \"#utility.yul\":22366:22367   */\n      0x00\n        /* \"#utility.yul\":22359:22447   */\n      mstore\n        /* \"#utility.yul\":22466:22470   */\n      0x32\n        /* \"#utility.yul\":22463:22464   */\n      0x04\n        /* \"#utility.yul\":22456:22471   */\n      mstore\n        /* \"#utility.yul\":22490:22494   */\n      0x24\n        /* \"#utility.yul\":22487:22488   */\n      0x00\n        /* \"#utility.yul\":22480:22495   */\n      revert\n        /* \"#utility.yul\":22507:22688   */\n    tag_215:\n        /* \"#utility.yul\":22647:22680   */\n      0x5265656e7472616e637947756172643a207265656e7472616e742063616c6c00\n        /* \"#utility.yul\":22643:22644   */\n      0x00\n        /* \"#utility.yul\":22635:22641   */\n      dup3\n        /* \"#utility.yul\":22631:22645   */\n      add\n        /* \"#utility.yul\":22624:22681   */\n      mstore\n        /* \"#utility.yul\":22507:22688   */\n      pop\n      jump\t// out\n        /* \"#utility.yul\":22694:23060   */\n    tag_216:\n        /* \"#utility.yul\":22836:22839   */\n      0x00\n        /* \"#utility.yul\":22857:22924   */\n      tag_401\n        /* \"#utility.yul\":22921:22923   */\n      0x1f\n        /* \"#utility.yul\":22916:22919   */\n      dup4\n        /* \"#utility.yul\":22857:22924   */\n      tag_180\n      jump\t// in\n    tag_401:\n        /* \"#utility.yul\":22850:22924   */\n      swap2\n      pop\n        /* \"#utility.yul\":22933:23026   */\n      tag_402\n        /* \"#utility.yul\":23022:23025   */\n      dup3\n        /* \"#utility.yul\":22933:23026   */\n      tag_215\n      jump\t// in\n    tag_402:\n        /* \"#utility.yul\":23051:23053   */\n      0x20\n        /* \"#utility.yul\":23046:23049   */\n      dup3\n        /* \"#utility.yul\":23042:23054   */\n      add\n        /* \"#utility.yul\":23035:23054   */\n      swap1\n      pop\n        /* \"#utility.yul\":22694:23060   */\n      swap2\n      swap1\n      pop\n      jump\t// out\n        /* \"#utility.yul\":23066:23485   */\n    tag_161:\n        /* \"#utility.yul\":23232:23236   */\n      0x00\n        /* \"#utility.yul\":23270:23272   */\n      0x20\n        /* \"#utility.yul\":23259:23268   */\n      dup3\n        /* \"#utility.yul\":23255:23273   */\n      add\n        /* \"#utility.yul\":23247:23273   */\n      swap1\n      pop\n        /* \"#utility.yul\":23319:23328   */\n      dup2\n        /* \"#utility.yul\":23313:23317   */\n      dup2\n        /* \"#utility.yul\":23309:23329   */\n      sub\n        /* \"#utility.yul\":23305:23306   */\n      0x00\n        /* \"#utility.yul\":23294:23303   */\n      dup4\n        /* \"#utility.yul\":23290:23307   */\n      add\n        /* \"#utility.yul\":23283:23330   */\n      mstore\n        /* \"#utility.yul\":23347:23478   */\n      tag_404\n        /* \"#utility.yul\":23473:23477   */\n      dup2\n        /* \"#utility.yul\":23347:23478   */\n      tag_216\n      jump\t// in\n    tag_404:\n        /* \"#utility.yul\":23339:23478   */\n      swap1\n      pop\n        /* \"#utility.yul\":23066:23485   */\n      swap2\n      swap1\n      pop\n      jump\t// out\n    stop\n    data_4bf159073bada66d17cc3712fc1cee9f2cec69077a4c742fbfa958c93dc4231d 5072656d69756d3a20302e3031204554482c20496e64656d6e6974793a20302e3032204554482c20436f7665726167653a204861696c20616e6420666c6f6f642064656c6179732e\n\n    auxdata: 0xa264697066735822122067b6fac692c43503fccae656dafe30e39055e59ed3c809ff4a6e994ec6ac012f64736f6c634300081a0033\n}\n",
				"bytecode": {
					"linkReferences": {},
					"object": "608060405234801561000f575f80fd5b50604051611e4b380380611e4b833981810160405281019061003191906100dc565b60015f819055508060015f6101000a81548173ffffffffffffffffffffffffffffffffffffffff021916908373ffffffffffffffffffffffffffffffffffffffff16021790555050610107565b5f80fd5b5f73ffffffffffffffffffffffffffffffffffffffff82169050919050565b5f6100ab82610082565b9050919050565b6100bb816100a1565b81146100c5575f80fd5b50565b5f815190506100d6816100b2565b92915050565b5f602082840312156100f1576100f061007e565b5b5f6100fe848285016100c8565b91505092915050565b611d37806101145f395ff3fe60806040526004361061007a575f3560e01c8063b6fc3b2a1161004d578063b6fc3b2a14610104578063c160693d1461012e578063cd95e77714610158578063ea3696ca146101825761007a565b80635d02ed121461007e578063963163bd1461009a5780639955f67c146100c4578063a75ac608146100ee575b5f80fd5b61009860048036038101906100939190611222565b6101ac565b005b3480156100a5575f80fd5b506100ae610678565b6040516100bb91906114a4565b60405180910390f35b3480156100cf575f80fd5b506100d8610b4e565b6040516100e591906114d3565b60405180910390f35b3480156100f9575f80fd5b50610102610b73565b005b34801561010f575f80fd5b50610118610b75565b6040516101259190611534565b60405180910390f35b348015610139575f80fd5b50610142610b95565b60405161014f91906116cb565b60405180910390f35b348015610163575f80fd5b5061016c6110fb565b6040516101799190611703565b60405180910390f35b34801561018d575f80fd5b50610196611106565b6040516101a39190611703565b60405180910390f35b6101b4611111565b662386f26fc1000034146101fd576040517f08c379a00000000000000000000000000000000000000000000000000000000081526004016101f49061178c565b60405180910390fd5b5f73ffffffffffffffffffffffffffffffffffffffff1660025f3373ffffffffffffffffffffffffffffffffffffffff1673ffffffffffffffffffffffffffffffffffffffff1681526020019081526020015f206001015f9054906101000a900473ffffffffffffffffffffffffffffffffffffffff1673ffffffffffffffffffffffffffffffffffffffff16146102ca576040517f08c379a00000000000000000000000000000000000000000000000000000000081526004016102c19061181a565b60405180910390fd5b6040518060e001604052808b8b8080601f0160208091040260200160405190810160405280939291908181526020018383808284375f81840152601f19601f8201169050808301925050505050505081526020013373ffffffffffffffffffffffffffffffffffffffff16815260200189898080601f0160208091040260200160405190810160405280939291908181526020018383808284375f81840152601f19601f82011690508083019250505050505050815260200187878080601f0160208091040260200160405190810160405280939291908181526020018383808284375f81840152601f19601f82011690508083019250505050505050815260200185858080601f0160208091040260200160405190810160405280939291908181526020018383808284375f81840152601f19601f82011690508083019250505050505050815260200183838080601f0160208091040260200160405190810160405280939291908181526020018383808284375f81840152601f19601f8201169050808301925050505050505081526020016040518060400160405280600981526020017f707572636861736564000000000000000000000000000000000000000000000081525081525060025f3373ffffffffffffffffffffffffffffffffffffffff1673ffffffffffffffffffffffffffffffffffffffff1681526020019081526020015f205f820151815f0190816104e79190611a5f565b506020820151816001015f6101000a81548173ffffffffffffffffffffffffffffffffffffffff021916908373ffffffffffffffffffffffffffffffffffffffff16021790555060408201518160020190816105439190611a5f565b5060608201518160030190816105599190611a5f565b50608082015181600401908161056f9190611a5f565b5060a08201518160050190816105859190611a5f565b5060c082015181600601908161059b9190611a5f565b50905050600333908060018154018082558091505060019003905f5260205f20015f9091909190916101000a81548173ffffffffffffffffffffffffffffffffffffffff021916908373ffffffffffffffffffffffffffffffffffffffff16021790555060015f9054906101000a900473ffffffffffffffffffffffffffffffffffffffff1673ffffffffffffffffffffffffffffffffffffffff166108fc3490811502906040515f60405180830381858888f19350505050158015610663573d5f803e3d5ffd5b5061066c61115e565b50505050505050505050565b610680611167565b5f73ffffffffffffffffffffffffffffffffffffffff1660025f3373ffffffffffffffffffffffffffffffffffffffff1673ffffffffffffffffffffffffffffffffffffffff1681526020019081526020015f206001015f9054906101000a900473ffffffffffffffffffffffffffffffffffffffff1673ffffffffffffffffffffffffffffffffffffffff160361074d576040517f08c379a000000000000000000000000000000000000000000000000000000000815260040161074490611b78565b60405180910390fd5b60025f3373ffffffffffffffffffffffffffffffffffffffff1673ffffffffffffffffffffffffffffffffffffffff1681526020019081526020015f206040518060e00160405290815f820180546107a490611892565b80601f01602080910402602001604051908101604052809291908181526020018280546107d090611892565b801561081b5780601f106107f25761010080835404028352916020019161081b565b820191905f5260205f20905b8154815290600101906020018083116107fe57829003601f168201915b50505050508152602001600182015f9054906101000a900473ffffffffffffffffffffffffffffffffffffffff1673ffffffffffffffffffffffffffffffffffffffff1673ffffffffffffffffffffffffffffffffffffffff16815260200160028201805461088990611892565b80601f01602080910402602001604051908101604052809291908181526020018280546108b590611892565b80156109005780601f106108d757610100808354040283529160200191610900565b820191905f5260205f20905b8154815290600101906020018083116108e357829003601f168201915b5050505050815260200160038201805461091990611892565b80601f016020809104026020016040519081016040528092919081815260200182805461094590611892565b80156109905780601f1061096757610100808354040283529160200191610990565b820191905f5260205f20905b81548152906001019060200180831161097357829003601f168201915b505050505081526020016004820180546109a990611892565b80601f01602080910402602001604051908101604052809291908181526020018280546109d590611892565b8015610a205780601f106109f757610100808354040283529160200191610a20565b820191905f5260205f20905b815481529060010190602001808311610a0357829003601f168201915b50505050508152602001600582018054610a3990611892565b80601f0160208091040260200160405190810160405280929190818152602001828054610a6590611892565b8015610ab05780601f10610a8757610100808354040283529160200191610ab0565b820191905f5260205f20905b815481529060010190602001808311610a9357829003601f168201915b50505050508152602001600682018054610ac990611892565b80601f0160208091040260200160405190810160405280929190818152602001828054610af590611892565b8015610b405780601f10610b1757610100808354040283529160200191610b40565b820191905f5260205f20905b815481529060010190602001808311610b2357829003601f168201915b505050505081525050905090565b60015f9054906101000a900473ffffffffffffffffffffffffffffffffffffffff1681565b565b6060604051806080016040528060488152602001611cba60489139905090565b606060015f9054906101000a900473ffffffffffffffffffffffffffffffffffffffff1673ffffffffffffffffffffffffffffffffffffffff163373ffffffffffffffffffffffffffffffffffffffff1614610c26576040517f08c379a0000000000000000000000000000000000000000000000000000000008152600401610c1d90611c06565b60405180910390fd5b5f60038054905067ffffffffffffffff811115610c4657610c45611838565b5b604051908082528060200260200182016040528015610c7f57816020015b610c6c611167565b815260200190600190039081610c645790505b5090505f5b6003805490508110156110f35760025f60038381548110610ca857610ca7611c24565b5b905f5260205f20015f9054906101000a900473ffffffffffffffffffffffffffffffffffffffff1673ffffffffffffffffffffffffffffffffffffffff1673ffffffffffffffffffffffffffffffffffffffff1681526020019081526020015f206040518060e00160405290815f82018054610d2390611892565b80601f0160208091040260200160405190810160405280929190818152602001828054610d4f90611892565b8015610d9a5780601f10610d7157610100808354040283529160200191610d9a565b820191905f5260205f20905b815481529060010190602001808311610d7d57829003601f168201915b50505050508152602001600182015f9054906101000a900473ffffffffffffffffffffffffffffffffffffffff1673ffffffffffffffffffffffffffffffffffffffff1673ffffffffffffffffffffffffffffffffffffffff168152602001600282018054610e0890611892565b80601f0160208091040260200160405190810160405280929190818152602001828054610e3490611892565b8015610e7f5780601f10610e5657610100808354040283529160200191610e7f565b820191905f5260205f20905b815481529060010190602001808311610e6257829003601f168201915b50505050508152602001600382018054610e9890611892565b80601f0160208091040260200160405190810160405280929190818152602001828054610ec490611892565b8015610f0f5780601f10610ee657610100808354040283529160200191610f0f565b820191905f5260205f20905b815481529060010190602001808311610ef257829003601f168201915b50505050508152602001600482018054610f2890611892565b80601f0160208091040260200160405190810160405280929190818152602001828054610f5490611892565b8015610f9f5780601f10610f7657610100808354040283529160200191610f9f565b820191905f5260205f20905b815481529060010190602001808311610f8257829003601f168201915b50505050508152602001600582018054610fb890611892565b80601f0160208091040260200160405190810160405280929190818152602001828054610fe490611892565b801561102f5780601f106110065761010080835404028352916020019161102f565b820191905f5260205f20905b81548152906001019060200180831161101257829003601f168201915b5050505050815260200160068201805461104890611892565b80601f016020809104026020016040519081016040528092919081815260200182805461107490611892565b80156110bf5780601f10611096576101008083540402835291602001916110bf565b820191905f5260205f20905b8154815290600101906020018083116110a257829003601f168201915b5050505050815250508282815181106110db576110da611c24565b5b60200260200101819052508080600101915050610c84565b508091505090565b66470de4df82000081565b662386f26fc1000081565b60025f5403611155576040517f08c379a000000000000000000000000000000000000000000000000000000000815260040161114c90611c9b565b60405180910390fd5b60025f81905550565b60015f81905550565b6040518060e00160405280606081526020015f73ffffffffffffffffffffffffffffffffffffffff16815260200160608152602001606081526020016060815260200160608152602001606081525090565b5f80fd5b5f80fd5b5f80fd5b5f80fd5b5f80fd5b5f8083601f8401126111e2576111e16111c1565b5b8235905067ffffffffffffffff8111156111ff576111fe6111c5565b5b60208301915083600182028301111561121b5761121a6111c9565b5b9250929050565b5f805f805f805f805f8060a08b8d0312156112405761123f6111b9565b5b5f8b013567ffffffffffffffff81111561125d5761125c6111bd565b5b6112698d828e016111cd565b9a509a505060208b013567ffffffffffffffff81111561128c5761128b6111bd565b5b6112988d828e016111cd565b985098505060408b013567ffffffffffffffff8111156112bb576112ba6111bd565b5b6112c78d828e016111cd565b965096505060608b013567ffffffffffffffff8111156112ea576112e96111bd565b5b6112f68d828e016111cd565b945094505060808b013567ffffffffffffffff811115611319576113186111bd565b5b6113258d828e016111cd565b92509250509295989b9194979a5092959850565b5f81519050919050565b5f82825260208201905092915050565b8281835e5f83830152505050565b5f601f19601f8301169050919050565b5f61137b82611339565b6113858185611343565b9350611395818560208601611353565b61139e81611361565b840191505092915050565b5f73ffffffffffffffffffffffffffffffffffffffff82169050919050565b5f6113d2826113a9565b9050919050565b6113e2816113c8565b82525050565b5f60e083015f8301518482035f8601526114028282611371565b915050602083015161141760208601826113d9565b506040830151848203604086015261142f8282611371565b915050606083015184820360608601526114498282611371565b915050608083015184820360808601526114638282611371565b91505060a083015184820360a086015261147d8282611371565b91505060c083015184820360c08601526114978282611371565b9150508091505092915050565b5f6020820190508181035f8301526114bc81846113e8565b905092915050565b6114cd816113c8565b82525050565b5f6020820190506114e65f8301846114c4565b92915050565b5f82825260208201905092915050565b5f61150682611339565b61151081856114ec565b9350611520818560208601611353565b61152981611361565b840191505092915050565b5f6020820190508181035f83015261154c81846114fc565b905092915050565b5f81519050919050565b5f82825260208201905092915050565b5f819050602082019050919050565b5f60e083015f8301518482035f8601526115978282611371565b91505060208301516115ac60208601826113d9565b50604083015184820360408601526115c48282611371565b915050606083015184820360608601526115de8282611371565b915050608083015184820360808601526115f88282611371565b91505060a083015184820360a08601526116128282611371565b91505060c083015184820360c086015261162c8282611371565b9150508091505092915050565b5f611644838361157d565b905092915050565b5f602082019050919050565b5f61166282611554565b61166c818561155e565b93508360208202850161167e8561156e565b805f5b858110156116b9578484038952815161169a8582611639565b94506116a58361164c565b925060208a01995050600181019050611681565b50829750879550505050505092915050565b5f6020820190508181035f8301526116e38184611658565b905092915050565b5f819050919050565b6116fd816116eb565b82525050565b5f6020820190506117165f8301846116f4565b92915050565b7f496e636f7272656374207072656d69756d3a206d7573742062652065786163745f8201527f6c7920302e303120455448000000000000000000000000000000000000000000602082015250565b5f611776602b836114ec565b91506117818261171c565b604082019050919050565b5f6020820190508181035f8301526117a38161176a565b9050919050565b7f506f6c69637920616c72656164792065786973747320666f72207468697320615f8201527f6464726573730000000000000000000000000000000000000000000000000000602082015250565b5f6118046026836114ec565b915061180f826117aa565b604082019050919050565b5f6020820190508181035f830152611831816117f8565b9050919050565b7f4e487b71000000000000000000000000000000000000000000000000000000005f52604160045260245ffd5b7f4e487b71000000000000000000000000000000000000000000000000000000005f52602260045260245ffd5b5f60028204905060018216806118a957607f821691505b6020821081036118bc576118bb611865565b5b50919050565b5f819050815f5260205f209050919050565b5f6020601f8301049050919050565b5f82821b905092915050565b5f6008830261191e7fffffffffffffffffffffffffffffffffffffffffffffffffffffffffffffffff826118e3565b61192886836118e3565b95508019841693508086168417925050509392505050565b5f819050919050565b5f61196361195e611959846116eb565b611940565b6116eb565b9050919050565b5f819050919050565b61197c83611949565b6119906119888261196a565b8484546118ef565b825550505050565b5f90565b6119a4611998565b6119af818484611973565b505050565b5b818110156119d2576119c75f8261199c565b6001810190506119b5565b5050565b601f821115611a17576119e8816118c2565b6119f1846118d4565b81016020851015611a00578190505b611a14611a0c856118d4565b8301826119b4565b50505b505050565b5f82821c905092915050565b5f611a375f1984600802611a1c565b1980831691505092915050565b5f611a4f8383611a28565b9150826002028217905092915050565b611a6882611339565b67ffffffffffffffff811115611a8157611a80611838565b5b611a8b8254611892565b611a968282856119d6565b5f60209050601f831160018114611ac7575f8415611ab5578287015190505b611abf8582611a44565b865550611b26565b601f198416611ad5866118c2565b5f5b82811015611afc57848901518255600182019150602085019450602081019050611ad7565b86831015611b195784890151611b15601f891682611a28565b8355505b6001600288020188555050505b505050505050565b7f4e6f20706f6c69637920666f756e6400000000000000000000000000000000005f82015250565b5f611b62600f836114ec565b9150611b6d82611b2e565b602082019050919050565b5f6020820190508181035f830152611b8f81611b56565b9050919050565b7f43616c6c6572206973206e6f742074686520696e737572616e63652070726f765f8201527f6964657200000000000000000000000000000000000000000000000000000000602082015250565b5f611bf06024836114ec565b9150611bfb82611b96565b604082019050919050565b5f6020820190508181035f830152611c1d81611be4565b9050919050565b7f4e487b71000000000000000000000000000000000000000000000000000000005f52603260045260245ffd5b7f5265656e7472616e637947756172643a207265656e7472616e742063616c6c005f82015250565b5f611c85601f836114ec565b9150611c9082611c51565b602082019050919050565b5f6020820190508181035f830152611cb281611c79565b905091905056fe5072656d69756d3a20302e3031204554482c20496e64656d6e6974793a20302e3032204554482c20436f7665726167653a204861696c20616e6420666c6f6f642064656c6179732ea264697066735822122067b6fac692c43503fccae656dafe30e39055e59ed3c809ff4a6e994ec6ac012f64736f6c634300081a0033",
					"opcodes": "PUSH1 0x80 PUSH1 0x40 MSTORE CALLVALUE DUP1 ISZERO PUSH2 0xF JUMPI PUSH0 DUP1 REVERT JUMPDEST POP PUSH1 0x40 MLOAD PUSH2 0x1E4B CODESIZE SUB DUP1 PUSH2 0x1E4B DUP4 CODECOPY DUP2 DUP2 ADD PUSH1 0x40 MSTORE DUP2 ADD SWAP1 PUSH2 0x31 SWAP2 SWAP1 PUSH2 0xDC JUMP JUMPDEST PUSH1 0x1 PUSH0 DUP2 SWAP1 SSTORE POP DUP1 PUSH1 0x1 PUSH0 PUSH2 0x100 EXP DUP2 SLOAD DUP2 PUSH20 0xFFFFFFFFFFFFFFFFFFFFFFFFFFFFFFFFFFFFFFFF MUL NOT AND SWAP1 DUP4 PUSH20 0xFFFFFFFFFFFFFFFFFFFFFFFFFFFFFFFFFFFFFFFF AND MUL OR SWAP1 SSTORE POP POP PUSH2 0x107 JUMP JUMPDEST PUSH0 DUP1 REVERT JUMPDEST PUSH0 PUSH20 0xFFFFFFFFFFFFFFFFFFFFFFFFFFFFFFFFFFFFFFFF DUP3 AND SWAP1 POP SWAP2 SWAP1 POP JUMP JUMPDEST PUSH0 PUSH2 0xAB DUP3 PUSH2 0x82 JUMP JUMPDEST SWAP1 POP SWAP2 SWAP1 POP JUMP JUMPDEST PUSH2 0xBB DUP2 PUSH2 0xA1 JUMP JUMPDEST DUP2 EQ PUSH2 0xC5 JUMPI PUSH0 DUP1 REVERT JUMPDEST POP JUMP JUMPDEST PUSH0 DUP2 MLOAD SWAP1 POP PUSH2 0xD6 DUP2 PUSH2 0xB2 JUMP JUMPDEST SWAP3 SWAP2 POP POP JUMP JUMPDEST PUSH0 PUSH1 0x20 DUP3 DUP5 SUB SLT ISZERO PUSH2 0xF1 JUMPI PUSH2 0xF0 PUSH2 0x7E JUMP JUMPDEST JUMPDEST PUSH0 PUSH2 0xFE DUP5 DUP3 DUP6 ADD PUSH2 0xC8 JUMP JUMPDEST SWAP2 POP POP SWAP3 SWAP2 POP POP JUMP JUMPDEST PUSH2 0x1D37 DUP1 PUSH2 0x114 PUSH0 CODECOPY PUSH0 RETURN INVALID PUSH1 0x80 PUSH1 0x40 MSTORE PUSH1 0x4 CALLDATASIZE LT PUSH2 0x7A JUMPI PUSH0 CALLDATALOAD PUSH1 0xE0 SHR DUP1 PUSH4 0xB6FC3B2A GT PUSH2 0x4D JUMPI DUP1 PUSH4 0xB6FC3B2A EQ PUSH2 0x104 JUMPI DUP1 PUSH4 0xC160693D EQ PUSH2 0x12E JUMPI DUP1 PUSH4 0xCD95E777 EQ PUSH2 0x158 JUMPI DUP1 PUSH4 0xEA3696CA EQ PUSH2 0x182 JUMPI PUSH2 0x7A JUMP JUMPDEST DUP1 PUSH4 0x5D02ED12 EQ PUSH2 0x7E JUMPI DUP1 PUSH4 0x963163BD EQ PUSH2 0x9A JUMPI DUP1 PUSH4 0x9955F67C EQ PUSH2 0xC4 JUMPI DUP1 PUSH4 0xA75AC608 EQ PUSH2 0xEE JUMPI JUMPDEST PUSH0 DUP1 REVERT JUMPDEST PUSH2 0x98 PUSH1 0x4 DUP1 CALLDATASIZE SUB DUP2 ADD SWAP1 PUSH2 0x93 SWAP2 SWAP1 PUSH2 0x1222 JUMP JUMPDEST PUSH2 0x1AC JUMP JUMPDEST STOP JUMPDEST CALLVALUE DUP1 ISZERO PUSH2 0xA5 JUMPI PUSH0 DUP1 REVERT JUMPDEST POP PUSH2 0xAE PUSH2 0x678 JUMP JUMPDEST PUSH1 0x40 MLOAD PUSH2 0xBB SWAP2 SWAP1 PUSH2 0x14A4 JUMP JUMPDEST PUSH1 0x40 MLOAD DUP1 SWAP2 SUB SWAP1 RETURN JUMPDEST CALLVALUE DUP1 ISZERO PUSH2 0xCF JUMPI PUSH0 DUP1 REVERT JUMPDEST POP PUSH2 0xD8 PUSH2 0xB4E JUMP JUMPDEST PUSH1 0x40 MLOAD PUSH2 0xE5 SWAP2 SWAP1 PUSH2 0x14D3 JUMP JUMPDEST PUSH1 0x40 MLOAD DUP1 SWAP2 SUB SWAP1 RETURN JUMPDEST CALLVALUE DUP1 ISZERO PUSH2 0xF9 JUMPI PUSH0 DUP1 REVERT JUMPDEST POP PUSH2 0x102 PUSH2 0xB73 JUMP JUMPDEST STOP JUMPDEST CALLVALUE DUP1 ISZERO PUSH2 0x10F JUMPI PUSH0 DUP1 REVERT JUMPDEST POP PUSH2 0x118 PUSH2 0xB75 JUMP JUMPDEST PUSH1 0x40 MLOAD PUSH2 0x125 SWAP2 SWAP1 PUSH2 0x1534 JUMP JUMPDEST PUSH1 0x40 MLOAD DUP1 SWAP2 SUB SWAP1 RETURN JUMPDEST CALLVALUE DUP1 ISZERO PUSH2 0x139 JUMPI PUSH0 DUP1 REVERT JUMPDEST POP PUSH2 0x142 PUSH2 0xB95 JUMP JUMPDEST PUSH1 0x40 MLOAD PUSH2 0x14F SWAP2 SWAP1 PUSH2 0x16CB JUMP JUMPDEST PUSH1 0x40 MLOAD DUP1 SWAP2 SUB SWAP1 RETURN JUMPDEST CALLVALUE DUP1 ISZERO PUSH2 0x163 JUMPI PUSH0 DUP1 REVERT JUMPDEST POP PUSH2 0x16C PUSH2 0x10FB JUMP JUMPDEST PUSH1 0x40 MLOAD PUSH2 0x179 SWAP2 SWAP1 PUSH2 0x1703 JUMP JUMPDEST PUSH1 0x40 MLOAD DUP1 SWAP2 SUB SWAP1 RETURN JUMPDEST CALLVALUE DUP1 ISZERO PUSH2 0x18D JUMPI PUSH0 DUP1 REVERT JUMPDEST POP PUSH2 0x196 PUSH2 0x1106 JUMP JUMPDEST PUSH1 0x40 MLOAD PUSH2 0x1A3 SWAP2 SWAP1 PUSH2 0x1703 JUMP JUMPDEST PUSH1 0x40 MLOAD DUP1 SWAP2 SUB SWAP1 RETURN JUMPDEST PUSH2 0x1B4 PUSH2 0x1111 JUMP JUMPDEST PUSH7 0x2386F26FC10000 CALLVALUE EQ PUSH2 0x1FD JUMPI PUSH1 0x40 MLOAD PUSH32 0x8C379A000000000000000000000000000000000000000000000000000000000 DUP2 MSTORE PUSH1 0x4 ADD PUSH2 0x1F4 SWAP1 PUSH2 0x178C JUMP JUMPDEST PUSH1 0x40 MLOAD DUP1 SWAP2 SUB SWAP1 REVERT JUMPDEST PUSH0 PUSH20 0xFFFFFFFFFFFFFFFFFFFFFFFFFFFFFFFFFFFFFFFF AND PUSH1 0x2 PUSH0 CALLER PUSH20 0xFFFFFFFFFFFFFFFFFFFFFFFFFFFFFFFFFFFFFFFF AND PUSH20 0xFFFFFFFFFFFFFFFFFFFFFFFFFFFFFFFFFFFFFFFF AND DUP2 MSTORE PUSH1 0x20 ADD SWAP1 DUP2 MSTORE PUSH1 0x20 ADD PUSH0 KECCAK256 PUSH1 0x1 ADD PUSH0 SWAP1 SLOAD SWAP1 PUSH2 0x100 EXP SWAP1 DIV PUSH20 0xFFFFFFFFFFFFFFFFFFFFFFFFFFFFFFFFFFFFFFFF AND PUSH20 0xFFFFFFFFFFFFFFFFFFFFFFFFFFFFFFFFFFFFFFFF AND EQ PUSH2 0x2CA JUMPI PUSH1 0x40 MLOAD PUSH32 0x8C379A000000000000000000000000000000000000000000000000000000000 DUP2 MSTORE PUSH1 0x4 ADD PUSH2 0x2C1 SWAP1 PUSH2 0x181A JUMP JUMPDEST PUSH1 0x40 MLOAD DUP1 SWAP2 SUB SWAP1 REVERT JUMPDEST PUSH1 0x40 MLOAD DUP1 PUSH1 0xE0 ADD PUSH1 0x40 MSTORE DUP1 DUP12 DUP12 DUP1 DUP1 PUSH1 0x1F ADD PUSH1 0x20 DUP1 SWAP2 DIV MUL PUSH1 0x20 ADD PUSH1 0x40 MLOAD SWAP1 DUP2 ADD PUSH1 0x40 MSTORE DUP1 SWAP4 SWAP3 SWAP2 SWAP1 DUP2 DUP2 MSTORE PUSH1 0x20 ADD DUP4 DUP4 DUP1 DUP3 DUP5 CALLDATACOPY PUSH0 DUP2 DUP5 ADD MSTORE PUSH1 0x1F NOT PUSH1 0x1F DUP3 ADD AND SWAP1 POP DUP1 DUP4 ADD SWAP3 POP POP POP POP POP POP POP DUP2 MSTORE PUSH1 0x20 ADD CALLER PUSH20 0xFFFFFFFFFFFFFFFFFFFFFFFFFFFFFFFFFFFFFFFF AND DUP2 MSTORE PUSH1 0x20 ADD DUP10 DUP10 DUP1 DUP1 PUSH1 0x1F ADD PUSH1 0x20 DUP1 SWAP2 DIV MUL PUSH1 0x20 ADD PUSH1 0x40 MLOAD SWAP1 DUP2 ADD PUSH1 0x40 MSTORE DUP1 SWAP4 SWAP3 SWAP2 SWAP1 DUP2 DUP2 MSTORE PUSH1 0x20 ADD DUP4 DUP4 DUP1 DUP3 DUP5 CALLDATACOPY PUSH0 DUP2 DUP5 ADD MSTORE PUSH1 0x1F NOT PUSH1 0x1F DUP3 ADD AND SWAP1 POP DUP1 DUP4 ADD SWAP3 POP POP POP POP POP POP POP DUP2 MSTORE PUSH1 0x20 ADD DUP8 DUP8 DUP1 DUP1 PUSH1 0x1F ADD PUSH1 0x20 DUP1 SWAP2 DIV MUL PUSH1 0x20 ADD PUSH1 0x40 MLOAD SWAP1 DUP2 ADD PUSH1 0x40 MSTORE DUP1 SWAP4 SWAP3 SWAP2 SWAP1 DUP2 DUP2 MSTORE PUSH1 0x20 ADD DUP4 DUP4 DUP1 DUP3 DUP5 CALLDATACOPY PUSH0 DUP2 DUP5 ADD MSTORE PUSH1 0x1F NOT PUSH1 0x1F DUP3 ADD AND SWAP1 POP DUP1 DUP4 ADD SWAP3 POP POP POP POP POP POP POP DUP2 MSTORE PUSH1 0x20 ADD DUP6 DUP6 DUP1 DUP1 PUSH1 0x1F ADD PUSH1 0x20 DUP1 SWAP2 DIV MUL PUSH1 0x20 ADD PUSH1 0x40 MLOAD SWAP1 DUP2 ADD PUSH1 0x40 MSTORE DUP1 SWAP4 SWAP3 SWAP2 SWAP1 DUP2 DUP2 MSTORE PUSH1 0x20 ADD DUP4 DUP4 DUP1 DUP3 DUP5 CALLDATACOPY PUSH0 DUP2 DUP5 ADD MSTORE PUSH1 0x1F NOT PUSH1 0x1F DUP3 ADD AND SWAP1 POP DUP1 DUP4 ADD SWAP3 POP POP POP POP POP POP POP DUP2 MSTORE PUSH1 0x20 ADD DUP4 DUP4 DUP1 DUP1 PUSH1 0x1F ADD PUSH1 0x20 DUP1 SWAP2 DIV MUL PUSH1 0x20 ADD PUSH1 0x40 MLOAD SWAP1 DUP2 ADD PUSH1 0x40 MSTORE DUP1 SWAP4 SWAP3 SWAP2 SWAP1 DUP2 DUP2 MSTORE PUSH1 0x20 ADD DUP4 DUP4 DUP1 DUP3 DUP5 CALLDATACOPY PUSH0 DUP2 DUP5 ADD MSTORE PUSH1 0x1F NOT PUSH1 0x1F DUP3 ADD AND SWAP1 POP DUP1 DUP4 ADD SWAP3 POP POP POP POP POP POP POP DUP2 MSTORE PUSH1 0x20 ADD PUSH1 0x40 MLOAD DUP1 PUSH1 0x40 ADD PUSH1 0x40 MSTORE DUP1 PUSH1 0x9 DUP2 MSTORE PUSH1 0x20 ADD PUSH32 0x7075726368617365640000000000000000000000000000000000000000000000 DUP2 MSTORE POP DUP2 MSTORE POP PUSH1 0x2 PUSH0 CALLER PUSH20 0xFFFFFFFFFFFFFFFFFFFFFFFFFFFFFFFFFFFFFFFF AND PUSH20 0xFFFFFFFFFFFFFFFFFFFFFFFFFFFFFFFFFFFFFFFF AND DUP2 MSTORE PUSH1 0x20 ADD SWAP1 DUP2 MSTORE PUSH1 0x20 ADD PUSH0 KECCAK256 PUSH0 DUP3 ADD MLOAD DUP2 PUSH0 ADD SWAP1 DUP2 PUSH2 0x4E7 SWAP2 SWAP1 PUSH2 0x1A5F JUMP JUMPDEST POP PUSH1 0x20 DUP3 ADD MLOAD DUP2 PUSH1 0x1 ADD PUSH0 PUSH2 0x100 EXP DUP2 SLOAD DUP2 PUSH20 0xFFFFFFFFFFFFFFFFFFFFFFFFFFFFFFFFFFFFFFFF MUL NOT AND SWAP1 DUP4 PUSH20 0xFFFFFFFFFFFFFFFFFFFFFFFFFFFFFFFFFFFFFFFF AND MUL OR SWAP1 SSTORE POP PUSH1 0x40 DUP3 ADD MLOAD DUP2 PUSH1 0x2 ADD SWAP1 DUP2 PUSH2 0x543 SWAP2 SWAP1 PUSH2 0x1A5F JUMP JUMPDEST POP PUSH1 0x60 DUP3 ADD MLOAD DUP2 PUSH1 0x3 ADD SWAP1 DUP2 PUSH2 0x559 SWAP2 SWAP1 PUSH2 0x1A5F JUMP JUMPDEST POP PUSH1 0x80 DUP3 ADD MLOAD DUP2 PUSH1 0x4 ADD SWAP1 DUP2 PUSH2 0x56F SWAP2 SWAP1 PUSH2 0x1A5F JUMP JUMPDEST POP PUSH1 0xA0 DUP3 ADD MLOAD DUP2 PUSH1 0x5 ADD SWAP1 DUP2 PUSH2 0x585 SWAP2 SWAP1 PUSH2 0x1A5F JUMP JUMPDEST POP PUSH1 0xC0 DUP3 ADD MLOAD DUP2 PUSH1 0x6 ADD SWAP1 DUP2 PUSH2 0x59B SWAP2 SWAP1 PUSH2 0x1A5F JUMP JUMPDEST POP SWAP1 POP POP PUSH1 0x3 CALLER SWAP1 DUP1 PUSH1 0x1 DUP2 SLOAD ADD DUP1 DUP3 SSTORE DUP1 SWAP2 POP POP PUSH1 0x1 SWAP1 SUB SWAP1 PUSH0 MSTORE PUSH1 0x20 PUSH0 KECCAK256 ADD PUSH0 SWAP1 SWAP2 SWAP1 SWAP2 SWAP1 SWAP2 PUSH2 0x100 EXP DUP2 SLOAD DUP2 PUSH20 0xFFFFFFFFFFFFFFFFFFFFFFFFFFFFFFFFFFFFFFFF MUL NOT AND SWAP1 DUP4 PUSH20 0xFFFFFFFFFFFFFFFFFFFFFFFFFFFFFFFFFFFFFFFF AND MUL OR SWAP1 SSTORE POP PUSH1 0x1 PUSH0 SWAP1 SLOAD SWAP1 PUSH2 0x100 EXP SWAP1 DIV PUSH20 0xFFFFFFFFFFFFFFFFFFFFFFFFFFFFFFFFFFFFFFFF AND PUSH20 0xFFFFFFFFFFFFFFFFFFFFFFFFFFFFFFFFFFFFFFFF AND PUSH2 0x8FC CALLVALUE SWAP1 DUP2 ISZERO MUL SWAP1 PUSH1 0x40 MLOAD PUSH0 PUSH1 0x40 MLOAD DUP1 DUP4 SUB DUP2 DUP6 DUP9 DUP9 CALL SWAP4 POP POP POP POP ISZERO DUP1 ISZERO PUSH2 0x663 JUMPI RETURNDATASIZE PUSH0 DUP1 RETURNDATACOPY RETURNDATASIZE PUSH0 REVERT JUMPDEST POP PUSH2 0x66C PUSH2 0x115E JUMP JUMPDEST POP POP POP POP POP POP POP POP POP POP JUMP JUMPDEST PUSH2 0x680 PUSH2 0x1167 JUMP JUMPDEST PUSH0 PUSH20 0xFFFFFFFFFFFFFFFFFFFFFFFFFFFFFFFFFFFFFFFF AND PUSH1 0x2 PUSH0 CALLER PUSH20 0xFFFFFFFFFFFFFFFFFFFFFFFFFFFFFFFFFFFFFFFF AND PUSH20 0xFFFFFFFFFFFFFFFFFFFFFFFFFFFFFFFFFFFFFFFF AND DUP2 MSTORE PUSH1 0x20 ADD SWAP1 DUP2 MSTORE PUSH1 0x20 ADD PUSH0 KECCAK256 PUSH1 0x1 ADD PUSH0 SWAP1 SLOAD SWAP1 PUSH2 0x100 EXP SWAP1 DIV PUSH20 0xFFFFFFFFFFFFFFFFFFFFFFFFFFFFFFFFFFFFFFFF AND PUSH20 0xFFFFFFFFFFFFFFFFFFFFFFFFFFFFFFFFFFFFFFFF AND SUB PUSH2 0x74D JUMPI PUSH1 0x40 MLOAD PUSH32 0x8C379A000000000000000000000000000000000000000000000000000000000 DUP2 MSTORE PUSH1 0x4 ADD PUSH2 0x744 SWAP1 PUSH2 0x1B78 JUMP JUMPDEST PUSH1 0x40 MLOAD DUP1 SWAP2 SUB SWAP1 REVERT JUMPDEST PUSH1 0x2 PUSH0 CALLER PUSH20 0xFFFFFFFFFFFFFFFFFFFFFFFFFFFFFFFFFFFFFFFF AND PUSH20 0xFFFFFFFFFFFFFFFFFFFFFFFFFFFFFFFFFFFFFFFF AND DUP2 MSTORE PUSH1 0x20 ADD SWAP1 DUP2 MSTORE PUSH1 0x20 ADD PUSH0 KECCAK256 PUSH1 0x40 MLOAD DUP1 PUSH1 0xE0 ADD PUSH1 0x40 MSTORE SWAP1 DUP2 PUSH0 DUP3 ADD DUP1 SLOAD PUSH2 0x7A4 SWAP1 PUSH2 0x1892 JUMP JUMPDEST DUP1 PUSH1 0x1F ADD PUSH1 0x20 DUP1 SWAP2 DIV MUL PUSH1 0x20 ADD PUSH1 0x40 MLOAD SWAP1 DUP2 ADD PUSH1 0x40 MSTORE DUP1 SWAP3 SWAP2 SWAP1 DUP2 DUP2 MSTORE PUSH1 0x20 ADD DUP3 DUP1 SLOAD PUSH2 0x7D0 SWAP1 PUSH2 0x1892 JUMP JUMPDEST DUP1 ISZERO PUSH2 0x81B JUMPI DUP1 PUSH1 0x1F LT PUSH2 0x7F2 JUMPI PUSH2 0x100 DUP1 DUP4 SLOAD DIV MUL DUP4 MSTORE SWAP2 PUSH1 0x20 ADD SWAP2 PUSH2 0x81B JUMP JUMPDEST DUP3 ADD SWAP2 SWAP1 PUSH0 MSTORE PUSH1 0x20 PUSH0 KECCAK256 SWAP1 JUMPDEST DUP2 SLOAD DUP2 MSTORE SWAP1 PUSH1 0x1 ADD SWAP1 PUSH1 0x20 ADD DUP1 DUP4 GT PUSH2 0x7FE JUMPI DUP3 SWAP1 SUB PUSH1 0x1F AND DUP3 ADD SWAP2 JUMPDEST POP POP POP POP POP DUP2 MSTORE PUSH1 0x20 ADD PUSH1 0x1 DUP3 ADD PUSH0 SWAP1 SLOAD SWAP1 PUSH2 0x100 EXP SWAP1 DIV PUSH20 0xFFFFFFFFFFFFFFFFFFFFFFFFFFFFFFFFFFFFFFFF AND PUSH20 0xFFFFFFFFFFFFFFFFFFFFFFFFFFFFFFFFFFFFFFFF AND PUSH20 0xFFFFFFFFFFFFFFFFFFFFFFFFFFFFFFFFFFFFFFFF AND DUP2 MSTORE PUSH1 0x20 ADD PUSH1 0x2 DUP3 ADD DUP1 SLOAD PUSH2 0x889 SWAP1 PUSH2 0x1892 JUMP JUMPDEST DUP1 PUSH1 0x1F ADD PUSH1 0x20 DUP1 SWAP2 DIV MUL PUSH1 0x20 ADD PUSH1 0x40 MLOAD SWAP1 DUP2 ADD PUSH1 0x40 MSTORE DUP1 SWAP3 SWAP2 SWAP1 DUP2 DUP2 MSTORE PUSH1 0x20 ADD DUP3 DUP1 SLOAD PUSH2 0x8B5 SWAP1 PUSH2 0x1892 JUMP JUMPDEST DUP1 ISZERO PUSH2 0x900 JUMPI DUP1 PUSH1 0x1F LT PUSH2 0x8D7 JUMPI PUSH2 0x100 DUP1 DUP4 SLOAD DIV MUL DUP4 MSTORE SWAP2 PUSH1 0x20 ADD SWAP2 PUSH2 0x900 JUMP JUMPDEST DUP3 ADD SWAP2 SWAP1 PUSH0 MSTORE PUSH1 0x20 PUSH0 KECCAK256 SWAP1 JUMPDEST DUP2 SLOAD DUP2 MSTORE SWAP1 PUSH1 0x1 ADD SWAP1 PUSH1 0x20 ADD DUP1 DUP4 GT PUSH2 0x8E3 JUMPI DUP3 SWAP1 SUB PUSH1 0x1F AND DUP3 ADD SWAP2 JUMPDEST POP POP POP POP POP DUP2 MSTORE PUSH1 0x20 ADD PUSH1 0x3 DUP3 ADD DUP1 SLOAD PUSH2 0x919 SWAP1 PUSH2 0x1892 JUMP JUMPDEST DUP1 PUSH1 0x1F ADD PUSH1 0x20 DUP1 SWAP2 DIV MUL PUSH1 0x20 ADD PUSH1 0x40 MLOAD SWAP1 DUP2 ADD PUSH1 0x40 MSTORE DUP1 SWAP3 SWAP2 SWAP1 DUP2 DUP2 MSTORE PUSH1 0x20 ADD DUP3 DUP1 SLOAD PUSH2 0x945 SWAP1 PUSH2 0x1892 JUMP JUMPDEST DUP1 ISZERO PUSH2 0x990 JUMPI DUP1 PUSH1 0x1F LT PUSH2 0x967 JUMPI PUSH2 0x100 DUP1 DUP4 SLOAD DIV MUL DUP4 MSTORE SWAP2 PUSH1 0x20 ADD SWAP2 PUSH2 0x990 JUMP JUMPDEST DUP3 ADD SWAP2 SWAP1 PUSH0 MSTORE PUSH1 0x20 PUSH0 KECCAK256 SWAP1 JUMPDEST DUP2 SLOAD DUP2 MSTORE SWAP1 PUSH1 0x1 ADD SWAP1 PUSH1 0x20 ADD DUP1 DUP4 GT PUSH2 0x973 JUMPI DUP3 SWAP1 SUB PUSH1 0x1F AND DUP3 ADD SWAP2 JUMPDEST POP POP POP POP POP DUP2 MSTORE PUSH1 0x20 ADD PUSH1 0x4 DUP3 ADD DUP1 SLOAD PUSH2 0x9A9 SWAP1 PUSH2 0x1892 JUMP JUMPDEST DUP1 PUSH1 0x1F ADD PUSH1 0x20 DUP1 SWAP2 DIV MUL PUSH1 0x20 ADD PUSH1 0x40 MLOAD SWAP1 DUP2 ADD PUSH1 0x40 MSTORE DUP1 SWAP3 SWAP2 SWAP1 DUP2 DUP2 MSTORE PUSH1 0x20 ADD DUP3 DUP1 SLOAD PUSH2 0x9D5 SWAP1 PUSH2 0x1892 JUMP JUMPDEST DUP1 ISZERO PUSH2 0xA20 JUMPI DUP1 PUSH1 0x1F LT PUSH2 0x9F7 JUMPI PUSH2 0x100 DUP1 DUP4 SLOAD DIV MUL DUP4 MSTORE SWAP2 PUSH1 0x20 ADD SWAP2 PUSH2 0xA20 JUMP JUMPDEST DUP3 ADD SWAP2 SWAP1 PUSH0 MSTORE PUSH1 0x20 PUSH0 KECCAK256 SWAP1 JUMPDEST DUP2 SLOAD DUP2 MSTORE SWAP1 PUSH1 0x1 ADD SWAP1 PUSH1 0x20 ADD DUP1 DUP4 GT PUSH2 0xA03 JUMPI DUP3 SWAP1 SUB PUSH1 0x1F AND DUP3 ADD SWAP2 JUMPDEST POP POP POP POP POP DUP2 MSTORE PUSH1 0x20 ADD PUSH1 0x5 DUP3 ADD DUP1 SLOAD PUSH2 0xA39 SWAP1 PUSH2 0x1892 JUMP JUMPDEST DUP1 PUSH1 0x1F ADD PUSH1 0x20 DUP1 SWAP2 DIV MUL PUSH1 0x20 ADD PUSH1 0x40 MLOAD SWAP1 DUP2 ADD PUSH1 0x40 MSTORE DUP1 SWAP3 SWAP2 SWAP1 DUP2 DUP2 MSTORE PUSH1 0x20 ADD DUP3 DUP1 SLOAD PUSH2 0xA65 SWAP1 PUSH2 0x1892 JUMP JUMPDEST DUP1 ISZERO PUSH2 0xAB0 JUMPI DUP1 PUSH1 0x1F LT PUSH2 0xA87 JUMPI PUSH2 0x100 DUP1 DUP4 SLOAD DIV MUL DUP4 MSTORE SWAP2 PUSH1 0x20 ADD SWAP2 PUSH2 0xAB0 JUMP JUMPDEST DUP3 ADD SWAP2 SWAP1 PUSH0 MSTORE PUSH1 0x20 PUSH0 KECCAK256 SWAP1 JUMPDEST DUP2 SLOAD DUP2 MSTORE SWAP1 PUSH1 0x1 ADD SWAP1 PUSH1 0x20 ADD DUP1 DUP4 GT PUSH2 0xA93 JUMPI DUP3 SWAP1 SUB PUSH1 0x1F AND DUP3 ADD SWAP2 JUMPDEST POP POP POP POP POP DUP2 MSTORE PUSH1 0x20 ADD PUSH1 0x6 DUP3 ADD DUP1 SLOAD PUSH2 0xAC9 SWAP1 PUSH2 0x1892 JUMP JUMPDEST DUP1 PUSH1 0x1F ADD PUSH1 0x20 DUP1 SWAP2 DIV MUL PUSH1 0x20 ADD PUSH1 0x40 MLOAD SWAP1 DUP2 ADD PUSH1 0x40 MSTORE DUP1 SWAP3 SWAP2 SWAP1 DUP2 DUP2 MSTORE PUSH1 0x20 ADD DUP3 DUP1 SLOAD PUSH2 0xAF5 SWAP1 PUSH2 0x1892 JUMP JUMPDEST DUP1 ISZERO PUSH2 0xB40 JUMPI DUP1 PUSH1 0x1F LT PUSH2 0xB17 JUMPI PUSH2 0x100 DUP1 DUP4 SLOAD DIV MUL DUP4 MSTORE SWAP2 PUSH1 0x20 ADD SWAP2 PUSH2 0xB40 JUMP JUMPDEST DUP3 ADD SWAP2 SWAP1 PUSH0 MSTORE PUSH1 0x20 PUSH0 KECCAK256 SWAP1 JUMPDEST DUP2 SLOAD DUP2 MSTORE SWAP1 PUSH1 0x1 ADD SWAP1 PUSH1 0x20 ADD DUP1 DUP4 GT PUSH2 0xB23 JUMPI DUP3 SWAP1 SUB PUSH1 0x1F AND DUP3 ADD SWAP2 JUMPDEST POP POP POP POP POP DUP2 MSTORE POP POP SWAP1 POP SWAP1 JUMP JUMPDEST PUSH1 0x1 PUSH0 SWAP1 SLOAD SWAP1 PUSH2 0x100 EXP SWAP1 DIV PUSH20 0xFFFFFFFFFFFFFFFFFFFFFFFFFFFFFFFFFFFFFFFF AND DUP2 JUMP JUMPDEST JUMP JUMPDEST PUSH1 0x60 PUSH1 0x40 MLOAD DUP1 PUSH1 0x80 ADD PUSH1 0x40 MSTORE DUP1 PUSH1 0x48 DUP2 MSTORE PUSH1 0x20 ADD PUSH2 0x1CBA PUSH1 0x48 SWAP2 CODECOPY SWAP1 POP SWAP1 JUMP JUMPDEST PUSH1 0x60 PUSH1 0x1 PUSH0 SWAP1 SLOAD SWAP1 PUSH2 0x100 EXP SWAP1 DIV PUSH20 0xFFFFFFFFFFFFFFFFFFFFFFFFFFFFFFFFFFFFFFFF AND PUSH20 0xFFFFFFFFFFFFFFFFFFFFFFFFFFFFFFFFFFFFFFFF AND CALLER PUSH20 0xFFFFFFFFFFFFFFFFFFFFFFFFFFFFFFFFFFFFFFFF AND EQ PUSH2 0xC26 JUMPI PUSH1 0x40 MLOAD PUSH32 0x8C379A000000000000000000000000000000000000000000000000000000000 DUP2 MSTORE PUSH1 0x4 ADD PUSH2 0xC1D SWAP1 PUSH2 0x1C06 JUMP JUMPDEST PUSH1 0x40 MLOAD DUP1 SWAP2 SUB SWAP1 REVERT JUMPDEST PUSH0 PUSH1 0x3 DUP1 SLOAD SWAP1 POP PUSH8 0xFFFFFFFFFFFFFFFF DUP2 GT ISZERO PUSH2 0xC46 JUMPI PUSH2 0xC45 PUSH2 0x1838 JUMP JUMPDEST JUMPDEST PUSH1 0x40 MLOAD SWAP1 DUP1 DUP3 MSTORE DUP1 PUSH1 0x20 MUL PUSH1 0x20 ADD DUP3 ADD PUSH1 0x40 MSTORE DUP1 ISZERO PUSH2 0xC7F JUMPI DUP2 PUSH1 0x20 ADD JUMPDEST PUSH2 0xC6C PUSH2 0x1167 JUMP JUMPDEST DUP2 MSTORE PUSH1 0x20 ADD SWAP1 PUSH1 0x1 SWAP1 SUB SWAP1 DUP2 PUSH2 0xC64 JUMPI SWAP1 POP JUMPDEST POP SWAP1 POP PUSH0 JUMPDEST PUSH1 0x3 DUP1 SLOAD SWAP1 POP DUP2 LT ISZERO PUSH2 0x10F3 JUMPI PUSH1 0x2 PUSH0 PUSH1 0x3 DUP4 DUP2 SLOAD DUP2 LT PUSH2 0xCA8 JUMPI PUSH2 0xCA7 PUSH2 0x1C24 JUMP JUMPDEST JUMPDEST SWAP1 PUSH0 MSTORE PUSH1 0x20 PUSH0 KECCAK256 ADD PUSH0 SWAP1 SLOAD SWAP1 PUSH2 0x100 EXP SWAP1 DIV PUSH20 0xFFFFFFFFFFFFFFFFFFFFFFFFFFFFFFFFFFFFFFFF AND PUSH20 0xFFFFFFFFFFFFFFFFFFFFFFFFFFFFFFFFFFFFFFFF AND PUSH20 0xFFFFFFFFFFFFFFFFFFFFFFFFFFFFFFFFFFFFFFFF AND DUP2 MSTORE PUSH1 0x20 ADD SWAP1 DUP2 MSTORE PUSH1 0x20 ADD PUSH0 KECCAK256 PUSH1 0x40 MLOAD DUP1 PUSH1 0xE0 ADD PUSH1 0x40 MSTORE SWAP1 DUP2 PUSH0 DUP3 ADD DUP1 SLOAD PUSH2 0xD23 SWAP1 PUSH2 0x1892 JUMP JUMPDEST DUP1 PUSH1 0x1F ADD PUSH1 0x20 DUP1 SWAP2 DIV MUL PUSH1 0x20 ADD PUSH1 0x40 MLOAD SWAP1 DUP2 ADD PUSH1 0x40 MSTORE DUP1 SWAP3 SWAP2 SWAP1 DUP2 DUP2 MSTORE PUSH1 0x20 ADD DUP3 DUP1 SLOAD PUSH2 0xD4F SWAP1 PUSH2 0x1892 JUMP JUMPDEST DUP1 ISZERO PUSH2 0xD9A JUMPI DUP1 PUSH1 0x1F LT PUSH2 0xD71 JUMPI PUSH2 0x100 DUP1 DUP4 SLOAD DIV MUL DUP4 MSTORE SWAP2 PUSH1 0x20 ADD SWAP2 PUSH2 0xD9A JUMP JUMPDEST DUP3 ADD SWAP2 SWAP1 PUSH0 MSTORE PUSH1 0x20 PUSH0 KECCAK256 SWAP1 JUMPDEST DUP2 SLOAD DUP2 MSTORE SWAP1 PUSH1 0x1 ADD SWAP1 PUSH1 0x20 ADD DUP1 DUP4 GT PUSH2 0xD7D JUMPI DUP3 SWAP1 SUB PUSH1 0x1F AND DUP3 ADD SWAP2 JUMPDEST POP POP POP POP POP DUP2 MSTORE PUSH1 0x20 ADD PUSH1 0x1 DUP3 ADD PUSH0 SWAP1 SLOAD SWAP1 PUSH2 0x100 EXP SWAP1 DIV PUSH20 0xFFFFFFFFFFFFFFFFFFFFFFFFFFFFFFFFFFFFFFFF AND PUSH20 0xFFFFFFFFFFFFFFFFFFFFFFFFFFFFFFFFFFFFFFFF AND PUSH20 0xFFFFFFFFFFFFFFFFFFFFFFFFFFFFFFFFFFFFFFFF AND DUP2 MSTORE PUSH1 0x20 ADD PUSH1 0x2 DUP3 ADD DUP1 SLOAD PUSH2 0xE08 SWAP1 PUSH2 0x1892 JUMP JUMPDEST DUP1 PUSH1 0x1F ADD PUSH1 0x20 DUP1 SWAP2 DIV MUL PUSH1 0x20 ADD PUSH1 0x40 MLOAD SWAP1 DUP2 ADD PUSH1 0x40 MSTORE DUP1 SWAP3 SWAP2 SWAP1 DUP2 DUP2 MSTORE PUSH1 0x20 ADD DUP3 DUP1 SLOAD PUSH2 0xE34 SWAP1 PUSH2 0x1892 JUMP JUMPDEST DUP1 ISZERO PUSH2 0xE7F JUMPI DUP1 PUSH1 0x1F LT PUSH2 0xE56 JUMPI PUSH2 0x100 DUP1 DUP4 SLOAD DIV MUL DUP4 MSTORE SWAP2 PUSH1 0x20 ADD SWAP2 PUSH2 0xE7F JUMP JUMPDEST DUP3 ADD SWAP2 SWAP1 PUSH0 MSTORE PUSH1 0x20 PUSH0 KECCAK256 SWAP1 JUMPDEST DUP2 SLOAD DUP2 MSTORE SWAP1 PUSH1 0x1 ADD SWAP1 PUSH1 0x20 ADD DUP1 DUP4 GT PUSH2 0xE62 JUMPI DUP3 SWAP1 SUB PUSH1 0x1F AND DUP3 ADD SWAP2 JUMPDEST POP POP POP POP POP DUP2 MSTORE PUSH1 0x20 ADD PUSH1 0x3 DUP3 ADD DUP1 SLOAD PUSH2 0xE98 SWAP1 PUSH2 0x1892 JUMP JUMPDEST DUP1 PUSH1 0x1F ADD PUSH1 0x20 DUP1 SWAP2 DIV MUL PUSH1 0x20 ADD PUSH1 0x40 MLOAD SWAP1 DUP2 ADD PUSH1 0x40 MSTORE DUP1 SWAP3 SWAP2 SWAP1 DUP2 DUP2 MSTORE PUSH1 0x20 ADD DUP3 DUP1 SLOAD PUSH2 0xEC4 SWAP1 PUSH2 0x1892 JUMP JUMPDEST DUP1 ISZERO PUSH2 0xF0F JUMPI DUP1 PUSH1 0x1F LT PUSH2 0xEE6 JUMPI PUSH2 0x100 DUP1 DUP4 SLOAD DIV MUL DUP4 MSTORE SWAP2 PUSH1 0x20 ADD SWAP2 PUSH2 0xF0F JUMP JUMPDEST DUP3 ADD SWAP2 SWAP1 PUSH0 MSTORE PUSH1 0x20 PUSH0 KECCAK256 SWAP1 JUMPDEST DUP2 SLOAD DUP2 MSTORE SWAP1 PUSH1 0x1 ADD SWAP1 PUSH1 0x20 ADD DUP1 DUP4 GT PUSH2 0xEF2 JUMPI DUP3 SWAP1 SUB PUSH1 0x1F AND DUP3 ADD SWAP2 JUMPDEST POP POP POP POP POP DUP2 MSTORE PUSH1 0x20 ADD PUSH1 0x4 DUP3 ADD DUP1 SLOAD PUSH2 0xF28 SWAP1 PUSH2 0x1892 JUMP JUMPDEST DUP1 PUSH1 0x1F ADD PUSH1 0x20 DUP1 SWAP2 DIV MUL PUSH1 0x20 ADD PUSH1 0x40 MLOAD SWAP1 DUP2 ADD PUSH1 0x40 MSTORE DUP1 SWAP3 SWAP2 SWAP1 DUP2 DUP2 MSTORE PUSH1 0x20 ADD DUP3 DUP1 SLOAD PUSH2 0xF54 SWAP1 PUSH2 0x1892 JUMP JUMPDEST DUP1 ISZERO PUSH2 0xF9F JUMPI DUP1 PUSH1 0x1F LT PUSH2 0xF76 JUMPI PUSH2 0x100 DUP1 DUP4 SLOAD DIV MUL DUP4 MSTORE SWAP2 PUSH1 0x20 ADD SWAP2 PUSH2 0xF9F JUMP JUMPDEST DUP3 ADD SWAP2 SWAP1 PUSH0 MSTORE PUSH1 0x20 PUSH0 KECCAK256 SWAP1 JUMPDEST DUP2 SLOAD DUP2 MSTORE SWAP1 PUSH1 0x1 ADD SWAP1 PUSH1 0x20 ADD DUP1 DUP4 GT PUSH2 0xF82 JUMPI DUP3 SWAP1 SUB PUSH1 0x1F AND DUP3 ADD SWAP2 JUMPDEST POP POP POP POP POP DUP2 MSTORE PUSH1 0x20 ADD PUSH1 0x5 DUP3 ADD DUP1 SLOAD PUSH2 0xFB8 SWAP1 PUSH2 0x1892 JUMP JUMPDEST DUP1 PUSH1 0x1F ADD PUSH1 0x20 DUP1 SWAP2 DIV MUL PUSH1 0x20 ADD PUSH1 0x40 MLOAD SWAP1 DUP2 ADD PUSH1 0x40 MSTORE DUP1 SWAP3 SWAP2 SWAP1 DUP2 DUP2 MSTORE PUSH1 0x20 ADD DUP3 DUP1 SLOAD PUSH2 0xFE4 SWAP1 PUSH2 0x1892 JUMP JUMPDEST DUP1 ISZERO PUSH2 0x102F JUMPI DUP1 PUSH1 0x1F LT PUSH2 0x1006 JUMPI PUSH2 0x100 DUP1 DUP4 SLOAD DIV MUL DUP4 MSTORE SWAP2 PUSH1 0x20 ADD SWAP2 PUSH2 0x102F JUMP JUMPDEST DUP3 ADD SWAP2 SWAP1 PUSH0 MSTORE PUSH1 0x20 PUSH0 KECCAK256 SWAP1 JUMPDEST DUP2 SLOAD DUP2 MSTORE SWAP1 PUSH1 0x1 ADD SWAP1 PUSH1 0x20 ADD DUP1 DUP4 GT PUSH2 0x1012 JUMPI DUP3 SWAP1 SUB PUSH1 0x1F AND DUP3 ADD SWAP2 JUMPDEST POP POP POP POP POP DUP2 MSTORE PUSH1 0x20 ADD PUSH1 0x6 DUP3 ADD DUP1 SLOAD PUSH2 0x1048 SWAP1 PUSH2 0x1892 JUMP JUMPDEST DUP1 PUSH1 0x1F ADD PUSH1 0x20 DUP1 SWAP2 DIV MUL PUSH1 0x20 ADD PUSH1 0x40 MLOAD SWAP1 DUP2 ADD PUSH1 0x40 MSTORE DUP1 SWAP3 SWAP2 SWAP1 DUP2 DUP2 MSTORE PUSH1 0x20 ADD DUP3 DUP1 SLOAD PUSH2 0x1074 SWAP1 PUSH2 0x1892 JUMP JUMPDEST DUP1 ISZERO PUSH2 0x10BF JUMPI DUP1 PUSH1 0x1F LT PUSH2 0x1096 JUMPI PUSH2 0x100 DUP1 DUP4 SLOAD DIV MUL DUP4 MSTORE SWAP2 PUSH1 0x20 ADD SWAP2 PUSH2 0x10BF JUMP JUMPDEST DUP3 ADD SWAP2 SWAP1 PUSH0 MSTORE PUSH1 0x20 PUSH0 KECCAK256 SWAP1 JUMPDEST DUP2 SLOAD DUP2 MSTORE SWAP1 PUSH1 0x1 ADD SWAP1 PUSH1 0x20 ADD DUP1 DUP4 GT PUSH2 0x10A2 JUMPI DUP3 SWAP1 SUB PUSH1 0x1F AND DUP3 ADD SWAP2 JUMPDEST POP POP POP POP POP DUP2 MSTORE POP POP DUP3 DUP3 DUP2 MLOAD DUP2 LT PUSH2 0x10DB JUMPI PUSH2 0x10DA PUSH2 0x1C24 JUMP JUMPDEST JUMPDEST PUSH1 0x20 MUL PUSH1 0x20 ADD ADD DUP2 SWAP1 MSTORE POP DUP1 DUP1 PUSH1 0x1 ADD SWAP2 POP POP PUSH2 0xC84 JUMP JUMPDEST POP DUP1 SWAP2 POP POP SWAP1 JUMP JUMPDEST PUSH7 0x470DE4DF820000 DUP2 JUMP JUMPDEST PUSH7 0x2386F26FC10000 DUP2 JUMP JUMPDEST PUSH1 0x2 PUSH0 SLOAD SUB PUSH2 0x1155 JUMPI PUSH1 0x40 MLOAD PUSH32 0x8C379A000000000000000000000000000000000000000000000000000000000 DUP2 MSTORE PUSH1 0x4 ADD PUSH2 0x114C SWAP1 PUSH2 0x1C9B JUMP JUMPDEST PUSH1 0x40 MLOAD DUP1 SWAP2 SUB SWAP1 REVERT JUMPDEST PUSH1 0x2 PUSH0 DUP2 SWAP1 SSTORE POP JUMP JUMPDEST PUSH1 0x1 PUSH0 DUP2 SWAP1 SSTORE POP JUMP JUMPDEST PUSH1 0x40 MLOAD DUP1 PUSH1 0xE0 ADD PUSH1 0x40 MSTORE DUP1 PUSH1 0x60 DUP2 MSTORE PUSH1 0x20 ADD PUSH0 PUSH20 0xFFFFFFFFFFFFFFFFFFFFFFFFFFFFFFFFFFFFFFFF AND DUP2 MSTORE PUSH1 0x20 ADD PUSH1 0x60 DUP2 MSTORE PUSH1 0x20 ADD PUSH1 0x60 DUP2 MSTORE PUSH1 0x20 ADD PUSH1 0x60 DUP2 MSTORE PUSH1 0x20 ADD PUSH1 0x60 DUP2 MSTORE PUSH1 0x20 ADD PUSH1 0x60 DUP2 MSTORE POP SWAP1 JUMP JUMPDEST PUSH0 DUP1 REVERT JUMPDEST PUSH0 DUP1 REVERT JUMPDEST PUSH0 DUP1 REVERT JUMPDEST PUSH0 DUP1 REVERT JUMPDEST PUSH0 DUP1 REVERT JUMPDEST PUSH0 DUP1 DUP4 PUSH1 0x1F DUP5 ADD SLT PUSH2 0x11E2 JUMPI PUSH2 0x11E1 PUSH2 0x11C1 JUMP JUMPDEST JUMPDEST DUP3 CALLDATALOAD SWAP1 POP PUSH8 0xFFFFFFFFFFFFFFFF DUP2 GT ISZERO PUSH2 0x11FF JUMPI PUSH2 0x11FE PUSH2 0x11C5 JUMP JUMPDEST JUMPDEST PUSH1 0x20 DUP4 ADD SWAP2 POP DUP4 PUSH1 0x1 DUP3 MUL DUP4 ADD GT ISZERO PUSH2 0x121B JUMPI PUSH2 0x121A PUSH2 0x11C9 JUMP JUMPDEST JUMPDEST SWAP3 POP SWAP3 SWAP1 POP JUMP JUMPDEST PUSH0 DUP1 PUSH0 DUP1 PUSH0 DUP1 PUSH0 DUP1 PUSH0 DUP1 PUSH1 0xA0 DUP12 DUP14 SUB SLT ISZERO PUSH2 0x1240 JUMPI PUSH2 0x123F PUSH2 0x11B9 JUMP JUMPDEST JUMPDEST PUSH0 DUP12 ADD CALLDATALOAD PUSH8 0xFFFFFFFFFFFFFFFF DUP2 GT ISZERO PUSH2 0x125D JUMPI PUSH2 0x125C PUSH2 0x11BD JUMP JUMPDEST JUMPDEST PUSH2 0x1269 DUP14 DUP3 DUP15 ADD PUSH2 0x11CD JUMP JUMPDEST SWAP11 POP SWAP11 POP POP PUSH1 0x20 DUP12 ADD CALLDATALOAD PUSH8 0xFFFFFFFFFFFFFFFF DUP2 GT ISZERO PUSH2 0x128C JUMPI PUSH2 0x128B PUSH2 0x11BD JUMP JUMPDEST JUMPDEST PUSH2 0x1298 DUP14 DUP3 DUP15 ADD PUSH2 0x11CD JUMP JUMPDEST SWAP9 POP SWAP9 POP POP PUSH1 0x40 DUP12 ADD CALLDATALOAD PUSH8 0xFFFFFFFFFFFFFFFF DUP2 GT ISZERO PUSH2 0x12BB JUMPI PUSH2 0x12BA PUSH2 0x11BD JUMP JUMPDEST JUMPDEST PUSH2 0x12C7 DUP14 DUP3 DUP15 ADD PUSH2 0x11CD JUMP JUMPDEST SWAP7 POP SWAP7 POP POP PUSH1 0x60 DUP12 ADD CALLDATALOAD PUSH8 0xFFFFFFFFFFFFFFFF DUP2 GT ISZERO PUSH2 0x12EA JUMPI PUSH2 0x12E9 PUSH2 0x11BD JUMP JUMPDEST JUMPDEST PUSH2 0x12F6 DUP14 DUP3 DUP15 ADD PUSH2 0x11CD JUMP JUMPDEST SWAP5 POP SWAP5 POP POP PUSH1 0x80 DUP12 ADD CALLDATALOAD PUSH8 0xFFFFFFFFFFFFFFFF DUP2 GT ISZERO PUSH2 0x1319 JUMPI PUSH2 0x1318 PUSH2 0x11BD JUMP JUMPDEST JUMPDEST PUSH2 0x1325 DUP14 DUP3 DUP15 ADD PUSH2 0x11CD JUMP JUMPDEST SWAP3 POP SWAP3 POP POP SWAP3 SWAP6 SWAP9 SWAP12 SWAP2 SWAP5 SWAP8 SWAP11 POP SWAP3 SWAP6 SWAP9 POP JUMP JUMPDEST PUSH0 DUP2 MLOAD SWAP1 POP SWAP2 SWAP1 POP JUMP JUMPDEST PUSH0 DUP3 DUP3 MSTORE PUSH1 0x20 DUP3 ADD SWAP1 POP SWAP3 SWAP2 POP POP JUMP JUMPDEST DUP3 DUP2 DUP4 MCOPY PUSH0 DUP4 DUP4 ADD MSTORE POP POP POP JUMP JUMPDEST PUSH0 PUSH1 0x1F NOT PUSH1 0x1F DUP4 ADD AND SWAP1 POP SWAP2 SWAP1 POP JUMP JUMPDEST PUSH0 PUSH2 0x137B DUP3 PUSH2 0x1339 JUMP JUMPDEST PUSH2 0x1385 DUP2 DUP6 PUSH2 0x1343 JUMP JUMPDEST SWAP4 POP PUSH2 0x1395 DUP2 DUP6 PUSH1 0x20 DUP7 ADD PUSH2 0x1353 JUMP JUMPDEST PUSH2 0x139E DUP2 PUSH2 0x1361 JUMP JUMPDEST DUP5 ADD SWAP2 POP POP SWAP3 SWAP2 POP POP JUMP JUMPDEST PUSH0 PUSH20 0xFFFFFFFFFFFFFFFFFFFFFFFFFFFFFFFFFFFFFFFF DUP3 AND SWAP1 POP SWAP2 SWAP1 POP JUMP JUMPDEST PUSH0 PUSH2 0x13D2 DUP3 PUSH2 0x13A9 JUMP JUMPDEST SWAP1 POP SWAP2 SWAP1 POP JUMP JUMPDEST PUSH2 0x13E2 DUP2 PUSH2 0x13C8 JUMP JUMPDEST DUP3 MSTORE POP POP JUMP JUMPDEST PUSH0 PUSH1 0xE0 DUP4 ADD PUSH0 DUP4 ADD MLOAD DUP5 DUP3 SUB PUSH0 DUP7 ADD MSTORE PUSH2 0x1402 DUP3 DUP3 PUSH2 0x1371 JUMP JUMPDEST SWAP2 POP POP PUSH1 0x20 DUP4 ADD MLOAD PUSH2 0x1417 PUSH1 0x20 DUP7 ADD DUP3 PUSH2 0x13D9 JUMP JUMPDEST POP PUSH1 0x40 DUP4 ADD MLOAD DUP5 DUP3 SUB PUSH1 0x40 DUP7 ADD MSTORE PUSH2 0x142F DUP3 DUP3 PUSH2 0x1371 JUMP JUMPDEST SWAP2 POP POP PUSH1 0x60 DUP4 ADD MLOAD DUP5 DUP3 SUB PUSH1 0x60 DUP7 ADD MSTORE PUSH2 0x1449 DUP3 DUP3 PUSH2 0x1371 JUMP JUMPDEST SWAP2 POP POP PUSH1 0x80 DUP4 ADD MLOAD DUP5 DUP3 SUB PUSH1 0x80 DUP7 ADD MSTORE PUSH2 0x1463 DUP3 DUP3 PUSH2 0x1371 JUMP JUMPDEST SWAP2 POP POP PUSH1 0xA0 DUP4 ADD MLOAD DUP5 DUP3 SUB PUSH1 0xA0 DUP7 ADD MSTORE PUSH2 0x147D DUP3 DUP3 PUSH2 0x1371 JUMP JUMPDEST SWAP2 POP POP PUSH1 0xC0 DUP4 ADD MLOAD DUP5 DUP3 SUB PUSH1 0xC0 DUP7 ADD MSTORE PUSH2 0x1497 DUP3 DUP3 PUSH2 0x1371 JUMP JUMPDEST SWAP2 POP POP DUP1 SWAP2 POP POP SWAP3 SWAP2 POP POP JUMP JUMPDEST PUSH0 PUSH1 0x20 DUP3 ADD SWAP1 POP DUP2 DUP2 SUB PUSH0 DUP4 ADD MSTORE PUSH2 0x14BC DUP2 DUP5 PUSH2 0x13E8 JUMP JUMPDEST SWAP1 POP SWAP3 SWAP2 POP POP JUMP JUMPDEST PUSH2 0x14CD DUP2 PUSH2 0x13C8 JUMP JUMPDEST DUP3 MSTORE POP POP JUMP JUMPDEST PUSH0 PUSH1 0x20 DUP3 ADD SWAP1 POP PUSH2 0x14E6 PUSH0 DUP4 ADD DUP5 PUSH2 0x14C4 JUMP JUMPDEST SWAP3 SWAP2 POP POP JUMP JUMPDEST PUSH0 DUP3 DUP3 MSTORE PUSH1 0x20 DUP3 ADD SWAP1 POP SWAP3 SWAP2 POP POP JUMP JUMPDEST PUSH0 PUSH2 0x1506 DUP3 PUSH2 0x1339 JUMP JUMPDEST PUSH2 0x1510 DUP2 DUP6 PUSH2 0x14EC JUMP JUMPDEST SWAP4 POP PUSH2 0x1520 DUP2 DUP6 PUSH1 0x20 DUP7 ADD PUSH2 0x1353 JUMP JUMPDEST PUSH2 0x1529 DUP2 PUSH2 0x1361 JUMP JUMPDEST DUP5 ADD SWAP2 POP POP SWAP3 SWAP2 POP POP JUMP JUMPDEST PUSH0 PUSH1 0x20 DUP3 ADD SWAP1 POP DUP2 DUP2 SUB PUSH0 DUP4 ADD MSTORE PUSH2 0x154C DUP2 DUP5 PUSH2 0x14FC JUMP JUMPDEST SWAP1 POP SWAP3 SWAP2 POP POP JUMP JUMPDEST PUSH0 DUP2 MLOAD SWAP1 POP SWAP2 SWAP1 POP JUMP JUMPDEST PUSH0 DUP3 DUP3 MSTORE PUSH1 0x20 DUP3 ADD SWAP1 POP SWAP3 SWAP2 POP POP JUMP JUMPDEST PUSH0 DUP2 SWAP1 POP PUSH1 0x20 DUP3 ADD SWAP1 POP SWAP2 SWAP1 POP JUMP JUMPDEST PUSH0 PUSH1 0xE0 DUP4 ADD PUSH0 DUP4 ADD MLOAD DUP5 DUP3 SUB PUSH0 DUP7 ADD MSTORE PUSH2 0x1597 DUP3 DUP3 PUSH2 0x1371 JUMP JUMPDEST SWAP2 POP POP PUSH1 0x20 DUP4 ADD MLOAD PUSH2 0x15AC PUSH1 0x20 DUP7 ADD DUP3 PUSH2 0x13D9 JUMP JUMPDEST POP PUSH1 0x40 DUP4 ADD MLOAD DUP5 DUP3 SUB PUSH1 0x40 DUP7 ADD MSTORE PUSH2 0x15C4 DUP3 DUP3 PUSH2 0x1371 JUMP JUMPDEST SWAP2 POP POP PUSH1 0x60 DUP4 ADD MLOAD DUP5 DUP3 SUB PUSH1 0x60 DUP7 ADD MSTORE PUSH2 0x15DE DUP3 DUP3 PUSH2 0x1371 JUMP JUMPDEST SWAP2 POP POP PUSH1 0x80 DUP4 ADD MLOAD DUP5 DUP3 SUB PUSH1 0x80 DUP7 ADD MSTORE PUSH2 0x15F8 DUP3 DUP3 PUSH2 0x1371 JUMP JUMPDEST SWAP2 POP POP PUSH1 0xA0 DUP4 ADD MLOAD DUP5 DUP3 SUB PUSH1 0xA0 DUP7 ADD MSTORE PUSH2 0x1612 DUP3 DUP3 PUSH2 0x1371 JUMP JUMPDEST SWAP2 POP POP PUSH1 0xC0 DUP4 ADD MLOAD DUP5 DUP3 SUB PUSH1 0xC0 DUP7 ADD MSTORE PUSH2 0x162C DUP3 DUP3 PUSH2 0x1371 JUMP JUMPDEST SWAP2 POP POP DUP1 SWAP2 POP POP SWAP3 SWAP2 POP POP JUMP JUMPDEST PUSH0 PUSH2 0x1644 DUP4 DUP4 PUSH2 0x157D JUMP JUMPDEST SWAP1 POP SWAP3 SWAP2 POP POP JUMP JUMPDEST PUSH0 PUSH1 0x20 DUP3 ADD SWAP1 POP SWAP2 SWAP1 POP JUMP JUMPDEST PUSH0 PUSH2 0x1662 DUP3 PUSH2 0x1554 JUMP JUMPDEST PUSH2 0x166C DUP2 DUP6 PUSH2 0x155E JUMP JUMPDEST SWAP4 POP DUP4 PUSH1 0x20 DUP3 MUL DUP6 ADD PUSH2 0x167E DUP6 PUSH2 0x156E JUMP JUMPDEST DUP1 PUSH0 JUMPDEST DUP6 DUP2 LT ISZERO PUSH2 0x16B9 JUMPI DUP5 DUP5 SUB DUP10 MSTORE DUP2 MLOAD PUSH2 0x169A DUP6 DUP3 PUSH2 0x1639 JUMP JUMPDEST SWAP5 POP PUSH2 0x16A5 DUP4 PUSH2 0x164C JUMP JUMPDEST SWAP3 POP PUSH1 0x20 DUP11 ADD SWAP10 POP POP PUSH1 0x1 DUP2 ADD SWAP1 POP PUSH2 0x1681 JUMP JUMPDEST POP DUP3 SWAP8 POP DUP8 SWAP6 POP POP POP POP POP POP SWAP3 SWAP2 POP POP JUMP JUMPDEST PUSH0 PUSH1 0x20 DUP3 ADD SWAP1 POP DUP2 DUP2 SUB PUSH0 DUP4 ADD MSTORE PUSH2 0x16E3 DUP2 DUP5 PUSH2 0x1658 JUMP JUMPDEST SWAP1 POP SWAP3 SWAP2 POP POP JUMP JUMPDEST PUSH0 DUP2 SWAP1 POP SWAP2 SWAP1 POP JUMP JUMPDEST PUSH2 0x16FD DUP2 PUSH2 0x16EB JUMP JUMPDEST DUP3 MSTORE POP POP JUMP JUMPDEST PUSH0 PUSH1 0x20 DUP3 ADD SWAP1 POP PUSH2 0x1716 PUSH0 DUP4 ADD DUP5 PUSH2 0x16F4 JUMP JUMPDEST SWAP3 SWAP2 POP POP JUMP JUMPDEST PUSH32 0x496E636F7272656374207072656D69756D3A206D757374206265206578616374 PUSH0 DUP3 ADD MSTORE PUSH32 0x6C7920302E303120455448000000000000000000000000000000000000000000 PUSH1 0x20 DUP3 ADD MSTORE POP JUMP JUMPDEST PUSH0 PUSH2 0x1776 PUSH1 0x2B DUP4 PUSH2 0x14EC JUMP JUMPDEST SWAP2 POP PUSH2 0x1781 DUP3 PUSH2 0x171C JUMP JUMPDEST PUSH1 0x40 DUP3 ADD SWAP1 POP SWAP2 SWAP1 POP JUMP JUMPDEST PUSH0 PUSH1 0x20 DUP3 ADD SWAP1 POP DUP2 DUP2 SUB PUSH0 DUP4 ADD MSTORE PUSH2 0x17A3 DUP2 PUSH2 0x176A JUMP JUMPDEST SWAP1 POP SWAP2 SWAP1 POP JUMP JUMPDEST PUSH32 0x506F6C69637920616C72656164792065786973747320666F7220746869732061 PUSH0 DUP3 ADD MSTORE PUSH32 0x6464726573730000000000000000000000000000000000000000000000000000 PUSH1 0x20 DUP3 ADD MSTORE POP JUMP JUMPDEST PUSH0 PUSH2 0x1804 PUSH1 0x26 DUP4 PUSH2 0x14EC JUMP JUMPDEST SWAP2 POP PUSH2 0x180F DUP3 PUSH2 0x17AA JUMP JUMPDEST PUSH1 0x40 DUP3 ADD SWAP1 POP SWAP2 SWAP1 POP JUMP JUMPDEST PUSH0 PUSH1 0x20 DUP3 ADD SWAP1 POP DUP2 DUP2 SUB PUSH0 DUP4 ADD MSTORE PUSH2 0x1831 DUP2 PUSH2 0x17F8 JUMP JUMPDEST SWAP1 POP SWAP2 SWAP1 POP JUMP JUMPDEST PUSH32 0x4E487B7100000000000000000000000000000000000000000000000000000000 PUSH0 MSTORE PUSH1 0x41 PUSH1 0x4 MSTORE PUSH1 0x24 PUSH0 REVERT JUMPDEST PUSH32 0x4E487B7100000000000000000000000000000000000000000000000000000000 PUSH0 MSTORE PUSH1 0x22 PUSH1 0x4 MSTORE PUSH1 0x24 PUSH0 REVERT JUMPDEST PUSH0 PUSH1 0x2 DUP3 DIV SWAP1 POP PUSH1 0x1 DUP3 AND DUP1 PUSH2 0x18A9 JUMPI PUSH1 0x7F DUP3 AND SWAP2 POP JUMPDEST PUSH1 0x20 DUP3 LT DUP2 SUB PUSH2 0x18BC JUMPI PUSH2 0x18BB PUSH2 0x1865 JUMP JUMPDEST JUMPDEST POP SWAP2 SWAP1 POP JUMP JUMPDEST PUSH0 DUP2 SWAP1 POP DUP2 PUSH0 MSTORE PUSH1 0x20 PUSH0 KECCAK256 SWAP1 POP SWAP2 SWAP1 POP JUMP JUMPDEST PUSH0 PUSH1 0x20 PUSH1 0x1F DUP4 ADD DIV SWAP1 POP SWAP2 SWAP1 POP JUMP JUMPDEST PUSH0 DUP3 DUP3 SHL SWAP1 POP SWAP3 SWAP2 POP POP JUMP JUMPDEST PUSH0 PUSH1 0x8 DUP4 MUL PUSH2 0x191E PUSH32 0xFFFFFFFFFFFFFFFFFFFFFFFFFFFFFFFFFFFFFFFFFFFFFFFFFFFFFFFFFFFFFFFF DUP3 PUSH2 0x18E3 JUMP JUMPDEST PUSH2 0x1928 DUP7 DUP4 PUSH2 0x18E3 JUMP JUMPDEST SWAP6 POP DUP1 NOT DUP5 AND SWAP4 POP DUP1 DUP7 AND DUP5 OR SWAP3 POP POP POP SWAP4 SWAP3 POP POP POP JUMP JUMPDEST PUSH0 DUP2 SWAP1 POP SWAP2 SWAP1 POP JUMP JUMPDEST PUSH0 PUSH2 0x1963 PUSH2 0x195E PUSH2 0x1959 DUP5 PUSH2 0x16EB JUMP JUMPDEST PUSH2 0x1940 JUMP JUMPDEST PUSH2 0x16EB JUMP JUMPDEST SWAP1 POP SWAP2 SWAP1 POP JUMP JUMPDEST PUSH0 DUP2 SWAP1 POP SWAP2 SWAP1 POP JUMP JUMPDEST PUSH2 0x197C DUP4 PUSH2 0x1949 JUMP JUMPDEST PUSH2 0x1990 PUSH2 0x1988 DUP3 PUSH2 0x196A JUMP JUMPDEST DUP5 DUP5 SLOAD PUSH2 0x18EF JUMP JUMPDEST DUP3 SSTORE POP POP POP POP JUMP JUMPDEST PUSH0 SWAP1 JUMP JUMPDEST PUSH2 0x19A4 PUSH2 0x1998 JUMP JUMPDEST PUSH2 0x19AF DUP2 DUP5 DUP5 PUSH2 0x1973 JUMP JUMPDEST POP POP POP JUMP JUMPDEST JUMPDEST DUP2 DUP2 LT ISZERO PUSH2 0x19D2 JUMPI PUSH2 0x19C7 PUSH0 DUP3 PUSH2 0x199C JUMP JUMPDEST PUSH1 0x1 DUP2 ADD SWAP1 POP PUSH2 0x19B5 JUMP JUMPDEST POP POP JUMP JUMPDEST PUSH1 0x1F DUP3 GT ISZERO PUSH2 0x1A17 JUMPI PUSH2 0x19E8 DUP2 PUSH2 0x18C2 JUMP JUMPDEST PUSH2 0x19F1 DUP5 PUSH2 0x18D4 JUMP JUMPDEST DUP2 ADD PUSH1 0x20 DUP6 LT ISZERO PUSH2 0x1A00 JUMPI DUP2 SWAP1 POP JUMPDEST PUSH2 0x1A14 PUSH2 0x1A0C DUP6 PUSH2 0x18D4 JUMP JUMPDEST DUP4 ADD DUP3 PUSH2 0x19B4 JUMP JUMPDEST POP POP JUMPDEST POP POP POP JUMP JUMPDEST PUSH0 DUP3 DUP3 SHR SWAP1 POP SWAP3 SWAP2 POP POP JUMP JUMPDEST PUSH0 PUSH2 0x1A37 PUSH0 NOT DUP5 PUSH1 0x8 MUL PUSH2 0x1A1C JUMP JUMPDEST NOT DUP1 DUP4 AND SWAP2 POP POP SWAP3 SWAP2 POP POP JUMP JUMPDEST PUSH0 PUSH2 0x1A4F DUP4 DUP4 PUSH2 0x1A28 JUMP JUMPDEST SWAP2 POP DUP3 PUSH1 0x2 MUL DUP3 OR SWAP1 POP SWAP3 SWAP2 POP POP JUMP JUMPDEST PUSH2 0x1A68 DUP3 PUSH2 0x1339 JUMP JUMPDEST PUSH8 0xFFFFFFFFFFFFFFFF DUP2 GT ISZERO PUSH2 0x1A81 JUMPI PUSH2 0x1A80 PUSH2 0x1838 JUMP JUMPDEST JUMPDEST PUSH2 0x1A8B DUP3 SLOAD PUSH2 0x1892 JUMP JUMPDEST PUSH2 0x1A96 DUP3 DUP3 DUP6 PUSH2 0x19D6 JUMP JUMPDEST PUSH0 PUSH1 0x20 SWAP1 POP PUSH1 0x1F DUP4 GT PUSH1 0x1 DUP2 EQ PUSH2 0x1AC7 JUMPI PUSH0 DUP5 ISZERO PUSH2 0x1AB5 JUMPI DUP3 DUP8 ADD MLOAD SWAP1 POP JUMPDEST PUSH2 0x1ABF DUP6 DUP3 PUSH2 0x1A44 JUMP JUMPDEST DUP7 SSTORE POP PUSH2 0x1B26 JUMP JUMPDEST PUSH1 0x1F NOT DUP5 AND PUSH2 0x1AD5 DUP7 PUSH2 0x18C2 JUMP JUMPDEST PUSH0 JUMPDEST DUP3 DUP2 LT ISZERO PUSH2 0x1AFC JUMPI DUP5 DUP10 ADD MLOAD DUP3 SSTORE PUSH1 0x1 DUP3 ADD SWAP2 POP PUSH1 0x20 DUP6 ADD SWAP5 POP PUSH1 0x20 DUP2 ADD SWAP1 POP PUSH2 0x1AD7 JUMP JUMPDEST DUP7 DUP4 LT ISZERO PUSH2 0x1B19 JUMPI DUP5 DUP10 ADD MLOAD PUSH2 0x1B15 PUSH1 0x1F DUP10 AND DUP3 PUSH2 0x1A28 JUMP JUMPDEST DUP4 SSTORE POP JUMPDEST PUSH1 0x1 PUSH1 0x2 DUP9 MUL ADD DUP9 SSTORE POP POP POP JUMPDEST POP POP POP POP POP POP JUMP JUMPDEST PUSH32 0x4E6F20706F6C69637920666F756E640000000000000000000000000000000000 PUSH0 DUP3 ADD MSTORE POP JUMP JUMPDEST PUSH0 PUSH2 0x1B62 PUSH1 0xF DUP4 PUSH2 0x14EC JUMP JUMPDEST SWAP2 POP PUSH2 0x1B6D DUP3 PUSH2 0x1B2E JUMP JUMPDEST PUSH1 0x20 DUP3 ADD SWAP1 POP SWAP2 SWAP1 POP JUMP JUMPDEST PUSH0 PUSH1 0x20 DUP3 ADD SWAP1 POP DUP2 DUP2 SUB PUSH0 DUP4 ADD MSTORE PUSH2 0x1B8F DUP2 PUSH2 0x1B56 JUMP JUMPDEST SWAP1 POP SWAP2 SWAP1 POP JUMP JUMPDEST PUSH32 0x43616C6C6572206973206E6F742074686520696E737572616E63652070726F76 PUSH0 DUP3 ADD MSTORE PUSH32 0x6964657200000000000000000000000000000000000000000000000000000000 PUSH1 0x20 DUP3 ADD MSTORE POP JUMP JUMPDEST PUSH0 PUSH2 0x1BF0 PUSH1 0x24 DUP4 PUSH2 0x14EC JUMP JUMPDEST SWAP2 POP PUSH2 0x1BFB DUP3 PUSH2 0x1B96 JUMP JUMPDEST PUSH1 0x40 DUP3 ADD SWAP1 POP SWAP2 SWAP1 POP JUMP JUMPDEST PUSH0 PUSH1 0x20 DUP3 ADD SWAP1 POP DUP2 DUP2 SUB PUSH0 DUP4 ADD MSTORE PUSH2 0x1C1D DUP2 PUSH2 0x1BE4 JUMP JUMPDEST SWAP1 POP SWAP2 SWAP1 POP JUMP JUMPDEST PUSH32 0x4E487B7100000000000000000000000000000000000000000000000000000000 PUSH0 MSTORE PUSH1 0x32 PUSH1 0x4 MSTORE PUSH1 0x24 PUSH0 REVERT JUMPDEST PUSH32 0x5265656E7472616E637947756172643A207265656E7472616E742063616C6C00 PUSH0 DUP3 ADD MSTORE POP JUMP JUMPDEST PUSH0 PUSH2 0x1C85 PUSH1 0x1F DUP4 PUSH2 0x14EC JUMP JUMPDEST SWAP2 POP PUSH2 0x1C90 DUP3 PUSH2 0x1C51 JUMP JUMPDEST PUSH1 0x20 DUP3 ADD SWAP1 POP SWAP2 SWAP1 POP JUMP JUMPDEST PUSH0 PUSH1 0x20 DUP3 ADD SWAP1 POP DUP2 DUP2 SUB PUSH0 DUP4 ADD MSTORE PUSH2 0x1CB2 DUP2 PUSH2 0x1C79 JUMP JUMPDEST SWAP1 POP SWAP2 SWAP1 POP JUMP INVALID POP PUSH19 0x656D69756D3A20302E3031204554482C20496E PUSH5 0x656D6E6974 PUSH26 0x3A20302E3032204554482C20436F7665726167653A204861696C KECCAK256 PUSH2 0x6E64 KECCAK256 PUSH7 0x6C6F6F64206465 PUSH13 0x6179732EA26469706673582212 KECCAK256 PUSH8 0xB6FAC692C43503FC 0xCA 0xE6 JUMP 0xDA INVALID ADDRESS 0xE3 SWAP1 SSTORE 0xE5 SWAP15 0xD3 0xC8 MULMOD SELFDESTRUCT BLOBBASEFEE PUSH15 0x994EC6AC012F64736F6C634300081A STOP CALLER "
				},
				"gasEstimates": {
					"creation": {
						"codeDepositCost": "1495800",
						"executionCost": "infinite",
						"totalCost": "infinite"
					},
					"external": {
						"INDEMNITY()": "369",
						"PREMIUM()": "391",
						"claimInsurance()": "210",
						"insuranceProvider()": "2553",
						"purchasePolicy(string,string,string,string,string)": "infinite",
						"viewAllPolicies()": "infinite",
						"viewAvailablePolicy()": "infinite",
						"viewMyPolicy()": "infinite"
					}
				},
				"methodIdentifiers": {
					"INDEMNITY()": "cd95e777",
					"PREMIUM()": "ea3696ca",
					"claimInsurance()": "a75ac608",
					"insuranceProvider()": "9955f67c",
					"purchasePolicy(string,string,string,string,string)": "5d02ed12",
					"viewAllPolicies()": "c160693d",
					"viewAvailablePolicy()": "b6fc3b2a",
					"viewMyPolicy()": "963163bd"
				}
			},
			"storageLayout": {
				"storage": [
					{
						"astId": 10,
						"contract": "FlightInsurance2.sol:FlightInsurance1",
						"label": "_status",
						"offset": 0,
						"slot": "0",
						"type": "t_uint256"
					},
					{
						"astId": 92,
						"contract": "FlightInsurance2.sol:FlightInsurance1",
						"label": "insuranceProvider",
						"offset": 0,
						"slot": "1",
						"type": "t_address"
					},
					{
						"astId": 97,
						"contract": "FlightInsurance2.sol:FlightInsurance1",
						"label": "policiesByAddress",
						"offset": 0,
						"slot": "2",
						"type": "t_mapping(t_address,t_struct(InsurancePolicy)84_storage)"
					},
					{
						"astId": 100,
						"contract": "FlightInsurance2.sol:FlightInsurance1",
						"label": "insuredPassengerList",
						"offset": 0,
						"slot": "3",
						"type": "t_array(t_address)dyn_storage"
					}
				],
				"types": {
					"t_address": {
						"encoding": "inplace",
						"label": "address",
						"numberOfBytes": "20"
					},
					"t_array(t_address)dyn_storage": {
						"base": "t_address",
						"encoding": "dynamic_array",
						"label": "address[]",
						"numberOfBytes": "32"
					},
					"t_mapping(t_address,t_struct(InsurancePolicy)84_storage)": {
						"encoding": "mapping",
						"key": "t_address",
						"label": "mapping(address => struct FlightInsurance1.InsurancePolicy)",
						"numberOfBytes": "32",
						"value": "t_struct(InsurancePolicy)84_storage"
					},
					"t_string_storage": {
						"encoding": "bytes",
						"label": "string",
						"numberOfBytes": "32"
					},
					"t_struct(InsurancePolicy)84_storage": {
						"encoding": "inplace",
						"label": "struct FlightInsurance1.InsurancePolicy",
						"members": [
							{
								"astId": 71,
								"contract": "FlightInsurance2.sol:FlightInsurance1",
								"label": "passengerName",
								"offset": 0,
								"slot": "0",
								"type": "t_string_storage"
							},
							{
								"astId": 73,
								"contract": "FlightInsurance2.sol:FlightInsurance1",
								"label": "passengerAddress",
								"offset": 0,
								"slot": "1",
								"type": "t_address"
							},
							{
								"astId": 75,
								"contract": "FlightInsurance2.sol:FlightInsurance1",
								"label": "flightNumber",
								"offset": 0,
								"slot": "2",
								"type": "t_string_storage"
							},
							{
								"astId": 77,
								"contract": "FlightInsurance2.sol:FlightInsurance1",
								"label": "flightDate",
								"offset": 0,
								"slot": "3",
								"type": "t_string_storage"
							},
							{
								"astId": 79,
								"contract": "FlightInsurance2.sol:FlightInsurance1",
								"label": "departureCity",
								"offset": 0,
								"slot": "4",
								"type": "t_string_storage"
							},
							{
								"astId": 81,
								"contract": "FlightInsurance2.sol:FlightInsurance1",
								"label": "destinationCity",
								"offset": 0,
								"slot": "5",
								"type": "t_string_storage"
							},
							{
								"astId": 83,
								"contract": "FlightInsurance2.sol:FlightInsurance1",
								"label": "policyStatus",
								"offset": 0,
								"slot": "6",
								"type": "t_string_storage"
							}
						],
						"numberOfBytes": "224"
					},
					"t_uint256": {
						"encoding": "inplace",
						"label": "uint256",
						"numberOfBytes": "32"
					}
				}
			},
			"userdoc": {
				"kind": "user",
				"methods": {},
				"version": 1
			}
		}
	}
}