{
	"FlightInsurance1.sol": {
		"FlightInsurance1": {
			"abi": [
				{
					"inputs": [
						{
							"internalType": "address",
							"name": "_insuranceProvider",
							"type": "address"
						}
					],
					"stateMutability": "nonpayable",
					"type": "constructor"
				},
				{
					"inputs": [],
					"name": "INDEMNITY",
					"outputs": [
						{
							"internalType": "uint256",
							"name": "",
							"type": "uint256"
						}
					],
					"stateMutability": "view",
					"type": "function"
				},
				{
					"inputs": [],
					"name": "PREMIUM",
					"outputs": [
						{
							"internalType": "uint256",
							"name": "",
							"type": "uint256"
						}
					],
					"stateMutability": "view",
					"type": "function"
				},
				{
					"inputs": [],
					"name": "insuranceProvider",
					"outputs": [
						{
							"internalType": "address",
							"name": "",
							"type": "address"
						}
					],
					"stateMutability": "view",
					"type": "function"
				},
				{
					"inputs": [
						{
							"internalType": "string",
							"name": "name",
							"type": "string"
						},
						{
							"internalType": "string",
							"name": "flightNo",
							"type": "string"
						},
						{
							"internalType": "string",
							"name": "date",
							"type": "string"
						},
						{
							"internalType": "string",
							"name": "fromCity",
							"type": "string"
						},
						{
							"internalType": "string",
							"name": "toCity",
							"type": "string"
						}
					],
					"name": "purchasePolicy",
					"outputs": [],
					"stateMutability": "payable",
					"type": "function"
				},
				{
					"inputs": [],
					"name": "viewAllPolicies",
					"outputs": [
						{
							"components": [
								{
									"internalType": "string",
									"name": "passengerName",
									"type": "string"
								},
								{
									"internalType": "address",
									"name": "passengerAddress",
									"type": "address"
								},
								{
									"internalType": "string",
									"name": "flightNumber",
									"type": "string"
								},
								{
									"internalType": "string",
									"name": "flightDate",
									"type": "string"
								},
								{
									"internalType": "string",
									"name": "departureCity",
									"type": "string"
								},
								{
									"internalType": "string",
									"name": "destinationCity",
									"type": "string"
								},
								{
									"internalType": "string",
									"name": "policyStatus",
									"type": "string"
								}
							],
							"internalType": "struct FlightInsurance1.InsurancePolicy[]",
							"name": "",
							"type": "tuple[]"
						}
					],
					"stateMutability": "view",
					"type": "function"
				},
				{
					"inputs": [],
					"name": "viewAvailablePolicy",
					"outputs": [
						{
							"internalType": "string",
							"name": "",
							"type": "string"
						}
					],
					"stateMutability": "pure",
					"type": "function"
				},
				{
					"inputs": [],
					"name": "viewMyPolicy",
					"outputs": [
						{
							"components": [
								{
									"internalType": "string",
									"name": "passengerName",
									"type": "string"
								},
								{
									"internalType": "address",
									"name": "passengerAddress",
									"type": "address"
								},
								{
									"internalType": "string",
									"name": "flightNumber",
									"type": "string"
								},
								{
									"internalType": "string",
									"name": "flightDate",
									"type": "string"
								},
								{
									"internalType": "string",
									"name": "departureCity",
									"type": "string"
								},
								{
									"internalType": "string",
									"name": "destinationCity",
									"type": "string"
								},
								{
									"internalType": "string",
									"name": "policyStatus",
									"type": "string"
								}
							],
							"internalType": "struct FlightInsurance1.InsurancePolicy",
							"name": "",
							"type": "tuple"
						}
					],
					"stateMutability": "view",
					"type": "function"
				}
			],
			"devdoc": {
				"kind": "dev",
				"methods": {},
				"version": 1
			},
			"evm": {
				"assembly": "    /* \"FlightInsurance1.sol\":156:3890  contract FlightInsurance1 is ReentrancyGuard {... */\n  mstore(0x40, 0x80)\n    /* \"FlightInsurance1.sol\":1019:1114  constructor(address _insuranceProvider) {... */\n  callvalue\n  dup1\n  iszero\n  tag_1\n  jumpi\n  0x00\n  dup1\n  revert\ntag_1:\n  pop\n  mload(0x40)\n  sub(codesize, bytecodeSize)\n  dup1\n  bytecodeSize\n  dup4\n  codecopy\n  dup2\n  dup2\n  add\n  0x40\n  mstore\n  dup2\n  add\n  swap1\n  tag_2\n  swap2\n  swap1\n  tag_3\n  jump\t// in\ntag_2:\n    /* \"@openzeppelin/contracts/security/ReentrancyGuard.sol\":1716:1717  1 */\n  0x01\n    /* \"@openzeppelin/contracts/security/ReentrancyGuard.sol\":1821:1828  _status */\n  0x00\n    /* \"@openzeppelin/contracts/security/ReentrancyGuard.sol\":1821:1843  _status = _NOT_ENTERED */\n  dup2\n  swap1\n  sstore\n  pop\n    /* \"FlightInsurance1.sol\":1089:1107  _insuranceProvider */\n  dup1\n    /* \"FlightInsurance1.sol\":1069:1086  insuranceProvider */\n  0x01\n  0x00\n    /* \"FlightInsurance1.sol\":1069:1107  insuranceProvider = _insuranceProvider */\n  0x0100\n  exp\n  dup2\n  sload\n  dup2\n  0xffffffffffffffffffffffffffffffffffffffff\n  mul\n  not\n  and\n  swap1\n  dup4\n  0xffffffffffffffffffffffffffffffffffffffff\n  and\n  mul\n  or\n  swap1\n  sstore\n  pop\n    /* \"FlightInsurance1.sol\":1019:1114  constructor(address _insuranceProvider) {... */\n  pop\n    /* \"FlightInsurance1.sol\":156:3890  contract FlightInsurance1 is ReentrancyGuard {... */\n  jump(tag_8)\n    /* \"#utility.yul\":88:205   */\ntag_10:\n    /* \"#utility.yul\":197:198   */\n  0x00\n    /* \"#utility.yul\":194:195   */\n  dup1\n    /* \"#utility.yul\":187:199   */\n  revert\n    /* \"#utility.yul\":334:460   */\ntag_12:\n    /* \"#utility.yul\":371:378   */\n  0x00\n    /* \"#utility.yul\":411:453   */\n  0xffffffffffffffffffffffffffffffffffffffff\n    /* \"#utility.yul\":404:409   */\n  dup3\n    /* \"#utility.yul\":400:454   */\n  and\n    /* \"#utility.yul\":389:454   */\n  swap1\n  pop\n    /* \"#utility.yul\":334:460   */\n  swap2\n  swap1\n  pop\n  jump\t// out\n    /* \"#utility.yul\":466:562   */\ntag_13:\n    /* \"#utility.yul\":503:510   */\n  0x00\n    /* \"#utility.yul\":532:556   */\n  tag_22\n    /* \"#utility.yul\":550:555   */\n  dup3\n    /* \"#utility.yul\":532:556   */\n  tag_12\n  jump\t// in\ntag_22:\n    /* \"#utility.yul\":521:556   */\n  swap1\n  pop\n    /* \"#utility.yul\":466:562   */\n  swap2\n  swap1\n  pop\n  jump\t// out\n    /* \"#utility.yul\":568:690   */\ntag_14:\n    /* \"#utility.yul\":641:665   */\n  tag_24\n    /* \"#utility.yul\":659:664   */\n  dup2\n    /* \"#utility.yul\":641:665   */\n  tag_13\n  jump\t// in\ntag_24:\n    /* \"#utility.yul\":634:639   */\n  dup2\n    /* \"#utility.yul\":631:666   */\n  eq\n    /* \"#utility.yul\":621:684   */\n  tag_25\n  jumpi\n    /* \"#utility.yul\":680:681   */\n  0x00\n    /* \"#utility.yul\":677:678   */\n  dup1\n    /* \"#utility.yul\":670:682   */\n  revert\n    /* \"#utility.yul\":621:684   */\ntag_25:\n    /* \"#utility.yul\":568:690   */\n  pop\n  jump\t// out\n    /* \"#utility.yul\":696:839   */\ntag_15:\n    /* \"#utility.yul\":753:758   */\n  0x00\n    /* \"#utility.yul\":784:790   */\n  dup2\n    /* \"#utility.yul\":778:791   */\n  mload\n    /* \"#utility.yul\":769:791   */\n  swap1\n  pop\n    /* \"#utility.yul\":800:833   */\n  tag_27\n    /* \"#utility.yul\":827:832   */\n  dup2\n    /* \"#utility.yul\":800:833   */\n  tag_14\n  jump\t// in\ntag_27:\n    /* \"#utility.yul\":696:839   */\n  swap3\n  swap2\n  pop\n  pop\n  jump\t// out\n    /* \"#utility.yul\":845:1196   */\ntag_3:\n    /* \"#utility.yul\":915:921   */\n  0x00\n    /* \"#utility.yul\":964:966   */\n  0x20\n    /* \"#utility.yul\":952:961   */\n  dup3\n    /* \"#utility.yul\":943:950   */\n  dup5\n    /* \"#utility.yul\":939:962   */\n  sub\n    /* \"#utility.yul\":935:967   */\n  slt\n    /* \"#utility.yul\":932:1051   */\n  iszero\n  tag_29\n  jumpi\n    /* \"#utility.yul\":970:1049   */\n  tag_30\n  tag_10\n  jump\t// in\ntag_30:\n    /* \"#utility.yul\":932:1051   */\ntag_29:\n    /* \"#utility.yul\":1090:1091   */\n  0x00\n    /* \"#utility.yul\":1115:1179   */\n  tag_31\n    /* \"#utility.yul\":1171:1178   */\n  dup5\n    /* \"#utility.yul\":1162:1168   */\n  dup3\n    /* \"#utility.yul\":1151:1160   */\n  dup6\n    /* \"#utility.yul\":1147:1169   */\n  add\n    /* \"#utility.yul\":1115:1179   */\n  tag_15\n  jump\t// in\ntag_31:\n    /* \"#utility.yul\":1105:1179   */\n  swap2\n  pop\n    /* \"#utility.yul\":1061:1189   */\n  pop\n    /* \"#utility.yul\":845:1196   */\n  swap3\n  swap2\n  pop\n  pop\n  jump\t// out\n    /* \"FlightInsurance1.sol\":156:3890  contract FlightInsurance1 is ReentrancyGuard {... */\ntag_8:\n  dataSize(sub_0)\n  dup1\n  dataOffset(sub_0)\n  0x00\n  codecopy\n  0x00\n  return\nstop\n\nsub_0: assembly {\n        /* \"FlightInsurance1.sol\":156:3890  contract FlightInsurance1 is ReentrancyGuard {... */\n      mstore(0x40, 0x80)\n      jumpi(tag_1, lt(calldatasize, 0x04))\n      shr(0xe0, calldataload(0x00))\n      dup1\n      0xb6fc3b2a\n      gt\n      tag_9\n      jumpi\n      dup1\n      0xb6fc3b2a\n      eq\n      tag_5\n      jumpi\n      dup1\n      0xc160693d\n      eq\n      tag_6\n      jumpi\n      dup1\n      0xcd95e777\n      eq\n      tag_7\n      jumpi\n      dup1\n      0xea3696ca\n      eq\n      tag_8\n      jumpi\n      jump(tag_1)\n    tag_9:\n      dup1\n      0x5d02ed12\n      eq\n      tag_2\n      jumpi\n      dup1\n      0x963163bd\n      eq\n      tag_3\n      jumpi\n      dup1\n      0x9955f67c\n      eq\n      tag_4\n      jumpi\n    tag_1:\n      0x00\n      dup1\n      revert\n        /* \"FlightInsurance1.sol\":1442:3028  function purchasePolicy(... */\n    tag_2:\n      tag_10\n      0x04\n      dup1\n      calldatasize\n      sub\n      dup2\n      add\n      swap1\n      tag_11\n      swap2\n      swap1\n      tag_12\n      jump\t// in\n    tag_11:\n      tag_13\n      jump\t// in\n    tag_10:\n      stop\n        /* \"FlightInsurance1.sol\":3081:3303  function viewMyPolicy() external view returns (InsurancePolicy memory) {... */\n    tag_3:\n      callvalue\n      dup1\n      iszero\n      tag_14\n      jumpi\n      0x00\n      dup1\n      revert\n    tag_14:\n      pop\n      tag_15\n      tag_16\n      jump\t// in\n    tag_15:\n      mload(0x40)\n      tag_17\n      swap2\n      swap1\n      tag_18\n      jump\t// in\n    tag_17:\n      mload(0x40)\n      dup1\n      swap2\n      sub\n      swap1\n      return\n        /* \"FlightInsurance1.sol\":679:711  address public insuranceProvider */\n    tag_4:\n      callvalue\n      dup1\n      iszero\n      tag_19\n      jumpi\n      0x00\n      dup1\n      revert\n    tag_19:\n      pop\n      tag_20\n      tag_21\n      jump\t// in\n    tag_20:\n      mload(0x40)\n      tag_22\n      swap2\n      swap1\n      tag_23\n      jump\t// in\n    tag_22:\n      mload(0x40)\n      dup1\n      swap2\n      sub\n      swap1\n      return\n        /* \"FlightInsurance1.sol\":1170:1367  function viewAvailablePolicy() external pure returns (string memory) {... */\n    tag_5:\n      callvalue\n      dup1\n      iszero\n      tag_24\n      jumpi\n      0x00\n      dup1\n      revert\n    tag_24:\n      pop\n      tag_25\n      tag_26\n      jump\t// in\n    tag_25:\n      mload(0x40)\n      tag_27\n      swap2\n      swap1\n      tag_28\n      jump\t// in\n    tag_27:\n      mload(0x40)\n      dup1\n      swap2\n      sub\n      swap1\n      return\n        /* \"FlightInsurance1.sol\":3368:3888  function viewAllPolicies() external view returns (InsurancePolicy[] memory) {... */\n    tag_6:\n      callvalue\n      dup1\n      iszero\n      tag_29\n      jumpi\n      0x00\n      dup1\n      revert\n    tag_29:\n      pop\n      tag_30\n      tag_31\n      jump\t// in\n    tag_30:\n      mload(0x40)\n      tag_32\n      swap2\n      swap1\n      tag_33\n      jump\t// in\n    tag_32:\n      mload(0x40)\n      dup1\n      swap2\n      sub\n      swap1\n      return\n        /* \"FlightInsurance1.sol\":626:672  uint256 public constant INDEMNITY = 0.02 ether */\n    tag_7:\n      callvalue\n      dup1\n      iszero\n      tag_34\n      jumpi\n      0x00\n      dup1\n      revert\n    tag_34:\n      pop\n      tag_35\n      tag_36\n      jump\t// in\n    tag_35:\n      mload(0x40)\n      tag_37\n      swap2\n      swap1\n      tag_38\n      jump\t// in\n    tag_37:\n      mload(0x40)\n      dup1\n      swap2\n      sub\n      swap1\n      return\n        /* \"FlightInsurance1.sol\":576:620  uint256 public constant PREMIUM = 0.01 ether */\n    tag_8:\n      callvalue\n      dup1\n      iszero\n      tag_39\n      jumpi\n      0x00\n      dup1\n      revert\n    tag_39:\n      pop\n      tag_40\n      tag_41\n      jump\t// in\n    tag_40:\n      mload(0x40)\n      tag_42\n      swap2\n      swap1\n      tag_38\n      jump\t// in\n    tag_42:\n      mload(0x40)\n      dup1\n      swap2\n      sub\n      swap1\n      return\n        /* \"FlightInsurance1.sol\":1442:3028  function purchasePolicy(... */\n    tag_13:\n        /* \"@openzeppelin/contracts/security/ReentrancyGuard.sol\":2261:2282  _nonReentrantBefore() */\n      tag_44\n        /* \"@openzeppelin/contracts/security/ReentrancyGuard.sol\":2261:2280  _nonReentrantBefore */\n      tag_45\n        /* \"@openzeppelin/contracts/security/ReentrancyGuard.sol\":2261:2282  _nonReentrantBefore() */\n      jump\t// in\n    tag_44:\n        /* \"FlightInsurance1.sol\":610:620  0.01 ether */\n      0x2386f26fc10000\n        /* \"FlightInsurance1.sol\":1680:1689  msg.value */\n      callvalue\n        /* \"FlightInsurance1.sol\":1680:1700  msg.value == PREMIUM */\n      eq\n        /* \"FlightInsurance1.sol\":1672:1748  require(msg.value == PREMIUM, \"Incorrect premium: must be exactly 0.01 ETH\") */\n      tag_47\n      jumpi\n      mload(0x40)\n      0x08c379a000000000000000000000000000000000000000000000000000000000\n      dup2\n      mstore\n      0x04\n      add\n      tag_48\n      swap1\n      tag_49\n      jump\t// in\n    tag_48:\n      mload(0x40)\n      dup1\n      swap2\n      sub\n      swap1\n      revert\n    tag_47:\n        /* \"FlightInsurance1.sol\":1824:1825  0 */\n      0x00\n        /* \"FlightInsurance1.sol\":1766:1826  policiesByAddress[msg.sender].passengerAddress == address(0) */\n      0xffffffffffffffffffffffffffffffffffffffff\n      and\n        /* \"FlightInsurance1.sol\":1766:1783  policiesByAddress */\n      0x02\n        /* \"FlightInsurance1.sol\":1766:1795  policiesByAddress[msg.sender] */\n      0x00\n        /* \"FlightInsurance1.sol\":1784:1794  msg.sender */\n      caller\n        /* \"FlightInsurance1.sol\":1766:1795  policiesByAddress[msg.sender] */\n      0xffffffffffffffffffffffffffffffffffffffff\n      and\n      0xffffffffffffffffffffffffffffffffffffffff\n      and\n      dup2\n      mstore\n      0x20\n      add\n      swap1\n      dup2\n      mstore\n      0x20\n      add\n      0x00\n      keccak256\n        /* \"FlightInsurance1.sol\":1766:1812  policiesByAddress[msg.sender].passengerAddress */\n      0x01\n      add\n      0x00\n      swap1\n      sload\n      swap1\n      0x0100\n      exp\n      swap1\n      div\n      0xffffffffffffffffffffffffffffffffffffffff\n      and\n        /* \"FlightInsurance1.sol\":1766:1826  policiesByAddress[msg.sender].passengerAddress == address(0) */\n      0xffffffffffffffffffffffffffffffffffffffff\n      and\n      eq\n        /* \"FlightInsurance1.sol\":1758:1869  require(policiesByAddress[msg.sender].passengerAddress == address(0), \"Policy already exists for this address\") */\n      tag_50\n      jumpi\n      mload(0x40)\n      0x08c379a000000000000000000000000000000000000000000000000000000000\n      dup2\n      mstore\n      0x04\n      add\n      tag_51\n      swap1\n      tag_52\n      jump\t// in\n    tag_51:\n      mload(0x40)\n      dup1\n      swap2\n      sub\n      swap1\n      revert\n    tag_50:\n        /* \"FlightInsurance1.sol\":1961:1962  0 */\n      0x00\n        /* \"FlightInsurance1.sol\":1946:1950  name */\n      dup11\n      dup11\n        /* \"FlightInsurance1.sol\":1940:1958  bytes(name).length */\n      swap1\n      pop\n        /* \"FlightInsurance1.sol\":1940:1962  bytes(name).length > 0 */\n      gt\n        /* \"FlightInsurance1.sol\":1932:1993  require(bytes(name).length > 0, \"Passenger name is required\") */\n      tag_53\n      jumpi\n      mload(0x40)\n      0x08c379a000000000000000000000000000000000000000000000000000000000\n      dup2\n      mstore\n      0x04\n      add\n      tag_54\n      swap1\n      tag_55\n      jump\t// in\n    tag_54:\n      mload(0x40)\n      dup1\n      swap2\n      sub\n      swap1\n      revert\n    tag_53:\n        /* \"FlightInsurance1.sol\":2036:2037  0 */\n      0x00\n        /* \"FlightInsurance1.sol\":2017:2025  flightNo */\n      dup9\n      dup9\n        /* \"FlightInsurance1.sol\":2011:2033  bytes(flightNo).length */\n      swap1\n      pop\n        /* \"FlightInsurance1.sol\":2011:2037  bytes(flightNo).length > 0 */\n      gt\n        /* \"FlightInsurance1.sol\":2003:2067  require(bytes(flightNo).length > 0, \"Flight number is required\") */\n      tag_56\n      jumpi\n      mload(0x40)\n      0x08c379a000000000000000000000000000000000000000000000000000000000\n      dup2\n      mstore\n      0x04\n      add\n      tag_57\n      swap1\n      tag_58\n      jump\t// in\n    tag_57:\n      mload(0x40)\n      dup1\n      swap2\n      sub\n      swap1\n      revert\n    tag_56:\n        /* \"FlightInsurance1.sol\":2106:2107  0 */\n      0x00\n        /* \"FlightInsurance1.sol\":2091:2095  date */\n      dup7\n      dup7\n        /* \"FlightInsurance1.sol\":2085:2103  bytes(date).length */\n      swap1\n      pop\n        /* \"FlightInsurance1.sol\":2085:2107  bytes(date).length > 0 */\n      gt\n        /* \"FlightInsurance1.sol\":2077:2135  require(bytes(date).length > 0, \"Flight date is required\") */\n      tag_59\n      jumpi\n      mload(0x40)\n      0x08c379a000000000000000000000000000000000000000000000000000000000\n      dup2\n      mstore\n      0x04\n      add\n      tag_60\n      swap1\n      tag_61\n      jump\t// in\n    tag_60:\n      mload(0x40)\n      dup1\n      swap2\n      sub\n      swap1\n      revert\n    tag_59:\n        /* \"FlightInsurance1.sol\":2178:2179  0 */\n      0x00\n        /* \"FlightInsurance1.sol\":2159:2167  fromCity */\n      dup5\n      dup5\n        /* \"FlightInsurance1.sol\":2153:2175  bytes(fromCity).length */\n      swap1\n      pop\n        /* \"FlightInsurance1.sol\":2153:2179  bytes(fromCity).length > 0 */\n      gt\n        /* \"FlightInsurance1.sol\":2145:2210  require(bytes(fromCity).length > 0, \"Departure city is required\") */\n      tag_62\n      jumpi\n      mload(0x40)\n      0x08c379a000000000000000000000000000000000000000000000000000000000\n      dup2\n      mstore\n      0x04\n      add\n      tag_63\n      swap1\n      tag_64\n      jump\t// in\n    tag_63:\n      mload(0x40)\n      dup1\n      swap2\n      sub\n      swap1\n      revert\n    tag_62:\n        /* \"FlightInsurance1.sol\":2251:2252  0 */\n      0x00\n        /* \"FlightInsurance1.sol\":2234:2240  toCity */\n      dup3\n      dup3\n        /* \"FlightInsurance1.sol\":2228:2248  bytes(toCity).length */\n      swap1\n      pop\n        /* \"FlightInsurance1.sol\":2228:2252  bytes(toCity).length > 0 */\n      gt\n        /* \"FlightInsurance1.sol\":2220:2285  require(bytes(toCity).length > 0, \"Destination city is required\") */\n      tag_65\n      jumpi\n      mload(0x40)\n      0x08c379a000000000000000000000000000000000000000000000000000000000\n      dup2\n      mstore\n      0x04\n      add\n      tag_66\n      swap1\n      tag_67\n      jump\t// in\n    tag_66:\n      mload(0x40)\n      dup1\n      swap2\n      sub\n      swap1\n      revert\n    tag_65:\n        /* \"FlightInsurance1.sol\":2405:2411  toCity */\n      dup2\n      dup2\n        /* \"FlightInsurance1.sol\":2389:2413  keccak256(bytes(toCity)) */\n      mload(0x40)\n      tag_68\n      swap3\n      swap2\n      swap1\n      tag_69\n      jump\t// in\n    tag_68:\n      mload(0x40)\n      dup1\n      swap2\n      sub\n      swap1\n      keccak256\n        /* \"FlightInsurance1.sol\":2375:2383  fromCity */\n      dup5\n      dup5\n        /* \"FlightInsurance1.sol\":2359:2385  keccak256(bytes(fromCity)) */\n      mload(0x40)\n      tag_70\n      swap3\n      swap2\n      swap1\n      tag_69\n      jump\t// in\n    tag_70:\n      mload(0x40)\n      dup1\n      swap2\n      sub\n      swap1\n      keccak256\n        /* \"FlightInsurance1.sol\":2359:2413  keccak256(bytes(fromCity)) != keccak256(bytes(toCity)) */\n      sub\n        /* \"FlightInsurance1.sol\":2351:2469  require(keccak256(bytes(fromCity)) != keccak256(bytes(toCity)), \"Departure and destination cities cannot be the same\") */\n      tag_71\n      jumpi\n      mload(0x40)\n      0x08c379a000000000000000000000000000000000000000000000000000000000\n      dup2\n      mstore\n      0x04\n      add\n      tag_72\n      swap1\n      tag_73\n      jump\t// in\n    tag_72:\n      mload(0x40)\n      dup1\n      swap2\n      sub\n      swap1\n      revert\n    tag_71:\n        /* \"FlightInsurance1.sol\":2543:2824  InsurancePolicy({... */\n      mload(0x40)\n      dup1\n      0xe0\n      add\n      0x40\n      mstore\n      dup1\n        /* \"FlightInsurance1.sol\":2588:2592  name */\n      dup12\n      dup12\n        /* \"FlightInsurance1.sol\":2543:2824  InsurancePolicy({... */\n      dup1\n      dup1\n      0x1f\n      add\n      0x20\n      dup1\n      swap2\n      div\n      mul\n      0x20\n      add\n      mload(0x40)\n      swap1\n      dup2\n      add\n      0x40\n      mstore\n      dup1\n      swap4\n      swap3\n      swap2\n      swap1\n      dup2\n      dup2\n      mstore\n      0x20\n      add\n      dup4\n      dup4\n      dup1\n      dup3\n      dup5\n      calldatacopy\n      0x00\n      dup2\n      dup5\n      add\n      mstore\n      not(0x1f)\n      0x1f\n      dup3\n      add\n      and\n      swap1\n      pop\n      dup1\n      dup4\n      add\n      swap3\n      pop\n      pop\n      pop\n      pop\n      pop\n      pop\n      pop\n      dup2\n      mstore\n      0x20\n      add\n        /* \"FlightInsurance1.sol\":2624:2634  msg.sender */\n      caller\n        /* \"FlightInsurance1.sol\":2543:2824  InsurancePolicy({... */\n      0xffffffffffffffffffffffffffffffffffffffff\n      and\n      dup2\n      mstore\n      0x20\n      add\n        /* \"FlightInsurance1.sol\":2662:2670  flightNo */\n      dup10\n      dup10\n        /* \"FlightInsurance1.sol\":2543:2824  InsurancePolicy({... */\n      dup1\n      dup1\n      0x1f\n      add\n      0x20\n      dup1\n      swap2\n      div\n      mul\n      0x20\n      add\n      mload(0x40)\n      swap1\n      dup2\n      add\n      0x40\n      mstore\n      dup1\n      swap4\n      swap3\n      swap2\n      swap1\n      dup2\n      dup2\n      mstore\n      0x20\n      add\n      dup4\n      dup4\n      dup1\n      dup3\n      dup5\n      calldatacopy\n      0x00\n      dup2\n      dup5\n      add\n      mstore\n      not(0x1f)\n      0x1f\n      dup3\n      add\n      and\n      swap1\n      pop\n      dup1\n      dup4\n      add\n      swap3\n      pop\n      pop\n      pop\n      pop\n      pop\n      pop\n      pop\n      dup2\n      mstore\n      0x20\n      add\n        /* \"FlightInsurance1.sol\":2696:2700  date */\n      dup8\n      dup8\n        /* \"FlightInsurance1.sol\":2543:2824  InsurancePolicy({... */\n      dup1\n      dup1\n      0x1f\n      add\n      0x20\n      dup1\n      swap2\n      div\n      mul\n      0x20\n      add\n      mload(0x40)\n      swap1\n      dup2\n      add\n      0x40\n      mstore\n      dup1\n      swap4\n      swap3\n      swap2\n      swap1\n      dup2\n      dup2\n      mstore\n      0x20\n      add\n      dup4\n      dup4\n      dup1\n      dup3\n      dup5\n      calldatacopy\n      0x00\n      dup2\n      dup5\n      add\n      mstore\n      not(0x1f)\n      0x1f\n      dup3\n      add\n      and\n      swap1\n      pop\n      dup1\n      dup4\n      add\n      swap3\n      pop\n      pop\n      pop\n      pop\n      pop\n      pop\n      pop\n      dup2\n      mstore\n      0x20\n      add\n        /* \"FlightInsurance1.sol\":2729:2737  fromCity */\n      dup6\n      dup6\n        /* \"FlightInsurance1.sol\":2543:2824  InsurancePolicy({... */\n      dup1\n      dup1\n      0x1f\n      add\n      0x20\n      dup1\n      swap2\n      div\n      mul\n      0x20\n      add\n      mload(0x40)\n      swap1\n      dup2\n      add\n      0x40\n      mstore\n      dup1\n      swap4\n      swap3\n      swap2\n      swap1\n      dup2\n      dup2\n      mstore\n      0x20\n      add\n      dup4\n      dup4\n      dup1\n      dup3\n      dup5\n      calldatacopy\n      0x00\n      dup2\n      dup5\n      add\n      mstore\n      not(0x1f)\n      0x1f\n      dup3\n      add\n      and\n      swap1\n      pop\n      dup1\n      dup4\n      add\n      swap3\n      pop\n      pop\n      pop\n      pop\n      pop\n      pop\n      pop\n      dup2\n      mstore\n      0x20\n      add\n        /* \"FlightInsurance1.sol\":2768:2774  toCity */\n      dup4\n      dup4\n        /* \"FlightInsurance1.sol\":2543:2824  InsurancePolicy({... */\n      dup1\n      dup1\n      0x1f\n      add\n      0x20\n      dup1\n      swap2\n      div\n      mul\n      0x20\n      add\n      mload(0x40)\n      swap1\n      dup2\n      add\n      0x40\n      mstore\n      dup1\n      swap4\n      swap3\n      swap2\n      swap1\n      dup2\n      dup2\n      mstore\n      0x20\n      add\n      dup4\n      dup4\n      dup1\n      dup3\n      dup5\n      calldatacopy\n      0x00\n      dup2\n      dup5\n      add\n      mstore\n      not(0x1f)\n      0x1f\n      dup3\n      add\n      and\n      swap1\n      pop\n      dup1\n      dup4\n      add\n      swap3\n      pop\n      pop\n      pop\n      pop\n      pop\n      pop\n      pop\n      dup2\n      mstore\n      0x20\n      add\n      mload(0x40)\n      dup1\n      0x40\n      add\n      0x40\n      mstore\n      dup1\n      0x09\n      dup2\n      mstore\n      0x20\n      add\n      0x7075726368617365640000000000000000000000000000000000000000000000\n      dup2\n      mstore\n      pop\n      dup2\n      mstore\n      pop\n        /* \"FlightInsurance1.sol\":2511:2528  policiesByAddress */\n      0x02\n        /* \"FlightInsurance1.sol\":2511:2540  policiesByAddress[msg.sender] */\n      0x00\n        /* \"FlightInsurance1.sol\":2529:2539  msg.sender */\n      caller\n        /* \"FlightInsurance1.sol\":2511:2540  policiesByAddress[msg.sender] */\n      0xffffffffffffffffffffffffffffffffffffffff\n      and\n      0xffffffffffffffffffffffffffffffffffffffff\n      and\n      dup2\n      mstore\n      0x20\n      add\n      swap1\n      dup2\n      mstore\n      0x20\n      add\n      0x00\n      keccak256\n        /* \"FlightInsurance1.sol\":2511:2824  policiesByAddress[msg.sender] = InsurancePolicy({... */\n      0x00\n      dup3\n      add\n      mload\n      dup2\n      0x00\n      add\n      swap1\n      dup2\n      tag_74\n      swap2\n      swap1\n      tag_75\n      jump\t// in\n    tag_74:\n      pop\n      0x20\n      dup3\n      add\n      mload\n      dup2\n      0x01\n      add\n      exp(0x0100, 0x00)\n      dup2\n      sload\n      dup2\n      0xffffffffffffffffffffffffffffffffffffffff\n      mul\n      not\n      and\n      swap1\n      dup4\n      0xffffffffffffffffffffffffffffffffffffffff\n      and\n      mul\n      or\n      swap1\n      sstore\n      pop\n      0x40\n      dup3\n      add\n      mload\n      dup2\n      0x02\n      add\n      swap1\n      dup2\n      tag_76\n      swap2\n      swap1\n      tag_75\n      jump\t// in\n    tag_76:\n      pop\n      0x60\n      dup3\n      add\n      mload\n      dup2\n      0x03\n      add\n      swap1\n      dup2\n      tag_77\n      swap2\n      swap1\n      tag_75\n      jump\t// in\n    tag_77:\n      pop\n      0x80\n      dup3\n      add\n      mload\n      dup2\n      0x04\n      add\n      swap1\n      dup2\n      tag_78\n      swap2\n      swap1\n      tag_75\n      jump\t// in\n    tag_78:\n      pop\n      0xa0\n      dup3\n      add\n      mload\n      dup2\n      0x05\n      add\n      swap1\n      dup2\n      tag_79\n      swap2\n      swap1\n      tag_75\n      jump\t// in\n    tag_79:\n      pop\n      0xc0\n      dup3\n      add\n      mload\n      dup2\n      0x06\n      add\n      swap1\n      dup2\n      tag_80\n      swap2\n      swap1\n      tag_75\n      jump\t// in\n    tag_80:\n      pop\n      swap1\n      pop\n      pop\n        /* \"FlightInsurance1.sol\":2883:2903  insuredPassengerList */\n      0x03\n        /* \"FlightInsurance1.sol\":2909:2919  msg.sender */\n      caller\n        /* \"FlightInsurance1.sol\":2883:2920  insuredPassengerList.push(msg.sender) */\n      swap1\n      dup1\n      0x01\n      dup2\n      sload\n      add\n      dup1\n      dup3\n      sstore\n      dup1\n      swap2\n      pop\n      pop\n      0x01\n      swap1\n      sub\n      swap1\n      0x00\n      mstore\n      keccak256(0x00, 0x20)\n      add\n      0x00\n      swap1\n      swap2\n      swap1\n      swap2\n      swap1\n      swap2\n      0x0100\n      exp\n      dup2\n      sload\n      dup2\n      0xffffffffffffffffffffffffffffffffffffffff\n      mul\n      not\n      and\n      swap1\n      dup4\n      0xffffffffffffffffffffffffffffffffffffffff\n      and\n      mul\n      or\n      swap1\n      sstore\n      pop\n        /* \"FlightInsurance1.sol\":2983:3000  insuranceProvider */\n      0x01\n      0x00\n      swap1\n      sload\n      swap1\n      0x0100\n      exp\n      swap1\n      div\n      0xffffffffffffffffffffffffffffffffffffffff\n      and\n        /* \"FlightInsurance1.sol\":2975:3010  payable(insuranceProvider).transfer */\n      0xffffffffffffffffffffffffffffffffffffffff\n      and\n        /* \"FlightInsurance1.sol\":2975:3021  payable(insuranceProvider).transfer(msg.value) */\n      0x08fc\n        /* \"FlightInsurance1.sol\":3011:3020  msg.value */\n      callvalue\n        /* \"FlightInsurance1.sol\":2975:3021  payable(insuranceProvider).transfer(msg.value) */\n      swap1\n      dup2\n      iszero\n      mul\n      swap1\n      mload(0x40)\n      0x00\n      mload(0x40)\n      dup1\n      dup4\n      sub\n      dup2\n      dup6\n      dup9\n      dup9\n      call\n      swap4\n      pop\n      pop\n      pop\n      pop\n      iszero\n      dup1\n      iszero\n      tag_83\n      jumpi\n      returndatasize\n      0x00\n      dup1\n      returndatacopy\n      revert(0x00, returndatasize)\n    tag_83:\n      pop\n        /* \"@openzeppelin/contracts/security/ReentrancyGuard.sol\":2303:2323  _nonReentrantAfter() */\n      tag_84\n        /* \"@openzeppelin/contracts/security/ReentrancyGuard.sol\":2303:2321  _nonReentrantAfter */\n      tag_85\n        /* \"@openzeppelin/contracts/security/ReentrancyGuard.sol\":2303:2323  _nonReentrantAfter() */\n      jump\t// in\n    tag_84:\n        /* \"FlightInsurance1.sol\":1442:3028  function purchasePolicy(... */\n      pop\n      pop\n      pop\n      pop\n      pop\n      pop\n      pop\n      pop\n      pop\n      pop\n      jump\t// out\n        /* \"FlightInsurance1.sol\":3081:3303  function viewMyPolicy() external view returns (InsurancePolicy memory) {... */\n    tag_16:\n        /* \"FlightInsurance1.sol\":3128:3150  InsurancePolicy memory */\n      tag_86\n      tag_87\n      jump\t// in\n    tag_86:\n        /* \"FlightInsurance1.sol\":3228:3229  0 */\n      0x00\n        /* \"FlightInsurance1.sol\":3170:3230  policiesByAddress[msg.sender].passengerAddress != address(0) */\n      0xffffffffffffffffffffffffffffffffffffffff\n      and\n        /* \"FlightInsurance1.sol\":3170:3187  policiesByAddress */\n      0x02\n        /* \"FlightInsurance1.sol\":3170:3199  policiesByAddress[msg.sender] */\n      0x00\n        /* \"FlightInsurance1.sol\":3188:3198  msg.sender */\n      caller\n        /* \"FlightInsurance1.sol\":3170:3199  policiesByAddress[msg.sender] */\n      0xffffffffffffffffffffffffffffffffffffffff\n      and\n      0xffffffffffffffffffffffffffffffffffffffff\n      and\n      dup2\n      mstore\n      0x20\n      add\n      swap1\n      dup2\n      mstore\n      0x20\n      add\n      0x00\n      keccak256\n        /* \"FlightInsurance1.sol\":3170:3216  policiesByAddress[msg.sender].passengerAddress */\n      0x01\n      add\n      0x00\n      swap1\n      sload\n      swap1\n      0x0100\n      exp\n      swap1\n      div\n      0xffffffffffffffffffffffffffffffffffffffff\n      and\n        /* \"FlightInsurance1.sol\":3170:3230  policiesByAddress[msg.sender].passengerAddress != address(0) */\n      0xffffffffffffffffffffffffffffffffffffffff\n      and\n      sub\n        /* \"FlightInsurance1.sol\":3162:3250  require(policiesByAddress[msg.sender].passengerAddress != address(0), \"No policy found\") */\n      tag_89\n      jumpi\n      mload(0x40)\n      0x08c379a000000000000000000000000000000000000000000000000000000000\n      dup2\n      mstore\n      0x04\n      add\n      tag_90\n      swap1\n      tag_91\n      jump\t// in\n    tag_90:\n      mload(0x40)\n      dup1\n      swap2\n      sub\n      swap1\n      revert\n    tag_89:\n        /* \"FlightInsurance1.sol\":3267:3284  policiesByAddress */\n      0x02\n        /* \"FlightInsurance1.sol\":3267:3296  policiesByAddress[msg.sender] */\n      0x00\n        /* \"FlightInsurance1.sol\":3285:3295  msg.sender */\n      caller\n        /* \"FlightInsurance1.sol\":3267:3296  policiesByAddress[msg.sender] */\n      0xffffffffffffffffffffffffffffffffffffffff\n      and\n      0xffffffffffffffffffffffffffffffffffffffff\n      and\n      dup2\n      mstore\n      0x20\n      add\n      swap1\n      dup2\n      mstore\n      0x20\n      add\n      0x00\n      keccak256\n        /* \"FlightInsurance1.sol\":3260:3296  return policiesByAddress[msg.sender] */\n      mload(0x40)\n      dup1\n      0xe0\n      add\n      0x40\n      mstore\n      swap1\n      dup2\n      0x00\n      dup3\n      add\n      dup1\n      sload\n      tag_92\n      swap1\n      tag_93\n      jump\t// in\n    tag_92:\n      dup1\n      0x1f\n      add\n      0x20\n      dup1\n      swap2\n      div\n      mul\n      0x20\n      add\n      mload(0x40)\n      swap1\n      dup2\n      add\n      0x40\n      mstore\n      dup1\n      swap3\n      swap2\n      swap1\n      dup2\n      dup2\n      mstore\n      0x20\n      add\n      dup3\n      dup1\n      sload\n      tag_94\n      swap1\n      tag_93\n      jump\t// in\n    tag_94:\n      dup1\n      iszero\n      tag_95\n      jumpi\n      dup1\n      0x1f\n      lt\n      tag_96\n      jumpi\n      0x0100\n      dup1\n      dup4\n      sload\n      div\n      mul\n      dup4\n      mstore\n      swap2\n      0x20\n      add\n      swap2\n      jump(tag_95)\n    tag_96:\n      dup3\n      add\n      swap2\n      swap1\n      0x00\n      mstore\n      keccak256(0x00, 0x20)\n      swap1\n    tag_97:\n      dup2\n      sload\n      dup2\n      mstore\n      swap1\n      0x01\n      add\n      swap1\n      0x20\n      add\n      dup1\n      dup4\n      gt\n      tag_97\n      jumpi\n      dup3\n      swap1\n      sub\n      0x1f\n      and\n      dup3\n      add\n      swap2\n    tag_95:\n      pop\n      pop\n      pop\n      pop\n      pop\n      dup2\n      mstore\n      0x20\n      add\n      0x01\n      dup3\n      add\n      0x00\n      swap1\n      sload\n      swap1\n      0x0100\n      exp\n      swap1\n      div\n      0xffffffffffffffffffffffffffffffffffffffff\n      and\n      0xffffffffffffffffffffffffffffffffffffffff\n      and\n      0xffffffffffffffffffffffffffffffffffffffff\n      and\n      dup2\n      mstore\n      0x20\n      add\n      0x02\n      dup3\n      add\n      dup1\n      sload\n      tag_98\n      swap1\n      tag_93\n      jump\t// in\n    tag_98:\n      dup1\n      0x1f\n      add\n      0x20\n      dup1\n      swap2\n      div\n      mul\n      0x20\n      add\n      mload(0x40)\n      swap1\n      dup2\n      add\n      0x40\n      mstore\n      dup1\n      swap3\n      swap2\n      swap1\n      dup2\n      dup2\n      mstore\n      0x20\n      add\n      dup3\n      dup1\n      sload\n      tag_99\n      swap1\n      tag_93\n      jump\t// in\n    tag_99:\n      dup1\n      iszero\n      tag_100\n      jumpi\n      dup1\n      0x1f\n      lt\n      tag_101\n      jumpi\n      0x0100\n      dup1\n      dup4\n      sload\n      div\n      mul\n      dup4\n      mstore\n      swap2\n      0x20\n      add\n      swap2\n      jump(tag_100)\n    tag_101:\n      dup3\n      add\n      swap2\n      swap1\n      0x00\n      mstore\n      keccak256(0x00, 0x20)\n      swap1\n    tag_102:\n      dup2\n      sload\n      dup2\n      mstore\n      swap1\n      0x01\n      add\n      swap1\n      0x20\n      add\n      dup1\n      dup4\n      gt\n      tag_102\n      jumpi\n      dup3\n      swap1\n      sub\n      0x1f\n      and\n      dup3\n      add\n      swap2\n    tag_100:\n      pop\n      pop\n      pop\n      pop\n      pop\n      dup2\n      mstore\n      0x20\n      add\n      0x03\n      dup3\n      add\n      dup1\n      sload\n      tag_103\n      swap1\n      tag_93\n      jump\t// in\n    tag_103:\n      dup1\n      0x1f\n      add\n      0x20\n      dup1\n      swap2\n      div\n      mul\n      0x20\n      add\n      mload(0x40)\n      swap1\n      dup2\n      add\n      0x40\n      mstore\n      dup1\n      swap3\n      swap2\n      swap1\n      dup2\n      dup2\n      mstore\n      0x20\n      add\n      dup3\n      dup1\n      sload\n      tag_104\n      swap1\n      tag_93\n      jump\t// in\n    tag_104:\n      dup1\n      iszero\n      tag_105\n      jumpi\n      dup1\n      0x1f\n      lt\n      tag_106\n      jumpi\n      0x0100\n      dup1\n      dup4\n      sload\n      div\n      mul\n      dup4\n      mstore\n      swap2\n      0x20\n      add\n      swap2\n      jump(tag_105)\n    tag_106:\n      dup3\n      add\n      swap2\n      swap1\n      0x00\n      mstore\n      keccak256(0x00, 0x20)\n      swap1\n    tag_107:\n      dup2\n      sload\n      dup2\n      mstore\n      swap1\n      0x01\n      add\n      swap1\n      0x20\n      add\n      dup1\n      dup4\n      gt\n      tag_107\n      jumpi\n      dup3\n      swap1\n      sub\n      0x1f\n      and\n      dup3\n      add\n      swap2\n    tag_105:\n      pop\n      pop\n      pop\n      pop\n      pop\n      dup2\n      mstore\n      0x20\n      add\n      0x04\n      dup3\n      add\n      dup1\n      sload\n      tag_108\n      swap1\n      tag_93\n      jump\t// in\n    tag_108:\n      dup1\n      0x1f\n      add\n      0x20\n      dup1\n      swap2\n      div\n      mul\n      0x20\n      add\n      mload(0x40)\n      swap1\n      dup2\n      add\n      0x40\n      mstore\n      dup1\n      swap3\n      swap2\n      swap1\n      dup2\n      dup2\n      mstore\n      0x20\n      add\n      dup3\n      dup1\n      sload\n      tag_109\n      swap1\n      tag_93\n      jump\t// in\n    tag_109:\n      dup1\n      iszero\n      tag_110\n      jumpi\n      dup1\n      0x1f\n      lt\n      tag_111\n      jumpi\n      0x0100\n      dup1\n      dup4\n      sload\n      div\n      mul\n      dup4\n      mstore\n      swap2\n      0x20\n      add\n      swap2\n      jump(tag_110)\n    tag_111:\n      dup3\n      add\n      swap2\n      swap1\n      0x00\n      mstore\n      keccak256(0x00, 0x20)\n      swap1\n    tag_112:\n      dup2\n      sload\n      dup2\n      mstore\n      swap1\n      0x01\n      add\n      swap1\n      0x20\n      add\n      dup1\n      dup4\n      gt\n      tag_112\n      jumpi\n      dup3\n      swap1\n      sub\n      0x1f\n      and\n      dup3\n      add\n      swap2\n    tag_110:\n      pop\n      pop\n      pop\n      pop\n      pop\n      dup2\n      mstore\n      0x20\n      add\n      0x05\n      dup3\n      add\n      dup1\n      sload\n      tag_113\n      swap1\n      tag_93\n      jump\t// in\n    tag_113:\n      dup1\n      0x1f\n      add\n      0x20\n      dup1\n      swap2\n      div\n      mul\n      0x20\n      add\n      mload(0x40)\n      swap1\n      dup2\n      add\n      0x40\n      mstore\n      dup1\n      swap3\n      swap2\n      swap1\n      dup2\n      dup2\n      mstore\n      0x20\n      add\n      dup3\n      dup1\n      sload\n      tag_114\n      swap1\n      tag_93\n      jump\t// in\n    tag_114:\n      dup1\n      iszero\n      tag_115\n      jumpi\n      dup1\n      0x1f\n      lt\n      tag_116\n      jumpi\n      0x0100\n      dup1\n      dup4\n      sload\n      div\n      mul\n      dup4\n      mstore\n      swap2\n      0x20\n      add\n      swap2\n      jump(tag_115)\n    tag_116:\n      dup3\n      add\n      swap2\n      swap1\n      0x00\n      mstore\n      keccak256(0x00, 0x20)\n      swap1\n    tag_117:\n      dup2\n      sload\n      dup2\n      mstore\n      swap1\n      0x01\n      add\n      swap1\n      0x20\n      add\n      dup1\n      dup4\n      gt\n      tag_117\n      jumpi\n      dup3\n      swap1\n      sub\n      0x1f\n      and\n      dup3\n      add\n      swap2\n    tag_115:\n      pop\n      pop\n      pop\n      pop\n      pop\n      dup2\n      mstore\n      0x20\n      add\n      0x06\n      dup3\n      add\n      dup1\n      sload\n      tag_118\n      swap1\n      tag_93\n      jump\t// in\n    tag_118:\n      dup1\n      0x1f\n      add\n      0x20\n      dup1\n      swap2\n      div\n      mul\n      0x20\n      add\n      mload(0x40)\n      swap1\n      dup2\n      add\n      0x40\n      mstore\n      dup1\n      swap3\n      swap2\n      swap1\n      dup2\n      dup2\n      mstore\n      0x20\n      add\n      dup3\n      dup1\n      sload\n      tag_119\n      swap1\n      tag_93\n      jump\t// in\n    tag_119:\n      dup1\n      iszero\n      tag_120\n      jumpi\n      dup1\n      0x1f\n      lt\n      tag_121\n      jumpi\n      0x0100\n      dup1\n      dup4\n      sload\n      div\n      mul\n      dup4\n      mstore\n      swap2\n      0x20\n      add\n      swap2\n      jump(tag_120)\n    tag_121:\n      dup3\n      add\n      swap2\n      swap1\n      0x00\n      mstore\n      keccak256(0x00, 0x20)\n      swap1\n    tag_122:\n      dup2\n      sload\n      dup2\n      mstore\n      swap1\n      0x01\n      add\n      swap1\n      0x20\n      add\n      dup1\n      dup4\n      gt\n      tag_122\n      jumpi\n      dup3\n      swap1\n      sub\n      0x1f\n      and\n      dup3\n      add\n      swap2\n    tag_120:\n      pop\n      pop\n      pop\n      pop\n      pop\n      dup2\n      mstore\n      pop\n      pop\n      swap1\n      pop\n        /* \"FlightInsurance1.sol\":3081:3303  function viewMyPolicy() external view returns (InsurancePolicy memory) {... */\n      swap1\n      jump\t// out\n        /* \"FlightInsurance1.sol\":679:711  address public insuranceProvider */\n    tag_21:\n      0x01\n      0x00\n      swap1\n      sload\n      swap1\n      0x0100\n      exp\n      swap1\n      div\n      0xffffffffffffffffffffffffffffffffffffffff\n      and\n      dup2\n      jump\t// out\n        /* \"FlightInsurance1.sol\":1170:1367  function viewAvailablePolicy() external pure returns (string memory) {... */\n    tag_26:\n        /* \"FlightInsurance1.sol\":1224:1237  string memory */\n      0x60\n        /* \"FlightInsurance1.sol\":1249:1360  return \"Premium: 0.01 ETH, Indemnity: 0.02 ETH, Coverage: Extreme Weather Delays (e.g., hail, flooding, etc.).\" */\n      mload(0x40)\n      dup1\n      0xa0\n      add\n      0x40\n      mstore\n      dup1\n      0x66\n      dup2\n      mstore\n      0x20\n      add\n      data_d59989be92bc9d1b4549c043b505eb9c4875cfd9f825df1096982c95975097c2\n      0x66\n      swap2\n      codecopy\n      swap1\n      pop\n        /* \"FlightInsurance1.sol\":1170:1367  function viewAvailablePolicy() external pure returns (string memory) {... */\n      swap1\n      jump\t// out\n        /* \"FlightInsurance1.sol\":3368:3888  function viewAllPolicies() external view returns (InsurancePolicy[] memory) {... */\n    tag_31:\n        /* \"FlightInsurance1.sol\":3418:3442  InsurancePolicy[] memory */\n      0x60\n        /* \"FlightInsurance1.sol\":3536:3553  insuranceProvider */\n      0x01\n      0x00\n      swap1\n      sload\n      swap1\n      0x0100\n      exp\n      swap1\n      div\n      0xffffffffffffffffffffffffffffffffffffffff\n      and\n        /* \"FlightInsurance1.sol\":3522:3553  msg.sender == insuranceProvider */\n      0xffffffffffffffffffffffffffffffffffffffff\n      and\n        /* \"FlightInsurance1.sol\":3522:3532  msg.sender */\n      caller\n        /* \"FlightInsurance1.sol\":3522:3553  msg.sender == insuranceProvider */\n      0xffffffffffffffffffffffffffffffffffffffff\n      and\n      eq\n        /* \"FlightInsurance1.sol\":3514:3594  require(msg.sender == insuranceProvider, \"Caller is not the insurance provider\") */\n      tag_125\n      jumpi\n      mload(0x40)\n      0x08c379a000000000000000000000000000000000000000000000000000000000\n      dup2\n      mstore\n      0x04\n      add\n      tag_126\n      swap1\n      tag_127\n      jump\t// in\n    tag_126:\n      mload(0x40)\n      dup1\n      swap2\n      sub\n      swap1\n      revert\n    tag_125:\n        /* \"FlightInsurance1.sol\":3605:3641  InsurancePolicy[] memory allPolicies */\n      0x00\n        /* \"FlightInsurance1.sol\":3666:3686  insuredPassengerList */\n      0x03\n        /* \"FlightInsurance1.sol\":3666:3693  insuredPassengerList.length */\n      dup1\n      sload\n      swap1\n      pop\n        /* \"FlightInsurance1.sol\":3644:3694  new InsurancePolicy[](insuredPassengerList.length) */\n      0xffffffffffffffff\n      dup2\n      gt\n      iszero\n      tag_128\n      jumpi\n      tag_129\n      tag_130\n      jump\t// in\n    tag_129:\n    tag_128:\n      mload(0x40)\n      swap1\n      dup1\n      dup3\n      mstore\n      dup1\n      0x20\n      mul\n      0x20\n      add\n      dup3\n      add\n      0x40\n      mstore\n      dup1\n      iszero\n      tag_131\n      jumpi\n      dup2\n      0x20\n      add\n    tag_132:\n      tag_133\n      tag_87\n      jump\t// in\n    tag_133:\n      dup2\n      mstore\n      0x20\n      add\n      swap1\n      0x01\n      swap1\n      sub\n      swap1\n      dup2\n      tag_132\n      jumpi\n      swap1\n      pop\n    tag_131:\n      pop\n        /* \"FlightInsurance1.sol\":3605:3694  InsurancePolicy[] memory allPolicies = new InsurancePolicy[](insuredPassengerList.length) */\n      swap1\n      pop\n        /* \"FlightInsurance1.sol\":3717:3726  uint256 i */\n      0x00\n        /* \"FlightInsurance1.sol\":3712:3854  for (uint256 i = 0; i < insuredPassengerList.length; i++) {... */\n    tag_134:\n        /* \"FlightInsurance1.sol\":3736:3756  insuredPassengerList */\n      0x03\n        /* \"FlightInsurance1.sol\":3736:3763  insuredPassengerList.length */\n      dup1\n      sload\n      swap1\n      pop\n        /* \"FlightInsurance1.sol\":3732:3733  i */\n      dup2\n        /* \"FlightInsurance1.sol\":3732:3763  i < insuredPassengerList.length */\n      lt\n        /* \"FlightInsurance1.sol\":3712:3854  for (uint256 i = 0; i < insuredPassengerList.length; i++) {... */\n      iszero\n      tag_135\n      jumpi\n        /* \"FlightInsurance1.sol\":3801:3818  policiesByAddress */\n      0x02\n        /* \"FlightInsurance1.sol\":3801:3843  policiesByAddress[insuredPassengerList[i]] */\n      0x00\n        /* \"FlightInsurance1.sol\":3819:3839  insuredPassengerList */\n      0x03\n        /* \"FlightInsurance1.sol\":3840:3841  i */\n      dup4\n        /* \"FlightInsurance1.sol\":3819:3842  insuredPassengerList[i] */\n      dup2\n      sload\n      dup2\n      lt\n      tag_137\n      jumpi\n      tag_138\n      tag_139\n      jump\t// in\n    tag_138:\n    tag_137:\n      swap1\n      0x00\n      mstore\n      keccak256(0x00, 0x20)\n      add\n      0x00\n      swap1\n      sload\n      swap1\n      0x0100\n      exp\n      swap1\n      div\n      0xffffffffffffffffffffffffffffffffffffffff\n      and\n        /* \"FlightInsurance1.sol\":3801:3843  policiesByAddress[insuredPassengerList[i]] */\n      0xffffffffffffffffffffffffffffffffffffffff\n      and\n      0xffffffffffffffffffffffffffffffffffffffff\n      and\n      dup2\n      mstore\n      0x20\n      add\n      swap1\n      dup2\n      mstore\n      0x20\n      add\n      0x00\n      keccak256\n        /* \"FlightInsurance1.sol\":3784:3843  allPolicies[i] = policiesByAddress[insuredPassengerList[i]] */\n      mload(0x40)\n      dup1\n      0xe0\n      add\n      0x40\n      mstore\n      swap1\n      dup2\n      0x00\n      dup3\n      add\n      dup1\n      sload\n      tag_141\n      swap1\n      tag_93\n      jump\t// in\n    tag_141:\n      dup1\n      0x1f\n      add\n      0x20\n      dup1\n      swap2\n      div\n      mul\n      0x20\n      add\n      mload(0x40)\n      swap1\n      dup2\n      add\n      0x40\n      mstore\n      dup1\n      swap3\n      swap2\n      swap1\n      dup2\n      dup2\n      mstore\n      0x20\n      add\n      dup3\n      dup1\n      sload\n      tag_142\n      swap1\n      tag_93\n      jump\t// in\n    tag_142:\n      dup1\n      iszero\n      tag_143\n      jumpi\n      dup1\n      0x1f\n      lt\n      tag_144\n      jumpi\n      0x0100\n      dup1\n      dup4\n      sload\n      div\n      mul\n      dup4\n      mstore\n      swap2\n      0x20\n      add\n      swap2\n      jump(tag_143)\n    tag_144:\n      dup3\n      add\n      swap2\n      swap1\n      0x00\n      mstore\n      keccak256(0x00, 0x20)\n      swap1\n    tag_145:\n      dup2\n      sload\n      dup2\n      mstore\n      swap1\n      0x01\n      add\n      swap1\n      0x20\n      add\n      dup1\n      dup4\n      gt\n      tag_145\n      jumpi\n      dup3\n      swap1\n      sub\n      0x1f\n      and\n      dup3\n      add\n      swap2\n    tag_143:\n      pop\n      pop\n      pop\n      pop\n      pop\n      dup2\n      mstore\n      0x20\n      add\n      0x01\n      dup3\n      add\n      0x00\n      swap1\n      sload\n      swap1\n      0x0100\n      exp\n      swap1\n      div\n      0xffffffffffffffffffffffffffffffffffffffff\n      and\n      0xffffffffffffffffffffffffffffffffffffffff\n      and\n      0xffffffffffffffffffffffffffffffffffffffff\n      and\n      dup2\n      mstore\n      0x20\n      add\n      0x02\n      dup3\n      add\n      dup1\n      sload\n      tag_146\n      swap1\n      tag_93\n      jump\t// in\n    tag_146:\n      dup1\n      0x1f\n      add\n      0x20\n      dup1\n      swap2\n      div\n      mul\n      0x20\n      add\n      mload(0x40)\n      swap1\n      dup2\n      add\n      0x40\n      mstore\n      dup1\n      swap3\n      swap2\n      swap1\n      dup2\n      dup2\n      mstore\n      0x20\n      add\n      dup3\n      dup1\n      sload\n      tag_147\n      swap1\n      tag_93\n      jump\t// in\n    tag_147:\n      dup1\n      iszero\n      tag_148\n      jumpi\n      dup1\n      0x1f\n      lt\n      tag_149\n      jumpi\n      0x0100\n      dup1\n      dup4\n      sload\n      div\n      mul\n      dup4\n      mstore\n      swap2\n      0x20\n      add\n      swap2\n      jump(tag_148)\n    tag_149:\n      dup3\n      add\n      swap2\n      swap1\n      0x00\n      mstore\n      keccak256(0x00, 0x20)\n      swap1\n    tag_150:\n      dup2\n      sload\n      dup2\n      mstore\n      swap1\n      0x01\n      add\n      swap1\n      0x20\n      add\n      dup1\n      dup4\n      gt\n      tag_150\n      jumpi\n      dup3\n      swap1\n      sub\n      0x1f\n      and\n      dup3\n      add\n      swap2\n    tag_148:\n      pop\n      pop\n      pop\n      pop\n      pop\n      dup2\n      mstore\n      0x20\n      add\n      0x03\n      dup3\n      add\n      dup1\n      sload\n      tag_151\n      swap1\n      tag_93\n      jump\t// in\n    tag_151:\n      dup1\n      0x1f\n      add\n      0x20\n      dup1\n      swap2\n      div\n      mul\n      0x20\n      add\n      mload(0x40)\n      swap1\n      dup2\n      add\n      0x40\n      mstore\n      dup1\n      swap3\n      swap2\n      swap1\n      dup2\n      dup2\n      mstore\n      0x20\n      add\n      dup3\n      dup1\n      sload\n      tag_152\n      swap1\n      tag_93\n      jump\t// in\n    tag_152:\n      dup1\n      iszero\n      tag_153\n      jumpi\n      dup1\n      0x1f\n      lt\n      tag_154\n      jumpi\n      0x0100\n      dup1\n      dup4\n      sload\n      div\n      mul\n      dup4\n      mstore\n      swap2\n      0x20\n      add\n      swap2\n      jump(tag_153)\n    tag_154:\n      dup3\n      add\n      swap2\n      swap1\n      0x00\n      mstore\n      keccak256(0x00, 0x20)\n      swap1\n    tag_155:\n      dup2\n      sload\n      dup2\n      mstore\n      swap1\n      0x01\n      add\n      swap1\n      0x20\n      add\n      dup1\n      dup4\n      gt\n      tag_155\n      jumpi\n      dup3\n      swap1\n      sub\n      0x1f\n      and\n      dup3\n      add\n      swap2\n    tag_153:\n      pop\n      pop\n      pop\n      pop\n      pop\n      dup2\n      mstore\n      0x20\n      add\n      0x04\n      dup3\n      add\n      dup1\n      sload\n      tag_156\n      swap1\n      tag_93\n      jump\t// in\n    tag_156:\n      dup1\n      0x1f\n      add\n      0x20\n      dup1\n      swap2\n      div\n      mul\n      0x20\n      add\n      mload(0x40)\n      swap1\n      dup2\n      add\n      0x40\n      mstore\n      dup1\n      swap3\n      swap2\n      swap1\n      dup2\n      dup2\n      mstore\n      0x20\n      add\n      dup3\n      dup1\n      sload\n      tag_157\n      swap1\n      tag_93\n      jump\t// in\n    tag_157:\n      dup1\n      iszero\n      tag_158\n      jumpi\n      dup1\n      0x1f\n      lt\n      tag_159\n      jumpi\n      0x0100\n      dup1\n      dup4\n      sload\n      div\n      mul\n      dup4\n      mstore\n      swap2\n      0x20\n      add\n      swap2\n      jump(tag_158)\n    tag_159:\n      dup3\n      add\n      swap2\n      swap1\n      0x00\n      mstore\n      keccak256(0x00, 0x20)\n      swap1\n    tag_160:\n      dup2\n      sload\n      dup2\n      mstore\n      swap1\n      0x01\n      add\n      swap1\n      0x20\n      add\n      dup1\n      dup4\n      gt\n      tag_160\n      jumpi\n      dup3\n      swap1\n      sub\n      0x1f\n      and\n      dup3\n      add\n      swap2\n    tag_158:\n      pop\n      pop\n      pop\n      pop\n      pop\n      dup2\n      mstore\n      0x20\n      add\n      0x05\n      dup3\n      add\n      dup1\n      sload\n      tag_161\n      swap1\n      tag_93\n      jump\t// in\n    tag_161:\n      dup1\n      0x1f\n      add\n      0x20\n      dup1\n      swap2\n      div\n      mul\n      0x20\n      add\n      mload(0x40)\n      swap1\n      dup2\n      add\n      0x40\n      mstore\n      dup1\n      swap3\n      swap2\n      swap1\n      dup2\n      dup2\n      mstore\n      0x20\n      add\n      dup3\n      dup1\n      sload\n      tag_162\n      swap1\n      tag_93\n      jump\t// in\n    tag_162:\n      dup1\n      iszero\n      tag_163\n      jumpi\n      dup1\n      0x1f\n      lt\n      tag_164\n      jumpi\n      0x0100\n      dup1\n      dup4\n      sload\n      div\n      mul\n      dup4\n      mstore\n      swap2\n      0x20\n      add\n      swap2\n      jump(tag_163)\n    tag_164:\n      dup3\n      add\n      swap2\n      swap1\n      0x00\n      mstore\n      keccak256(0x00, 0x20)\n      swap1\n    tag_165:\n      dup2\n      sload\n      dup2\n      mstore\n      swap1\n      0x01\n      add\n      swap1\n      0x20\n      add\n      dup1\n      dup4\n      gt\n      tag_165\n      jumpi\n      dup3\n      swap1\n      sub\n      0x1f\n      and\n      dup3\n      add\n      swap2\n    tag_163:\n      pop\n      pop\n      pop\n      pop\n      pop\n      dup2\n      mstore\n      0x20\n      add\n      0x06\n      dup3\n      add\n      dup1\n      sload\n      tag_166\n      swap1\n      tag_93\n      jump\t// in\n    tag_166:\n      dup1\n      0x1f\n      add\n      0x20\n      dup1\n      swap2\n      div\n      mul\n      0x20\n      add\n      mload(0x40)\n      swap1\n      dup2\n      add\n      0x40\n      mstore\n      dup1\n      swap3\n      swap2\n      swap1\n      dup2\n      dup2\n      mstore\n      0x20\n      add\n      dup3\n      dup1\n      sload\n      tag_167\n      swap1\n      tag_93\n      jump\t// in\n    tag_167:\n      dup1\n      iszero\n      tag_168\n      jumpi\n      dup1\n      0x1f\n      lt\n      tag_169\n      jumpi\n      0x0100\n      dup1\n      dup4\n      sload\n      div\n      mul\n      dup4\n      mstore\n      swap2\n      0x20\n      add\n      swap2\n      jump(tag_168)\n    tag_169:\n      dup3\n      add\n      swap2\n      swap1\n      0x00\n      mstore\n      keccak256(0x00, 0x20)\n      swap1\n    tag_170:\n      dup2\n      sload\n      dup2\n      mstore\n      swap1\n      0x01\n      add\n      swap1\n      0x20\n      add\n      dup1\n      dup4\n      gt\n      tag_170\n      jumpi\n      dup3\n      swap1\n      sub\n      0x1f\n      and\n      dup3\n      add\n      swap2\n    tag_168:\n      pop\n      pop\n      pop\n      pop\n      pop\n      dup2\n      mstore\n      pop\n      pop\n        /* \"FlightInsurance1.sol\":3784:3795  allPolicies */\n      dup3\n        /* \"FlightInsurance1.sol\":3796:3797  i */\n      dup3\n        /* \"FlightInsurance1.sol\":3784:3798  allPolicies[i] */\n      dup2\n      mload\n      dup2\n      lt\n      tag_171\n      jumpi\n      tag_172\n      tag_139\n      jump\t// in\n    tag_172:\n    tag_171:\n      0x20\n      mul\n      0x20\n      add\n      add\n        /* \"FlightInsurance1.sol\":3784:3843  allPolicies[i] = policiesByAddress[insuredPassengerList[i]] */\n      dup2\n      swap1\n      mstore\n      pop\n        /* \"FlightInsurance1.sol\":3765:3768  i++ */\n      dup1\n      dup1\n      0x01\n      add\n      swap2\n      pop\n      pop\n        /* \"FlightInsurance1.sol\":3712:3854  for (uint256 i = 0; i < insuredPassengerList.length; i++) {... */\n      jump(tag_134)\n    tag_135:\n      pop\n        /* \"FlightInsurance1.sol\":3870:3881  allPolicies */\n      dup1\n        /* \"FlightInsurance1.sol\":3863:3881  return allPolicies */\n      swap2\n      pop\n      pop\n        /* \"FlightInsurance1.sol\":3368:3888  function viewAllPolicies() external view returns (InsurancePolicy[] memory) {... */\n      swap1\n      jump\t// out\n        /* \"FlightInsurance1.sol\":626:672  uint256 public constant INDEMNITY = 0.02 ether */\n    tag_36:\n        /* \"FlightInsurance1.sol\":662:672  0.02 ether */\n      0x470de4df820000\n        /* \"FlightInsurance1.sol\":626:672  uint256 public constant INDEMNITY = 0.02 ether */\n      dup2\n      jump\t// out\n        /* \"FlightInsurance1.sol\":576:620  uint256 public constant PREMIUM = 0.01 ether */\n    tag_41:\n        /* \"FlightInsurance1.sol\":610:620  0.01 ether */\n      0x2386f26fc10000\n        /* \"FlightInsurance1.sol\":576:620  uint256 public constant PREMIUM = 0.01 ether */\n      dup2\n      jump\t// out\n        /* \"@openzeppelin/contracts/security/ReentrancyGuard.sol\":2336:2623  function _nonReentrantBefore() private {... */\n    tag_45:\n        /* \"@openzeppelin/contracts/security/ReentrancyGuard.sol\":1759:1760  2 */\n      0x02\n        /* \"@openzeppelin/contracts/security/ReentrancyGuard.sol\":2468:2475  _status */\n      sload(0x00)\n        /* \"@openzeppelin/contracts/security/ReentrancyGuard.sol\":2468:2487  _status != _ENTERED */\n      sub\n        /* \"@openzeppelin/contracts/security/ReentrancyGuard.sol\":2460:2523  require(_status != _ENTERED, \"ReentrancyGuard: reentrant call\") */\n      tag_174\n      jumpi\n      mload(0x40)\n      0x08c379a000000000000000000000000000000000000000000000000000000000\n      dup2\n      mstore\n      0x04\n      add\n      tag_175\n      swap1\n      tag_176\n      jump\t// in\n    tag_175:\n      mload(0x40)\n      dup1\n      swap2\n      sub\n      swap1\n      revert\n    tag_174:\n        /* \"@openzeppelin/contracts/security/ReentrancyGuard.sol\":1759:1760  2 */\n      0x02\n        /* \"@openzeppelin/contracts/security/ReentrancyGuard.sol\":2598:2605  _status */\n      0x00\n        /* \"@openzeppelin/contracts/security/ReentrancyGuard.sol\":2598:2616  _status = _ENTERED */\n      dup2\n      swap1\n      sstore\n      pop\n        /* \"@openzeppelin/contracts/security/ReentrancyGuard.sol\":2336:2623  function _nonReentrantBefore() private {... */\n      jump\t// out\n        /* \"@openzeppelin/contracts/security/ReentrancyGuard.sol\":2629:2838  function _nonReentrantAfter() private {... */\n    tag_85:\n        /* \"@openzeppelin/contracts/security/ReentrancyGuard.sol\":1716:1717  1 */\n      0x01\n        /* \"@openzeppelin/contracts/security/ReentrancyGuard.sol\":2809:2816  _status */\n      0x00\n        /* \"@openzeppelin/contracts/security/ReentrancyGuard.sol\":2809:2831  _status = _NOT_ENTERED */\n      dup2\n      swap1\n      sstore\n      pop\n        /* \"@openzeppelin/contracts/security/ReentrancyGuard.sol\":2629:2838  function _nonReentrantAfter() private {... */\n      jump\t// out\n    tag_87:\n      mload(0x40)\n      dup1\n      0xe0\n      add\n      0x40\n      mstore\n      dup1\n      0x60\n      dup2\n      mstore\n      0x20\n      add\n      and(0xffffffffffffffffffffffffffffffffffffffff, 0x00)\n      dup2\n      mstore\n      0x20\n      add\n      0x60\n      dup2\n      mstore\n      0x20\n      add\n      0x60\n      dup2\n      mstore\n      0x20\n      add\n      0x60\n      dup2\n      mstore\n      0x20\n      add\n      0x60\n      dup2\n      mstore\n      0x20\n      add\n      0x60\n      dup2\n      mstore\n      pop\n      swap1\n      jump\t// out\n        /* \"#utility.yul\":88:205   */\n    tag_179:\n        /* \"#utility.yul\":197:198   */\n      0x00\n        /* \"#utility.yul\":194:195   */\n      dup1\n        /* \"#utility.yul\":187:199   */\n      revert\n        /* \"#utility.yul\":211:328   */\n    tag_180:\n        /* \"#utility.yul\":320:321   */\n      0x00\n        /* \"#utility.yul\":317:318   */\n      dup1\n        /* \"#utility.yul\":310:322   */\n      revert\n        /* \"#utility.yul\":334:451   */\n    tag_181:\n        /* \"#utility.yul\":443:444   */\n      0x00\n        /* \"#utility.yul\":440:441   */\n      dup1\n        /* \"#utility.yul\":433:445   */\n      revert\n        /* \"#utility.yul\":457:574   */\n    tag_182:\n        /* \"#utility.yul\":566:567   */\n      0x00\n        /* \"#utility.yul\":563:564   */\n      dup1\n        /* \"#utility.yul\":556:568   */\n      revert\n        /* \"#utility.yul\":580:697   */\n    tag_183:\n        /* \"#utility.yul\":689:690   */\n      0x00\n        /* \"#utility.yul\":686:687   */\n      dup1\n        /* \"#utility.yul\":679:691   */\n      revert\n        /* \"#utility.yul\":717:1270   */\n    tag_184:\n        /* \"#utility.yul\":775:783   */\n      0x00\n        /* \"#utility.yul\":785:791   */\n      dup1\n        /* \"#utility.yul\":835:838   */\n      dup4\n        /* \"#utility.yul\":828:832   */\n      0x1f\n        /* \"#utility.yul\":820:826   */\n      dup5\n        /* \"#utility.yul\":816:833   */\n      add\n        /* \"#utility.yul\":812:839   */\n      slt\n        /* \"#utility.yul\":802:924   */\n      tag_255\n      jumpi\n        /* \"#utility.yul\":843:922   */\n      tag_256\n      tag_181\n      jump\t// in\n    tag_256:\n        /* \"#utility.yul\":802:924   */\n    tag_255:\n        /* \"#utility.yul\":956:962   */\n      dup3\n        /* \"#utility.yul\":943:963   */\n      calldataload\n        /* \"#utility.yul\":933:963   */\n      swap1\n      pop\n        /* \"#utility.yul\":986:1004   */\n      0xffffffffffffffff\n        /* \"#utility.yul\":978:984   */\n      dup2\n        /* \"#utility.yul\":975:1005   */\n      gt\n        /* \"#utility.yul\":972:1089   */\n      iszero\n      tag_257\n      jumpi\n        /* \"#utility.yul\":1008:1087   */\n      tag_258\n      tag_182\n      jump\t// in\n    tag_258:\n        /* \"#utility.yul\":972:1089   */\n    tag_257:\n        /* \"#utility.yul\":1122:1126   */\n      0x20\n        /* \"#utility.yul\":1114:1120   */\n      dup4\n        /* \"#utility.yul\":1110:1127   */\n      add\n        /* \"#utility.yul\":1098:1127   */\n      swap2\n      pop\n        /* \"#utility.yul\":1176:1179   */\n      dup4\n        /* \"#utility.yul\":1168:1172   */\n      0x01\n        /* \"#utility.yul\":1160:1166   */\n      dup3\n        /* \"#utility.yul\":1156:1173   */\n      mul\n        /* \"#utility.yul\":1146:1154   */\n      dup4\n        /* \"#utility.yul\":1142:1174   */\n      add\n        /* \"#utility.yul\":1139:1180   */\n      gt\n        /* \"#utility.yul\":1136:1264   */\n      iszero\n      tag_259\n      jumpi\n        /* \"#utility.yul\":1183:1262   */\n      tag_260\n      tag_183\n      jump\t// in\n    tag_260:\n        /* \"#utility.yul\":1136:1264   */\n    tag_259:\n        /* \"#utility.yul\":717:1270   */\n      swap3\n      pop\n      swap3\n      swap1\n      pop\n      jump\t// out\n        /* \"#utility.yul\":1276:3187   */\n    tag_12:\n        /* \"#utility.yul\":1431:1437   */\n      0x00\n        /* \"#utility.yul\":1439:1445   */\n      dup1\n        /* \"#utility.yul\":1447:1453   */\n      0x00\n        /* \"#utility.yul\":1455:1461   */\n      dup1\n        /* \"#utility.yul\":1463:1469   */\n      0x00\n        /* \"#utility.yul\":1471:1477   */\n      dup1\n        /* \"#utility.yul\":1479:1485   */\n      0x00\n        /* \"#utility.yul\":1487:1493   */\n      dup1\n        /* \"#utility.yul\":1495:1501   */\n      0x00\n        /* \"#utility.yul\":1503:1509   */\n      dup1\n        /* \"#utility.yul\":1552:1555   */\n      0xa0\n        /* \"#utility.yul\":1540:1549   */\n      dup12\n        /* \"#utility.yul\":1531:1538   */\n      dup14\n        /* \"#utility.yul\":1527:1550   */\n      sub\n        /* \"#utility.yul\":1523:1556   */\n      slt\n        /* \"#utility.yul\":1520:1640   */\n      iszero\n      tag_262\n      jumpi\n        /* \"#utility.yul\":1559:1638   */\n      tag_263\n      tag_179\n      jump\t// in\n    tag_263:\n        /* \"#utility.yul\":1520:1640   */\n    tag_262:\n        /* \"#utility.yul\":1707:1708   */\n      0x00\n        /* \"#utility.yul\":1696:1705   */\n      dup12\n        /* \"#utility.yul\":1692:1709   */\n      add\n        /* \"#utility.yul\":1679:1710   */\n      calldataload\n        /* \"#utility.yul\":1737:1755   */\n      0xffffffffffffffff\n        /* \"#utility.yul\":1729:1735   */\n      dup2\n        /* \"#utility.yul\":1726:1756   */\n      gt\n        /* \"#utility.yul\":1723:1840   */\n      iszero\n      tag_264\n      jumpi\n        /* \"#utility.yul\":1759:1838   */\n      tag_265\n      tag_180\n      jump\t// in\n    tag_265:\n        /* \"#utility.yul\":1723:1840   */\n    tag_264:\n        /* \"#utility.yul\":1872:1937   */\n      tag_266\n        /* \"#utility.yul\":1929:1936   */\n      dup14\n        /* \"#utility.yul\":1920:1926   */\n      dup3\n        /* \"#utility.yul\":1909:1918   */\n      dup15\n        /* \"#utility.yul\":1905:1927   */\n      add\n        /* \"#utility.yul\":1872:1937   */\n      tag_184\n      jump\t// in\n    tag_266:\n        /* \"#utility.yul\":1854:1937   */\n      swap11\n      pop\n      swap11\n      pop\n        /* \"#utility.yul\":1650:1947   */\n      pop\n        /* \"#utility.yul\":2014:2016   */\n      0x20\n        /* \"#utility.yul\":2003:2012   */\n      dup12\n        /* \"#utility.yul\":1999:2017   */\n      add\n        /* \"#utility.yul\":1986:2018   */\n      calldataload\n        /* \"#utility.yul\":2045:2063   */\n      0xffffffffffffffff\n        /* \"#utility.yul\":2037:2043   */\n      dup2\n        /* \"#utility.yul\":2034:2064   */\n      gt\n        /* \"#utility.yul\":2031:2148   */\n      iszero\n      tag_267\n      jumpi\n        /* \"#utility.yul\":2067:2146   */\n      tag_268\n      tag_180\n      jump\t// in\n    tag_268:\n        /* \"#utility.yul\":2031:2148   */\n    tag_267:\n        /* \"#utility.yul\":2180:2245   */\n      tag_269\n        /* \"#utility.yul\":2237:2244   */\n      dup14\n        /* \"#utility.yul\":2228:2234   */\n      dup3\n        /* \"#utility.yul\":2217:2226   */\n      dup15\n        /* \"#utility.yul\":2213:2235   */\n      add\n        /* \"#utility.yul\":2180:2245   */\n      tag_184\n      jump\t// in\n    tag_269:\n        /* \"#utility.yul\":2162:2245   */\n      swap9\n      pop\n      swap9\n      pop\n        /* \"#utility.yul\":1957:2255   */\n      pop\n        /* \"#utility.yul\":2322:2324   */\n      0x40\n        /* \"#utility.yul\":2311:2320   */\n      dup12\n        /* \"#utility.yul\":2307:2325   */\n      add\n        /* \"#utility.yul\":2294:2326   */\n      calldataload\n        /* \"#utility.yul\":2353:2371   */\n      0xffffffffffffffff\n        /* \"#utility.yul\":2345:2351   */\n      dup2\n        /* \"#utility.yul\":2342:2372   */\n      gt\n        /* \"#utility.yul\":2339:2456   */\n      iszero\n      tag_270\n      jumpi\n        /* \"#utility.yul\":2375:2454   */\n      tag_271\n      tag_180\n      jump\t// in\n    tag_271:\n        /* \"#utility.yul\":2339:2456   */\n    tag_270:\n        /* \"#utility.yul\":2488:2553   */\n      tag_272\n        /* \"#utility.yul\":2545:2552   */\n      dup14\n        /* \"#utility.yul\":2536:2542   */\n      dup3\n        /* \"#utility.yul\":2525:2534   */\n      dup15\n        /* \"#utility.yul\":2521:2543   */\n      add\n        /* \"#utility.yul\":2488:2553   */\n      tag_184\n      jump\t// in\n    tag_272:\n        /* \"#utility.yul\":2470:2553   */\n      swap7\n      pop\n      swap7\n      pop\n        /* \"#utility.yul\":2265:2563   */\n      pop\n        /* \"#utility.yul\":2630:2632   */\n      0x60\n        /* \"#utility.yul\":2619:2628   */\n      dup12\n        /* \"#utility.yul\":2615:2633   */\n      add\n        /* \"#utility.yul\":2602:2634   */\n      calldataload\n        /* \"#utility.yul\":2661:2679   */\n      0xffffffffffffffff\n        /* \"#utility.yul\":2653:2659   */\n      dup2\n        /* \"#utility.yul\":2650:2680   */\n      gt\n        /* \"#utility.yul\":2647:2764   */\n      iszero\n      tag_273\n      jumpi\n        /* \"#utility.yul\":2683:2762   */\n      tag_274\n      tag_180\n      jump\t// in\n    tag_274:\n        /* \"#utility.yul\":2647:2764   */\n    tag_273:\n        /* \"#utility.yul\":2796:2861   */\n      tag_275\n        /* \"#utility.yul\":2853:2860   */\n      dup14\n        /* \"#utility.yul\":2844:2850   */\n      dup3\n        /* \"#utility.yul\":2833:2842   */\n      dup15\n        /* \"#utility.yul\":2829:2851   */\n      add\n        /* \"#utility.yul\":2796:2861   */\n      tag_184\n      jump\t// in\n    tag_275:\n        /* \"#utility.yul\":2778:2861   */\n      swap5\n      pop\n      swap5\n      pop\n        /* \"#utility.yul\":2573:2871   */\n      pop\n        /* \"#utility.yul\":2938:2941   */\n      0x80\n        /* \"#utility.yul\":2927:2936   */\n      dup12\n        /* \"#utility.yul\":2923:2942   */\n      add\n        /* \"#utility.yul\":2910:2943   */\n      calldataload\n        /* \"#utility.yul\":2970:2988   */\n      0xffffffffffffffff\n        /* \"#utility.yul\":2962:2968   */\n      dup2\n        /* \"#utility.yul\":2959:2989   */\n      gt\n        /* \"#utility.yul\":2956:3073   */\n      iszero\n      tag_276\n      jumpi\n        /* \"#utility.yul\":2992:3071   */\n      tag_277\n      tag_180\n      jump\t// in\n    tag_277:\n        /* \"#utility.yul\":2956:3073   */\n    tag_276:\n        /* \"#utility.yul\":3105:3170   */\n      tag_278\n        /* \"#utility.yul\":3162:3169   */\n      dup14\n        /* \"#utility.yul\":3153:3159   */\n      dup3\n        /* \"#utility.yul\":3142:3151   */\n      dup15\n        /* \"#utility.yul\":3138:3160   */\n      add\n        /* \"#utility.yul\":3105:3170   */\n      tag_184\n      jump\t// in\n    tag_278:\n        /* \"#utility.yul\":3087:3170   */\n      swap3\n      pop\n      swap3\n      pop\n        /* \"#utility.yul\":2881:3180   */\n      pop\n        /* \"#utility.yul\":1276:3187   */\n      swap3\n      swap6\n      swap9\n      swap12\n      swap2\n      swap5\n      swap8\n      swap11\n      pop\n      swap3\n      swap6\n      swap9\n      pop\n      jump\t// out\n        /* \"#utility.yul\":3193:3292   */\n    tag_185:\n        /* \"#utility.yul\":3245:3251   */\n      0x00\n        /* \"#utility.yul\":3279:3284   */\n      dup2\n        /* \"#utility.yul\":3273:3285   */\n      mload\n        /* \"#utility.yul\":3263:3285   */\n      swap1\n      pop\n        /* \"#utility.yul\":3193:3292   */\n      swap2\n      swap1\n      pop\n      jump\t// out\n        /* \"#utility.yul\":3298:3457   */\n    tag_186:\n        /* \"#utility.yul\":3372:3383   */\n      0x00\n        /* \"#utility.yul\":3406:3412   */\n      dup3\n        /* \"#utility.yul\":3401:3404   */\n      dup3\n        /* \"#utility.yul\":3394:3413   */\n      mstore\n        /* \"#utility.yul\":3446:3450   */\n      0x20\n        /* \"#utility.yul\":3441:3444   */\n      dup3\n        /* \"#utility.yul\":3437:3451   */\n      add\n        /* \"#utility.yul\":3422:3451   */\n      swap1\n      pop\n        /* \"#utility.yul\":3298:3457   */\n      swap3\n      swap2\n      pop\n      pop\n      jump\t// out\n        /* \"#utility.yul\":3463:3602   */\n    tag_187:\n        /* \"#utility.yul\":3552:3558   */\n      dup3\n        /* \"#utility.yul\":3547:3550   */\n      dup2\n        /* \"#utility.yul\":3542:3545   */\n      dup4\n        /* \"#utility.yul\":3536:3559   */\n      mcopy\n        /* \"#utility.yul\":3593:3594   */\n      0x00\n        /* \"#utility.yul\":3584:3590   */\n      dup4\n        /* \"#utility.yul\":3579:3582   */\n      dup4\n        /* \"#utility.yul\":3575:3591   */\n      add\n        /* \"#utility.yul\":3568:3595   */\n      mstore\n        /* \"#utility.yul\":3463:3602   */\n      pop\n      pop\n      pop\n      jump\t// out\n        /* \"#utility.yul\":3608:3710   */\n    tag_188:\n        /* \"#utility.yul\":3649:3655   */\n      0x00\n        /* \"#utility.yul\":3700:3702   */\n      0x1f\n        /* \"#utility.yul\":3696:3703   */\n      not\n        /* \"#utility.yul\":3691:3693   */\n      0x1f\n        /* \"#utility.yul\":3684:3689   */\n      dup4\n        /* \"#utility.yul\":3680:3694   */\n      add\n        /* \"#utility.yul\":3676:3704   */\n      and\n        /* \"#utility.yul\":3666:3704   */\n      swap1\n      pop\n        /* \"#utility.yul\":3608:3710   */\n      swap2\n      swap1\n      pop\n      jump\t// out\n        /* \"#utility.yul\":3716:4073   */\n    tag_189:\n        /* \"#utility.yul\":3794:3797   */\n      0x00\n        /* \"#utility.yul\":3822:3861   */\n      tag_284\n        /* \"#utility.yul\":3855:3860   */\n      dup3\n        /* \"#utility.yul\":3822:3861   */\n      tag_185\n      jump\t// in\n    tag_284:\n        /* \"#utility.yul\":3877:3938   */\n      tag_285\n        /* \"#utility.yul\":3931:3937   */\n      dup2\n        /* \"#utility.yul\":3926:3929   */\n      dup6\n        /* \"#utility.yul\":3877:3938   */\n      tag_186\n      jump\t// in\n    tag_285:\n        /* \"#utility.yul\":3870:3938   */\n      swap4\n      pop\n        /* \"#utility.yul\":3947:4012   */\n      tag_286\n        /* \"#utility.yul\":4005:4011   */\n      dup2\n        /* \"#utility.yul\":4000:4003   */\n      dup6\n        /* \"#utility.yul\":3993:3997   */\n      0x20\n        /* \"#utility.yul\":3986:3991   */\n      dup7\n        /* \"#utility.yul\":3982:3998   */\n      add\n        /* \"#utility.yul\":3947:4012   */\n      tag_187\n      jump\t// in\n    tag_286:\n        /* \"#utility.yul\":4037:4066   */\n      tag_287\n        /* \"#utility.yul\":4059:4065   */\n      dup2\n        /* \"#utility.yul\":4037:4066   */\n      tag_188\n      jump\t// in\n    tag_287:\n        /* \"#utility.yul\":4032:4035   */\n      dup5\n        /* \"#utility.yul\":4028:4067   */\n      add\n        /* \"#utility.yul\":4021:4067   */\n      swap2\n      pop\n        /* \"#utility.yul\":3798:4073   */\n      pop\n        /* \"#utility.yul\":3716:4073   */\n      swap3\n      swap2\n      pop\n      pop\n      jump\t// out\n        /* \"#utility.yul\":4079:4205   */\n    tag_190:\n        /* \"#utility.yul\":4116:4123   */\n      0x00\n        /* \"#utility.yul\":4156:4198   */\n      0xffffffffffffffffffffffffffffffffffffffff\n        /* \"#utility.yul\":4149:4154   */\n      dup3\n        /* \"#utility.yul\":4145:4199   */\n      and\n        /* \"#utility.yul\":4134:4199   */\n      swap1\n      pop\n        /* \"#utility.yul\":4079:4205   */\n      swap2\n      swap1\n      pop\n      jump\t// out\n        /* \"#utility.yul\":4211:4307   */\n    tag_191:\n        /* \"#utility.yul\":4248:4255   */\n      0x00\n        /* \"#utility.yul\":4277:4301   */\n      tag_290\n        /* \"#utility.yul\":4295:4300   */\n      dup3\n        /* \"#utility.yul\":4277:4301   */\n      tag_190\n      jump\t// in\n    tag_290:\n        /* \"#utility.yul\":4266:4301   */\n      swap1\n      pop\n        /* \"#utility.yul\":4211:4307   */\n      swap2\n      swap1\n      pop\n      jump\t// out\n        /* \"#utility.yul\":4313:4421   */\n    tag_192:\n        /* \"#utility.yul\":4390:4414   */\n      tag_292\n        /* \"#utility.yul\":4408:4413   */\n      dup2\n        /* \"#utility.yul\":4390:4414   */\n      tag_191\n      jump\t// in\n    tag_292:\n        /* \"#utility.yul\":4385:4388   */\n      dup3\n        /* \"#utility.yul\":4378:4415   */\n      mstore\n        /* \"#utility.yul\":4313:4421   */\n      pop\n      pop\n      jump\t// out\n        /* \"#utility.yul\":4517:6423   */\n    tag_193:\n        /* \"#utility.yul\":4648:4651   */\n      0x00\n        /* \"#utility.yul\":4684:4688   */\n      0xe0\n        /* \"#utility.yul\":4679:4682   */\n      dup4\n        /* \"#utility.yul\":4675:4689   */\n      add\n        /* \"#utility.yul\":4780:4784   */\n      0x00\n        /* \"#utility.yul\":4773:4778   */\n      dup4\n        /* \"#utility.yul\":4769:4785   */\n      add\n        /* \"#utility.yul\":4763:4786   */\n      mload\n        /* \"#utility.yul\":4833:4836   */\n      dup5\n        /* \"#utility.yul\":4827:4831   */\n      dup3\n        /* \"#utility.yul\":4823:4837   */\n      sub\n        /* \"#utility.yul\":4816:4820   */\n      0x00\n        /* \"#utility.yul\":4811:4814   */\n      dup7\n        /* \"#utility.yul\":4807:4821   */\n      add\n        /* \"#utility.yul\":4800:4838   */\n      mstore\n        /* \"#utility.yul\":4859:4932   */\n      tag_294\n        /* \"#utility.yul\":4927:4931   */\n      dup3\n        /* \"#utility.yul\":4913:4925   */\n      dup3\n        /* \"#utility.yul\":4859:4932   */\n      tag_189\n      jump\t// in\n    tag_294:\n        /* \"#utility.yul\":4851:4932   */\n      swap2\n      pop\n        /* \"#utility.yul\":4699:4943   */\n      pop\n        /* \"#utility.yul\":5037:5041   */\n      0x20\n        /* \"#utility.yul\":5030:5035   */\n      dup4\n        /* \"#utility.yul\":5026:5042   */\n      add\n        /* \"#utility.yul\":5020:5043   */\n      mload\n        /* \"#utility.yul\":5056:5119   */\n      tag_295\n        /* \"#utility.yul\":5113:5117   */\n      0x20\n        /* \"#utility.yul\":5108:5111   */\n      dup7\n        /* \"#utility.yul\":5104:5118   */\n      add\n        /* \"#utility.yul\":5090:5102   */\n      dup3\n        /* \"#utility.yul\":5056:5119   */\n      tag_192\n      jump\t// in\n    tag_295:\n        /* \"#utility.yul\":4953:5129   */\n      pop\n        /* \"#utility.yul\":5219:5223   */\n      0x40\n        /* \"#utility.yul\":5212:5217   */\n      dup4\n        /* \"#utility.yul\":5208:5224   */\n      add\n        /* \"#utility.yul\":5202:5225   */\n      mload\n        /* \"#utility.yul\":5272:5275   */\n      dup5\n        /* \"#utility.yul\":5266:5270   */\n      dup3\n        /* \"#utility.yul\":5262:5276   */\n      sub\n        /* \"#utility.yul\":5255:5259   */\n      0x40\n        /* \"#utility.yul\":5250:5253   */\n      dup7\n        /* \"#utility.yul\":5246:5260   */\n      add\n        /* \"#utility.yul\":5239:5277   */\n      mstore\n        /* \"#utility.yul\":5298:5371   */\n      tag_296\n        /* \"#utility.yul\":5366:5370   */\n      dup3\n        /* \"#utility.yul\":5352:5364   */\n      dup3\n        /* \"#utility.yul\":5298:5371   */\n      tag_189\n      jump\t// in\n    tag_296:\n        /* \"#utility.yul\":5290:5371   */\n      swap2\n      pop\n        /* \"#utility.yul\":5139:5382   */\n      pop\n        /* \"#utility.yul\":5470:5474   */\n      0x60\n        /* \"#utility.yul\":5463:5468   */\n      dup4\n        /* \"#utility.yul\":5459:5475   */\n      add\n        /* \"#utility.yul\":5453:5476   */\n      mload\n        /* \"#utility.yul\":5523:5526   */\n      dup5\n        /* \"#utility.yul\":5517:5521   */\n      dup3\n        /* \"#utility.yul\":5513:5527   */\n      sub\n        /* \"#utility.yul\":5506:5510   */\n      0x60\n        /* \"#utility.yul\":5501:5504   */\n      dup7\n        /* \"#utility.yul\":5497:5511   */\n      add\n        /* \"#utility.yul\":5490:5528   */\n      mstore\n        /* \"#utility.yul\":5549:5622   */\n      tag_297\n        /* \"#utility.yul\":5617:5621   */\n      dup3\n        /* \"#utility.yul\":5603:5615   */\n      dup3\n        /* \"#utility.yul\":5549:5622   */\n      tag_189\n      jump\t// in\n    tag_297:\n        /* \"#utility.yul\":5541:5622   */\n      swap2\n      pop\n        /* \"#utility.yul\":5392:5633   */\n      pop\n        /* \"#utility.yul\":5724:5728   */\n      0x80\n        /* \"#utility.yul\":5717:5722   */\n      dup4\n        /* \"#utility.yul\":5713:5729   */\n      add\n        /* \"#utility.yul\":5707:5730   */\n      mload\n        /* \"#utility.yul\":5777:5780   */\n      dup5\n        /* \"#utility.yul\":5771:5775   */\n      dup3\n        /* \"#utility.yul\":5767:5781   */\n      sub\n        /* \"#utility.yul\":5760:5764   */\n      0x80\n        /* \"#utility.yul\":5755:5758   */\n      dup7\n        /* \"#utility.yul\":5751:5765   */\n      add\n        /* \"#utility.yul\":5744:5782   */\n      mstore\n        /* \"#utility.yul\":5803:5876   */\n      tag_298\n        /* \"#utility.yul\":5871:5875   */\n      dup3\n        /* \"#utility.yul\":5857:5869   */\n      dup3\n        /* \"#utility.yul\":5803:5876   */\n      tag_189\n      jump\t// in\n    tag_298:\n        /* \"#utility.yul\":5795:5876   */\n      swap2\n      pop\n        /* \"#utility.yul\":5643:5887   */\n      pop\n        /* \"#utility.yul\":5980:5984   */\n      0xa0\n        /* \"#utility.yul\":5973:5978   */\n      dup4\n        /* \"#utility.yul\":5969:5985   */\n      add\n        /* \"#utility.yul\":5963:5986   */\n      mload\n        /* \"#utility.yul\":6033:6036   */\n      dup5\n        /* \"#utility.yul\":6027:6031   */\n      dup3\n        /* \"#utility.yul\":6023:6037   */\n      sub\n        /* \"#utility.yul\":6016:6020   */\n      0xa0\n        /* \"#utility.yul\":6011:6014   */\n      dup7\n        /* \"#utility.yul\":6007:6021   */\n      add\n        /* \"#utility.yul\":6000:6038   */\n      mstore\n        /* \"#utility.yul\":6059:6132   */\n      tag_299\n        /* \"#utility.yul\":6127:6131   */\n      dup3\n        /* \"#utility.yul\":6113:6125   */\n      dup3\n        /* \"#utility.yul\":6059:6132   */\n      tag_189\n      jump\t// in\n    tag_299:\n        /* \"#utility.yul\":6051:6132   */\n      swap2\n      pop\n        /* \"#utility.yul\":5897:6143   */\n      pop\n        /* \"#utility.yul\":6233:6237   */\n      0xc0\n        /* \"#utility.yul\":6226:6231   */\n      dup4\n        /* \"#utility.yul\":6222:6238   */\n      add\n        /* \"#utility.yul\":6216:6239   */\n      mload\n        /* \"#utility.yul\":6286:6289   */\n      dup5\n        /* \"#utility.yul\":6280:6284   */\n      dup3\n        /* \"#utility.yul\":6276:6290   */\n      sub\n        /* \"#utility.yul\":6269:6273   */\n      0xc0\n        /* \"#utility.yul\":6264:6267   */\n      dup7\n        /* \"#utility.yul\":6260:6274   */\n      add\n        /* \"#utility.yul\":6253:6291   */\n      mstore\n        /* \"#utility.yul\":6312:6385   */\n      tag_300\n        /* \"#utility.yul\":6380:6384   */\n      dup3\n        /* \"#utility.yul\":6366:6378   */\n      dup3\n        /* \"#utility.yul\":6312:6385   */\n      tag_189\n      jump\t// in\n    tag_300:\n        /* \"#utility.yul\":6304:6385   */\n      swap2\n      pop\n        /* \"#utility.yul\":6153:6396   */\n      pop\n        /* \"#utility.yul\":6413:6417   */\n      dup1\n        /* \"#utility.yul\":6406:6417   */\n      swap2\n      pop\n        /* \"#utility.yul\":4653:6423   */\n      pop\n        /* \"#utility.yul\":4517:6423   */\n      swap3\n      swap2\n      pop\n      pop\n      jump\t// out\n        /* \"#utility.yul\":6429:6826   */\n    tag_18:\n        /* \"#utility.yul\":6584:6588   */\n      0x00\n        /* \"#utility.yul\":6622:6624   */\n      0x20\n        /* \"#utility.yul\":6611:6620   */\n      dup3\n        /* \"#utility.yul\":6607:6625   */\n      add\n        /* \"#utility.yul\":6599:6625   */\n      swap1\n      pop\n        /* \"#utility.yul\":6671:6680   */\n      dup2\n        /* \"#utility.yul\":6665:6669   */\n      dup2\n        /* \"#utility.yul\":6661:6681   */\n      sub\n        /* \"#utility.yul\":6657:6658   */\n      0x00\n        /* \"#utility.yul\":6646:6655   */\n      dup4\n        /* \"#utility.yul\":6642:6659   */\n      add\n        /* \"#utility.yul\":6635:6682   */\n      mstore\n        /* \"#utility.yul\":6699:6819   */\n      tag_302\n        /* \"#utility.yul\":6814:6818   */\n      dup2\n        /* \"#utility.yul\":6805:6811   */\n      dup5\n        /* \"#utility.yul\":6699:6819   */\n      tag_193\n      jump\t// in\n    tag_302:\n        /* \"#utility.yul\":6691:6819   */\n      swap1\n      pop\n        /* \"#utility.yul\":6429:6826   */\n      swap3\n      swap2\n      pop\n      pop\n      jump\t// out\n        /* \"#utility.yul\":6832:6950   */\n    tag_194:\n        /* \"#utility.yul\":6919:6943   */\n      tag_304\n        /* \"#utility.yul\":6937:6942   */\n      dup2\n        /* \"#utility.yul\":6919:6943   */\n      tag_191\n      jump\t// in\n    tag_304:\n        /* \"#utility.yul\":6914:6917   */\n      dup3\n        /* \"#utility.yul\":6907:6944   */\n      mstore\n        /* \"#utility.yul\":6832:6950   */\n      pop\n      pop\n      jump\t// out\n        /* \"#utility.yul\":6956:7178   */\n    tag_23:\n        /* \"#utility.yul\":7049:7053   */\n      0x00\n        /* \"#utility.yul\":7087:7089   */\n      0x20\n        /* \"#utility.yul\":7076:7085   */\n      dup3\n        /* \"#utility.yul\":7072:7090   */\n      add\n        /* \"#utility.yul\":7064:7090   */\n      swap1\n      pop\n        /* \"#utility.yul\":7100:7171   */\n      tag_306\n        /* \"#utility.yul\":7168:7169   */\n      0x00\n        /* \"#utility.yul\":7157:7166   */\n      dup4\n        /* \"#utility.yul\":7153:7170   */\n      add\n        /* \"#utility.yul\":7144:7150   */\n      dup5\n        /* \"#utility.yul\":7100:7171   */\n      tag_194\n      jump\t// in\n    tag_306:\n        /* \"#utility.yul\":6956:7178   */\n      swap3\n      swap2\n      pop\n      pop\n      jump\t// out\n        /* \"#utility.yul\":7184:7353   */\n    tag_195:\n        /* \"#utility.yul\":7268:7279   */\n      0x00\n        /* \"#utility.yul\":7302:7308   */\n      dup3\n        /* \"#utility.yul\":7297:7300   */\n      dup3\n        /* \"#utility.yul\":7290:7309   */\n      mstore\n        /* \"#utility.yul\":7342:7346   */\n      0x20\n        /* \"#utility.yul\":7337:7340   */\n      dup3\n        /* \"#utility.yul\":7333:7347   */\n      add\n        /* \"#utility.yul\":7318:7347   */\n      swap1\n      pop\n        /* \"#utility.yul\":7184:7353   */\n      swap3\n      swap2\n      pop\n      pop\n      jump\t// out\n        /* \"#utility.yul\":7359:7736   */\n    tag_196:\n        /* \"#utility.yul\":7447:7450   */\n      0x00\n        /* \"#utility.yul\":7475:7514   */\n      tag_309\n        /* \"#utility.yul\":7508:7513   */\n      dup3\n        /* \"#utility.yul\":7475:7514   */\n      tag_185\n      jump\t// in\n    tag_309:\n        /* \"#utility.yul\":7530:7601   */\n      tag_310\n        /* \"#utility.yul\":7594:7600   */\n      dup2\n        /* \"#utility.yul\":7589:7592   */\n      dup6\n        /* \"#utility.yul\":7530:7601   */\n      tag_195\n      jump\t// in\n    tag_310:\n        /* \"#utility.yul\":7523:7601   */\n      swap4\n      pop\n        /* \"#utility.yul\":7610:7675   */\n      tag_311\n        /* \"#utility.yul\":7668:7674   */\n      dup2\n        /* \"#utility.yul\":7663:7666   */\n      dup6\n        /* \"#utility.yul\":7656:7660   */\n      0x20\n        /* \"#utility.yul\":7649:7654   */\n      dup7\n        /* \"#utility.yul\":7645:7661   */\n      add\n        /* \"#utility.yul\":7610:7675   */\n      tag_187\n      jump\t// in\n    tag_311:\n        /* \"#utility.yul\":7700:7729   */\n      tag_312\n        /* \"#utility.yul\":7722:7728   */\n      dup2\n        /* \"#utility.yul\":7700:7729   */\n      tag_188\n      jump\t// in\n    tag_312:\n        /* \"#utility.yul\":7695:7698   */\n      dup5\n        /* \"#utility.yul\":7691:7730   */\n      add\n        /* \"#utility.yul\":7684:7730   */\n      swap2\n      pop\n        /* \"#utility.yul\":7451:7736   */\n      pop\n        /* \"#utility.yul\":7359:7736   */\n      swap3\n      swap2\n      pop\n      pop\n      jump\t// out\n        /* \"#utility.yul\":7742:8055   */\n    tag_28:\n        /* \"#utility.yul\":7855:7859   */\n      0x00\n        /* \"#utility.yul\":7893:7895   */\n      0x20\n        /* \"#utility.yul\":7882:7891   */\n      dup3\n        /* \"#utility.yul\":7878:7896   */\n      add\n        /* \"#utility.yul\":7870:7896   */\n      swap1\n      pop\n        /* \"#utility.yul\":7942:7951   */\n      dup2\n        /* \"#utility.yul\":7936:7940   */\n      dup2\n        /* \"#utility.yul\":7932:7952   */\n      sub\n        /* \"#utility.yul\":7928:7929   */\n      0x00\n        /* \"#utility.yul\":7917:7926   */\n      dup4\n        /* \"#utility.yul\":7913:7930   */\n      add\n        /* \"#utility.yul\":7906:7953   */\n      mstore\n        /* \"#utility.yul\":7970:8048   */\n      tag_314\n        /* \"#utility.yul\":8043:8047   */\n      dup2\n        /* \"#utility.yul\":8034:8040   */\n      dup5\n        /* \"#utility.yul\":7970:8048   */\n      tag_196\n      jump\t// in\n    tag_314:\n        /* \"#utility.yul\":7962:8048   */\n      swap1\n      pop\n        /* \"#utility.yul\":7742:8055   */\n      swap3\n      swap2\n      pop\n      pop\n      jump\t// out\n        /* \"#utility.yul\":8061:8206   */\n    tag_197:\n        /* \"#utility.yul\":8159:8165   */\n      0x00\n        /* \"#utility.yul\":8193:8198   */\n      dup2\n        /* \"#utility.yul\":8187:8199   */\n      mload\n        /* \"#utility.yul\":8177:8199   */\n      swap1\n      pop\n        /* \"#utility.yul\":8061:8206   */\n      swap2\n      swap1\n      pop\n      jump\t// out\n        /* \"#utility.yul\":8212:8427   */\n    tag_198:\n        /* \"#utility.yul\":8342:8353   */\n      0x00\n        /* \"#utility.yul\":8376:8382   */\n      dup3\n        /* \"#utility.yul\":8371:8374   */\n      dup3\n        /* \"#utility.yul\":8364:8383   */\n      mstore\n        /* \"#utility.yul\":8416:8420   */\n      0x20\n        /* \"#utility.yul\":8411:8414   */\n      dup3\n        /* \"#utility.yul\":8407:8421   */\n      add\n        /* \"#utility.yul\":8392:8421   */\n      swap1\n      pop\n        /* \"#utility.yul\":8212:8427   */\n      swap3\n      swap2\n      pop\n      pop\n      jump\t// out\n        /* \"#utility.yul\":8433:8596   */\n    tag_199:\n        /* \"#utility.yul\":8531:8535   */\n      0x00\n        /* \"#utility.yul\":8554:8557   */\n      dup2\n        /* \"#utility.yul\":8546:8557   */\n      swap1\n      pop\n        /* \"#utility.yul\":8584:8588   */\n      0x20\n        /* \"#utility.yul\":8579:8582   */\n      dup3\n        /* \"#utility.yul\":8575:8589   */\n      add\n        /* \"#utility.yul\":8567:8589   */\n      swap1\n      pop\n        /* \"#utility.yul\":8433:8596   */\n      swap2\n      swap1\n      pop\n      jump\t// out\n        /* \"#utility.yul\":8692:10588   */\n    tag_200:\n        /* \"#utility.yul\":8813:8816   */\n      0x00\n        /* \"#utility.yul\":8849:8853   */\n      0xe0\n        /* \"#utility.yul\":8844:8847   */\n      dup4\n        /* \"#utility.yul\":8840:8854   */\n      add\n        /* \"#utility.yul\":8945:8949   */\n      0x00\n        /* \"#utility.yul\":8938:8943   */\n      dup4\n        /* \"#utility.yul\":8934:8950   */\n      add\n        /* \"#utility.yul\":8928:8951   */\n      mload\n        /* \"#utility.yul\":8998:9001   */\n      dup5\n        /* \"#utility.yul\":8992:8996   */\n      dup3\n        /* \"#utility.yul\":8988:9002   */\n      sub\n        /* \"#utility.yul\":8981:8985   */\n      0x00\n        /* \"#utility.yul\":8976:8979   */\n      dup7\n        /* \"#utility.yul\":8972:8986   */\n      add\n        /* \"#utility.yul\":8965:9003   */\n      mstore\n        /* \"#utility.yul\":9024:9097   */\n      tag_319\n        /* \"#utility.yul\":9092:9096   */\n      dup3\n        /* \"#utility.yul\":9078:9090   */\n      dup3\n        /* \"#utility.yul\":9024:9097   */\n      tag_189\n      jump\t// in\n    tag_319:\n        /* \"#utility.yul\":9016:9097   */\n      swap2\n      pop\n        /* \"#utility.yul\":8864:9108   */\n      pop\n        /* \"#utility.yul\":9202:9206   */\n      0x20\n        /* \"#utility.yul\":9195:9200   */\n      dup4\n        /* \"#utility.yul\":9191:9207   */\n      add\n        /* \"#utility.yul\":9185:9208   */\n      mload\n        /* \"#utility.yul\":9221:9284   */\n      tag_320\n        /* \"#utility.yul\":9278:9282   */\n      0x20\n        /* \"#utility.yul\":9273:9276   */\n      dup7\n        /* \"#utility.yul\":9269:9283   */\n      add\n        /* \"#utility.yul\":9255:9267   */\n      dup3\n        /* \"#utility.yul\":9221:9284   */\n      tag_192\n      jump\t// in\n    tag_320:\n        /* \"#utility.yul\":9118:9294   */\n      pop\n        /* \"#utility.yul\":9384:9388   */\n      0x40\n        /* \"#utility.yul\":9377:9382   */\n      dup4\n        /* \"#utility.yul\":9373:9389   */\n      add\n        /* \"#utility.yul\":9367:9390   */\n      mload\n        /* \"#utility.yul\":9437:9440   */\n      dup5\n        /* \"#utility.yul\":9431:9435   */\n      dup3\n        /* \"#utility.yul\":9427:9441   */\n      sub\n        /* \"#utility.yul\":9420:9424   */\n      0x40\n        /* \"#utility.yul\":9415:9418   */\n      dup7\n        /* \"#utility.yul\":9411:9425   */\n      add\n        /* \"#utility.yul\":9404:9442   */\n      mstore\n        /* \"#utility.yul\":9463:9536   */\n      tag_321\n        /* \"#utility.yul\":9531:9535   */\n      dup3\n        /* \"#utility.yul\":9517:9529   */\n      dup3\n        /* \"#utility.yul\":9463:9536   */\n      tag_189\n      jump\t// in\n    tag_321:\n        /* \"#utility.yul\":9455:9536   */\n      swap2\n      pop\n        /* \"#utility.yul\":9304:9547   */\n      pop\n        /* \"#utility.yul\":9635:9639   */\n      0x60\n        /* \"#utility.yul\":9628:9633   */\n      dup4\n        /* \"#utility.yul\":9624:9640   */\n      add\n        /* \"#utility.yul\":9618:9641   */\n      mload\n        /* \"#utility.yul\":9688:9691   */\n      dup5\n        /* \"#utility.yul\":9682:9686   */\n      dup3\n        /* \"#utility.yul\":9678:9692   */\n      sub\n        /* \"#utility.yul\":9671:9675   */\n      0x60\n        /* \"#utility.yul\":9666:9669   */\n      dup7\n        /* \"#utility.yul\":9662:9676   */\n      add\n        /* \"#utility.yul\":9655:9693   */\n      mstore\n        /* \"#utility.yul\":9714:9787   */\n      tag_322\n        /* \"#utility.yul\":9782:9786   */\n      dup3\n        /* \"#utility.yul\":9768:9780   */\n      dup3\n        /* \"#utility.yul\":9714:9787   */\n      tag_189\n      jump\t// in\n    tag_322:\n        /* \"#utility.yul\":9706:9787   */\n      swap2\n      pop\n        /* \"#utility.yul\":9557:9798   */\n      pop\n        /* \"#utility.yul\":9889:9893   */\n      0x80\n        /* \"#utility.yul\":9882:9887   */\n      dup4\n        /* \"#utility.yul\":9878:9894   */\n      add\n        /* \"#utility.yul\":9872:9895   */\n      mload\n        /* \"#utility.yul\":9942:9945   */\n      dup5\n        /* \"#utility.yul\":9936:9940   */\n      dup3\n        /* \"#utility.yul\":9932:9946   */\n      sub\n        /* \"#utility.yul\":9925:9929   */\n      0x80\n        /* \"#utility.yul\":9920:9923   */\n      dup7\n        /* \"#utility.yul\":9916:9930   */\n      add\n        /* \"#utility.yul\":9909:9947   */\n      mstore\n        /* \"#utility.yul\":9968:10041   */\n      tag_323\n        /* \"#utility.yul\":10036:10040   */\n      dup3\n        /* \"#utility.yul\":10022:10034   */\n      dup3\n        /* \"#utility.yul\":9968:10041   */\n      tag_189\n      jump\t// in\n    tag_323:\n        /* \"#utility.yul\":9960:10041   */\n      swap2\n      pop\n        /* \"#utility.yul\":9808:10052   */\n      pop\n        /* \"#utility.yul\":10145:10149   */\n      0xa0\n        /* \"#utility.yul\":10138:10143   */\n      dup4\n        /* \"#utility.yul\":10134:10150   */\n      add\n        /* \"#utility.yul\":10128:10151   */\n      mload\n        /* \"#utility.yul\":10198:10201   */\n      dup5\n        /* \"#utility.yul\":10192:10196   */\n      dup3\n        /* \"#utility.yul\":10188:10202   */\n      sub\n        /* \"#utility.yul\":10181:10185   */\n      0xa0\n        /* \"#utility.yul\":10176:10179   */\n      dup7\n        /* \"#utility.yul\":10172:10186   */\n      add\n        /* \"#utility.yul\":10165:10203   */\n      mstore\n        /* \"#utility.yul\":10224:10297   */\n      tag_324\n        /* \"#utility.yul\":10292:10296   */\n      dup3\n        /* \"#utility.yul\":10278:10290   */\n      dup3\n        /* \"#utility.yul\":10224:10297   */\n      tag_189\n      jump\t// in\n    tag_324:\n        /* \"#utility.yul\":10216:10297   */\n      swap2\n      pop\n        /* \"#utility.yul\":10062:10308   */\n      pop\n        /* \"#utility.yul\":10398:10402   */\n      0xc0\n        /* \"#utility.yul\":10391:10396   */\n      dup4\n        /* \"#utility.yul\":10387:10403   */\n      add\n        /* \"#utility.yul\":10381:10404   */\n      mload\n        /* \"#utility.yul\":10451:10454   */\n      dup5\n        /* \"#utility.yul\":10445:10449   */\n      dup3\n        /* \"#utility.yul\":10441:10455   */\n      sub\n        /* \"#utility.yul\":10434:10438   */\n      0xc0\n        /* \"#utility.yul\":10429:10432   */\n      dup7\n        /* \"#utility.yul\":10425:10439   */\n      add\n        /* \"#utility.yul\":10418:10456   */\n      mstore\n        /* \"#utility.yul\":10477:10550   */\n      tag_325\n        /* \"#utility.yul\":10545:10549   */\n      dup3\n        /* \"#utility.yul\":10531:10543   */\n      dup3\n        /* \"#utility.yul\":10477:10550   */\n      tag_189\n      jump\t// in\n    tag_325:\n        /* \"#utility.yul\":10469:10550   */\n      swap2\n      pop\n        /* \"#utility.yul\":10318:10561   */\n      pop\n        /* \"#utility.yul\":10578:10582   */\n      dup1\n        /* \"#utility.yul\":10571:10582   */\n      swap2\n      pop\n        /* \"#utility.yul\":8818:10588   */\n      pop\n        /* \"#utility.yul\":8692:10588   */\n      swap3\n      swap2\n      pop\n      pop\n      jump\t// out\n        /* \"#utility.yul\":10594:10874   */\n    tag_201:\n        /* \"#utility.yul\":10725:10735   */\n      0x00\n        /* \"#utility.yul\":10760:10868   */\n      tag_327\n        /* \"#utility.yul\":10864:10867   */\n      dup4\n        /* \"#utility.yul\":10856:10862   */\n      dup4\n        /* \"#utility.yul\":10760:10868   */\n      tag_200\n      jump\t// in\n    tag_327:\n        /* \"#utility.yul\":10746:10868   */\n      swap1\n      pop\n        /* \"#utility.yul\":10594:10874   */\n      swap3\n      swap2\n      pop\n      pop\n      jump\t// out\n        /* \"#utility.yul\":10880:11024   */\n    tag_202:\n        /* \"#utility.yul\":10981:10985   */\n      0x00\n        /* \"#utility.yul\":11013:11017   */\n      0x20\n        /* \"#utility.yul\":11008:11011   */\n      dup3\n        /* \"#utility.yul\":11004:11018   */\n      add\n        /* \"#utility.yul\":10996:11018   */\n      swap1\n      pop\n        /* \"#utility.yul\":10880:11024   */\n      swap2\n      swap1\n      pop\n      jump\t// out\n        /* \"#utility.yul\":11124:12283   */\n    tag_203:\n        /* \"#utility.yul\":11305:11308   */\n      0x00\n        /* \"#utility.yul\":11334:11419   */\n      tag_330\n        /* \"#utility.yul\":11413:11418   */\n      dup3\n        /* \"#utility.yul\":11334:11419   */\n      tag_197\n      jump\t// in\n    tag_330:\n        /* \"#utility.yul\":11435:11552   */\n      tag_331\n        /* \"#utility.yul\":11545:11551   */\n      dup2\n        /* \"#utility.yul\":11540:11543   */\n      dup6\n        /* \"#utility.yul\":11435:11552   */\n      tag_198\n      jump\t// in\n    tag_331:\n        /* \"#utility.yul\":11428:11552   */\n      swap4\n      pop\n        /* \"#utility.yul\":11578:11581   */\n      dup4\n        /* \"#utility.yul\":11623:11627   */\n      0x20\n        /* \"#utility.yul\":11615:11621   */\n      dup3\n        /* \"#utility.yul\":11611:11628   */\n      mul\n        /* \"#utility.yul\":11606:11609   */\n      dup6\n        /* \"#utility.yul\":11602:11629   */\n      add\n        /* \"#utility.yul\":11653:11740   */\n      tag_332\n        /* \"#utility.yul\":11734:11739   */\n      dup6\n        /* \"#utility.yul\":11653:11740   */\n      tag_199\n      jump\t// in\n    tag_332:\n        /* \"#utility.yul\":11763:11770   */\n      dup1\n        /* \"#utility.yul\":11794:11795   */\n      0x00\n        /* \"#utility.yul\":11779:12238   */\n    tag_333:\n        /* \"#utility.yul\":11804:11810   */\n      dup6\n        /* \"#utility.yul\":11801:11802   */\n      dup2\n        /* \"#utility.yul\":11798:11811   */\n      lt\n        /* \"#utility.yul\":11779:12238   */\n      iszero\n      tag_335\n      jumpi\n        /* \"#utility.yul\":11875:11884   */\n      dup5\n        /* \"#utility.yul\":11869:11873   */\n      dup5\n        /* \"#utility.yul\":11865:11885   */\n      sub\n        /* \"#utility.yul\":11860:11863   */\n      dup10\n        /* \"#utility.yul\":11853:11886   */\n      mstore\n        /* \"#utility.yul\":11926:11932   */\n      dup2\n        /* \"#utility.yul\":11920:11933   */\n      mload\n        /* \"#utility.yul\":11954:12080   */\n      tag_336\n        /* \"#utility.yul\":12075:12079   */\n      dup6\n        /* \"#utility.yul\":12060:12073   */\n      dup3\n        /* \"#utility.yul\":11954:12080   */\n      tag_201\n      jump\t// in\n    tag_336:\n        /* \"#utility.yul\":11946:12080   */\n      swap5\n      pop\n        /* \"#utility.yul\":12103:12194   */\n      tag_337\n        /* \"#utility.yul\":12187:12193   */\n      dup4\n        /* \"#utility.yul\":12103:12194   */\n      tag_202\n      jump\t// in\n    tag_337:\n        /* \"#utility.yul\":12093:12194   */\n      swap3\n      pop\n        /* \"#utility.yul\":12223:12227   */\n      0x20\n        /* \"#utility.yul\":12218:12221   */\n      dup11\n        /* \"#utility.yul\":12214:12228   */\n      add\n        /* \"#utility.yul\":12207:12228   */\n      swap10\n      pop\n        /* \"#utility.yul\":11839:12238   */\n      pop\n        /* \"#utility.yul\":11826:11827   */\n      0x01\n        /* \"#utility.yul\":11823:11824   */\n      dup2\n        /* \"#utility.yul\":11819:11828   */\n      add\n        /* \"#utility.yul\":11814:11828   */\n      swap1\n      pop\n        /* \"#utility.yul\":11779:12238   */\n      jump(tag_333)\n    tag_335:\n        /* \"#utility.yul\":11783:11797   */\n      pop\n        /* \"#utility.yul\":12254:12258   */\n      dup3\n        /* \"#utility.yul\":12247:12258   */\n      swap8\n      pop\n        /* \"#utility.yul\":12274:12277   */\n      dup8\n        /* \"#utility.yul\":12267:12277   */\n      swap6\n      pop\n        /* \"#utility.yul\":11310:12283   */\n      pop\n      pop\n      pop\n      pop\n      pop\n        /* \"#utility.yul\":11124:12283   */\n      swap3\n      swap2\n      pop\n      pop\n      jump\t// out\n        /* \"#utility.yul\":12289:12786   */\n    tag_33:\n        /* \"#utility.yul\":12494:12498   */\n      0x00\n        /* \"#utility.yul\":12532:12534   */\n      0x20\n        /* \"#utility.yul\":12521:12530   */\n      dup3\n        /* \"#utility.yul\":12517:12535   */\n      add\n        /* \"#utility.yul\":12509:12535   */\n      swap1\n      pop\n        /* \"#utility.yul\":12581:12590   */\n      dup2\n        /* \"#utility.yul\":12575:12579   */\n      dup2\n        /* \"#utility.yul\":12571:12591   */\n      sub\n        /* \"#utility.yul\":12567:12568   */\n      0x00\n        /* \"#utility.yul\":12556:12565   */\n      dup4\n        /* \"#utility.yul\":12552:12569   */\n      add\n        /* \"#utility.yul\":12545:12592   */\n      mstore\n        /* \"#utility.yul\":12609:12779   */\n      tag_339\n        /* \"#utility.yul\":12774:12778   */\n      dup2\n        /* \"#utility.yul\":12765:12771   */\n      dup5\n        /* \"#utility.yul\":12609:12779   */\n      tag_203\n      jump\t// in\n    tag_339:\n        /* \"#utility.yul\":12601:12779   */\n      swap1\n      pop\n        /* \"#utility.yul\":12289:12786   */\n      swap3\n      swap2\n      pop\n      pop\n      jump\t// out\n        /* \"#utility.yul\":12792:12869   */\n    tag_204:\n        /* \"#utility.yul\":12829:12836   */\n      0x00\n        /* \"#utility.yul\":12858:12863   */\n      dup2\n        /* \"#utility.yul\":12847:12863   */\n      swap1\n      pop\n        /* \"#utility.yul\":12792:12869   */\n      swap2\n      swap1\n      pop\n      jump\t// out\n        /* \"#utility.yul\":12875:12993   */\n    tag_205:\n        /* \"#utility.yul\":12962:12986   */\n      tag_342\n        /* \"#utility.yul\":12980:12985   */\n      dup2\n        /* \"#utility.yul\":12962:12986   */\n      tag_204\n      jump\t// in\n    tag_342:\n        /* \"#utility.yul\":12957:12960   */\n      dup3\n        /* \"#utility.yul\":12950:12987   */\n      mstore\n        /* \"#utility.yul\":12875:12993   */\n      pop\n      pop\n      jump\t// out\n        /* \"#utility.yul\":12999:13221   */\n    tag_38:\n        /* \"#utility.yul\":13092:13096   */\n      0x00\n        /* \"#utility.yul\":13130:13132   */\n      0x20\n        /* \"#utility.yul\":13119:13128   */\n      dup3\n        /* \"#utility.yul\":13115:13133   */\n      add\n        /* \"#utility.yul\":13107:13133   */\n      swap1\n      pop\n        /* \"#utility.yul\":13143:13214   */\n      tag_344\n        /* \"#utility.yul\":13211:13212   */\n      0x00\n        /* \"#utility.yul\":13200:13209   */\n      dup4\n        /* \"#utility.yul\":13196:13213   */\n      add\n        /* \"#utility.yul\":13187:13193   */\n      dup5\n        /* \"#utility.yul\":13143:13214   */\n      tag_205\n      jump\t// in\n    tag_344:\n        /* \"#utility.yul\":12999:13221   */\n      swap3\n      swap2\n      pop\n      pop\n      jump\t// out\n        /* \"#utility.yul\":13227:13457   */\n    tag_206:\n        /* \"#utility.yul\":13367:13401   */\n      0x496e636f7272656374207072656d69756d3a206d757374206265206578616374\n        /* \"#utility.yul\":13363:13364   */\n      0x00\n        /* \"#utility.yul\":13355:13361   */\n      dup3\n        /* \"#utility.yul\":13351:13365   */\n      add\n        /* \"#utility.yul\":13344:13402   */\n      mstore\n        /* \"#utility.yul\":13436:13449   */\n      0x6c7920302e303120455448000000000000000000000000000000000000000000\n        /* \"#utility.yul\":13431:13433   */\n      0x20\n        /* \"#utility.yul\":13423:13429   */\n      dup3\n        /* \"#utility.yul\":13419:13434   */\n      add\n        /* \"#utility.yul\":13412:13450   */\n      mstore\n        /* \"#utility.yul\":13227:13457   */\n      pop\n      jump\t// out\n        /* \"#utility.yul\":13463:13829   */\n    tag_207:\n        /* \"#utility.yul\":13605:13608   */\n      0x00\n        /* \"#utility.yul\":13626:13693   */\n      tag_347\n        /* \"#utility.yul\":13690:13692   */\n      0x2b\n        /* \"#utility.yul\":13685:13688   */\n      dup4\n        /* \"#utility.yul\":13626:13693   */\n      tag_195\n      jump\t// in\n    tag_347:\n        /* \"#utility.yul\":13619:13693   */\n      swap2\n      pop\n        /* \"#utility.yul\":13702:13795   */\n      tag_348\n        /* \"#utility.yul\":13791:13794   */\n      dup3\n        /* \"#utility.yul\":13702:13795   */\n      tag_206\n      jump\t// in\n    tag_348:\n        /* \"#utility.yul\":13820:13822   */\n      0x40\n        /* \"#utility.yul\":13815:13818   */\n      dup3\n        /* \"#utility.yul\":13811:13823   */\n      add\n        /* \"#utility.yul\":13804:13823   */\n      swap1\n      pop\n        /* \"#utility.yul\":13463:13829   */\n      swap2\n      swap1\n      pop\n      jump\t// out\n        /* \"#utility.yul\":13835:14254   */\n    tag_49:\n        /* \"#utility.yul\":14001:14005   */\n      0x00\n        /* \"#utility.yul\":14039:14041   */\n      0x20\n        /* \"#utility.yul\":14028:14037   */\n      dup3\n        /* \"#utility.yul\":14024:14042   */\n      add\n        /* \"#utility.yul\":14016:14042   */\n      swap1\n      pop\n        /* \"#utility.yul\":14088:14097   */\n      dup2\n        /* \"#utility.yul\":14082:14086   */\n      dup2\n        /* \"#utility.yul\":14078:14098   */\n      sub\n        /* \"#utility.yul\":14074:14075   */\n      0x00\n        /* \"#utility.yul\":14063:14072   */\n      dup4\n        /* \"#utility.yul\":14059:14076   */\n      add\n        /* \"#utility.yul\":14052:14099   */\n      mstore\n        /* \"#utility.yul\":14116:14247   */\n      tag_350\n        /* \"#utility.yul\":14242:14246   */\n      dup2\n        /* \"#utility.yul\":14116:14247   */\n      tag_207\n      jump\t// in\n    tag_350:\n        /* \"#utility.yul\":14108:14247   */\n      swap1\n      pop\n        /* \"#utility.yul\":13835:14254   */\n      swap2\n      swap1\n      pop\n      jump\t// out\n        /* \"#utility.yul\":14260:14485   */\n    tag_208:\n        /* \"#utility.yul\":14400:14434   */\n      0x506f6c69637920616c72656164792065786973747320666f7220746869732061\n        /* \"#utility.yul\":14396:14397   */\n      0x00\n        /* \"#utility.yul\":14388:14394   */\n      dup3\n        /* \"#utility.yul\":14384:14398   */\n      add\n        /* \"#utility.yul\":14377:14435   */\n      mstore\n        /* \"#utility.yul\":14469:14477   */\n      0x6464726573730000000000000000000000000000000000000000000000000000\n        /* \"#utility.yul\":14464:14466   */\n      0x20\n        /* \"#utility.yul\":14456:14462   */\n      dup3\n        /* \"#utility.yul\":14452:14467   */\n      add\n        /* \"#utility.yul\":14445:14478   */\n      mstore\n        /* \"#utility.yul\":14260:14485   */\n      pop\n      jump\t// out\n        /* \"#utility.yul\":14491:14857   */\n    tag_209:\n        /* \"#utility.yul\":14633:14636   */\n      0x00\n        /* \"#utility.yul\":14654:14721   */\n      tag_353\n        /* \"#utility.yul\":14718:14720   */\n      0x26\n        /* \"#utility.yul\":14713:14716   */\n      dup4\n        /* \"#utility.yul\":14654:14721   */\n      tag_195\n      jump\t// in\n    tag_353:\n        /* \"#utility.yul\":14647:14721   */\n      swap2\n      pop\n        /* \"#utility.yul\":14730:14823   */\n      tag_354\n        /* \"#utility.yul\":14819:14822   */\n      dup3\n        /* \"#utility.yul\":14730:14823   */\n      tag_208\n      jump\t// in\n    tag_354:\n        /* \"#utility.yul\":14848:14850   */\n      0x40\n        /* \"#utility.yul\":14843:14846   */\n      dup3\n        /* \"#utility.yul\":14839:14851   */\n      add\n        /* \"#utility.yul\":14832:14851   */\n      swap1\n      pop\n        /* \"#utility.yul\":14491:14857   */\n      swap2\n      swap1\n      pop\n      jump\t// out\n        /* \"#utility.yul\":14863:15282   */\n    tag_52:\n        /* \"#utility.yul\":15029:15033   */\n      0x00\n        /* \"#utility.yul\":15067:15069   */\n      0x20\n        /* \"#utility.yul\":15056:15065   */\n      dup3\n        /* \"#utility.yul\":15052:15070   */\n      add\n        /* \"#utility.yul\":15044:15070   */\n      swap1\n      pop\n        /* \"#utility.yul\":15116:15125   */\n      dup2\n        /* \"#utility.yul\":15110:15114   */\n      dup2\n        /* \"#utility.yul\":15106:15126   */\n      sub\n        /* \"#utility.yul\":15102:15103   */\n      0x00\n        /* \"#utility.yul\":15091:15100   */\n      dup4\n        /* \"#utility.yul\":15087:15104   */\n      add\n        /* \"#utility.yul\":15080:15127   */\n      mstore\n        /* \"#utility.yul\":15144:15275   */\n      tag_356\n        /* \"#utility.yul\":15270:15274   */\n      dup2\n        /* \"#utility.yul\":15144:15275   */\n      tag_209\n      jump\t// in\n    tag_356:\n        /* \"#utility.yul\":15136:15275   */\n      swap1\n      pop\n        /* \"#utility.yul\":14863:15282   */\n      swap2\n      swap1\n      pop\n      jump\t// out\n        /* \"#utility.yul\":15288:15464   */\n    tag_210:\n        /* \"#utility.yul\":15428:15456   */\n      0x50617373656e676572206e616d65206973207265717569726564000000000000\n        /* \"#utility.yul\":15424:15425   */\n      0x00\n        /* \"#utility.yul\":15416:15422   */\n      dup3\n        /* \"#utility.yul\":15412:15426   */\n      add\n        /* \"#utility.yul\":15405:15457   */\n      mstore\n        /* \"#utility.yul\":15288:15464   */\n      pop\n      jump\t// out\n        /* \"#utility.yul\":15470:15836   */\n    tag_211:\n        /* \"#utility.yul\":15612:15615   */\n      0x00\n        /* \"#utility.yul\":15633:15700   */\n      tag_359\n        /* \"#utility.yul\":15697:15699   */\n      0x1a\n        /* \"#utility.yul\":15692:15695   */\n      dup4\n        /* \"#utility.yul\":15633:15700   */\n      tag_195\n      jump\t// in\n    tag_359:\n        /* \"#utility.yul\":15626:15700   */\n      swap2\n      pop\n        /* \"#utility.yul\":15709:15802   */\n      tag_360\n        /* \"#utility.yul\":15798:15801   */\n      dup3\n        /* \"#utility.yul\":15709:15802   */\n      tag_210\n      jump\t// in\n    tag_360:\n        /* \"#utility.yul\":15827:15829   */\n      0x20\n        /* \"#utility.yul\":15822:15825   */\n      dup3\n        /* \"#utility.yul\":15818:15830   */\n      add\n        /* \"#utility.yul\":15811:15830   */\n      swap1\n      pop\n        /* \"#utility.yul\":15470:15836   */\n      swap2\n      swap1\n      pop\n      jump\t// out\n        /* \"#utility.yul\":15842:16261   */\n    tag_55:\n        /* \"#utility.yul\":16008:16012   */\n      0x00\n        /* \"#utility.yul\":16046:16048   */\n      0x20\n        /* \"#utility.yul\":16035:16044   */\n      dup3\n        /* \"#utility.yul\":16031:16049   */\n      add\n        /* \"#utility.yul\":16023:16049   */\n      swap1\n      pop\n        /* \"#utility.yul\":16095:16104   */\n      dup2\n        /* \"#utility.yul\":16089:16093   */\n      dup2\n        /* \"#utility.yul\":16085:16105   */\n      sub\n        /* \"#utility.yul\":16081:16082   */\n      0x00\n        /* \"#utility.yul\":16070:16079   */\n      dup4\n        /* \"#utility.yul\":16066:16083   */\n      add\n        /* \"#utility.yul\":16059:16106   */\n      mstore\n        /* \"#utility.yul\":16123:16254   */\n      tag_362\n        /* \"#utility.yul\":16249:16253   */\n      dup2\n        /* \"#utility.yul\":16123:16254   */\n      tag_211\n      jump\t// in\n    tag_362:\n        /* \"#utility.yul\":16115:16254   */\n      swap1\n      pop\n        /* \"#utility.yul\":15842:16261   */\n      swap2\n      swap1\n      pop\n      jump\t// out\n        /* \"#utility.yul\":16267:16442   */\n    tag_212:\n        /* \"#utility.yul\":16407:16434   */\n      0x466c69676874206e756d62657220697320726571756972656400000000000000\n        /* \"#utility.yul\":16403:16404   */\n      0x00\n        /* \"#utility.yul\":16395:16401   */\n      dup3\n        /* \"#utility.yul\":16391:16405   */\n      add\n        /* \"#utility.yul\":16384:16435   */\n      mstore\n        /* \"#utility.yul\":16267:16442   */\n      pop\n      jump\t// out\n        /* \"#utility.yul\":16448:16814   */\n    tag_213:\n        /* \"#utility.yul\":16590:16593   */\n      0x00\n        /* \"#utility.yul\":16611:16678   */\n      tag_365\n        /* \"#utility.yul\":16675:16677   */\n      0x19\n        /* \"#utility.yul\":16670:16673   */\n      dup4\n        /* \"#utility.yul\":16611:16678   */\n      tag_195\n      jump\t// in\n    tag_365:\n        /* \"#utility.yul\":16604:16678   */\n      swap2\n      pop\n        /* \"#utility.yul\":16687:16780   */\n      tag_366\n        /* \"#utility.yul\":16776:16779   */\n      dup3\n        /* \"#utility.yul\":16687:16780   */\n      tag_212\n      jump\t// in\n    tag_366:\n        /* \"#utility.yul\":16805:16807   */\n      0x20\n        /* \"#utility.yul\":16800:16803   */\n      dup3\n        /* \"#utility.yul\":16796:16808   */\n      add\n        /* \"#utility.yul\":16789:16808   */\n      swap1\n      pop\n        /* \"#utility.yul\":16448:16814   */\n      swap2\n      swap1\n      pop\n      jump\t// out\n        /* \"#utility.yul\":16820:17239   */\n    tag_58:\n        /* \"#utility.yul\":16986:16990   */\n      0x00\n        /* \"#utility.yul\":17024:17026   */\n      0x20\n        /* \"#utility.yul\":17013:17022   */\n      dup3\n        /* \"#utility.yul\":17009:17027   */\n      add\n        /* \"#utility.yul\":17001:17027   */\n      swap1\n      pop\n        /* \"#utility.yul\":17073:17082   */\n      dup2\n        /* \"#utility.yul\":17067:17071   */\n      dup2\n        /* \"#utility.yul\":17063:17083   */\n      sub\n        /* \"#utility.yul\":17059:17060   */\n      0x00\n        /* \"#utility.yul\":17048:17057   */\n      dup4\n        /* \"#utility.yul\":17044:17061   */\n      add\n        /* \"#utility.yul\":17037:17084   */\n      mstore\n        /* \"#utility.yul\":17101:17232   */\n      tag_368\n        /* \"#utility.yul\":17227:17231   */\n      dup2\n        /* \"#utility.yul\":17101:17232   */\n      tag_213\n      jump\t// in\n    tag_368:\n        /* \"#utility.yul\":17093:17232   */\n      swap1\n      pop\n        /* \"#utility.yul\":16820:17239   */\n      swap2\n      swap1\n      pop\n      jump\t// out\n        /* \"#utility.yul\":17245:17418   */\n    tag_214:\n        /* \"#utility.yul\":17385:17410   */\n      0x466c696768742064617465206973207265717569726564000000000000000000\n        /* \"#utility.yul\":17381:17382   */\n      0x00\n        /* \"#utility.yul\":17373:17379   */\n      dup3\n        /* \"#utility.yul\":17369:17383   */\n      add\n        /* \"#utility.yul\":17362:17411   */\n      mstore\n        /* \"#utility.yul\":17245:17418   */\n      pop\n      jump\t// out\n        /* \"#utility.yul\":17424:17790   */\n    tag_215:\n        /* \"#utility.yul\":17566:17569   */\n      0x00\n        /* \"#utility.yul\":17587:17654   */\n      tag_371\n        /* \"#utility.yul\":17651:17653   */\n      0x17\n        /* \"#utility.yul\":17646:17649   */\n      dup4\n        /* \"#utility.yul\":17587:17654   */\n      tag_195\n      jump\t// in\n    tag_371:\n        /* \"#utility.yul\":17580:17654   */\n      swap2\n      pop\n        /* \"#utility.yul\":17663:17756   */\n      tag_372\n        /* \"#utility.yul\":17752:17755   */\n      dup3\n        /* \"#utility.yul\":17663:17756   */\n      tag_214\n      jump\t// in\n    tag_372:\n        /* \"#utility.yul\":17781:17783   */\n      0x20\n        /* \"#utility.yul\":17776:17779   */\n      dup3\n        /* \"#utility.yul\":17772:17784   */\n      add\n        /* \"#utility.yul\":17765:17784   */\n      swap1\n      pop\n        /* \"#utility.yul\":17424:17790   */\n      swap2\n      swap1\n      pop\n      jump\t// out\n        /* \"#utility.yul\":17796:18215   */\n    tag_61:\n        /* \"#utility.yul\":17962:17966   */\n      0x00\n        /* \"#utility.yul\":18000:18002   */\n      0x20\n        /* \"#utility.yul\":17989:17998   */\n      dup3\n        /* \"#utility.yul\":17985:18003   */\n      add\n        /* \"#utility.yul\":17977:18003   */\n      swap1\n      pop\n        /* \"#utility.yul\":18049:18058   */\n      dup2\n        /* \"#utility.yul\":18043:18047   */\n      dup2\n        /* \"#utility.yul\":18039:18059   */\n      sub\n        /* \"#utility.yul\":18035:18036   */\n      0x00\n        /* \"#utility.yul\":18024:18033   */\n      dup4\n        /* \"#utility.yul\":18020:18037   */\n      add\n        /* \"#utility.yul\":18013:18060   */\n      mstore\n        /* \"#utility.yul\":18077:18208   */\n      tag_374\n        /* \"#utility.yul\":18203:18207   */\n      dup2\n        /* \"#utility.yul\":18077:18208   */\n      tag_215\n      jump\t// in\n    tag_374:\n        /* \"#utility.yul\":18069:18208   */\n      swap1\n      pop\n        /* \"#utility.yul\":17796:18215   */\n      swap2\n      swap1\n      pop\n      jump\t// out\n        /* \"#utility.yul\":18221:18397   */\n    tag_216:\n        /* \"#utility.yul\":18361:18389   */\n      0x4465706172747572652063697479206973207265717569726564000000000000\n        /* \"#utility.yul\":18357:18358   */\n      0x00\n        /* \"#utility.yul\":18349:18355   */\n      dup3\n        /* \"#utility.yul\":18345:18359   */\n      add\n        /* \"#utility.yul\":18338:18390   */\n      mstore\n        /* \"#utility.yul\":18221:18397   */\n      pop\n      jump\t// out\n        /* \"#utility.yul\":18403:18769   */\n    tag_217:\n        /* \"#utility.yul\":18545:18548   */\n      0x00\n        /* \"#utility.yul\":18566:18633   */\n      tag_377\n        /* \"#utility.yul\":18630:18632   */\n      0x1a\n        /* \"#utility.yul\":18625:18628   */\n      dup4\n        /* \"#utility.yul\":18566:18633   */\n      tag_195\n      jump\t// in\n    tag_377:\n        /* \"#utility.yul\":18559:18633   */\n      swap2\n      pop\n        /* \"#utility.yul\":18642:18735   */\n      tag_378\n        /* \"#utility.yul\":18731:18734   */\n      dup3\n        /* \"#utility.yul\":18642:18735   */\n      tag_216\n      jump\t// in\n    tag_378:\n        /* \"#utility.yul\":18760:18762   */\n      0x20\n        /* \"#utility.yul\":18755:18758   */\n      dup3\n        /* \"#utility.yul\":18751:18763   */\n      add\n        /* \"#utility.yul\":18744:18763   */\n      swap1\n      pop\n        /* \"#utility.yul\":18403:18769   */\n      swap2\n      swap1\n      pop\n      jump\t// out\n        /* \"#utility.yul\":18775:19194   */\n    tag_64:\n        /* \"#utility.yul\":18941:18945   */\n      0x00\n        /* \"#utility.yul\":18979:18981   */\n      0x20\n        /* \"#utility.yul\":18968:18977   */\n      dup3\n        /* \"#utility.yul\":18964:18982   */\n      add\n        /* \"#utility.yul\":18956:18982   */\n      swap1\n      pop\n        /* \"#utility.yul\":19028:19037   */\n      dup2\n        /* \"#utility.yul\":19022:19026   */\n      dup2\n        /* \"#utility.yul\":19018:19038   */\n      sub\n        /* \"#utility.yul\":19014:19015   */\n      0x00\n        /* \"#utility.yul\":19003:19012   */\n      dup4\n        /* \"#utility.yul\":18999:19016   */\n      add\n        /* \"#utility.yul\":18992:19039   */\n      mstore\n        /* \"#utility.yul\":19056:19187   */\n      tag_380\n        /* \"#utility.yul\":19182:19186   */\n      dup2\n        /* \"#utility.yul\":19056:19187   */\n      tag_217\n      jump\t// in\n    tag_380:\n        /* \"#utility.yul\":19048:19187   */\n      swap1\n      pop\n        /* \"#utility.yul\":18775:19194   */\n      swap2\n      swap1\n      pop\n      jump\t// out\n        /* \"#utility.yul\":19200:19378   */\n    tag_218:\n        /* \"#utility.yul\":19340:19370   */\n      0x44657374696e6174696f6e206369747920697320726571756972656400000000\n        /* \"#utility.yul\":19336:19337   */\n      0x00\n        /* \"#utility.yul\":19328:19334   */\n      dup3\n        /* \"#utility.yul\":19324:19338   */\n      add\n        /* \"#utility.yul\":19317:19371   */\n      mstore\n        /* \"#utility.yul\":19200:19378   */\n      pop\n      jump\t// out\n        /* \"#utility.yul\":19384:19750   */\n    tag_219:\n        /* \"#utility.yul\":19526:19529   */\n      0x00\n        /* \"#utility.yul\":19547:19614   */\n      tag_383\n        /* \"#utility.yul\":19611:19613   */\n      0x1c\n        /* \"#utility.yul\":19606:19609   */\n      dup4\n        /* \"#utility.yul\":19547:19614   */\n      tag_195\n      jump\t// in\n    tag_383:\n        /* \"#utility.yul\":19540:19614   */\n      swap2\n      pop\n        /* \"#utility.yul\":19623:19716   */\n      tag_384\n        /* \"#utility.yul\":19712:19715   */\n      dup3\n        /* \"#utility.yul\":19623:19716   */\n      tag_218\n      jump\t// in\n    tag_384:\n        /* \"#utility.yul\":19741:19743   */\n      0x20\n        /* \"#utility.yul\":19736:19739   */\n      dup3\n        /* \"#utility.yul\":19732:19744   */\n      add\n        /* \"#utility.yul\":19725:19744   */\n      swap1\n      pop\n        /* \"#utility.yul\":19384:19750   */\n      swap2\n      swap1\n      pop\n      jump\t// out\n        /* \"#utility.yul\":19756:20175   */\n    tag_67:\n        /* \"#utility.yul\":19922:19926   */\n      0x00\n        /* \"#utility.yul\":19960:19962   */\n      0x20\n        /* \"#utility.yul\":19949:19958   */\n      dup3\n        /* \"#utility.yul\":19945:19963   */\n      add\n        /* \"#utility.yul\":19937:19963   */\n      swap1\n      pop\n        /* \"#utility.yul\":20009:20018   */\n      dup2\n        /* \"#utility.yul\":20003:20007   */\n      dup2\n        /* \"#utility.yul\":19999:20019   */\n      sub\n        /* \"#utility.yul\":19995:19996   */\n      0x00\n        /* \"#utility.yul\":19984:19993   */\n      dup4\n        /* \"#utility.yul\":19980:19997   */\n      add\n        /* \"#utility.yul\":19973:20020   */\n      mstore\n        /* \"#utility.yul\":20037:20168   */\n      tag_386\n        /* \"#utility.yul\":20163:20167   */\n      dup2\n        /* \"#utility.yul\":20037:20168   */\n      tag_219\n      jump\t// in\n    tag_386:\n        /* \"#utility.yul\":20029:20168   */\n      swap1\n      pop\n        /* \"#utility.yul\":19756:20175   */\n      swap2\n      swap1\n      pop\n      jump\t// out\n        /* \"#utility.yul\":20181:20328   */\n    tag_220:\n        /* \"#utility.yul\":20282:20293   */\n      0x00\n        /* \"#utility.yul\":20319:20322   */\n      dup2\n        /* \"#utility.yul\":20304:20322   */\n      swap1\n      pop\n        /* \"#utility.yul\":20181:20328   */\n      swap3\n      swap2\n      pop\n      pop\n      jump\t// out\n        /* \"#utility.yul\":20334:20482   */\n    tag_221:\n        /* \"#utility.yul\":20432:20438   */\n      dup3\n        /* \"#utility.yul\":20427:20430   */\n      dup2\n        /* \"#utility.yul\":20422:20425   */\n      dup4\n        /* \"#utility.yul\":20409:20439   */\n      calldatacopy\n        /* \"#utility.yul\":20473:20474   */\n      0x00\n        /* \"#utility.yul\":20464:20470   */\n      dup4\n        /* \"#utility.yul\":20459:20462   */\n      dup4\n        /* \"#utility.yul\":20455:20471   */\n      add\n        /* \"#utility.yul\":20448:20475   */\n      mstore\n        /* \"#utility.yul\":20334:20482   */\n      pop\n      pop\n      pop\n      jump\t// out\n        /* \"#utility.yul\":20510:20837   */\n    tag_222:\n        /* \"#utility.yul\":20624:20627   */\n      0x00\n        /* \"#utility.yul\":20645:20733   */\n      tag_390\n        /* \"#utility.yul\":20726:20732   */\n      dup4\n        /* \"#utility.yul\":20721:20724   */\n      dup6\n        /* \"#utility.yul\":20645:20733   */\n      tag_220\n      jump\t// in\n    tag_390:\n        /* \"#utility.yul\":20638:20733   */\n      swap4\n      pop\n        /* \"#utility.yul\":20743:20799   */\n      tag_391\n        /* \"#utility.yul\":20792:20798   */\n      dup4\n        /* \"#utility.yul\":20787:20790   */\n      dup6\n        /* \"#utility.yul\":20780:20785   */\n      dup5\n        /* \"#utility.yul\":20743:20799   */\n      tag_221\n      jump\t// in\n    tag_391:\n        /* \"#utility.yul\":20824:20830   */\n      dup3\n        /* \"#utility.yul\":20819:20822   */\n      dup5\n        /* \"#utility.yul\":20815:20831   */\n      add\n        /* \"#utility.yul\":20808:20831   */\n      swap1\n      pop\n        /* \"#utility.yul\":20510:20837   */\n      swap4\n      swap3\n      pop\n      pop\n      pop\n      jump\t// out\n        /* \"#utility.yul\":20843:21134   */\n    tag_69:\n        /* \"#utility.yul\":20983:20986   */\n      0x00\n        /* \"#utility.yul\":21005:21108   */\n      tag_393\n        /* \"#utility.yul\":21104:21107   */\n      dup3\n        /* \"#utility.yul\":21095:21101   */\n      dup5\n        /* \"#utility.yul\":21087:21093   */\n      dup7\n        /* \"#utility.yul\":21005:21108   */\n      tag_222\n      jump\t// in\n    tag_393:\n        /* \"#utility.yul\":20998:21108   */\n      swap2\n      pop\n        /* \"#utility.yul\":21125:21128   */\n      dup2\n        /* \"#utility.yul\":21118:21128   */\n      swap1\n      pop\n        /* \"#utility.yul\":20843:21134   */\n      swap4\n      swap3\n      pop\n      pop\n      pop\n      jump\t// out\n        /* \"#utility.yul\":21140:21378   */\n    tag_223:\n        /* \"#utility.yul\":21280:21314   */\n      0x44657061727475726520616e642064657374696e6174696f6e20636974696573\n        /* \"#utility.yul\":21276:21277   */\n      0x00\n        /* \"#utility.yul\":21268:21274   */\n      dup3\n        /* \"#utility.yul\":21264:21278   */\n      add\n        /* \"#utility.yul\":21257:21315   */\n      mstore\n        /* \"#utility.yul\":21349:21370   */\n      0x2063616e6e6f74206265207468652073616d6500000000000000000000000000\n        /* \"#utility.yul\":21344:21346   */\n      0x20\n        /* \"#utility.yul\":21336:21342   */\n      dup3\n        /* \"#utility.yul\":21332:21347   */\n      add\n        /* \"#utility.yul\":21325:21371   */\n      mstore\n        /* \"#utility.yul\":21140:21378   */\n      pop\n      jump\t// out\n        /* \"#utility.yul\":21384:21750   */\n    tag_224:\n        /* \"#utility.yul\":21526:21529   */\n      0x00\n        /* \"#utility.yul\":21547:21614   */\n      tag_396\n        /* \"#utility.yul\":21611:21613   */\n      0x33\n        /* \"#utility.yul\":21606:21609   */\n      dup4\n        /* \"#utility.yul\":21547:21614   */\n      tag_195\n      jump\t// in\n    tag_396:\n        /* \"#utility.yul\":21540:21614   */\n      swap2\n      pop\n        /* \"#utility.yul\":21623:21716   */\n      tag_397\n        /* \"#utility.yul\":21712:21715   */\n      dup3\n        /* \"#utility.yul\":21623:21716   */\n      tag_223\n      jump\t// in\n    tag_397:\n        /* \"#utility.yul\":21741:21743   */\n      0x40\n        /* \"#utility.yul\":21736:21739   */\n      dup3\n        /* \"#utility.yul\":21732:21744   */\n      add\n        /* \"#utility.yul\":21725:21744   */\n      swap1\n      pop\n        /* \"#utility.yul\":21384:21750   */\n      swap2\n      swap1\n      pop\n      jump\t// out\n        /* \"#utility.yul\":21756:22175   */\n    tag_73:\n        /* \"#utility.yul\":21922:21926   */\n      0x00\n        /* \"#utility.yul\":21960:21962   */\n      0x20\n        /* \"#utility.yul\":21949:21958   */\n      dup3\n        /* \"#utility.yul\":21945:21963   */\n      add\n        /* \"#utility.yul\":21937:21963   */\n      swap1\n      pop\n        /* \"#utility.yul\":22009:22018   */\n      dup2\n        /* \"#utility.yul\":22003:22007   */\n      dup2\n        /* \"#utility.yul\":21999:22019   */\n      sub\n        /* \"#utility.yul\":21995:21996   */\n      0x00\n        /* \"#utility.yul\":21984:21993   */\n      dup4\n        /* \"#utility.yul\":21980:21997   */\n      add\n        /* \"#utility.yul\":21973:22020   */\n      mstore\n        /* \"#utility.yul\":22037:22168   */\n      tag_399\n        /* \"#utility.yul\":22163:22167   */\n      dup2\n        /* \"#utility.yul\":22037:22168   */\n      tag_224\n      jump\t// in\n    tag_399:\n        /* \"#utility.yul\":22029:22168   */\n      swap1\n      pop\n        /* \"#utility.yul\":21756:22175   */\n      swap2\n      swap1\n      pop\n      jump\t// out\n        /* \"#utility.yul\":22181:22361   */\n    tag_130:\n        /* \"#utility.yul\":22229:22306   */\n      0x4e487b7100000000000000000000000000000000000000000000000000000000\n        /* \"#utility.yul\":22226:22227   */\n      0x00\n        /* \"#utility.yul\":22219:22307   */\n      mstore\n        /* \"#utility.yul\":22326:22330   */\n      0x41\n        /* \"#utility.yul\":22323:22324   */\n      0x04\n        /* \"#utility.yul\":22316:22331   */\n      mstore\n        /* \"#utility.yul\":22350:22354   */\n      0x24\n        /* \"#utility.yul\":22347:22348   */\n      0x00\n        /* \"#utility.yul\":22340:22355   */\n      revert\n        /* \"#utility.yul\":22367:22547   */\n    tag_225:\n        /* \"#utility.yul\":22415:22492   */\n      0x4e487b7100000000000000000000000000000000000000000000000000000000\n        /* \"#utility.yul\":22412:22413   */\n      0x00\n        /* \"#utility.yul\":22405:22493   */\n      mstore\n        /* \"#utility.yul\":22512:22516   */\n      0x22\n        /* \"#utility.yul\":22509:22510   */\n      0x04\n        /* \"#utility.yul\":22502:22517   */\n      mstore\n        /* \"#utility.yul\":22536:22540   */\n      0x24\n        /* \"#utility.yul\":22533:22534   */\n      0x00\n        /* \"#utility.yul\":22526:22541   */\n      revert\n        /* \"#utility.yul\":22553:22873   */\n    tag_93:\n        /* \"#utility.yul\":22597:22603   */\n      0x00\n        /* \"#utility.yul\":22634:22635   */\n      0x02\n        /* \"#utility.yul\":22628:22632   */\n      dup3\n        /* \"#utility.yul\":22624:22636   */\n      div\n        /* \"#utility.yul\":22614:22636   */\n      swap1\n      pop\n        /* \"#utility.yul\":22681:22682   */\n      0x01\n        /* \"#utility.yul\":22675:22679   */\n      dup3\n        /* \"#utility.yul\":22671:22683   */\n      and\n        /* \"#utility.yul\":22702:22720   */\n      dup1\n        /* \"#utility.yul\":22692:22773   */\n      tag_403\n      jumpi\n        /* \"#utility.yul\":22758:22762   */\n      0x7f\n        /* \"#utility.yul\":22750:22756   */\n      dup3\n        /* \"#utility.yul\":22746:22763   */\n      and\n        /* \"#utility.yul\":22736:22763   */\n      swap2\n      pop\n        /* \"#utility.yul\":22692:22773   */\n    tag_403:\n        /* \"#utility.yul\":22820:22822   */\n      0x20\n        /* \"#utility.yul\":22812:22818   */\n      dup3\n        /* \"#utility.yul\":22809:22823   */\n      lt\n        /* \"#utility.yul\":22789:22807   */\n      dup2\n        /* \"#utility.yul\":22786:22824   */\n      sub\n        /* \"#utility.yul\":22783:22867   */\n      tag_404\n      jumpi\n        /* \"#utility.yul\":22839:22857   */\n      tag_405\n      tag_225\n      jump\t// in\n    tag_405:\n        /* \"#utility.yul\":22783:22867   */\n    tag_404:\n        /* \"#utility.yul\":22604:22873   */\n      pop\n        /* \"#utility.yul\":22553:22873   */\n      swap2\n      swap1\n      pop\n      jump\t// out\n        /* \"#utility.yul\":22879:23020   */\n    tag_226:\n        /* \"#utility.yul\":22928:22932   */\n      0x00\n        /* \"#utility.yul\":22951:22954   */\n      dup2\n        /* \"#utility.yul\":22943:22954   */\n      swap1\n      pop\n        /* \"#utility.yul\":22974:22977   */\n      dup2\n        /* \"#utility.yul\":22971:22972   */\n      0x00\n        /* \"#utility.yul\":22964:22978   */\n      mstore\n        /* \"#utility.yul\":23008:23012   */\n      0x20\n        /* \"#utility.yul\":23005:23006   */\n      0x00\n        /* \"#utility.yul\":22995:23013   */\n      keccak256\n        /* \"#utility.yul\":22987:23013   */\n      swap1\n      pop\n        /* \"#utility.yul\":22879:23020   */\n      swap2\n      swap1\n      pop\n      jump\t// out\n        /* \"#utility.yul\":23026:23119   */\n    tag_227:\n        /* \"#utility.yul\":23063:23069   */\n      0x00\n        /* \"#utility.yul\":23110:23112   */\n      0x20\n        /* \"#utility.yul\":23105:23107   */\n      0x1f\n        /* \"#utility.yul\":23098:23103   */\n      dup4\n        /* \"#utility.yul\":23094:23108   */\n      add\n        /* \"#utility.yul\":23090:23113   */\n      div\n        /* \"#utility.yul\":23080:23113   */\n      swap1\n      pop\n        /* \"#utility.yul\":23026:23119   */\n      swap2\n      swap1\n      pop\n      jump\t// out\n        /* \"#utility.yul\":23125:23232   */\n    tag_228:\n        /* \"#utility.yul\":23169:23177   */\n      0x00\n        /* \"#utility.yul\":23219:23224   */\n      dup3\n        /* \"#utility.yul\":23213:23217   */\n      dup3\n        /* \"#utility.yul\":23209:23225   */\n      shl\n        /* \"#utility.yul\":23188:23225   */\n      swap1\n      pop\n        /* \"#utility.yul\":23125:23232   */\n      swap3\n      swap2\n      pop\n      pop\n      jump\t// out\n        /* \"#utility.yul\":23238:23631   */\n    tag_229:\n        /* \"#utility.yul\":23307:23313   */\n      0x00\n        /* \"#utility.yul\":23357:23358   */\n      0x08\n        /* \"#utility.yul\":23345:23355   */\n      dup4\n        /* \"#utility.yul\":23341:23359   */\n      mul\n        /* \"#utility.yul\":23380:23477   */\n      tag_410\n        /* \"#utility.yul\":23410:23476   */\n      0xffffffffffffffffffffffffffffffffffffffffffffffffffffffffffffffff\n        /* \"#utility.yul\":23399:23408   */\n      dup3\n        /* \"#utility.yul\":23380:23477   */\n      tag_228\n      jump\t// in\n    tag_410:\n        /* \"#utility.yul\":23498:23537   */\n      tag_411\n        /* \"#utility.yul\":23528:23536   */\n      dup7\n        /* \"#utility.yul\":23517:23526   */\n      dup4\n        /* \"#utility.yul\":23498:23537   */\n      tag_228\n      jump\t// in\n    tag_411:\n        /* \"#utility.yul\":23486:23537   */\n      swap6\n      pop\n        /* \"#utility.yul\":23570:23574   */\n      dup1\n        /* \"#utility.yul\":23566:23575   */\n      not\n        /* \"#utility.yul\":23559:23564   */\n      dup5\n        /* \"#utility.yul\":23555:23576   */\n      and\n        /* \"#utility.yul\":23546:23576   */\n      swap4\n      pop\n        /* \"#utility.yul\":23619:23623   */\n      dup1\n        /* \"#utility.yul\":23609:23617   */\n      dup7\n        /* \"#utility.yul\":23605:23624   */\n      and\n        /* \"#utility.yul\":23598:23603   */\n      dup5\n        /* \"#utility.yul\":23595:23625   */\n      or\n        /* \"#utility.yul\":23585:23625   */\n      swap3\n      pop\n        /* \"#utility.yul\":23314:23631   */\n      pop\n      pop\n        /* \"#utility.yul\":23238:23631   */\n      swap4\n      swap3\n      pop\n      pop\n      pop\n      jump\t// out\n        /* \"#utility.yul\":23637:23697   */\n    tag_230:\n        /* \"#utility.yul\":23665:23668   */\n      0x00\n        /* \"#utility.yul\":23686:23691   */\n      dup2\n        /* \"#utility.yul\":23679:23691   */\n      swap1\n      pop\n        /* \"#utility.yul\":23637:23697   */\n      swap2\n      swap1\n      pop\n      jump\t// out\n        /* \"#utility.yul\":23703:23845   */\n    tag_231:\n        /* \"#utility.yul\":23753:23762   */\n      0x00\n        /* \"#utility.yul\":23786:23839   */\n      tag_414\n        /* \"#utility.yul\":23804:23838   */\n      tag_415\n        /* \"#utility.yul\":23813:23837   */\n      tag_416\n        /* \"#utility.yul\":23831:23836   */\n      dup5\n        /* \"#utility.yul\":23813:23837   */\n      tag_204\n      jump\t// in\n    tag_416:\n        /* \"#utility.yul\":23804:23838   */\n      tag_230\n      jump\t// in\n    tag_415:\n        /* \"#utility.yul\":23786:23839   */\n      tag_204\n      jump\t// in\n    tag_414:\n        /* \"#utility.yul\":23773:23839   */\n      swap1\n      pop\n        /* \"#utility.yul\":23703:23845   */\n      swap2\n      swap1\n      pop\n      jump\t// out\n        /* \"#utility.yul\":23851:23926   */\n    tag_232:\n        /* \"#utility.yul\":23894:23897   */\n      0x00\n        /* \"#utility.yul\":23915:23920   */\n      dup2\n        /* \"#utility.yul\":23908:23920   */\n      swap1\n      pop\n        /* \"#utility.yul\":23851:23926   */\n      swap2\n      swap1\n      pop\n      jump\t// out\n        /* \"#utility.yul\":23932:24201   */\n    tag_233:\n        /* \"#utility.yul\":24042:24081   */\n      tag_419\n        /* \"#utility.yul\":24073:24080   */\n      dup4\n        /* \"#utility.yul\":24042:24081   */\n      tag_231\n      jump\t// in\n    tag_419:\n        /* \"#utility.yul\":24103:24194   */\n      tag_420\n        /* \"#utility.yul\":24152:24193   */\n      tag_421\n        /* \"#utility.yul\":24176:24192   */\n      dup3\n        /* \"#utility.yul\":24152:24193   */\n      tag_232\n      jump\t// in\n    tag_421:\n        /* \"#utility.yul\":24144:24150   */\n      dup5\n        /* \"#utility.yul\":24137:24141   */\n      dup5\n        /* \"#utility.yul\":24131:24142   */\n      sload\n        /* \"#utility.yul\":24103:24194   */\n      tag_229\n      jump\t// in\n    tag_420:\n        /* \"#utility.yul\":24097:24101   */\n      dup3\n        /* \"#utility.yul\":24090:24195   */\n      sstore\n        /* \"#utility.yul\":24008:24201   */\n      pop\n        /* \"#utility.yul\":23932:24201   */\n      pop\n      pop\n      pop\n      jump\t// out\n        /* \"#utility.yul\":24207:24280   */\n    tag_234:\n        /* \"#utility.yul\":24252:24255   */\n      0x00\n        /* \"#utility.yul\":24207:24280   */\n      swap1\n      jump\t// out\n        /* \"#utility.yul\":24286:24475   */\n    tag_235:\n        /* \"#utility.yul\":24363:24395   */\n      tag_424\n      tag_234\n      jump\t// in\n    tag_424:\n        /* \"#utility.yul\":24404:24469   */\n      tag_425\n        /* \"#utility.yul\":24462:24468   */\n      dup2\n        /* \"#utility.yul\":24454:24460   */\n      dup5\n        /* \"#utility.yul\":24448:24452   */\n      dup5\n        /* \"#utility.yul\":24404:24469   */\n      tag_233\n      jump\t// in\n    tag_425:\n        /* \"#utility.yul\":24339:24475   */\n      pop\n        /* \"#utility.yul\":24286:24475   */\n      pop\n      pop\n      jump\t// out\n        /* \"#utility.yul\":24481:24667   */\n    tag_236:\n        /* \"#utility.yul\":24541:24661   */\n    tag_427:\n        /* \"#utility.yul\":24558:24561   */\n      dup2\n        /* \"#utility.yul\":24551:24556   */\n      dup2\n        /* \"#utility.yul\":24548:24562   */\n      lt\n        /* \"#utility.yul\":24541:24661   */\n      iszero\n      tag_429\n      jumpi\n        /* \"#utility.yul\":24612:24651   */\n      tag_430\n        /* \"#utility.yul\":24649:24650   */\n      0x00\n        /* \"#utility.yul\":24642:24647   */\n      dup3\n        /* \"#utility.yul\":24612:24651   */\n      tag_235\n      jump\t// in\n    tag_430:\n        /* \"#utility.yul\":24585:24586   */\n      0x01\n        /* \"#utility.yul\":24578:24583   */\n      dup2\n        /* \"#utility.yul\":24574:24587   */\n      add\n        /* \"#utility.yul\":24565:24587   */\n      swap1\n      pop\n        /* \"#utility.yul\":24541:24661   */\n      jump(tag_427)\n    tag_429:\n        /* \"#utility.yul\":24481:24667   */\n      pop\n      pop\n      jump\t// out\n        /* \"#utility.yul\":24673:25216   */\n    tag_237:\n        /* \"#utility.yul\":24774:24776   */\n      0x1f\n        /* \"#utility.yul\":24769:24772   */\n      dup3\n        /* \"#utility.yul\":24766:24777   */\n      gt\n        /* \"#utility.yul\":24763:25209   */\n      iszero\n      tag_432\n      jumpi\n        /* \"#utility.yul\":24808:24846   */\n      tag_433\n        /* \"#utility.yul\":24840:24845   */\n      dup2\n        /* \"#utility.yul\":24808:24846   */\n      tag_226\n      jump\t// in\n    tag_433:\n        /* \"#utility.yul\":24892:24921   */\n      tag_434\n        /* \"#utility.yul\":24910:24920   */\n      dup5\n        /* \"#utility.yul\":24892:24921   */\n      tag_227\n      jump\t// in\n    tag_434:\n        /* \"#utility.yul\":24882:24890   */\n      dup2\n        /* \"#utility.yul\":24878:24922   */\n      add\n        /* \"#utility.yul\":25075:25077   */\n      0x20\n        /* \"#utility.yul\":25063:25073   */\n      dup6\n        /* \"#utility.yul\":25060:25078   */\n      lt\n        /* \"#utility.yul\":25057:25106   */\n      iszero\n      tag_435\n      jumpi\n        /* \"#utility.yul\":25096:25104   */\n      dup2\n        /* \"#utility.yul\":25081:25104   */\n      swap1\n      pop\n        /* \"#utility.yul\":25057:25106   */\n    tag_435:\n        /* \"#utility.yul\":25119:25199   */\n      tag_436\n        /* \"#utility.yul\":25175:25197   */\n      tag_437\n        /* \"#utility.yul\":25193:25196   */\n      dup6\n        /* \"#utility.yul\":25175:25197   */\n      tag_227\n      jump\t// in\n    tag_437:\n        /* \"#utility.yul\":25165:25173   */\n      dup4\n        /* \"#utility.yul\":25161:25198   */\n      add\n        /* \"#utility.yul\":25148:25159   */\n      dup3\n        /* \"#utility.yul\":25119:25199   */\n      tag_236\n      jump\t// in\n    tag_436:\n        /* \"#utility.yul\":24778:25209   */\n      pop\n      pop\n        /* \"#utility.yul\":24763:25209   */\n    tag_432:\n        /* \"#utility.yul\":24673:25216   */\n      pop\n      pop\n      pop\n      jump\t// out\n        /* \"#utility.yul\":25222:25339   */\n    tag_238:\n        /* \"#utility.yul\":25276:25284   */\n      0x00\n        /* \"#utility.yul\":25326:25331   */\n      dup3\n        /* \"#utility.yul\":25320:25324   */\n      dup3\n        /* \"#utility.yul\":25316:25332   */\n      shr\n        /* \"#utility.yul\":25295:25332   */\n      swap1\n      pop\n        /* \"#utility.yul\":25222:25339   */\n      swap3\n      swap2\n      pop\n      pop\n      jump\t// out\n        /* \"#utility.yul\":25345:25514   */\n    tag_239:\n        /* \"#utility.yul\":25389:25395   */\n      0x00\n        /* \"#utility.yul\":25422:25473   */\n      tag_440\n        /* \"#utility.yul\":25470:25471   */\n      0x00\n        /* \"#utility.yul\":25466:25472   */\n      not\n        /* \"#utility.yul\":25458:25463   */\n      dup5\n        /* \"#utility.yul\":25455:25456   */\n      0x08\n        /* \"#utility.yul\":25451:25464   */\n      mul\n        /* \"#utility.yul\":25422:25473   */\n      tag_238\n      jump\t// in\n    tag_440:\n        /* \"#utility.yul\":25418:25474   */\n      not\n        /* \"#utility.yul\":25503:25507   */\n      dup1\n        /* \"#utility.yul\":25497:25501   */\n      dup4\n        /* \"#utility.yul\":25493:25508   */\n      and\n        /* \"#utility.yul\":25483:25508   */\n      swap2\n      pop\n        /* \"#utility.yul\":25396:25514   */\n      pop\n        /* \"#utility.yul\":25345:25514   */\n      swap3\n      swap2\n      pop\n      pop\n      jump\t// out\n        /* \"#utility.yul\":25519:25814   */\n    tag_240:\n        /* \"#utility.yul\":25595:25599   */\n      0x00\n        /* \"#utility.yul\":25741:25770   */\n      tag_442\n        /* \"#utility.yul\":25766:25769   */\n      dup4\n        /* \"#utility.yul\":25760:25764   */\n      dup4\n        /* \"#utility.yul\":25741:25770   */\n      tag_239\n      jump\t// in\n    tag_442:\n        /* \"#utility.yul\":25733:25770   */\n      swap2\n      pop\n        /* \"#utility.yul\":25803:25806   */\n      dup3\n        /* \"#utility.yul\":25800:25801   */\n      0x02\n        /* \"#utility.yul\":25796:25807   */\n      mul\n        /* \"#utility.yul\":25790:25794   */\n      dup3\n        /* \"#utility.yul\":25787:25808   */\n      or\n        /* \"#utility.yul\":25779:25808   */\n      swap1\n      pop\n        /* \"#utility.yul\":25519:25814   */\n      swap3\n      swap2\n      pop\n      pop\n      jump\t// out\n        /* \"#utility.yul\":25819:27214   */\n    tag_75:\n        /* \"#utility.yul\":25936:25973   */\n      tag_444\n        /* \"#utility.yul\":25969:25972   */\n      dup3\n        /* \"#utility.yul\":25936:25973   */\n      tag_185\n      jump\t// in\n    tag_444:\n        /* \"#utility.yul\":26038:26056   */\n      0xffffffffffffffff\n        /* \"#utility.yul\":26030:26036   */\n      dup2\n        /* \"#utility.yul\":26027:26057   */\n      gt\n        /* \"#utility.yul\":26024:26080   */\n      iszero\n      tag_445\n      jumpi\n        /* \"#utility.yul\":26060:26078   */\n      tag_446\n      tag_130\n      jump\t// in\n    tag_446:\n        /* \"#utility.yul\":26024:26080   */\n    tag_445:\n        /* \"#utility.yul\":26104:26142   */\n      tag_447\n        /* \"#utility.yul\":26136:26140   */\n      dup3\n        /* \"#utility.yul\":26130:26141   */\n      sload\n        /* \"#utility.yul\":26104:26142   */\n      tag_93\n      jump\t// in\n    tag_447:\n        /* \"#utility.yul\":26189:26256   */\n      tag_448\n        /* \"#utility.yul\":26249:26255   */\n      dup3\n        /* \"#utility.yul\":26241:26247   */\n      dup3\n        /* \"#utility.yul\":26235:26239   */\n      dup6\n        /* \"#utility.yul\":26189:26256   */\n      tag_237\n      jump\t// in\n    tag_448:\n        /* \"#utility.yul\":26283:26284   */\n      0x00\n        /* \"#utility.yul\":26307:26311   */\n      0x20\n        /* \"#utility.yul\":26294:26311   */\n      swap1\n      pop\n        /* \"#utility.yul\":26339:26341   */\n      0x1f\n        /* \"#utility.yul\":26331:26337   */\n      dup4\n        /* \"#utility.yul\":26328:26342   */\n      gt\n        /* \"#utility.yul\":26356:26357   */\n      0x01\n        /* \"#utility.yul\":26351:26969   */\n      dup2\n      eq\n      tag_450\n      jumpi\n        /* \"#utility.yul\":27013:27014   */\n      0x00\n        /* \"#utility.yul\":27030:27036   */\n      dup5\n        /* \"#utility.yul\":27027:27104   */\n      iszero\n      tag_451\n      jumpi\n        /* \"#utility.yul\":27079:27088   */\n      dup3\n        /* \"#utility.yul\":27074:27077   */\n      dup8\n        /* \"#utility.yul\":27070:27089   */\n      add\n        /* \"#utility.yul\":27064:27090   */\n      mload\n        /* \"#utility.yul\":27055:27090   */\n      swap1\n      pop\n        /* \"#utility.yul\":27027:27104   */\n    tag_451:\n        /* \"#utility.yul\":27130:27197   */\n      tag_452\n        /* \"#utility.yul\":27190:27196   */\n      dup6\n        /* \"#utility.yul\":27183:27188   */\n      dup3\n        /* \"#utility.yul\":27130:27197   */\n      tag_240\n      jump\t// in\n    tag_452:\n        /* \"#utility.yul\":27124:27128   */\n      dup7\n        /* \"#utility.yul\":27117:27198   */\n      sstore\n        /* \"#utility.yul\":26986:27208   */\n      pop\n        /* \"#utility.yul\":26321:27208   */\n      jump(tag_449)\n        /* \"#utility.yul\":26351:26969   */\n    tag_450:\n        /* \"#utility.yul\":26403:26407   */\n      0x1f\n        /* \"#utility.yul\":26399:26408   */\n      not\n        /* \"#utility.yul\":26391:26397   */\n      dup5\n        /* \"#utility.yul\":26387:26409   */\n      and\n        /* \"#utility.yul\":26437:26474   */\n      tag_453\n        /* \"#utility.yul\":26469:26473   */\n      dup7\n        /* \"#utility.yul\":26437:26474   */\n      tag_226\n      jump\t// in\n    tag_453:\n        /* \"#utility.yul\":26496:26497   */\n      0x00\n        /* \"#utility.yul\":26510:26718   */\n    tag_454:\n        /* \"#utility.yul\":26524:26531   */\n      dup3\n        /* \"#utility.yul\":26521:26522   */\n      dup2\n        /* \"#utility.yul\":26518:26532   */\n      lt\n        /* \"#utility.yul\":26510:26718   */\n      iszero\n      tag_456\n      jumpi\n        /* \"#utility.yul\":26603:26612   */\n      dup5\n        /* \"#utility.yul\":26598:26601   */\n      dup10\n        /* \"#utility.yul\":26594:26613   */\n      add\n        /* \"#utility.yul\":26588:26614   */\n      mload\n        /* \"#utility.yul\":26580:26586   */\n      dup3\n        /* \"#utility.yul\":26573:26615   */\n      sstore\n        /* \"#utility.yul\":26654:26655   */\n      0x01\n        /* \"#utility.yul\":26646:26652   */\n      dup3\n        /* \"#utility.yul\":26642:26656   */\n      add\n        /* \"#utility.yul\":26632:26656   */\n      swap2\n      pop\n        /* \"#utility.yul\":26701:26703   */\n      0x20\n        /* \"#utility.yul\":26690:26699   */\n      dup6\n        /* \"#utility.yul\":26686:26704   */\n      add\n        /* \"#utility.yul\":26673:26704   */\n      swap5\n      pop\n        /* \"#utility.yul\":26547:26551   */\n      0x20\n        /* \"#utility.yul\":26544:26545   */\n      dup2\n        /* \"#utility.yul\":26540:26552   */\n      add\n        /* \"#utility.yul\":26535:26552   */\n      swap1\n      pop\n        /* \"#utility.yul\":26510:26718   */\n      jump(tag_454)\n    tag_456:\n        /* \"#utility.yul\":26746:26752   */\n      dup7\n        /* \"#utility.yul\":26737:26744   */\n      dup4\n        /* \"#utility.yul\":26734:26753   */\n      lt\n        /* \"#utility.yul\":26731:26910   */\n      iszero\n      tag_457\n      jumpi\n        /* \"#utility.yul\":26804:26813   */\n      dup5\n        /* \"#utility.yul\":26799:26802   */\n      dup10\n        /* \"#utility.yul\":26795:26814   */\n      add\n        /* \"#utility.yul\":26789:26815   */\n      mload\n        /* \"#utility.yul\":26847:26895   */\n      tag_458\n        /* \"#utility.yul\":26889:26893   */\n      0x1f\n        /* \"#utility.yul\":26881:26887   */\n      dup10\n        /* \"#utility.yul\":26877:26894   */\n      and\n        /* \"#utility.yul\":26866:26875   */\n      dup3\n        /* \"#utility.yul\":26847:26895   */\n      tag_239\n      jump\t// in\n    tag_458:\n        /* \"#utility.yul\":26839:26845   */\n      dup4\n        /* \"#utility.yul\":26832:26896   */\n      sstore\n        /* \"#utility.yul\":26754:26910   */\n      pop\n        /* \"#utility.yul\":26731:26910   */\n    tag_457:\n        /* \"#utility.yul\":26956:26957   */\n      0x01\n        /* \"#utility.yul\":26952:26953   */\n      0x02\n        /* \"#utility.yul\":26944:26950   */\n      dup9\n        /* \"#utility.yul\":26940:26954   */\n      mul\n        /* \"#utility.yul\":26936:26958   */\n      add\n        /* \"#utility.yul\":26930:26934   */\n      dup9\n        /* \"#utility.yul\":26923:26959   */\n      sstore\n        /* \"#utility.yul\":26358:26969   */\n      pop\n      pop\n      pop\n        /* \"#utility.yul\":26321:27208   */\n    tag_449:\n      pop\n        /* \"#utility.yul\":25911:27214   */\n      pop\n      pop\n      pop\n        /* \"#utility.yul\":25819:27214   */\n      pop\n      pop\n      jump\t// out\n        /* \"#utility.yul\":27220:27385   */\n    tag_241:\n        /* \"#utility.yul\":27360:27377   */\n      0x4e6f20706f6c69637920666f756e640000000000000000000000000000000000\n        /* \"#utility.yul\":27356:27357   */\n      0x00\n        /* \"#utility.yul\":27348:27354   */\n      dup3\n        /* \"#utility.yul\":27344:27358   */\n      add\n        /* \"#utility.yul\":27337:27378   */\n      mstore\n        /* \"#utility.yul\":27220:27385   */\n      pop\n      jump\t// out\n        /* \"#utility.yul\":27391:27757   */\n    tag_242:\n        /* \"#utility.yul\":27533:27536   */\n      0x00\n        /* \"#utility.yul\":27554:27621   */\n      tag_461\n        /* \"#utility.yul\":27618:27620   */\n      0x0f\n        /* \"#utility.yul\":27613:27616   */\n      dup4\n        /* \"#utility.yul\":27554:27621   */\n      tag_195\n      jump\t// in\n    tag_461:\n        /* \"#utility.yul\":27547:27621   */\n      swap2\n      pop\n        /* \"#utility.yul\":27630:27723   */\n      tag_462\n        /* \"#utility.yul\":27719:27722   */\n      dup3\n        /* \"#utility.yul\":27630:27723   */\n      tag_241\n      jump\t// in\n    tag_462:\n        /* \"#utility.yul\":27748:27750   */\n      0x20\n        /* \"#utility.yul\":27743:27746   */\n      dup3\n        /* \"#utility.yul\":27739:27751   */\n      add\n        /* \"#utility.yul\":27732:27751   */\n      swap1\n      pop\n        /* \"#utility.yul\":27391:27757   */\n      swap2\n      swap1\n      pop\n      jump\t// out\n        /* \"#utility.yul\":27763:28182   */\n    tag_91:\n        /* \"#utility.yul\":27929:27933   */\n      0x00\n        /* \"#utility.yul\":27967:27969   */\n      0x20\n        /* \"#utility.yul\":27956:27965   */\n      dup3\n        /* \"#utility.yul\":27952:27970   */\n      add\n        /* \"#utility.yul\":27944:27970   */\n      swap1\n      pop\n        /* \"#utility.yul\":28016:28025   */\n      dup2\n        /* \"#utility.yul\":28010:28014   */\n      dup2\n        /* \"#utility.yul\":28006:28026   */\n      sub\n        /* \"#utility.yul\":28002:28003   */\n      0x00\n        /* \"#utility.yul\":27991:28000   */\n      dup4\n        /* \"#utility.yul\":27987:28004   */\n      add\n        /* \"#utility.yul\":27980:28027   */\n      mstore\n        /* \"#utility.yul\":28044:28175   */\n      tag_464\n        /* \"#utility.yul\":28170:28174   */\n      dup2\n        /* \"#utility.yul\":28044:28175   */\n      tag_242\n      jump\t// in\n    tag_464:\n        /* \"#utility.yul\":28036:28175   */\n      swap1\n      pop\n        /* \"#utility.yul\":27763:28182   */\n      swap2\n      swap1\n      pop\n      jump\t// out\n        /* \"#utility.yul\":28188:28411   */\n    tag_243:\n        /* \"#utility.yul\":28328:28362   */\n      0x43616c6c6572206973206e6f742074686520696e737572616e63652070726f76\n        /* \"#utility.yul\":28324:28325   */\n      0x00\n        /* \"#utility.yul\":28316:28322   */\n      dup3\n        /* \"#utility.yul\":28312:28326   */\n      add\n        /* \"#utility.yul\":28305:28363   */\n      mstore\n        /* \"#utility.yul\":28397:28403   */\n      0x6964657200000000000000000000000000000000000000000000000000000000\n        /* \"#utility.yul\":28392:28394   */\n      0x20\n        /* \"#utility.yul\":28384:28390   */\n      dup3\n        /* \"#utility.yul\":28380:28395   */\n      add\n        /* \"#utility.yul\":28373:28404   */\n      mstore\n        /* \"#utility.yul\":28188:28411   */\n      pop\n      jump\t// out\n        /* \"#utility.yul\":28417:28783   */\n    tag_244:\n        /* \"#utility.yul\":28559:28562   */\n      0x00\n        /* \"#utility.yul\":28580:28647   */\n      tag_467\n        /* \"#utility.yul\":28644:28646   */\n      0x24\n        /* \"#utility.yul\":28639:28642   */\n      dup4\n        /* \"#utility.yul\":28580:28647   */\n      tag_195\n      jump\t// in\n    tag_467:\n        /* \"#utility.yul\":28573:28647   */\n      swap2\n      pop\n        /* \"#utility.yul\":28656:28749   */\n      tag_468\n        /* \"#utility.yul\":28745:28748   */\n      dup3\n        /* \"#utility.yul\":28656:28749   */\n      tag_243\n      jump\t// in\n    tag_468:\n        /* \"#utility.yul\":28774:28776   */\n      0x40\n        /* \"#utility.yul\":28769:28772   */\n      dup3\n        /* \"#utility.yul\":28765:28777   */\n      add\n        /* \"#utility.yul\":28758:28777   */\n      swap1\n      pop\n        /* \"#utility.yul\":28417:28783   */\n      swap2\n      swap1\n      pop\n      jump\t// out\n        /* \"#utility.yul\":28789:29208   */\n    tag_127:\n        /* \"#utility.yul\":28955:28959   */\n      0x00\n        /* \"#utility.yul\":28993:28995   */\n      0x20\n        /* \"#utility.yul\":28982:28991   */\n      dup3\n        /* \"#utility.yul\":28978:28996   */\n      add\n        /* \"#utility.yul\":28970:28996   */\n      swap1\n      pop\n        /* \"#utility.yul\":29042:29051   */\n      dup2\n        /* \"#utility.yul\":29036:29040   */\n      dup2\n        /* \"#utility.yul\":29032:29052   */\n      sub\n        /* \"#utility.yul\":29028:29029   */\n      0x00\n        /* \"#utility.yul\":29017:29026   */\n      dup4\n        /* \"#utility.yul\":29013:29030   */\n      add\n        /* \"#utility.yul\":29006:29053   */\n      mstore\n        /* \"#utility.yul\":29070:29201   */\n      tag_470\n        /* \"#utility.yul\":29196:29200   */\n      dup2\n        /* \"#utility.yul\":29070:29201   */\n      tag_244\n      jump\t// in\n    tag_470:\n        /* \"#utility.yul\":29062:29201   */\n      swap1\n      pop\n        /* \"#utility.yul\":28789:29208   */\n      swap2\n      swap1\n      pop\n      jump\t// out\n        /* \"#utility.yul\":29214:29394   */\n    tag_139:\n        /* \"#utility.yul\":29262:29339   */\n      0x4e487b7100000000000000000000000000000000000000000000000000000000\n        /* \"#utility.yul\":29259:29260   */\n      0x00\n        /* \"#utility.yul\":29252:29340   */\n      mstore\n        /* \"#utility.yul\":29359:29363   */\n      0x32\n        /* \"#utility.yul\":29356:29357   */\n      0x04\n        /* \"#utility.yul\":29349:29364   */\n      mstore\n        /* \"#utility.yul\":29383:29387   */\n      0x24\n        /* \"#utility.yul\":29380:29381   */\n      0x00\n        /* \"#utility.yul\":29373:29388   */\n      revert\n        /* \"#utility.yul\":29400:29581   */\n    tag_245:\n        /* \"#utility.yul\":29540:29573   */\n      0x5265656e7472616e637947756172643a207265656e7472616e742063616c6c00\n        /* \"#utility.yul\":29536:29537   */\n      0x00\n        /* \"#utility.yul\":29528:29534   */\n      dup3\n        /* \"#utility.yul\":29524:29538   */\n      add\n        /* \"#utility.yul\":29517:29574   */\n      mstore\n        /* \"#utility.yul\":29400:29581   */\n      pop\n      jump\t// out\n        /* \"#utility.yul\":29587:29953   */\n    tag_246:\n        /* \"#utility.yul\":29729:29732   */\n      0x00\n        /* \"#utility.yul\":29750:29817   */\n      tag_474\n        /* \"#utility.yul\":29814:29816   */\n      0x1f\n        /* \"#utility.yul\":29809:29812   */\n      dup4\n        /* \"#utility.yul\":29750:29817   */\n      tag_195\n      jump\t// in\n    tag_474:\n        /* \"#utility.yul\":29743:29817   */\n      swap2\n      pop\n        /* \"#utility.yul\":29826:29919   */\n      tag_475\n        /* \"#utility.yul\":29915:29918   */\n      dup3\n        /* \"#utility.yul\":29826:29919   */\n      tag_245\n      jump\t// in\n    tag_475:\n        /* \"#utility.yul\":29944:29946   */\n      0x20\n        /* \"#utility.yul\":29939:29942   */\n      dup3\n        /* \"#utility.yul\":29935:29947   */\n      add\n        /* \"#utility.yul\":29928:29947   */\n      swap1\n      pop\n        /* \"#utility.yul\":29587:29953   */\n      swap2\n      swap1\n      pop\n      jump\t// out\n        /* \"#utility.yul\":29959:30378   */\n    tag_176:\n        /* \"#utility.yul\":30125:30129   */\n      0x00\n        /* \"#utility.yul\":30163:30165   */\n      0x20\n        /* \"#utility.yul\":30152:30161   */\n      dup3\n        /* \"#utility.yul\":30148:30166   */\n      add\n        /* \"#utility.yul\":30140:30166   */\n      swap1\n      pop\n        /* \"#utility.yul\":30212:30221   */\n      dup2\n        /* \"#utility.yul\":30206:30210   */\n      dup2\n        /* \"#utility.yul\":30202:30222   */\n      sub\n        /* \"#utility.yul\":30198:30199   */\n      0x00\n        /* \"#utility.yul\":30187:30196   */\n      dup4\n        /* \"#utility.yul\":30183:30200   */\n      add\n        /* \"#utility.yul\":30176:30223   */\n      mstore\n        /* \"#utility.yul\":30240:30371   */\n      tag_477\n        /* \"#utility.yul\":30366:30370   */\n      dup2\n        /* \"#utility.yul\":30240:30371   */\n      tag_246\n      jump\t// in\n    tag_477:\n        /* \"#utility.yul\":30232:30371   */\n      swap1\n      pop\n        /* \"#utility.yul\":29959:30378   */\n      swap2\n      swap1\n      pop\n      jump\t// out\n    stop\n    data_d59989be92bc9d1b4549c043b505eb9c4875cfd9f825df1096982c95975097c2 5072656d69756d3a20302e3031204554482c20496e64656d6e6974793a20302e3032204554482c20436f7665726167653a2045787472656d6520576561746865722044656c6179732028652e672e2c206861696c2c20666c6f6f64696e672c206574632e292e\n\n    auxdata: 0xa2646970667358221220e730923506d22f7c5e5e3929579b44cb6b8dd08d2fc6f3886ca594b9694c8efe64736f6c634300081a0033\n}\n",
				"bytecode": {
					"linkReferences": {},
					"object": "608060405234801561000f575f80fd5b506040516122f93803806122f9833981810160405281019061003191906100dc565b60015f819055508060015f6101000a81548173ffffffffffffffffffffffffffffffffffffffff021916908373ffffffffffffffffffffffffffffffffffffffff16021790555050610107565b5f80fd5b5f73ffffffffffffffffffffffffffffffffffffffff82169050919050565b5f6100ab82610082565b9050919050565b6100bb816100a1565b81146100c5575f80fd5b50565b5f815190506100d6816100b2565b92915050565b5f602082840312156100f1576100f061007e565b5b5f6100fe848285016100c8565b91505092915050565b6121e5806101145f395ff3fe60806040526004361061006f575f3560e01c8063b6fc3b2a1161004d578063b6fc3b2a146100e3578063c160693d1461010d578063cd95e77714610137578063ea3696ca146101615761006f565b80635d02ed1214610073578063963163bd1461008f5780639955f67c146100b9575b5f80fd5b61008d600480360381019061008891906113c8565b61018b565b005b34801561009a575f80fd5b506100a3610820565b6040516100b0919061164a565b60405180910390f35b3480156100c4575f80fd5b506100cd610cf6565b6040516100da9190611679565b60405180910390f35b3480156100ee575f80fd5b506100f7610d1b565b60405161010491906116da565b60405180910390f35b348015610118575f80fd5b50610121610d3b565b60405161012e9190611871565b60405180910390f35b348015610142575f80fd5b5061014b6112a1565b60405161015891906118a9565b60405180910390f35b34801561016c575f80fd5b506101756112ac565b60405161018291906118a9565b60405180910390f35b6101936112b7565b662386f26fc1000034146101dc576040517f08c379a00000000000000000000000000000000000000000000000000000000081526004016101d390611932565b60405180910390fd5b5f73ffffffffffffffffffffffffffffffffffffffff1660025f3373ffffffffffffffffffffffffffffffffffffffff1673ffffffffffffffffffffffffffffffffffffffff1681526020019081526020015f206001015f9054906101000a900473ffffffffffffffffffffffffffffffffffffffff1673ffffffffffffffffffffffffffffffffffffffff16146102a9576040517f08c379a00000000000000000000000000000000000000000000000000000000081526004016102a0906119c0565b60405180910390fd5b5f8a8a9050116102ee576040517f08c379a00000000000000000000000000000000000000000000000000000000081526004016102e590611a28565b60405180910390fd5b5f8888905011610333576040517f08c379a000000000000000000000000000000000000000000000000000000000815260040161032a90611a90565b60405180910390fd5b5f8686905011610378576040517f08c379a000000000000000000000000000000000000000000000000000000000815260040161036f90611af8565b60405180910390fd5b5f84849050116103bd576040517f08c379a00000000000000000000000000000000000000000000000000000000081526004016103b490611b60565b60405180910390fd5b5f8282905011610402576040517f08c379a00000000000000000000000000000000000000000000000000000000081526004016103f990611bc8565b60405180910390fd5b8181604051610412929190611c22565b6040518091039020848460405161042a929190611c22565b604051809103902003610472576040517f08c379a000000000000000000000000000000000000000000000000000000000815260040161046990611caa565b60405180910390fd5b6040518060e001604052808b8b8080601f0160208091040260200160405190810160405280939291908181526020018383808284375f81840152601f19601f8201169050808301925050505050505081526020013373ffffffffffffffffffffffffffffffffffffffff16815260200189898080601f0160208091040260200160405190810160405280939291908181526020018383808284375f81840152601f19601f82011690508083019250505050505050815260200187878080601f0160208091040260200160405190810160405280939291908181526020018383808284375f81840152601f19601f82011690508083019250505050505050815260200185858080601f0160208091040260200160405190810160405280939291908181526020018383808284375f81840152601f19601f82011690508083019250505050505050815260200183838080601f0160208091040260200160405190810160405280939291908181526020018383808284375f81840152601f19601f8201169050808301925050505050505081526020016040518060400160405280600981526020017f707572636861736564000000000000000000000000000000000000000000000081525081525060025f3373ffffffffffffffffffffffffffffffffffffffff1673ffffffffffffffffffffffffffffffffffffffff1681526020019081526020015f205f820151815f01908161068f9190611eef565b506020820151816001015f6101000a81548173ffffffffffffffffffffffffffffffffffffffff021916908373ffffffffffffffffffffffffffffffffffffffff16021790555060408201518160020190816106eb9190611eef565b5060608201518160030190816107019190611eef565b5060808201518160040190816107179190611eef565b5060a082015181600501908161072d9190611eef565b5060c08201518160060190816107439190611eef565b50905050600333908060018154018082558091505060019003905f5260205f20015f9091909190916101000a81548173ffffffffffffffffffffffffffffffffffffffff021916908373ffffffffffffffffffffffffffffffffffffffff16021790555060015f9054906101000a900473ffffffffffffffffffffffffffffffffffffffff1673ffffffffffffffffffffffffffffffffffffffff166108fc3490811502906040515f60405180830381858888f1935050505015801561080b573d5f803e3d5ffd5b50610814611304565b50505050505050505050565b61082861130d565b5f73ffffffffffffffffffffffffffffffffffffffff1660025f3373ffffffffffffffffffffffffffffffffffffffff1673ffffffffffffffffffffffffffffffffffffffff1681526020019081526020015f206001015f9054906101000a900473ffffffffffffffffffffffffffffffffffffffff1673ffffffffffffffffffffffffffffffffffffffff16036108f5576040517f08c379a00000000000000000000000000000000000000000000000000000000081526004016108ec90612008565b60405180910390fd5b60025f3373ffffffffffffffffffffffffffffffffffffffff1673ffffffffffffffffffffffffffffffffffffffff1681526020019081526020015f206040518060e00160405290815f8201805461094c90611d22565b80601f016020809104026020016040519081016040528092919081815260200182805461097890611d22565b80156109c35780601f1061099a576101008083540402835291602001916109c3565b820191905f5260205f20905b8154815290600101906020018083116109a657829003601f168201915b50505050508152602001600182015f9054906101000a900473ffffffffffffffffffffffffffffffffffffffff1673ffffffffffffffffffffffffffffffffffffffff1673ffffffffffffffffffffffffffffffffffffffff168152602001600282018054610a3190611d22565b80601f0160208091040260200160405190810160405280929190818152602001828054610a5d90611d22565b8015610aa85780601f10610a7f57610100808354040283529160200191610aa8565b820191905f5260205f20905b815481529060010190602001808311610a8b57829003601f168201915b50505050508152602001600382018054610ac190611d22565b80601f0160208091040260200160405190810160405280929190818152602001828054610aed90611d22565b8015610b385780601f10610b0f57610100808354040283529160200191610b38565b820191905f5260205f20905b815481529060010190602001808311610b1b57829003601f168201915b50505050508152602001600482018054610b5190611d22565b80601f0160208091040260200160405190810160405280929190818152602001828054610b7d90611d22565b8015610bc85780601f10610b9f57610100808354040283529160200191610bc8565b820191905f5260205f20905b815481529060010190602001808311610bab57829003601f168201915b50505050508152602001600582018054610be190611d22565b80601f0160208091040260200160405190810160405280929190818152602001828054610c0d90611d22565b8015610c585780601f10610c2f57610100808354040283529160200191610c58565b820191905f5260205f20905b815481529060010190602001808311610c3b57829003601f168201915b50505050508152602001600682018054610c7190611d22565b80601f0160208091040260200160405190810160405280929190818152602001828054610c9d90611d22565b8015610ce85780601f10610cbf57610100808354040283529160200191610ce8565b820191905f5260205f20905b815481529060010190602001808311610ccb57829003601f168201915b505050505081525050905090565b60015f9054906101000a900473ffffffffffffffffffffffffffffffffffffffff1681565b60606040518060a001604052806066815260200161214a60669139905090565b606060015f9054906101000a900473ffffffffffffffffffffffffffffffffffffffff1673ffffffffffffffffffffffffffffffffffffffff163373ffffffffffffffffffffffffffffffffffffffff1614610dcc576040517f08c379a0000000000000000000000000000000000000000000000000000000008152600401610dc390612096565b60405180910390fd5b5f60038054905067ffffffffffffffff811115610dec57610deb611cc8565b5b604051908082528060200260200182016040528015610e2557816020015b610e1261130d565b815260200190600190039081610e0a5790505b5090505f5b6003805490508110156112995760025f60038381548110610e4e57610e4d6120b4565b5b905f5260205f20015f9054906101000a900473ffffffffffffffffffffffffffffffffffffffff1673ffffffffffffffffffffffffffffffffffffffff1673ffffffffffffffffffffffffffffffffffffffff1681526020019081526020015f206040518060e00160405290815f82018054610ec990611d22565b80601f0160208091040260200160405190810160405280929190818152602001828054610ef590611d22565b8015610f405780601f10610f1757610100808354040283529160200191610f40565b820191905f5260205f20905b815481529060010190602001808311610f2357829003601f168201915b50505050508152602001600182015f9054906101000a900473ffffffffffffffffffffffffffffffffffffffff1673ffffffffffffffffffffffffffffffffffffffff1673ffffffffffffffffffffffffffffffffffffffff168152602001600282018054610fae90611d22565b80601f0160208091040260200160405190810160405280929190818152602001828054610fda90611d22565b80156110255780601f10610ffc57610100808354040283529160200191611025565b820191905f5260205f20905b81548152906001019060200180831161100857829003601f168201915b5050505050815260200160038201805461103e90611d22565b80601f016020809104026020016040519081016040528092919081815260200182805461106a90611d22565b80156110b55780601f1061108c576101008083540402835291602001916110b5565b820191905f5260205f20905b81548152906001019060200180831161109857829003601f168201915b505050505081526020016004820180546110ce90611d22565b80601f01602080910402602001604051908101604052809291908181526020018280546110fa90611d22565b80156111455780601f1061111c57610100808354040283529160200191611145565b820191905f5260205f20905b81548152906001019060200180831161112857829003601f168201915b5050505050815260200160058201805461115e90611d22565b80601f016020809104026020016040519081016040528092919081815260200182805461118a90611d22565b80156111d55780601f106111ac576101008083540402835291602001916111d5565b820191905f5260205f20905b8154815290600101906020018083116111b857829003601f168201915b505050505081526020016006820180546111ee90611d22565b80601f016020809104026020016040519081016040528092919081815260200182805461121a90611d22565b80156112655780601f1061123c57610100808354040283529160200191611265565b820191905f5260205f20905b81548152906001019060200180831161124857829003601f168201915b505050505081525050828281518110611281576112806120b4565b5b60200260200101819052508080600101915050610e2a565b508091505090565b66470de4df82000081565b662386f26fc1000081565b60025f54036112fb576040517f08c379a00000000000000000000000000000000000000000000000000000000081526004016112f29061212b565b60405180910390fd5b60025f81905550565b60015f81905550565b6040518060e00160405280606081526020015f73ffffffffffffffffffffffffffffffffffffffff16815260200160608152602001606081526020016060815260200160608152602001606081525090565b5f80fd5b5f80fd5b5f80fd5b5f80fd5b5f80fd5b5f8083601f84011261138857611387611367565b5b8235905067ffffffffffffffff8111156113a5576113a461136b565b5b6020830191508360018202830111156113c1576113c061136f565b5b9250929050565b5f805f805f805f805f8060a08b8d0312156113e6576113e561135f565b5b5f8b013567ffffffffffffffff81111561140357611402611363565b5b61140f8d828e01611373565b9a509a505060208b013567ffffffffffffffff81111561143257611431611363565b5b61143e8d828e01611373565b985098505060408b013567ffffffffffffffff81111561146157611460611363565b5b61146d8d828e01611373565b965096505060608b013567ffffffffffffffff8111156114905761148f611363565b5b61149c8d828e01611373565b945094505060808b013567ffffffffffffffff8111156114bf576114be611363565b5b6114cb8d828e01611373565b92509250509295989b9194979a5092959850565b5f81519050919050565b5f82825260208201905092915050565b8281835e5f83830152505050565b5f601f19601f8301169050919050565b5f611521826114df565b61152b81856114e9565b935061153b8185602086016114f9565b61154481611507565b840191505092915050565b5f73ffffffffffffffffffffffffffffffffffffffff82169050919050565b5f6115788261154f565b9050919050565b6115888161156e565b82525050565b5f60e083015f8301518482035f8601526115a88282611517565b91505060208301516115bd602086018261157f565b50604083015184820360408601526115d58282611517565b915050606083015184820360608601526115ef8282611517565b915050608083015184820360808601526116098282611517565b91505060a083015184820360a08601526116238282611517565b91505060c083015184820360c086015261163d8282611517565b9150508091505092915050565b5f6020820190508181035f830152611662818461158e565b905092915050565b6116738161156e565b82525050565b5f60208201905061168c5f83018461166a565b92915050565b5f82825260208201905092915050565b5f6116ac826114df565b6116b68185611692565b93506116c68185602086016114f9565b6116cf81611507565b840191505092915050565b5f6020820190508181035f8301526116f281846116a2565b905092915050565b5f81519050919050565b5f82825260208201905092915050565b5f819050602082019050919050565b5f60e083015f8301518482035f86015261173d8282611517565b9150506020830151611752602086018261157f565b506040830151848203604086015261176a8282611517565b915050606083015184820360608601526117848282611517565b9150506080830151848203608086015261179e8282611517565b91505060a083015184820360a08601526117b88282611517565b91505060c083015184820360c08601526117d28282611517565b9150508091505092915050565b5f6117ea8383611723565b905092915050565b5f602082019050919050565b5f611808826116fa565b6118128185611704565b93508360208202850161182485611714565b805f5b8581101561185f578484038952815161184085826117df565b945061184b836117f2565b925060208a01995050600181019050611827565b50829750879550505050505092915050565b5f6020820190508181035f83015261188981846117fe565b905092915050565b5f819050919050565b6118a381611891565b82525050565b5f6020820190506118bc5f83018461189a565b92915050565b7f496e636f7272656374207072656d69756d3a206d7573742062652065786163745f8201527f6c7920302e303120455448000000000000000000000000000000000000000000602082015250565b5f61191c602b83611692565b9150611927826118c2565b604082019050919050565b5f6020820190508181035f83015261194981611910565b9050919050565b7f506f6c69637920616c72656164792065786973747320666f72207468697320615f8201527f6464726573730000000000000000000000000000000000000000000000000000602082015250565b5f6119aa602683611692565b91506119b582611950565b604082019050919050565b5f6020820190508181035f8301526119d78161199e565b9050919050565b7f50617373656e676572206e616d652069732072657175697265640000000000005f82015250565b5f611a12601a83611692565b9150611a1d826119de565b602082019050919050565b5f6020820190508181035f830152611a3f81611a06565b9050919050565b7f466c69676874206e756d626572206973207265717569726564000000000000005f82015250565b5f611a7a601983611692565b9150611a8582611a46565b602082019050919050565b5f6020820190508181035f830152611aa781611a6e565b9050919050565b7f466c6967687420646174652069732072657175697265640000000000000000005f82015250565b5f611ae2601783611692565b9150611aed82611aae565b602082019050919050565b5f6020820190508181035f830152611b0f81611ad6565b9050919050565b7f44657061727475726520636974792069732072657175697265640000000000005f82015250565b5f611b4a601a83611692565b9150611b5582611b16565b602082019050919050565b5f6020820190508181035f830152611b7781611b3e565b9050919050565b7f44657374696e6174696f6e2063697479206973207265717569726564000000005f82015250565b5f611bb2601c83611692565b9150611bbd82611b7e565b602082019050919050565b5f6020820190508181035f830152611bdf81611ba6565b9050919050565b5f81905092915050565b828183375f83830152505050565b5f611c098385611be6565b9350611c16838584611bf0565b82840190509392505050565b5f611c2e828486611bfe565b91508190509392505050565b7f44657061727475726520616e642064657374696e6174696f6e206369746965735f8201527f2063616e6e6f74206265207468652073616d6500000000000000000000000000602082015250565b5f611c94603383611692565b9150611c9f82611c3a565b604082019050919050565b5f6020820190508181035f830152611cc181611c88565b9050919050565b7f4e487b71000000000000000000000000000000000000000000000000000000005f52604160045260245ffd5b7f4e487b71000000000000000000000000000000000000000000000000000000005f52602260045260245ffd5b5f6002820490506001821680611d3957607f821691505b602082108103611d4c57611d4b611cf5565b5b50919050565b5f819050815f5260205f209050919050565b5f6020601f8301049050919050565b5f82821b905092915050565b5f60088302611dae7fffffffffffffffffffffffffffffffffffffffffffffffffffffffffffffffff82611d73565b611db88683611d73565b95508019841693508086168417925050509392505050565b5f819050919050565b5f611df3611dee611de984611891565b611dd0565b611891565b9050919050565b5f819050919050565b611e0c83611dd9565b611e20611e1882611dfa565b848454611d7f565b825550505050565b5f90565b611e34611e28565b611e3f818484611e03565b505050565b5b81811015611e6257611e575f82611e2c565b600181019050611e45565b5050565b601f821115611ea757611e7881611d52565b611e8184611d64565b81016020851015611e90578190505b611ea4611e9c85611d64565b830182611e44565b50505b505050565b5f82821c905092915050565b5f611ec75f1984600802611eac565b1980831691505092915050565b5f611edf8383611eb8565b9150826002028217905092915050565b611ef8826114df565b67ffffffffffffffff811115611f1157611f10611cc8565b5b611f1b8254611d22565b611f26828285611e66565b5f60209050601f831160018114611f57575f8415611f45578287015190505b611f4f8582611ed4565b865550611fb6565b601f198416611f6586611d52565b5f5b82811015611f8c57848901518255600182019150602085019450602081019050611f67565b86831015611fa95784890151611fa5601f891682611eb8565b8355505b6001600288020188555050505b505050505050565b7f4e6f20706f6c69637920666f756e6400000000000000000000000000000000005f82015250565b5f611ff2600f83611692565b9150611ffd82611fbe565b602082019050919050565b5f6020820190508181035f83015261201f81611fe6565b9050919050565b7f43616c6c6572206973206e6f742074686520696e737572616e63652070726f765f8201527f6964657200000000000000000000000000000000000000000000000000000000602082015250565b5f612080602483611692565b915061208b82612026565b604082019050919050565b5f6020820190508181035f8301526120ad81612074565b9050919050565b7f4e487b71000000000000000000000000000000000000000000000000000000005f52603260045260245ffd5b7f5265656e7472616e637947756172643a207265656e7472616e742063616c6c005f82015250565b5f612115601f83611692565b9150612120826120e1565b602082019050919050565b5f6020820190508181035f83015261214281612109565b905091905056fe5072656d69756d3a20302e3031204554482c20496e64656d6e6974793a20302e3032204554482c20436f7665726167653a2045787472656d6520576561746865722044656c6179732028652e672e2c206861696c2c20666c6f6f64696e672c206574632e292ea2646970667358221220e730923506d22f7c5e5e3929579b44cb6b8dd08d2fc6f3886ca594b9694c8efe64736f6c634300081a0033",
					"opcodes": "PUSH1 0x80 PUSH1 0x40 MSTORE CALLVALUE DUP1 ISZERO PUSH2 0xF JUMPI PUSH0 DUP1 REVERT JUMPDEST POP PUSH1 0x40 MLOAD PUSH2 0x22F9 CODESIZE SUB DUP1 PUSH2 0x22F9 DUP4 CODECOPY DUP2 DUP2 ADD PUSH1 0x40 MSTORE DUP2 ADD SWAP1 PUSH2 0x31 SWAP2 SWAP1 PUSH2 0xDC JUMP JUMPDEST PUSH1 0x1 PUSH0 DUP2 SWAP1 SSTORE POP DUP1 PUSH1 0x1 PUSH0 PUSH2 0x100 EXP DUP2 SLOAD DUP2 PUSH20 0xFFFFFFFFFFFFFFFFFFFFFFFFFFFFFFFFFFFFFFFF MUL NOT AND SWAP1 DUP4 PUSH20 0xFFFFFFFFFFFFFFFFFFFFFFFFFFFFFFFFFFFFFFFF AND MUL OR SWAP1 SSTORE POP POP PUSH2 0x107 JUMP JUMPDEST PUSH0 DUP1 REVERT JUMPDEST PUSH0 PUSH20 0xFFFFFFFFFFFFFFFFFFFFFFFFFFFFFFFFFFFFFFFF DUP3 AND SWAP1 POP SWAP2 SWAP1 POP JUMP JUMPDEST PUSH0 PUSH2 0xAB DUP3 PUSH2 0x82 JUMP JUMPDEST SWAP1 POP SWAP2 SWAP1 POP JUMP JUMPDEST PUSH2 0xBB DUP2 PUSH2 0xA1 JUMP JUMPDEST DUP2 EQ PUSH2 0xC5 JUMPI PUSH0 DUP1 REVERT JUMPDEST POP JUMP JUMPDEST PUSH0 DUP2 MLOAD SWAP1 POP PUSH2 0xD6 DUP2 PUSH2 0xB2 JUMP JUMPDEST SWAP3 SWAP2 POP POP JUMP JUMPDEST PUSH0 PUSH1 0x20 DUP3 DUP5 SUB SLT ISZERO PUSH2 0xF1 JUMPI PUSH2 0xF0 PUSH2 0x7E JUMP JUMPDEST JUMPDEST PUSH0 PUSH2 0xFE DUP5 DUP3 DUP6 ADD PUSH2 0xC8 JUMP JUMPDEST SWAP2 POP POP SWAP3 SWAP2 POP POP JUMP JUMPDEST PUSH2 0x21E5 DUP1 PUSH2 0x114 PUSH0 CODECOPY PUSH0 RETURN INVALID PUSH1 0x80 PUSH1 0x40 MSTORE PUSH1 0x4 CALLDATASIZE LT PUSH2 0x6F JUMPI PUSH0 CALLDATALOAD PUSH1 0xE0 SHR DUP1 PUSH4 0xB6FC3B2A GT PUSH2 0x4D JUMPI DUP1 PUSH4 0xB6FC3B2A EQ PUSH2 0xE3 JUMPI DUP1 PUSH4 0xC160693D EQ PUSH2 0x10D JUMPI DUP1 PUSH4 0xCD95E777 EQ PUSH2 0x137 JUMPI DUP1 PUSH4 0xEA3696CA EQ PUSH2 0x161 JUMPI PUSH2 0x6F JUMP JUMPDEST DUP1 PUSH4 0x5D02ED12 EQ PUSH2 0x73 JUMPI DUP1 PUSH4 0x963163BD EQ PUSH2 0x8F JUMPI DUP1 PUSH4 0x9955F67C EQ PUSH2 0xB9 JUMPI JUMPDEST PUSH0 DUP1 REVERT JUMPDEST PUSH2 0x8D PUSH1 0x4 DUP1 CALLDATASIZE SUB DUP2 ADD SWAP1 PUSH2 0x88 SWAP2 SWAP1 PUSH2 0x13C8 JUMP JUMPDEST PUSH2 0x18B JUMP JUMPDEST STOP JUMPDEST CALLVALUE DUP1 ISZERO PUSH2 0x9A JUMPI PUSH0 DUP1 REVERT JUMPDEST POP PUSH2 0xA3 PUSH2 0x820 JUMP JUMPDEST PUSH1 0x40 MLOAD PUSH2 0xB0 SWAP2 SWAP1 PUSH2 0x164A JUMP JUMPDEST PUSH1 0x40 MLOAD DUP1 SWAP2 SUB SWAP1 RETURN JUMPDEST CALLVALUE DUP1 ISZERO PUSH2 0xC4 JUMPI PUSH0 DUP1 REVERT JUMPDEST POP PUSH2 0xCD PUSH2 0xCF6 JUMP JUMPDEST PUSH1 0x40 MLOAD PUSH2 0xDA SWAP2 SWAP1 PUSH2 0x1679 JUMP JUMPDEST PUSH1 0x40 MLOAD DUP1 SWAP2 SUB SWAP1 RETURN JUMPDEST CALLVALUE DUP1 ISZERO PUSH2 0xEE JUMPI PUSH0 DUP1 REVERT JUMPDEST POP PUSH2 0xF7 PUSH2 0xD1B JUMP JUMPDEST PUSH1 0x40 MLOAD PUSH2 0x104 SWAP2 SWAP1 PUSH2 0x16DA JUMP JUMPDEST PUSH1 0x40 MLOAD DUP1 SWAP2 SUB SWAP1 RETURN JUMPDEST CALLVALUE DUP1 ISZERO PUSH2 0x118 JUMPI PUSH0 DUP1 REVERT JUMPDEST POP PUSH2 0x121 PUSH2 0xD3B JUMP JUMPDEST PUSH1 0x40 MLOAD PUSH2 0x12E SWAP2 SWAP1 PUSH2 0x1871 JUMP JUMPDEST PUSH1 0x40 MLOAD DUP1 SWAP2 SUB SWAP1 RETURN JUMPDEST CALLVALUE DUP1 ISZERO PUSH2 0x142 JUMPI PUSH0 DUP1 REVERT JUMPDEST POP PUSH2 0x14B PUSH2 0x12A1 JUMP JUMPDEST PUSH1 0x40 MLOAD PUSH2 0x158 SWAP2 SWAP1 PUSH2 0x18A9 JUMP JUMPDEST PUSH1 0x40 MLOAD DUP1 SWAP2 SUB SWAP1 RETURN JUMPDEST CALLVALUE DUP1 ISZERO PUSH2 0x16C JUMPI PUSH0 DUP1 REVERT JUMPDEST POP PUSH2 0x175 PUSH2 0x12AC JUMP JUMPDEST PUSH1 0x40 MLOAD PUSH2 0x182 SWAP2 SWAP1 PUSH2 0x18A9 JUMP JUMPDEST PUSH1 0x40 MLOAD DUP1 SWAP2 SUB SWAP1 RETURN JUMPDEST PUSH2 0x193 PUSH2 0x12B7 JUMP JUMPDEST PUSH7 0x2386F26FC10000 CALLVALUE EQ PUSH2 0x1DC JUMPI PUSH1 0x40 MLOAD PUSH32 0x8C379A000000000000000000000000000000000000000000000000000000000 DUP2 MSTORE PUSH1 0x4 ADD PUSH2 0x1D3 SWAP1 PUSH2 0x1932 JUMP JUMPDEST PUSH1 0x40 MLOAD DUP1 SWAP2 SUB SWAP1 REVERT JUMPDEST PUSH0 PUSH20 0xFFFFFFFFFFFFFFFFFFFFFFFFFFFFFFFFFFFFFFFF AND PUSH1 0x2 PUSH0 CALLER PUSH20 0xFFFFFFFFFFFFFFFFFFFFFFFFFFFFFFFFFFFFFFFF AND PUSH20 0xFFFFFFFFFFFFFFFFFFFFFFFFFFFFFFFFFFFFFFFF AND DUP2 MSTORE PUSH1 0x20 ADD SWAP1 DUP2 MSTORE PUSH1 0x20 ADD PUSH0 KECCAK256 PUSH1 0x1 ADD PUSH0 SWAP1 SLOAD SWAP1 PUSH2 0x100 EXP SWAP1 DIV PUSH20 0xFFFFFFFFFFFFFFFFFFFFFFFFFFFFFFFFFFFFFFFF AND PUSH20 0xFFFFFFFFFFFFFFFFFFFFFFFFFFFFFFFFFFFFFFFF AND EQ PUSH2 0x2A9 JUMPI PUSH1 0x40 MLOAD PUSH32 0x8C379A000000000000000000000000000000000000000000000000000000000 DUP2 MSTORE PUSH1 0x4 ADD PUSH2 0x2A0 SWAP1 PUSH2 0x19C0 JUMP JUMPDEST PUSH1 0x40 MLOAD DUP1 SWAP2 SUB SWAP1 REVERT JUMPDEST PUSH0 DUP11 DUP11 SWAP1 POP GT PUSH2 0x2EE JUMPI PUSH1 0x40 MLOAD PUSH32 0x8C379A000000000000000000000000000000000000000000000000000000000 DUP2 MSTORE PUSH1 0x4 ADD PUSH2 0x2E5 SWAP1 PUSH2 0x1A28 JUMP JUMPDEST PUSH1 0x40 MLOAD DUP1 SWAP2 SUB SWAP1 REVERT JUMPDEST PUSH0 DUP9 DUP9 SWAP1 POP GT PUSH2 0x333 JUMPI PUSH1 0x40 MLOAD PUSH32 0x8C379A000000000000000000000000000000000000000000000000000000000 DUP2 MSTORE PUSH1 0x4 ADD PUSH2 0x32A SWAP1 PUSH2 0x1A90 JUMP JUMPDEST PUSH1 0x40 MLOAD DUP1 SWAP2 SUB SWAP1 REVERT JUMPDEST PUSH0 DUP7 DUP7 SWAP1 POP GT PUSH2 0x378 JUMPI PUSH1 0x40 MLOAD PUSH32 0x8C379A000000000000000000000000000000000000000000000000000000000 DUP2 MSTORE PUSH1 0x4 ADD PUSH2 0x36F SWAP1 PUSH2 0x1AF8 JUMP JUMPDEST PUSH1 0x40 MLOAD DUP1 SWAP2 SUB SWAP1 REVERT JUMPDEST PUSH0 DUP5 DUP5 SWAP1 POP GT PUSH2 0x3BD JUMPI PUSH1 0x40 MLOAD PUSH32 0x8C379A000000000000000000000000000000000000000000000000000000000 DUP2 MSTORE PUSH1 0x4 ADD PUSH2 0x3B4 SWAP1 PUSH2 0x1B60 JUMP JUMPDEST PUSH1 0x40 MLOAD DUP1 SWAP2 SUB SWAP1 REVERT JUMPDEST PUSH0 DUP3 DUP3 SWAP1 POP GT PUSH2 0x402 JUMPI PUSH1 0x40 MLOAD PUSH32 0x8C379A000000000000000000000000000000000000000000000000000000000 DUP2 MSTORE PUSH1 0x4 ADD PUSH2 0x3F9 SWAP1 PUSH2 0x1BC8 JUMP JUMPDEST PUSH1 0x40 MLOAD DUP1 SWAP2 SUB SWAP1 REVERT JUMPDEST DUP2 DUP2 PUSH1 0x40 MLOAD PUSH2 0x412 SWAP3 SWAP2 SWAP1 PUSH2 0x1C22 JUMP JUMPDEST PUSH1 0x40 MLOAD DUP1 SWAP2 SUB SWAP1 KECCAK256 DUP5 DUP5 PUSH1 0x40 MLOAD PUSH2 0x42A SWAP3 SWAP2 SWAP1 PUSH2 0x1C22 JUMP JUMPDEST PUSH1 0x40 MLOAD DUP1 SWAP2 SUB SWAP1 KECCAK256 SUB PUSH2 0x472 JUMPI PUSH1 0x40 MLOAD PUSH32 0x8C379A000000000000000000000000000000000000000000000000000000000 DUP2 MSTORE PUSH1 0x4 ADD PUSH2 0x469 SWAP1 PUSH2 0x1CAA JUMP JUMPDEST PUSH1 0x40 MLOAD DUP1 SWAP2 SUB SWAP1 REVERT JUMPDEST PUSH1 0x40 MLOAD DUP1 PUSH1 0xE0 ADD PUSH1 0x40 MSTORE DUP1 DUP12 DUP12 DUP1 DUP1 PUSH1 0x1F ADD PUSH1 0x20 DUP1 SWAP2 DIV MUL PUSH1 0x20 ADD PUSH1 0x40 MLOAD SWAP1 DUP2 ADD PUSH1 0x40 MSTORE DUP1 SWAP4 SWAP3 SWAP2 SWAP1 DUP2 DUP2 MSTORE PUSH1 0x20 ADD DUP4 DUP4 DUP1 DUP3 DUP5 CALLDATACOPY PUSH0 DUP2 DUP5 ADD MSTORE PUSH1 0x1F NOT PUSH1 0x1F DUP3 ADD AND SWAP1 POP DUP1 DUP4 ADD SWAP3 POP POP POP POP POP POP POP DUP2 MSTORE PUSH1 0x20 ADD CALLER PUSH20 0xFFFFFFFFFFFFFFFFFFFFFFFFFFFFFFFFFFFFFFFF AND DUP2 MSTORE PUSH1 0x20 ADD DUP10 DUP10 DUP1 DUP1 PUSH1 0x1F ADD PUSH1 0x20 DUP1 SWAP2 DIV MUL PUSH1 0x20 ADD PUSH1 0x40 MLOAD SWAP1 DUP2 ADD PUSH1 0x40 MSTORE DUP1 SWAP4 SWAP3 SWAP2 SWAP1 DUP2 DUP2 MSTORE PUSH1 0x20 ADD DUP4 DUP4 DUP1 DUP3 DUP5 CALLDATACOPY PUSH0 DUP2 DUP5 ADD MSTORE PUSH1 0x1F NOT PUSH1 0x1F DUP3 ADD AND SWAP1 POP DUP1 DUP4 ADD SWAP3 POP POP POP POP POP POP POP DUP2 MSTORE PUSH1 0x20 ADD DUP8 DUP8 DUP1 DUP1 PUSH1 0x1F ADD PUSH1 0x20 DUP1 SWAP2 DIV MUL PUSH1 0x20 ADD PUSH1 0x40 MLOAD SWAP1 DUP2 ADD PUSH1 0x40 MSTORE DUP1 SWAP4 SWAP3 SWAP2 SWAP1 DUP2 DUP2 MSTORE PUSH1 0x20 ADD DUP4 DUP4 DUP1 DUP3 DUP5 CALLDATACOPY PUSH0 DUP2 DUP5 ADD MSTORE PUSH1 0x1F NOT PUSH1 0x1F DUP3 ADD AND SWAP1 POP DUP1 DUP4 ADD SWAP3 POP POP POP POP POP POP POP DUP2 MSTORE PUSH1 0x20 ADD DUP6 DUP6 DUP1 DUP1 PUSH1 0x1F ADD PUSH1 0x20 DUP1 SWAP2 DIV MUL PUSH1 0x20 ADD PUSH1 0x40 MLOAD SWAP1 DUP2 ADD PUSH1 0x40 MSTORE DUP1 SWAP4 SWAP3 SWAP2 SWAP1 DUP2 DUP2 MSTORE PUSH1 0x20 ADD DUP4 DUP4 DUP1 DUP3 DUP5 CALLDATACOPY PUSH0 DUP2 DUP5 ADD MSTORE PUSH1 0x1F NOT PUSH1 0x1F DUP3 ADD AND SWAP1 POP DUP1 DUP4 ADD SWAP3 POP POP POP POP POP POP POP DUP2 MSTORE PUSH1 0x20 ADD DUP4 DUP4 DUP1 DUP1 PUSH1 0x1F ADD PUSH1 0x20 DUP1 SWAP2 DIV MUL PUSH1 0x20 ADD PUSH1 0x40 MLOAD SWAP1 DUP2 ADD PUSH1 0x40 MSTORE DUP1 SWAP4 SWAP3 SWAP2 SWAP1 DUP2 DUP2 MSTORE PUSH1 0x20 ADD DUP4 DUP4 DUP1 DUP3 DUP5 CALLDATACOPY PUSH0 DUP2 DUP5 ADD MSTORE PUSH1 0x1F NOT PUSH1 0x1F DUP3 ADD AND SWAP1 POP DUP1 DUP4 ADD SWAP3 POP POP POP POP POP POP POP DUP2 MSTORE PUSH1 0x20 ADD PUSH1 0x40 MLOAD DUP1 PUSH1 0x40 ADD PUSH1 0x40 MSTORE DUP1 PUSH1 0x9 DUP2 MSTORE PUSH1 0x20 ADD PUSH32 0x7075726368617365640000000000000000000000000000000000000000000000 DUP2 MSTORE POP DUP2 MSTORE POP PUSH1 0x2 PUSH0 CALLER PUSH20 0xFFFFFFFFFFFFFFFFFFFFFFFFFFFFFFFFFFFFFFFF AND PUSH20 0xFFFFFFFFFFFFFFFFFFFFFFFFFFFFFFFFFFFFFFFF AND DUP2 MSTORE PUSH1 0x20 ADD SWAP1 DUP2 MSTORE PUSH1 0x20 ADD PUSH0 KECCAK256 PUSH0 DUP3 ADD MLOAD DUP2 PUSH0 ADD SWAP1 DUP2 PUSH2 0x68F SWAP2 SWAP1 PUSH2 0x1EEF JUMP JUMPDEST POP PUSH1 0x20 DUP3 ADD MLOAD DUP2 PUSH1 0x1 ADD PUSH0 PUSH2 0x100 EXP DUP2 SLOAD DUP2 PUSH20 0xFFFFFFFFFFFFFFFFFFFFFFFFFFFFFFFFFFFFFFFF MUL NOT AND SWAP1 DUP4 PUSH20 0xFFFFFFFFFFFFFFFFFFFFFFFFFFFFFFFFFFFFFFFF AND MUL OR SWAP1 SSTORE POP PUSH1 0x40 DUP3 ADD MLOAD DUP2 PUSH1 0x2 ADD SWAP1 DUP2 PUSH2 0x6EB SWAP2 SWAP1 PUSH2 0x1EEF JUMP JUMPDEST POP PUSH1 0x60 DUP3 ADD MLOAD DUP2 PUSH1 0x3 ADD SWAP1 DUP2 PUSH2 0x701 SWAP2 SWAP1 PUSH2 0x1EEF JUMP JUMPDEST POP PUSH1 0x80 DUP3 ADD MLOAD DUP2 PUSH1 0x4 ADD SWAP1 DUP2 PUSH2 0x717 SWAP2 SWAP1 PUSH2 0x1EEF JUMP JUMPDEST POP PUSH1 0xA0 DUP3 ADD MLOAD DUP2 PUSH1 0x5 ADD SWAP1 DUP2 PUSH2 0x72D SWAP2 SWAP1 PUSH2 0x1EEF JUMP JUMPDEST POP PUSH1 0xC0 DUP3 ADD MLOAD DUP2 PUSH1 0x6 ADD SWAP1 DUP2 PUSH2 0x743 SWAP2 SWAP1 PUSH2 0x1EEF JUMP JUMPDEST POP SWAP1 POP POP PUSH1 0x3 CALLER SWAP1 DUP1 PUSH1 0x1 DUP2 SLOAD ADD DUP1 DUP3 SSTORE DUP1 SWAP2 POP POP PUSH1 0x1 SWAP1 SUB SWAP1 PUSH0 MSTORE PUSH1 0x20 PUSH0 KECCAK256 ADD PUSH0 SWAP1 SWAP2 SWAP1 SWAP2 SWAP1 SWAP2 PUSH2 0x100 EXP DUP2 SLOAD DUP2 PUSH20 0xFFFFFFFFFFFFFFFFFFFFFFFFFFFFFFFFFFFFFFFF MUL NOT AND SWAP1 DUP4 PUSH20 0xFFFFFFFFFFFFFFFFFFFFFFFFFFFFFFFFFFFFFFFF AND MUL OR SWAP1 SSTORE POP PUSH1 0x1 PUSH0 SWAP1 SLOAD SWAP1 PUSH2 0x100 EXP SWAP1 DIV PUSH20 0xFFFFFFFFFFFFFFFFFFFFFFFFFFFFFFFFFFFFFFFF AND PUSH20 0xFFFFFFFFFFFFFFFFFFFFFFFFFFFFFFFFFFFFFFFF AND PUSH2 0x8FC CALLVALUE SWAP1 DUP2 ISZERO MUL SWAP1 PUSH1 0x40 MLOAD PUSH0 PUSH1 0x40 MLOAD DUP1 DUP4 SUB DUP2 DUP6 DUP9 DUP9 CALL SWAP4 POP POP POP POP ISZERO DUP1 ISZERO PUSH2 0x80B JUMPI RETURNDATASIZE PUSH0 DUP1 RETURNDATACOPY RETURNDATASIZE PUSH0 REVERT JUMPDEST POP PUSH2 0x814 PUSH2 0x1304 JUMP JUMPDEST POP POP POP POP POP POP POP POP POP POP JUMP JUMPDEST PUSH2 0x828 PUSH2 0x130D JUMP JUMPDEST PUSH0 PUSH20 0xFFFFFFFFFFFFFFFFFFFFFFFFFFFFFFFFFFFFFFFF AND PUSH1 0x2 PUSH0 CALLER PUSH20 0xFFFFFFFFFFFFFFFFFFFFFFFFFFFFFFFFFFFFFFFF AND PUSH20 0xFFFFFFFFFFFFFFFFFFFFFFFFFFFFFFFFFFFFFFFF AND DUP2 MSTORE PUSH1 0x20 ADD SWAP1 DUP2 MSTORE PUSH1 0x20 ADD PUSH0 KECCAK256 PUSH1 0x1 ADD PUSH0 SWAP1 SLOAD SWAP1 PUSH2 0x100 EXP SWAP1 DIV PUSH20 0xFFFFFFFFFFFFFFFFFFFFFFFFFFFFFFFFFFFFFFFF AND PUSH20 0xFFFFFFFFFFFFFFFFFFFFFFFFFFFFFFFFFFFFFFFF AND SUB PUSH2 0x8F5 JUMPI PUSH1 0x40 MLOAD PUSH32 0x8C379A000000000000000000000000000000000000000000000000000000000 DUP2 MSTORE PUSH1 0x4 ADD PUSH2 0x8EC SWAP1 PUSH2 0x2008 JUMP JUMPDEST PUSH1 0x40 MLOAD DUP1 SWAP2 SUB SWAP1 REVERT JUMPDEST PUSH1 0x2 PUSH0 CALLER PUSH20 0xFFFFFFFFFFFFFFFFFFFFFFFFFFFFFFFFFFFFFFFF AND PUSH20 0xFFFFFFFFFFFFFFFFFFFFFFFFFFFFFFFFFFFFFFFF AND DUP2 MSTORE PUSH1 0x20 ADD SWAP1 DUP2 MSTORE PUSH1 0x20 ADD PUSH0 KECCAK256 PUSH1 0x40 MLOAD DUP1 PUSH1 0xE0 ADD PUSH1 0x40 MSTORE SWAP1 DUP2 PUSH0 DUP3 ADD DUP1 SLOAD PUSH2 0x94C SWAP1 PUSH2 0x1D22 JUMP JUMPDEST DUP1 PUSH1 0x1F ADD PUSH1 0x20 DUP1 SWAP2 DIV MUL PUSH1 0x20 ADD PUSH1 0x40 MLOAD SWAP1 DUP2 ADD PUSH1 0x40 MSTORE DUP1 SWAP3 SWAP2 SWAP1 DUP2 DUP2 MSTORE PUSH1 0x20 ADD DUP3 DUP1 SLOAD PUSH2 0x978 SWAP1 PUSH2 0x1D22 JUMP JUMPDEST DUP1 ISZERO PUSH2 0x9C3 JUMPI DUP1 PUSH1 0x1F LT PUSH2 0x99A JUMPI PUSH2 0x100 DUP1 DUP4 SLOAD DIV MUL DUP4 MSTORE SWAP2 PUSH1 0x20 ADD SWAP2 PUSH2 0x9C3 JUMP JUMPDEST DUP3 ADD SWAP2 SWAP1 PUSH0 MSTORE PUSH1 0x20 PUSH0 KECCAK256 SWAP1 JUMPDEST DUP2 SLOAD DUP2 MSTORE SWAP1 PUSH1 0x1 ADD SWAP1 PUSH1 0x20 ADD DUP1 DUP4 GT PUSH2 0x9A6 JUMPI DUP3 SWAP1 SUB PUSH1 0x1F AND DUP3 ADD SWAP2 JUMPDEST POP POP POP POP POP DUP2 MSTORE PUSH1 0x20 ADD PUSH1 0x1 DUP3 ADD PUSH0 SWAP1 SLOAD SWAP1 PUSH2 0x100 EXP SWAP1 DIV PUSH20 0xFFFFFFFFFFFFFFFFFFFFFFFFFFFFFFFFFFFFFFFF AND PUSH20 0xFFFFFFFFFFFFFFFFFFFFFFFFFFFFFFFFFFFFFFFF AND PUSH20 0xFFFFFFFFFFFFFFFFFFFFFFFFFFFFFFFFFFFFFFFF AND DUP2 MSTORE PUSH1 0x20 ADD PUSH1 0x2 DUP3 ADD DUP1 SLOAD PUSH2 0xA31 SWAP1 PUSH2 0x1D22 JUMP JUMPDEST DUP1 PUSH1 0x1F ADD PUSH1 0x20 DUP1 SWAP2 DIV MUL PUSH1 0x20 ADD PUSH1 0x40 MLOAD SWAP1 DUP2 ADD PUSH1 0x40 MSTORE DUP1 SWAP3 SWAP2 SWAP1 DUP2 DUP2 MSTORE PUSH1 0x20 ADD DUP3 DUP1 SLOAD PUSH2 0xA5D SWAP1 PUSH2 0x1D22 JUMP JUMPDEST DUP1 ISZERO PUSH2 0xAA8 JUMPI DUP1 PUSH1 0x1F LT PUSH2 0xA7F JUMPI PUSH2 0x100 DUP1 DUP4 SLOAD DIV MUL DUP4 MSTORE SWAP2 PUSH1 0x20 ADD SWAP2 PUSH2 0xAA8 JUMP JUMPDEST DUP3 ADD SWAP2 SWAP1 PUSH0 MSTORE PUSH1 0x20 PUSH0 KECCAK256 SWAP1 JUMPDEST DUP2 SLOAD DUP2 MSTORE SWAP1 PUSH1 0x1 ADD SWAP1 PUSH1 0x20 ADD DUP1 DUP4 GT PUSH2 0xA8B JUMPI DUP3 SWAP1 SUB PUSH1 0x1F AND DUP3 ADD SWAP2 JUMPDEST POP POP POP POP POP DUP2 MSTORE PUSH1 0x20 ADD PUSH1 0x3 DUP3 ADD DUP1 SLOAD PUSH2 0xAC1 SWAP1 PUSH2 0x1D22 JUMP JUMPDEST DUP1 PUSH1 0x1F ADD PUSH1 0x20 DUP1 SWAP2 DIV MUL PUSH1 0x20 ADD PUSH1 0x40 MLOAD SWAP1 DUP2 ADD PUSH1 0x40 MSTORE DUP1 SWAP3 SWAP2 SWAP1 DUP2 DUP2 MSTORE PUSH1 0x20 ADD DUP3 DUP1 SLOAD PUSH2 0xAED SWAP1 PUSH2 0x1D22 JUMP JUMPDEST DUP1 ISZERO PUSH2 0xB38 JUMPI DUP1 PUSH1 0x1F LT PUSH2 0xB0F JUMPI PUSH2 0x100 DUP1 DUP4 SLOAD DIV MUL DUP4 MSTORE SWAP2 PUSH1 0x20 ADD SWAP2 PUSH2 0xB38 JUMP JUMPDEST DUP3 ADD SWAP2 SWAP1 PUSH0 MSTORE PUSH1 0x20 PUSH0 KECCAK256 SWAP1 JUMPDEST DUP2 SLOAD DUP2 MSTORE SWAP1 PUSH1 0x1 ADD SWAP1 PUSH1 0x20 ADD DUP1 DUP4 GT PUSH2 0xB1B JUMPI DUP3 SWAP1 SUB PUSH1 0x1F AND DUP3 ADD SWAP2 JUMPDEST POP POP POP POP POP DUP2 MSTORE PUSH1 0x20 ADD PUSH1 0x4 DUP3 ADD DUP1 SLOAD PUSH2 0xB51 SWAP1 PUSH2 0x1D22 JUMP JUMPDEST DUP1 PUSH1 0x1F ADD PUSH1 0x20 DUP1 SWAP2 DIV MUL PUSH1 0x20 ADD PUSH1 0x40 MLOAD SWAP1 DUP2 ADD PUSH1 0x40 MSTORE DUP1 SWAP3 SWAP2 SWAP1 DUP2 DUP2 MSTORE PUSH1 0x20 ADD DUP3 DUP1 SLOAD PUSH2 0xB7D SWAP1 PUSH2 0x1D22 JUMP JUMPDEST DUP1 ISZERO PUSH2 0xBC8 JUMPI DUP1 PUSH1 0x1F LT PUSH2 0xB9F JUMPI PUSH2 0x100 DUP1 DUP4 SLOAD DIV MUL DUP4 MSTORE SWAP2 PUSH1 0x20 ADD SWAP2 PUSH2 0xBC8 JUMP JUMPDEST DUP3 ADD SWAP2 SWAP1 PUSH0 MSTORE PUSH1 0x20 PUSH0 KECCAK256 SWAP1 JUMPDEST DUP2 SLOAD DUP2 MSTORE SWAP1 PUSH1 0x1 ADD SWAP1 PUSH1 0x20 ADD DUP1 DUP4 GT PUSH2 0xBAB JUMPI DUP3 SWAP1 SUB PUSH1 0x1F AND DUP3 ADD SWAP2 JUMPDEST POP POP POP POP POP DUP2 MSTORE PUSH1 0x20 ADD PUSH1 0x5 DUP3 ADD DUP1 SLOAD PUSH2 0xBE1 SWAP1 PUSH2 0x1D22 JUMP JUMPDEST DUP1 PUSH1 0x1F ADD PUSH1 0x20 DUP1 SWAP2 DIV MUL PUSH1 0x20 ADD PUSH1 0x40 MLOAD SWAP1 DUP2 ADD PUSH1 0x40 MSTORE DUP1 SWAP3 SWAP2 SWAP1 DUP2 DUP2 MSTORE PUSH1 0x20 ADD DUP3 DUP1 SLOAD PUSH2 0xC0D SWAP1 PUSH2 0x1D22 JUMP JUMPDEST DUP1 ISZERO PUSH2 0xC58 JUMPI DUP1 PUSH1 0x1F LT PUSH2 0xC2F JUMPI PUSH2 0x100 DUP1 DUP4 SLOAD DIV MUL DUP4 MSTORE SWAP2 PUSH1 0x20 ADD SWAP2 PUSH2 0xC58 JUMP JUMPDEST DUP3 ADD SWAP2 SWAP1 PUSH0 MSTORE PUSH1 0x20 PUSH0 KECCAK256 SWAP1 JUMPDEST DUP2 SLOAD DUP2 MSTORE SWAP1 PUSH1 0x1 ADD SWAP1 PUSH1 0x20 ADD DUP1 DUP4 GT PUSH2 0xC3B JUMPI DUP3 SWAP1 SUB PUSH1 0x1F AND DUP3 ADD SWAP2 JUMPDEST POP POP POP POP POP DUP2 MSTORE PUSH1 0x20 ADD PUSH1 0x6 DUP3 ADD DUP1 SLOAD PUSH2 0xC71 SWAP1 PUSH2 0x1D22 JUMP JUMPDEST DUP1 PUSH1 0x1F ADD PUSH1 0x20 DUP1 SWAP2 DIV MUL PUSH1 0x20 ADD PUSH1 0x40 MLOAD SWAP1 DUP2 ADD PUSH1 0x40 MSTORE DUP1 SWAP3 SWAP2 SWAP1 DUP2 DUP2 MSTORE PUSH1 0x20 ADD DUP3 DUP1 SLOAD PUSH2 0xC9D SWAP1 PUSH2 0x1D22 JUMP JUMPDEST DUP1 ISZERO PUSH2 0xCE8 JUMPI DUP1 PUSH1 0x1F LT PUSH2 0xCBF JUMPI PUSH2 0x100 DUP1 DUP4 SLOAD DIV MUL DUP4 MSTORE SWAP2 PUSH1 0x20 ADD SWAP2 PUSH2 0xCE8 JUMP JUMPDEST DUP3 ADD SWAP2 SWAP1 PUSH0 MSTORE PUSH1 0x20 PUSH0 KECCAK256 SWAP1 JUMPDEST DUP2 SLOAD DUP2 MSTORE SWAP1 PUSH1 0x1 ADD SWAP1 PUSH1 0x20 ADD DUP1 DUP4 GT PUSH2 0xCCB JUMPI DUP3 SWAP1 SUB PUSH1 0x1F AND DUP3 ADD SWAP2 JUMPDEST POP POP POP POP POP DUP2 MSTORE POP POP SWAP1 POP SWAP1 JUMP JUMPDEST PUSH1 0x1 PUSH0 SWAP1 SLOAD SWAP1 PUSH2 0x100 EXP SWAP1 DIV PUSH20 0xFFFFFFFFFFFFFFFFFFFFFFFFFFFFFFFFFFFFFFFF AND DUP2 JUMP JUMPDEST PUSH1 0x60 PUSH1 0x40 MLOAD DUP1 PUSH1 0xA0 ADD PUSH1 0x40 MSTORE DUP1 PUSH1 0x66 DUP2 MSTORE PUSH1 0x20 ADD PUSH2 0x214A PUSH1 0x66 SWAP2 CODECOPY SWAP1 POP SWAP1 JUMP JUMPDEST PUSH1 0x60 PUSH1 0x1 PUSH0 SWAP1 SLOAD SWAP1 PUSH2 0x100 EXP SWAP1 DIV PUSH20 0xFFFFFFFFFFFFFFFFFFFFFFFFFFFFFFFFFFFFFFFF AND PUSH20 0xFFFFFFFFFFFFFFFFFFFFFFFFFFFFFFFFFFFFFFFF AND CALLER PUSH20 0xFFFFFFFFFFFFFFFFFFFFFFFFFFFFFFFFFFFFFFFF AND EQ PUSH2 0xDCC JUMPI PUSH1 0x40 MLOAD PUSH32 0x8C379A000000000000000000000000000000000000000000000000000000000 DUP2 MSTORE PUSH1 0x4 ADD PUSH2 0xDC3 SWAP1 PUSH2 0x2096 JUMP JUMPDEST PUSH1 0x40 MLOAD DUP1 SWAP2 SUB SWAP1 REVERT JUMPDEST PUSH0 PUSH1 0x3 DUP1 SLOAD SWAP1 POP PUSH8 0xFFFFFFFFFFFFFFFF DUP2 GT ISZERO PUSH2 0xDEC JUMPI PUSH2 0xDEB PUSH2 0x1CC8 JUMP JUMPDEST JUMPDEST PUSH1 0x40 MLOAD SWAP1 DUP1 DUP3 MSTORE DUP1 PUSH1 0x20 MUL PUSH1 0x20 ADD DUP3 ADD PUSH1 0x40 MSTORE DUP1 ISZERO PUSH2 0xE25 JUMPI DUP2 PUSH1 0x20 ADD JUMPDEST PUSH2 0xE12 PUSH2 0x130D JUMP JUMPDEST DUP2 MSTORE PUSH1 0x20 ADD SWAP1 PUSH1 0x1 SWAP1 SUB SWAP1 DUP2 PUSH2 0xE0A JUMPI SWAP1 POP JUMPDEST POP SWAP1 POP PUSH0 JUMPDEST PUSH1 0x3 DUP1 SLOAD SWAP1 POP DUP2 LT ISZERO PUSH2 0x1299 JUMPI PUSH1 0x2 PUSH0 PUSH1 0x3 DUP4 DUP2 SLOAD DUP2 LT PUSH2 0xE4E JUMPI PUSH2 0xE4D PUSH2 0x20B4 JUMP JUMPDEST JUMPDEST SWAP1 PUSH0 MSTORE PUSH1 0x20 PUSH0 KECCAK256 ADD PUSH0 SWAP1 SLOAD SWAP1 PUSH2 0x100 EXP SWAP1 DIV PUSH20 0xFFFFFFFFFFFFFFFFFFFFFFFFFFFFFFFFFFFFFFFF AND PUSH20 0xFFFFFFFFFFFFFFFFFFFFFFFFFFFFFFFFFFFFFFFF AND PUSH20 0xFFFFFFFFFFFFFFFFFFFFFFFFFFFFFFFFFFFFFFFF AND DUP2 MSTORE PUSH1 0x20 ADD SWAP1 DUP2 MSTORE PUSH1 0x20 ADD PUSH0 KECCAK256 PUSH1 0x40 MLOAD DUP1 PUSH1 0xE0 ADD PUSH1 0x40 MSTORE SWAP1 DUP2 PUSH0 DUP3 ADD DUP1 SLOAD PUSH2 0xEC9 SWAP1 PUSH2 0x1D22 JUMP JUMPDEST DUP1 PUSH1 0x1F ADD PUSH1 0x20 DUP1 SWAP2 DIV MUL PUSH1 0x20 ADD PUSH1 0x40 MLOAD SWAP1 DUP2 ADD PUSH1 0x40 MSTORE DUP1 SWAP3 SWAP2 SWAP1 DUP2 DUP2 MSTORE PUSH1 0x20 ADD DUP3 DUP1 SLOAD PUSH2 0xEF5 SWAP1 PUSH2 0x1D22 JUMP JUMPDEST DUP1 ISZERO PUSH2 0xF40 JUMPI DUP1 PUSH1 0x1F LT PUSH2 0xF17 JUMPI PUSH2 0x100 DUP1 DUP4 SLOAD DIV MUL DUP4 MSTORE SWAP2 PUSH1 0x20 ADD SWAP2 PUSH2 0xF40 JUMP JUMPDEST DUP3 ADD SWAP2 SWAP1 PUSH0 MSTORE PUSH1 0x20 PUSH0 KECCAK256 SWAP1 JUMPDEST DUP2 SLOAD DUP2 MSTORE SWAP1 PUSH1 0x1 ADD SWAP1 PUSH1 0x20 ADD DUP1 DUP4 GT PUSH2 0xF23 JUMPI DUP3 SWAP1 SUB PUSH1 0x1F AND DUP3 ADD SWAP2 JUMPDEST POP POP POP POP POP DUP2 MSTORE PUSH1 0x20 ADD PUSH1 0x1 DUP3 ADD PUSH0 SWAP1 SLOAD SWAP1 PUSH2 0x100 EXP SWAP1 DIV PUSH20 0xFFFFFFFFFFFFFFFFFFFFFFFFFFFFFFFFFFFFFFFF AND PUSH20 0xFFFFFFFFFFFFFFFFFFFFFFFFFFFFFFFFFFFFFFFF AND PUSH20 0xFFFFFFFFFFFFFFFFFFFFFFFFFFFFFFFFFFFFFFFF AND DUP2 MSTORE PUSH1 0x20 ADD PUSH1 0x2 DUP3 ADD DUP1 SLOAD PUSH2 0xFAE SWAP1 PUSH2 0x1D22 JUMP JUMPDEST DUP1 PUSH1 0x1F ADD PUSH1 0x20 DUP1 SWAP2 DIV MUL PUSH1 0x20 ADD PUSH1 0x40 MLOAD SWAP1 DUP2 ADD PUSH1 0x40 MSTORE DUP1 SWAP3 SWAP2 SWAP1 DUP2 DUP2 MSTORE PUSH1 0x20 ADD DUP3 DUP1 SLOAD PUSH2 0xFDA SWAP1 PUSH2 0x1D22 JUMP JUMPDEST DUP1 ISZERO PUSH2 0x1025 JUMPI DUP1 PUSH1 0x1F LT PUSH2 0xFFC JUMPI PUSH2 0x100 DUP1 DUP4 SLOAD DIV MUL DUP4 MSTORE SWAP2 PUSH1 0x20 ADD SWAP2 PUSH2 0x1025 JUMP JUMPDEST DUP3 ADD SWAP2 SWAP1 PUSH0 MSTORE PUSH1 0x20 PUSH0 KECCAK256 SWAP1 JUMPDEST DUP2 SLOAD DUP2 MSTORE SWAP1 PUSH1 0x1 ADD SWAP1 PUSH1 0x20 ADD DUP1 DUP4 GT PUSH2 0x1008 JUMPI DUP3 SWAP1 SUB PUSH1 0x1F AND DUP3 ADD SWAP2 JUMPDEST POP POP POP POP POP DUP2 MSTORE PUSH1 0x20 ADD PUSH1 0x3 DUP3 ADD DUP1 SLOAD PUSH2 0x103E SWAP1 PUSH2 0x1D22 JUMP JUMPDEST DUP1 PUSH1 0x1F ADD PUSH1 0x20 DUP1 SWAP2 DIV MUL PUSH1 0x20 ADD PUSH1 0x40 MLOAD SWAP1 DUP2 ADD PUSH1 0x40 MSTORE DUP1 SWAP3 SWAP2 SWAP1 DUP2 DUP2 MSTORE PUSH1 0x20 ADD DUP3 DUP1 SLOAD PUSH2 0x106A SWAP1 PUSH2 0x1D22 JUMP JUMPDEST DUP1 ISZERO PUSH2 0x10B5 JUMPI DUP1 PUSH1 0x1F LT PUSH2 0x108C JUMPI PUSH2 0x100 DUP1 DUP4 SLOAD DIV MUL DUP4 MSTORE SWAP2 PUSH1 0x20 ADD SWAP2 PUSH2 0x10B5 JUMP JUMPDEST DUP3 ADD SWAP2 SWAP1 PUSH0 MSTORE PUSH1 0x20 PUSH0 KECCAK256 SWAP1 JUMPDEST DUP2 SLOAD DUP2 MSTORE SWAP1 PUSH1 0x1 ADD SWAP1 PUSH1 0x20 ADD DUP1 DUP4 GT PUSH2 0x1098 JUMPI DUP3 SWAP1 SUB PUSH1 0x1F AND DUP3 ADD SWAP2 JUMPDEST POP POP POP POP POP DUP2 MSTORE PUSH1 0x20 ADD PUSH1 0x4 DUP3 ADD DUP1 SLOAD PUSH2 0x10CE SWAP1 PUSH2 0x1D22 JUMP JUMPDEST DUP1 PUSH1 0x1F ADD PUSH1 0x20 DUP1 SWAP2 DIV MUL PUSH1 0x20 ADD PUSH1 0x40 MLOAD SWAP1 DUP2 ADD PUSH1 0x40 MSTORE DUP1 SWAP3 SWAP2 SWAP1 DUP2 DUP2 MSTORE PUSH1 0x20 ADD DUP3 DUP1 SLOAD PUSH2 0x10FA SWAP1 PUSH2 0x1D22 JUMP JUMPDEST DUP1 ISZERO PUSH2 0x1145 JUMPI DUP1 PUSH1 0x1F LT PUSH2 0x111C JUMPI PUSH2 0x100 DUP1 DUP4 SLOAD DIV MUL DUP4 MSTORE SWAP2 PUSH1 0x20 ADD SWAP2 PUSH2 0x1145 JUMP JUMPDEST DUP3 ADD SWAP2 SWAP1 PUSH0 MSTORE PUSH1 0x20 PUSH0 KECCAK256 SWAP1 JUMPDEST DUP2 SLOAD DUP2 MSTORE SWAP1 PUSH1 0x1 ADD SWAP1 PUSH1 0x20 ADD DUP1 DUP4 GT PUSH2 0x1128 JUMPI DUP3 SWAP1 SUB PUSH1 0x1F AND DUP3 ADD SWAP2 JUMPDEST POP POP POP POP POP DUP2 MSTORE PUSH1 0x20 ADD PUSH1 0x5 DUP3 ADD DUP1 SLOAD PUSH2 0x115E SWAP1 PUSH2 0x1D22 JUMP JUMPDEST DUP1 PUSH1 0x1F ADD PUSH1 0x20 DUP1 SWAP2 DIV MUL PUSH1 0x20 ADD PUSH1 0x40 MLOAD SWAP1 DUP2 ADD PUSH1 0x40 MSTORE DUP1 SWAP3 SWAP2 SWAP1 DUP2 DUP2 MSTORE PUSH1 0x20 ADD DUP3 DUP1 SLOAD PUSH2 0x118A SWAP1 PUSH2 0x1D22 JUMP JUMPDEST DUP1 ISZERO PUSH2 0x11D5 JUMPI DUP1 PUSH1 0x1F LT PUSH2 0x11AC JUMPI PUSH2 0x100 DUP1 DUP4 SLOAD DIV MUL DUP4 MSTORE SWAP2 PUSH1 0x20 ADD SWAP2 PUSH2 0x11D5 JUMP JUMPDEST DUP3 ADD SWAP2 SWAP1 PUSH0 MSTORE PUSH1 0x20 PUSH0 KECCAK256 SWAP1 JUMPDEST DUP2 SLOAD DUP2 MSTORE SWAP1 PUSH1 0x1 ADD SWAP1 PUSH1 0x20 ADD DUP1 DUP4 GT PUSH2 0x11B8 JUMPI DUP3 SWAP1 SUB PUSH1 0x1F AND DUP3 ADD SWAP2 JUMPDEST POP POP POP POP POP DUP2 MSTORE PUSH1 0x20 ADD PUSH1 0x6 DUP3 ADD DUP1 SLOAD PUSH2 0x11EE SWAP1 PUSH2 0x1D22 JUMP JUMPDEST DUP1 PUSH1 0x1F ADD PUSH1 0x20 DUP1 SWAP2 DIV MUL PUSH1 0x20 ADD PUSH1 0x40 MLOAD SWAP1 DUP2 ADD PUSH1 0x40 MSTORE DUP1 SWAP3 SWAP2 SWAP1 DUP2 DUP2 MSTORE PUSH1 0x20 ADD DUP3 DUP1 SLOAD PUSH2 0x121A SWAP1 PUSH2 0x1D22 JUMP JUMPDEST DUP1 ISZERO PUSH2 0x1265 JUMPI DUP1 PUSH1 0x1F LT PUSH2 0x123C JUMPI PUSH2 0x100 DUP1 DUP4 SLOAD DIV MUL DUP4 MSTORE SWAP2 PUSH1 0x20 ADD SWAP2 PUSH2 0x1265 JUMP JUMPDEST DUP3 ADD SWAP2 SWAP1 PUSH0 MSTORE PUSH1 0x20 PUSH0 KECCAK256 SWAP1 JUMPDEST DUP2 SLOAD DUP2 MSTORE SWAP1 PUSH1 0x1 ADD SWAP1 PUSH1 0x20 ADD DUP1 DUP4 GT PUSH2 0x1248 JUMPI DUP3 SWAP1 SUB PUSH1 0x1F AND DUP3 ADD SWAP2 JUMPDEST POP POP POP POP POP DUP2 MSTORE POP POP DUP3 DUP3 DUP2 MLOAD DUP2 LT PUSH2 0x1281 JUMPI PUSH2 0x1280 PUSH2 0x20B4 JUMP JUMPDEST JUMPDEST PUSH1 0x20 MUL PUSH1 0x20 ADD ADD DUP2 SWAP1 MSTORE POP DUP1 DUP1 PUSH1 0x1 ADD SWAP2 POP POP PUSH2 0xE2A JUMP JUMPDEST POP DUP1 SWAP2 POP POP SWAP1 JUMP JUMPDEST PUSH7 0x470DE4DF820000 DUP2 JUMP JUMPDEST PUSH7 0x2386F26FC10000 DUP2 JUMP JUMPDEST PUSH1 0x2 PUSH0 SLOAD SUB PUSH2 0x12FB JUMPI PUSH1 0x40 MLOAD PUSH32 0x8C379A000000000000000000000000000000000000000000000000000000000 DUP2 MSTORE PUSH1 0x4 ADD PUSH2 0x12F2 SWAP1 PUSH2 0x212B JUMP JUMPDEST PUSH1 0x40 MLOAD DUP1 SWAP2 SUB SWAP1 REVERT JUMPDEST PUSH1 0x2 PUSH0 DUP2 SWAP1 SSTORE POP JUMP JUMPDEST PUSH1 0x1 PUSH0 DUP2 SWAP1 SSTORE POP JUMP JUMPDEST PUSH1 0x40 MLOAD DUP1 PUSH1 0xE0 ADD PUSH1 0x40 MSTORE DUP1 PUSH1 0x60 DUP2 MSTORE PUSH1 0x20 ADD PUSH0 PUSH20 0xFFFFFFFFFFFFFFFFFFFFFFFFFFFFFFFFFFFFFFFF AND DUP2 MSTORE PUSH1 0x20 ADD PUSH1 0x60 DUP2 MSTORE PUSH1 0x20 ADD PUSH1 0x60 DUP2 MSTORE PUSH1 0x20 ADD PUSH1 0x60 DUP2 MSTORE PUSH1 0x20 ADD PUSH1 0x60 DUP2 MSTORE PUSH1 0x20 ADD PUSH1 0x60 DUP2 MSTORE POP SWAP1 JUMP JUMPDEST PUSH0 DUP1 REVERT JUMPDEST PUSH0 DUP1 REVERT JUMPDEST PUSH0 DUP1 REVERT JUMPDEST PUSH0 DUP1 REVERT JUMPDEST PUSH0 DUP1 REVERT JUMPDEST PUSH0 DUP1 DUP4 PUSH1 0x1F DUP5 ADD SLT PUSH2 0x1388 JUMPI PUSH2 0x1387 PUSH2 0x1367 JUMP JUMPDEST JUMPDEST DUP3 CALLDATALOAD SWAP1 POP PUSH8 0xFFFFFFFFFFFFFFFF DUP2 GT ISZERO PUSH2 0x13A5 JUMPI PUSH2 0x13A4 PUSH2 0x136B JUMP JUMPDEST JUMPDEST PUSH1 0x20 DUP4 ADD SWAP2 POP DUP4 PUSH1 0x1 DUP3 MUL DUP4 ADD GT ISZERO PUSH2 0x13C1 JUMPI PUSH2 0x13C0 PUSH2 0x136F JUMP JUMPDEST JUMPDEST SWAP3 POP SWAP3 SWAP1 POP JUMP JUMPDEST PUSH0 DUP1 PUSH0 DUP1 PUSH0 DUP1 PUSH0 DUP1 PUSH0 DUP1 PUSH1 0xA0 DUP12 DUP14 SUB SLT ISZERO PUSH2 0x13E6 JUMPI PUSH2 0x13E5 PUSH2 0x135F JUMP JUMPDEST JUMPDEST PUSH0 DUP12 ADD CALLDATALOAD PUSH8 0xFFFFFFFFFFFFFFFF DUP2 GT ISZERO PUSH2 0x1403 JUMPI PUSH2 0x1402 PUSH2 0x1363 JUMP JUMPDEST JUMPDEST PUSH2 0x140F DUP14 DUP3 DUP15 ADD PUSH2 0x1373 JUMP JUMPDEST SWAP11 POP SWAP11 POP POP PUSH1 0x20 DUP12 ADD CALLDATALOAD PUSH8 0xFFFFFFFFFFFFFFFF DUP2 GT ISZERO PUSH2 0x1432 JUMPI PUSH2 0x1431 PUSH2 0x1363 JUMP JUMPDEST JUMPDEST PUSH2 0x143E DUP14 DUP3 DUP15 ADD PUSH2 0x1373 JUMP JUMPDEST SWAP9 POP SWAP9 POP POP PUSH1 0x40 DUP12 ADD CALLDATALOAD PUSH8 0xFFFFFFFFFFFFFFFF DUP2 GT ISZERO PUSH2 0x1461 JUMPI PUSH2 0x1460 PUSH2 0x1363 JUMP JUMPDEST JUMPDEST PUSH2 0x146D DUP14 DUP3 DUP15 ADD PUSH2 0x1373 JUMP JUMPDEST SWAP7 POP SWAP7 POP POP PUSH1 0x60 DUP12 ADD CALLDATALOAD PUSH8 0xFFFFFFFFFFFFFFFF DUP2 GT ISZERO PUSH2 0x1490 JUMPI PUSH2 0x148F PUSH2 0x1363 JUMP JUMPDEST JUMPDEST PUSH2 0x149C DUP14 DUP3 DUP15 ADD PUSH2 0x1373 JUMP JUMPDEST SWAP5 POP SWAP5 POP POP PUSH1 0x80 DUP12 ADD CALLDATALOAD PUSH8 0xFFFFFFFFFFFFFFFF DUP2 GT ISZERO PUSH2 0x14BF JUMPI PUSH2 0x14BE PUSH2 0x1363 JUMP JUMPDEST JUMPDEST PUSH2 0x14CB DUP14 DUP3 DUP15 ADD PUSH2 0x1373 JUMP JUMPDEST SWAP3 POP SWAP3 POP POP SWAP3 SWAP6 SWAP9 SWAP12 SWAP2 SWAP5 SWAP8 SWAP11 POP SWAP3 SWAP6 SWAP9 POP JUMP JUMPDEST PUSH0 DUP2 MLOAD SWAP1 POP SWAP2 SWAP1 POP JUMP JUMPDEST PUSH0 DUP3 DUP3 MSTORE PUSH1 0x20 DUP3 ADD SWAP1 POP SWAP3 SWAP2 POP POP JUMP JUMPDEST DUP3 DUP2 DUP4 MCOPY PUSH0 DUP4 DUP4 ADD MSTORE POP POP POP JUMP JUMPDEST PUSH0 PUSH1 0x1F NOT PUSH1 0x1F DUP4 ADD AND SWAP1 POP SWAP2 SWAP1 POP JUMP JUMPDEST PUSH0 PUSH2 0x1521 DUP3 PUSH2 0x14DF JUMP JUMPDEST PUSH2 0x152B DUP2 DUP6 PUSH2 0x14E9 JUMP JUMPDEST SWAP4 POP PUSH2 0x153B DUP2 DUP6 PUSH1 0x20 DUP7 ADD PUSH2 0x14F9 JUMP JUMPDEST PUSH2 0x1544 DUP2 PUSH2 0x1507 JUMP JUMPDEST DUP5 ADD SWAP2 POP POP SWAP3 SWAP2 POP POP JUMP JUMPDEST PUSH0 PUSH20 0xFFFFFFFFFFFFFFFFFFFFFFFFFFFFFFFFFFFFFFFF DUP3 AND SWAP1 POP SWAP2 SWAP1 POP JUMP JUMPDEST PUSH0 PUSH2 0x1578 DUP3 PUSH2 0x154F JUMP JUMPDEST SWAP1 POP SWAP2 SWAP1 POP JUMP JUMPDEST PUSH2 0x1588 DUP2 PUSH2 0x156E JUMP JUMPDEST DUP3 MSTORE POP POP JUMP JUMPDEST PUSH0 PUSH1 0xE0 DUP4 ADD PUSH0 DUP4 ADD MLOAD DUP5 DUP3 SUB PUSH0 DUP7 ADD MSTORE PUSH2 0x15A8 DUP3 DUP3 PUSH2 0x1517 JUMP JUMPDEST SWAP2 POP POP PUSH1 0x20 DUP4 ADD MLOAD PUSH2 0x15BD PUSH1 0x20 DUP7 ADD DUP3 PUSH2 0x157F JUMP JUMPDEST POP PUSH1 0x40 DUP4 ADD MLOAD DUP5 DUP3 SUB PUSH1 0x40 DUP7 ADD MSTORE PUSH2 0x15D5 DUP3 DUP3 PUSH2 0x1517 JUMP JUMPDEST SWAP2 POP POP PUSH1 0x60 DUP4 ADD MLOAD DUP5 DUP3 SUB PUSH1 0x60 DUP7 ADD MSTORE PUSH2 0x15EF DUP3 DUP3 PUSH2 0x1517 JUMP JUMPDEST SWAP2 POP POP PUSH1 0x80 DUP4 ADD MLOAD DUP5 DUP3 SUB PUSH1 0x80 DUP7 ADD MSTORE PUSH2 0x1609 DUP3 DUP3 PUSH2 0x1517 JUMP JUMPDEST SWAP2 POP POP PUSH1 0xA0 DUP4 ADD MLOAD DUP5 DUP3 SUB PUSH1 0xA0 DUP7 ADD MSTORE PUSH2 0x1623 DUP3 DUP3 PUSH2 0x1517 JUMP JUMPDEST SWAP2 POP POP PUSH1 0xC0 DUP4 ADD MLOAD DUP5 DUP3 SUB PUSH1 0xC0 DUP7 ADD MSTORE PUSH2 0x163D DUP3 DUP3 PUSH2 0x1517 JUMP JUMPDEST SWAP2 POP POP DUP1 SWAP2 POP POP SWAP3 SWAP2 POP POP JUMP JUMPDEST PUSH0 PUSH1 0x20 DUP3 ADD SWAP1 POP DUP2 DUP2 SUB PUSH0 DUP4 ADD MSTORE PUSH2 0x1662 DUP2 DUP5 PUSH2 0x158E JUMP JUMPDEST SWAP1 POP SWAP3 SWAP2 POP POP JUMP JUMPDEST PUSH2 0x1673 DUP2 PUSH2 0x156E JUMP JUMPDEST DUP3 MSTORE POP POP JUMP JUMPDEST PUSH0 PUSH1 0x20 DUP3 ADD SWAP1 POP PUSH2 0x168C PUSH0 DUP4 ADD DUP5 PUSH2 0x166A JUMP JUMPDEST SWAP3 SWAP2 POP POP JUMP JUMPDEST PUSH0 DUP3 DUP3 MSTORE PUSH1 0x20 DUP3 ADD SWAP1 POP SWAP3 SWAP2 POP POP JUMP JUMPDEST PUSH0 PUSH2 0x16AC DUP3 PUSH2 0x14DF JUMP JUMPDEST PUSH2 0x16B6 DUP2 DUP6 PUSH2 0x1692 JUMP JUMPDEST SWAP4 POP PUSH2 0x16C6 DUP2 DUP6 PUSH1 0x20 DUP7 ADD PUSH2 0x14F9 JUMP JUMPDEST PUSH2 0x16CF DUP2 PUSH2 0x1507 JUMP JUMPDEST DUP5 ADD SWAP2 POP POP SWAP3 SWAP2 POP POP JUMP JUMPDEST PUSH0 PUSH1 0x20 DUP3 ADD SWAP1 POP DUP2 DUP2 SUB PUSH0 DUP4 ADD MSTORE PUSH2 0x16F2 DUP2 DUP5 PUSH2 0x16A2 JUMP JUMPDEST SWAP1 POP SWAP3 SWAP2 POP POP JUMP JUMPDEST PUSH0 DUP2 MLOAD SWAP1 POP SWAP2 SWAP1 POP JUMP JUMPDEST PUSH0 DUP3 DUP3 MSTORE PUSH1 0x20 DUP3 ADD SWAP1 POP SWAP3 SWAP2 POP POP JUMP JUMPDEST PUSH0 DUP2 SWAP1 POP PUSH1 0x20 DUP3 ADD SWAP1 POP SWAP2 SWAP1 POP JUMP JUMPDEST PUSH0 PUSH1 0xE0 DUP4 ADD PUSH0 DUP4 ADD MLOAD DUP5 DUP3 SUB PUSH0 DUP7 ADD MSTORE PUSH2 0x173D DUP3 DUP3 PUSH2 0x1517 JUMP JUMPDEST SWAP2 POP POP PUSH1 0x20 DUP4 ADD MLOAD PUSH2 0x1752 PUSH1 0x20 DUP7 ADD DUP3 PUSH2 0x157F JUMP JUMPDEST POP PUSH1 0x40 DUP4 ADD MLOAD DUP5 DUP3 SUB PUSH1 0x40 DUP7 ADD MSTORE PUSH2 0x176A DUP3 DUP3 PUSH2 0x1517 JUMP JUMPDEST SWAP2 POP POP PUSH1 0x60 DUP4 ADD MLOAD DUP5 DUP3 SUB PUSH1 0x60 DUP7 ADD MSTORE PUSH2 0x1784 DUP3 DUP3 PUSH2 0x1517 JUMP JUMPDEST SWAP2 POP POP PUSH1 0x80 DUP4 ADD MLOAD DUP5 DUP3 SUB PUSH1 0x80 DUP7 ADD MSTORE PUSH2 0x179E DUP3 DUP3 PUSH2 0x1517 JUMP JUMPDEST SWAP2 POP POP PUSH1 0xA0 DUP4 ADD MLOAD DUP5 DUP3 SUB PUSH1 0xA0 DUP7 ADD MSTORE PUSH2 0x17B8 DUP3 DUP3 PUSH2 0x1517 JUMP JUMPDEST SWAP2 POP POP PUSH1 0xC0 DUP4 ADD MLOAD DUP5 DUP3 SUB PUSH1 0xC0 DUP7 ADD MSTORE PUSH2 0x17D2 DUP3 DUP3 PUSH2 0x1517 JUMP JUMPDEST SWAP2 POP POP DUP1 SWAP2 POP POP SWAP3 SWAP2 POP POP JUMP JUMPDEST PUSH0 PUSH2 0x17EA DUP4 DUP4 PUSH2 0x1723 JUMP JUMPDEST SWAP1 POP SWAP3 SWAP2 POP POP JUMP JUMPDEST PUSH0 PUSH1 0x20 DUP3 ADD SWAP1 POP SWAP2 SWAP1 POP JUMP JUMPDEST PUSH0 PUSH2 0x1808 DUP3 PUSH2 0x16FA JUMP JUMPDEST PUSH2 0x1812 DUP2 DUP6 PUSH2 0x1704 JUMP JUMPDEST SWAP4 POP DUP4 PUSH1 0x20 DUP3 MUL DUP6 ADD PUSH2 0x1824 DUP6 PUSH2 0x1714 JUMP JUMPDEST DUP1 PUSH0 JUMPDEST DUP6 DUP2 LT ISZERO PUSH2 0x185F JUMPI DUP5 DUP5 SUB DUP10 MSTORE DUP2 MLOAD PUSH2 0x1840 DUP6 DUP3 PUSH2 0x17DF JUMP JUMPDEST SWAP5 POP PUSH2 0x184B DUP4 PUSH2 0x17F2 JUMP JUMPDEST SWAP3 POP PUSH1 0x20 DUP11 ADD SWAP10 POP POP PUSH1 0x1 DUP2 ADD SWAP1 POP PUSH2 0x1827 JUMP JUMPDEST POP DUP3 SWAP8 POP DUP8 SWAP6 POP POP POP POP POP POP SWAP3 SWAP2 POP POP JUMP JUMPDEST PUSH0 PUSH1 0x20 DUP3 ADD SWAP1 POP DUP2 DUP2 SUB PUSH0 DUP4 ADD MSTORE PUSH2 0x1889 DUP2 DUP5 PUSH2 0x17FE JUMP JUMPDEST SWAP1 POP SWAP3 SWAP2 POP POP JUMP JUMPDEST PUSH0 DUP2 SWAP1 POP SWAP2 SWAP1 POP JUMP JUMPDEST PUSH2 0x18A3 DUP2 PUSH2 0x1891 JUMP JUMPDEST DUP3 MSTORE POP POP JUMP JUMPDEST PUSH0 PUSH1 0x20 DUP3 ADD SWAP1 POP PUSH2 0x18BC PUSH0 DUP4 ADD DUP5 PUSH2 0x189A JUMP JUMPDEST SWAP3 SWAP2 POP POP JUMP JUMPDEST PUSH32 0x496E636F7272656374207072656D69756D3A206D757374206265206578616374 PUSH0 DUP3 ADD MSTORE PUSH32 0x6C7920302E303120455448000000000000000000000000000000000000000000 PUSH1 0x20 DUP3 ADD MSTORE POP JUMP JUMPDEST PUSH0 PUSH2 0x191C PUSH1 0x2B DUP4 PUSH2 0x1692 JUMP JUMPDEST SWAP2 POP PUSH2 0x1927 DUP3 PUSH2 0x18C2 JUMP JUMPDEST PUSH1 0x40 DUP3 ADD SWAP1 POP SWAP2 SWAP1 POP JUMP JUMPDEST PUSH0 PUSH1 0x20 DUP3 ADD SWAP1 POP DUP2 DUP2 SUB PUSH0 DUP4 ADD MSTORE PUSH2 0x1949 DUP2 PUSH2 0x1910 JUMP JUMPDEST SWAP1 POP SWAP2 SWAP1 POP JUMP JUMPDEST PUSH32 0x506F6C69637920616C72656164792065786973747320666F7220746869732061 PUSH0 DUP3 ADD MSTORE PUSH32 0x6464726573730000000000000000000000000000000000000000000000000000 PUSH1 0x20 DUP3 ADD MSTORE POP JUMP JUMPDEST PUSH0 PUSH2 0x19AA PUSH1 0x26 DUP4 PUSH2 0x1692 JUMP JUMPDEST SWAP2 POP PUSH2 0x19B5 DUP3 PUSH2 0x1950 JUMP JUMPDEST PUSH1 0x40 DUP3 ADD SWAP1 POP SWAP2 SWAP1 POP JUMP JUMPDEST PUSH0 PUSH1 0x20 DUP3 ADD SWAP1 POP DUP2 DUP2 SUB PUSH0 DUP4 ADD MSTORE PUSH2 0x19D7 DUP2 PUSH2 0x199E JUMP JUMPDEST SWAP1 POP SWAP2 SWAP1 POP JUMP JUMPDEST PUSH32 0x50617373656E676572206E616D65206973207265717569726564000000000000 PUSH0 DUP3 ADD MSTORE POP JUMP JUMPDEST PUSH0 PUSH2 0x1A12 PUSH1 0x1A DUP4 PUSH2 0x1692 JUMP JUMPDEST SWAP2 POP PUSH2 0x1A1D DUP3 PUSH2 0x19DE JUMP JUMPDEST PUSH1 0x20 DUP3 ADD SWAP1 POP SWAP2 SWAP1 POP JUMP JUMPDEST PUSH0 PUSH1 0x20 DUP3 ADD SWAP1 POP DUP2 DUP2 SUB PUSH0 DUP4 ADD MSTORE PUSH2 0x1A3F DUP2 PUSH2 0x1A06 JUMP JUMPDEST SWAP1 POP SWAP2 SWAP1 POP JUMP JUMPDEST PUSH32 0x466C69676874206E756D62657220697320726571756972656400000000000000 PUSH0 DUP3 ADD MSTORE POP JUMP JUMPDEST PUSH0 PUSH2 0x1A7A PUSH1 0x19 DUP4 PUSH2 0x1692 JUMP JUMPDEST SWAP2 POP PUSH2 0x1A85 DUP3 PUSH2 0x1A46 JUMP JUMPDEST PUSH1 0x20 DUP3 ADD SWAP1 POP SWAP2 SWAP1 POP JUMP JUMPDEST PUSH0 PUSH1 0x20 DUP3 ADD SWAP1 POP DUP2 DUP2 SUB PUSH0 DUP4 ADD MSTORE PUSH2 0x1AA7 DUP2 PUSH2 0x1A6E JUMP JUMPDEST SWAP1 POP SWAP2 SWAP1 POP JUMP JUMPDEST PUSH32 0x466C696768742064617465206973207265717569726564000000000000000000 PUSH0 DUP3 ADD MSTORE POP JUMP JUMPDEST PUSH0 PUSH2 0x1AE2 PUSH1 0x17 DUP4 PUSH2 0x1692 JUMP JUMPDEST SWAP2 POP PUSH2 0x1AED DUP3 PUSH2 0x1AAE JUMP JUMPDEST PUSH1 0x20 DUP3 ADD SWAP1 POP SWAP2 SWAP1 POP JUMP JUMPDEST PUSH0 PUSH1 0x20 DUP3 ADD SWAP1 POP DUP2 DUP2 SUB PUSH0 DUP4 ADD MSTORE PUSH2 0x1B0F DUP2 PUSH2 0x1AD6 JUMP JUMPDEST SWAP1 POP SWAP2 SWAP1 POP JUMP JUMPDEST PUSH32 0x4465706172747572652063697479206973207265717569726564000000000000 PUSH0 DUP3 ADD MSTORE POP JUMP JUMPDEST PUSH0 PUSH2 0x1B4A PUSH1 0x1A DUP4 PUSH2 0x1692 JUMP JUMPDEST SWAP2 POP PUSH2 0x1B55 DUP3 PUSH2 0x1B16 JUMP JUMPDEST PUSH1 0x20 DUP3 ADD SWAP1 POP SWAP2 SWAP1 POP JUMP JUMPDEST PUSH0 PUSH1 0x20 DUP3 ADD SWAP1 POP DUP2 DUP2 SUB PUSH0 DUP4 ADD MSTORE PUSH2 0x1B77 DUP2 PUSH2 0x1B3E JUMP JUMPDEST SWAP1 POP SWAP2 SWAP1 POP JUMP JUMPDEST PUSH32 0x44657374696E6174696F6E206369747920697320726571756972656400000000 PUSH0 DUP3 ADD MSTORE POP JUMP JUMPDEST PUSH0 PUSH2 0x1BB2 PUSH1 0x1C DUP4 PUSH2 0x1692 JUMP JUMPDEST SWAP2 POP PUSH2 0x1BBD DUP3 PUSH2 0x1B7E JUMP JUMPDEST PUSH1 0x20 DUP3 ADD SWAP1 POP SWAP2 SWAP1 POP JUMP JUMPDEST PUSH0 PUSH1 0x20 DUP3 ADD SWAP1 POP DUP2 DUP2 SUB PUSH0 DUP4 ADD MSTORE PUSH2 0x1BDF DUP2 PUSH2 0x1BA6 JUMP JUMPDEST SWAP1 POP SWAP2 SWAP1 POP JUMP JUMPDEST PUSH0 DUP2 SWAP1 POP SWAP3 SWAP2 POP POP JUMP JUMPDEST DUP3 DUP2 DUP4 CALLDATACOPY PUSH0 DUP4 DUP4 ADD MSTORE POP POP POP JUMP JUMPDEST PUSH0 PUSH2 0x1C09 DUP4 DUP6 PUSH2 0x1BE6 JUMP JUMPDEST SWAP4 POP PUSH2 0x1C16 DUP4 DUP6 DUP5 PUSH2 0x1BF0 JUMP JUMPDEST DUP3 DUP5 ADD SWAP1 POP SWAP4 SWAP3 POP POP POP JUMP JUMPDEST PUSH0 PUSH2 0x1C2E DUP3 DUP5 DUP7 PUSH2 0x1BFE JUMP JUMPDEST SWAP2 POP DUP2 SWAP1 POP SWAP4 SWAP3 POP POP POP JUMP JUMPDEST PUSH32 0x44657061727475726520616E642064657374696E6174696F6E20636974696573 PUSH0 DUP3 ADD MSTORE PUSH32 0x2063616E6E6F74206265207468652073616D6500000000000000000000000000 PUSH1 0x20 DUP3 ADD MSTORE POP JUMP JUMPDEST PUSH0 PUSH2 0x1C94 PUSH1 0x33 DUP4 PUSH2 0x1692 JUMP JUMPDEST SWAP2 POP PUSH2 0x1C9F DUP3 PUSH2 0x1C3A JUMP JUMPDEST PUSH1 0x40 DUP3 ADD SWAP1 POP SWAP2 SWAP1 POP JUMP JUMPDEST PUSH0 PUSH1 0x20 DUP3 ADD SWAP1 POP DUP2 DUP2 SUB PUSH0 DUP4 ADD MSTORE PUSH2 0x1CC1 DUP2 PUSH2 0x1C88 JUMP JUMPDEST SWAP1 POP SWAP2 SWAP1 POP JUMP JUMPDEST PUSH32 0x4E487B7100000000000000000000000000000000000000000000000000000000 PUSH0 MSTORE PUSH1 0x41 PUSH1 0x4 MSTORE PUSH1 0x24 PUSH0 REVERT JUMPDEST PUSH32 0x4E487B7100000000000000000000000000000000000000000000000000000000 PUSH0 MSTORE PUSH1 0x22 PUSH1 0x4 MSTORE PUSH1 0x24 PUSH0 REVERT JUMPDEST PUSH0 PUSH1 0x2 DUP3 DIV SWAP1 POP PUSH1 0x1 DUP3 AND DUP1 PUSH2 0x1D39 JUMPI PUSH1 0x7F DUP3 AND SWAP2 POP JUMPDEST PUSH1 0x20 DUP3 LT DUP2 SUB PUSH2 0x1D4C JUMPI PUSH2 0x1D4B PUSH2 0x1CF5 JUMP JUMPDEST JUMPDEST POP SWAP2 SWAP1 POP JUMP JUMPDEST PUSH0 DUP2 SWAP1 POP DUP2 PUSH0 MSTORE PUSH1 0x20 PUSH0 KECCAK256 SWAP1 POP SWAP2 SWAP1 POP JUMP JUMPDEST PUSH0 PUSH1 0x20 PUSH1 0x1F DUP4 ADD DIV SWAP1 POP SWAP2 SWAP1 POP JUMP JUMPDEST PUSH0 DUP3 DUP3 SHL SWAP1 POP SWAP3 SWAP2 POP POP JUMP JUMPDEST PUSH0 PUSH1 0x8 DUP4 MUL PUSH2 0x1DAE PUSH32 0xFFFFFFFFFFFFFFFFFFFFFFFFFFFFFFFFFFFFFFFFFFFFFFFFFFFFFFFFFFFFFFFF DUP3 PUSH2 0x1D73 JUMP JUMPDEST PUSH2 0x1DB8 DUP7 DUP4 PUSH2 0x1D73 JUMP JUMPDEST SWAP6 POP DUP1 NOT DUP5 AND SWAP4 POP DUP1 DUP7 AND DUP5 OR SWAP3 POP POP POP SWAP4 SWAP3 POP POP POP JUMP JUMPDEST PUSH0 DUP2 SWAP1 POP SWAP2 SWAP1 POP JUMP JUMPDEST PUSH0 PUSH2 0x1DF3 PUSH2 0x1DEE PUSH2 0x1DE9 DUP5 PUSH2 0x1891 JUMP JUMPDEST PUSH2 0x1DD0 JUMP JUMPDEST PUSH2 0x1891 JUMP JUMPDEST SWAP1 POP SWAP2 SWAP1 POP JUMP JUMPDEST PUSH0 DUP2 SWAP1 POP SWAP2 SWAP1 POP JUMP JUMPDEST PUSH2 0x1E0C DUP4 PUSH2 0x1DD9 JUMP JUMPDEST PUSH2 0x1E20 PUSH2 0x1E18 DUP3 PUSH2 0x1DFA JUMP JUMPDEST DUP5 DUP5 SLOAD PUSH2 0x1D7F JUMP JUMPDEST DUP3 SSTORE POP POP POP POP JUMP JUMPDEST PUSH0 SWAP1 JUMP JUMPDEST PUSH2 0x1E34 PUSH2 0x1E28 JUMP JUMPDEST PUSH2 0x1E3F DUP2 DUP5 DUP5 PUSH2 0x1E03 JUMP JUMPDEST POP POP POP JUMP JUMPDEST JUMPDEST DUP2 DUP2 LT ISZERO PUSH2 0x1E62 JUMPI PUSH2 0x1E57 PUSH0 DUP3 PUSH2 0x1E2C JUMP JUMPDEST PUSH1 0x1 DUP2 ADD SWAP1 POP PUSH2 0x1E45 JUMP JUMPDEST POP POP JUMP JUMPDEST PUSH1 0x1F DUP3 GT ISZERO PUSH2 0x1EA7 JUMPI PUSH2 0x1E78 DUP2 PUSH2 0x1D52 JUMP JUMPDEST PUSH2 0x1E81 DUP5 PUSH2 0x1D64 JUMP JUMPDEST DUP2 ADD PUSH1 0x20 DUP6 LT ISZERO PUSH2 0x1E90 JUMPI DUP2 SWAP1 POP JUMPDEST PUSH2 0x1EA4 PUSH2 0x1E9C DUP6 PUSH2 0x1D64 JUMP JUMPDEST DUP4 ADD DUP3 PUSH2 0x1E44 JUMP JUMPDEST POP POP JUMPDEST POP POP POP JUMP JUMPDEST PUSH0 DUP3 DUP3 SHR SWAP1 POP SWAP3 SWAP2 POP POP JUMP JUMPDEST PUSH0 PUSH2 0x1EC7 PUSH0 NOT DUP5 PUSH1 0x8 MUL PUSH2 0x1EAC JUMP JUMPDEST NOT DUP1 DUP4 AND SWAP2 POP POP SWAP3 SWAP2 POP POP JUMP JUMPDEST PUSH0 PUSH2 0x1EDF DUP4 DUP4 PUSH2 0x1EB8 JUMP JUMPDEST SWAP2 POP DUP3 PUSH1 0x2 MUL DUP3 OR SWAP1 POP SWAP3 SWAP2 POP POP JUMP JUMPDEST PUSH2 0x1EF8 DUP3 PUSH2 0x14DF JUMP JUMPDEST PUSH8 0xFFFFFFFFFFFFFFFF DUP2 GT ISZERO PUSH2 0x1F11 JUMPI PUSH2 0x1F10 PUSH2 0x1CC8 JUMP JUMPDEST JUMPDEST PUSH2 0x1F1B DUP3 SLOAD PUSH2 0x1D22 JUMP JUMPDEST PUSH2 0x1F26 DUP3 DUP3 DUP6 PUSH2 0x1E66 JUMP JUMPDEST PUSH0 PUSH1 0x20 SWAP1 POP PUSH1 0x1F DUP4 GT PUSH1 0x1 DUP2 EQ PUSH2 0x1F57 JUMPI PUSH0 DUP5 ISZERO PUSH2 0x1F45 JUMPI DUP3 DUP8 ADD MLOAD SWAP1 POP JUMPDEST PUSH2 0x1F4F DUP6 DUP3 PUSH2 0x1ED4 JUMP JUMPDEST DUP7 SSTORE POP PUSH2 0x1FB6 JUMP JUMPDEST PUSH1 0x1F NOT DUP5 AND PUSH2 0x1F65 DUP7 PUSH2 0x1D52 JUMP JUMPDEST PUSH0 JUMPDEST DUP3 DUP2 LT ISZERO PUSH2 0x1F8C JUMPI DUP5 DUP10 ADD MLOAD DUP3 SSTORE PUSH1 0x1 DUP3 ADD SWAP2 POP PUSH1 0x20 DUP6 ADD SWAP5 POP PUSH1 0x20 DUP2 ADD SWAP1 POP PUSH2 0x1F67 JUMP JUMPDEST DUP7 DUP4 LT ISZERO PUSH2 0x1FA9 JUMPI DUP5 DUP10 ADD MLOAD PUSH2 0x1FA5 PUSH1 0x1F DUP10 AND DUP3 PUSH2 0x1EB8 JUMP JUMPDEST DUP4 SSTORE POP JUMPDEST PUSH1 0x1 PUSH1 0x2 DUP9 MUL ADD DUP9 SSTORE POP POP POP JUMPDEST POP POP POP POP POP POP JUMP JUMPDEST PUSH32 0x4E6F20706F6C69637920666F756E640000000000000000000000000000000000 PUSH0 DUP3 ADD MSTORE POP JUMP JUMPDEST PUSH0 PUSH2 0x1FF2 PUSH1 0xF DUP4 PUSH2 0x1692 JUMP JUMPDEST SWAP2 POP PUSH2 0x1FFD DUP3 PUSH2 0x1FBE JUMP JUMPDEST PUSH1 0x20 DUP3 ADD SWAP1 POP SWAP2 SWAP1 POP JUMP JUMPDEST PUSH0 PUSH1 0x20 DUP3 ADD SWAP1 POP DUP2 DUP2 SUB PUSH0 DUP4 ADD MSTORE PUSH2 0x201F DUP2 PUSH2 0x1FE6 JUMP JUMPDEST SWAP1 POP SWAP2 SWAP1 POP JUMP JUMPDEST PUSH32 0x43616C6C6572206973206E6F742074686520696E737572616E63652070726F76 PUSH0 DUP3 ADD MSTORE PUSH32 0x6964657200000000000000000000000000000000000000000000000000000000 PUSH1 0x20 DUP3 ADD MSTORE POP JUMP JUMPDEST PUSH0 PUSH2 0x2080 PUSH1 0x24 DUP4 PUSH2 0x1692 JUMP JUMPDEST SWAP2 POP PUSH2 0x208B DUP3 PUSH2 0x2026 JUMP JUMPDEST PUSH1 0x40 DUP3 ADD SWAP1 POP SWAP2 SWAP1 POP JUMP JUMPDEST PUSH0 PUSH1 0x20 DUP3 ADD SWAP1 POP DUP2 DUP2 SUB PUSH0 DUP4 ADD MSTORE PUSH2 0x20AD DUP2 PUSH2 0x2074 JUMP JUMPDEST SWAP1 POP SWAP2 SWAP1 POP JUMP JUMPDEST PUSH32 0x4E487B7100000000000000000000000000000000000000000000000000000000 PUSH0 MSTORE PUSH1 0x32 PUSH1 0x4 MSTORE PUSH1 0x24 PUSH0 REVERT JUMPDEST PUSH32 0x5265656E7472616E637947756172643A207265656E7472616E742063616C6C00 PUSH0 DUP3 ADD MSTORE POP JUMP JUMPDEST PUSH0 PUSH2 0x2115 PUSH1 0x1F DUP4 PUSH2 0x1692 JUMP JUMPDEST SWAP2 POP PUSH2 0x2120 DUP3 PUSH2 0x20E1 JUMP JUMPDEST PUSH1 0x20 DUP3 ADD SWAP1 POP SWAP2 SWAP1 POP JUMP JUMPDEST PUSH0 PUSH1 0x20 DUP3 ADD SWAP1 POP DUP2 DUP2 SUB PUSH0 DUP4 ADD MSTORE PUSH2 0x2142 DUP2 PUSH2 0x2109 JUMP JUMPDEST SWAP1 POP SWAP2 SWAP1 POP JUMP INVALID POP PUSH19 0x656D69756D3A20302E3031204554482C20496E PUSH5 0x656D6E6974 PUSH26 0x3A20302E3032204554482C20436F7665726167653A2045787472 PUSH6 0x6D6520576561 PUSH21 0x6865722044656C6179732028652E672E2C20686169 PUSH13 0x2C20666C6F6F64696E672C2065 PUSH21 0x632E292EA2646970667358221220E730923506D22F PUSH29 0x5E5E3929579B44CB6B8DD08D2FC6F3886CA594B9694C8EFE64736F6C63 NUMBER STOP ADDMOD BYTE STOP CALLER "
				},
				"gasEstimates": {
					"creation": {
						"codeDepositCost": "1735400",
						"executionCost": "infinite",
						"totalCost": "infinite"
					},
					"external": {
						"INDEMNITY()": "369",
						"PREMIUM()": "391",
						"insuranceProvider()": "2553",
						"purchasePolicy(string,string,string,string,string)": "infinite",
						"viewAllPolicies()": "infinite",
						"viewAvailablePolicy()": "infinite",
						"viewMyPolicy()": "infinite"
					}
				},
				"methodIdentifiers": {
					"INDEMNITY()": "cd95e777",
					"PREMIUM()": "ea3696ca",
					"insuranceProvider()": "9955f67c",
					"purchasePolicy(string,string,string,string,string)": "5d02ed12",
					"viewAllPolicies()": "c160693d",
					"viewAvailablePolicy()": "b6fc3b2a",
					"viewMyPolicy()": "963163bd"
				}
			},
			"storageLayout": {
				"storage": [
					{
						"astId": 10,
						"contract": "FlightInsurance1.sol:FlightInsurance1",
						"label": "_status",
						"offset": 0,
						"slot": "0",
						"type": "t_uint256"
					},
					{
						"astId": 92,
						"contract": "FlightInsurance1.sol:FlightInsurance1",
						"label": "insuranceProvider",
						"offset": 0,
						"slot": "1",
						"type": "t_address"
					},
					{
						"astId": 97,
						"contract": "FlightInsurance1.sol:FlightInsurance1",
						"label": "policiesByAddress",
						"offset": 0,
						"slot": "2",
						"type": "t_mapping(t_address,t_struct(InsurancePolicy)84_storage)"
					},
					{
						"astId": 100,
						"contract": "FlightInsurance1.sol:FlightInsurance1",
						"label": "insuredPassengerList",
						"offset": 0,
						"slot": "3",
						"type": "t_array(t_address)dyn_storage"
					}
				],
				"types": {
					"t_address": {
						"encoding": "inplace",
						"label": "address",
						"numberOfBytes": "20"
					},
					"t_array(t_address)dyn_storage": {
						"base": "t_address",
						"encoding": "dynamic_array",
						"label": "address[]",
						"numberOfBytes": "32"
					},
					"t_mapping(t_address,t_struct(InsurancePolicy)84_storage)": {
						"encoding": "mapping",
						"key": "t_address",
						"label": "mapping(address => struct FlightInsurance1.InsurancePolicy)",
						"numberOfBytes": "32",
						"value": "t_struct(InsurancePolicy)84_storage"
					},
					"t_string_storage": {
						"encoding": "bytes",
						"label": "string",
						"numberOfBytes": "32"
					},
					"t_struct(InsurancePolicy)84_storage": {
						"encoding": "inplace",
						"label": "struct FlightInsurance1.InsurancePolicy",
						"members": [
							{
								"astId": 71,
								"contract": "FlightInsurance1.sol:FlightInsurance1",
								"label": "passengerName",
								"offset": 0,
								"slot": "0",
								"type": "t_string_storage"
							},
							{
								"astId": 73,
								"contract": "FlightInsurance1.sol:FlightInsurance1",
								"label": "passengerAddress",
								"offset": 0,
								"slot": "1",
								"type": "t_address"
							},
							{
								"astId": 75,
								"contract": "FlightInsurance1.sol:FlightInsurance1",
								"label": "flightNumber",
								"offset": 0,
								"slot": "2",
								"type": "t_string_storage"
							},
							{
								"astId": 77,
								"contract": "FlightInsurance1.sol:FlightInsurance1",
								"label": "flightDate",
								"offset": 0,
								"slot": "3",
								"type": "t_string_storage"
							},
							{
								"astId": 79,
								"contract": "FlightInsurance1.sol:FlightInsurance1",
								"label": "departureCity",
								"offset": 0,
								"slot": "4",
								"type": "t_string_storage"
							},
							{
								"astId": 81,
								"contract": "FlightInsurance1.sol:FlightInsurance1",
								"label": "destinationCity",
								"offset": 0,
								"slot": "5",
								"type": "t_string_storage"
							},
							{
								"astId": 83,
								"contract": "FlightInsurance1.sol:FlightInsurance1",
								"label": "policyStatus",
								"offset": 0,
								"slot": "6",
								"type": "t_string_storage"
							}
						],
						"numberOfBytes": "224"
					},
					"t_uint256": {
						"encoding": "inplace",
						"label": "uint256",
						"numberOfBytes": "32"
					}
				}
			},
			"userdoc": {
				"kind": "user",
				"methods": {},
				"version": 1
			}
		}
	}
}