{
	"FlightInsurance1.sol": {
		"FlightInsurance1": {
			"abi": [
				{
					"inputs": [
						{
							"internalType": "address",
							"name": "_insuranceProvider",
							"type": "address"
						}
					],
					"stateMutability": "nonpayable",
					"type": "constructor"
				},
				{
					"inputs": [],
					"name": "INDEMNITY",
					"outputs": [
						{
							"internalType": "uint256",
							"name": "",
							"type": "uint256"
						}
					],
					"stateMutability": "view",
					"type": "function"
				},
				{
					"inputs": [],
					"name": "PREMIUM",
					"outputs": [
						{
							"internalType": "uint256",
							"name": "",
							"type": "uint256"
						}
					],
					"stateMutability": "view",
					"type": "function"
				},
				{
					"inputs": [],
					"name": "insuranceProvider",
					"outputs": [
						{
							"internalType": "address",
							"name": "",
							"type": "address"
						}
					],
					"stateMutability": "view",
					"type": "function"
				},
				{
					"inputs": [
						{
							"internalType": "address",
							"name": "passenger",
							"type": "address"
						}
					],
					"name": "payIndemnity",
					"outputs": [
						{
							"internalType": "bool",
							"name": "",
							"type": "bool"
						},
						{
							"internalType": "string",
							"name": "",
							"type": "string"
						}
					],
					"stateMutability": "nonpayable",
					"type": "function"
				},
				{
					"inputs": [
						{
							"internalType": "string",
							"name": "name",
							"type": "string"
						},
						{
							"internalType": "string",
							"name": "flightNo",
							"type": "string"
						},
						{
							"internalType": "string",
							"name": "date",
							"type": "string"
						},
						{
							"internalType": "string",
							"name": "departure",
							"type": "string"
						},
						{
							"internalType": "string",
							"name": "destination",
							"type": "string"
						}
					],
					"name": "purchasePolicy",
					"outputs": [
						{
							"internalType": "bool",
							"name": "",
							"type": "bool"
						},
						{
							"internalType": "string",
							"name": "",
							"type": "string"
						}
					],
					"stateMutability": "payable",
					"type": "function"
				},
				{
					"inputs": [],
					"name": "viewAllPolicies",
					"outputs": [
						{
							"components": [
								{
									"internalType": "string",
									"name": "passengerName",
									"type": "string"
								},
								{
									"internalType": "address",
									"name": "passengerAddress",
									"type": "address"
								},
								{
									"internalType": "string",
									"name": "flightNumber",
									"type": "string"
								},
								{
									"internalType": "string",
									"name": "flightDate",
									"type": "string"
								},
								{
									"internalType": "string",
									"name": "departureCity",
									"type": "string"
								},
								{
									"internalType": "string",
									"name": "destinationCity",
									"type": "string"
								},
								{
									"internalType": "string",
									"name": "policyStatus",
									"type": "string"
								}
							],
							"internalType": "struct FlightInsurance1.InsurancePolicy[]",
							"name": "",
							"type": "tuple[]"
						},
						{
							"internalType": "string",
							"name": "",
							"type": "string"
						}
					],
					"stateMutability": "view",
					"type": "function"
				},
				{
					"inputs": [],
					"name": "viewAvailablePolicy",
					"outputs": [
						{
							"internalType": "string",
							"name": "",
							"type": "string"
						}
					],
					"stateMutability": "pure",
					"type": "function"
				},
				{
					"inputs": [],
					"name": "viewBalance",
					"outputs": [
						{
							"internalType": "uint256",
							"name": "",
							"type": "uint256"
						}
					],
					"stateMutability": "view",
					"type": "function"
				},
				{
					"inputs": [],
					"name": "viewMyPolicy",
					"outputs": [
						{
							"components": [
								{
									"internalType": "string",
									"name": "passengerName",
									"type": "string"
								},
								{
									"internalType": "address",
									"name": "passengerAddress",
									"type": "address"
								},
								{
									"internalType": "string",
									"name": "flightNumber",
									"type": "string"
								},
								{
									"internalType": "string",
									"name": "flightDate",
									"type": "string"
								},
								{
									"internalType": "string",
									"name": "departureCity",
									"type": "string"
								},
								{
									"internalType": "string",
									"name": "destinationCity",
									"type": "string"
								},
								{
									"internalType": "string",
									"name": "policyStatus",
									"type": "string"
								}
							],
							"internalType": "struct FlightInsurance1.InsurancePolicy",
							"name": "",
							"type": "tuple"
						},
						{
							"internalType": "string",
							"name": "",
							"type": "string"
						}
					],
					"stateMutability": "view",
					"type": "function"
				}
			],
			"devdoc": {
				"kind": "dev",
				"methods": {},
				"version": 1
			},
			"evm": {
				"assembly": "    /* \"FlightInsurance1.sol\":156:6013  contract FlightInsurance1 is ReentrancyGuard {... */\n  mstore(0x40, 0x80)\n    /* \"FlightInsurance1.sol\":1019:1114  constructor(address _insuranceProvider) {... */\n  callvalue\n  dup1\n  iszero\n  tag_1\n  jumpi\n  0x00\n  dup1\n  revert\ntag_1:\n  pop\n  mload(0x40)\n  sub(codesize, bytecodeSize)\n  dup1\n  bytecodeSize\n  dup4\n  codecopy\n  dup2\n  dup2\n  add\n  0x40\n  mstore\n  dup2\n  add\n  swap1\n  tag_2\n  swap2\n  swap1\n  tag_3\n  jump\t// in\ntag_2:\n    /* \"@openzeppelin/contracts/security/ReentrancyGuard.sol\":1716:1717  1 */\n  0x01\n    /* \"@openzeppelin/contracts/security/ReentrancyGuard.sol\":1821:1828  _status */\n  0x00\n    /* \"@openzeppelin/contracts/security/ReentrancyGuard.sol\":1821:1843  _status = _NOT_ENTERED */\n  dup2\n  swap1\n  sstore\n  pop\n    /* \"FlightInsurance1.sol\":1089:1107  _insuranceProvider */\n  dup1\n    /* \"FlightInsurance1.sol\":1069:1086  insuranceProvider */\n  0x01\n  0x00\n    /* \"FlightInsurance1.sol\":1069:1107  insuranceProvider = _insuranceProvider */\n  0x0100\n  exp\n  dup2\n  sload\n  dup2\n  0xffffffffffffffffffffffffffffffffffffffff\n  mul\n  not\n  and\n  swap1\n  dup4\n  0xffffffffffffffffffffffffffffffffffffffff\n  and\n  mul\n  or\n  swap1\n  sstore\n  pop\n    /* \"FlightInsurance1.sol\":1019:1114  constructor(address _insuranceProvider) {... */\n  pop\n    /* \"FlightInsurance1.sol\":156:6013  contract FlightInsurance1 is ReentrancyGuard {... */\n  jump(tag_8)\n    /* \"#utility.yul\":88:205   */\ntag_10:\n    /* \"#utility.yul\":197:198   */\n  0x00\n    /* \"#utility.yul\":194:195   */\n  dup1\n    /* \"#utility.yul\":187:199   */\n  revert\n    /* \"#utility.yul\":334:460   */\ntag_12:\n    /* \"#utility.yul\":371:378   */\n  0x00\n    /* \"#utility.yul\":411:453   */\n  0xffffffffffffffffffffffffffffffffffffffff\n    /* \"#utility.yul\":404:409   */\n  dup3\n    /* \"#utility.yul\":400:454   */\n  and\n    /* \"#utility.yul\":389:454   */\n  swap1\n  pop\n    /* \"#utility.yul\":334:460   */\n  swap2\n  swap1\n  pop\n  jump\t// out\n    /* \"#utility.yul\":466:562   */\ntag_13:\n    /* \"#utility.yul\":503:510   */\n  0x00\n    /* \"#utility.yul\":532:556   */\n  tag_22\n    /* \"#utility.yul\":550:555   */\n  dup3\n    /* \"#utility.yul\":532:556   */\n  tag_12\n  jump\t// in\ntag_22:\n    /* \"#utility.yul\":521:556   */\n  swap1\n  pop\n    /* \"#utility.yul\":466:562   */\n  swap2\n  swap1\n  pop\n  jump\t// out\n    /* \"#utility.yul\":568:690   */\ntag_14:\n    /* \"#utility.yul\":641:665   */\n  tag_24\n    /* \"#utility.yul\":659:664   */\n  dup2\n    /* \"#utility.yul\":641:665   */\n  tag_13\n  jump\t// in\ntag_24:\n    /* \"#utility.yul\":634:639   */\n  dup2\n    /* \"#utility.yul\":631:666   */\n  eq\n    /* \"#utility.yul\":621:684   */\n  tag_25\n  jumpi\n    /* \"#utility.yul\":680:681   */\n  0x00\n    /* \"#utility.yul\":677:678   */\n  dup1\n    /* \"#utility.yul\":670:682   */\n  revert\n    /* \"#utility.yul\":621:684   */\ntag_25:\n    /* \"#utility.yul\":568:690   */\n  pop\n  jump\t// out\n    /* \"#utility.yul\":696:839   */\ntag_15:\n    /* \"#utility.yul\":753:758   */\n  0x00\n    /* \"#utility.yul\":784:790   */\n  dup2\n    /* \"#utility.yul\":778:791   */\n  mload\n    /* \"#utility.yul\":769:791   */\n  swap1\n  pop\n    /* \"#utility.yul\":800:833   */\n  tag_27\n    /* \"#utility.yul\":827:832   */\n  dup2\n    /* \"#utility.yul\":800:833   */\n  tag_14\n  jump\t// in\ntag_27:\n    /* \"#utility.yul\":696:839   */\n  swap3\n  swap2\n  pop\n  pop\n  jump\t// out\n    /* \"#utility.yul\":845:1196   */\ntag_3:\n    /* \"#utility.yul\":915:921   */\n  0x00\n    /* \"#utility.yul\":964:966   */\n  0x20\n    /* \"#utility.yul\":952:961   */\n  dup3\n    /* \"#utility.yul\":943:950   */\n  dup5\n    /* \"#utility.yul\":939:962   */\n  sub\n    /* \"#utility.yul\":935:967   */\n  slt\n    /* \"#utility.yul\":932:1051   */\n  iszero\n  tag_29\n  jumpi\n    /* \"#utility.yul\":970:1049   */\n  tag_30\n  tag_10\n  jump\t// in\ntag_30:\n    /* \"#utility.yul\":932:1051   */\ntag_29:\n    /* \"#utility.yul\":1090:1091   */\n  0x00\n    /* \"#utility.yul\":1115:1179   */\n  tag_31\n    /* \"#utility.yul\":1171:1178   */\n  dup5\n    /* \"#utility.yul\":1162:1168   */\n  dup3\n    /* \"#utility.yul\":1151:1160   */\n  dup6\n    /* \"#utility.yul\":1147:1169   */\n  add\n    /* \"#utility.yul\":1115:1179   */\n  tag_15\n  jump\t// in\ntag_31:\n    /* \"#utility.yul\":1105:1179   */\n  swap2\n  pop\n    /* \"#utility.yul\":1061:1189   */\n  pop\n    /* \"#utility.yul\":845:1196   */\n  swap3\n  swap2\n  pop\n  pop\n  jump\t// out\n    /* \"FlightInsurance1.sol\":156:6013  contract FlightInsurance1 is ReentrancyGuard {... */\ntag_8:\n  dataSize(sub_0)\n  dup1\n  dataOffset(sub_0)\n  0x00\n  codecopy\n  0x00\n  return\nstop\n\nsub_0: assembly {\n        /* \"FlightInsurance1.sol\":156:6013  contract FlightInsurance1 is ReentrancyGuard {... */\n      mstore(0x40, 0x80)\n      jumpi(tag_1, lt(calldatasize, 0x04))\n      shr(0xe0, calldataload(0x00))\n      dup1\n      0xa4cd98e6\n      gt\n      tag_11\n      jumpi\n      dup1\n      0xa4cd98e6\n      eq\n      tag_6\n      jumpi\n      dup1\n      0xb6fc3b2a\n      eq\n      tag_7\n      jumpi\n      dup1\n      0xc160693d\n      eq\n      tag_8\n      jumpi\n      dup1\n      0xcd95e777\n      eq\n      tag_9\n      jumpi\n      dup1\n      0xea3696ca\n      eq\n      tag_10\n      jumpi\n      jump(tag_1)\n    tag_11:\n      dup1\n      0x3ff1e05b\n      eq\n      tag_2\n      jumpi\n      dup1\n      0x5d02ed12\n      eq\n      tag_3\n      jumpi\n      dup1\n      0x963163bd\n      eq\n      tag_4\n      jumpi\n      dup1\n      0x9955f67c\n      eq\n      tag_5\n      jumpi\n    tag_1:\n      0x00\n      dup1\n      revert\n        /* \"FlightInsurance1.sol\":5017:5114  function viewBalance() external view returns (uint256) {... */\n    tag_2:\n      callvalue\n      dup1\n      iszero\n      tag_12\n      jumpi\n      0x00\n      dup1\n      revert\n    tag_12:\n      pop\n      tag_13\n      tag_14\n      jump\t// in\n    tag_13:\n      mload(0x40)\n      tag_15\n      swap2\n      swap1\n      tag_16\n      jump\t// in\n    tag_15:\n      mload(0x40)\n      dup1\n      swap2\n      sub\n      swap1\n      return\n        /* \"FlightInsurance1.sol\":1526:3688  function purchasePolicy(... */\n    tag_3:\n      tag_17\n      0x04\n      dup1\n      calldatasize\n      sub\n      dup2\n      add\n      swap1\n      tag_18\n      swap2\n      swap1\n      tag_19\n      jump\t// in\n    tag_18:\n      tag_20\n      jump\t// in\n    tag_17:\n      mload(0x40)\n      tag_21\n      swap3\n      swap2\n      swap1\n      tag_22\n      jump\t// in\n    tag_21:\n      mload(0x40)\n      dup1\n      swap2\n      sub\n      swap1\n      return\n        /* \"FlightInsurance1.sol\":3741:4215  function viewMyPolicy() external view returns (InsurancePolicy memory, string memory) {... */\n    tag_4:\n      callvalue\n      dup1\n      iszero\n      tag_23\n      jumpi\n      0x00\n      dup1\n      revert\n    tag_23:\n      pop\n      tag_24\n      tag_25\n      jump\t// in\n    tag_24:\n      mload(0x40)\n      tag_26\n      swap3\n      swap2\n      swap1\n      tag_27\n      jump\t// in\n    tag_26:\n      mload(0x40)\n      dup1\n      swap2\n      sub\n      swap1\n      return\n        /* \"FlightInsurance1.sol\":679:711  address public insuranceProvider */\n    tag_5:\n      callvalue\n      dup1\n      iszero\n      tag_28\n      jumpi\n      0x00\n      dup1\n      revert\n    tag_28:\n      pop\n      tag_29\n      tag_30\n      jump\t// in\n    tag_29:\n      mload(0x40)\n      tag_31\n      swap2\n      swap1\n      tag_32\n      jump\t// in\n    tag_31:\n      mload(0x40)\n      dup1\n      swap2\n      sub\n      swap1\n      return\n        /* \"FlightInsurance1.sol\":5197:6010  function payIndemnity(address passenger) external returns (bool, string memory) {... */\n    tag_6:\n      callvalue\n      dup1\n      iszero\n      tag_33\n      jumpi\n      0x00\n      dup1\n      revert\n    tag_33:\n      pop\n      tag_34\n      0x04\n      dup1\n      calldatasize\n      sub\n      dup2\n      add\n      swap1\n      tag_35\n      swap2\n      swap1\n      tag_36\n      jump\t// in\n    tag_35:\n      tag_37\n      jump\t// in\n    tag_34:\n      mload(0x40)\n      tag_38\n      swap3\n      swap2\n      swap1\n      tag_22\n      jump\t// in\n    tag_38:\n      mload(0x40)\n      dup1\n      swap2\n      sub\n      swap1\n      return\n        /* \"FlightInsurance1.sol\":1170:1367  function viewAvailablePolicy() external pure returns (string memory) {... */\n    tag_7:\n      callvalue\n      dup1\n      iszero\n      tag_39\n      jumpi\n      0x00\n      dup1\n      revert\n    tag_39:\n      pop\n      tag_40\n      tag_41\n      jump\t// in\n    tag_40:\n      mload(0x40)\n      tag_42\n      swap2\n      swap1\n      tag_43\n      jump\t// in\n    tag_42:\n      mload(0x40)\n      dup1\n      swap2\n      sub\n      swap1\n      return\n        /* \"FlightInsurance1.sol\":4280:4956  function viewAllPolicies() external view returns (InsurancePolicy[] memory, string memory) {... */\n    tag_8:\n      callvalue\n      dup1\n      iszero\n      tag_44\n      jumpi\n      0x00\n      dup1\n      revert\n    tag_44:\n      pop\n      tag_45\n      tag_46\n      jump\t// in\n    tag_45:\n      mload(0x40)\n      tag_47\n      swap3\n      swap2\n      swap1\n      tag_48\n      jump\t// in\n    tag_47:\n      mload(0x40)\n      dup1\n      swap2\n      sub\n      swap1\n      return\n        /* \"FlightInsurance1.sol\":626:672  uint256 public constant INDEMNITY = 0.02 ether */\n    tag_9:\n      callvalue\n      dup1\n      iszero\n      tag_49\n      jumpi\n      0x00\n      dup1\n      revert\n    tag_49:\n      pop\n      tag_50\n      tag_51\n      jump\t// in\n    tag_50:\n      mload(0x40)\n      tag_52\n      swap2\n      swap1\n      tag_16\n      jump\t// in\n    tag_52:\n      mload(0x40)\n      dup1\n      swap2\n      sub\n      swap1\n      return\n        /* \"FlightInsurance1.sol\":576:620  uint256 public constant PREMIUM = 0.01 ether */\n    tag_10:\n      callvalue\n      dup1\n      iszero\n      tag_53\n      jumpi\n      0x00\n      dup1\n      revert\n    tag_53:\n      pop\n      tag_54\n      tag_55\n      jump\t// in\n    tag_54:\n      mload(0x40)\n      tag_56\n      swap2\n      swap1\n      tag_16\n      jump\t// in\n    tag_56:\n      mload(0x40)\n      dup1\n      swap2\n      sub\n      swap1\n      return\n        /* \"FlightInsurance1.sol\":5017:5114  function viewBalance() external view returns (uint256) {... */\n    tag_14:\n        /* \"FlightInsurance1.sol\":5063:5070  uint256 */\n      0x00\n        /* \"FlightInsurance1.sol\":5089:5099  msg.sender */\n      caller\n        /* \"FlightInsurance1.sol\":5089:5107  msg.sender.balance */\n      0xffffffffffffffffffffffffffffffffffffffff\n      and\n      balance\n        /* \"FlightInsurance1.sol\":5082:5107  return msg.sender.balance */\n      swap1\n      pop\n        /* \"FlightInsurance1.sol\":5017:5114  function viewBalance() external view returns (uint256) {... */\n      swap1\n      jump\t// out\n        /* \"FlightInsurance1.sol\":1526:3688  function purchasePolicy(... */\n    tag_20:\n        /* \"FlightInsurance1.sol\":1761:1765  bool */\n      0x00\n        /* \"FlightInsurance1.sol\":1767:1780  string memory */\n      0x60\n        /* \"@openzeppelin/contracts/security/ReentrancyGuard.sol\":2261:2282  _nonReentrantBefore() */\n      tag_59\n        /* \"@openzeppelin/contracts/security/ReentrancyGuard.sol\":2261:2280  _nonReentrantBefore */\n      tag_60\n        /* \"@openzeppelin/contracts/security/ReentrancyGuard.sol\":2261:2282  _nonReentrantBefore() */\n      jump\t// in\n    tag_59:\n        /* \"FlightInsurance1.sol\":1818:1819  0 */\n      0x00\n        /* \"FlightInsurance1.sol\":1802:1806  name */\n      dup13\n      dup13\n        /* \"FlightInsurance1.sol\":1796:1814  bytes(name).length */\n      swap1\n      pop\n        /* \"FlightInsurance1.sol\":1796:1819  bytes(name).length == 0 */\n      eq\n        /* \"FlightInsurance1.sol\":1796:1846  bytes(name).length == 0 || bytes(name).length > 64 */\n      dup1\n      tag_62\n      jumpi\n      pop\n        /* \"FlightInsurance1.sol\":1844:1846  64 */\n      0x40\n        /* \"FlightInsurance1.sol\":1829:1833  name */\n      dup13\n      dup13\n        /* \"FlightInsurance1.sol\":1823:1841  bytes(name).length */\n      swap1\n      pop\n        /* \"FlightInsurance1.sol\":1823:1846  bytes(name).length > 64 */\n      gt\n        /* \"FlightInsurance1.sol\":1796:1846  bytes(name).length == 0 || bytes(name).length > 64 */\n    tag_62:\n        /* \"FlightInsurance1.sol\":1792:1931  if (bytes(name).length == 0 || bytes(name).length > 64) {... */\n      iszero\n      tag_63\n      jumpi\n        /* \"FlightInsurance1.sol\":1870:1875  false */\n      0x00\n        /* \"FlightInsurance1.sol\":1862:1920  return (false, \"Invalid name: Must be a non-empty string\") */\n      mload(0x40)\n      dup1\n      0x60\n      add\n      0x40\n      mstore\n      dup1\n      0x28\n      dup2\n      mstore\n      0x20\n      add\n      data_2673f4d1c5603474cbad76066a3283a83ede72ca4bba932f9698aedefc45fd1c\n      0x28\n      swap2\n      codecopy\n      swap2\n      pop\n      swap2\n      pop\n      jump(tag_61)\n        /* \"FlightInsurance1.sol\":1792:1931  if (bytes(name).length == 0 || bytes(name).length > 64) {... */\n    tag_63:\n        /* \"FlightInsurance1.sol\":1970:1971  2 */\n      0x02\n        /* \"FlightInsurance1.sol\":1951:1959  flightNo */\n      dup11\n      dup11\n        /* \"FlightInsurance1.sol\":1945:1967  bytes(flightNo).length */\n      swap1\n      pop\n        /* \"FlightInsurance1.sol\":1945:1971  bytes(flightNo).length < 2 */\n      lt\n        /* \"FlightInsurance1.sol\":1945:2001  bytes(flightNo).length < 2 || bytes(flightNo).length > 6 */\n      dup1\n      tag_64\n      jumpi\n      pop\n        /* \"FlightInsurance1.sol\":2000:2001  6 */\n      0x06\n        /* \"FlightInsurance1.sol\":1981:1989  flightNo */\n      dup11\n      dup11\n        /* \"FlightInsurance1.sol\":1975:1997  bytes(flightNo).length */\n      swap1\n      pop\n        /* \"FlightInsurance1.sol\":1975:2001  bytes(flightNo).length > 6 */\n      gt\n        /* \"FlightInsurance1.sol\":1945:2001  bytes(flightNo).length < 2 || bytes(flightNo).length > 6 */\n    tag_64:\n        /* \"FlightInsurance1.sol\":1941:2094  if (bytes(flightNo).length < 2 || bytes(flightNo).length > 6) {... */\n      iszero\n      tag_65\n      jumpi\n        /* \"FlightInsurance1.sol\":2025:2030  false */\n      0x00\n        /* \"FlightInsurance1.sol\":2017:2083  return (false, \"Invalid flight number: Must be 2 to 6 characters\") */\n      mload(0x40)\n      dup1\n      0x60\n      add\n      0x40\n      mstore\n      dup1\n      0x30\n      dup2\n      mstore\n      0x20\n      add\n      data_18a7abff09bd8d1ca8f5bd98d09638ca9d6c8c7a20393afd456ee7bb7ae79919\n      0x30\n      swap2\n      codecopy\n      swap2\n      pop\n      swap2\n      pop\n      jump(tag_61)\n        /* \"FlightInsurance1.sol\":1941:2094  if (bytes(flightNo).length < 2 || bytes(flightNo).length > 6) {... */\n    tag_65:\n        /* \"FlightInsurance1.sol\":2336:2347  destination */\n      dup4\n      dup4\n        /* \"FlightInsurance1.sol\":2320:2349  keccak256(bytes(destination)) */\n      mload(0x40)\n      tag_66\n      swap3\n      swap2\n      swap1\n      tag_67\n      jump\t// in\n    tag_66:\n      mload(0x40)\n      dup1\n      swap2\n      sub\n      swap1\n      keccak256\n        /* \"FlightInsurance1.sol\":2305:2314  departure */\n      dup7\n      dup7\n        /* \"FlightInsurance1.sol\":2289:2316  keccak256(bytes(departure)) */\n      mload(0x40)\n      tag_68\n      swap3\n      swap2\n      swap1\n      tag_67\n      jump\t// in\n    tag_68:\n      mload(0x40)\n      dup1\n      swap2\n      sub\n      swap1\n      keccak256\n        /* \"FlightInsurance1.sol\":2289:2349  keccak256(bytes(departure)) == keccak256(bytes(destination)) */\n      sub\n        /* \"FlightInsurance1.sol\":2285:2445  if (keccak256(bytes(departure)) == keccak256(bytes(destination))) {... */\n      tag_69\n      jumpi\n        /* \"FlightInsurance1.sol\":2373:2378  false */\n      0x00\n        /* \"FlightInsurance1.sol\":2365:2434  return (false, \"Departure and destination cities cannot be the same\") */\n      mload(0x40)\n      dup1\n      0x60\n      add\n      0x40\n      mstore\n      dup1\n      0x33\n      dup2\n      mstore\n      0x20\n      add\n      data_6f31ec84f1633147aa3d024eb7f56473d59ec67a9eec6c05e5cf01eb0db0a5c8\n      0x33\n      swap2\n      codecopy\n      swap2\n      pop\n      swap2\n      pop\n      jump(tag_61)\n        /* \"FlightInsurance1.sol\":2285:2445  if (keccak256(bytes(departure)) == keccak256(bytes(destination))) {... */\n    tag_69:\n        /* \"FlightInsurance1.sol\":2481:2483  10 */\n      0x0a\n        /* \"FlightInsurance1.sol\":2465:2469  date */\n      dup9\n      dup9\n        /* \"FlightInsurance1.sol\":2459:2477  bytes(date).length */\n      swap1\n      pop\n        /* \"FlightInsurance1.sol\":2459:2483  bytes(date).length != 10 */\n      eq\n      iszero\n        /* \"FlightInsurance1.sol\":2459:2521  bytes(date).length != 10 || ... */\n      dup1\n      tag_70\n      jumpi\n      pop\n        /* \"FlightInsurance1.sol\":2500:2521  bytes(date)[4] != \"-\" */\n      0x2d00000000000000000000000000000000000000000000000000000000000000\n        /* \"FlightInsurance1.sol\":2506:2510  date */\n      dup9\n      dup9\n        /* \"FlightInsurance1.sol\":2512:2513  4 */\n      0x04\n        /* \"FlightInsurance1.sol\":2500:2514  bytes(date)[4] */\n      dup2\n      dup2\n      lt\n      tag_71\n      jumpi\n      tag_72\n      tag_73\n      jump\t// in\n    tag_72:\n    tag_71:\n      swap1\n      pop\n      add\n      calldataload\n      0xf8\n      shr\n      0xf8\n      shl\n        /* \"FlightInsurance1.sol\":2500:2521  bytes(date)[4] != \"-\" */\n      not(0xffffffffffffffffffffffffffffffffffffffffffffffffffffffffffffff)\n      and\n      eq\n      iszero\n        /* \"FlightInsurance1.sol\":2459:2521  bytes(date).length != 10 || ... */\n    tag_70:\n        /* \"FlightInsurance1.sol\":2459:2559  bytes(date).length != 10 || ... */\n      dup1\n      tag_74\n      jumpi\n      pop\n        /* \"FlightInsurance1.sol\":2538:2559  bytes(date)[7] != \"-\" */\n      0x2d00000000000000000000000000000000000000000000000000000000000000\n        /* \"FlightInsurance1.sol\":2544:2548  date */\n      dup9\n      dup9\n        /* \"FlightInsurance1.sol\":2550:2551  7 */\n      0x07\n        /* \"FlightInsurance1.sol\":2538:2552  bytes(date)[7] */\n      dup2\n      dup2\n      lt\n      tag_75\n      jumpi\n      tag_76\n      tag_73\n      jump\t// in\n    tag_76:\n    tag_75:\n      swap1\n      pop\n      add\n      calldataload\n      0xf8\n      shr\n      0xf8\n      shl\n        /* \"FlightInsurance1.sol\":2538:2559  bytes(date)[7] != \"-\" */\n      not(0xffffffffffffffffffffffffffffffffffffffffffffffffffffffffffffff)\n      and\n      eq\n      iszero\n        /* \"FlightInsurance1.sol\":2459:2559  bytes(date).length != 10 || ... */\n    tag_74:\n        /* \"FlightInsurance1.sol\":2455:2643  if (bytes(date).length != 10 || ... */\n      iszero\n      tag_77\n      jumpi\n        /* \"FlightInsurance1.sol\":2583:2588  false */\n      0x00\n        /* \"FlightInsurance1.sol\":2575:2632  return (false, \"Invalid date format: Must be YYYY-MM-DD\") */\n      mload(0x40)\n      dup1\n      0x60\n      add\n      0x40\n      mstore\n      dup1\n      0x27\n      dup2\n      mstore\n      0x20\n      add\n      data_7a9cdb4f84f8bf3272ff777469639471ce70616242330454e3a21c0d013b6b66\n      0x27\n      swap2\n      codecopy\n      swap2\n      pop\n      swap2\n      pop\n      jump(tag_61)\n        /* \"FlightInsurance1.sol\":2455:2643  if (bytes(date).length != 10 || ... */\n    tag_77:\n        /* \"FlightInsurance1.sol\":610:620  0.01 ether */\n      0x2386f26fc10000\n        /* \"FlightInsurance1.sol\":2657:2666  msg.value */\n      callvalue\n        /* \"FlightInsurance1.sol\":2657:2676  msg.value < PREMIUM */\n      lt\n        /* \"FlightInsurance1.sol\":2653:2766  if (msg.value < PREMIUM) {... */\n      iszero\n      tag_78\n      jumpi\n        /* \"FlightInsurance1.sol\":2700:2705  false */\n      0x00\n        /* \"FlightInsurance1.sol\":2692:2755  return (false, \"Insufficient funds: Minimum 0.01 ETH required\") */\n      mload(0x40)\n      dup1\n      0x60\n      add\n      0x40\n      mstore\n      dup1\n      0x2d\n      dup2\n      mstore\n      0x20\n      add\n      data_ef070f5147518867988621c2539f9f6b08693b883575bb0e1da4e2e6be6fd1e2\n      0x2d\n      swap2\n      codecopy\n      swap2\n      pop\n      swap2\n      pop\n      jump(tag_61)\n        /* \"FlightInsurance1.sol\":2653:2766  if (msg.value < PREMIUM) {... */\n    tag_78:\n        /* \"FlightInsurance1.sol\":2838:2839  0 */\n      0x00\n        /* \"FlightInsurance1.sol\":2780:2840  policiesByAddress[msg.sender].passengerAddress != address(0) */\n      0xffffffffffffffffffffffffffffffffffffffff\n      and\n        /* \"FlightInsurance1.sol\":2780:2797  policiesByAddress */\n      0x02\n        /* \"FlightInsurance1.sol\":2780:2809  policiesByAddress[msg.sender] */\n      0x00\n        /* \"FlightInsurance1.sol\":2798:2808  msg.sender */\n      caller\n        /* \"FlightInsurance1.sol\":2780:2809  policiesByAddress[msg.sender] */\n      0xffffffffffffffffffffffffffffffffffffffff\n      and\n      0xffffffffffffffffffffffffffffffffffffffff\n      and\n      dup2\n      mstore\n      0x20\n      add\n      swap1\n      dup2\n      mstore\n      0x20\n      add\n      0x00\n      keccak256\n        /* \"FlightInsurance1.sol\":2780:2826  policiesByAddress[msg.sender].passengerAddress */\n      0x01\n      add\n      0x00\n      swap1\n      sload\n      swap1\n      0x0100\n      exp\n      swap1\n      div\n      0xffffffffffffffffffffffffffffffffffffffff\n      and\n        /* \"FlightInsurance1.sol\":2780:2840  policiesByAddress[msg.sender].passengerAddress != address(0) */\n      0xffffffffffffffffffffffffffffffffffffffff\n      and\n      eq\n        /* \"FlightInsurance1.sol\":2776:2923  if (policiesByAddress[msg.sender].passengerAddress != address(0)) {... */\n      tag_79\n      jumpi\n        /* \"FlightInsurance1.sol\":2864:2869  false */\n      0x00\n        /* \"FlightInsurance1.sol\":2856:2912  return (false, \"Policy already exists for this address\") */\n      mload(0x40)\n      dup1\n      0x60\n      add\n      0x40\n      mstore\n      dup1\n      0x26\n      dup2\n      mstore\n      0x20\n      add\n      data_90e62f8819c827a807f9699ff7d534f63b1757c7c06d7e0f1b655a13e0c6e2d0\n      0x26\n      swap2\n      codecopy\n      swap2\n      pop\n      swap2\n      pop\n      jump(tag_61)\n        /* \"FlightInsurance1.sol\":2776:2923  if (policiesByAddress[msg.sender].passengerAddress != address(0)) {... */\n    tag_79:\n        /* \"FlightInsurance1.sol\":3004:3291  InsurancePolicy({... */\n      mload(0x40)\n      dup1\n      0xe0\n      add\n      0x40\n      mstore\n      dup1\n        /* \"FlightInsurance1.sol\":3049:3053  name */\n      dup14\n      dup14\n        /* \"FlightInsurance1.sol\":3004:3291  InsurancePolicy({... */\n      dup1\n      dup1\n      0x1f\n      add\n      0x20\n      dup1\n      swap2\n      div\n      mul\n      0x20\n      add\n      mload(0x40)\n      swap1\n      dup2\n      add\n      0x40\n      mstore\n      dup1\n      swap4\n      swap3\n      swap2\n      swap1\n      dup2\n      dup2\n      mstore\n      0x20\n      add\n      dup4\n      dup4\n      dup1\n      dup3\n      dup5\n      calldatacopy\n      0x00\n      dup2\n      dup5\n      add\n      mstore\n      not(0x1f)\n      0x1f\n      dup3\n      add\n      and\n      swap1\n      pop\n      dup1\n      dup4\n      add\n      swap3\n      pop\n      pop\n      pop\n      pop\n      pop\n      pop\n      pop\n      dup2\n      mstore\n      0x20\n      add\n        /* \"FlightInsurance1.sol\":3085:3095  msg.sender */\n      caller\n        /* \"FlightInsurance1.sol\":3004:3291  InsurancePolicy({... */\n      0xffffffffffffffffffffffffffffffffffffffff\n      and\n      dup2\n      mstore\n      0x20\n      add\n        /* \"FlightInsurance1.sol\":3123:3131  flightNo */\n      dup12\n      dup12\n        /* \"FlightInsurance1.sol\":3004:3291  InsurancePolicy({... */\n      dup1\n      dup1\n      0x1f\n      add\n      0x20\n      dup1\n      swap2\n      div\n      mul\n      0x20\n      add\n      mload(0x40)\n      swap1\n      dup2\n      add\n      0x40\n      mstore\n      dup1\n      swap4\n      swap3\n      swap2\n      swap1\n      dup2\n      dup2\n      mstore\n      0x20\n      add\n      dup4\n      dup4\n      dup1\n      dup3\n      dup5\n      calldatacopy\n      0x00\n      dup2\n      dup5\n      add\n      mstore\n      not(0x1f)\n      0x1f\n      dup3\n      add\n      and\n      swap1\n      pop\n      dup1\n      dup4\n      add\n      swap3\n      pop\n      pop\n      pop\n      pop\n      pop\n      pop\n      pop\n      dup2\n      mstore\n      0x20\n      add\n        /* \"FlightInsurance1.sol\":3157:3161  date */\n      dup10\n      dup10\n        /* \"FlightInsurance1.sol\":3004:3291  InsurancePolicy({... */\n      dup1\n      dup1\n      0x1f\n      add\n      0x20\n      dup1\n      swap2\n      div\n      mul\n      0x20\n      add\n      mload(0x40)\n      swap1\n      dup2\n      add\n      0x40\n      mstore\n      dup1\n      swap4\n      swap3\n      swap2\n      swap1\n      dup2\n      dup2\n      mstore\n      0x20\n      add\n      dup4\n      dup4\n      dup1\n      dup3\n      dup5\n      calldatacopy\n      0x00\n      dup2\n      dup5\n      add\n      mstore\n      not(0x1f)\n      0x1f\n      dup3\n      add\n      and\n      swap1\n      pop\n      dup1\n      dup4\n      add\n      swap3\n      pop\n      pop\n      pop\n      pop\n      pop\n      pop\n      pop\n      dup2\n      mstore\n      0x20\n      add\n        /* \"FlightInsurance1.sol\":3190:3199  departure */\n      dup8\n      dup8\n        /* \"FlightInsurance1.sol\":3004:3291  InsurancePolicy({... */\n      dup1\n      dup1\n      0x1f\n      add\n      0x20\n      dup1\n      swap2\n      div\n      mul\n      0x20\n      add\n      mload(0x40)\n      swap1\n      dup2\n      add\n      0x40\n      mstore\n      dup1\n      swap4\n      swap3\n      swap2\n      swap1\n      dup2\n      dup2\n      mstore\n      0x20\n      add\n      dup4\n      dup4\n      dup1\n      dup3\n      dup5\n      calldatacopy\n      0x00\n      dup2\n      dup5\n      add\n      mstore\n      not(0x1f)\n      0x1f\n      dup3\n      add\n      and\n      swap1\n      pop\n      dup1\n      dup4\n      add\n      swap3\n      pop\n      pop\n      pop\n      pop\n      pop\n      pop\n      pop\n      dup2\n      mstore\n      0x20\n      add\n        /* \"FlightInsurance1.sol\":3230:3241  destination */\n      dup6\n      dup6\n        /* \"FlightInsurance1.sol\":3004:3291  InsurancePolicy({... */\n      dup1\n      dup1\n      0x1f\n      add\n      0x20\n      dup1\n      swap2\n      div\n      mul\n      0x20\n      add\n      mload(0x40)\n      swap1\n      dup2\n      add\n      0x40\n      mstore\n      dup1\n      swap4\n      swap3\n      swap2\n      swap1\n      dup2\n      dup2\n      mstore\n      0x20\n      add\n      dup4\n      dup4\n      dup1\n      dup3\n      dup5\n      calldatacopy\n      0x00\n      dup2\n      dup5\n      add\n      mstore\n      not(0x1f)\n      0x1f\n      dup3\n      add\n      and\n      swap1\n      pop\n      dup1\n      dup4\n      add\n      swap3\n      pop\n      pop\n      pop\n      pop\n      pop\n      pop\n      pop\n      dup2\n      mstore\n      0x20\n      add\n      mload(0x40)\n      dup1\n      0x40\n      add\n      0x40\n      mstore\n      dup1\n      0x09\n      dup2\n      mstore\n      0x20\n      add\n      0x7075726368617365640000000000000000000000000000000000000000000000\n      dup2\n      mstore\n      pop\n      dup2\n      mstore\n      pop\n        /* \"FlightInsurance1.sol\":2972:2989  policiesByAddress */\n      0x02\n        /* \"FlightInsurance1.sol\":2972:3001  policiesByAddress[msg.sender] */\n      0x00\n        /* \"FlightInsurance1.sol\":2990:3000  msg.sender */\n      caller\n        /* \"FlightInsurance1.sol\":2972:3001  policiesByAddress[msg.sender] */\n      0xffffffffffffffffffffffffffffffffffffffff\n      and\n      0xffffffffffffffffffffffffffffffffffffffff\n      and\n      dup2\n      mstore\n      0x20\n      add\n      swap1\n      dup2\n      mstore\n      0x20\n      add\n      0x00\n      keccak256\n        /* \"FlightInsurance1.sol\":2972:3291  policiesByAddress[msg.sender] = InsurancePolicy({... */\n      0x00\n      dup3\n      add\n      mload\n      dup2\n      0x00\n      add\n      swap1\n      dup2\n      tag_80\n      swap2\n      swap1\n      tag_81\n      jump\t// in\n    tag_80:\n      pop\n      0x20\n      dup3\n      add\n      mload\n      dup2\n      0x01\n      add\n      exp(0x0100, 0x00)\n      dup2\n      sload\n      dup2\n      0xffffffffffffffffffffffffffffffffffffffff\n      mul\n      not\n      and\n      swap1\n      dup4\n      0xffffffffffffffffffffffffffffffffffffffff\n      and\n      mul\n      or\n      swap1\n      sstore\n      pop\n      0x40\n      dup3\n      add\n      mload\n      dup2\n      0x02\n      add\n      swap1\n      dup2\n      tag_82\n      swap2\n      swap1\n      tag_81\n      jump\t// in\n    tag_82:\n      pop\n      0x60\n      dup3\n      add\n      mload\n      dup2\n      0x03\n      add\n      swap1\n      dup2\n      tag_83\n      swap2\n      swap1\n      tag_81\n      jump\t// in\n    tag_83:\n      pop\n      0x80\n      dup3\n      add\n      mload\n      dup2\n      0x04\n      add\n      swap1\n      dup2\n      tag_84\n      swap2\n      swap1\n      tag_81\n      jump\t// in\n    tag_84:\n      pop\n      0xa0\n      dup3\n      add\n      mload\n      dup2\n      0x05\n      add\n      swap1\n      dup2\n      tag_85\n      swap2\n      swap1\n      tag_81\n      jump\t// in\n    tag_85:\n      pop\n      0xc0\n      dup3\n      add\n      mload\n      dup2\n      0x06\n      add\n      swap1\n      dup2\n      tag_86\n      swap2\n      swap1\n      tag_81\n      jump\t// in\n    tag_86:\n      pop\n      swap1\n      pop\n      pop\n        /* \"FlightInsurance1.sol\":3350:3370  insuredPassengerList */\n      0x03\n        /* \"FlightInsurance1.sol\":3376:3386  msg.sender */\n      caller\n        /* \"FlightInsurance1.sol\":3350:3387  insuredPassengerList.push(msg.sender) */\n      swap1\n      dup1\n      0x01\n      dup2\n      sload\n      add\n      dup1\n      dup3\n      sstore\n      dup1\n      swap2\n      pop\n      pop\n      0x01\n      swap1\n      sub\n      swap1\n      0x00\n      mstore\n      keccak256(0x00, 0x20)\n      add\n      0x00\n      swap1\n      swap2\n      swap1\n      swap2\n      swap1\n      swap2\n      0x0100\n      exp\n      dup2\n      sload\n      dup2\n      0xffffffffffffffffffffffffffffffffffffffff\n      mul\n      not\n      and\n      swap1\n      dup4\n      0xffffffffffffffffffffffffffffffffffffffff\n      and\n      mul\n      or\n      swap1\n      sstore\n      pop\n        /* \"FlightInsurance1.sol\":3450:3467  insuranceProvider */\n      0x01\n      0x00\n      swap1\n      sload\n      swap1\n      0x0100\n      exp\n      swap1\n      div\n      0xffffffffffffffffffffffffffffffffffffffff\n      and\n        /* \"FlightInsurance1.sol\":3442:3477  payable(insuranceProvider).transfer */\n      0xffffffffffffffffffffffffffffffffffffffff\n      and\n        /* \"FlightInsurance1.sol\":3442:3486  payable(insuranceProvider).transfer(PREMIUM) */\n      0x08fc\n        /* \"FlightInsurance1.sol\":610:620  0.01 ether */\n      0x2386f26fc10000\n        /* \"FlightInsurance1.sol\":3442:3486  payable(insuranceProvider).transfer(PREMIUM) */\n      swap1\n      dup2\n      iszero\n      mul\n      swap1\n      mload(0x40)\n      0x00\n      mload(0x40)\n      dup1\n      dup4\n      sub\n      dup2\n      dup6\n      dup9\n      dup9\n      call\n      swap4\n      pop\n      pop\n      pop\n      pop\n      iszero\n      dup1\n      iszero\n      tag_89\n      jumpi\n      returndatasize\n      0x00\n      dup1\n      returndatacopy\n      revert(0x00, returndatasize)\n    tag_89:\n      pop\n        /* \"FlightInsurance1.sol\":3515:3532  insuranceProvider */\n      0x01\n      0x00\n      swap1\n      sload\n      swap1\n      0x0100\n      exp\n      swap1\n      div\n      0xffffffffffffffffffffffffffffffffffffffff\n      and\n        /* \"FlightInsurance1.sol\":3501:3532  msg.sender == insuranceProvider */\n      0xffffffffffffffffffffffffffffffffffffffff\n      and\n        /* \"FlightInsurance1.sol\":3501:3511  msg.sender */\n      caller\n        /* \"FlightInsurance1.sol\":3501:3532  msg.sender == insuranceProvider */\n      0xffffffffffffffffffffffffffffffffffffffff\n      and\n      sub\n        /* \"FlightInsurance1.sol\":3497:3625  if (msg.sender == insuranceProvider) {... */\n      tag_90\n      jumpi\n        /* \"FlightInsurance1.sol\":3556:3560  true */\n      0x01\n        /* \"FlightInsurance1.sol\":3548:3614  return (true, \"Insurance Provider: Policy successfully purchased\") */\n      mload(0x40)\n      dup1\n      0x60\n      add\n      0x40\n      mstore\n      dup1\n      0x31\n      dup2\n      mstore\n      0x20\n      add\n      data_7636276aa9e42f60e147981f2412d538cf369e2766a6d3efed5d122c680b23d3\n      0x31\n      swap2\n      codecopy\n      swap2\n      pop\n      swap2\n      pop\n      jump(tag_61)\n        /* \"FlightInsurance1.sol\":3497:3625  if (msg.sender == insuranceProvider) {... */\n    tag_90:\n        /* \"FlightInsurance1.sol\":3643:3647  true */\n      0x01\n        /* \"FlightInsurance1.sol\":3635:3681  return (true, \"Policy successfully purchased\") */\n      mload(0x40)\n      dup1\n      0x40\n      add\n      0x40\n      mstore\n      dup1\n      0x1d\n      dup2\n      mstore\n      0x20\n      add\n      0x506f6c696379207375636365737366756c6c7920707572636861736564000000\n      dup2\n      mstore\n      pop\n      swap2\n      pop\n      swap2\n      pop\n        /* \"@openzeppelin/contracts/security/ReentrancyGuard.sol\":2292:2293  _ */\n    tag_61:\n        /* \"@openzeppelin/contracts/security/ReentrancyGuard.sol\":2303:2323  _nonReentrantAfter() */\n      tag_91\n        /* \"@openzeppelin/contracts/security/ReentrancyGuard.sol\":2303:2321  _nonReentrantAfter */\n      tag_92\n        /* \"@openzeppelin/contracts/security/ReentrancyGuard.sol\":2303:2323  _nonReentrantAfter() */\n      jump\t// in\n    tag_91:\n        /* \"FlightInsurance1.sol\":1526:3688  function purchasePolicy(... */\n      swap11\n      pop\n      swap11\n      swap9\n      pop\n      pop\n      pop\n      pop\n      pop\n      pop\n      pop\n      pop\n      pop\n      jump\t// out\n        /* \"FlightInsurance1.sol\":3741:4215  function viewMyPolicy() external view returns (InsurancePolicy memory, string memory) {... */\n    tag_25:\n        /* \"FlightInsurance1.sol\":3788:3810  InsurancePolicy memory */\n      tag_93\n      tag_94\n      jump\t// in\n    tag_93:\n        /* \"FlightInsurance1.sol\":3812:3825  string memory */\n      0x60\n        /* \"FlightInsurance1.sol\":3837:3866  InsurancePolicy memory policy */\n      0x00\n        /* \"FlightInsurance1.sol\":3869:3886  policiesByAddress */\n      0x02\n        /* \"FlightInsurance1.sol\":3869:3898  policiesByAddress[msg.sender] */\n      0x00\n        /* \"FlightInsurance1.sol\":3887:3897  msg.sender */\n      caller\n        /* \"FlightInsurance1.sol\":3869:3898  policiesByAddress[msg.sender] */\n      0xffffffffffffffffffffffffffffffffffffffff\n      and\n      0xffffffffffffffffffffffffffffffffffffffff\n      and\n      dup2\n      mstore\n      0x20\n      add\n      swap1\n      dup2\n      mstore\n      0x20\n      add\n      0x00\n      keccak256\n        /* \"FlightInsurance1.sol\":3837:3898  InsurancePolicy memory policy = policiesByAddress[msg.sender] */\n      mload(0x40)\n      dup1\n      0xe0\n      add\n      0x40\n      mstore\n      swap1\n      dup2\n      0x00\n      dup3\n      add\n      dup1\n      sload\n      tag_96\n      swap1\n      tag_97\n      jump\t// in\n    tag_96:\n      dup1\n      0x1f\n      add\n      0x20\n      dup1\n      swap2\n      div\n      mul\n      0x20\n      add\n      mload(0x40)\n      swap1\n      dup2\n      add\n      0x40\n      mstore\n      dup1\n      swap3\n      swap2\n      swap1\n      dup2\n      dup2\n      mstore\n      0x20\n      add\n      dup3\n      dup1\n      sload\n      tag_98\n      swap1\n      tag_97\n      jump\t// in\n    tag_98:\n      dup1\n      iszero\n      tag_99\n      jumpi\n      dup1\n      0x1f\n      lt\n      tag_100\n      jumpi\n      0x0100\n      dup1\n      dup4\n      sload\n      div\n      mul\n      dup4\n      mstore\n      swap2\n      0x20\n      add\n      swap2\n      jump(tag_99)\n    tag_100:\n      dup3\n      add\n      swap2\n      swap1\n      0x00\n      mstore\n      keccak256(0x00, 0x20)\n      swap1\n    tag_101:\n      dup2\n      sload\n      dup2\n      mstore\n      swap1\n      0x01\n      add\n      swap1\n      0x20\n      add\n      dup1\n      dup4\n      gt\n      tag_101\n      jumpi\n      dup3\n      swap1\n      sub\n      0x1f\n      and\n      dup3\n      add\n      swap2\n    tag_99:\n      pop\n      pop\n      pop\n      pop\n      pop\n      dup2\n      mstore\n      0x20\n      add\n      0x01\n      dup3\n      add\n      0x00\n      swap1\n      sload\n      swap1\n      0x0100\n      exp\n      swap1\n      div\n      0xffffffffffffffffffffffffffffffffffffffff\n      and\n      0xffffffffffffffffffffffffffffffffffffffff\n      and\n      0xffffffffffffffffffffffffffffffffffffffff\n      and\n      dup2\n      mstore\n      0x20\n      add\n      0x02\n      dup3\n      add\n      dup1\n      sload\n      tag_102\n      swap1\n      tag_97\n      jump\t// in\n    tag_102:\n      dup1\n      0x1f\n      add\n      0x20\n      dup1\n      swap2\n      div\n      mul\n      0x20\n      add\n      mload(0x40)\n      swap1\n      dup2\n      add\n      0x40\n      mstore\n      dup1\n      swap3\n      swap2\n      swap1\n      dup2\n      dup2\n      mstore\n      0x20\n      add\n      dup3\n      dup1\n      sload\n      tag_103\n      swap1\n      tag_97\n      jump\t// in\n    tag_103:\n      dup1\n      iszero\n      tag_104\n      jumpi\n      dup1\n      0x1f\n      lt\n      tag_105\n      jumpi\n      0x0100\n      dup1\n      dup4\n      sload\n      div\n      mul\n      dup4\n      mstore\n      swap2\n      0x20\n      add\n      swap2\n      jump(tag_104)\n    tag_105:\n      dup3\n      add\n      swap2\n      swap1\n      0x00\n      mstore\n      keccak256(0x00, 0x20)\n      swap1\n    tag_106:\n      dup2\n      sload\n      dup2\n      mstore\n      swap1\n      0x01\n      add\n      swap1\n      0x20\n      add\n      dup1\n      dup4\n      gt\n      tag_106\n      jumpi\n      dup3\n      swap1\n      sub\n      0x1f\n      and\n      dup3\n      add\n      swap2\n    tag_104:\n      pop\n      pop\n      pop\n      pop\n      pop\n      dup2\n      mstore\n      0x20\n      add\n      0x03\n      dup3\n      add\n      dup1\n      sload\n      tag_107\n      swap1\n      tag_97\n      jump\t// in\n    tag_107:\n      dup1\n      0x1f\n      add\n      0x20\n      dup1\n      swap2\n      div\n      mul\n      0x20\n      add\n      mload(0x40)\n      swap1\n      dup2\n      add\n      0x40\n      mstore\n      dup1\n      swap3\n      swap2\n      swap1\n      dup2\n      dup2\n      mstore\n      0x20\n      add\n      dup3\n      dup1\n      sload\n      tag_108\n      swap1\n      tag_97\n      jump\t// in\n    tag_108:\n      dup1\n      iszero\n      tag_109\n      jumpi\n      dup1\n      0x1f\n      lt\n      tag_110\n      jumpi\n      0x0100\n      dup1\n      dup4\n      sload\n      div\n      mul\n      dup4\n      mstore\n      swap2\n      0x20\n      add\n      swap2\n      jump(tag_109)\n    tag_110:\n      dup3\n      add\n      swap2\n      swap1\n      0x00\n      mstore\n      keccak256(0x00, 0x20)\n      swap1\n    tag_111:\n      dup2\n      sload\n      dup2\n      mstore\n      swap1\n      0x01\n      add\n      swap1\n      0x20\n      add\n      dup1\n      dup4\n      gt\n      tag_111\n      jumpi\n      dup3\n      swap1\n      sub\n      0x1f\n      and\n      dup3\n      add\n      swap2\n    tag_109:\n      pop\n      pop\n      pop\n      pop\n      pop\n      dup2\n      mstore\n      0x20\n      add\n      0x04\n      dup3\n      add\n      dup1\n      sload\n      tag_112\n      swap1\n      tag_97\n      jump\t// in\n    tag_112:\n      dup1\n      0x1f\n      add\n      0x20\n      dup1\n      swap2\n      div\n      mul\n      0x20\n      add\n      mload(0x40)\n      swap1\n      dup2\n      add\n      0x40\n      mstore\n      dup1\n      swap3\n      swap2\n      swap1\n      dup2\n      dup2\n      mstore\n      0x20\n      add\n      dup3\n      dup1\n      sload\n      tag_113\n      swap1\n      tag_97\n      jump\t// in\n    tag_113:\n      dup1\n      iszero\n      tag_114\n      jumpi\n      dup1\n      0x1f\n      lt\n      tag_115\n      jumpi\n      0x0100\n      dup1\n      dup4\n      sload\n      div\n      mul\n      dup4\n      mstore\n      swap2\n      0x20\n      add\n      swap2\n      jump(tag_114)\n    tag_115:\n      dup3\n      add\n      swap2\n      swap1\n      0x00\n      mstore\n      keccak256(0x00, 0x20)\n      swap1\n    tag_116:\n      dup2\n      sload\n      dup2\n      mstore\n      swap1\n      0x01\n      add\n      swap1\n      0x20\n      add\n      dup1\n      dup4\n      gt\n      tag_116\n      jumpi\n      dup3\n      swap1\n      sub\n      0x1f\n      and\n      dup3\n      add\n      swap2\n    tag_114:\n      pop\n      pop\n      pop\n      pop\n      pop\n      dup2\n      mstore\n      0x20\n      add\n      0x05\n      dup3\n      add\n      dup1\n      sload\n      tag_117\n      swap1\n      tag_97\n      jump\t// in\n    tag_117:\n      dup1\n      0x1f\n      add\n      0x20\n      dup1\n      swap2\n      div\n      mul\n      0x20\n      add\n      mload(0x40)\n      swap1\n      dup2\n      add\n      0x40\n      mstore\n      dup1\n      swap3\n      swap2\n      swap1\n      dup2\n      dup2\n      mstore\n      0x20\n      add\n      dup3\n      dup1\n      sload\n      tag_118\n      swap1\n      tag_97\n      jump\t// in\n    tag_118:\n      dup1\n      iszero\n      tag_119\n      jumpi\n      dup1\n      0x1f\n      lt\n      tag_120\n      jumpi\n      0x0100\n      dup1\n      dup4\n      sload\n      div\n      mul\n      dup4\n      mstore\n      swap2\n      0x20\n      add\n      swap2\n      jump(tag_119)\n    tag_120:\n      dup3\n      add\n      swap2\n      swap1\n      0x00\n      mstore\n      keccak256(0x00, 0x20)\n      swap1\n    tag_121:\n      dup2\n      sload\n      dup2\n      mstore\n      swap1\n      0x01\n      add\n      swap1\n      0x20\n      add\n      dup1\n      dup4\n      gt\n      tag_121\n      jumpi\n      dup3\n      swap1\n      sub\n      0x1f\n      and\n      dup3\n      add\n      swap2\n    tag_119:\n      pop\n      pop\n      pop\n      pop\n      pop\n      dup2\n      mstore\n      0x20\n      add\n      0x06\n      dup3\n      add\n      dup1\n      sload\n      tag_122\n      swap1\n      tag_97\n      jump\t// in\n    tag_122:\n      dup1\n      0x1f\n      add\n      0x20\n      dup1\n      swap2\n      div\n      mul\n      0x20\n      add\n      mload(0x40)\n      swap1\n      dup2\n      add\n      0x40\n      mstore\n      dup1\n      swap3\n      swap2\n      swap1\n      dup2\n      dup2\n      mstore\n      0x20\n      add\n      dup3\n      dup1\n      sload\n      tag_123\n      swap1\n      tag_97\n      jump\t// in\n    tag_123:\n      dup1\n      iszero\n      tag_124\n      jumpi\n      dup1\n      0x1f\n      lt\n      tag_125\n      jumpi\n      0x0100\n      dup1\n      dup4\n      sload\n      div\n      mul\n      dup4\n      mstore\n      swap2\n      0x20\n      add\n      swap2\n      jump(tag_124)\n    tag_125:\n      dup3\n      add\n      swap2\n      swap1\n      0x00\n      mstore\n      keccak256(0x00, 0x20)\n      swap1\n    tag_126:\n      dup2\n      sload\n      dup2\n      mstore\n      swap1\n      0x01\n      add\n      swap1\n      0x20\n      add\n      dup1\n      dup4\n      gt\n      tag_126\n      jumpi\n      dup3\n      swap1\n      sub\n      0x1f\n      and\n      dup3\n      add\n      swap2\n    tag_124:\n      pop\n      pop\n      pop\n      pop\n      pop\n      dup2\n      mstore\n      pop\n      pop\n      swap1\n      pop\n        /* \"FlightInsurance1.sol\":3947:3948  0 */\n      0x00\n        /* \"FlightInsurance1.sol\":3912:3949  policy.passengerAddress == address(0) */\n      0xffffffffffffffffffffffffffffffffffffffff\n      and\n        /* \"FlightInsurance1.sol\":3912:3918  policy */\n      dup2\n        /* \"FlightInsurance1.sol\":3912:3935  policy.passengerAddress */\n      0x20\n      add\n      mload\n        /* \"FlightInsurance1.sol\":3912:3949  policy.passengerAddress == address(0) */\n      0xffffffffffffffffffffffffffffffffffffffff\n      and\n      sub\n        /* \"FlightInsurance1.sol\":3908:4010  if (policy.passengerAddress == address(0)) {... */\n      tag_127\n      jumpi\n        /* \"FlightInsurance1.sol\":3973:3979  policy */\n      dup1\n        /* \"FlightInsurance1.sol\":3965:3999  return (policy, \"No policy found\") */\n      mload(0x40)\n      dup1\n      0x40\n      add\n      0x40\n      mstore\n      dup1\n      0x0f\n      dup2\n      mstore\n      0x20\n      add\n      0x4e6f20706f6c69637920666f756e640000000000000000000000000000000000\n      dup2\n      mstore\n      pop\n      swap3\n      pop\n      swap3\n      pop\n      pop\n      jump(tag_95)\n        /* \"FlightInsurance1.sol\":3908:4010  if (policy.passengerAddress == address(0)) {... */\n    tag_127:\n        /* \"FlightInsurance1.sol\":4038:4055  insuranceProvider */\n      0x01\n      0x00\n      swap1\n      sload\n      swap1\n      0x0100\n      exp\n      swap1\n      div\n      0xffffffffffffffffffffffffffffffffffffffff\n      and\n        /* \"FlightInsurance1.sol\":4024:4055  msg.sender == insuranceProvider */\n      0xffffffffffffffffffffffffffffffffffffffff\n      and\n        /* \"FlightInsurance1.sol\":4024:4034  msg.sender */\n      caller\n        /* \"FlightInsurance1.sol\":4024:4055  msg.sender == insuranceProvider */\n      0xffffffffffffffffffffffffffffffffffffffff\n      and\n      sub\n        /* \"FlightInsurance1.sol\":4020:4150  if (msg.sender == insuranceProvider) {... */\n      tag_128\n      jumpi\n        /* \"FlightInsurance1.sol\":4079:4085  policy */\n      dup1\n        /* \"FlightInsurance1.sol\":4071:4139  return (policy, \"Insurance Provider: Policy retrieved successfully\") */\n      mload(0x40)\n      dup1\n      0x60\n      add\n      0x40\n      mstore\n      dup1\n      0x31\n      dup2\n      mstore\n      0x20\n      add\n      data_8fab27788aa2569e6388b55730db481d583fa165812a241294b7b96a90b2a252\n      0x31\n      swap2\n      codecopy\n      swap3\n      pop\n      swap3\n      pop\n      pop\n      jump(tag_95)\n        /* \"FlightInsurance1.sol\":4020:4150  if (msg.sender == insuranceProvider) {... */\n    tag_128:\n        /* \"FlightInsurance1.sol\":4168:4174  policy */\n      dup1\n        /* \"FlightInsurance1.sol\":4160:4208  return (policy, \"Policy retrieved successfully\") */\n      mload(0x40)\n      dup1\n      0x40\n      add\n      0x40\n      mstore\n      dup1\n      0x1d\n      dup2\n      mstore\n      0x20\n      add\n      0x506f6c69637920726574726965766564207375636365737366756c6c79000000\n      dup2\n      mstore\n      pop\n      swap3\n      pop\n      swap3\n      pop\n      pop\n        /* \"FlightInsurance1.sol\":3741:4215  function viewMyPolicy() external view returns (InsurancePolicy memory, string memory) {... */\n    tag_95:\n      swap1\n      swap2\n      jump\t// out\n        /* \"FlightInsurance1.sol\":679:711  address public insuranceProvider */\n    tag_30:\n      0x01\n      0x00\n      swap1\n      sload\n      swap1\n      0x0100\n      exp\n      swap1\n      div\n      0xffffffffffffffffffffffffffffffffffffffff\n      and\n      dup2\n      jump\t// out\n        /* \"FlightInsurance1.sol\":5197:6010  function payIndemnity(address passenger) external returns (bool, string memory) {... */\n    tag_37:\n        /* \"FlightInsurance1.sol\":5256:5260  bool */\n      0x00\n        /* \"FlightInsurance1.sol\":5262:5275  string memory */\n      0x60\n        /* \"FlightInsurance1.sol\":5305:5322  insuranceProvider */\n      0x01\n      0x00\n      swap1\n      sload\n      swap1\n      0x0100\n      exp\n      swap1\n      div\n      0xffffffffffffffffffffffffffffffffffffffff\n      and\n        /* \"FlightInsurance1.sol\":5291:5322  msg.sender != insuranceProvider */\n      0xffffffffffffffffffffffffffffffffffffffff\n      and\n        /* \"FlightInsurance1.sol\":5291:5301  msg.sender */\n      caller\n        /* \"FlightInsurance1.sol\":5291:5322  msg.sender != insuranceProvider */\n      0xffffffffffffffffffffffffffffffffffffffff\n      and\n      eq\n        /* \"FlightInsurance1.sol\":5287:5411  if (msg.sender != insuranceProvider) {... */\n      tag_130\n      jumpi\n        /* \"FlightInsurance1.sol\":5346:5351  false */\n      0x00\n        /* \"FlightInsurance1.sol\":5338:5400  return (false, \"Only insurance provider can initiate payment\") */\n      mload(0x40)\n      dup1\n      0x60\n      add\n      0x40\n      mstore\n      dup1\n      0x2c\n      dup2\n      mstore\n      0x20\n      add\n      data_35c2c118339253cfd42f235be948378bf98d9f4c02c62ef1490e41e10f5494c5\n      0x2c\n      swap2\n      codecopy\n      swap2\n      pop\n      swap2\n      pop\n      jump(tag_129)\n        /* \"FlightInsurance1.sol\":5287:5411  if (msg.sender != insuranceProvider) {... */\n    tag_130:\n        /* \"FlightInsurance1.sol\":5446:5447  0 */\n      0x00\n        /* \"FlightInsurance1.sol\":5425:5448  passenger == address(0) */\n      0xffffffffffffffffffffffffffffffffffffffff\n      and\n        /* \"FlightInsurance1.sol\":5425:5434  passenger */\n      dup4\n        /* \"FlightInsurance1.sol\":5425:5448  passenger == address(0) */\n      0xffffffffffffffffffffffffffffffffffffffff\n      and\n      sub\n        /* \"FlightInsurance1.sol\":5421:5531  if (passenger == address(0)) {... */\n      tag_131\n      jumpi\n        /* \"FlightInsurance1.sol\":5472:5477  false */\n      0x00\n        /* \"FlightInsurance1.sol\":5464:5520  return (false, \"Invalid address: zero address provided\") */\n      mload(0x40)\n      dup1\n      0x60\n      add\n      0x40\n      mstore\n      dup1\n      0x26\n      dup2\n      mstore\n      0x20\n      add\n      data_2a5821b7e6fb0b2894da4a1cf4a905d129b906bf6cb575c5c603b53ecae40c94\n      0x26\n      swap2\n      codecopy\n      swap2\n      pop\n      swap2\n      pop\n      jump(tag_129)\n        /* \"FlightInsurance1.sol\":5421:5531  if (passenger == address(0)) {... */\n    tag_131:\n        /* \"FlightInsurance1.sol\":5541:5571  InsurancePolicy storage policy */\n      0x00\n        /* \"FlightInsurance1.sol\":5574:5591  policiesByAddress */\n      0x02\n        /* \"FlightInsurance1.sol\":5574:5602  policiesByAddress[passenger] */\n      0x00\n        /* \"FlightInsurance1.sol\":5592:5601  passenger */\n      dup6\n        /* \"FlightInsurance1.sol\":5574:5602  policiesByAddress[passenger] */\n      0xffffffffffffffffffffffffffffffffffffffff\n      and\n      0xffffffffffffffffffffffffffffffffffffffff\n      and\n      dup2\n      mstore\n      0x20\n      add\n      swap1\n      dup2\n      mstore\n      0x20\n      add\n      0x00\n      keccak256\n        /* \"FlightInsurance1.sol\":5541:5602  InsurancePolicy storage policy = policiesByAddress[passenger] */\n      swap1\n      pop\n        /* \"FlightInsurance1.sol\":5651:5652  0 */\n      0x00\n        /* \"FlightInsurance1.sol\":5616:5653  policy.passengerAddress == address(0) */\n      0xffffffffffffffffffffffffffffffffffffffff\n      and\n        /* \"FlightInsurance1.sol\":5616:5622  policy */\n      dup2\n        /* \"FlightInsurance1.sol\":5616:5639  policy.passengerAddress */\n      0x01\n      add\n      0x00\n      swap1\n      sload\n      swap1\n      0x0100\n      exp\n      swap1\n      div\n      0xffffffffffffffffffffffffffffffffffffffff\n      and\n        /* \"FlightInsurance1.sol\":5616:5653  policy.passengerAddress == address(0) */\n      0xffffffffffffffffffffffffffffffffffffffff\n      and\n      sub\n        /* \"FlightInsurance1.sol\":5612:5713  if (policy.passengerAddress == address(0)) {... */\n      tag_132\n      jumpi\n        /* \"FlightInsurance1.sol\":5677:5682  false */\n      0x00\n        /* \"FlightInsurance1.sol\":5669:5702  return (false, \"No policy found\") */\n      mload(0x40)\n      dup1\n      0x40\n      add\n      0x40\n      mstore\n      dup1\n      0x0f\n      dup2\n      mstore\n      0x20\n      add\n      0x4e6f20706f6c69637920666f756e640000000000000000000000000000000000\n      dup2\n      mstore\n      pop\n      swap3\n      pop\n      swap3\n      pop\n      pop\n      jump(tag_129)\n        /* \"FlightInsurance1.sol\":5612:5713  if (policy.passengerAddress == address(0)) {... */\n    tag_132:\n        /* \"FlightInsurance1.sol\":5768:5790  keccak256(\"purchased\") */\n      0x8a6496e4880174e791c7333606cc9f71e4c6fc52a65ccc1008e0ddd3dd8d1da5\n        /* \"FlightInsurance1.sol\":5743:5749  policy */\n      dup2\n        /* \"FlightInsurance1.sol\":5743:5762  policy.policyStatus */\n      0x06\n      add\n        /* \"FlightInsurance1.sol\":5727:5764  keccak256(bytes(policy.policyStatus)) */\n      mload(0x40)\n      tag_133\n      swap2\n      swap1\n      tag_134\n      jump\t// in\n    tag_133:\n      mload(0x40)\n      dup1\n      swap2\n      sub\n      swap1\n      keccak256\n        /* \"FlightInsurance1.sol\":5727:5790  keccak256(bytes(policy.policyStatus)) != keccak256(\"purchased\") */\n      eq\n        /* \"FlightInsurance1.sol\":5723:5860  if (keccak256(bytes(policy.policyStatus)) != keccak256(\"purchased\")) {... */\n      tag_135\n      jumpi\n        /* \"FlightInsurance1.sol\":5814:5819  false */\n      0x00\n        /* \"FlightInsurance1.sol\":5806:5849  return (false, \"Indemnity already claimed\") */\n      mload(0x40)\n      dup1\n      0x40\n      add\n      0x40\n      mstore\n      dup1\n      0x19\n      dup2\n      mstore\n      0x20\n      add\n      0x496e64656d6e69747920616c726561647920636c61696d656400000000000000\n      dup2\n      mstore\n      pop\n      swap3\n      pop\n      swap3\n      pop\n      pop\n      jump(tag_129)\n        /* \"FlightInsurance1.sol\":5723:5860  if (keccak256(bytes(policy.policyStatus)) != keccak256(\"purchased\")) {... */\n    tag_135:\n        /* \"FlightInsurance1.sol\":5878:5887  passenger */\n      dup4\n        /* \"FlightInsurance1.sol\":5870:5897  payable(passenger).transfer */\n      0xffffffffffffffffffffffffffffffffffffffff\n      and\n        /* \"FlightInsurance1.sol\":5870:5908  payable(passenger).transfer(INDEMNITY) */\n      0x08fc\n        /* \"FlightInsurance1.sol\":662:672  0.02 ether */\n      0x470de4df820000\n        /* \"FlightInsurance1.sol\":5870:5908  payable(passenger).transfer(INDEMNITY) */\n      swap1\n      dup2\n      iszero\n      mul\n      swap1\n      mload(0x40)\n      0x00\n      mload(0x40)\n      dup1\n      dup4\n      sub\n      dup2\n      dup6\n      dup9\n      dup9\n      call\n      swap4\n      pop\n      pop\n      pop\n      pop\n      iszero\n      dup1\n      iszero\n      tag_137\n      jumpi\n      returndatasize\n      0x00\n      dup1\n      returndatacopy\n      revert(0x00, returndatasize)\n    tag_137:\n      pop\n        /* \"FlightInsurance1.sol\":5918:5949  policy.policyStatus = \"claimed\" */\n      mload(0x40)\n      dup1\n      0x40\n      add\n      0x40\n      mstore\n      dup1\n      0x07\n      dup2\n      mstore\n      0x20\n      add\n      0x636c61696d656400000000000000000000000000000000000000000000000000\n      dup2\n      mstore\n      pop\n        /* \"FlightInsurance1.sol\":5918:5924  policy */\n      dup2\n        /* \"FlightInsurance1.sol\":5918:5937  policy.policyStatus */\n      0x06\n      add\n        /* \"FlightInsurance1.sol\":5918:5949  policy.policyStatus = \"claimed\" */\n      swap1\n      dup2\n      tag_138\n      swap2\n      swap1\n      tag_81\n      jump\t// in\n    tag_138:\n      pop\n        /* \"FlightInsurance1.sol\":5967:5971  true */\n      0x01\n        /* \"FlightInsurance1.sol\":5959:6003  return (true, \"Indemnity successfully paid\") */\n      mload(0x40)\n      dup1\n      0x40\n      add\n      0x40\n      mstore\n      dup1\n      0x1b\n      dup2\n      mstore\n      0x20\n      add\n      0x496e64656d6e697479207375636365737366756c6c7920706169640000000000\n      dup2\n      mstore\n      pop\n      swap3\n      pop\n      swap3\n      pop\n      pop\n        /* \"FlightInsurance1.sol\":5197:6010  function payIndemnity(address passenger) external returns (bool, string memory) {... */\n    tag_129:\n      swap2\n      pop\n      swap2\n      jump\t// out\n        /* \"FlightInsurance1.sol\":1170:1367  function viewAvailablePolicy() external pure returns (string memory) {... */\n    tag_41:\n        /* \"FlightInsurance1.sol\":1224:1237  string memory */\n      0x60\n        /* \"FlightInsurance1.sol\":1249:1360  return \"Premium: 0.01 ETH, Indemnity: 0.02 ETH, Coverage: Extreme Weather Delays (e.g., hail, flooding, etc.).\" */\n      mload(0x40)\n      dup1\n      0xa0\n      add\n      0x40\n      mstore\n      dup1\n      0x66\n      dup2\n      mstore\n      0x20\n      add\n      data_d59989be92bc9d1b4549c043b505eb9c4875cfd9f825df1096982c95975097c2\n      0x66\n      swap2\n      codecopy\n      swap1\n      pop\n        /* \"FlightInsurance1.sol\":1170:1367  function viewAvailablePolicy() external pure returns (string memory) {... */\n      swap1\n      jump\t// out\n        /* \"FlightInsurance1.sol\":4280:4956  function viewAllPolicies() external view returns (InsurancePolicy[] memory, string memory) {... */\n    tag_46:\n        /* \"FlightInsurance1.sol\":4330:4354  InsurancePolicy[] memory */\n      0x60\n        /* \"FlightInsurance1.sol\":4356:4369  string memory */\n      dup1\n        /* \"FlightInsurance1.sol\":4491:4508  insuranceProvider */\n      0x01\n      0x00\n      swap1\n      sload\n      swap1\n      0x0100\n      exp\n      swap1\n      div\n      0xffffffffffffffffffffffffffffffffffffffff\n      and\n        /* \"FlightInsurance1.sol\":4477:4508  msg.sender != insuranceProvider */\n      0xffffffffffffffffffffffffffffffffffffffff\n      and\n        /* \"FlightInsurance1.sol\":4477:4487  msg.sender */\n      caller\n        /* \"FlightInsurance1.sol\":4477:4508  msg.sender != insuranceProvider */\n      0xffffffffffffffffffffffffffffffffffffffff\n      and\n      eq\n        /* \"FlightInsurance1.sol\":4473:4630  if (msg.sender != insuranceProvider) {... */\n      tag_141\n      jumpi\n        /* \"FlightInsurance1.sol\":4524:4554  InsurancePolicy[] memory empty */\n      0x60\n        /* \"FlightInsurance1.sol\":4576:4581  empty */\n      dup1\n        /* \"FlightInsurance1.sol\":4568:4619  return (empty, \"Caller must be insurance provider\") */\n      mload(0x40)\n      dup1\n      0x60\n      add\n      0x40\n      mstore\n      dup1\n      0x21\n      dup2\n      mstore\n      0x20\n      add\n      data_2df0834bdf8786d74360a7c8b8d7de5d15a4289ab85529d73f4e7397c0b8af40\n      0x21\n      swap2\n      codecopy\n      swap3\n      pop\n      swap3\n      pop\n      pop\n      jump(tag_140)\n        /* \"FlightInsurance1.sol\":4473:4630  if (msg.sender != insuranceProvider) {... */\n    tag_141:\n        /* \"FlightInsurance1.sol\":4640:4676  InsurancePolicy[] memory allPolicies */\n      0x00\n        /* \"FlightInsurance1.sol\":4701:4721  insuredPassengerList */\n      0x03\n        /* \"FlightInsurance1.sol\":4701:4728  insuredPassengerList.length */\n      dup1\n      sload\n      swap1\n      pop\n        /* \"FlightInsurance1.sol\":4679:4729  new InsurancePolicy[](insuredPassengerList.length) */\n      0xffffffffffffffff\n      dup2\n      gt\n      iszero\n      tag_142\n      jumpi\n      tag_143\n      tag_144\n      jump\t// in\n    tag_143:\n    tag_142:\n      mload(0x40)\n      swap1\n      dup1\n      dup3\n      mstore\n      dup1\n      0x20\n      mul\n      0x20\n      add\n      dup3\n      add\n      0x40\n      mstore\n      dup1\n      iszero\n      tag_145\n      jumpi\n      dup2\n      0x20\n      add\n    tag_146:\n      tag_147\n      tag_94\n      jump\t// in\n    tag_147:\n      dup2\n      mstore\n      0x20\n      add\n      swap1\n      0x01\n      swap1\n      sub\n      swap1\n      dup2\n      tag_146\n      jumpi\n      swap1\n      pop\n    tag_145:\n      pop\n        /* \"FlightInsurance1.sol\":4640:4729  InsurancePolicy[] memory allPolicies = new InsurancePolicy[](insuredPassengerList.length) */\n      swap1\n      pop\n        /* \"FlightInsurance1.sol\":4744:4753  uint256 i */\n      0x00\n        /* \"FlightInsurance1.sol\":4739:4881  for (uint256 i = 0; i < insuredPassengerList.length; i++) {... */\n    tag_148:\n        /* \"FlightInsurance1.sol\":4763:4783  insuredPassengerList */\n      0x03\n        /* \"FlightInsurance1.sol\":4763:4790  insuredPassengerList.length */\n      dup1\n      sload\n      swap1\n      pop\n        /* \"FlightInsurance1.sol\":4759:4760  i */\n      dup2\n        /* \"FlightInsurance1.sol\":4759:4790  i < insuredPassengerList.length */\n      lt\n        /* \"FlightInsurance1.sol\":4739:4881  for (uint256 i = 0; i < insuredPassengerList.length; i++) {... */\n      iszero\n      tag_149\n      jumpi\n        /* \"FlightInsurance1.sol\":4828:4845  policiesByAddress */\n      0x02\n        /* \"FlightInsurance1.sol\":4828:4870  policiesByAddress[insuredPassengerList[i]] */\n      0x00\n        /* \"FlightInsurance1.sol\":4846:4866  insuredPassengerList */\n      0x03\n        /* \"FlightInsurance1.sol\":4867:4868  i */\n      dup4\n        /* \"FlightInsurance1.sol\":4846:4869  insuredPassengerList[i] */\n      dup2\n      sload\n      dup2\n      lt\n      tag_151\n      jumpi\n      tag_152\n      tag_73\n      jump\t// in\n    tag_152:\n    tag_151:\n      swap1\n      0x00\n      mstore\n      keccak256(0x00, 0x20)\n      add\n      0x00\n      swap1\n      sload\n      swap1\n      0x0100\n      exp\n      swap1\n      div\n      0xffffffffffffffffffffffffffffffffffffffff\n      and\n        /* \"FlightInsurance1.sol\":4828:4870  policiesByAddress[insuredPassengerList[i]] */\n      0xffffffffffffffffffffffffffffffffffffffff\n      and\n      0xffffffffffffffffffffffffffffffffffffffff\n      and\n      dup2\n      mstore\n      0x20\n      add\n      swap1\n      dup2\n      mstore\n      0x20\n      add\n      0x00\n      keccak256\n        /* \"FlightInsurance1.sol\":4811:4870  allPolicies[i] = policiesByAddress[insuredPassengerList[i]] */\n      mload(0x40)\n      dup1\n      0xe0\n      add\n      0x40\n      mstore\n      swap1\n      dup2\n      0x00\n      dup3\n      add\n      dup1\n      sload\n      tag_154\n      swap1\n      tag_97\n      jump\t// in\n    tag_154:\n      dup1\n      0x1f\n      add\n      0x20\n      dup1\n      swap2\n      div\n      mul\n      0x20\n      add\n      mload(0x40)\n      swap1\n      dup2\n      add\n      0x40\n      mstore\n      dup1\n      swap3\n      swap2\n      swap1\n      dup2\n      dup2\n      mstore\n      0x20\n      add\n      dup3\n      dup1\n      sload\n      tag_155\n      swap1\n      tag_97\n      jump\t// in\n    tag_155:\n      dup1\n      iszero\n      tag_156\n      jumpi\n      dup1\n      0x1f\n      lt\n      tag_157\n      jumpi\n      0x0100\n      dup1\n      dup4\n      sload\n      div\n      mul\n      dup4\n      mstore\n      swap2\n      0x20\n      add\n      swap2\n      jump(tag_156)\n    tag_157:\n      dup3\n      add\n      swap2\n      swap1\n      0x00\n      mstore\n      keccak256(0x00, 0x20)\n      swap1\n    tag_158:\n      dup2\n      sload\n      dup2\n      mstore\n      swap1\n      0x01\n      add\n      swap1\n      0x20\n      add\n      dup1\n      dup4\n      gt\n      tag_158\n      jumpi\n      dup3\n      swap1\n      sub\n      0x1f\n      and\n      dup3\n      add\n      swap2\n    tag_156:\n      pop\n      pop\n      pop\n      pop\n      pop\n      dup2\n      mstore\n      0x20\n      add\n      0x01\n      dup3\n      add\n      0x00\n      swap1\n      sload\n      swap1\n      0x0100\n      exp\n      swap1\n      div\n      0xffffffffffffffffffffffffffffffffffffffff\n      and\n      0xffffffffffffffffffffffffffffffffffffffff\n      and\n      0xffffffffffffffffffffffffffffffffffffffff\n      and\n      dup2\n      mstore\n      0x20\n      add\n      0x02\n      dup3\n      add\n      dup1\n      sload\n      tag_159\n      swap1\n      tag_97\n      jump\t// in\n    tag_159:\n      dup1\n      0x1f\n      add\n      0x20\n      dup1\n      swap2\n      div\n      mul\n      0x20\n      add\n      mload(0x40)\n      swap1\n      dup2\n      add\n      0x40\n      mstore\n      dup1\n      swap3\n      swap2\n      swap1\n      dup2\n      dup2\n      mstore\n      0x20\n      add\n      dup3\n      dup1\n      sload\n      tag_160\n      swap1\n      tag_97\n      jump\t// in\n    tag_160:\n      dup1\n      iszero\n      tag_161\n      jumpi\n      dup1\n      0x1f\n      lt\n      tag_162\n      jumpi\n      0x0100\n      dup1\n      dup4\n      sload\n      div\n      mul\n      dup4\n      mstore\n      swap2\n      0x20\n      add\n      swap2\n      jump(tag_161)\n    tag_162:\n      dup3\n      add\n      swap2\n      swap1\n      0x00\n      mstore\n      keccak256(0x00, 0x20)\n      swap1\n    tag_163:\n      dup2\n      sload\n      dup2\n      mstore\n      swap1\n      0x01\n      add\n      swap1\n      0x20\n      add\n      dup1\n      dup4\n      gt\n      tag_163\n      jumpi\n      dup3\n      swap1\n      sub\n      0x1f\n      and\n      dup3\n      add\n      swap2\n    tag_161:\n      pop\n      pop\n      pop\n      pop\n      pop\n      dup2\n      mstore\n      0x20\n      add\n      0x03\n      dup3\n      add\n      dup1\n      sload\n      tag_164\n      swap1\n      tag_97\n      jump\t// in\n    tag_164:\n      dup1\n      0x1f\n      add\n      0x20\n      dup1\n      swap2\n      div\n      mul\n      0x20\n      add\n      mload(0x40)\n      swap1\n      dup2\n      add\n      0x40\n      mstore\n      dup1\n      swap3\n      swap2\n      swap1\n      dup2\n      dup2\n      mstore\n      0x20\n      add\n      dup3\n      dup1\n      sload\n      tag_165\n      swap1\n      tag_97\n      jump\t// in\n    tag_165:\n      dup1\n      iszero\n      tag_166\n      jumpi\n      dup1\n      0x1f\n      lt\n      tag_167\n      jumpi\n      0x0100\n      dup1\n      dup4\n      sload\n      div\n      mul\n      dup4\n      mstore\n      swap2\n      0x20\n      add\n      swap2\n      jump(tag_166)\n    tag_167:\n      dup3\n      add\n      swap2\n      swap1\n      0x00\n      mstore\n      keccak256(0x00, 0x20)\n      swap1\n    tag_168:\n      dup2\n      sload\n      dup2\n      mstore\n      swap1\n      0x01\n      add\n      swap1\n      0x20\n      add\n      dup1\n      dup4\n      gt\n      tag_168\n      jumpi\n      dup3\n      swap1\n      sub\n      0x1f\n      and\n      dup3\n      add\n      swap2\n    tag_166:\n      pop\n      pop\n      pop\n      pop\n      pop\n      dup2\n      mstore\n      0x20\n      add\n      0x04\n      dup3\n      add\n      dup1\n      sload\n      tag_169\n      swap1\n      tag_97\n      jump\t// in\n    tag_169:\n      dup1\n      0x1f\n      add\n      0x20\n      dup1\n      swap2\n      div\n      mul\n      0x20\n      add\n      mload(0x40)\n      swap1\n      dup2\n      add\n      0x40\n      mstore\n      dup1\n      swap3\n      swap2\n      swap1\n      dup2\n      dup2\n      mstore\n      0x20\n      add\n      dup3\n      dup1\n      sload\n      tag_170\n      swap1\n      tag_97\n      jump\t// in\n    tag_170:\n      dup1\n      iszero\n      tag_171\n      jumpi\n      dup1\n      0x1f\n      lt\n      tag_172\n      jumpi\n      0x0100\n      dup1\n      dup4\n      sload\n      div\n      mul\n      dup4\n      mstore\n      swap2\n      0x20\n      add\n      swap2\n      jump(tag_171)\n    tag_172:\n      dup3\n      add\n      swap2\n      swap1\n      0x00\n      mstore\n      keccak256(0x00, 0x20)\n      swap1\n    tag_173:\n      dup2\n      sload\n      dup2\n      mstore\n      swap1\n      0x01\n      add\n      swap1\n      0x20\n      add\n      dup1\n      dup4\n      gt\n      tag_173\n      jumpi\n      dup3\n      swap1\n      sub\n      0x1f\n      and\n      dup3\n      add\n      swap2\n    tag_171:\n      pop\n      pop\n      pop\n      pop\n      pop\n      dup2\n      mstore\n      0x20\n      add\n      0x05\n      dup3\n      add\n      dup1\n      sload\n      tag_174\n      swap1\n      tag_97\n      jump\t// in\n    tag_174:\n      dup1\n      0x1f\n      add\n      0x20\n      dup1\n      swap2\n      div\n      mul\n      0x20\n      add\n      mload(0x40)\n      swap1\n      dup2\n      add\n      0x40\n      mstore\n      dup1\n      swap3\n      swap2\n      swap1\n      dup2\n      dup2\n      mstore\n      0x20\n      add\n      dup3\n      dup1\n      sload\n      tag_175\n      swap1\n      tag_97\n      jump\t// in\n    tag_175:\n      dup1\n      iszero\n      tag_176\n      jumpi\n      dup1\n      0x1f\n      lt\n      tag_177\n      jumpi\n      0x0100\n      dup1\n      dup4\n      sload\n      div\n      mul\n      dup4\n      mstore\n      swap2\n      0x20\n      add\n      swap2\n      jump(tag_176)\n    tag_177:\n      dup3\n      add\n      swap2\n      swap1\n      0x00\n      mstore\n      keccak256(0x00, 0x20)\n      swap1\n    tag_178:\n      dup2\n      sload\n      dup2\n      mstore\n      swap1\n      0x01\n      add\n      swap1\n      0x20\n      add\n      dup1\n      dup4\n      gt\n      tag_178\n      jumpi\n      dup3\n      swap1\n      sub\n      0x1f\n      and\n      dup3\n      add\n      swap2\n    tag_176:\n      pop\n      pop\n      pop\n      pop\n      pop\n      dup2\n      mstore\n      0x20\n      add\n      0x06\n      dup3\n      add\n      dup1\n      sload\n      tag_179\n      swap1\n      tag_97\n      jump\t// in\n    tag_179:\n      dup1\n      0x1f\n      add\n      0x20\n      dup1\n      swap2\n      div\n      mul\n      0x20\n      add\n      mload(0x40)\n      swap1\n      dup2\n      add\n      0x40\n      mstore\n      dup1\n      swap3\n      swap2\n      swap1\n      dup2\n      dup2\n      mstore\n      0x20\n      add\n      dup3\n      dup1\n      sload\n      tag_180\n      swap1\n      tag_97\n      jump\t// in\n    tag_180:\n      dup1\n      iszero\n      tag_181\n      jumpi\n      dup1\n      0x1f\n      lt\n      tag_182\n      jumpi\n      0x0100\n      dup1\n      dup4\n      sload\n      div\n      mul\n      dup4\n      mstore\n      swap2\n      0x20\n      add\n      swap2\n      jump(tag_181)\n    tag_182:\n      dup3\n      add\n      swap2\n      swap1\n      0x00\n      mstore\n      keccak256(0x00, 0x20)\n      swap1\n    tag_183:\n      dup2\n      sload\n      dup2\n      mstore\n      swap1\n      0x01\n      add\n      swap1\n      0x20\n      add\n      dup1\n      dup4\n      gt\n      tag_183\n      jumpi\n      dup3\n      swap1\n      sub\n      0x1f\n      and\n      dup3\n      add\n      swap2\n    tag_181:\n      pop\n      pop\n      pop\n      pop\n      pop\n      dup2\n      mstore\n      pop\n      pop\n        /* \"FlightInsurance1.sol\":4811:4822  allPolicies */\n      dup3\n        /* \"FlightInsurance1.sol\":4823:4824  i */\n      dup3\n        /* \"FlightInsurance1.sol\":4811:4825  allPolicies[i] */\n      dup2\n      mload\n      dup2\n      lt\n      tag_184\n      jumpi\n      tag_185\n      tag_73\n      jump\t// in\n    tag_185:\n    tag_184:\n      0x20\n      mul\n      0x20\n      add\n      add\n        /* \"FlightInsurance1.sol\":4811:4870  allPolicies[i] = policiesByAddress[insuredPassengerList[i]] */\n      dup2\n      swap1\n      mstore\n      pop\n        /* \"FlightInsurance1.sol\":4792:4795  i++ */\n      dup1\n      dup1\n      0x01\n      add\n      swap2\n      pop\n      pop\n        /* \"FlightInsurance1.sol\":4739:4881  for (uint256 i = 0; i < insuredPassengerList.length; i++) {... */\n      jump(tag_148)\n    tag_149:\n      pop\n        /* \"FlightInsurance1.sol\":4898:4909  allPolicies */\n      dup1\n        /* \"FlightInsurance1.sol\":4890:4949  return (allPolicies, \"All policies retrieved successfully\") */\n      mload(0x40)\n      dup1\n      0x60\n      add\n      0x40\n      mstore\n      dup1\n      0x23\n      dup2\n      mstore\n      0x20\n      add\n      data_59323eb6dad5e70cc715cecc9bb2fbfd583fdb1f65d5a10f603cc22277a415f3\n      0x23\n      swap2\n      codecopy\n      swap3\n      pop\n      swap3\n      pop\n      pop\n        /* \"FlightInsurance1.sol\":4280:4956  function viewAllPolicies() external view returns (InsurancePolicy[] memory, string memory) {... */\n    tag_140:\n      swap1\n      swap2\n      jump\t// out\n        /* \"FlightInsurance1.sol\":626:672  uint256 public constant INDEMNITY = 0.02 ether */\n    tag_51:\n        /* \"FlightInsurance1.sol\":662:672  0.02 ether */\n      0x470de4df820000\n        /* \"FlightInsurance1.sol\":626:672  uint256 public constant INDEMNITY = 0.02 ether */\n      dup2\n      jump\t// out\n        /* \"FlightInsurance1.sol\":576:620  uint256 public constant PREMIUM = 0.01 ether */\n    tag_55:\n        /* \"FlightInsurance1.sol\":610:620  0.01 ether */\n      0x2386f26fc10000\n        /* \"FlightInsurance1.sol\":576:620  uint256 public constant PREMIUM = 0.01 ether */\n      dup2\n      jump\t// out\n        /* \"@openzeppelin/contracts/security/ReentrancyGuard.sol\":2336:2623  function _nonReentrantBefore() private {... */\n    tag_60:\n        /* \"@openzeppelin/contracts/security/ReentrancyGuard.sol\":1759:1760  2 */\n      0x02\n        /* \"@openzeppelin/contracts/security/ReentrancyGuard.sol\":2468:2475  _status */\n      sload(0x00)\n        /* \"@openzeppelin/contracts/security/ReentrancyGuard.sol\":2468:2487  _status != _ENTERED */\n      sub\n        /* \"@openzeppelin/contracts/security/ReentrancyGuard.sol\":2460:2523  require(_status != _ENTERED, \"ReentrancyGuard: reentrant call\") */\n      tag_187\n      jumpi\n      mload(0x40)\n      0x08c379a000000000000000000000000000000000000000000000000000000000\n      dup2\n      mstore\n      0x04\n      add\n      tag_188\n      swap1\n      tag_189\n      jump\t// in\n    tag_188:\n      mload(0x40)\n      dup1\n      swap2\n      sub\n      swap1\n      revert\n    tag_187:\n        /* \"@openzeppelin/contracts/security/ReentrancyGuard.sol\":1759:1760  2 */\n      0x02\n        /* \"@openzeppelin/contracts/security/ReentrancyGuard.sol\":2598:2605  _status */\n      0x00\n        /* \"@openzeppelin/contracts/security/ReentrancyGuard.sol\":2598:2616  _status = _ENTERED */\n      dup2\n      swap1\n      sstore\n      pop\n        /* \"@openzeppelin/contracts/security/ReentrancyGuard.sol\":2336:2623  function _nonReentrantBefore() private {... */\n      jump\t// out\n        /* \"@openzeppelin/contracts/security/ReentrancyGuard.sol\":2629:2838  function _nonReentrantAfter() private {... */\n    tag_92:\n        /* \"@openzeppelin/contracts/security/ReentrancyGuard.sol\":1716:1717  1 */\n      0x01\n        /* \"@openzeppelin/contracts/security/ReentrancyGuard.sol\":2809:2816  _status */\n      0x00\n        /* \"@openzeppelin/contracts/security/ReentrancyGuard.sol\":2809:2831  _status = _NOT_ENTERED */\n      dup2\n      swap1\n      sstore\n      pop\n        /* \"@openzeppelin/contracts/security/ReentrancyGuard.sol\":2629:2838  function _nonReentrantAfter() private {... */\n      jump\t// out\n    tag_94:\n      mload(0x40)\n      dup1\n      0xe0\n      add\n      0x40\n      mstore\n      dup1\n      0x60\n      dup2\n      mstore\n      0x20\n      add\n      and(0xffffffffffffffffffffffffffffffffffffffff, 0x00)\n      dup2\n      mstore\n      0x20\n      add\n      0x60\n      dup2\n      mstore\n      0x20\n      add\n      0x60\n      dup2\n      mstore\n      0x20\n      add\n      0x60\n      dup2\n      mstore\n      0x20\n      add\n      0x60\n      dup2\n      mstore\n      0x20\n      add\n      0x60\n      dup2\n      mstore\n      pop\n      swap1\n      jump\t// out\n        /* \"#utility.yul\":7:84   */\n    tag_191:\n        /* \"#utility.yul\":44:51   */\n      0x00\n        /* \"#utility.yul\":73:78   */\n      dup2\n        /* \"#utility.yul\":62:78   */\n      swap1\n      pop\n        /* \"#utility.yul\":7:84   */\n      swap2\n      swap1\n      pop\n      jump\t// out\n        /* \"#utility.yul\":90:208   */\n    tag_192:\n        /* \"#utility.yul\":177:201   */\n      tag_249\n        /* \"#utility.yul\":195:200   */\n      dup2\n        /* \"#utility.yul\":177:201   */\n      tag_191\n      jump\t// in\n    tag_249:\n        /* \"#utility.yul\":172:175   */\n      dup3\n        /* \"#utility.yul\":165:202   */\n      mstore\n        /* \"#utility.yul\":90:208   */\n      pop\n      pop\n      jump\t// out\n        /* \"#utility.yul\":214:436   */\n    tag_16:\n        /* \"#utility.yul\":307:311   */\n      0x00\n        /* \"#utility.yul\":345:347   */\n      0x20\n        /* \"#utility.yul\":334:343   */\n      dup3\n        /* \"#utility.yul\":330:348   */\n      add\n        /* \"#utility.yul\":322:348   */\n      swap1\n      pop\n        /* \"#utility.yul\":358:429   */\n      tag_251\n        /* \"#utility.yul\":426:427   */\n      0x00\n        /* \"#utility.yul\":415:424   */\n      dup4\n        /* \"#utility.yul\":411:428   */\n      add\n        /* \"#utility.yul\":402:408   */\n      dup5\n        /* \"#utility.yul\":358:429   */\n      tag_192\n      jump\t// in\n    tag_251:\n        /* \"#utility.yul\":214:436   */\n      swap3\n      swap2\n      pop\n      pop\n      jump\t// out\n        /* \"#utility.yul\":523:640   */\n    tag_194:\n        /* \"#utility.yul\":632:633   */\n      0x00\n        /* \"#utility.yul\":629:630   */\n      dup1\n        /* \"#utility.yul\":622:634   */\n      revert\n        /* \"#utility.yul\":646:763   */\n    tag_195:\n        /* \"#utility.yul\":755:756   */\n      0x00\n        /* \"#utility.yul\":752:753   */\n      dup1\n        /* \"#utility.yul\":745:757   */\n      revert\n        /* \"#utility.yul\":769:886   */\n    tag_196:\n        /* \"#utility.yul\":878:879   */\n      0x00\n        /* \"#utility.yul\":875:876   */\n      dup1\n        /* \"#utility.yul\":868:880   */\n      revert\n        /* \"#utility.yul\":892:1009   */\n    tag_197:\n        /* \"#utility.yul\":1001:1002   */\n      0x00\n        /* \"#utility.yul\":998:999   */\n      dup1\n        /* \"#utility.yul\":991:1003   */\n      revert\n        /* \"#utility.yul\":1015:1132   */\n    tag_198:\n        /* \"#utility.yul\":1124:1125   */\n      0x00\n        /* \"#utility.yul\":1121:1122   */\n      dup1\n        /* \"#utility.yul\":1114:1126   */\n      revert\n        /* \"#utility.yul\":1152:1705   */\n    tag_199:\n        /* \"#utility.yul\":1210:1218   */\n      0x00\n        /* \"#utility.yul\":1220:1226   */\n      dup1\n        /* \"#utility.yul\":1270:1273   */\n      dup4\n        /* \"#utility.yul\":1263:1267   */\n      0x1f\n        /* \"#utility.yul\":1255:1261   */\n      dup5\n        /* \"#utility.yul\":1251:1268   */\n      add\n        /* \"#utility.yul\":1247:1274   */\n      slt\n        /* \"#utility.yul\":1237:1359   */\n      tag_259\n      jumpi\n        /* \"#utility.yul\":1278:1357   */\n      tag_260\n      tag_196\n      jump\t// in\n    tag_260:\n        /* \"#utility.yul\":1237:1359   */\n    tag_259:\n        /* \"#utility.yul\":1391:1397   */\n      dup3\n        /* \"#utility.yul\":1378:1398   */\n      calldataload\n        /* \"#utility.yul\":1368:1398   */\n      swap1\n      pop\n        /* \"#utility.yul\":1421:1439   */\n      0xffffffffffffffff\n        /* \"#utility.yul\":1413:1419   */\n      dup2\n        /* \"#utility.yul\":1410:1440   */\n      gt\n        /* \"#utility.yul\":1407:1524   */\n      iszero\n      tag_261\n      jumpi\n        /* \"#utility.yul\":1443:1522   */\n      tag_262\n      tag_197\n      jump\t// in\n    tag_262:\n        /* \"#utility.yul\":1407:1524   */\n    tag_261:\n        /* \"#utility.yul\":1557:1561   */\n      0x20\n        /* \"#utility.yul\":1549:1555   */\n      dup4\n        /* \"#utility.yul\":1545:1562   */\n      add\n        /* \"#utility.yul\":1533:1562   */\n      swap2\n      pop\n        /* \"#utility.yul\":1611:1614   */\n      dup4\n        /* \"#utility.yul\":1603:1607   */\n      0x01\n        /* \"#utility.yul\":1595:1601   */\n      dup3\n        /* \"#utility.yul\":1591:1608   */\n      mul\n        /* \"#utility.yul\":1581:1589   */\n      dup4\n        /* \"#utility.yul\":1577:1609   */\n      add\n        /* \"#utility.yul\":1574:1615   */\n      gt\n        /* \"#utility.yul\":1571:1699   */\n      iszero\n      tag_263\n      jumpi\n        /* \"#utility.yul\":1618:1697   */\n      tag_264\n      tag_198\n      jump\t// in\n    tag_264:\n        /* \"#utility.yul\":1571:1699   */\n    tag_263:\n        /* \"#utility.yul\":1152:1705   */\n      swap3\n      pop\n      swap3\n      swap1\n      pop\n      jump\t// out\n        /* \"#utility.yul\":1711:3622   */\n    tag_19:\n        /* \"#utility.yul\":1866:1872   */\n      0x00\n        /* \"#utility.yul\":1874:1880   */\n      dup1\n        /* \"#utility.yul\":1882:1888   */\n      0x00\n        /* \"#utility.yul\":1890:1896   */\n      dup1\n        /* \"#utility.yul\":1898:1904   */\n      0x00\n        /* \"#utility.yul\":1906:1912   */\n      dup1\n        /* \"#utility.yul\":1914:1920   */\n      0x00\n        /* \"#utility.yul\":1922:1928   */\n      dup1\n        /* \"#utility.yul\":1930:1936   */\n      0x00\n        /* \"#utility.yul\":1938:1944   */\n      dup1\n        /* \"#utility.yul\":1987:1990   */\n      0xa0\n        /* \"#utility.yul\":1975:1984   */\n      dup12\n        /* \"#utility.yul\":1966:1973   */\n      dup14\n        /* \"#utility.yul\":1962:1985   */\n      sub\n        /* \"#utility.yul\":1958:1991   */\n      slt\n        /* \"#utility.yul\":1955:2075   */\n      iszero\n      tag_266\n      jumpi\n        /* \"#utility.yul\":1994:2073   */\n      tag_267\n      tag_194\n      jump\t// in\n    tag_267:\n        /* \"#utility.yul\":1955:2075   */\n    tag_266:\n        /* \"#utility.yul\":2142:2143   */\n      0x00\n        /* \"#utility.yul\":2131:2140   */\n      dup12\n        /* \"#utility.yul\":2127:2144   */\n      add\n        /* \"#utility.yul\":2114:2145   */\n      calldataload\n        /* \"#utility.yul\":2172:2190   */\n      0xffffffffffffffff\n        /* \"#utility.yul\":2164:2170   */\n      dup2\n        /* \"#utility.yul\":2161:2191   */\n      gt\n        /* \"#utility.yul\":2158:2275   */\n      iszero\n      tag_268\n      jumpi\n        /* \"#utility.yul\":2194:2273   */\n      tag_269\n      tag_195\n      jump\t// in\n    tag_269:\n        /* \"#utility.yul\":2158:2275   */\n    tag_268:\n        /* \"#utility.yul\":2307:2372   */\n      tag_270\n        /* \"#utility.yul\":2364:2371   */\n      dup14\n        /* \"#utility.yul\":2355:2361   */\n      dup3\n        /* \"#utility.yul\":2344:2353   */\n      dup15\n        /* \"#utility.yul\":2340:2362   */\n      add\n        /* \"#utility.yul\":2307:2372   */\n      tag_199\n      jump\t// in\n    tag_270:\n        /* \"#utility.yul\":2289:2372   */\n      swap11\n      pop\n      swap11\n      pop\n        /* \"#utility.yul\":2085:2382   */\n      pop\n        /* \"#utility.yul\":2449:2451   */\n      0x20\n        /* \"#utility.yul\":2438:2447   */\n      dup12\n        /* \"#utility.yul\":2434:2452   */\n      add\n        /* \"#utility.yul\":2421:2453   */\n      calldataload\n        /* \"#utility.yul\":2480:2498   */\n      0xffffffffffffffff\n        /* \"#utility.yul\":2472:2478   */\n      dup2\n        /* \"#utility.yul\":2469:2499   */\n      gt\n        /* \"#utility.yul\":2466:2583   */\n      iszero\n      tag_271\n      jumpi\n        /* \"#utility.yul\":2502:2581   */\n      tag_272\n      tag_195\n      jump\t// in\n    tag_272:\n        /* \"#utility.yul\":2466:2583   */\n    tag_271:\n        /* \"#utility.yul\":2615:2680   */\n      tag_273\n        /* \"#utility.yul\":2672:2679   */\n      dup14\n        /* \"#utility.yul\":2663:2669   */\n      dup3\n        /* \"#utility.yul\":2652:2661   */\n      dup15\n        /* \"#utility.yul\":2648:2670   */\n      add\n        /* \"#utility.yul\":2615:2680   */\n      tag_199\n      jump\t// in\n    tag_273:\n        /* \"#utility.yul\":2597:2680   */\n      swap9\n      pop\n      swap9\n      pop\n        /* \"#utility.yul\":2392:2690   */\n      pop\n        /* \"#utility.yul\":2757:2759   */\n      0x40\n        /* \"#utility.yul\":2746:2755   */\n      dup12\n        /* \"#utility.yul\":2742:2760   */\n      add\n        /* \"#utility.yul\":2729:2761   */\n      calldataload\n        /* \"#utility.yul\":2788:2806   */\n      0xffffffffffffffff\n        /* \"#utility.yul\":2780:2786   */\n      dup2\n        /* \"#utility.yul\":2777:2807   */\n      gt\n        /* \"#utility.yul\":2774:2891   */\n      iszero\n      tag_274\n      jumpi\n        /* \"#utility.yul\":2810:2889   */\n      tag_275\n      tag_195\n      jump\t// in\n    tag_275:\n        /* \"#utility.yul\":2774:2891   */\n    tag_274:\n        /* \"#utility.yul\":2923:2988   */\n      tag_276\n        /* \"#utility.yul\":2980:2987   */\n      dup14\n        /* \"#utility.yul\":2971:2977   */\n      dup3\n        /* \"#utility.yul\":2960:2969   */\n      dup15\n        /* \"#utility.yul\":2956:2978   */\n      add\n        /* \"#utility.yul\":2923:2988   */\n      tag_199\n      jump\t// in\n    tag_276:\n        /* \"#utility.yul\":2905:2988   */\n      swap7\n      pop\n      swap7\n      pop\n        /* \"#utility.yul\":2700:2998   */\n      pop\n        /* \"#utility.yul\":3065:3067   */\n      0x60\n        /* \"#utility.yul\":3054:3063   */\n      dup12\n        /* \"#utility.yul\":3050:3068   */\n      add\n        /* \"#utility.yul\":3037:3069   */\n      calldataload\n        /* \"#utility.yul\":3096:3114   */\n      0xffffffffffffffff\n        /* \"#utility.yul\":3088:3094   */\n      dup2\n        /* \"#utility.yul\":3085:3115   */\n      gt\n        /* \"#utility.yul\":3082:3199   */\n      iszero\n      tag_277\n      jumpi\n        /* \"#utility.yul\":3118:3197   */\n      tag_278\n      tag_195\n      jump\t// in\n    tag_278:\n        /* \"#utility.yul\":3082:3199   */\n    tag_277:\n        /* \"#utility.yul\":3231:3296   */\n      tag_279\n        /* \"#utility.yul\":3288:3295   */\n      dup14\n        /* \"#utility.yul\":3279:3285   */\n      dup3\n        /* \"#utility.yul\":3268:3277   */\n      dup15\n        /* \"#utility.yul\":3264:3286   */\n      add\n        /* \"#utility.yul\":3231:3296   */\n      tag_199\n      jump\t// in\n    tag_279:\n        /* \"#utility.yul\":3213:3296   */\n      swap5\n      pop\n      swap5\n      pop\n        /* \"#utility.yul\":3008:3306   */\n      pop\n        /* \"#utility.yul\":3373:3376   */\n      0x80\n        /* \"#utility.yul\":3362:3371   */\n      dup12\n        /* \"#utility.yul\":3358:3377   */\n      add\n        /* \"#utility.yul\":3345:3378   */\n      calldataload\n        /* \"#utility.yul\":3405:3423   */\n      0xffffffffffffffff\n        /* \"#utility.yul\":3397:3403   */\n      dup2\n        /* \"#utility.yul\":3394:3424   */\n      gt\n        /* \"#utility.yul\":3391:3508   */\n      iszero\n      tag_280\n      jumpi\n        /* \"#utility.yul\":3427:3506   */\n      tag_281\n      tag_195\n      jump\t// in\n    tag_281:\n        /* \"#utility.yul\":3391:3508   */\n    tag_280:\n        /* \"#utility.yul\":3540:3605   */\n      tag_282\n        /* \"#utility.yul\":3597:3604   */\n      dup14\n        /* \"#utility.yul\":3588:3594   */\n      dup3\n        /* \"#utility.yul\":3577:3586   */\n      dup15\n        /* \"#utility.yul\":3573:3595   */\n      add\n        /* \"#utility.yul\":3540:3605   */\n      tag_199\n      jump\t// in\n    tag_282:\n        /* \"#utility.yul\":3522:3605   */\n      swap3\n      pop\n      swap3\n      pop\n        /* \"#utility.yul\":3316:3615   */\n      pop\n        /* \"#utility.yul\":1711:3622   */\n      swap3\n      swap6\n      swap9\n      swap12\n      swap2\n      swap5\n      swap8\n      swap11\n      pop\n      swap3\n      swap6\n      swap9\n      pop\n      jump\t// out\n        /* \"#utility.yul\":3628:3718   */\n    tag_200:\n        /* \"#utility.yul\":3662:3669   */\n      0x00\n        /* \"#utility.yul\":3705:3710   */\n      dup2\n        /* \"#utility.yul\":3698:3711   */\n      iszero\n        /* \"#utility.yul\":3691:3712   */\n      iszero\n        /* \"#utility.yul\":3680:3712   */\n      swap1\n      pop\n        /* \"#utility.yul\":3628:3718   */\n      swap2\n      swap1\n      pop\n      jump\t// out\n        /* \"#utility.yul\":3724:3833   */\n    tag_201:\n        /* \"#utility.yul\":3805:3826   */\n      tag_285\n        /* \"#utility.yul\":3820:3825   */\n      dup2\n        /* \"#utility.yul\":3805:3826   */\n      tag_200\n      jump\t// in\n    tag_285:\n        /* \"#utility.yul\":3800:3803   */\n      dup3\n        /* \"#utility.yul\":3793:3827   */\n      mstore\n        /* \"#utility.yul\":3724:3833   */\n      pop\n      pop\n      jump\t// out\n        /* \"#utility.yul\":3839:3938   */\n    tag_202:\n        /* \"#utility.yul\":3891:3897   */\n      0x00\n        /* \"#utility.yul\":3925:3930   */\n      dup2\n        /* \"#utility.yul\":3919:3931   */\n      mload\n        /* \"#utility.yul\":3909:3931   */\n      swap1\n      pop\n        /* \"#utility.yul\":3839:3938   */\n      swap2\n      swap1\n      pop\n      jump\t// out\n        /* \"#utility.yul\":3944:4113   */\n    tag_203:\n        /* \"#utility.yul\":4028:4039   */\n      0x00\n        /* \"#utility.yul\":4062:4068   */\n      dup3\n        /* \"#utility.yul\":4057:4060   */\n      dup3\n        /* \"#utility.yul\":4050:4069   */\n      mstore\n        /* \"#utility.yul\":4102:4106   */\n      0x20\n        /* \"#utility.yul\":4097:4100   */\n      dup3\n        /* \"#utility.yul\":4093:4107   */\n      add\n        /* \"#utility.yul\":4078:4107   */\n      swap1\n      pop\n        /* \"#utility.yul\":3944:4113   */\n      swap3\n      swap2\n      pop\n      pop\n      jump\t// out\n        /* \"#utility.yul\":4119:4258   */\n    tag_204:\n        /* \"#utility.yul\":4208:4214   */\n      dup3\n        /* \"#utility.yul\":4203:4206   */\n      dup2\n        /* \"#utility.yul\":4198:4201   */\n      dup4\n        /* \"#utility.yul\":4192:4215   */\n      mcopy\n        /* \"#utility.yul\":4249:4250   */\n      0x00\n        /* \"#utility.yul\":4240:4246   */\n      dup4\n        /* \"#utility.yul\":4235:4238   */\n      dup4\n        /* \"#utility.yul\":4231:4247   */\n      add\n        /* \"#utility.yul\":4224:4251   */\n      mstore\n        /* \"#utility.yul\":4119:4258   */\n      pop\n      pop\n      pop\n      jump\t// out\n        /* \"#utility.yul\":4264:4366   */\n    tag_205:\n        /* \"#utility.yul\":4305:4311   */\n      0x00\n        /* \"#utility.yul\":4356:4358   */\n      0x1f\n        /* \"#utility.yul\":4352:4359   */\n      not\n        /* \"#utility.yul\":4347:4349   */\n      0x1f\n        /* \"#utility.yul\":4340:4345   */\n      dup4\n        /* \"#utility.yul\":4336:4350   */\n      add\n        /* \"#utility.yul\":4332:4360   */\n      and\n        /* \"#utility.yul\":4322:4360   */\n      swap1\n      pop\n        /* \"#utility.yul\":4264:4366   */\n      swap2\n      swap1\n      pop\n      jump\t// out\n        /* \"#utility.yul\":4372:4749   */\n    tag_206:\n        /* \"#utility.yul\":4460:4463   */\n      0x00\n        /* \"#utility.yul\":4488:4527   */\n      tag_291\n        /* \"#utility.yul\":4521:4526   */\n      dup3\n        /* \"#utility.yul\":4488:4527   */\n      tag_202\n      jump\t// in\n    tag_291:\n        /* \"#utility.yul\":4543:4614   */\n      tag_292\n        /* \"#utility.yul\":4607:4613   */\n      dup2\n        /* \"#utility.yul\":4602:4605   */\n      dup6\n        /* \"#utility.yul\":4543:4614   */\n      tag_203\n      jump\t// in\n    tag_292:\n        /* \"#utility.yul\":4536:4614   */\n      swap4\n      pop\n        /* \"#utility.yul\":4623:4688   */\n      tag_293\n        /* \"#utility.yul\":4681:4687   */\n      dup2\n        /* \"#utility.yul\":4676:4679   */\n      dup6\n        /* \"#utility.yul\":4669:4673   */\n      0x20\n        /* \"#utility.yul\":4662:4667   */\n      dup7\n        /* \"#utility.yul\":4658:4674   */\n      add\n        /* \"#utility.yul\":4623:4688   */\n      tag_204\n      jump\t// in\n    tag_293:\n        /* \"#utility.yul\":4713:4742   */\n      tag_294\n        /* \"#utility.yul\":4735:4741   */\n      dup2\n        /* \"#utility.yul\":4713:4742   */\n      tag_205\n      jump\t// in\n    tag_294:\n        /* \"#utility.yul\":4708:4711   */\n      dup5\n        /* \"#utility.yul\":4704:4743   */\n      add\n        /* \"#utility.yul\":4697:4743   */\n      swap2\n      pop\n        /* \"#utility.yul\":4464:4749   */\n      pop\n        /* \"#utility.yul\":4372:4749   */\n      swap3\n      swap2\n      pop\n      pop\n      jump\t// out\n        /* \"#utility.yul\":4755:5166   */\n    tag_22:\n        /* \"#utility.yul\":4890:4894   */\n      0x00\n        /* \"#utility.yul\":4928:4930   */\n      0x40\n        /* \"#utility.yul\":4917:4926   */\n      dup3\n        /* \"#utility.yul\":4913:4931   */\n      add\n        /* \"#utility.yul\":4905:4931   */\n      swap1\n      pop\n        /* \"#utility.yul\":4941:5006   */\n      tag_296\n        /* \"#utility.yul\":5003:5004   */\n      0x00\n        /* \"#utility.yul\":4992:5001   */\n      dup4\n        /* \"#utility.yul\":4988:5005   */\n      add\n        /* \"#utility.yul\":4979:4985   */\n      dup6\n        /* \"#utility.yul\":4941:5006   */\n      tag_201\n      jump\t// in\n    tag_296:\n        /* \"#utility.yul\":5053:5062   */\n      dup2\n        /* \"#utility.yul\":5047:5051   */\n      dup2\n        /* \"#utility.yul\":5043:5063   */\n      sub\n        /* \"#utility.yul\":5038:5040   */\n      0x20\n        /* \"#utility.yul\":5027:5036   */\n      dup4\n        /* \"#utility.yul\":5023:5041   */\n      add\n        /* \"#utility.yul\":5016:5064   */\n      mstore\n        /* \"#utility.yul\":5081:5159   */\n      tag_297\n        /* \"#utility.yul\":5154:5158   */\n      dup2\n        /* \"#utility.yul\":5145:5151   */\n      dup5\n        /* \"#utility.yul\":5081:5159   */\n      tag_206\n      jump\t// in\n    tag_297:\n        /* \"#utility.yul\":5073:5159   */\n      swap1\n      pop\n        /* \"#utility.yul\":4755:5166   */\n      swap4\n      swap3\n      pop\n      pop\n      pop\n      jump\t// out\n        /* \"#utility.yul\":5172:5331   */\n    tag_207:\n        /* \"#utility.yul\":5246:5257   */\n      0x00\n        /* \"#utility.yul\":5280:5286   */\n      dup3\n        /* \"#utility.yul\":5275:5278   */\n      dup3\n        /* \"#utility.yul\":5268:5287   */\n      mstore\n        /* \"#utility.yul\":5320:5324   */\n      0x20\n        /* \"#utility.yul\":5315:5318   */\n      dup3\n        /* \"#utility.yul\":5311:5325   */\n      add\n        /* \"#utility.yul\":5296:5325   */\n      swap1\n      pop\n        /* \"#utility.yul\":5172:5331   */\n      swap3\n      swap2\n      pop\n      pop\n      jump\t// out\n        /* \"#utility.yul\":5337:5694   */\n    tag_208:\n        /* \"#utility.yul\":5415:5418   */\n      0x00\n        /* \"#utility.yul\":5443:5482   */\n      tag_300\n        /* \"#utility.yul\":5476:5481   */\n      dup3\n        /* \"#utility.yul\":5443:5482   */\n      tag_202\n      jump\t// in\n    tag_300:\n        /* \"#utility.yul\":5498:5559   */\n      tag_301\n        /* \"#utility.yul\":5552:5558   */\n      dup2\n        /* \"#utility.yul\":5547:5550   */\n      dup6\n        /* \"#utility.yul\":5498:5559   */\n      tag_207\n      jump\t// in\n    tag_301:\n        /* \"#utility.yul\":5491:5559   */\n      swap4\n      pop\n        /* \"#utility.yul\":5568:5633   */\n      tag_302\n        /* \"#utility.yul\":5626:5632   */\n      dup2\n        /* \"#utility.yul\":5621:5624   */\n      dup6\n        /* \"#utility.yul\":5614:5618   */\n      0x20\n        /* \"#utility.yul\":5607:5612   */\n      dup7\n        /* \"#utility.yul\":5603:5619   */\n      add\n        /* \"#utility.yul\":5568:5633   */\n      tag_204\n      jump\t// in\n    tag_302:\n        /* \"#utility.yul\":5658:5687   */\n      tag_303\n        /* \"#utility.yul\":5680:5686   */\n      dup2\n        /* \"#utility.yul\":5658:5687   */\n      tag_205\n      jump\t// in\n    tag_303:\n        /* \"#utility.yul\":5653:5656   */\n      dup5\n        /* \"#utility.yul\":5649:5688   */\n      add\n        /* \"#utility.yul\":5642:5688   */\n      swap2\n      pop\n        /* \"#utility.yul\":5419:5694   */\n      pop\n        /* \"#utility.yul\":5337:5694   */\n      swap3\n      swap2\n      pop\n      pop\n      jump\t// out\n        /* \"#utility.yul\":5700:5826   */\n    tag_209:\n        /* \"#utility.yul\":5737:5744   */\n      0x00\n        /* \"#utility.yul\":5777:5819   */\n      0xffffffffffffffffffffffffffffffffffffffff\n        /* \"#utility.yul\":5770:5775   */\n      dup3\n        /* \"#utility.yul\":5766:5820   */\n      and\n        /* \"#utility.yul\":5755:5820   */\n      swap1\n      pop\n        /* \"#utility.yul\":5700:5826   */\n      swap2\n      swap1\n      pop\n      jump\t// out\n        /* \"#utility.yul\":5832:5928   */\n    tag_210:\n        /* \"#utility.yul\":5869:5876   */\n      0x00\n        /* \"#utility.yul\":5898:5922   */\n      tag_306\n        /* \"#utility.yul\":5916:5921   */\n      dup3\n        /* \"#utility.yul\":5898:5922   */\n      tag_209\n      jump\t// in\n    tag_306:\n        /* \"#utility.yul\":5887:5922   */\n      swap1\n      pop\n        /* \"#utility.yul\":5832:5928   */\n      swap2\n      swap1\n      pop\n      jump\t// out\n        /* \"#utility.yul\":5934:6042   */\n    tag_211:\n        /* \"#utility.yul\":6011:6035   */\n      tag_308\n        /* \"#utility.yul\":6029:6034   */\n      dup2\n        /* \"#utility.yul\":6011:6035   */\n      tag_210\n      jump\t// in\n    tag_308:\n        /* \"#utility.yul\":6006:6009   */\n      dup3\n        /* \"#utility.yul\":5999:6036   */\n      mstore\n        /* \"#utility.yul\":5934:6042   */\n      pop\n      pop\n      jump\t// out\n        /* \"#utility.yul\":6138:8044   */\n    tag_212:\n        /* \"#utility.yul\":6269:6272   */\n      0x00\n        /* \"#utility.yul\":6305:6309   */\n      0xe0\n        /* \"#utility.yul\":6300:6303   */\n      dup4\n        /* \"#utility.yul\":6296:6310   */\n      add\n        /* \"#utility.yul\":6401:6405   */\n      0x00\n        /* \"#utility.yul\":6394:6399   */\n      dup4\n        /* \"#utility.yul\":6390:6406   */\n      add\n        /* \"#utility.yul\":6384:6407   */\n      mload\n        /* \"#utility.yul\":6454:6457   */\n      dup5\n        /* \"#utility.yul\":6448:6452   */\n      dup3\n        /* \"#utility.yul\":6444:6458   */\n      sub\n        /* \"#utility.yul\":6437:6441   */\n      0x00\n        /* \"#utility.yul\":6432:6435   */\n      dup7\n        /* \"#utility.yul\":6428:6442   */\n      add\n        /* \"#utility.yul\":6421:6459   */\n      mstore\n        /* \"#utility.yul\":6480:6553   */\n      tag_310\n        /* \"#utility.yul\":6548:6552   */\n      dup3\n        /* \"#utility.yul\":6534:6546   */\n      dup3\n        /* \"#utility.yul\":6480:6553   */\n      tag_208\n      jump\t// in\n    tag_310:\n        /* \"#utility.yul\":6472:6553   */\n      swap2\n      pop\n        /* \"#utility.yul\":6320:6564   */\n      pop\n        /* \"#utility.yul\":6658:6662   */\n      0x20\n        /* \"#utility.yul\":6651:6656   */\n      dup4\n        /* \"#utility.yul\":6647:6663   */\n      add\n        /* \"#utility.yul\":6641:6664   */\n      mload\n        /* \"#utility.yul\":6677:6740   */\n      tag_311\n        /* \"#utility.yul\":6734:6738   */\n      0x20\n        /* \"#utility.yul\":6729:6732   */\n      dup7\n        /* \"#utility.yul\":6725:6739   */\n      add\n        /* \"#utility.yul\":6711:6723   */\n      dup3\n        /* \"#utility.yul\":6677:6740   */\n      tag_211\n      jump\t// in\n    tag_311:\n        /* \"#utility.yul\":6574:6750   */\n      pop\n        /* \"#utility.yul\":6840:6844   */\n      0x40\n        /* \"#utility.yul\":6833:6838   */\n      dup4\n        /* \"#utility.yul\":6829:6845   */\n      add\n        /* \"#utility.yul\":6823:6846   */\n      mload\n        /* \"#utility.yul\":6893:6896   */\n      dup5\n        /* \"#utility.yul\":6887:6891   */\n      dup3\n        /* \"#utility.yul\":6883:6897   */\n      sub\n        /* \"#utility.yul\":6876:6880   */\n      0x40\n        /* \"#utility.yul\":6871:6874   */\n      dup7\n        /* \"#utility.yul\":6867:6881   */\n      add\n        /* \"#utility.yul\":6860:6898   */\n      mstore\n        /* \"#utility.yul\":6919:6992   */\n      tag_312\n        /* \"#utility.yul\":6987:6991   */\n      dup3\n        /* \"#utility.yul\":6973:6985   */\n      dup3\n        /* \"#utility.yul\":6919:6992   */\n      tag_208\n      jump\t// in\n    tag_312:\n        /* \"#utility.yul\":6911:6992   */\n      swap2\n      pop\n        /* \"#utility.yul\":6760:7003   */\n      pop\n        /* \"#utility.yul\":7091:7095   */\n      0x60\n        /* \"#utility.yul\":7084:7089   */\n      dup4\n        /* \"#utility.yul\":7080:7096   */\n      add\n        /* \"#utility.yul\":7074:7097   */\n      mload\n        /* \"#utility.yul\":7144:7147   */\n      dup5\n        /* \"#utility.yul\":7138:7142   */\n      dup3\n        /* \"#utility.yul\":7134:7148   */\n      sub\n        /* \"#utility.yul\":7127:7131   */\n      0x60\n        /* \"#utility.yul\":7122:7125   */\n      dup7\n        /* \"#utility.yul\":7118:7132   */\n      add\n        /* \"#utility.yul\":7111:7149   */\n      mstore\n        /* \"#utility.yul\":7170:7243   */\n      tag_313\n        /* \"#utility.yul\":7238:7242   */\n      dup3\n        /* \"#utility.yul\":7224:7236   */\n      dup3\n        /* \"#utility.yul\":7170:7243   */\n      tag_208\n      jump\t// in\n    tag_313:\n        /* \"#utility.yul\":7162:7243   */\n      swap2\n      pop\n        /* \"#utility.yul\":7013:7254   */\n      pop\n        /* \"#utility.yul\":7345:7349   */\n      0x80\n        /* \"#utility.yul\":7338:7343   */\n      dup4\n        /* \"#utility.yul\":7334:7350   */\n      add\n        /* \"#utility.yul\":7328:7351   */\n      mload\n        /* \"#utility.yul\":7398:7401   */\n      dup5\n        /* \"#utility.yul\":7392:7396   */\n      dup3\n        /* \"#utility.yul\":7388:7402   */\n      sub\n        /* \"#utility.yul\":7381:7385   */\n      0x80\n        /* \"#utility.yul\":7376:7379   */\n      dup7\n        /* \"#utility.yul\":7372:7386   */\n      add\n        /* \"#utility.yul\":7365:7403   */\n      mstore\n        /* \"#utility.yul\":7424:7497   */\n      tag_314\n        /* \"#utility.yul\":7492:7496   */\n      dup3\n        /* \"#utility.yul\":7478:7490   */\n      dup3\n        /* \"#utility.yul\":7424:7497   */\n      tag_208\n      jump\t// in\n    tag_314:\n        /* \"#utility.yul\":7416:7497   */\n      swap2\n      pop\n        /* \"#utility.yul\":7264:7508   */\n      pop\n        /* \"#utility.yul\":7601:7605   */\n      0xa0\n        /* \"#utility.yul\":7594:7599   */\n      dup4\n        /* \"#utility.yul\":7590:7606   */\n      add\n        /* \"#utility.yul\":7584:7607   */\n      mload\n        /* \"#utility.yul\":7654:7657   */\n      dup5\n        /* \"#utility.yul\":7648:7652   */\n      dup3\n        /* \"#utility.yul\":7644:7658   */\n      sub\n        /* \"#utility.yul\":7637:7641   */\n      0xa0\n        /* \"#utility.yul\":7632:7635   */\n      dup7\n        /* \"#utility.yul\":7628:7642   */\n      add\n        /* \"#utility.yul\":7621:7659   */\n      mstore\n        /* \"#utility.yul\":7680:7753   */\n      tag_315\n        /* \"#utility.yul\":7748:7752   */\n      dup3\n        /* \"#utility.yul\":7734:7746   */\n      dup3\n        /* \"#utility.yul\":7680:7753   */\n      tag_208\n      jump\t// in\n    tag_315:\n        /* \"#utility.yul\":7672:7753   */\n      swap2\n      pop\n        /* \"#utility.yul\":7518:7764   */\n      pop\n        /* \"#utility.yul\":7854:7858   */\n      0xc0\n        /* \"#utility.yul\":7847:7852   */\n      dup4\n        /* \"#utility.yul\":7843:7859   */\n      add\n        /* \"#utility.yul\":7837:7860   */\n      mload\n        /* \"#utility.yul\":7907:7910   */\n      dup5\n        /* \"#utility.yul\":7901:7905   */\n      dup3\n        /* \"#utility.yul\":7897:7911   */\n      sub\n        /* \"#utility.yul\":7890:7894   */\n      0xc0\n        /* \"#utility.yul\":7885:7888   */\n      dup7\n        /* \"#utility.yul\":7881:7895   */\n      add\n        /* \"#utility.yul\":7874:7912   */\n      mstore\n        /* \"#utility.yul\":7933:8006   */\n      tag_316\n        /* \"#utility.yul\":8001:8005   */\n      dup3\n        /* \"#utility.yul\":7987:7999   */\n      dup3\n        /* \"#utility.yul\":7933:8006   */\n      tag_208\n      jump\t// in\n    tag_316:\n        /* \"#utility.yul\":7925:8006   */\n      swap2\n      pop\n        /* \"#utility.yul\":7774:8017   */\n      pop\n        /* \"#utility.yul\":8034:8038   */\n      dup1\n        /* \"#utility.yul\":8027:8038   */\n      swap2\n      pop\n        /* \"#utility.yul\":6274:8044   */\n      pop\n        /* \"#utility.yul\":6138:8044   */\n      swap3\n      swap2\n      pop\n      pop\n      jump\t// out\n        /* \"#utility.yul\":8050:8648   */\n    tag_27:\n        /* \"#utility.yul\":8253:8257   */\n      0x00\n        /* \"#utility.yul\":8291:8293   */\n      0x40\n        /* \"#utility.yul\":8280:8289   */\n      dup3\n        /* \"#utility.yul\":8276:8294   */\n      add\n        /* \"#utility.yul\":8268:8294   */\n      swap1\n      pop\n        /* \"#utility.yul\":8340:8349   */\n      dup2\n        /* \"#utility.yul\":8334:8338   */\n      dup2\n        /* \"#utility.yul\":8330:8350   */\n      sub\n        /* \"#utility.yul\":8326:8327   */\n      0x00\n        /* \"#utility.yul\":8315:8324   */\n      dup4\n        /* \"#utility.yul\":8311:8328   */\n      add\n        /* \"#utility.yul\":8304:8351   */\n      mstore\n        /* \"#utility.yul\":8368:8488   */\n      tag_318\n        /* \"#utility.yul\":8483:8487   */\n      dup2\n        /* \"#utility.yul\":8474:8480   */\n      dup6\n        /* \"#utility.yul\":8368:8488   */\n      tag_212\n      jump\t// in\n    tag_318:\n        /* \"#utility.yul\":8360:8488   */\n      swap1\n      pop\n        /* \"#utility.yul\":8535:8544   */\n      dup2\n        /* \"#utility.yul\":8529:8533   */\n      dup2\n        /* \"#utility.yul\":8525:8545   */\n      sub\n        /* \"#utility.yul\":8520:8522   */\n      0x20\n        /* \"#utility.yul\":8509:8518   */\n      dup4\n        /* \"#utility.yul\":8505:8523   */\n      add\n        /* \"#utility.yul\":8498:8546   */\n      mstore\n        /* \"#utility.yul\":8563:8641   */\n      tag_319\n        /* \"#utility.yul\":8636:8640   */\n      dup2\n        /* \"#utility.yul\":8627:8633   */\n      dup5\n        /* \"#utility.yul\":8563:8641   */\n      tag_206\n      jump\t// in\n    tag_319:\n        /* \"#utility.yul\":8555:8641   */\n      swap1\n      pop\n        /* \"#utility.yul\":8050:8648   */\n      swap4\n      swap3\n      pop\n      pop\n      pop\n      jump\t// out\n        /* \"#utility.yul\":8654:8772   */\n    tag_213:\n        /* \"#utility.yul\":8741:8765   */\n      tag_321\n        /* \"#utility.yul\":8759:8764   */\n      dup2\n        /* \"#utility.yul\":8741:8765   */\n      tag_210\n      jump\t// in\n    tag_321:\n        /* \"#utility.yul\":8736:8739   */\n      dup3\n        /* \"#utility.yul\":8729:8766   */\n      mstore\n        /* \"#utility.yul\":8654:8772   */\n      pop\n      pop\n      jump\t// out\n        /* \"#utility.yul\":8778:9000   */\n    tag_32:\n        /* \"#utility.yul\":8871:8875   */\n      0x00\n        /* \"#utility.yul\":8909:8911   */\n      0x20\n        /* \"#utility.yul\":8898:8907   */\n      dup3\n        /* \"#utility.yul\":8894:8912   */\n      add\n        /* \"#utility.yul\":8886:8912   */\n      swap1\n      pop\n        /* \"#utility.yul\":8922:8993   */\n      tag_323\n        /* \"#utility.yul\":8990:8991   */\n      0x00\n        /* \"#utility.yul\":8979:8988   */\n      dup4\n        /* \"#utility.yul\":8975:8992   */\n      add\n        /* \"#utility.yul\":8966:8972   */\n      dup5\n        /* \"#utility.yul\":8922:8993   */\n      tag_213\n      jump\t// in\n    tag_323:\n        /* \"#utility.yul\":8778:9000   */\n      swap3\n      swap2\n      pop\n      pop\n      jump\t// out\n        /* \"#utility.yul\":9006:9128   */\n    tag_214:\n        /* \"#utility.yul\":9079:9103   */\n      tag_325\n        /* \"#utility.yul\":9097:9102   */\n      dup2\n        /* \"#utility.yul\":9079:9103   */\n      tag_210\n      jump\t// in\n    tag_325:\n        /* \"#utility.yul\":9072:9077   */\n      dup2\n        /* \"#utility.yul\":9069:9104   */\n      eq\n        /* \"#utility.yul\":9059:9122   */\n      tag_326\n      jumpi\n        /* \"#utility.yul\":9118:9119   */\n      0x00\n        /* \"#utility.yul\":9115:9116   */\n      dup1\n        /* \"#utility.yul\":9108:9120   */\n      revert\n        /* \"#utility.yul\":9059:9122   */\n    tag_326:\n        /* \"#utility.yul\":9006:9128   */\n      pop\n      jump\t// out\n        /* \"#utility.yul\":9134:9273   */\n    tag_215:\n        /* \"#utility.yul\":9180:9185   */\n      0x00\n        /* \"#utility.yul\":9218:9224   */\n      dup2\n        /* \"#utility.yul\":9205:9225   */\n      calldataload\n        /* \"#utility.yul\":9196:9225   */\n      swap1\n      pop\n        /* \"#utility.yul\":9234:9267   */\n      tag_328\n        /* \"#utility.yul\":9261:9266   */\n      dup2\n        /* \"#utility.yul\":9234:9267   */\n      tag_214\n      jump\t// in\n    tag_328:\n        /* \"#utility.yul\":9134:9273   */\n      swap3\n      swap2\n      pop\n      pop\n      jump\t// out\n        /* \"#utility.yul\":9279:9608   */\n    tag_36:\n        /* \"#utility.yul\":9338:9344   */\n      0x00\n        /* \"#utility.yul\":9387:9389   */\n      0x20\n        /* \"#utility.yul\":9375:9384   */\n      dup3\n        /* \"#utility.yul\":9366:9373   */\n      dup5\n        /* \"#utility.yul\":9362:9385   */\n      sub\n        /* \"#utility.yul\":9358:9390   */\n      slt\n        /* \"#utility.yul\":9355:9474   */\n      iszero\n      tag_330\n      jumpi\n        /* \"#utility.yul\":9393:9472   */\n      tag_331\n      tag_194\n      jump\t// in\n    tag_331:\n        /* \"#utility.yul\":9355:9474   */\n    tag_330:\n        /* \"#utility.yul\":9513:9514   */\n      0x00\n        /* \"#utility.yul\":9538:9591   */\n      tag_332\n        /* \"#utility.yul\":9583:9590   */\n      dup5\n        /* \"#utility.yul\":9574:9580   */\n      dup3\n        /* \"#utility.yul\":9563:9572   */\n      dup6\n        /* \"#utility.yul\":9559:9581   */\n      add\n        /* \"#utility.yul\":9538:9591   */\n      tag_215\n      jump\t// in\n    tag_332:\n        /* \"#utility.yul\":9528:9591   */\n      swap2\n      pop\n        /* \"#utility.yul\":9484:9601   */\n      pop\n        /* \"#utility.yul\":9279:9608   */\n      swap3\n      swap2\n      pop\n      pop\n      jump\t// out\n        /* \"#utility.yul\":9614:9927   */\n    tag_43:\n        /* \"#utility.yul\":9727:9731   */\n      0x00\n        /* \"#utility.yul\":9765:9767   */\n      0x20\n        /* \"#utility.yul\":9754:9763   */\n      dup3\n        /* \"#utility.yul\":9750:9768   */\n      add\n        /* \"#utility.yul\":9742:9768   */\n      swap1\n      pop\n        /* \"#utility.yul\":9814:9823   */\n      dup2\n        /* \"#utility.yul\":9808:9812   */\n      dup2\n        /* \"#utility.yul\":9804:9824   */\n      sub\n        /* \"#utility.yul\":9800:9801   */\n      0x00\n        /* \"#utility.yul\":9789:9798   */\n      dup4\n        /* \"#utility.yul\":9785:9802   */\n      add\n        /* \"#utility.yul\":9778:9825   */\n      mstore\n        /* \"#utility.yul\":9842:9920   */\n      tag_334\n        /* \"#utility.yul\":9915:9919   */\n      dup2\n        /* \"#utility.yul\":9906:9912   */\n      dup5\n        /* \"#utility.yul\":9842:9920   */\n      tag_206\n      jump\t// in\n    tag_334:\n        /* \"#utility.yul\":9834:9920   */\n      swap1\n      pop\n        /* \"#utility.yul\":9614:9927   */\n      swap3\n      swap2\n      pop\n      pop\n      jump\t// out\n        /* \"#utility.yul\":9933:10078   */\n    tag_216:\n        /* \"#utility.yul\":10031:10037   */\n      0x00\n        /* \"#utility.yul\":10065:10070   */\n      dup2\n        /* \"#utility.yul\":10059:10071   */\n      mload\n        /* \"#utility.yul\":10049:10071   */\n      swap1\n      pop\n        /* \"#utility.yul\":9933:10078   */\n      swap2\n      swap1\n      pop\n      jump\t// out\n        /* \"#utility.yul\":10084:10299   */\n    tag_217:\n        /* \"#utility.yul\":10214:10225   */\n      0x00\n        /* \"#utility.yul\":10248:10254   */\n      dup3\n        /* \"#utility.yul\":10243:10246   */\n      dup3\n        /* \"#utility.yul\":10236:10255   */\n      mstore\n        /* \"#utility.yul\":10288:10292   */\n      0x20\n        /* \"#utility.yul\":10283:10286   */\n      dup3\n        /* \"#utility.yul\":10279:10293   */\n      add\n        /* \"#utility.yul\":10264:10293   */\n      swap1\n      pop\n        /* \"#utility.yul\":10084:10299   */\n      swap3\n      swap2\n      pop\n      pop\n      jump\t// out\n        /* \"#utility.yul\":10305:10468   */\n    tag_218:\n        /* \"#utility.yul\":10403:10407   */\n      0x00\n        /* \"#utility.yul\":10426:10429   */\n      dup2\n        /* \"#utility.yul\":10418:10429   */\n      swap1\n      pop\n        /* \"#utility.yul\":10456:10460   */\n      0x20\n        /* \"#utility.yul\":10451:10454   */\n      dup3\n        /* \"#utility.yul\":10447:10461   */\n      add\n        /* \"#utility.yul\":10439:10461   */\n      swap1\n      pop\n        /* \"#utility.yul\":10305:10468   */\n      swap2\n      swap1\n      pop\n      jump\t// out\n        /* \"#utility.yul\":10564:12460   */\n    tag_219:\n        /* \"#utility.yul\":10685:10688   */\n      0x00\n        /* \"#utility.yul\":10721:10725   */\n      0xe0\n        /* \"#utility.yul\":10716:10719   */\n      dup4\n        /* \"#utility.yul\":10712:10726   */\n      add\n        /* \"#utility.yul\":10817:10821   */\n      0x00\n        /* \"#utility.yul\":10810:10815   */\n      dup4\n        /* \"#utility.yul\":10806:10822   */\n      add\n        /* \"#utility.yul\":10800:10823   */\n      mload\n        /* \"#utility.yul\":10870:10873   */\n      dup5\n        /* \"#utility.yul\":10864:10868   */\n      dup3\n        /* \"#utility.yul\":10860:10874   */\n      sub\n        /* \"#utility.yul\":10853:10857   */\n      0x00\n        /* \"#utility.yul\":10848:10851   */\n      dup7\n        /* \"#utility.yul\":10844:10858   */\n      add\n        /* \"#utility.yul\":10837:10875   */\n      mstore\n        /* \"#utility.yul\":10896:10969   */\n      tag_339\n        /* \"#utility.yul\":10964:10968   */\n      dup3\n        /* \"#utility.yul\":10950:10962   */\n      dup3\n        /* \"#utility.yul\":10896:10969   */\n      tag_208\n      jump\t// in\n    tag_339:\n        /* \"#utility.yul\":10888:10969   */\n      swap2\n      pop\n        /* \"#utility.yul\":10736:10980   */\n      pop\n        /* \"#utility.yul\":11074:11078   */\n      0x20\n        /* \"#utility.yul\":11067:11072   */\n      dup4\n        /* \"#utility.yul\":11063:11079   */\n      add\n        /* \"#utility.yul\":11057:11080   */\n      mload\n        /* \"#utility.yul\":11093:11156   */\n      tag_340\n        /* \"#utility.yul\":11150:11154   */\n      0x20\n        /* \"#utility.yul\":11145:11148   */\n      dup7\n        /* \"#utility.yul\":11141:11155   */\n      add\n        /* \"#utility.yul\":11127:11139   */\n      dup3\n        /* \"#utility.yul\":11093:11156   */\n      tag_211\n      jump\t// in\n    tag_340:\n        /* \"#utility.yul\":10990:11166   */\n      pop\n        /* \"#utility.yul\":11256:11260   */\n      0x40\n        /* \"#utility.yul\":11249:11254   */\n      dup4\n        /* \"#utility.yul\":11245:11261   */\n      add\n        /* \"#utility.yul\":11239:11262   */\n      mload\n        /* \"#utility.yul\":11309:11312   */\n      dup5\n        /* \"#utility.yul\":11303:11307   */\n      dup3\n        /* \"#utility.yul\":11299:11313   */\n      sub\n        /* \"#utility.yul\":11292:11296   */\n      0x40\n        /* \"#utility.yul\":11287:11290   */\n      dup7\n        /* \"#utility.yul\":11283:11297   */\n      add\n        /* \"#utility.yul\":11276:11314   */\n      mstore\n        /* \"#utility.yul\":11335:11408   */\n      tag_341\n        /* \"#utility.yul\":11403:11407   */\n      dup3\n        /* \"#utility.yul\":11389:11401   */\n      dup3\n        /* \"#utility.yul\":11335:11408   */\n      tag_208\n      jump\t// in\n    tag_341:\n        /* \"#utility.yul\":11327:11408   */\n      swap2\n      pop\n        /* \"#utility.yul\":11176:11419   */\n      pop\n        /* \"#utility.yul\":11507:11511   */\n      0x60\n        /* \"#utility.yul\":11500:11505   */\n      dup4\n        /* \"#utility.yul\":11496:11512   */\n      add\n        /* \"#utility.yul\":11490:11513   */\n      mload\n        /* \"#utility.yul\":11560:11563   */\n      dup5\n        /* \"#utility.yul\":11554:11558   */\n      dup3\n        /* \"#utility.yul\":11550:11564   */\n      sub\n        /* \"#utility.yul\":11543:11547   */\n      0x60\n        /* \"#utility.yul\":11538:11541   */\n      dup7\n        /* \"#utility.yul\":11534:11548   */\n      add\n        /* \"#utility.yul\":11527:11565   */\n      mstore\n        /* \"#utility.yul\":11586:11659   */\n      tag_342\n        /* \"#utility.yul\":11654:11658   */\n      dup3\n        /* \"#utility.yul\":11640:11652   */\n      dup3\n        /* \"#utility.yul\":11586:11659   */\n      tag_208\n      jump\t// in\n    tag_342:\n        /* \"#utility.yul\":11578:11659   */\n      swap2\n      pop\n        /* \"#utility.yul\":11429:11670   */\n      pop\n        /* \"#utility.yul\":11761:11765   */\n      0x80\n        /* \"#utility.yul\":11754:11759   */\n      dup4\n        /* \"#utility.yul\":11750:11766   */\n      add\n        /* \"#utility.yul\":11744:11767   */\n      mload\n        /* \"#utility.yul\":11814:11817   */\n      dup5\n        /* \"#utility.yul\":11808:11812   */\n      dup3\n        /* \"#utility.yul\":11804:11818   */\n      sub\n        /* \"#utility.yul\":11797:11801   */\n      0x80\n        /* \"#utility.yul\":11792:11795   */\n      dup7\n        /* \"#utility.yul\":11788:11802   */\n      add\n        /* \"#utility.yul\":11781:11819   */\n      mstore\n        /* \"#utility.yul\":11840:11913   */\n      tag_343\n        /* \"#utility.yul\":11908:11912   */\n      dup3\n        /* \"#utility.yul\":11894:11906   */\n      dup3\n        /* \"#utility.yul\":11840:11913   */\n      tag_208\n      jump\t// in\n    tag_343:\n        /* \"#utility.yul\":11832:11913   */\n      swap2\n      pop\n        /* \"#utility.yul\":11680:11924   */\n      pop\n        /* \"#utility.yul\":12017:12021   */\n      0xa0\n        /* \"#utility.yul\":12010:12015   */\n      dup4\n        /* \"#utility.yul\":12006:12022   */\n      add\n        /* \"#utility.yul\":12000:12023   */\n      mload\n        /* \"#utility.yul\":12070:12073   */\n      dup5\n        /* \"#utility.yul\":12064:12068   */\n      dup3\n        /* \"#utility.yul\":12060:12074   */\n      sub\n        /* \"#utility.yul\":12053:12057   */\n      0xa0\n        /* \"#utility.yul\":12048:12051   */\n      dup7\n        /* \"#utility.yul\":12044:12058   */\n      add\n        /* \"#utility.yul\":12037:12075   */\n      mstore\n        /* \"#utility.yul\":12096:12169   */\n      tag_344\n        /* \"#utility.yul\":12164:12168   */\n      dup3\n        /* \"#utility.yul\":12150:12162   */\n      dup3\n        /* \"#utility.yul\":12096:12169   */\n      tag_208\n      jump\t// in\n    tag_344:\n        /* \"#utility.yul\":12088:12169   */\n      swap2\n      pop\n        /* \"#utility.yul\":11934:12180   */\n      pop\n        /* \"#utility.yul\":12270:12274   */\n      0xc0\n        /* \"#utility.yul\":12263:12268   */\n      dup4\n        /* \"#utility.yul\":12259:12275   */\n      add\n        /* \"#utility.yul\":12253:12276   */\n      mload\n        /* \"#utility.yul\":12323:12326   */\n      dup5\n        /* \"#utility.yul\":12317:12321   */\n      dup3\n        /* \"#utility.yul\":12313:12327   */\n      sub\n        /* \"#utility.yul\":12306:12310   */\n      0xc0\n        /* \"#utility.yul\":12301:12304   */\n      dup7\n        /* \"#utility.yul\":12297:12311   */\n      add\n        /* \"#utility.yul\":12290:12328   */\n      mstore\n        /* \"#utility.yul\":12349:12422   */\n      tag_345\n        /* \"#utility.yul\":12417:12421   */\n      dup3\n        /* \"#utility.yul\":12403:12415   */\n      dup3\n        /* \"#utility.yul\":12349:12422   */\n      tag_208\n      jump\t// in\n    tag_345:\n        /* \"#utility.yul\":12341:12422   */\n      swap2\n      pop\n        /* \"#utility.yul\":12190:12433   */\n      pop\n        /* \"#utility.yul\":12450:12454   */\n      dup1\n        /* \"#utility.yul\":12443:12454   */\n      swap2\n      pop\n        /* \"#utility.yul\":10690:12460   */\n      pop\n        /* \"#utility.yul\":10564:12460   */\n      swap3\n      swap2\n      pop\n      pop\n      jump\t// out\n        /* \"#utility.yul\":12466:12746   */\n    tag_220:\n        /* \"#utility.yul\":12597:12607   */\n      0x00\n        /* \"#utility.yul\":12632:12740   */\n      tag_347\n        /* \"#utility.yul\":12736:12739   */\n      dup4\n        /* \"#utility.yul\":12728:12734   */\n      dup4\n        /* \"#utility.yul\":12632:12740   */\n      tag_219\n      jump\t// in\n    tag_347:\n        /* \"#utility.yul\":12618:12740   */\n      swap1\n      pop\n        /* \"#utility.yul\":12466:12746   */\n      swap3\n      swap2\n      pop\n      pop\n      jump\t// out\n        /* \"#utility.yul\":12752:12896   */\n    tag_221:\n        /* \"#utility.yul\":12853:12857   */\n      0x00\n        /* \"#utility.yul\":12885:12889   */\n      0x20\n        /* \"#utility.yul\":12880:12883   */\n      dup3\n        /* \"#utility.yul\":12876:12890   */\n      add\n        /* \"#utility.yul\":12868:12890   */\n      swap1\n      pop\n        /* \"#utility.yul\":12752:12896   */\n      swap2\n      swap1\n      pop\n      jump\t// out\n        /* \"#utility.yul\":12996:14155   */\n    tag_222:\n        /* \"#utility.yul\":13177:13180   */\n      0x00\n        /* \"#utility.yul\":13206:13291   */\n      tag_350\n        /* \"#utility.yul\":13285:13290   */\n      dup3\n        /* \"#utility.yul\":13206:13291   */\n      tag_216\n      jump\t// in\n    tag_350:\n        /* \"#utility.yul\":13307:13424   */\n      tag_351\n        /* \"#utility.yul\":13417:13423   */\n      dup2\n        /* \"#utility.yul\":13412:13415   */\n      dup6\n        /* \"#utility.yul\":13307:13424   */\n      tag_217\n      jump\t// in\n    tag_351:\n        /* \"#utility.yul\":13300:13424   */\n      swap4\n      pop\n        /* \"#utility.yul\":13450:13453   */\n      dup4\n        /* \"#utility.yul\":13495:13499   */\n      0x20\n        /* \"#utility.yul\":13487:13493   */\n      dup3\n        /* \"#utility.yul\":13483:13500   */\n      mul\n        /* \"#utility.yul\":13478:13481   */\n      dup6\n        /* \"#utility.yul\":13474:13501   */\n      add\n        /* \"#utility.yul\":13525:13612   */\n      tag_352\n        /* \"#utility.yul\":13606:13611   */\n      dup6\n        /* \"#utility.yul\":13525:13612   */\n      tag_218\n      jump\t// in\n    tag_352:\n        /* \"#utility.yul\":13635:13642   */\n      dup1\n        /* \"#utility.yul\":13666:13667   */\n      0x00\n        /* \"#utility.yul\":13651:14110   */\n    tag_353:\n        /* \"#utility.yul\":13676:13682   */\n      dup6\n        /* \"#utility.yul\":13673:13674   */\n      dup2\n        /* \"#utility.yul\":13670:13683   */\n      lt\n        /* \"#utility.yul\":13651:14110   */\n      iszero\n      tag_355\n      jumpi\n        /* \"#utility.yul\":13747:13756   */\n      dup5\n        /* \"#utility.yul\":13741:13745   */\n      dup5\n        /* \"#utility.yul\":13737:13757   */\n      sub\n        /* \"#utility.yul\":13732:13735   */\n      dup10\n        /* \"#utility.yul\":13725:13758   */\n      mstore\n        /* \"#utility.yul\":13798:13804   */\n      dup2\n        /* \"#utility.yul\":13792:13805   */\n      mload\n        /* \"#utility.yul\":13826:13952   */\n      tag_356\n        /* \"#utility.yul\":13947:13951   */\n      dup6\n        /* \"#utility.yul\":13932:13945   */\n      dup3\n        /* \"#utility.yul\":13826:13952   */\n      tag_220\n      jump\t// in\n    tag_356:\n        /* \"#utility.yul\":13818:13952   */\n      swap5\n      pop\n        /* \"#utility.yul\":13975:14066   */\n      tag_357\n        /* \"#utility.yul\":14059:14065   */\n      dup4\n        /* \"#utility.yul\":13975:14066   */\n      tag_221\n      jump\t// in\n    tag_357:\n        /* \"#utility.yul\":13965:14066   */\n      swap3\n      pop\n        /* \"#utility.yul\":14095:14099   */\n      0x20\n        /* \"#utility.yul\":14090:14093   */\n      dup11\n        /* \"#utility.yul\":14086:14100   */\n      add\n        /* \"#utility.yul\":14079:14100   */\n      swap10\n      pop\n        /* \"#utility.yul\":13711:14110   */\n      pop\n        /* \"#utility.yul\":13698:13699   */\n      0x01\n        /* \"#utility.yul\":13695:13696   */\n      dup2\n        /* \"#utility.yul\":13691:13700   */\n      add\n        /* \"#utility.yul\":13686:13700   */\n      swap1\n      pop\n        /* \"#utility.yul\":13651:14110   */\n      jump(tag_353)\n    tag_355:\n        /* \"#utility.yul\":13655:13669   */\n      pop\n        /* \"#utility.yul\":14126:14130   */\n      dup3\n        /* \"#utility.yul\":14119:14130   */\n      swap8\n      pop\n        /* \"#utility.yul\":14146:14149   */\n      dup8\n        /* \"#utility.yul\":14139:14149   */\n      swap6\n      pop\n        /* \"#utility.yul\":13182:14155   */\n      pop\n      pop\n      pop\n      pop\n      pop\n        /* \"#utility.yul\":12996:14155   */\n      swap3\n      swap2\n      pop\n      pop\n      jump\t// out\n        /* \"#utility.yul\":14161:14859   */\n    tag_48:\n        /* \"#utility.yul\":14414:14418   */\n      0x00\n        /* \"#utility.yul\":14452:14454   */\n      0x40\n        /* \"#utility.yul\":14441:14450   */\n      dup3\n        /* \"#utility.yul\":14437:14455   */\n      add\n        /* \"#utility.yul\":14429:14455   */\n      swap1\n      pop\n        /* \"#utility.yul\":14501:14510   */\n      dup2\n        /* \"#utility.yul\":14495:14499   */\n      dup2\n        /* \"#utility.yul\":14491:14511   */\n      sub\n        /* \"#utility.yul\":14487:14488   */\n      0x00\n        /* \"#utility.yul\":14476:14485   */\n      dup4\n        /* \"#utility.yul\":14472:14489   */\n      add\n        /* \"#utility.yul\":14465:14512   */\n      mstore\n        /* \"#utility.yul\":14529:14699   */\n      tag_359\n        /* \"#utility.yul\":14694:14698   */\n      dup2\n        /* \"#utility.yul\":14685:14691   */\n      dup6\n        /* \"#utility.yul\":14529:14699   */\n      tag_222\n      jump\t// in\n    tag_359:\n        /* \"#utility.yul\":14521:14699   */\n      swap1\n      pop\n        /* \"#utility.yul\":14746:14755   */\n      dup2\n        /* \"#utility.yul\":14740:14744   */\n      dup2\n        /* \"#utility.yul\":14736:14756   */\n      sub\n        /* \"#utility.yul\":14731:14733   */\n      0x20\n        /* \"#utility.yul\":14720:14729   */\n      dup4\n        /* \"#utility.yul\":14716:14734   */\n      add\n        /* \"#utility.yul\":14709:14757   */\n      mstore\n        /* \"#utility.yul\":14774:14852   */\n      tag_360\n        /* \"#utility.yul\":14847:14851   */\n      dup2\n        /* \"#utility.yul\":14838:14844   */\n      dup5\n        /* \"#utility.yul\":14774:14852   */\n      tag_206\n      jump\t// in\n    tag_360:\n        /* \"#utility.yul\":14766:14852   */\n      swap1\n      pop\n        /* \"#utility.yul\":14161:14859   */\n      swap4\n      swap3\n      pop\n      pop\n      pop\n      jump\t// out\n        /* \"#utility.yul\":14865:15012   */\n    tag_223:\n        /* \"#utility.yul\":14966:14977   */\n      0x00\n        /* \"#utility.yul\":15003:15006   */\n      dup2\n        /* \"#utility.yul\":14988:15006   */\n      swap1\n      pop\n        /* \"#utility.yul\":14865:15012   */\n      swap3\n      swap2\n      pop\n      pop\n      jump\t// out\n        /* \"#utility.yul\":15018:15166   */\n    tag_224:\n        /* \"#utility.yul\":15116:15122   */\n      dup3\n        /* \"#utility.yul\":15111:15114   */\n      dup2\n        /* \"#utility.yul\":15106:15109   */\n      dup4\n        /* \"#utility.yul\":15093:15123   */\n      calldatacopy\n        /* \"#utility.yul\":15157:15158   */\n      0x00\n        /* \"#utility.yul\":15148:15154   */\n      dup4\n        /* \"#utility.yul\":15143:15146   */\n      dup4\n        /* \"#utility.yul\":15139:15155   */\n      add\n        /* \"#utility.yul\":15132:15159   */\n      mstore\n        /* \"#utility.yul\":15018:15166   */\n      pop\n      pop\n      pop\n      jump\t// out\n        /* \"#utility.yul\":15194:15521   */\n    tag_225:\n        /* \"#utility.yul\":15308:15311   */\n      0x00\n        /* \"#utility.yul\":15329:15417   */\n      tag_364\n        /* \"#utility.yul\":15410:15416   */\n      dup4\n        /* \"#utility.yul\":15405:15408   */\n      dup6\n        /* \"#utility.yul\":15329:15417   */\n      tag_223\n      jump\t// in\n    tag_364:\n        /* \"#utility.yul\":15322:15417   */\n      swap4\n      pop\n        /* \"#utility.yul\":15427:15483   */\n      tag_365\n        /* \"#utility.yul\":15476:15482   */\n      dup4\n        /* \"#utility.yul\":15471:15474   */\n      dup6\n        /* \"#utility.yul\":15464:15469   */\n      dup5\n        /* \"#utility.yul\":15427:15483   */\n      tag_224\n      jump\t// in\n    tag_365:\n        /* \"#utility.yul\":15508:15514   */\n      dup3\n        /* \"#utility.yul\":15503:15506   */\n      dup5\n        /* \"#utility.yul\":15499:15515   */\n      add\n        /* \"#utility.yul\":15492:15515   */\n      swap1\n      pop\n        /* \"#utility.yul\":15194:15521   */\n      swap4\n      swap3\n      pop\n      pop\n      pop\n      jump\t// out\n        /* \"#utility.yul\":15527:15818   */\n    tag_67:\n        /* \"#utility.yul\":15667:15670   */\n      0x00\n        /* \"#utility.yul\":15689:15792   */\n      tag_367\n        /* \"#utility.yul\":15788:15791   */\n      dup3\n        /* \"#utility.yul\":15779:15785   */\n      dup5\n        /* \"#utility.yul\":15771:15777   */\n      dup7\n        /* \"#utility.yul\":15689:15792   */\n      tag_225\n      jump\t// in\n    tag_367:\n        /* \"#utility.yul\":15682:15792   */\n      swap2\n      pop\n        /* \"#utility.yul\":15809:15812   */\n      dup2\n        /* \"#utility.yul\":15802:15812   */\n      swap1\n      pop\n        /* \"#utility.yul\":15527:15818   */\n      swap4\n      swap3\n      pop\n      pop\n      pop\n      jump\t// out\n        /* \"#utility.yul\":15824:16004   */\n    tag_73:\n        /* \"#utility.yul\":15872:15949   */\n      0x4e487b7100000000000000000000000000000000000000000000000000000000\n        /* \"#utility.yul\":15869:15870   */\n      0x00\n        /* \"#utility.yul\":15862:15950   */\n      mstore\n        /* \"#utility.yul\":15969:15973   */\n      0x32\n        /* \"#utility.yul\":15966:15967   */\n      0x04\n        /* \"#utility.yul\":15959:15974   */\n      mstore\n        /* \"#utility.yul\":15993:15997   */\n      0x24\n        /* \"#utility.yul\":15990:15991   */\n      0x00\n        /* \"#utility.yul\":15983:15998   */\n      revert\n        /* \"#utility.yul\":16010:16190   */\n    tag_144:\n        /* \"#utility.yul\":16058:16135   */\n      0x4e487b7100000000000000000000000000000000000000000000000000000000\n        /* \"#utility.yul\":16055:16056   */\n      0x00\n        /* \"#utility.yul\":16048:16136   */\n      mstore\n        /* \"#utility.yul\":16155:16159   */\n      0x41\n        /* \"#utility.yul\":16152:16153   */\n      0x04\n        /* \"#utility.yul\":16145:16160   */\n      mstore\n        /* \"#utility.yul\":16179:16183   */\n      0x24\n        /* \"#utility.yul\":16176:16177   */\n      0x00\n        /* \"#utility.yul\":16169:16184   */\n      revert\n        /* \"#utility.yul\":16196:16376   */\n    tag_226:\n        /* \"#utility.yul\":16244:16321   */\n      0x4e487b7100000000000000000000000000000000000000000000000000000000\n        /* \"#utility.yul\":16241:16242   */\n      0x00\n        /* \"#utility.yul\":16234:16322   */\n      mstore\n        /* \"#utility.yul\":16341:16345   */\n      0x22\n        /* \"#utility.yul\":16338:16339   */\n      0x04\n        /* \"#utility.yul\":16331:16346   */\n      mstore\n        /* \"#utility.yul\":16365:16369   */\n      0x24\n        /* \"#utility.yul\":16362:16363   */\n      0x00\n        /* \"#utility.yul\":16355:16370   */\n      revert\n        /* \"#utility.yul\":16382:16702   */\n    tag_97:\n        /* \"#utility.yul\":16426:16432   */\n      0x00\n        /* \"#utility.yul\":16463:16464   */\n      0x02\n        /* \"#utility.yul\":16457:16461   */\n      dup3\n        /* \"#utility.yul\":16453:16465   */\n      div\n        /* \"#utility.yul\":16443:16465   */\n      swap1\n      pop\n        /* \"#utility.yul\":16510:16511   */\n      0x01\n        /* \"#utility.yul\":16504:16508   */\n      dup3\n        /* \"#utility.yul\":16500:16512   */\n      and\n        /* \"#utility.yul\":16531:16549   */\n      dup1\n        /* \"#utility.yul\":16521:16602   */\n      tag_372\n      jumpi\n        /* \"#utility.yul\":16587:16591   */\n      0x7f\n        /* \"#utility.yul\":16579:16585   */\n      dup3\n        /* \"#utility.yul\":16575:16592   */\n      and\n        /* \"#utility.yul\":16565:16592   */\n      swap2\n      pop\n        /* \"#utility.yul\":16521:16602   */\n    tag_372:\n        /* \"#utility.yul\":16649:16651   */\n      0x20\n        /* \"#utility.yul\":16641:16647   */\n      dup3\n        /* \"#utility.yul\":16638:16652   */\n      lt\n        /* \"#utility.yul\":16618:16636   */\n      dup2\n        /* \"#utility.yul\":16615:16653   */\n      sub\n        /* \"#utility.yul\":16612:16696   */\n      tag_373\n      jumpi\n        /* \"#utility.yul\":16668:16686   */\n      tag_374\n      tag_226\n      jump\t// in\n    tag_374:\n        /* \"#utility.yul\":16612:16696   */\n    tag_373:\n        /* \"#utility.yul\":16433:16702   */\n      pop\n        /* \"#utility.yul\":16382:16702   */\n      swap2\n      swap1\n      pop\n      jump\t// out\n        /* \"#utility.yul\":16708:16849   */\n    tag_227:\n        /* \"#utility.yul\":16757:16761   */\n      0x00\n        /* \"#utility.yul\":16780:16783   */\n      dup2\n        /* \"#utility.yul\":16772:16783   */\n      swap1\n      pop\n        /* \"#utility.yul\":16803:16806   */\n      dup2\n        /* \"#utility.yul\":16800:16801   */\n      0x00\n        /* \"#utility.yul\":16793:16807   */\n      mstore\n        /* \"#utility.yul\":16837:16841   */\n      0x20\n        /* \"#utility.yul\":16834:16835   */\n      0x00\n        /* \"#utility.yul\":16824:16842   */\n      keccak256\n        /* \"#utility.yul\":16816:16842   */\n      swap1\n      pop\n        /* \"#utility.yul\":16708:16849   */\n      swap2\n      swap1\n      pop\n      jump\t// out\n        /* \"#utility.yul\":16855:16948   */\n    tag_228:\n        /* \"#utility.yul\":16892:16898   */\n      0x00\n        /* \"#utility.yul\":16939:16941   */\n      0x20\n        /* \"#utility.yul\":16934:16936   */\n      0x1f\n        /* \"#utility.yul\":16927:16932   */\n      dup4\n        /* \"#utility.yul\":16923:16937   */\n      add\n        /* \"#utility.yul\":16919:16942   */\n      div\n        /* \"#utility.yul\":16909:16942   */\n      swap1\n      pop\n        /* \"#utility.yul\":16855:16948   */\n      swap2\n      swap1\n      pop\n      jump\t// out\n        /* \"#utility.yul\":16954:17061   */\n    tag_229:\n        /* \"#utility.yul\":16998:17006   */\n      0x00\n        /* \"#utility.yul\":17048:17053   */\n      dup3\n        /* \"#utility.yul\":17042:17046   */\n      dup3\n        /* \"#utility.yul\":17038:17054   */\n      shl\n        /* \"#utility.yul\":17017:17054   */\n      swap1\n      pop\n        /* \"#utility.yul\":16954:17061   */\n      swap3\n      swap2\n      pop\n      pop\n      jump\t// out\n        /* \"#utility.yul\":17067:17460   */\n    tag_230:\n        /* \"#utility.yul\":17136:17142   */\n      0x00\n        /* \"#utility.yul\":17186:17187   */\n      0x08\n        /* \"#utility.yul\":17174:17184   */\n      dup4\n        /* \"#utility.yul\":17170:17188   */\n      mul\n        /* \"#utility.yul\":17209:17306   */\n      tag_379\n        /* \"#utility.yul\":17239:17305   */\n      0xffffffffffffffffffffffffffffffffffffffffffffffffffffffffffffffff\n        /* \"#utility.yul\":17228:17237   */\n      dup3\n        /* \"#utility.yul\":17209:17306   */\n      tag_229\n      jump\t// in\n    tag_379:\n        /* \"#utility.yul\":17327:17366   */\n      tag_380\n        /* \"#utility.yul\":17357:17365   */\n      dup7\n        /* \"#utility.yul\":17346:17355   */\n      dup4\n        /* \"#utility.yul\":17327:17366   */\n      tag_229\n      jump\t// in\n    tag_380:\n        /* \"#utility.yul\":17315:17366   */\n      swap6\n      pop\n        /* \"#utility.yul\":17399:17403   */\n      dup1\n        /* \"#utility.yul\":17395:17404   */\n      not\n        /* \"#utility.yul\":17388:17393   */\n      dup5\n        /* \"#utility.yul\":17384:17405   */\n      and\n        /* \"#utility.yul\":17375:17405   */\n      swap4\n      pop\n        /* \"#utility.yul\":17448:17452   */\n      dup1\n        /* \"#utility.yul\":17438:17446   */\n      dup7\n        /* \"#utility.yul\":17434:17453   */\n      and\n        /* \"#utility.yul\":17427:17432   */\n      dup5\n        /* \"#utility.yul\":17424:17454   */\n      or\n        /* \"#utility.yul\":17414:17454   */\n      swap3\n      pop\n        /* \"#utility.yul\":17143:17460   */\n      pop\n      pop\n        /* \"#utility.yul\":17067:17460   */\n      swap4\n      swap3\n      pop\n      pop\n      pop\n      jump\t// out\n        /* \"#utility.yul\":17466:17526   */\n    tag_231:\n        /* \"#utility.yul\":17494:17497   */\n      0x00\n        /* \"#utility.yul\":17515:17520   */\n      dup2\n        /* \"#utility.yul\":17508:17520   */\n      swap1\n      pop\n        /* \"#utility.yul\":17466:17526   */\n      swap2\n      swap1\n      pop\n      jump\t// out\n        /* \"#utility.yul\":17532:17674   */\n    tag_232:\n        /* \"#utility.yul\":17582:17591   */\n      0x00\n        /* \"#utility.yul\":17615:17668   */\n      tag_383\n        /* \"#utility.yul\":17633:17667   */\n      tag_384\n        /* \"#utility.yul\":17642:17666   */\n      tag_385\n        /* \"#utility.yul\":17660:17665   */\n      dup5\n        /* \"#utility.yul\":17642:17666   */\n      tag_191\n      jump\t// in\n    tag_385:\n        /* \"#utility.yul\":17633:17667   */\n      tag_231\n      jump\t// in\n    tag_384:\n        /* \"#utility.yul\":17615:17668   */\n      tag_191\n      jump\t// in\n    tag_383:\n        /* \"#utility.yul\":17602:17668   */\n      swap1\n      pop\n        /* \"#utility.yul\":17532:17674   */\n      swap2\n      swap1\n      pop\n      jump\t// out\n        /* \"#utility.yul\":17680:17755   */\n    tag_233:\n        /* \"#utility.yul\":17723:17726   */\n      0x00\n        /* \"#utility.yul\":17744:17749   */\n      dup2\n        /* \"#utility.yul\":17737:17749   */\n      swap1\n      pop\n        /* \"#utility.yul\":17680:17755   */\n      swap2\n      swap1\n      pop\n      jump\t// out\n        /* \"#utility.yul\":17761:18030   */\n    tag_234:\n        /* \"#utility.yul\":17871:17910   */\n      tag_388\n        /* \"#utility.yul\":17902:17909   */\n      dup4\n        /* \"#utility.yul\":17871:17910   */\n      tag_232\n      jump\t// in\n    tag_388:\n        /* \"#utility.yul\":17932:18023   */\n      tag_389\n        /* \"#utility.yul\":17981:18022   */\n      tag_390\n        /* \"#utility.yul\":18005:18021   */\n      dup3\n        /* \"#utility.yul\":17981:18022   */\n      tag_233\n      jump\t// in\n    tag_390:\n        /* \"#utility.yul\":17973:17979   */\n      dup5\n        /* \"#utility.yul\":17966:17970   */\n      dup5\n        /* \"#utility.yul\":17960:17971   */\n      sload\n        /* \"#utility.yul\":17932:18023   */\n      tag_230\n      jump\t// in\n    tag_389:\n        /* \"#utility.yul\":17926:17930   */\n      dup3\n        /* \"#utility.yul\":17919:18024   */\n      sstore\n        /* \"#utility.yul\":17837:18030   */\n      pop\n        /* \"#utility.yul\":17761:18030   */\n      pop\n      pop\n      pop\n      jump\t// out\n        /* \"#utility.yul\":18036:18109   */\n    tag_235:\n        /* \"#utility.yul\":18081:18084   */\n      0x00\n        /* \"#utility.yul\":18036:18109   */\n      swap1\n      jump\t// out\n        /* \"#utility.yul\":18115:18304   */\n    tag_236:\n        /* \"#utility.yul\":18192:18224   */\n      tag_393\n      tag_235\n      jump\t// in\n    tag_393:\n        /* \"#utility.yul\":18233:18298   */\n      tag_394\n        /* \"#utility.yul\":18291:18297   */\n      dup2\n        /* \"#utility.yul\":18283:18289   */\n      dup5\n        /* \"#utility.yul\":18277:18281   */\n      dup5\n        /* \"#utility.yul\":18233:18298   */\n      tag_234\n      jump\t// in\n    tag_394:\n        /* \"#utility.yul\":18168:18304   */\n      pop\n        /* \"#utility.yul\":18115:18304   */\n      pop\n      pop\n      jump\t// out\n        /* \"#utility.yul\":18310:18496   */\n    tag_237:\n        /* \"#utility.yul\":18370:18490   */\n    tag_396:\n        /* \"#utility.yul\":18387:18390   */\n      dup2\n        /* \"#utility.yul\":18380:18385   */\n      dup2\n        /* \"#utility.yul\":18377:18391   */\n      lt\n        /* \"#utility.yul\":18370:18490   */\n      iszero\n      tag_398\n      jumpi\n        /* \"#utility.yul\":18441:18480   */\n      tag_399\n        /* \"#utility.yul\":18478:18479   */\n      0x00\n        /* \"#utility.yul\":18471:18476   */\n      dup3\n        /* \"#utility.yul\":18441:18480   */\n      tag_236\n      jump\t// in\n    tag_399:\n        /* \"#utility.yul\":18414:18415   */\n      0x01\n        /* \"#utility.yul\":18407:18412   */\n      dup2\n        /* \"#utility.yul\":18403:18416   */\n      add\n        /* \"#utility.yul\":18394:18416   */\n      swap1\n      pop\n        /* \"#utility.yul\":18370:18490   */\n      jump(tag_396)\n    tag_398:\n        /* \"#utility.yul\":18310:18496   */\n      pop\n      pop\n      jump\t// out\n        /* \"#utility.yul\":18502:19045   */\n    tag_238:\n        /* \"#utility.yul\":18603:18605   */\n      0x1f\n        /* \"#utility.yul\":18598:18601   */\n      dup3\n        /* \"#utility.yul\":18595:18606   */\n      gt\n        /* \"#utility.yul\":18592:19038   */\n      iszero\n      tag_401\n      jumpi\n        /* \"#utility.yul\":18637:18675   */\n      tag_402\n        /* \"#utility.yul\":18669:18674   */\n      dup2\n        /* \"#utility.yul\":18637:18675   */\n      tag_227\n      jump\t// in\n    tag_402:\n        /* \"#utility.yul\":18721:18750   */\n      tag_403\n        /* \"#utility.yul\":18739:18749   */\n      dup5\n        /* \"#utility.yul\":18721:18750   */\n      tag_228\n      jump\t// in\n    tag_403:\n        /* \"#utility.yul\":18711:18719   */\n      dup2\n        /* \"#utility.yul\":18707:18751   */\n      add\n        /* \"#utility.yul\":18904:18906   */\n      0x20\n        /* \"#utility.yul\":18892:18902   */\n      dup6\n        /* \"#utility.yul\":18889:18907   */\n      lt\n        /* \"#utility.yul\":18886:18935   */\n      iszero\n      tag_404\n      jumpi\n        /* \"#utility.yul\":18925:18933   */\n      dup2\n        /* \"#utility.yul\":18910:18933   */\n      swap1\n      pop\n        /* \"#utility.yul\":18886:18935   */\n    tag_404:\n        /* \"#utility.yul\":18948:19028   */\n      tag_405\n        /* \"#utility.yul\":19004:19026   */\n      tag_406\n        /* \"#utility.yul\":19022:19025   */\n      dup6\n        /* \"#utility.yul\":19004:19026   */\n      tag_228\n      jump\t// in\n    tag_406:\n        /* \"#utility.yul\":18994:19002   */\n      dup4\n        /* \"#utility.yul\":18990:19027   */\n      add\n        /* \"#utility.yul\":18977:18988   */\n      dup3\n        /* \"#utility.yul\":18948:19028   */\n      tag_237\n      jump\t// in\n    tag_405:\n        /* \"#utility.yul\":18607:19038   */\n      pop\n      pop\n        /* \"#utility.yul\":18592:19038   */\n    tag_401:\n        /* \"#utility.yul\":18502:19045   */\n      pop\n      pop\n      pop\n      jump\t// out\n        /* \"#utility.yul\":19051:19168   */\n    tag_239:\n        /* \"#utility.yul\":19105:19113   */\n      0x00\n        /* \"#utility.yul\":19155:19160   */\n      dup3\n        /* \"#utility.yul\":19149:19153   */\n      dup3\n        /* \"#utility.yul\":19145:19161   */\n      shr\n        /* \"#utility.yul\":19124:19161   */\n      swap1\n      pop\n        /* \"#utility.yul\":19051:19168   */\n      swap3\n      swap2\n      pop\n      pop\n      jump\t// out\n        /* \"#utility.yul\":19174:19343   */\n    tag_240:\n        /* \"#utility.yul\":19218:19224   */\n      0x00\n        /* \"#utility.yul\":19251:19302   */\n      tag_409\n        /* \"#utility.yul\":19299:19300   */\n      0x00\n        /* \"#utility.yul\":19295:19301   */\n      not\n        /* \"#utility.yul\":19287:19292   */\n      dup5\n        /* \"#utility.yul\":19284:19285   */\n      0x08\n        /* \"#utility.yul\":19280:19293   */\n      mul\n        /* \"#utility.yul\":19251:19302   */\n      tag_239\n      jump\t// in\n    tag_409:\n        /* \"#utility.yul\":19247:19303   */\n      not\n        /* \"#utility.yul\":19332:19336   */\n      dup1\n        /* \"#utility.yul\":19326:19330   */\n      dup4\n        /* \"#utility.yul\":19322:19337   */\n      and\n        /* \"#utility.yul\":19312:19337   */\n      swap2\n      pop\n        /* \"#utility.yul\":19225:19343   */\n      pop\n        /* \"#utility.yul\":19174:19343   */\n      swap3\n      swap2\n      pop\n      pop\n      jump\t// out\n        /* \"#utility.yul\":19348:19643   */\n    tag_241:\n        /* \"#utility.yul\":19424:19428   */\n      0x00\n        /* \"#utility.yul\":19570:19599   */\n      tag_411\n        /* \"#utility.yul\":19595:19598   */\n      dup4\n        /* \"#utility.yul\":19589:19593   */\n      dup4\n        /* \"#utility.yul\":19570:19599   */\n      tag_240\n      jump\t// in\n    tag_411:\n        /* \"#utility.yul\":19562:19599   */\n      swap2\n      pop\n        /* \"#utility.yul\":19632:19635   */\n      dup3\n        /* \"#utility.yul\":19629:19630   */\n      0x02\n        /* \"#utility.yul\":19625:19636   */\n      mul\n        /* \"#utility.yul\":19619:19623   */\n      dup3\n        /* \"#utility.yul\":19616:19637   */\n      or\n        /* \"#utility.yul\":19608:19637   */\n      swap1\n      pop\n        /* \"#utility.yul\":19348:19643   */\n      swap3\n      swap2\n      pop\n      pop\n      jump\t// out\n        /* \"#utility.yul\":19648:21043   */\n    tag_81:\n        /* \"#utility.yul\":19765:19802   */\n      tag_413\n        /* \"#utility.yul\":19798:19801   */\n      dup3\n        /* \"#utility.yul\":19765:19802   */\n      tag_202\n      jump\t// in\n    tag_413:\n        /* \"#utility.yul\":19867:19885   */\n      0xffffffffffffffff\n        /* \"#utility.yul\":19859:19865   */\n      dup2\n        /* \"#utility.yul\":19856:19886   */\n      gt\n        /* \"#utility.yul\":19853:19909   */\n      iszero\n      tag_414\n      jumpi\n        /* \"#utility.yul\":19889:19907   */\n      tag_415\n      tag_144\n      jump\t// in\n    tag_415:\n        /* \"#utility.yul\":19853:19909   */\n    tag_414:\n        /* \"#utility.yul\":19933:19971   */\n      tag_416\n        /* \"#utility.yul\":19965:19969   */\n      dup3\n        /* \"#utility.yul\":19959:19970   */\n      sload\n        /* \"#utility.yul\":19933:19971   */\n      tag_97\n      jump\t// in\n    tag_416:\n        /* \"#utility.yul\":20018:20085   */\n      tag_417\n        /* \"#utility.yul\":20078:20084   */\n      dup3\n        /* \"#utility.yul\":20070:20076   */\n      dup3\n        /* \"#utility.yul\":20064:20068   */\n      dup6\n        /* \"#utility.yul\":20018:20085   */\n      tag_238\n      jump\t// in\n    tag_417:\n        /* \"#utility.yul\":20112:20113   */\n      0x00\n        /* \"#utility.yul\":20136:20140   */\n      0x20\n        /* \"#utility.yul\":20123:20140   */\n      swap1\n      pop\n        /* \"#utility.yul\":20168:20170   */\n      0x1f\n        /* \"#utility.yul\":20160:20166   */\n      dup4\n        /* \"#utility.yul\":20157:20171   */\n      gt\n        /* \"#utility.yul\":20185:20186   */\n      0x01\n        /* \"#utility.yul\":20180:20798   */\n      dup2\n      eq\n      tag_419\n      jumpi\n        /* \"#utility.yul\":20842:20843   */\n      0x00\n        /* \"#utility.yul\":20859:20865   */\n      dup5\n        /* \"#utility.yul\":20856:20933   */\n      iszero\n      tag_420\n      jumpi\n        /* \"#utility.yul\":20908:20917   */\n      dup3\n        /* \"#utility.yul\":20903:20906   */\n      dup8\n        /* \"#utility.yul\":20899:20918   */\n      add\n        /* \"#utility.yul\":20893:20919   */\n      mload\n        /* \"#utility.yul\":20884:20919   */\n      swap1\n      pop\n        /* \"#utility.yul\":20856:20933   */\n    tag_420:\n        /* \"#utility.yul\":20959:21026   */\n      tag_421\n        /* \"#utility.yul\":21019:21025   */\n      dup6\n        /* \"#utility.yul\":21012:21017   */\n      dup3\n        /* \"#utility.yul\":20959:21026   */\n      tag_241\n      jump\t// in\n    tag_421:\n        /* \"#utility.yul\":20953:20957   */\n      dup7\n        /* \"#utility.yul\":20946:21027   */\n      sstore\n        /* \"#utility.yul\":20815:21037   */\n      pop\n        /* \"#utility.yul\":20150:21037   */\n      jump(tag_418)\n        /* \"#utility.yul\":20180:20798   */\n    tag_419:\n        /* \"#utility.yul\":20232:20236   */\n      0x1f\n        /* \"#utility.yul\":20228:20237   */\n      not\n        /* \"#utility.yul\":20220:20226   */\n      dup5\n        /* \"#utility.yul\":20216:20238   */\n      and\n        /* \"#utility.yul\":20266:20303   */\n      tag_422\n        /* \"#utility.yul\":20298:20302   */\n      dup7\n        /* \"#utility.yul\":20266:20303   */\n      tag_227\n      jump\t// in\n    tag_422:\n        /* \"#utility.yul\":20325:20326   */\n      0x00\n        /* \"#utility.yul\":20339:20547   */\n    tag_423:\n        /* \"#utility.yul\":20353:20360   */\n      dup3\n        /* \"#utility.yul\":20350:20351   */\n      dup2\n        /* \"#utility.yul\":20347:20361   */\n      lt\n        /* \"#utility.yul\":20339:20547   */\n      iszero\n      tag_425\n      jumpi\n        /* \"#utility.yul\":20432:20441   */\n      dup5\n        /* \"#utility.yul\":20427:20430   */\n      dup10\n        /* \"#utility.yul\":20423:20442   */\n      add\n        /* \"#utility.yul\":20417:20443   */\n      mload\n        /* \"#utility.yul\":20409:20415   */\n      dup3\n        /* \"#utility.yul\":20402:20444   */\n      sstore\n        /* \"#utility.yul\":20483:20484   */\n      0x01\n        /* \"#utility.yul\":20475:20481   */\n      dup3\n        /* \"#utility.yul\":20471:20485   */\n      add\n        /* \"#utility.yul\":20461:20485   */\n      swap2\n      pop\n        /* \"#utility.yul\":20530:20532   */\n      0x20\n        /* \"#utility.yul\":20519:20528   */\n      dup6\n        /* \"#utility.yul\":20515:20533   */\n      add\n        /* \"#utility.yul\":20502:20533   */\n      swap5\n      pop\n        /* \"#utility.yul\":20376:20380   */\n      0x20\n        /* \"#utility.yul\":20373:20374   */\n      dup2\n        /* \"#utility.yul\":20369:20381   */\n      add\n        /* \"#utility.yul\":20364:20381   */\n      swap1\n      pop\n        /* \"#utility.yul\":20339:20547   */\n      jump(tag_423)\n    tag_425:\n        /* \"#utility.yul\":20575:20581   */\n      dup7\n        /* \"#utility.yul\":20566:20573   */\n      dup4\n        /* \"#utility.yul\":20563:20582   */\n      lt\n        /* \"#utility.yul\":20560:20739   */\n      iszero\n      tag_426\n      jumpi\n        /* \"#utility.yul\":20633:20642   */\n      dup5\n        /* \"#utility.yul\":20628:20631   */\n      dup10\n        /* \"#utility.yul\":20624:20643   */\n      add\n        /* \"#utility.yul\":20618:20644   */\n      mload\n        /* \"#utility.yul\":20676:20724   */\n      tag_427\n        /* \"#utility.yul\":20718:20722   */\n      0x1f\n        /* \"#utility.yul\":20710:20716   */\n      dup10\n        /* \"#utility.yul\":20706:20723   */\n      and\n        /* \"#utility.yul\":20695:20704   */\n      dup3\n        /* \"#utility.yul\":20676:20724   */\n      tag_240\n      jump\t// in\n    tag_427:\n        /* \"#utility.yul\":20668:20674   */\n      dup4\n        /* \"#utility.yul\":20661:20725   */\n      sstore\n        /* \"#utility.yul\":20583:20739   */\n      pop\n        /* \"#utility.yul\":20560:20739   */\n    tag_426:\n        /* \"#utility.yul\":20785:20786   */\n      0x01\n        /* \"#utility.yul\":20781:20782   */\n      0x02\n        /* \"#utility.yul\":20773:20779   */\n      dup9\n        /* \"#utility.yul\":20769:20783   */\n      mul\n        /* \"#utility.yul\":20765:20787   */\n      add\n        /* \"#utility.yul\":20759:20763   */\n      dup9\n        /* \"#utility.yul\":20752:20788   */\n      sstore\n        /* \"#utility.yul\":20187:20798   */\n      pop\n      pop\n      pop\n        /* \"#utility.yul\":20150:21037   */\n    tag_418:\n      pop\n        /* \"#utility.yul\":19740:21043   */\n      pop\n      pop\n      pop\n        /* \"#utility.yul\":19648:21043   */\n      pop\n      pop\n      jump\t// out\n        /* \"#utility.yul\":21049:21193   */\n    tag_242:\n        /* \"#utility.yul\":21101:21105   */\n      0x00\n        /* \"#utility.yul\":21124:21127   */\n      dup2\n        /* \"#utility.yul\":21116:21127   */\n      swap1\n      pop\n        /* \"#utility.yul\":21147:21150   */\n      dup2\n        /* \"#utility.yul\":21144:21145   */\n      0x00\n        /* \"#utility.yul\":21137:21151   */\n      mstore\n        /* \"#utility.yul\":21181:21185   */\n      0x20\n        /* \"#utility.yul\":21178:21179   */\n      0x00\n        /* \"#utility.yul\":21168:21186   */\n      keccak256\n        /* \"#utility.yul\":21160:21186   */\n      swap1\n      pop\n        /* \"#utility.yul\":21049:21193   */\n      swap2\n      swap1\n      pop\n      jump\t// out\n        /* \"#utility.yul\":21221:22099   */\n    tag_243:\n        /* \"#utility.yul\":21326:21329   */\n      0x00\n        /* \"#utility.yul\":21363:21368   */\n      dup2\n        /* \"#utility.yul\":21357:21369   */\n      sload\n        /* \"#utility.yul\":21392:21428   */\n      tag_430\n        /* \"#utility.yul\":21418:21427   */\n      dup2\n        /* \"#utility.yul\":21392:21428   */\n      tag_97\n      jump\t// in\n    tag_430:\n        /* \"#utility.yul\":21444:21532   */\n      tag_431\n        /* \"#utility.yul\":21525:21531   */\n      dup2\n        /* \"#utility.yul\":21520:21523   */\n      dup7\n        /* \"#utility.yul\":21444:21532   */\n      tag_223\n      jump\t// in\n    tag_431:\n        /* \"#utility.yul\":21437:21532   */\n      swap5\n      pop\n        /* \"#utility.yul\":21563:21564   */\n      0x01\n        /* \"#utility.yul\":21552:21561   */\n      dup3\n        /* \"#utility.yul\":21548:21565   */\n      and\n        /* \"#utility.yul\":21579:21580   */\n      0x00\n        /* \"#utility.yul\":21574:21740   */\n      dup2\n      eq\n      tag_433\n      jumpi\n        /* \"#utility.yul\":21754:21755   */\n      0x01\n        /* \"#utility.yul\":21749:22093   */\n      dup2\n      eq\n      tag_434\n      jumpi\n        /* \"#utility.yul\":21541:22093   */\n      jump(tag_432)\n        /* \"#utility.yul\":21574:21740   */\n    tag_433:\n        /* \"#utility.yul\":21658:21662   */\n      0xff\n        /* \"#utility.yul\":21654:21663   */\n      not\n        /* \"#utility.yul\":21643:21652   */\n      dup4\n        /* \"#utility.yul\":21639:21664   */\n      and\n        /* \"#utility.yul\":21634:21637   */\n      dup7\n        /* \"#utility.yul\":21627:21665   */\n      mstore\n        /* \"#utility.yul\":21720:21726   */\n      dup2\n        /* \"#utility.yul\":21713:21727   */\n      iszero\n        /* \"#utility.yul\":21706:21728   */\n      iszero\n        /* \"#utility.yul\":21698:21704   */\n      dup3\n        /* \"#utility.yul\":21694:21729   */\n      mul\n        /* \"#utility.yul\":21689:21692   */\n      dup7\n        /* \"#utility.yul\":21685:21730   */\n      add\n        /* \"#utility.yul\":21678:21730   */\n      swap4\n      pop\n        /* \"#utility.yul\":21574:21740   */\n      jump(tag_432)\n        /* \"#utility.yul\":21749:22093   */\n    tag_434:\n        /* \"#utility.yul\":21816:21857   */\n      tag_435\n        /* \"#utility.yul\":21851:21856   */\n      dup6\n        /* \"#utility.yul\":21816:21857   */\n      tag_242\n      jump\t// in\n    tag_435:\n        /* \"#utility.yul\":21879:21880   */\n      0x00\n        /* \"#utility.yul\":21893:22047   */\n    tag_436:\n        /* \"#utility.yul\":21907:21913   */\n      dup4\n        /* \"#utility.yul\":21904:21905   */\n      dup2\n        /* \"#utility.yul\":21901:21914   */\n      lt\n        /* \"#utility.yul\":21893:22047   */\n      iszero\n      tag_438\n      jumpi\n        /* \"#utility.yul\":21981:21988   */\n      dup2\n        /* \"#utility.yul\":21975:21989   */\n      sload\n        /* \"#utility.yul\":21971:21972   */\n      dup2\n        /* \"#utility.yul\":21966:21969   */\n      dup10\n        /* \"#utility.yul\":21962:21973   */\n      add\n        /* \"#utility.yul\":21955:21990   */\n      mstore\n        /* \"#utility.yul\":22031:22032   */\n      0x01\n        /* \"#utility.yul\":22022:22029   */\n      dup3\n        /* \"#utility.yul\":22018:22033   */\n      add\n        /* \"#utility.yul\":22007:22033   */\n      swap2\n      pop\n        /* \"#utility.yul\":21929:21933   */\n      0x20\n        /* \"#utility.yul\":21926:21927   */\n      dup2\n        /* \"#utility.yul\":21922:21934   */\n      add\n        /* \"#utility.yul\":21917:21934   */\n      swap1\n      pop\n        /* \"#utility.yul\":21893:22047   */\n      jump(tag_436)\n    tag_438:\n        /* \"#utility.yul\":22076:22082   */\n      dup4\n        /* \"#utility.yul\":22071:22074   */\n      dup9\n        /* \"#utility.yul\":22067:22083   */\n      add\n        /* \"#utility.yul\":22060:22083   */\n      swap6\n      pop\n        /* \"#utility.yul\":21756:22093   */\n      pop\n      pop\n        /* \"#utility.yul\":21541:22093   */\n    tag_432:\n      pop\n        /* \"#utility.yul\":21330:22099   */\n      pop\n      pop\n        /* \"#utility.yul\":21221:22099   */\n      swap3\n      swap2\n      pop\n      pop\n      jump\t// out\n        /* \"#utility.yul\":22105:22378   */\n    tag_134:\n        /* \"#utility.yul\":22236:22239   */\n      0x00\n        /* \"#utility.yul\":22258:22352   */\n      tag_440\n        /* \"#utility.yul\":22348:22351   */\n      dup3\n        /* \"#utility.yul\":22339:22345   */\n      dup5\n        /* \"#utility.yul\":22258:22352   */\n      tag_243\n      jump\t// in\n    tag_440:\n        /* \"#utility.yul\":22251:22352   */\n      swap2\n      pop\n        /* \"#utility.yul\":22369:22372   */\n      dup2\n        /* \"#utility.yul\":22362:22372   */\n      swap1\n      pop\n        /* \"#utility.yul\":22105:22378   */\n      swap3\n      swap2\n      pop\n      pop\n      jump\t// out\n        /* \"#utility.yul\":22384:22565   */\n    tag_244:\n        /* \"#utility.yul\":22524:22557   */\n      0x5265656e7472616e637947756172643a207265656e7472616e742063616c6c00\n        /* \"#utility.yul\":22520:22521   */\n      0x00\n        /* \"#utility.yul\":22512:22518   */\n      dup3\n        /* \"#utility.yul\":22508:22522   */\n      add\n        /* \"#utility.yul\":22501:22558   */\n      mstore\n        /* \"#utility.yul\":22384:22565   */\n      pop\n      jump\t// out\n        /* \"#utility.yul\":22571:22937   */\n    tag_245:\n        /* \"#utility.yul\":22713:22716   */\n      0x00\n        /* \"#utility.yul\":22734:22801   */\n      tag_443\n        /* \"#utility.yul\":22798:22800   */\n      0x1f\n        /* \"#utility.yul\":22793:22796   */\n      dup4\n        /* \"#utility.yul\":22734:22801   */\n      tag_203\n      jump\t// in\n    tag_443:\n        /* \"#utility.yul\":22727:22801   */\n      swap2\n      pop\n        /* \"#utility.yul\":22810:22903   */\n      tag_444\n        /* \"#utility.yul\":22899:22902   */\n      dup3\n        /* \"#utility.yul\":22810:22903   */\n      tag_244\n      jump\t// in\n    tag_444:\n        /* \"#utility.yul\":22928:22930   */\n      0x20\n        /* \"#utility.yul\":22923:22926   */\n      dup3\n        /* \"#utility.yul\":22919:22931   */\n      add\n        /* \"#utility.yul\":22912:22931   */\n      swap1\n      pop\n        /* \"#utility.yul\":22571:22937   */\n      swap2\n      swap1\n      pop\n      jump\t// out\n        /* \"#utility.yul\":22943:23362   */\n    tag_189:\n        /* \"#utility.yul\":23109:23113   */\n      0x00\n        /* \"#utility.yul\":23147:23149   */\n      0x20\n        /* \"#utility.yul\":23136:23145   */\n      dup3\n        /* \"#utility.yul\":23132:23150   */\n      add\n        /* \"#utility.yul\":23124:23150   */\n      swap1\n      pop\n        /* \"#utility.yul\":23196:23205   */\n      dup2\n        /* \"#utility.yul\":23190:23194   */\n      dup2\n        /* \"#utility.yul\":23186:23206   */\n      sub\n        /* \"#utility.yul\":23182:23183   */\n      0x00\n        /* \"#utility.yul\":23171:23180   */\n      dup4\n        /* \"#utility.yul\":23167:23184   */\n      add\n        /* \"#utility.yul\":23160:23207   */\n      mstore\n        /* \"#utility.yul\":23224:23355   */\n      tag_446\n        /* \"#utility.yul\":23350:23354   */\n      dup2\n        /* \"#utility.yul\":23224:23355   */\n      tag_245\n      jump\t// in\n    tag_446:\n        /* \"#utility.yul\":23216:23355   */\n      swap1\n      pop\n        /* \"#utility.yul\":22943:23362   */\n      swap2\n      swap1\n      pop\n      jump\t// out\n    stop\n    data_18a7abff09bd8d1ca8f5bd98d09638ca9d6c8c7a20393afd456ee7bb7ae79919 496e76616c696420666c69676874206e756d6265723a204d757374206265203220746f20362063686172616374657273\n    data_2673f4d1c5603474cbad76066a3283a83ede72ca4bba932f9698aedefc45fd1c 496e76616c6964206e616d653a204d7573742062652061206e6f6e2d656d70747920737472696e67\n    data_2a5821b7e6fb0b2894da4a1cf4a905d129b906bf6cb575c5c603b53ecae40c94 496e76616c696420616464726573733a207a65726f20616464726573732070726f7669646564\n    data_2df0834bdf8786d74360a7c8b8d7de5d15a4289ab85529d73f4e7397c0b8af40 43616c6c6572206d75737420626520696e737572616e63652070726f7669646572\n    data_35c2c118339253cfd42f235be948378bf98d9f4c02c62ef1490e41e10f5494c5 4f6e6c7920696e737572616e63652070726f76696465722063616e20696e697469617465207061796d656e74\n    data_59323eb6dad5e70cc715cecc9bb2fbfd583fdb1f65d5a10f603cc22277a415f3 416c6c20706f6c696369657320726574726965766564207375636365737366756c6c79\n    data_6f31ec84f1633147aa3d024eb7f56473d59ec67a9eec6c05e5cf01eb0db0a5c8 44657061727475726520616e642064657374696e6174696f6e206369746965732063616e6e6f74206265207468652073616d65\n    data_7636276aa9e42f60e147981f2412d538cf369e2766a6d3efed5d122c680b23d3 496e737572616e63652050726f76696465723a20506f6c696379207375636365737366756c6c7920707572636861736564\n    data_7a9cdb4f84f8bf3272ff777469639471ce70616242330454e3a21c0d013b6b66 496e76616c6964206461746520666f726d61743a204d75737420626520595959592d4d4d2d4444\n    data_8fab27788aa2569e6388b55730db481d583fa165812a241294b7b96a90b2a252 496e737572616e63652050726f76696465723a20506f6c69637920726574726965766564207375636365737366756c6c79\n    data_90e62f8819c827a807f9699ff7d534f63b1757c7c06d7e0f1b655a13e0c6e2d0 506f6c69637920616c72656164792065786973747320666f7220746869732061646472657373\n    data_d59989be92bc9d1b4549c043b505eb9c4875cfd9f825df1096982c95975097c2 5072656d69756d3a20302e3031204554482c20496e64656d6e6974793a20302e3032204554482c20436f7665726167653a2045787472656d6520576561746865722044656c6179732028652e672e2c206861696c2c20666c6f6f64696e672c206574632e292e\n    data_ef070f5147518867988621c2539f9f6b08693b883575bb0e1da4e2e6be6fd1e2 496e73756666696369656e742066756e64733a204d696e696d756d20302e303120455448207265717569726564\n\n    auxdata: 0xa2646970667358221220eaa27e25cdaea2c44e1490849feee6967bab6b2e2d255ba42b1ee84452130ac864736f6c634300081a0033\n}\n",
				"bytecode": {
					"linkReferences": {},
					"object": "608060405234801561000f575f80fd5b50604051612677380380612677833981810160405281019061003191906100dc565b60015f819055508060015f6101000a81548173ffffffffffffffffffffffffffffffffffffffff021916908373ffffffffffffffffffffffffffffffffffffffff16021790555050610107565b5f80fd5b5f73ffffffffffffffffffffffffffffffffffffffff82169050919050565b5f6100ab82610082565b9050919050565b6100bb816100a1565b81146100c5575f80fd5b50565b5f815190506100d6816100b2565b92915050565b5f602082840312156100f1576100f061007e565b5b5f6100fe848285016100c8565b91505092915050565b612563806101145f395ff3fe608060405260043610610085575f3560e01c8063a4cd98e611610058578063a4cd98e614610139578063b6fc3b2a14610176578063c160693d146101a0578063cd95e777146101cb578063ea3696ca146101f557610085565b80633ff1e05b146100895780635d02ed12146100b3578063963163bd146100e45780639955f67c1461010f575b5f80fd5b348015610094575f80fd5b5061009d61021f565b6040516100aa9190611831565b60405180910390f35b6100cd60048036038101906100c891906118b3565b61023d565b6040516100db929190611a54565b60405180910390f35b3480156100ef575f80fd5b506100f8610971565b604051610106929190611bc5565b60405180910390f35b34801561011a575f80fd5b50610123610eab565b6040516101309190611c09565b60405180910390f35b348015610144575f80fd5b5061015f600480360381019061015a9190611c4c565b610ed0565b60405161016d929190611a54565b60405180910390f35b348015610181575f80fd5b5061018a6111cc565b6040516101979190611c77565b60405180910390f35b3480156101ab575f80fd5b506101b46111ec565b6040516101c2929190611e0e565b60405180910390f35b3480156101d6575f80fd5b506101df61175b565b6040516101ec9190611831565b60405180910390f35b348015610200575f80fd5b50610209611766565b6040516102169190611831565b60405180910390f35b5f3373ffffffffffffffffffffffffffffffffffffffff1631905090565b5f6060610248611771565b5f8c8c9050148061025c575060408c8c9050115b15610284575f6040518060600160405280602881526020016122fb602891399150915061095a565b60028a8a90501080610299575060068a8a9050115b156102c1575f6040518060600160405280603081526020016122cb603091399150915061095a565b83836040516102d1929190611e7f565b604051809103902086866040516102e9929190611e7f565b604051809103902003610319575f6040518060600160405280603381526020016123b9603391399150915061095a565b600a8888905014158061038b57507f2d000000000000000000000000000000000000000000000000000000000000008888600481811061035c5761035b611e97565b5b9050013560f81c60f81b7effffffffffffffffffffffffffffffffffffffffffffffffffffffffffffff191614155b806103f557507f2d00000000000000000000000000000000000000000000000000000000000000888860078181106103c6576103c5611e97565b5b9050013560f81c60f81b7effffffffffffffffffffffffffffffffffffffffffffffffffffffffffffff191614155b1561041d575f60405180606001604052806027815260200161241d602791399150915061095a565b662386f26fc1000034101561044f575f6040518060600160405280602d8152602001612501602d91399150915061095a565b5f73ffffffffffffffffffffffffffffffffffffffff1660025f3373ffffffffffffffffffffffffffffffffffffffff1673ffffffffffffffffffffffffffffffffffffffff1681526020019081526020015f206001015f9054906101000a900473ffffffffffffffffffffffffffffffffffffffff1673ffffffffffffffffffffffffffffffffffffffff1614610504575f604051806060016040528060268152602001612475602691399150915061095a565b6040518060e001604052808d8d8080601f0160208091040260200160405190810160405280939291908181526020018383808284375f81840152601f19601f8201169050808301925050505050505081526020013373ffffffffffffffffffffffffffffffffffffffff1681526020018b8b8080601f0160208091040260200160405190810160405280939291908181526020018383808284375f81840152601f19601f82011690508083019250505050505050815260200189898080601f0160208091040260200160405190810160405280939291908181526020018383808284375f81840152601f19601f82011690508083019250505050505050815260200187878080601f0160208091040260200160405190810160405280939291908181526020018383808284375f81840152601f19601f82011690508083019250505050505050815260200185858080601f0160208091040260200160405190810160405280939291908181526020018383808284375f81840152601f19601f8201169050808301925050505050505081526020016040518060400160405280600981526020017f707572636861736564000000000000000000000000000000000000000000000081525081525060025f3373ffffffffffffffffffffffffffffffffffffffff1673ffffffffffffffffffffffffffffffffffffffff1681526020019081526020015f205f820151815f01908161072191906120eb565b506020820151816001015f6101000a81548173ffffffffffffffffffffffffffffffffffffffff021916908373ffffffffffffffffffffffffffffffffffffffff160217905550604082015181600201908161077d91906120eb565b50606082015181600301908161079391906120eb565b5060808201518160040190816107a991906120eb565b5060a08201518160050190816107bf91906120eb565b5060c08201518160060190816107d591906120eb565b50905050600333908060018154018082558091505060019003905f5260205f20015f9091909190916101000a81548173ffffffffffffffffffffffffffffffffffffffff021916908373ffffffffffffffffffffffffffffffffffffffff16021790555060015f9054906101000a900473ffffffffffffffffffffffffffffffffffffffff1673ffffffffffffffffffffffffffffffffffffffff166108fc662386f26fc1000090811502906040515f60405180830381858888f193505050501580156108a4573d5f803e3d5ffd5b5060015f9054906101000a900473ffffffffffffffffffffffffffffffffffffffff1673ffffffffffffffffffffffffffffffffffffffff163373ffffffffffffffffffffffffffffffffffffffff160361091d5760016040518060600160405280603181526020016123ec603191399150915061095a565b60016040518060400160405280601d81526020017f506f6c696379207375636365737366756c6c7920707572636861736564000000815250915091505b6109626117be565b9a509a98505050505050505050565b6109796117c7565b60605f60025f3373ffffffffffffffffffffffffffffffffffffffff1673ffffffffffffffffffffffffffffffffffffffff1681526020019081526020015f206040518060e00160405290815f820180546109d390611f1e565b80601f01602080910402602001604051908101604052809291908181526020018280546109ff90611f1e565b8015610a4a5780601f10610a2157610100808354040283529160200191610a4a565b820191905f5260205f20905b815481529060010190602001808311610a2d57829003601f168201915b50505050508152602001600182015f9054906101000a900473ffffffffffffffffffffffffffffffffffffffff1673ffffffffffffffffffffffffffffffffffffffff1673ffffffffffffffffffffffffffffffffffffffff168152602001600282018054610ab890611f1e565b80601f0160208091040260200160405190810160405280929190818152602001828054610ae490611f1e565b8015610b2f5780601f10610b0657610100808354040283529160200191610b2f565b820191905f5260205f20905b815481529060010190602001808311610b1257829003601f168201915b50505050508152602001600382018054610b4890611f1e565b80601f0160208091040260200160405190810160405280929190818152602001828054610b7490611f1e565b8015610bbf5780601f10610b9657610100808354040283529160200191610bbf565b820191905f5260205f20905b815481529060010190602001808311610ba257829003601f168201915b50505050508152602001600482018054610bd890611f1e565b80601f0160208091040260200160405190810160405280929190818152602001828054610c0490611f1e565b8015610c4f5780601f10610c2657610100808354040283529160200191610c4f565b820191905f5260205f20905b815481529060010190602001808311610c3257829003601f168201915b50505050508152602001600582018054610c6890611f1e565b80601f0160208091040260200160405190810160405280929190818152602001828054610c9490611f1e565b8015610cdf5780601f10610cb657610100808354040283529160200191610cdf565b820191905f5260205f20905b815481529060010190602001808311610cc257829003601f168201915b50505050508152602001600682018054610cf890611f1e565b80601f0160208091040260200160405190810160405280929190818152602001828054610d2490611f1e565b8015610d6f5780601f10610d4657610100808354040283529160200191610d6f565b820191905f5260205f20905b815481529060010190602001808311610d5257829003601f168201915b50505050508152505090505f73ffffffffffffffffffffffffffffffffffffffff16816020015173ffffffffffffffffffffffffffffffffffffffff1603610df257806040518060400160405280600f81526020017f4e6f20706f6c69637920666f756e6400000000000000000000000000000000008152509250925050610ea7565b60015f9054906101000a900473ffffffffffffffffffffffffffffffffffffffff1673ffffffffffffffffffffffffffffffffffffffff163373ffffffffffffffffffffffffffffffffffffffff1603610e6a5780604051806060016040528060318152602001612444603191399250925050610ea7565b806040518060400160405280601d81526020017f506f6c69637920726574726965766564207375636365737366756c6c7900000081525092509250505b9091565b60015f9054906101000a900473ffffffffffffffffffffffffffffffffffffffff1681565b5f606060015f9054906101000a900473ffffffffffffffffffffffffffffffffffffffff1673ffffffffffffffffffffffffffffffffffffffff163373ffffffffffffffffffffffffffffffffffffffff1614610f4a575f6040518060600160405280602c815260200161236a602c9139915091506111c7565b5f73ffffffffffffffffffffffffffffffffffffffff168373ffffffffffffffffffffffffffffffffffffffff1603610fa0575f60405180606001604052806026815260200161232360269139915091506111c7565b5f60025f8573ffffffffffffffffffffffffffffffffffffffff1673ffffffffffffffffffffffffffffffffffffffff1681526020019081526020015f2090505f73ffffffffffffffffffffffffffffffffffffffff16816001015f9054906101000a900473ffffffffffffffffffffffffffffffffffffffff1673ffffffffffffffffffffffffffffffffffffffff1603611077575f6040518060400160405280600f81526020017f4e6f20706f6c69637920666f756e64000000000000000000000000000000000081525092509250506111c7565b7f8a6496e4880174e791c7333606cc9f71e4c6fc52a65ccc1008e0ddd3dd8d1da5816006016040516110a9919061224c565b6040518091039020146110f7575f6040518060400160405280601981526020017f496e64656d6e69747920616c726561647920636c61696d65640000000000000081525092509250506111c7565b8373ffffffffffffffffffffffffffffffffffffffff166108fc66470de4df82000090811502906040515f60405180830381858888f19350505050158015611141573d5f803e3d5ffd5b506040518060400160405280600781526020017f636c61696d65640000000000000000000000000000000000000000000000000081525081600601908161118891906120eb565b5060016040518060400160405280601b81526020017f496e64656d6e697479207375636365737366756c6c792070616964000000000081525092509250505b915091565b60606040518060a001604052806066815260200161249b60669139905090565b60608060015f9054906101000a900473ffffffffffffffffffffffffffffffffffffffff1673ffffffffffffffffffffffffffffffffffffffff163373ffffffffffffffffffffffffffffffffffffffff161461126957606080604051806060016040528060218152602001612349602191399250925050611757565b5f60038054905067ffffffffffffffff81111561128957611288611ec4565b5b6040519080825280602002602001820160405280156112c257816020015b6112af6117c7565b8152602001906001900390816112a75790505b5090505f5b6003805490508110156117365760025f600383815481106112eb576112ea611e97565b5b905f5260205f20015f9054906101000a900473ffffffffffffffffffffffffffffffffffffffff1673ffffffffffffffffffffffffffffffffffffffff1673ffffffffffffffffffffffffffffffffffffffff1681526020019081526020015f206040518060e00160405290815f8201805461136690611f1e565b80601f016020809104026020016040519081016040528092919081815260200182805461139290611f1e565b80156113dd5780601f106113b4576101008083540402835291602001916113dd565b820191905f5260205f20905b8154815290600101906020018083116113c057829003601f168201915b50505050508152602001600182015f9054906101000a900473ffffffffffffffffffffffffffffffffffffffff1673ffffffffffffffffffffffffffffffffffffffff1673ffffffffffffffffffffffffffffffffffffffff16815260200160028201805461144b90611f1e565b80601f016020809104026020016040519081016040528092919081815260200182805461147790611f1e565b80156114c25780601f10611499576101008083540402835291602001916114c2565b820191905f5260205f20905b8154815290600101906020018083116114a557829003601f168201915b505050505081526020016003820180546114db90611f1e565b80601f016020809104026020016040519081016040528092919081815260200182805461150790611f1e565b80156115525780601f1061152957610100808354040283529160200191611552565b820191905f5260205f20905b81548152906001019060200180831161153557829003601f168201915b5050505050815260200160048201805461156b90611f1e565b80601f016020809104026020016040519081016040528092919081815260200182805461159790611f1e565b80156115e25780601f106115b9576101008083540402835291602001916115e2565b820191905f5260205f20905b8154815290600101906020018083116115c557829003601f168201915b505050505081526020016005820180546115fb90611f1e565b80601f016020809104026020016040519081016040528092919081815260200182805461162790611f1e565b80156116725780601f1061164957610100808354040283529160200191611672565b820191905f5260205f20905b81548152906001019060200180831161165557829003601f168201915b5050505050815260200160068201805461168b90611f1e565b80601f01602080910402602001604051908101604052809291908181526020018280546116b790611f1e565b80156117025780601f106116d957610100808354040283529160200191611702565b820191905f5260205f20905b8154815290600101906020018083116116e557829003601f168201915b50505050508152505082828151811061171e5761171d611e97565b5b602002602001018190525080806001019150506112c7565b50806040518060600160405280602381526020016123966023913992509250505b9091565b66470de4df82000081565b662386f26fc1000081565b60025f54036117b5576040517f08c379a00000000000000000000000000000000000000000000000000000000081526004016117ac906122ac565b60405180910390fd5b60025f81905550565b60015f81905550565b6040518060e00160405280606081526020015f73ffffffffffffffffffffffffffffffffffffffff16815260200160608152602001606081526020016060815260200160608152602001606081525090565b5f819050919050565b61182b81611819565b82525050565b5f6020820190506118445f830184611822565b92915050565b5f80fd5b5f80fd5b5f80fd5b5f80fd5b5f80fd5b5f8083601f84011261187357611872611852565b5b8235905067ffffffffffffffff8111156118905761188f611856565b5b6020830191508360018202830111156118ac576118ab61185a565b5b9250929050565b5f805f805f805f805f8060a08b8d0312156118d1576118d061184a565b5b5f8b013567ffffffffffffffff8111156118ee576118ed61184e565b5b6118fa8d828e0161185e565b9a509a505060208b013567ffffffffffffffff81111561191d5761191c61184e565b5b6119298d828e0161185e565b985098505060408b013567ffffffffffffffff81111561194c5761194b61184e565b5b6119588d828e0161185e565b965096505060608b013567ffffffffffffffff81111561197b5761197a61184e565b5b6119878d828e0161185e565b945094505060808b013567ffffffffffffffff8111156119aa576119a961184e565b5b6119b68d828e0161185e565b92509250509295989b9194979a5092959850565b5f8115159050919050565b6119de816119ca565b82525050565b5f81519050919050565b5f82825260208201905092915050565b8281835e5f83830152505050565b5f601f19601f8301169050919050565b5f611a26826119e4565b611a3081856119ee565b9350611a408185602086016119fe565b611a4981611a0c565b840191505092915050565b5f604082019050611a675f8301856119d5565b8181036020830152611a798184611a1c565b90509392505050565b5f82825260208201905092915050565b5f611a9c826119e4565b611aa68185611a82565b9350611ab68185602086016119fe565b611abf81611a0c565b840191505092915050565b5f73ffffffffffffffffffffffffffffffffffffffff82169050919050565b5f611af382611aca565b9050919050565b611b0381611ae9565b82525050565b5f60e083015f8301518482035f860152611b238282611a92565b9150506020830151611b386020860182611afa565b5060408301518482036040860152611b508282611a92565b91505060608301518482036060860152611b6a8282611a92565b91505060808301518482036080860152611b848282611a92565b91505060a083015184820360a0860152611b9e8282611a92565b91505060c083015184820360c0860152611bb88282611a92565b9150508091505092915050565b5f6040820190508181035f830152611bdd8185611b09565b90508181036020830152611bf18184611a1c565b90509392505050565b611c0381611ae9565b82525050565b5f602082019050611c1c5f830184611bfa565b92915050565b611c2b81611ae9565b8114611c35575f80fd5b50565b5f81359050611c4681611c22565b92915050565b5f60208284031215611c6157611c6061184a565b5b5f611c6e84828501611c38565b91505092915050565b5f6020820190508181035f830152611c8f8184611a1c565b905092915050565b5f81519050919050565b5f82825260208201905092915050565b5f819050602082019050919050565b5f60e083015f8301518482035f860152611cda8282611a92565b9150506020830151611cef6020860182611afa565b5060408301518482036040860152611d078282611a92565b91505060608301518482036060860152611d218282611a92565b91505060808301518482036080860152611d3b8282611a92565b91505060a083015184820360a0860152611d558282611a92565b91505060c083015184820360c0860152611d6f8282611a92565b9150508091505092915050565b5f611d878383611cc0565b905092915050565b5f602082019050919050565b5f611da582611c97565b611daf8185611ca1565b935083602082028501611dc185611cb1565b805f5b85811015611dfc5784840389528151611ddd8582611d7c565b9450611de883611d8f565b925060208a01995050600181019050611dc4565b50829750879550505050505092915050565b5f6040820190508181035f830152611e268185611d9b565b90508181036020830152611e3a8184611a1c565b90509392505050565b5f81905092915050565b828183375f83830152505050565b5f611e668385611e43565b9350611e73838584611e4d565b82840190509392505050565b5f611e8b828486611e5b565b91508190509392505050565b7f4e487b71000000000000000000000000000000000000000000000000000000005f52603260045260245ffd5b7f4e487b71000000000000000000000000000000000000000000000000000000005f52604160045260245ffd5b7f4e487b71000000000000000000000000000000000000000000000000000000005f52602260045260245ffd5b5f6002820490506001821680611f3557607f821691505b602082108103611f4857611f47611ef1565b5b50919050565b5f819050815f5260205f209050919050565b5f6020601f8301049050919050565b5f82821b905092915050565b5f60088302611faa7fffffffffffffffffffffffffffffffffffffffffffffffffffffffffffffffff82611f6f565b611fb48683611f6f565b95508019841693508086168417925050509392505050565b5f819050919050565b5f611fef611fea611fe584611819565b611fcc565b611819565b9050919050565b5f819050919050565b61200883611fd5565b61201c61201482611ff6565b848454611f7b565b825550505050565b5f90565b612030612024565b61203b818484611fff565b505050565b5b8181101561205e576120535f82612028565b600181019050612041565b5050565b601f8211156120a35761207481611f4e565b61207d84611f60565b8101602085101561208c578190505b6120a061209885611f60565b830182612040565b50505b505050565b5f82821c905092915050565b5f6120c35f19846008026120a8565b1980831691505092915050565b5f6120db83836120b4565b9150826002028217905092915050565b6120f4826119e4565b67ffffffffffffffff81111561210d5761210c611ec4565b5b6121178254611f1e565b612122828285612062565b5f60209050601f831160018114612153575f8415612141578287015190505b61214b85826120d0565b8655506121b2565b601f19841661216186611f4e565b5f5b8281101561218857848901518255600182019150602085019450602081019050612163565b868310156121a557848901516121a1601f8916826120b4565b8355505b6001600288020188555050505b505050505050565b5f819050815f5260205f209050919050565b5f81546121d881611f1e565b6121e28186611e43565b9450600182165f81146121fc576001811461221157612243565b60ff1983168652811515820286019350612243565b61221a856121ba565b5f5b8381101561223b5781548189015260018201915060208101905061221c565b838801955050505b50505092915050565b5f61225782846121cc565b915081905092915050565b7f5265656e7472616e637947756172643a207265656e7472616e742063616c6c005f82015250565b5f612296601f836119ee565b91506122a182612262565b602082019050919050565b5f6020820190508181035f8301526122c38161228a565b905091905056fe496e76616c696420666c69676874206e756d6265723a204d757374206265203220746f20362063686172616374657273496e76616c6964206e616d653a204d7573742062652061206e6f6e2d656d70747920737472696e67496e76616c696420616464726573733a207a65726f20616464726573732070726f766964656443616c6c6572206d75737420626520696e737572616e63652070726f76696465724f6e6c7920696e737572616e63652070726f76696465722063616e20696e697469617465207061796d656e74416c6c20706f6c696369657320726574726965766564207375636365737366756c6c7944657061727475726520616e642064657374696e6174696f6e206369746965732063616e6e6f74206265207468652073616d65496e737572616e63652050726f76696465723a20506f6c696379207375636365737366756c6c7920707572636861736564496e76616c6964206461746520666f726d61743a204d75737420626520595959592d4d4d2d4444496e737572616e63652050726f76696465723a20506f6c69637920726574726965766564207375636365737366756c6c79506f6c69637920616c72656164792065786973747320666f72207468697320616464726573735072656d69756d3a20302e3031204554482c20496e64656d6e6974793a20302e3032204554482c20436f7665726167653a2045787472656d6520576561746865722044656c6179732028652e672e2c206861696c2c20666c6f6f64696e672c206574632e292e496e73756666696369656e742066756e64733a204d696e696d756d20302e303120455448207265717569726564a2646970667358221220eaa27e25cdaea2c44e1490849feee6967bab6b2e2d255ba42b1ee84452130ac864736f6c634300081a0033",
					"opcodes": "PUSH1 0x80 PUSH1 0x40 MSTORE CALLVALUE DUP1 ISZERO PUSH2 0xF JUMPI PUSH0 DUP1 REVERT JUMPDEST POP PUSH1 0x40 MLOAD PUSH2 0x2677 CODESIZE SUB DUP1 PUSH2 0x2677 DUP4 CODECOPY DUP2 DUP2 ADD PUSH1 0x40 MSTORE DUP2 ADD SWAP1 PUSH2 0x31 SWAP2 SWAP1 PUSH2 0xDC JUMP JUMPDEST PUSH1 0x1 PUSH0 DUP2 SWAP1 SSTORE POP DUP1 PUSH1 0x1 PUSH0 PUSH2 0x100 EXP DUP2 SLOAD DUP2 PUSH20 0xFFFFFFFFFFFFFFFFFFFFFFFFFFFFFFFFFFFFFFFF MUL NOT AND SWAP1 DUP4 PUSH20 0xFFFFFFFFFFFFFFFFFFFFFFFFFFFFFFFFFFFFFFFF AND MUL OR SWAP1 SSTORE POP POP PUSH2 0x107 JUMP JUMPDEST PUSH0 DUP1 REVERT JUMPDEST PUSH0 PUSH20 0xFFFFFFFFFFFFFFFFFFFFFFFFFFFFFFFFFFFFFFFF DUP3 AND SWAP1 POP SWAP2 SWAP1 POP JUMP JUMPDEST PUSH0 PUSH2 0xAB DUP3 PUSH2 0x82 JUMP JUMPDEST SWAP1 POP SWAP2 SWAP1 POP JUMP JUMPDEST PUSH2 0xBB DUP2 PUSH2 0xA1 JUMP JUMPDEST DUP2 EQ PUSH2 0xC5 JUMPI PUSH0 DUP1 REVERT JUMPDEST POP JUMP JUMPDEST PUSH0 DUP2 MLOAD SWAP1 POP PUSH2 0xD6 DUP2 PUSH2 0xB2 JUMP JUMPDEST SWAP3 SWAP2 POP POP JUMP JUMPDEST PUSH0 PUSH1 0x20 DUP3 DUP5 SUB SLT ISZERO PUSH2 0xF1 JUMPI PUSH2 0xF0 PUSH2 0x7E JUMP JUMPDEST JUMPDEST PUSH0 PUSH2 0xFE DUP5 DUP3 DUP6 ADD PUSH2 0xC8 JUMP JUMPDEST SWAP2 POP POP SWAP3 SWAP2 POP POP JUMP JUMPDEST PUSH2 0x2563 DUP1 PUSH2 0x114 PUSH0 CODECOPY PUSH0 RETURN INVALID PUSH1 0x80 PUSH1 0x40 MSTORE PUSH1 0x4 CALLDATASIZE LT PUSH2 0x85 JUMPI PUSH0 CALLDATALOAD PUSH1 0xE0 SHR DUP1 PUSH4 0xA4CD98E6 GT PUSH2 0x58 JUMPI DUP1 PUSH4 0xA4CD98E6 EQ PUSH2 0x139 JUMPI DUP1 PUSH4 0xB6FC3B2A EQ PUSH2 0x176 JUMPI DUP1 PUSH4 0xC160693D EQ PUSH2 0x1A0 JUMPI DUP1 PUSH4 0xCD95E777 EQ PUSH2 0x1CB JUMPI DUP1 PUSH4 0xEA3696CA EQ PUSH2 0x1F5 JUMPI PUSH2 0x85 JUMP JUMPDEST DUP1 PUSH4 0x3FF1E05B EQ PUSH2 0x89 JUMPI DUP1 PUSH4 0x5D02ED12 EQ PUSH2 0xB3 JUMPI DUP1 PUSH4 0x963163BD EQ PUSH2 0xE4 JUMPI DUP1 PUSH4 0x9955F67C EQ PUSH2 0x10F JUMPI JUMPDEST PUSH0 DUP1 REVERT JUMPDEST CALLVALUE DUP1 ISZERO PUSH2 0x94 JUMPI PUSH0 DUP1 REVERT JUMPDEST POP PUSH2 0x9D PUSH2 0x21F JUMP JUMPDEST PUSH1 0x40 MLOAD PUSH2 0xAA SWAP2 SWAP1 PUSH2 0x1831 JUMP JUMPDEST PUSH1 0x40 MLOAD DUP1 SWAP2 SUB SWAP1 RETURN JUMPDEST PUSH2 0xCD PUSH1 0x4 DUP1 CALLDATASIZE SUB DUP2 ADD SWAP1 PUSH2 0xC8 SWAP2 SWAP1 PUSH2 0x18B3 JUMP JUMPDEST PUSH2 0x23D JUMP JUMPDEST PUSH1 0x40 MLOAD PUSH2 0xDB SWAP3 SWAP2 SWAP1 PUSH2 0x1A54 JUMP JUMPDEST PUSH1 0x40 MLOAD DUP1 SWAP2 SUB SWAP1 RETURN JUMPDEST CALLVALUE DUP1 ISZERO PUSH2 0xEF JUMPI PUSH0 DUP1 REVERT JUMPDEST POP PUSH2 0xF8 PUSH2 0x971 JUMP JUMPDEST PUSH1 0x40 MLOAD PUSH2 0x106 SWAP3 SWAP2 SWAP1 PUSH2 0x1BC5 JUMP JUMPDEST PUSH1 0x40 MLOAD DUP1 SWAP2 SUB SWAP1 RETURN JUMPDEST CALLVALUE DUP1 ISZERO PUSH2 0x11A JUMPI PUSH0 DUP1 REVERT JUMPDEST POP PUSH2 0x123 PUSH2 0xEAB JUMP JUMPDEST PUSH1 0x40 MLOAD PUSH2 0x130 SWAP2 SWAP1 PUSH2 0x1C09 JUMP JUMPDEST PUSH1 0x40 MLOAD DUP1 SWAP2 SUB SWAP1 RETURN JUMPDEST CALLVALUE DUP1 ISZERO PUSH2 0x144 JUMPI PUSH0 DUP1 REVERT JUMPDEST POP PUSH2 0x15F PUSH1 0x4 DUP1 CALLDATASIZE SUB DUP2 ADD SWAP1 PUSH2 0x15A SWAP2 SWAP1 PUSH2 0x1C4C JUMP JUMPDEST PUSH2 0xED0 JUMP JUMPDEST PUSH1 0x40 MLOAD PUSH2 0x16D SWAP3 SWAP2 SWAP1 PUSH2 0x1A54 JUMP JUMPDEST PUSH1 0x40 MLOAD DUP1 SWAP2 SUB SWAP1 RETURN JUMPDEST CALLVALUE DUP1 ISZERO PUSH2 0x181 JUMPI PUSH0 DUP1 REVERT JUMPDEST POP PUSH2 0x18A PUSH2 0x11CC JUMP JUMPDEST PUSH1 0x40 MLOAD PUSH2 0x197 SWAP2 SWAP1 PUSH2 0x1C77 JUMP JUMPDEST PUSH1 0x40 MLOAD DUP1 SWAP2 SUB SWAP1 RETURN JUMPDEST CALLVALUE DUP1 ISZERO PUSH2 0x1AB JUMPI PUSH0 DUP1 REVERT JUMPDEST POP PUSH2 0x1B4 PUSH2 0x11EC JUMP JUMPDEST PUSH1 0x40 MLOAD PUSH2 0x1C2 SWAP3 SWAP2 SWAP1 PUSH2 0x1E0E JUMP JUMPDEST PUSH1 0x40 MLOAD DUP1 SWAP2 SUB SWAP1 RETURN JUMPDEST CALLVALUE DUP1 ISZERO PUSH2 0x1D6 JUMPI PUSH0 DUP1 REVERT JUMPDEST POP PUSH2 0x1DF PUSH2 0x175B JUMP JUMPDEST PUSH1 0x40 MLOAD PUSH2 0x1EC SWAP2 SWAP1 PUSH2 0x1831 JUMP JUMPDEST PUSH1 0x40 MLOAD DUP1 SWAP2 SUB SWAP1 RETURN JUMPDEST CALLVALUE DUP1 ISZERO PUSH2 0x200 JUMPI PUSH0 DUP1 REVERT JUMPDEST POP PUSH2 0x209 PUSH2 0x1766 JUMP JUMPDEST PUSH1 0x40 MLOAD PUSH2 0x216 SWAP2 SWAP1 PUSH2 0x1831 JUMP JUMPDEST PUSH1 0x40 MLOAD DUP1 SWAP2 SUB SWAP1 RETURN JUMPDEST PUSH0 CALLER PUSH20 0xFFFFFFFFFFFFFFFFFFFFFFFFFFFFFFFFFFFFFFFF AND BALANCE SWAP1 POP SWAP1 JUMP JUMPDEST PUSH0 PUSH1 0x60 PUSH2 0x248 PUSH2 0x1771 JUMP JUMPDEST PUSH0 DUP13 DUP13 SWAP1 POP EQ DUP1 PUSH2 0x25C JUMPI POP PUSH1 0x40 DUP13 DUP13 SWAP1 POP GT JUMPDEST ISZERO PUSH2 0x284 JUMPI PUSH0 PUSH1 0x40 MLOAD DUP1 PUSH1 0x60 ADD PUSH1 0x40 MSTORE DUP1 PUSH1 0x28 DUP2 MSTORE PUSH1 0x20 ADD PUSH2 0x22FB PUSH1 0x28 SWAP2 CODECOPY SWAP2 POP SWAP2 POP PUSH2 0x95A JUMP JUMPDEST PUSH1 0x2 DUP11 DUP11 SWAP1 POP LT DUP1 PUSH2 0x299 JUMPI POP PUSH1 0x6 DUP11 DUP11 SWAP1 POP GT JUMPDEST ISZERO PUSH2 0x2C1 JUMPI PUSH0 PUSH1 0x40 MLOAD DUP1 PUSH1 0x60 ADD PUSH1 0x40 MSTORE DUP1 PUSH1 0x30 DUP2 MSTORE PUSH1 0x20 ADD PUSH2 0x22CB PUSH1 0x30 SWAP2 CODECOPY SWAP2 POP SWAP2 POP PUSH2 0x95A JUMP JUMPDEST DUP4 DUP4 PUSH1 0x40 MLOAD PUSH2 0x2D1 SWAP3 SWAP2 SWAP1 PUSH2 0x1E7F JUMP JUMPDEST PUSH1 0x40 MLOAD DUP1 SWAP2 SUB SWAP1 KECCAK256 DUP7 DUP7 PUSH1 0x40 MLOAD PUSH2 0x2E9 SWAP3 SWAP2 SWAP1 PUSH2 0x1E7F JUMP JUMPDEST PUSH1 0x40 MLOAD DUP1 SWAP2 SUB SWAP1 KECCAK256 SUB PUSH2 0x319 JUMPI PUSH0 PUSH1 0x40 MLOAD DUP1 PUSH1 0x60 ADD PUSH1 0x40 MSTORE DUP1 PUSH1 0x33 DUP2 MSTORE PUSH1 0x20 ADD PUSH2 0x23B9 PUSH1 0x33 SWAP2 CODECOPY SWAP2 POP SWAP2 POP PUSH2 0x95A JUMP JUMPDEST PUSH1 0xA DUP9 DUP9 SWAP1 POP EQ ISZERO DUP1 PUSH2 0x38B JUMPI POP PUSH32 0x2D00000000000000000000000000000000000000000000000000000000000000 DUP9 DUP9 PUSH1 0x4 DUP2 DUP2 LT PUSH2 0x35C JUMPI PUSH2 0x35B PUSH2 0x1E97 JUMP JUMPDEST JUMPDEST SWAP1 POP ADD CALLDATALOAD PUSH1 0xF8 SHR PUSH1 0xF8 SHL PUSH31 0xFFFFFFFFFFFFFFFFFFFFFFFFFFFFFFFFFFFFFFFFFFFFFFFFFFFFFFFFFFFFFF NOT AND EQ ISZERO JUMPDEST DUP1 PUSH2 0x3F5 JUMPI POP PUSH32 0x2D00000000000000000000000000000000000000000000000000000000000000 DUP9 DUP9 PUSH1 0x7 DUP2 DUP2 LT PUSH2 0x3C6 JUMPI PUSH2 0x3C5 PUSH2 0x1E97 JUMP JUMPDEST JUMPDEST SWAP1 POP ADD CALLDATALOAD PUSH1 0xF8 SHR PUSH1 0xF8 SHL PUSH31 0xFFFFFFFFFFFFFFFFFFFFFFFFFFFFFFFFFFFFFFFFFFFFFFFFFFFFFFFFFFFFFF NOT AND EQ ISZERO JUMPDEST ISZERO PUSH2 0x41D JUMPI PUSH0 PUSH1 0x40 MLOAD DUP1 PUSH1 0x60 ADD PUSH1 0x40 MSTORE DUP1 PUSH1 0x27 DUP2 MSTORE PUSH1 0x20 ADD PUSH2 0x241D PUSH1 0x27 SWAP2 CODECOPY SWAP2 POP SWAP2 POP PUSH2 0x95A JUMP JUMPDEST PUSH7 0x2386F26FC10000 CALLVALUE LT ISZERO PUSH2 0x44F JUMPI PUSH0 PUSH1 0x40 MLOAD DUP1 PUSH1 0x60 ADD PUSH1 0x40 MSTORE DUP1 PUSH1 0x2D DUP2 MSTORE PUSH1 0x20 ADD PUSH2 0x2501 PUSH1 0x2D SWAP2 CODECOPY SWAP2 POP SWAP2 POP PUSH2 0x95A JUMP JUMPDEST PUSH0 PUSH20 0xFFFFFFFFFFFFFFFFFFFFFFFFFFFFFFFFFFFFFFFF AND PUSH1 0x2 PUSH0 CALLER PUSH20 0xFFFFFFFFFFFFFFFFFFFFFFFFFFFFFFFFFFFFFFFF AND PUSH20 0xFFFFFFFFFFFFFFFFFFFFFFFFFFFFFFFFFFFFFFFF AND DUP2 MSTORE PUSH1 0x20 ADD SWAP1 DUP2 MSTORE PUSH1 0x20 ADD PUSH0 KECCAK256 PUSH1 0x1 ADD PUSH0 SWAP1 SLOAD SWAP1 PUSH2 0x100 EXP SWAP1 DIV PUSH20 0xFFFFFFFFFFFFFFFFFFFFFFFFFFFFFFFFFFFFFFFF AND PUSH20 0xFFFFFFFFFFFFFFFFFFFFFFFFFFFFFFFFFFFFFFFF AND EQ PUSH2 0x504 JUMPI PUSH0 PUSH1 0x40 MLOAD DUP1 PUSH1 0x60 ADD PUSH1 0x40 MSTORE DUP1 PUSH1 0x26 DUP2 MSTORE PUSH1 0x20 ADD PUSH2 0x2475 PUSH1 0x26 SWAP2 CODECOPY SWAP2 POP SWAP2 POP PUSH2 0x95A JUMP JUMPDEST PUSH1 0x40 MLOAD DUP1 PUSH1 0xE0 ADD PUSH1 0x40 MSTORE DUP1 DUP14 DUP14 DUP1 DUP1 PUSH1 0x1F ADD PUSH1 0x20 DUP1 SWAP2 DIV MUL PUSH1 0x20 ADD PUSH1 0x40 MLOAD SWAP1 DUP2 ADD PUSH1 0x40 MSTORE DUP1 SWAP4 SWAP3 SWAP2 SWAP1 DUP2 DUP2 MSTORE PUSH1 0x20 ADD DUP4 DUP4 DUP1 DUP3 DUP5 CALLDATACOPY PUSH0 DUP2 DUP5 ADD MSTORE PUSH1 0x1F NOT PUSH1 0x1F DUP3 ADD AND SWAP1 POP DUP1 DUP4 ADD SWAP3 POP POP POP POP POP POP POP DUP2 MSTORE PUSH1 0x20 ADD CALLER PUSH20 0xFFFFFFFFFFFFFFFFFFFFFFFFFFFFFFFFFFFFFFFF AND DUP2 MSTORE PUSH1 0x20 ADD DUP12 DUP12 DUP1 DUP1 PUSH1 0x1F ADD PUSH1 0x20 DUP1 SWAP2 DIV MUL PUSH1 0x20 ADD PUSH1 0x40 MLOAD SWAP1 DUP2 ADD PUSH1 0x40 MSTORE DUP1 SWAP4 SWAP3 SWAP2 SWAP1 DUP2 DUP2 MSTORE PUSH1 0x20 ADD DUP4 DUP4 DUP1 DUP3 DUP5 CALLDATACOPY PUSH0 DUP2 DUP5 ADD MSTORE PUSH1 0x1F NOT PUSH1 0x1F DUP3 ADD AND SWAP1 POP DUP1 DUP4 ADD SWAP3 POP POP POP POP POP POP POP DUP2 MSTORE PUSH1 0x20 ADD DUP10 DUP10 DUP1 DUP1 PUSH1 0x1F ADD PUSH1 0x20 DUP1 SWAP2 DIV MUL PUSH1 0x20 ADD PUSH1 0x40 MLOAD SWAP1 DUP2 ADD PUSH1 0x40 MSTORE DUP1 SWAP4 SWAP3 SWAP2 SWAP1 DUP2 DUP2 MSTORE PUSH1 0x20 ADD DUP4 DUP4 DUP1 DUP3 DUP5 CALLDATACOPY PUSH0 DUP2 DUP5 ADD MSTORE PUSH1 0x1F NOT PUSH1 0x1F DUP3 ADD AND SWAP1 POP DUP1 DUP4 ADD SWAP3 POP POP POP POP POP POP POP DUP2 MSTORE PUSH1 0x20 ADD DUP8 DUP8 DUP1 DUP1 PUSH1 0x1F ADD PUSH1 0x20 DUP1 SWAP2 DIV MUL PUSH1 0x20 ADD PUSH1 0x40 MLOAD SWAP1 DUP2 ADD PUSH1 0x40 MSTORE DUP1 SWAP4 SWAP3 SWAP2 SWAP1 DUP2 DUP2 MSTORE PUSH1 0x20 ADD DUP4 DUP4 DUP1 DUP3 DUP5 CALLDATACOPY PUSH0 DUP2 DUP5 ADD MSTORE PUSH1 0x1F NOT PUSH1 0x1F DUP3 ADD AND SWAP1 POP DUP1 DUP4 ADD SWAP3 POP POP POP POP POP POP POP DUP2 MSTORE PUSH1 0x20 ADD DUP6 DUP6 DUP1 DUP1 PUSH1 0x1F ADD PUSH1 0x20 DUP1 SWAP2 DIV MUL PUSH1 0x20 ADD PUSH1 0x40 MLOAD SWAP1 DUP2 ADD PUSH1 0x40 MSTORE DUP1 SWAP4 SWAP3 SWAP2 SWAP1 DUP2 DUP2 MSTORE PUSH1 0x20 ADD DUP4 DUP4 DUP1 DUP3 DUP5 CALLDATACOPY PUSH0 DUP2 DUP5 ADD MSTORE PUSH1 0x1F NOT PUSH1 0x1F DUP3 ADD AND SWAP1 POP DUP1 DUP4 ADD SWAP3 POP POP POP POP POP POP POP DUP2 MSTORE PUSH1 0x20 ADD PUSH1 0x40 MLOAD DUP1 PUSH1 0x40 ADD PUSH1 0x40 MSTORE DUP1 PUSH1 0x9 DUP2 MSTORE PUSH1 0x20 ADD PUSH32 0x7075726368617365640000000000000000000000000000000000000000000000 DUP2 MSTORE POP DUP2 MSTORE POP PUSH1 0x2 PUSH0 CALLER PUSH20 0xFFFFFFFFFFFFFFFFFFFFFFFFFFFFFFFFFFFFFFFF AND PUSH20 0xFFFFFFFFFFFFFFFFFFFFFFFFFFFFFFFFFFFFFFFF AND DUP2 MSTORE PUSH1 0x20 ADD SWAP1 DUP2 MSTORE PUSH1 0x20 ADD PUSH0 KECCAK256 PUSH0 DUP3 ADD MLOAD DUP2 PUSH0 ADD SWAP1 DUP2 PUSH2 0x721 SWAP2 SWAP1 PUSH2 0x20EB JUMP JUMPDEST POP PUSH1 0x20 DUP3 ADD MLOAD DUP2 PUSH1 0x1 ADD PUSH0 PUSH2 0x100 EXP DUP2 SLOAD DUP2 PUSH20 0xFFFFFFFFFFFFFFFFFFFFFFFFFFFFFFFFFFFFFFFF MUL NOT AND SWAP1 DUP4 PUSH20 0xFFFFFFFFFFFFFFFFFFFFFFFFFFFFFFFFFFFFFFFF AND MUL OR SWAP1 SSTORE POP PUSH1 0x40 DUP3 ADD MLOAD DUP2 PUSH1 0x2 ADD SWAP1 DUP2 PUSH2 0x77D SWAP2 SWAP1 PUSH2 0x20EB JUMP JUMPDEST POP PUSH1 0x60 DUP3 ADD MLOAD DUP2 PUSH1 0x3 ADD SWAP1 DUP2 PUSH2 0x793 SWAP2 SWAP1 PUSH2 0x20EB JUMP JUMPDEST POP PUSH1 0x80 DUP3 ADD MLOAD DUP2 PUSH1 0x4 ADD SWAP1 DUP2 PUSH2 0x7A9 SWAP2 SWAP1 PUSH2 0x20EB JUMP JUMPDEST POP PUSH1 0xA0 DUP3 ADD MLOAD DUP2 PUSH1 0x5 ADD SWAP1 DUP2 PUSH2 0x7BF SWAP2 SWAP1 PUSH2 0x20EB JUMP JUMPDEST POP PUSH1 0xC0 DUP3 ADD MLOAD DUP2 PUSH1 0x6 ADD SWAP1 DUP2 PUSH2 0x7D5 SWAP2 SWAP1 PUSH2 0x20EB JUMP JUMPDEST POP SWAP1 POP POP PUSH1 0x3 CALLER SWAP1 DUP1 PUSH1 0x1 DUP2 SLOAD ADD DUP1 DUP3 SSTORE DUP1 SWAP2 POP POP PUSH1 0x1 SWAP1 SUB SWAP1 PUSH0 MSTORE PUSH1 0x20 PUSH0 KECCAK256 ADD PUSH0 SWAP1 SWAP2 SWAP1 SWAP2 SWAP1 SWAP2 PUSH2 0x100 EXP DUP2 SLOAD DUP2 PUSH20 0xFFFFFFFFFFFFFFFFFFFFFFFFFFFFFFFFFFFFFFFF MUL NOT AND SWAP1 DUP4 PUSH20 0xFFFFFFFFFFFFFFFFFFFFFFFFFFFFFFFFFFFFFFFF AND MUL OR SWAP1 SSTORE POP PUSH1 0x1 PUSH0 SWAP1 SLOAD SWAP1 PUSH2 0x100 EXP SWAP1 DIV PUSH20 0xFFFFFFFFFFFFFFFFFFFFFFFFFFFFFFFFFFFFFFFF AND PUSH20 0xFFFFFFFFFFFFFFFFFFFFFFFFFFFFFFFFFFFFFFFF AND PUSH2 0x8FC PUSH7 0x2386F26FC10000 SWAP1 DUP2 ISZERO MUL SWAP1 PUSH1 0x40 MLOAD PUSH0 PUSH1 0x40 MLOAD DUP1 DUP4 SUB DUP2 DUP6 DUP9 DUP9 CALL SWAP4 POP POP POP POP ISZERO DUP1 ISZERO PUSH2 0x8A4 JUMPI RETURNDATASIZE PUSH0 DUP1 RETURNDATACOPY RETURNDATASIZE PUSH0 REVERT JUMPDEST POP PUSH1 0x1 PUSH0 SWAP1 SLOAD SWAP1 PUSH2 0x100 EXP SWAP1 DIV PUSH20 0xFFFFFFFFFFFFFFFFFFFFFFFFFFFFFFFFFFFFFFFF AND PUSH20 0xFFFFFFFFFFFFFFFFFFFFFFFFFFFFFFFFFFFFFFFF AND CALLER PUSH20 0xFFFFFFFFFFFFFFFFFFFFFFFFFFFFFFFFFFFFFFFF AND SUB PUSH2 0x91D JUMPI PUSH1 0x1 PUSH1 0x40 MLOAD DUP1 PUSH1 0x60 ADD PUSH1 0x40 MSTORE DUP1 PUSH1 0x31 DUP2 MSTORE PUSH1 0x20 ADD PUSH2 0x23EC PUSH1 0x31 SWAP2 CODECOPY SWAP2 POP SWAP2 POP PUSH2 0x95A JUMP JUMPDEST PUSH1 0x1 PUSH1 0x40 MLOAD DUP1 PUSH1 0x40 ADD PUSH1 0x40 MSTORE DUP1 PUSH1 0x1D DUP2 MSTORE PUSH1 0x20 ADD PUSH32 0x506F6C696379207375636365737366756C6C7920707572636861736564000000 DUP2 MSTORE POP SWAP2 POP SWAP2 POP JUMPDEST PUSH2 0x962 PUSH2 0x17BE JUMP JUMPDEST SWAP11 POP SWAP11 SWAP9 POP POP POP POP POP POP POP POP POP JUMP JUMPDEST PUSH2 0x979 PUSH2 0x17C7 JUMP JUMPDEST PUSH1 0x60 PUSH0 PUSH1 0x2 PUSH0 CALLER PUSH20 0xFFFFFFFFFFFFFFFFFFFFFFFFFFFFFFFFFFFFFFFF AND PUSH20 0xFFFFFFFFFFFFFFFFFFFFFFFFFFFFFFFFFFFFFFFF AND DUP2 MSTORE PUSH1 0x20 ADD SWAP1 DUP2 MSTORE PUSH1 0x20 ADD PUSH0 KECCAK256 PUSH1 0x40 MLOAD DUP1 PUSH1 0xE0 ADD PUSH1 0x40 MSTORE SWAP1 DUP2 PUSH0 DUP3 ADD DUP1 SLOAD PUSH2 0x9D3 SWAP1 PUSH2 0x1F1E JUMP JUMPDEST DUP1 PUSH1 0x1F ADD PUSH1 0x20 DUP1 SWAP2 DIV MUL PUSH1 0x20 ADD PUSH1 0x40 MLOAD SWAP1 DUP2 ADD PUSH1 0x40 MSTORE DUP1 SWAP3 SWAP2 SWAP1 DUP2 DUP2 MSTORE PUSH1 0x20 ADD DUP3 DUP1 SLOAD PUSH2 0x9FF SWAP1 PUSH2 0x1F1E JUMP JUMPDEST DUP1 ISZERO PUSH2 0xA4A JUMPI DUP1 PUSH1 0x1F LT PUSH2 0xA21 JUMPI PUSH2 0x100 DUP1 DUP4 SLOAD DIV MUL DUP4 MSTORE SWAP2 PUSH1 0x20 ADD SWAP2 PUSH2 0xA4A JUMP JUMPDEST DUP3 ADD SWAP2 SWAP1 PUSH0 MSTORE PUSH1 0x20 PUSH0 KECCAK256 SWAP1 JUMPDEST DUP2 SLOAD DUP2 MSTORE SWAP1 PUSH1 0x1 ADD SWAP1 PUSH1 0x20 ADD DUP1 DUP4 GT PUSH2 0xA2D JUMPI DUP3 SWAP1 SUB PUSH1 0x1F AND DUP3 ADD SWAP2 JUMPDEST POP POP POP POP POP DUP2 MSTORE PUSH1 0x20 ADD PUSH1 0x1 DUP3 ADD PUSH0 SWAP1 SLOAD SWAP1 PUSH2 0x100 EXP SWAP1 DIV PUSH20 0xFFFFFFFFFFFFFFFFFFFFFFFFFFFFFFFFFFFFFFFF AND PUSH20 0xFFFFFFFFFFFFFFFFFFFFFFFFFFFFFFFFFFFFFFFF AND PUSH20 0xFFFFFFFFFFFFFFFFFFFFFFFFFFFFFFFFFFFFFFFF AND DUP2 MSTORE PUSH1 0x20 ADD PUSH1 0x2 DUP3 ADD DUP1 SLOAD PUSH2 0xAB8 SWAP1 PUSH2 0x1F1E JUMP JUMPDEST DUP1 PUSH1 0x1F ADD PUSH1 0x20 DUP1 SWAP2 DIV MUL PUSH1 0x20 ADD PUSH1 0x40 MLOAD SWAP1 DUP2 ADD PUSH1 0x40 MSTORE DUP1 SWAP3 SWAP2 SWAP1 DUP2 DUP2 MSTORE PUSH1 0x20 ADD DUP3 DUP1 SLOAD PUSH2 0xAE4 SWAP1 PUSH2 0x1F1E JUMP JUMPDEST DUP1 ISZERO PUSH2 0xB2F JUMPI DUP1 PUSH1 0x1F LT PUSH2 0xB06 JUMPI PUSH2 0x100 DUP1 DUP4 SLOAD DIV MUL DUP4 MSTORE SWAP2 PUSH1 0x20 ADD SWAP2 PUSH2 0xB2F JUMP JUMPDEST DUP3 ADD SWAP2 SWAP1 PUSH0 MSTORE PUSH1 0x20 PUSH0 KECCAK256 SWAP1 JUMPDEST DUP2 SLOAD DUP2 MSTORE SWAP1 PUSH1 0x1 ADD SWAP1 PUSH1 0x20 ADD DUP1 DUP4 GT PUSH2 0xB12 JUMPI DUP3 SWAP1 SUB PUSH1 0x1F AND DUP3 ADD SWAP2 JUMPDEST POP POP POP POP POP DUP2 MSTORE PUSH1 0x20 ADD PUSH1 0x3 DUP3 ADD DUP1 SLOAD PUSH2 0xB48 SWAP1 PUSH2 0x1F1E JUMP JUMPDEST DUP1 PUSH1 0x1F ADD PUSH1 0x20 DUP1 SWAP2 DIV MUL PUSH1 0x20 ADD PUSH1 0x40 MLOAD SWAP1 DUP2 ADD PUSH1 0x40 MSTORE DUP1 SWAP3 SWAP2 SWAP1 DUP2 DUP2 MSTORE PUSH1 0x20 ADD DUP3 DUP1 SLOAD PUSH2 0xB74 SWAP1 PUSH2 0x1F1E JUMP JUMPDEST DUP1 ISZERO PUSH2 0xBBF JUMPI DUP1 PUSH1 0x1F LT PUSH2 0xB96 JUMPI PUSH2 0x100 DUP1 DUP4 SLOAD DIV MUL DUP4 MSTORE SWAP2 PUSH1 0x20 ADD SWAP2 PUSH2 0xBBF JUMP JUMPDEST DUP3 ADD SWAP2 SWAP1 PUSH0 MSTORE PUSH1 0x20 PUSH0 KECCAK256 SWAP1 JUMPDEST DUP2 SLOAD DUP2 MSTORE SWAP1 PUSH1 0x1 ADD SWAP1 PUSH1 0x20 ADD DUP1 DUP4 GT PUSH2 0xBA2 JUMPI DUP3 SWAP1 SUB PUSH1 0x1F AND DUP3 ADD SWAP2 JUMPDEST POP POP POP POP POP DUP2 MSTORE PUSH1 0x20 ADD PUSH1 0x4 DUP3 ADD DUP1 SLOAD PUSH2 0xBD8 SWAP1 PUSH2 0x1F1E JUMP JUMPDEST DUP1 PUSH1 0x1F ADD PUSH1 0x20 DUP1 SWAP2 DIV MUL PUSH1 0x20 ADD PUSH1 0x40 MLOAD SWAP1 DUP2 ADD PUSH1 0x40 MSTORE DUP1 SWAP3 SWAP2 SWAP1 DUP2 DUP2 MSTORE PUSH1 0x20 ADD DUP3 DUP1 SLOAD PUSH2 0xC04 SWAP1 PUSH2 0x1F1E JUMP JUMPDEST DUP1 ISZERO PUSH2 0xC4F JUMPI DUP1 PUSH1 0x1F LT PUSH2 0xC26 JUMPI PUSH2 0x100 DUP1 DUP4 SLOAD DIV MUL DUP4 MSTORE SWAP2 PUSH1 0x20 ADD SWAP2 PUSH2 0xC4F JUMP JUMPDEST DUP3 ADD SWAP2 SWAP1 PUSH0 MSTORE PUSH1 0x20 PUSH0 KECCAK256 SWAP1 JUMPDEST DUP2 SLOAD DUP2 MSTORE SWAP1 PUSH1 0x1 ADD SWAP1 PUSH1 0x20 ADD DUP1 DUP4 GT PUSH2 0xC32 JUMPI DUP3 SWAP1 SUB PUSH1 0x1F AND DUP3 ADD SWAP2 JUMPDEST POP POP POP POP POP DUP2 MSTORE PUSH1 0x20 ADD PUSH1 0x5 DUP3 ADD DUP1 SLOAD PUSH2 0xC68 SWAP1 PUSH2 0x1F1E JUMP JUMPDEST DUP1 PUSH1 0x1F ADD PUSH1 0x20 DUP1 SWAP2 DIV MUL PUSH1 0x20 ADD PUSH1 0x40 MLOAD SWAP1 DUP2 ADD PUSH1 0x40 MSTORE DUP1 SWAP3 SWAP2 SWAP1 DUP2 DUP2 MSTORE PUSH1 0x20 ADD DUP3 DUP1 SLOAD PUSH2 0xC94 SWAP1 PUSH2 0x1F1E JUMP JUMPDEST DUP1 ISZERO PUSH2 0xCDF JUMPI DUP1 PUSH1 0x1F LT PUSH2 0xCB6 JUMPI PUSH2 0x100 DUP1 DUP4 SLOAD DIV MUL DUP4 MSTORE SWAP2 PUSH1 0x20 ADD SWAP2 PUSH2 0xCDF JUMP JUMPDEST DUP3 ADD SWAP2 SWAP1 PUSH0 MSTORE PUSH1 0x20 PUSH0 KECCAK256 SWAP1 JUMPDEST DUP2 SLOAD DUP2 MSTORE SWAP1 PUSH1 0x1 ADD SWAP1 PUSH1 0x20 ADD DUP1 DUP4 GT PUSH2 0xCC2 JUMPI DUP3 SWAP1 SUB PUSH1 0x1F AND DUP3 ADD SWAP2 JUMPDEST POP POP POP POP POP DUP2 MSTORE PUSH1 0x20 ADD PUSH1 0x6 DUP3 ADD DUP1 SLOAD PUSH2 0xCF8 SWAP1 PUSH2 0x1F1E JUMP JUMPDEST DUP1 PUSH1 0x1F ADD PUSH1 0x20 DUP1 SWAP2 DIV MUL PUSH1 0x20 ADD PUSH1 0x40 MLOAD SWAP1 DUP2 ADD PUSH1 0x40 MSTORE DUP1 SWAP3 SWAP2 SWAP1 DUP2 DUP2 MSTORE PUSH1 0x20 ADD DUP3 DUP1 SLOAD PUSH2 0xD24 SWAP1 PUSH2 0x1F1E JUMP JUMPDEST DUP1 ISZERO PUSH2 0xD6F JUMPI DUP1 PUSH1 0x1F LT PUSH2 0xD46 JUMPI PUSH2 0x100 DUP1 DUP4 SLOAD DIV MUL DUP4 MSTORE SWAP2 PUSH1 0x20 ADD SWAP2 PUSH2 0xD6F JUMP JUMPDEST DUP3 ADD SWAP2 SWAP1 PUSH0 MSTORE PUSH1 0x20 PUSH0 KECCAK256 SWAP1 JUMPDEST DUP2 SLOAD DUP2 MSTORE SWAP1 PUSH1 0x1 ADD SWAP1 PUSH1 0x20 ADD DUP1 DUP4 GT PUSH2 0xD52 JUMPI DUP3 SWAP1 SUB PUSH1 0x1F AND DUP3 ADD SWAP2 JUMPDEST POP POP POP POP POP DUP2 MSTORE POP POP SWAP1 POP PUSH0 PUSH20 0xFFFFFFFFFFFFFFFFFFFFFFFFFFFFFFFFFFFFFFFF AND DUP2 PUSH1 0x20 ADD MLOAD PUSH20 0xFFFFFFFFFFFFFFFFFFFFFFFFFFFFFFFFFFFFFFFF AND SUB PUSH2 0xDF2 JUMPI DUP1 PUSH1 0x40 MLOAD DUP1 PUSH1 0x40 ADD PUSH1 0x40 MSTORE DUP1 PUSH1 0xF DUP2 MSTORE PUSH1 0x20 ADD PUSH32 0x4E6F20706F6C69637920666F756E640000000000000000000000000000000000 DUP2 MSTORE POP SWAP3 POP SWAP3 POP POP PUSH2 0xEA7 JUMP JUMPDEST PUSH1 0x1 PUSH0 SWAP1 SLOAD SWAP1 PUSH2 0x100 EXP SWAP1 DIV PUSH20 0xFFFFFFFFFFFFFFFFFFFFFFFFFFFFFFFFFFFFFFFF AND PUSH20 0xFFFFFFFFFFFFFFFFFFFFFFFFFFFFFFFFFFFFFFFF AND CALLER PUSH20 0xFFFFFFFFFFFFFFFFFFFFFFFFFFFFFFFFFFFFFFFF AND SUB PUSH2 0xE6A JUMPI DUP1 PUSH1 0x40 MLOAD DUP1 PUSH1 0x60 ADD PUSH1 0x40 MSTORE DUP1 PUSH1 0x31 DUP2 MSTORE PUSH1 0x20 ADD PUSH2 0x2444 PUSH1 0x31 SWAP2 CODECOPY SWAP3 POP SWAP3 POP POP PUSH2 0xEA7 JUMP JUMPDEST DUP1 PUSH1 0x40 MLOAD DUP1 PUSH1 0x40 ADD PUSH1 0x40 MSTORE DUP1 PUSH1 0x1D DUP2 MSTORE PUSH1 0x20 ADD PUSH32 0x506F6C69637920726574726965766564207375636365737366756C6C79000000 DUP2 MSTORE POP SWAP3 POP SWAP3 POP POP JUMPDEST SWAP1 SWAP2 JUMP JUMPDEST PUSH1 0x1 PUSH0 SWAP1 SLOAD SWAP1 PUSH2 0x100 EXP SWAP1 DIV PUSH20 0xFFFFFFFFFFFFFFFFFFFFFFFFFFFFFFFFFFFFFFFF AND DUP2 JUMP JUMPDEST PUSH0 PUSH1 0x60 PUSH1 0x1 PUSH0 SWAP1 SLOAD SWAP1 PUSH2 0x100 EXP SWAP1 DIV PUSH20 0xFFFFFFFFFFFFFFFFFFFFFFFFFFFFFFFFFFFFFFFF AND PUSH20 0xFFFFFFFFFFFFFFFFFFFFFFFFFFFFFFFFFFFFFFFF AND CALLER PUSH20 0xFFFFFFFFFFFFFFFFFFFFFFFFFFFFFFFFFFFFFFFF AND EQ PUSH2 0xF4A JUMPI PUSH0 PUSH1 0x40 MLOAD DUP1 PUSH1 0x60 ADD PUSH1 0x40 MSTORE DUP1 PUSH1 0x2C DUP2 MSTORE PUSH1 0x20 ADD PUSH2 0x236A PUSH1 0x2C SWAP2 CODECOPY SWAP2 POP SWAP2 POP PUSH2 0x11C7 JUMP JUMPDEST PUSH0 PUSH20 0xFFFFFFFFFFFFFFFFFFFFFFFFFFFFFFFFFFFFFFFF AND DUP4 PUSH20 0xFFFFFFFFFFFFFFFFFFFFFFFFFFFFFFFFFFFFFFFF AND SUB PUSH2 0xFA0 JUMPI PUSH0 PUSH1 0x40 MLOAD DUP1 PUSH1 0x60 ADD PUSH1 0x40 MSTORE DUP1 PUSH1 0x26 DUP2 MSTORE PUSH1 0x20 ADD PUSH2 0x2323 PUSH1 0x26 SWAP2 CODECOPY SWAP2 POP SWAP2 POP PUSH2 0x11C7 JUMP JUMPDEST PUSH0 PUSH1 0x2 PUSH0 DUP6 PUSH20 0xFFFFFFFFFFFFFFFFFFFFFFFFFFFFFFFFFFFFFFFF AND PUSH20 0xFFFFFFFFFFFFFFFFFFFFFFFFFFFFFFFFFFFFFFFF AND DUP2 MSTORE PUSH1 0x20 ADD SWAP1 DUP2 MSTORE PUSH1 0x20 ADD PUSH0 KECCAK256 SWAP1 POP PUSH0 PUSH20 0xFFFFFFFFFFFFFFFFFFFFFFFFFFFFFFFFFFFFFFFF AND DUP2 PUSH1 0x1 ADD PUSH0 SWAP1 SLOAD SWAP1 PUSH2 0x100 EXP SWAP1 DIV PUSH20 0xFFFFFFFFFFFFFFFFFFFFFFFFFFFFFFFFFFFFFFFF AND PUSH20 0xFFFFFFFFFFFFFFFFFFFFFFFFFFFFFFFFFFFFFFFF AND SUB PUSH2 0x1077 JUMPI PUSH0 PUSH1 0x40 MLOAD DUP1 PUSH1 0x40 ADD PUSH1 0x40 MSTORE DUP1 PUSH1 0xF DUP2 MSTORE PUSH1 0x20 ADD PUSH32 0x4E6F20706F6C69637920666F756E640000000000000000000000000000000000 DUP2 MSTORE POP SWAP3 POP SWAP3 POP POP PUSH2 0x11C7 JUMP JUMPDEST PUSH32 0x8A6496E4880174E791C7333606CC9F71E4C6FC52A65CCC1008E0DDD3DD8D1DA5 DUP2 PUSH1 0x6 ADD PUSH1 0x40 MLOAD PUSH2 0x10A9 SWAP2 SWAP1 PUSH2 0x224C JUMP JUMPDEST PUSH1 0x40 MLOAD DUP1 SWAP2 SUB SWAP1 KECCAK256 EQ PUSH2 0x10F7 JUMPI PUSH0 PUSH1 0x40 MLOAD DUP1 PUSH1 0x40 ADD PUSH1 0x40 MSTORE DUP1 PUSH1 0x19 DUP2 MSTORE PUSH1 0x20 ADD PUSH32 0x496E64656D6E69747920616C726561647920636C61696D656400000000000000 DUP2 MSTORE POP SWAP3 POP SWAP3 POP POP PUSH2 0x11C7 JUMP JUMPDEST DUP4 PUSH20 0xFFFFFFFFFFFFFFFFFFFFFFFFFFFFFFFFFFFFFFFF AND PUSH2 0x8FC PUSH7 0x470DE4DF820000 SWAP1 DUP2 ISZERO MUL SWAP1 PUSH1 0x40 MLOAD PUSH0 PUSH1 0x40 MLOAD DUP1 DUP4 SUB DUP2 DUP6 DUP9 DUP9 CALL SWAP4 POP POP POP POP ISZERO DUP1 ISZERO PUSH2 0x1141 JUMPI RETURNDATASIZE PUSH0 DUP1 RETURNDATACOPY RETURNDATASIZE PUSH0 REVERT JUMPDEST POP PUSH1 0x40 MLOAD DUP1 PUSH1 0x40 ADD PUSH1 0x40 MSTORE DUP1 PUSH1 0x7 DUP2 MSTORE PUSH1 0x20 ADD PUSH32 0x636C61696D656400000000000000000000000000000000000000000000000000 DUP2 MSTORE POP DUP2 PUSH1 0x6 ADD SWAP1 DUP2 PUSH2 0x1188 SWAP2 SWAP1 PUSH2 0x20EB JUMP JUMPDEST POP PUSH1 0x1 PUSH1 0x40 MLOAD DUP1 PUSH1 0x40 ADD PUSH1 0x40 MSTORE DUP1 PUSH1 0x1B DUP2 MSTORE PUSH1 0x20 ADD PUSH32 0x496E64656D6E697479207375636365737366756C6C7920706169640000000000 DUP2 MSTORE POP SWAP3 POP SWAP3 POP POP JUMPDEST SWAP2 POP SWAP2 JUMP JUMPDEST PUSH1 0x60 PUSH1 0x40 MLOAD DUP1 PUSH1 0xA0 ADD PUSH1 0x40 MSTORE DUP1 PUSH1 0x66 DUP2 MSTORE PUSH1 0x20 ADD PUSH2 0x249B PUSH1 0x66 SWAP2 CODECOPY SWAP1 POP SWAP1 JUMP JUMPDEST PUSH1 0x60 DUP1 PUSH1 0x1 PUSH0 SWAP1 SLOAD SWAP1 PUSH2 0x100 EXP SWAP1 DIV PUSH20 0xFFFFFFFFFFFFFFFFFFFFFFFFFFFFFFFFFFFFFFFF AND PUSH20 0xFFFFFFFFFFFFFFFFFFFFFFFFFFFFFFFFFFFFFFFF AND CALLER PUSH20 0xFFFFFFFFFFFFFFFFFFFFFFFFFFFFFFFFFFFFFFFF AND EQ PUSH2 0x1269 JUMPI PUSH1 0x60 DUP1 PUSH1 0x40 MLOAD DUP1 PUSH1 0x60 ADD PUSH1 0x40 MSTORE DUP1 PUSH1 0x21 DUP2 MSTORE PUSH1 0x20 ADD PUSH2 0x2349 PUSH1 0x21 SWAP2 CODECOPY SWAP3 POP SWAP3 POP POP PUSH2 0x1757 JUMP JUMPDEST PUSH0 PUSH1 0x3 DUP1 SLOAD SWAP1 POP PUSH8 0xFFFFFFFFFFFFFFFF DUP2 GT ISZERO PUSH2 0x1289 JUMPI PUSH2 0x1288 PUSH2 0x1EC4 JUMP JUMPDEST JUMPDEST PUSH1 0x40 MLOAD SWAP1 DUP1 DUP3 MSTORE DUP1 PUSH1 0x20 MUL PUSH1 0x20 ADD DUP3 ADD PUSH1 0x40 MSTORE DUP1 ISZERO PUSH2 0x12C2 JUMPI DUP2 PUSH1 0x20 ADD JUMPDEST PUSH2 0x12AF PUSH2 0x17C7 JUMP JUMPDEST DUP2 MSTORE PUSH1 0x20 ADD SWAP1 PUSH1 0x1 SWAP1 SUB SWAP1 DUP2 PUSH2 0x12A7 JUMPI SWAP1 POP JUMPDEST POP SWAP1 POP PUSH0 JUMPDEST PUSH1 0x3 DUP1 SLOAD SWAP1 POP DUP2 LT ISZERO PUSH2 0x1736 JUMPI PUSH1 0x2 PUSH0 PUSH1 0x3 DUP4 DUP2 SLOAD DUP2 LT PUSH2 0x12EB JUMPI PUSH2 0x12EA PUSH2 0x1E97 JUMP JUMPDEST JUMPDEST SWAP1 PUSH0 MSTORE PUSH1 0x20 PUSH0 KECCAK256 ADD PUSH0 SWAP1 SLOAD SWAP1 PUSH2 0x100 EXP SWAP1 DIV PUSH20 0xFFFFFFFFFFFFFFFFFFFFFFFFFFFFFFFFFFFFFFFF AND PUSH20 0xFFFFFFFFFFFFFFFFFFFFFFFFFFFFFFFFFFFFFFFF AND PUSH20 0xFFFFFFFFFFFFFFFFFFFFFFFFFFFFFFFFFFFFFFFF AND DUP2 MSTORE PUSH1 0x20 ADD SWAP1 DUP2 MSTORE PUSH1 0x20 ADD PUSH0 KECCAK256 PUSH1 0x40 MLOAD DUP1 PUSH1 0xE0 ADD PUSH1 0x40 MSTORE SWAP1 DUP2 PUSH0 DUP3 ADD DUP1 SLOAD PUSH2 0x1366 SWAP1 PUSH2 0x1F1E JUMP JUMPDEST DUP1 PUSH1 0x1F ADD PUSH1 0x20 DUP1 SWAP2 DIV MUL PUSH1 0x20 ADD PUSH1 0x40 MLOAD SWAP1 DUP2 ADD PUSH1 0x40 MSTORE DUP1 SWAP3 SWAP2 SWAP1 DUP2 DUP2 MSTORE PUSH1 0x20 ADD DUP3 DUP1 SLOAD PUSH2 0x1392 SWAP1 PUSH2 0x1F1E JUMP JUMPDEST DUP1 ISZERO PUSH2 0x13DD JUMPI DUP1 PUSH1 0x1F LT PUSH2 0x13B4 JUMPI PUSH2 0x100 DUP1 DUP4 SLOAD DIV MUL DUP4 MSTORE SWAP2 PUSH1 0x20 ADD SWAP2 PUSH2 0x13DD JUMP JUMPDEST DUP3 ADD SWAP2 SWAP1 PUSH0 MSTORE PUSH1 0x20 PUSH0 KECCAK256 SWAP1 JUMPDEST DUP2 SLOAD DUP2 MSTORE SWAP1 PUSH1 0x1 ADD SWAP1 PUSH1 0x20 ADD DUP1 DUP4 GT PUSH2 0x13C0 JUMPI DUP3 SWAP1 SUB PUSH1 0x1F AND DUP3 ADD SWAP2 JUMPDEST POP POP POP POP POP DUP2 MSTORE PUSH1 0x20 ADD PUSH1 0x1 DUP3 ADD PUSH0 SWAP1 SLOAD SWAP1 PUSH2 0x100 EXP SWAP1 DIV PUSH20 0xFFFFFFFFFFFFFFFFFFFFFFFFFFFFFFFFFFFFFFFF AND PUSH20 0xFFFFFFFFFFFFFFFFFFFFFFFFFFFFFFFFFFFFFFFF AND PUSH20 0xFFFFFFFFFFFFFFFFFFFFFFFFFFFFFFFFFFFFFFFF AND DUP2 MSTORE PUSH1 0x20 ADD PUSH1 0x2 DUP3 ADD DUP1 SLOAD PUSH2 0x144B SWAP1 PUSH2 0x1F1E JUMP JUMPDEST DUP1 PUSH1 0x1F ADD PUSH1 0x20 DUP1 SWAP2 DIV MUL PUSH1 0x20 ADD PUSH1 0x40 MLOAD SWAP1 DUP2 ADD PUSH1 0x40 MSTORE DUP1 SWAP3 SWAP2 SWAP1 DUP2 DUP2 MSTORE PUSH1 0x20 ADD DUP3 DUP1 SLOAD PUSH2 0x1477 SWAP1 PUSH2 0x1F1E JUMP JUMPDEST DUP1 ISZERO PUSH2 0x14C2 JUMPI DUP1 PUSH1 0x1F LT PUSH2 0x1499 JUMPI PUSH2 0x100 DUP1 DUP4 SLOAD DIV MUL DUP4 MSTORE SWAP2 PUSH1 0x20 ADD SWAP2 PUSH2 0x14C2 JUMP JUMPDEST DUP3 ADD SWAP2 SWAP1 PUSH0 MSTORE PUSH1 0x20 PUSH0 KECCAK256 SWAP1 JUMPDEST DUP2 SLOAD DUP2 MSTORE SWAP1 PUSH1 0x1 ADD SWAP1 PUSH1 0x20 ADD DUP1 DUP4 GT PUSH2 0x14A5 JUMPI DUP3 SWAP1 SUB PUSH1 0x1F AND DUP3 ADD SWAP2 JUMPDEST POP POP POP POP POP DUP2 MSTORE PUSH1 0x20 ADD PUSH1 0x3 DUP3 ADD DUP1 SLOAD PUSH2 0x14DB SWAP1 PUSH2 0x1F1E JUMP JUMPDEST DUP1 PUSH1 0x1F ADD PUSH1 0x20 DUP1 SWAP2 DIV MUL PUSH1 0x20 ADD PUSH1 0x40 MLOAD SWAP1 DUP2 ADD PUSH1 0x40 MSTORE DUP1 SWAP3 SWAP2 SWAP1 DUP2 DUP2 MSTORE PUSH1 0x20 ADD DUP3 DUP1 SLOAD PUSH2 0x1507 SWAP1 PUSH2 0x1F1E JUMP JUMPDEST DUP1 ISZERO PUSH2 0x1552 JUMPI DUP1 PUSH1 0x1F LT PUSH2 0x1529 JUMPI PUSH2 0x100 DUP1 DUP4 SLOAD DIV MUL DUP4 MSTORE SWAP2 PUSH1 0x20 ADD SWAP2 PUSH2 0x1552 JUMP JUMPDEST DUP3 ADD SWAP2 SWAP1 PUSH0 MSTORE PUSH1 0x20 PUSH0 KECCAK256 SWAP1 JUMPDEST DUP2 SLOAD DUP2 MSTORE SWAP1 PUSH1 0x1 ADD SWAP1 PUSH1 0x20 ADD DUP1 DUP4 GT PUSH2 0x1535 JUMPI DUP3 SWAP1 SUB PUSH1 0x1F AND DUP3 ADD SWAP2 JUMPDEST POP POP POP POP POP DUP2 MSTORE PUSH1 0x20 ADD PUSH1 0x4 DUP3 ADD DUP1 SLOAD PUSH2 0x156B SWAP1 PUSH2 0x1F1E JUMP JUMPDEST DUP1 PUSH1 0x1F ADD PUSH1 0x20 DUP1 SWAP2 DIV MUL PUSH1 0x20 ADD PUSH1 0x40 MLOAD SWAP1 DUP2 ADD PUSH1 0x40 MSTORE DUP1 SWAP3 SWAP2 SWAP1 DUP2 DUP2 MSTORE PUSH1 0x20 ADD DUP3 DUP1 SLOAD PUSH2 0x1597 SWAP1 PUSH2 0x1F1E JUMP JUMPDEST DUP1 ISZERO PUSH2 0x15E2 JUMPI DUP1 PUSH1 0x1F LT PUSH2 0x15B9 JUMPI PUSH2 0x100 DUP1 DUP4 SLOAD DIV MUL DUP4 MSTORE SWAP2 PUSH1 0x20 ADD SWAP2 PUSH2 0x15E2 JUMP JUMPDEST DUP3 ADD SWAP2 SWAP1 PUSH0 MSTORE PUSH1 0x20 PUSH0 KECCAK256 SWAP1 JUMPDEST DUP2 SLOAD DUP2 MSTORE SWAP1 PUSH1 0x1 ADD SWAP1 PUSH1 0x20 ADD DUP1 DUP4 GT PUSH2 0x15C5 JUMPI DUP3 SWAP1 SUB PUSH1 0x1F AND DUP3 ADD SWAP2 JUMPDEST POP POP POP POP POP DUP2 MSTORE PUSH1 0x20 ADD PUSH1 0x5 DUP3 ADD DUP1 SLOAD PUSH2 0x15FB SWAP1 PUSH2 0x1F1E JUMP JUMPDEST DUP1 PUSH1 0x1F ADD PUSH1 0x20 DUP1 SWAP2 DIV MUL PUSH1 0x20 ADD PUSH1 0x40 MLOAD SWAP1 DUP2 ADD PUSH1 0x40 MSTORE DUP1 SWAP3 SWAP2 SWAP1 DUP2 DUP2 MSTORE PUSH1 0x20 ADD DUP3 DUP1 SLOAD PUSH2 0x1627 SWAP1 PUSH2 0x1F1E JUMP JUMPDEST DUP1 ISZERO PUSH2 0x1672 JUMPI DUP1 PUSH1 0x1F LT PUSH2 0x1649 JUMPI PUSH2 0x100 DUP1 DUP4 SLOAD DIV MUL DUP4 MSTORE SWAP2 PUSH1 0x20 ADD SWAP2 PUSH2 0x1672 JUMP JUMPDEST DUP3 ADD SWAP2 SWAP1 PUSH0 MSTORE PUSH1 0x20 PUSH0 KECCAK256 SWAP1 JUMPDEST DUP2 SLOAD DUP2 MSTORE SWAP1 PUSH1 0x1 ADD SWAP1 PUSH1 0x20 ADD DUP1 DUP4 GT PUSH2 0x1655 JUMPI DUP3 SWAP1 SUB PUSH1 0x1F AND DUP3 ADD SWAP2 JUMPDEST POP POP POP POP POP DUP2 MSTORE PUSH1 0x20 ADD PUSH1 0x6 DUP3 ADD DUP1 SLOAD PUSH2 0x168B SWAP1 PUSH2 0x1F1E JUMP JUMPDEST DUP1 PUSH1 0x1F ADD PUSH1 0x20 DUP1 SWAP2 DIV MUL PUSH1 0x20 ADD PUSH1 0x40 MLOAD SWAP1 DUP2 ADD PUSH1 0x40 MSTORE DUP1 SWAP3 SWAP2 SWAP1 DUP2 DUP2 MSTORE PUSH1 0x20 ADD DUP3 DUP1 SLOAD PUSH2 0x16B7 SWAP1 PUSH2 0x1F1E JUMP JUMPDEST DUP1 ISZERO PUSH2 0x1702 JUMPI DUP1 PUSH1 0x1F LT PUSH2 0x16D9 JUMPI PUSH2 0x100 DUP1 DUP4 SLOAD DIV MUL DUP4 MSTORE SWAP2 PUSH1 0x20 ADD SWAP2 PUSH2 0x1702 JUMP JUMPDEST DUP3 ADD SWAP2 SWAP1 PUSH0 MSTORE PUSH1 0x20 PUSH0 KECCAK256 SWAP1 JUMPDEST DUP2 SLOAD DUP2 MSTORE SWAP1 PUSH1 0x1 ADD SWAP1 PUSH1 0x20 ADD DUP1 DUP4 GT PUSH2 0x16E5 JUMPI DUP3 SWAP1 SUB PUSH1 0x1F AND DUP3 ADD SWAP2 JUMPDEST POP POP POP POP POP DUP2 MSTORE POP POP DUP3 DUP3 DUP2 MLOAD DUP2 LT PUSH2 0x171E JUMPI PUSH2 0x171D PUSH2 0x1E97 JUMP JUMPDEST JUMPDEST PUSH1 0x20 MUL PUSH1 0x20 ADD ADD DUP2 SWAP1 MSTORE POP DUP1 DUP1 PUSH1 0x1 ADD SWAP2 POP POP PUSH2 0x12C7 JUMP JUMPDEST POP DUP1 PUSH1 0x40 MLOAD DUP1 PUSH1 0x60 ADD PUSH1 0x40 MSTORE DUP1 PUSH1 0x23 DUP2 MSTORE PUSH1 0x20 ADD PUSH2 0x2396 PUSH1 0x23 SWAP2 CODECOPY SWAP3 POP SWAP3 POP POP JUMPDEST SWAP1 SWAP2 JUMP JUMPDEST PUSH7 0x470DE4DF820000 DUP2 JUMP JUMPDEST PUSH7 0x2386F26FC10000 DUP2 JUMP JUMPDEST PUSH1 0x2 PUSH0 SLOAD SUB PUSH2 0x17B5 JUMPI PUSH1 0x40 MLOAD PUSH32 0x8C379A000000000000000000000000000000000000000000000000000000000 DUP2 MSTORE PUSH1 0x4 ADD PUSH2 0x17AC SWAP1 PUSH2 0x22AC JUMP JUMPDEST PUSH1 0x40 MLOAD DUP1 SWAP2 SUB SWAP1 REVERT JUMPDEST PUSH1 0x2 PUSH0 DUP2 SWAP1 SSTORE POP JUMP JUMPDEST PUSH1 0x1 PUSH0 DUP2 SWAP1 SSTORE POP JUMP JUMPDEST PUSH1 0x40 MLOAD DUP1 PUSH1 0xE0 ADD PUSH1 0x40 MSTORE DUP1 PUSH1 0x60 DUP2 MSTORE PUSH1 0x20 ADD PUSH0 PUSH20 0xFFFFFFFFFFFFFFFFFFFFFFFFFFFFFFFFFFFFFFFF AND DUP2 MSTORE PUSH1 0x20 ADD PUSH1 0x60 DUP2 MSTORE PUSH1 0x20 ADD PUSH1 0x60 DUP2 MSTORE PUSH1 0x20 ADD PUSH1 0x60 DUP2 MSTORE PUSH1 0x20 ADD PUSH1 0x60 DUP2 MSTORE PUSH1 0x20 ADD PUSH1 0x60 DUP2 MSTORE POP SWAP1 JUMP JUMPDEST PUSH0 DUP2 SWAP1 POP SWAP2 SWAP1 POP JUMP JUMPDEST PUSH2 0x182B DUP2 PUSH2 0x1819 JUMP JUMPDEST DUP3 MSTORE POP POP JUMP JUMPDEST PUSH0 PUSH1 0x20 DUP3 ADD SWAP1 POP PUSH2 0x1844 PUSH0 DUP4 ADD DUP5 PUSH2 0x1822 JUMP JUMPDEST SWAP3 SWAP2 POP POP JUMP JUMPDEST PUSH0 DUP1 REVERT JUMPDEST PUSH0 DUP1 REVERT JUMPDEST PUSH0 DUP1 REVERT JUMPDEST PUSH0 DUP1 REVERT JUMPDEST PUSH0 DUP1 REVERT JUMPDEST PUSH0 DUP1 DUP4 PUSH1 0x1F DUP5 ADD SLT PUSH2 0x1873 JUMPI PUSH2 0x1872 PUSH2 0x1852 JUMP JUMPDEST JUMPDEST DUP3 CALLDATALOAD SWAP1 POP PUSH8 0xFFFFFFFFFFFFFFFF DUP2 GT ISZERO PUSH2 0x1890 JUMPI PUSH2 0x188F PUSH2 0x1856 JUMP JUMPDEST JUMPDEST PUSH1 0x20 DUP4 ADD SWAP2 POP DUP4 PUSH1 0x1 DUP3 MUL DUP4 ADD GT ISZERO PUSH2 0x18AC JUMPI PUSH2 0x18AB PUSH2 0x185A JUMP JUMPDEST JUMPDEST SWAP3 POP SWAP3 SWAP1 POP JUMP JUMPDEST PUSH0 DUP1 PUSH0 DUP1 PUSH0 DUP1 PUSH0 DUP1 PUSH0 DUP1 PUSH1 0xA0 DUP12 DUP14 SUB SLT ISZERO PUSH2 0x18D1 JUMPI PUSH2 0x18D0 PUSH2 0x184A JUMP JUMPDEST JUMPDEST PUSH0 DUP12 ADD CALLDATALOAD PUSH8 0xFFFFFFFFFFFFFFFF DUP2 GT ISZERO PUSH2 0x18EE JUMPI PUSH2 0x18ED PUSH2 0x184E JUMP JUMPDEST JUMPDEST PUSH2 0x18FA DUP14 DUP3 DUP15 ADD PUSH2 0x185E JUMP JUMPDEST SWAP11 POP SWAP11 POP POP PUSH1 0x20 DUP12 ADD CALLDATALOAD PUSH8 0xFFFFFFFFFFFFFFFF DUP2 GT ISZERO PUSH2 0x191D JUMPI PUSH2 0x191C PUSH2 0x184E JUMP JUMPDEST JUMPDEST PUSH2 0x1929 DUP14 DUP3 DUP15 ADD PUSH2 0x185E JUMP JUMPDEST SWAP9 POP SWAP9 POP POP PUSH1 0x40 DUP12 ADD CALLDATALOAD PUSH8 0xFFFFFFFFFFFFFFFF DUP2 GT ISZERO PUSH2 0x194C JUMPI PUSH2 0x194B PUSH2 0x184E JUMP JUMPDEST JUMPDEST PUSH2 0x1958 DUP14 DUP3 DUP15 ADD PUSH2 0x185E JUMP JUMPDEST SWAP7 POP SWAP7 POP POP PUSH1 0x60 DUP12 ADD CALLDATALOAD PUSH8 0xFFFFFFFFFFFFFFFF DUP2 GT ISZERO PUSH2 0x197B JUMPI PUSH2 0x197A PUSH2 0x184E JUMP JUMPDEST JUMPDEST PUSH2 0x1987 DUP14 DUP3 DUP15 ADD PUSH2 0x185E JUMP JUMPDEST SWAP5 POP SWAP5 POP POP PUSH1 0x80 DUP12 ADD CALLDATALOAD PUSH8 0xFFFFFFFFFFFFFFFF DUP2 GT ISZERO PUSH2 0x19AA JUMPI PUSH2 0x19A9 PUSH2 0x184E JUMP JUMPDEST JUMPDEST PUSH2 0x19B6 DUP14 DUP3 DUP15 ADD PUSH2 0x185E JUMP JUMPDEST SWAP3 POP SWAP3 POP POP SWAP3 SWAP6 SWAP9 SWAP12 SWAP2 SWAP5 SWAP8 SWAP11 POP SWAP3 SWAP6 SWAP9 POP JUMP JUMPDEST PUSH0 DUP2 ISZERO ISZERO SWAP1 POP SWAP2 SWAP1 POP JUMP JUMPDEST PUSH2 0x19DE DUP2 PUSH2 0x19CA JUMP JUMPDEST DUP3 MSTORE POP POP JUMP JUMPDEST PUSH0 DUP2 MLOAD SWAP1 POP SWAP2 SWAP1 POP JUMP JUMPDEST PUSH0 DUP3 DUP3 MSTORE PUSH1 0x20 DUP3 ADD SWAP1 POP SWAP3 SWAP2 POP POP JUMP JUMPDEST DUP3 DUP2 DUP4 MCOPY PUSH0 DUP4 DUP4 ADD MSTORE POP POP POP JUMP JUMPDEST PUSH0 PUSH1 0x1F NOT PUSH1 0x1F DUP4 ADD AND SWAP1 POP SWAP2 SWAP1 POP JUMP JUMPDEST PUSH0 PUSH2 0x1A26 DUP3 PUSH2 0x19E4 JUMP JUMPDEST PUSH2 0x1A30 DUP2 DUP6 PUSH2 0x19EE JUMP JUMPDEST SWAP4 POP PUSH2 0x1A40 DUP2 DUP6 PUSH1 0x20 DUP7 ADD PUSH2 0x19FE JUMP JUMPDEST PUSH2 0x1A49 DUP2 PUSH2 0x1A0C JUMP JUMPDEST DUP5 ADD SWAP2 POP POP SWAP3 SWAP2 POP POP JUMP JUMPDEST PUSH0 PUSH1 0x40 DUP3 ADD SWAP1 POP PUSH2 0x1A67 PUSH0 DUP4 ADD DUP6 PUSH2 0x19D5 JUMP JUMPDEST DUP2 DUP2 SUB PUSH1 0x20 DUP4 ADD MSTORE PUSH2 0x1A79 DUP2 DUP5 PUSH2 0x1A1C JUMP JUMPDEST SWAP1 POP SWAP4 SWAP3 POP POP POP JUMP JUMPDEST PUSH0 DUP3 DUP3 MSTORE PUSH1 0x20 DUP3 ADD SWAP1 POP SWAP3 SWAP2 POP POP JUMP JUMPDEST PUSH0 PUSH2 0x1A9C DUP3 PUSH2 0x19E4 JUMP JUMPDEST PUSH2 0x1AA6 DUP2 DUP6 PUSH2 0x1A82 JUMP JUMPDEST SWAP4 POP PUSH2 0x1AB6 DUP2 DUP6 PUSH1 0x20 DUP7 ADD PUSH2 0x19FE JUMP JUMPDEST PUSH2 0x1ABF DUP2 PUSH2 0x1A0C JUMP JUMPDEST DUP5 ADD SWAP2 POP POP SWAP3 SWAP2 POP POP JUMP JUMPDEST PUSH0 PUSH20 0xFFFFFFFFFFFFFFFFFFFFFFFFFFFFFFFFFFFFFFFF DUP3 AND SWAP1 POP SWAP2 SWAP1 POP JUMP JUMPDEST PUSH0 PUSH2 0x1AF3 DUP3 PUSH2 0x1ACA JUMP JUMPDEST SWAP1 POP SWAP2 SWAP1 POP JUMP JUMPDEST PUSH2 0x1B03 DUP2 PUSH2 0x1AE9 JUMP JUMPDEST DUP3 MSTORE POP POP JUMP JUMPDEST PUSH0 PUSH1 0xE0 DUP4 ADD PUSH0 DUP4 ADD MLOAD DUP5 DUP3 SUB PUSH0 DUP7 ADD MSTORE PUSH2 0x1B23 DUP3 DUP3 PUSH2 0x1A92 JUMP JUMPDEST SWAP2 POP POP PUSH1 0x20 DUP4 ADD MLOAD PUSH2 0x1B38 PUSH1 0x20 DUP7 ADD DUP3 PUSH2 0x1AFA JUMP JUMPDEST POP PUSH1 0x40 DUP4 ADD MLOAD DUP5 DUP3 SUB PUSH1 0x40 DUP7 ADD MSTORE PUSH2 0x1B50 DUP3 DUP3 PUSH2 0x1A92 JUMP JUMPDEST SWAP2 POP POP PUSH1 0x60 DUP4 ADD MLOAD DUP5 DUP3 SUB PUSH1 0x60 DUP7 ADD MSTORE PUSH2 0x1B6A DUP3 DUP3 PUSH2 0x1A92 JUMP JUMPDEST SWAP2 POP POP PUSH1 0x80 DUP4 ADD MLOAD DUP5 DUP3 SUB PUSH1 0x80 DUP7 ADD MSTORE PUSH2 0x1B84 DUP3 DUP3 PUSH2 0x1A92 JUMP JUMPDEST SWAP2 POP POP PUSH1 0xA0 DUP4 ADD MLOAD DUP5 DUP3 SUB PUSH1 0xA0 DUP7 ADD MSTORE PUSH2 0x1B9E DUP3 DUP3 PUSH2 0x1A92 JUMP JUMPDEST SWAP2 POP POP PUSH1 0xC0 DUP4 ADD MLOAD DUP5 DUP3 SUB PUSH1 0xC0 DUP7 ADD MSTORE PUSH2 0x1BB8 DUP3 DUP3 PUSH2 0x1A92 JUMP JUMPDEST SWAP2 POP POP DUP1 SWAP2 POP POP SWAP3 SWAP2 POP POP JUMP JUMPDEST PUSH0 PUSH1 0x40 DUP3 ADD SWAP1 POP DUP2 DUP2 SUB PUSH0 DUP4 ADD MSTORE PUSH2 0x1BDD DUP2 DUP6 PUSH2 0x1B09 JUMP JUMPDEST SWAP1 POP DUP2 DUP2 SUB PUSH1 0x20 DUP4 ADD MSTORE PUSH2 0x1BF1 DUP2 DUP5 PUSH2 0x1A1C JUMP JUMPDEST SWAP1 POP SWAP4 SWAP3 POP POP POP JUMP JUMPDEST PUSH2 0x1C03 DUP2 PUSH2 0x1AE9 JUMP JUMPDEST DUP3 MSTORE POP POP JUMP JUMPDEST PUSH0 PUSH1 0x20 DUP3 ADD SWAP1 POP PUSH2 0x1C1C PUSH0 DUP4 ADD DUP5 PUSH2 0x1BFA JUMP JUMPDEST SWAP3 SWAP2 POP POP JUMP JUMPDEST PUSH2 0x1C2B DUP2 PUSH2 0x1AE9 JUMP JUMPDEST DUP2 EQ PUSH2 0x1C35 JUMPI PUSH0 DUP1 REVERT JUMPDEST POP JUMP JUMPDEST PUSH0 DUP2 CALLDATALOAD SWAP1 POP PUSH2 0x1C46 DUP2 PUSH2 0x1C22 JUMP JUMPDEST SWAP3 SWAP2 POP POP JUMP JUMPDEST PUSH0 PUSH1 0x20 DUP3 DUP5 SUB SLT ISZERO PUSH2 0x1C61 JUMPI PUSH2 0x1C60 PUSH2 0x184A JUMP JUMPDEST JUMPDEST PUSH0 PUSH2 0x1C6E DUP5 DUP3 DUP6 ADD PUSH2 0x1C38 JUMP JUMPDEST SWAP2 POP POP SWAP3 SWAP2 POP POP JUMP JUMPDEST PUSH0 PUSH1 0x20 DUP3 ADD SWAP1 POP DUP2 DUP2 SUB PUSH0 DUP4 ADD MSTORE PUSH2 0x1C8F DUP2 DUP5 PUSH2 0x1A1C JUMP JUMPDEST SWAP1 POP SWAP3 SWAP2 POP POP JUMP JUMPDEST PUSH0 DUP2 MLOAD SWAP1 POP SWAP2 SWAP1 POP JUMP JUMPDEST PUSH0 DUP3 DUP3 MSTORE PUSH1 0x20 DUP3 ADD SWAP1 POP SWAP3 SWAP2 POP POP JUMP JUMPDEST PUSH0 DUP2 SWAP1 POP PUSH1 0x20 DUP3 ADD SWAP1 POP SWAP2 SWAP1 POP JUMP JUMPDEST PUSH0 PUSH1 0xE0 DUP4 ADD PUSH0 DUP4 ADD MLOAD DUP5 DUP3 SUB PUSH0 DUP7 ADD MSTORE PUSH2 0x1CDA DUP3 DUP3 PUSH2 0x1A92 JUMP JUMPDEST SWAP2 POP POP PUSH1 0x20 DUP4 ADD MLOAD PUSH2 0x1CEF PUSH1 0x20 DUP7 ADD DUP3 PUSH2 0x1AFA JUMP JUMPDEST POP PUSH1 0x40 DUP4 ADD MLOAD DUP5 DUP3 SUB PUSH1 0x40 DUP7 ADD MSTORE PUSH2 0x1D07 DUP3 DUP3 PUSH2 0x1A92 JUMP JUMPDEST SWAP2 POP POP PUSH1 0x60 DUP4 ADD MLOAD DUP5 DUP3 SUB PUSH1 0x60 DUP7 ADD MSTORE PUSH2 0x1D21 DUP3 DUP3 PUSH2 0x1A92 JUMP JUMPDEST SWAP2 POP POP PUSH1 0x80 DUP4 ADD MLOAD DUP5 DUP3 SUB PUSH1 0x80 DUP7 ADD MSTORE PUSH2 0x1D3B DUP3 DUP3 PUSH2 0x1A92 JUMP JUMPDEST SWAP2 POP POP PUSH1 0xA0 DUP4 ADD MLOAD DUP5 DUP3 SUB PUSH1 0xA0 DUP7 ADD MSTORE PUSH2 0x1D55 DUP3 DUP3 PUSH2 0x1A92 JUMP JUMPDEST SWAP2 POP POP PUSH1 0xC0 DUP4 ADD MLOAD DUP5 DUP3 SUB PUSH1 0xC0 DUP7 ADD MSTORE PUSH2 0x1D6F DUP3 DUP3 PUSH2 0x1A92 JUMP JUMPDEST SWAP2 POP POP DUP1 SWAP2 POP POP SWAP3 SWAP2 POP POP JUMP JUMPDEST PUSH0 PUSH2 0x1D87 DUP4 DUP4 PUSH2 0x1CC0 JUMP JUMPDEST SWAP1 POP SWAP3 SWAP2 POP POP JUMP JUMPDEST PUSH0 PUSH1 0x20 DUP3 ADD SWAP1 POP SWAP2 SWAP1 POP JUMP JUMPDEST PUSH0 PUSH2 0x1DA5 DUP3 PUSH2 0x1C97 JUMP JUMPDEST PUSH2 0x1DAF DUP2 DUP6 PUSH2 0x1CA1 JUMP JUMPDEST SWAP4 POP DUP4 PUSH1 0x20 DUP3 MUL DUP6 ADD PUSH2 0x1DC1 DUP6 PUSH2 0x1CB1 JUMP JUMPDEST DUP1 PUSH0 JUMPDEST DUP6 DUP2 LT ISZERO PUSH2 0x1DFC JUMPI DUP5 DUP5 SUB DUP10 MSTORE DUP2 MLOAD PUSH2 0x1DDD DUP6 DUP3 PUSH2 0x1D7C JUMP JUMPDEST SWAP5 POP PUSH2 0x1DE8 DUP4 PUSH2 0x1D8F JUMP JUMPDEST SWAP3 POP PUSH1 0x20 DUP11 ADD SWAP10 POP POP PUSH1 0x1 DUP2 ADD SWAP1 POP PUSH2 0x1DC4 JUMP JUMPDEST POP DUP3 SWAP8 POP DUP8 SWAP6 POP POP POP POP POP POP SWAP3 SWAP2 POP POP JUMP JUMPDEST PUSH0 PUSH1 0x40 DUP3 ADD SWAP1 POP DUP2 DUP2 SUB PUSH0 DUP4 ADD MSTORE PUSH2 0x1E26 DUP2 DUP6 PUSH2 0x1D9B JUMP JUMPDEST SWAP1 POP DUP2 DUP2 SUB PUSH1 0x20 DUP4 ADD MSTORE PUSH2 0x1E3A DUP2 DUP5 PUSH2 0x1A1C JUMP JUMPDEST SWAP1 POP SWAP4 SWAP3 POP POP POP JUMP JUMPDEST PUSH0 DUP2 SWAP1 POP SWAP3 SWAP2 POP POP JUMP JUMPDEST DUP3 DUP2 DUP4 CALLDATACOPY PUSH0 DUP4 DUP4 ADD MSTORE POP POP POP JUMP JUMPDEST PUSH0 PUSH2 0x1E66 DUP4 DUP6 PUSH2 0x1E43 JUMP JUMPDEST SWAP4 POP PUSH2 0x1E73 DUP4 DUP6 DUP5 PUSH2 0x1E4D JUMP JUMPDEST DUP3 DUP5 ADD SWAP1 POP SWAP4 SWAP3 POP POP POP JUMP JUMPDEST PUSH0 PUSH2 0x1E8B DUP3 DUP5 DUP7 PUSH2 0x1E5B JUMP JUMPDEST SWAP2 POP DUP2 SWAP1 POP SWAP4 SWAP3 POP POP POP JUMP JUMPDEST PUSH32 0x4E487B7100000000000000000000000000000000000000000000000000000000 PUSH0 MSTORE PUSH1 0x32 PUSH1 0x4 MSTORE PUSH1 0x24 PUSH0 REVERT JUMPDEST PUSH32 0x4E487B7100000000000000000000000000000000000000000000000000000000 PUSH0 MSTORE PUSH1 0x41 PUSH1 0x4 MSTORE PUSH1 0x24 PUSH0 REVERT JUMPDEST PUSH32 0x4E487B7100000000000000000000000000000000000000000000000000000000 PUSH0 MSTORE PUSH1 0x22 PUSH1 0x4 MSTORE PUSH1 0x24 PUSH0 REVERT JUMPDEST PUSH0 PUSH1 0x2 DUP3 DIV SWAP1 POP PUSH1 0x1 DUP3 AND DUP1 PUSH2 0x1F35 JUMPI PUSH1 0x7F DUP3 AND SWAP2 POP JUMPDEST PUSH1 0x20 DUP3 LT DUP2 SUB PUSH2 0x1F48 JUMPI PUSH2 0x1F47 PUSH2 0x1EF1 JUMP JUMPDEST JUMPDEST POP SWAP2 SWAP1 POP JUMP JUMPDEST PUSH0 DUP2 SWAP1 POP DUP2 PUSH0 MSTORE PUSH1 0x20 PUSH0 KECCAK256 SWAP1 POP SWAP2 SWAP1 POP JUMP JUMPDEST PUSH0 PUSH1 0x20 PUSH1 0x1F DUP4 ADD DIV SWAP1 POP SWAP2 SWAP1 POP JUMP JUMPDEST PUSH0 DUP3 DUP3 SHL SWAP1 POP SWAP3 SWAP2 POP POP JUMP JUMPDEST PUSH0 PUSH1 0x8 DUP4 MUL PUSH2 0x1FAA PUSH32 0xFFFFFFFFFFFFFFFFFFFFFFFFFFFFFFFFFFFFFFFFFFFFFFFFFFFFFFFFFFFFFFFF DUP3 PUSH2 0x1F6F JUMP JUMPDEST PUSH2 0x1FB4 DUP7 DUP4 PUSH2 0x1F6F JUMP JUMPDEST SWAP6 POP DUP1 NOT DUP5 AND SWAP4 POP DUP1 DUP7 AND DUP5 OR SWAP3 POP POP POP SWAP4 SWAP3 POP POP POP JUMP JUMPDEST PUSH0 DUP2 SWAP1 POP SWAP2 SWAP1 POP JUMP JUMPDEST PUSH0 PUSH2 0x1FEF PUSH2 0x1FEA PUSH2 0x1FE5 DUP5 PUSH2 0x1819 JUMP JUMPDEST PUSH2 0x1FCC JUMP JUMPDEST PUSH2 0x1819 JUMP JUMPDEST SWAP1 POP SWAP2 SWAP1 POP JUMP JUMPDEST PUSH0 DUP2 SWAP1 POP SWAP2 SWAP1 POP JUMP JUMPDEST PUSH2 0x2008 DUP4 PUSH2 0x1FD5 JUMP JUMPDEST PUSH2 0x201C PUSH2 0x2014 DUP3 PUSH2 0x1FF6 JUMP JUMPDEST DUP5 DUP5 SLOAD PUSH2 0x1F7B JUMP JUMPDEST DUP3 SSTORE POP POP POP POP JUMP JUMPDEST PUSH0 SWAP1 JUMP JUMPDEST PUSH2 0x2030 PUSH2 0x2024 JUMP JUMPDEST PUSH2 0x203B DUP2 DUP5 DUP5 PUSH2 0x1FFF JUMP JUMPDEST POP POP POP JUMP JUMPDEST JUMPDEST DUP2 DUP2 LT ISZERO PUSH2 0x205E JUMPI PUSH2 0x2053 PUSH0 DUP3 PUSH2 0x2028 JUMP JUMPDEST PUSH1 0x1 DUP2 ADD SWAP1 POP PUSH2 0x2041 JUMP JUMPDEST POP POP JUMP JUMPDEST PUSH1 0x1F DUP3 GT ISZERO PUSH2 0x20A3 JUMPI PUSH2 0x2074 DUP2 PUSH2 0x1F4E JUMP JUMPDEST PUSH2 0x207D DUP5 PUSH2 0x1F60 JUMP JUMPDEST DUP2 ADD PUSH1 0x20 DUP6 LT ISZERO PUSH2 0x208C JUMPI DUP2 SWAP1 POP JUMPDEST PUSH2 0x20A0 PUSH2 0x2098 DUP6 PUSH2 0x1F60 JUMP JUMPDEST DUP4 ADD DUP3 PUSH2 0x2040 JUMP JUMPDEST POP POP JUMPDEST POP POP POP JUMP JUMPDEST PUSH0 DUP3 DUP3 SHR SWAP1 POP SWAP3 SWAP2 POP POP JUMP JUMPDEST PUSH0 PUSH2 0x20C3 PUSH0 NOT DUP5 PUSH1 0x8 MUL PUSH2 0x20A8 JUMP JUMPDEST NOT DUP1 DUP4 AND SWAP2 POP POP SWAP3 SWAP2 POP POP JUMP JUMPDEST PUSH0 PUSH2 0x20DB DUP4 DUP4 PUSH2 0x20B4 JUMP JUMPDEST SWAP2 POP DUP3 PUSH1 0x2 MUL DUP3 OR SWAP1 POP SWAP3 SWAP2 POP POP JUMP JUMPDEST PUSH2 0x20F4 DUP3 PUSH2 0x19E4 JUMP JUMPDEST PUSH8 0xFFFFFFFFFFFFFFFF DUP2 GT ISZERO PUSH2 0x210D JUMPI PUSH2 0x210C PUSH2 0x1EC4 JUMP JUMPDEST JUMPDEST PUSH2 0x2117 DUP3 SLOAD PUSH2 0x1F1E JUMP JUMPDEST PUSH2 0x2122 DUP3 DUP3 DUP6 PUSH2 0x2062 JUMP JUMPDEST PUSH0 PUSH1 0x20 SWAP1 POP PUSH1 0x1F DUP4 GT PUSH1 0x1 DUP2 EQ PUSH2 0x2153 JUMPI PUSH0 DUP5 ISZERO PUSH2 0x2141 JUMPI DUP3 DUP8 ADD MLOAD SWAP1 POP JUMPDEST PUSH2 0x214B DUP6 DUP3 PUSH2 0x20D0 JUMP JUMPDEST DUP7 SSTORE POP PUSH2 0x21B2 JUMP JUMPDEST PUSH1 0x1F NOT DUP5 AND PUSH2 0x2161 DUP7 PUSH2 0x1F4E JUMP JUMPDEST PUSH0 JUMPDEST DUP3 DUP2 LT ISZERO PUSH2 0x2188 JUMPI DUP5 DUP10 ADD MLOAD DUP3 SSTORE PUSH1 0x1 DUP3 ADD SWAP2 POP PUSH1 0x20 DUP6 ADD SWAP5 POP PUSH1 0x20 DUP2 ADD SWAP1 POP PUSH2 0x2163 JUMP JUMPDEST DUP7 DUP4 LT ISZERO PUSH2 0x21A5 JUMPI DUP5 DUP10 ADD MLOAD PUSH2 0x21A1 PUSH1 0x1F DUP10 AND DUP3 PUSH2 0x20B4 JUMP JUMPDEST DUP4 SSTORE POP JUMPDEST PUSH1 0x1 PUSH1 0x2 DUP9 MUL ADD DUP9 SSTORE POP POP POP JUMPDEST POP POP POP POP POP POP JUMP JUMPDEST PUSH0 DUP2 SWAP1 POP DUP2 PUSH0 MSTORE PUSH1 0x20 PUSH0 KECCAK256 SWAP1 POP SWAP2 SWAP1 POP JUMP JUMPDEST PUSH0 DUP2 SLOAD PUSH2 0x21D8 DUP2 PUSH2 0x1F1E JUMP JUMPDEST PUSH2 0x21E2 DUP2 DUP7 PUSH2 0x1E43 JUMP JUMPDEST SWAP5 POP PUSH1 0x1 DUP3 AND PUSH0 DUP2 EQ PUSH2 0x21FC JUMPI PUSH1 0x1 DUP2 EQ PUSH2 0x2211 JUMPI PUSH2 0x2243 JUMP JUMPDEST PUSH1 0xFF NOT DUP4 AND DUP7 MSTORE DUP2 ISZERO ISZERO DUP3 MUL DUP7 ADD SWAP4 POP PUSH2 0x2243 JUMP JUMPDEST PUSH2 0x221A DUP6 PUSH2 0x21BA JUMP JUMPDEST PUSH0 JUMPDEST DUP4 DUP2 LT ISZERO PUSH2 0x223B JUMPI DUP2 SLOAD DUP2 DUP10 ADD MSTORE PUSH1 0x1 DUP3 ADD SWAP2 POP PUSH1 0x20 DUP2 ADD SWAP1 POP PUSH2 0x221C JUMP JUMPDEST DUP4 DUP9 ADD SWAP6 POP POP POP JUMPDEST POP POP POP SWAP3 SWAP2 POP POP JUMP JUMPDEST PUSH0 PUSH2 0x2257 DUP3 DUP5 PUSH2 0x21CC JUMP JUMPDEST SWAP2 POP DUP2 SWAP1 POP SWAP3 SWAP2 POP POP JUMP JUMPDEST PUSH32 0x5265656E7472616E637947756172643A207265656E7472616E742063616C6C00 PUSH0 DUP3 ADD MSTORE POP JUMP JUMPDEST PUSH0 PUSH2 0x2296 PUSH1 0x1F DUP4 PUSH2 0x19EE JUMP JUMPDEST SWAP2 POP PUSH2 0x22A1 DUP3 PUSH2 0x2262 JUMP JUMPDEST PUSH1 0x20 DUP3 ADD SWAP1 POP SWAP2 SWAP1 POP JUMP JUMPDEST PUSH0 PUSH1 0x20 DUP3 ADD SWAP1 POP DUP2 DUP2 SUB PUSH0 DUP4 ADD MSTORE PUSH2 0x22C3 DUP2 PUSH2 0x228A JUMP JUMPDEST SWAP1 POP SWAP2 SWAP1 POP JUMP INVALID BLOBHASH PUSH15 0x76616C696420666C69676874206E75 PUSH14 0x6265723A204D7573742062652032 KECCAK256 PUSH21 0x6F20362063686172616374657273496E76616C6964 KECCAK256 PUSH15 0x616D653A204D757374206265206120 PUSH15 0x6F6E2D656D70747920737472696E67 BLOBHASH PUSH15 0x76616C696420616464726573733A20 PUSH27 0x65726F20616464726573732070726F766964656443616C6C657220 PUSH14 0x75737420626520696E737572616E PUSH4 0x65207072 PUSH16 0x76696465724F6E6C7920696E73757261 PUSH15 0x63652070726F76696465722063616E KECCAK256 PUSH10 0x6E697469617465207061 PUSH26 0x6D656E74416C6C20706F6C696369657320726574726965766564 KECCAK256 PUSH20 0x75636365737366756C6C79446570617274757265 KECCAK256 PUSH2 0x6E64 KECCAK256 PUSH5 0x657374696E PUSH2 0x7469 PUSH16 0x6E206369746965732063616E6E6F7420 PUSH3 0x652074 PUSH9 0x652073616D65496E73 PUSH22 0x72616E63652050726F76696465723A20506F6C696379 KECCAK256 PUSH20 0x75636365737366756C6C79207075726368617365 PUSH5 0x496E76616C PUSH10 0x64206461746520666F72 PUSH14 0x61743A204D757374206265205959 MSIZE MSIZE 0x2D 0x4D 0x4D 0x2D PREVRANDAO PREVRANDAO BLOBHASH PUSH15 0x737572616E63652050726F76696465 PUSH19 0x3A20506F6C6963792072657472696576656420 PUSH20 0x75636365737366756C6C79506F6C69637920616C PUSH19 0x656164792065786973747320666F7220746869 PUSH20 0x20616464726573735072656D69756D3A20302E30 BALANCE KECCAK256 GASLIMIT SLOAD BASEFEE 0x2C KECCAK256 BLOBHASH PUSH15 0x64656D6E6974793A20302E30322045 SLOAD BASEFEE 0x2C KECCAK256 NUMBER PUSH16 0x7665726167653A2045787472656D6520 JUMPI PUSH6 0x617468657220 PREVRANDAO PUSH6 0x6C6179732028 PUSH6 0x2E672E2C2068 PUSH2 0x696C 0x2C KECCAK256 PUSH7 0x6C6F6F64696E67 0x2C KECCAK256 PUSH6 0x74632E292E49 PUSH15 0x73756666696369656E742066756E64 PUSH20 0x3A204D696E696D756D20302E3031204554482072 PUSH6 0x717569726564 LOG2 PUSH5 0x6970667358 0x22 SLT KECCAK256 0xEA LOG2 PUSH31 0x25CDAEA2C44E1490849FEEE6967BAB6B2E2D255BA42B1EE84452130AC86473 PUSH16 0x6C634300081A00330000000000000000 "
				},
				"gasEstimates": {
					"creation": {
						"codeDepositCost": "1914200",
						"executionCost": "infinite",
						"totalCost": "infinite"
					},
					"external": {
						"INDEMNITY()": "391",
						"PREMIUM()": "413",
						"insuranceProvider()": "2575",
						"payIndemnity(address)": "infinite",
						"purchasePolicy(string,string,string,string,string)": "infinite",
						"viewAllPolicies()": "infinite",
						"viewAvailablePolicy()": "infinite",
						"viewBalance()": "2938",
						"viewMyPolicy()": "infinite"
					}
				},
				"methodIdentifiers": {
					"INDEMNITY()": "cd95e777",
					"PREMIUM()": "ea3696ca",
					"insuranceProvider()": "9955f67c",
					"payIndemnity(address)": "a4cd98e6",
					"purchasePolicy(string,string,string,string,string)": "5d02ed12",
					"viewAllPolicies()": "c160693d",
					"viewAvailablePolicy()": "b6fc3b2a",
					"viewBalance()": "3ff1e05b",
					"viewMyPolicy()": "963163bd"
				}
			},
			"storageLayout": {
				"storage": [
					{
						"astId": 10,
						"contract": "FlightInsurance1.sol:FlightInsurance1",
						"label": "_status",
						"offset": 0,
						"slot": "0",
						"type": "t_uint256"
					},
					{
						"astId": 92,
						"contract": "FlightInsurance1.sol:FlightInsurance1",
						"label": "insuranceProvider",
						"offset": 0,
						"slot": "1",
						"type": "t_address"
					},
					{
						"astId": 97,
						"contract": "FlightInsurance1.sol:FlightInsurance1",
						"label": "policiesByAddress",
						"offset": 0,
						"slot": "2",
						"type": "t_mapping(t_address,t_struct(InsurancePolicy)84_storage)"
					},
					{
						"astId": 100,
						"contract": "FlightInsurance1.sol:FlightInsurance1",
						"label": "insuredPassengerList",
						"offset": 0,
						"slot": "3",
						"type": "t_array(t_address)dyn_storage"
					}
				],
				"types": {
					"t_address": {
						"encoding": "inplace",
						"label": "address",
						"numberOfBytes": "20"
					},
					"t_array(t_address)dyn_storage": {
						"base": "t_address",
						"encoding": "dynamic_array",
						"label": "address[]",
						"numberOfBytes": "32"
					},
					"t_mapping(t_address,t_struct(InsurancePolicy)84_storage)": {
						"encoding": "mapping",
						"key": "t_address",
						"label": "mapping(address => struct FlightInsurance1.InsurancePolicy)",
						"numberOfBytes": "32",
						"value": "t_struct(InsurancePolicy)84_storage"
					},
					"t_string_storage": {
						"encoding": "bytes",
						"label": "string",
						"numberOfBytes": "32"
					},
					"t_struct(InsurancePolicy)84_storage": {
						"encoding": "inplace",
						"label": "struct FlightInsurance1.InsurancePolicy",
						"members": [
							{
								"astId": 71,
								"contract": "FlightInsurance1.sol:FlightInsurance1",
								"label": "passengerName",
								"offset": 0,
								"slot": "0",
								"type": "t_string_storage"
							},
							{
								"astId": 73,
								"contract": "FlightInsurance1.sol:FlightInsurance1",
								"label": "passengerAddress",
								"offset": 0,
								"slot": "1",
								"type": "t_address"
							},
							{
								"astId": 75,
								"contract": "FlightInsurance1.sol:FlightInsurance1",
								"label": "flightNumber",
								"offset": 0,
								"slot": "2",
								"type": "t_string_storage"
							},
							{
								"astId": 77,
								"contract": "FlightInsurance1.sol:FlightInsurance1",
								"label": "flightDate",
								"offset": 0,
								"slot": "3",
								"type": "t_string_storage"
							},
							{
								"astId": 79,
								"contract": "FlightInsurance1.sol:FlightInsurance1",
								"label": "departureCity",
								"offset": 0,
								"slot": "4",
								"type": "t_string_storage"
							},
							{
								"astId": 81,
								"contract": "FlightInsurance1.sol:FlightInsurance1",
								"label": "destinationCity",
								"offset": 0,
								"slot": "5",
								"type": "t_string_storage"
							},
							{
								"astId": 83,
								"contract": "FlightInsurance1.sol:FlightInsurance1",
								"label": "policyStatus",
								"offset": 0,
								"slot": "6",
								"type": "t_string_storage"
							}
						],
						"numberOfBytes": "224"
					},
					"t_uint256": {
						"encoding": "inplace",
						"label": "uint256",
						"numberOfBytes": "32"
					}
				}
			},
			"userdoc": {
				"kind": "user",
				"methods": {},
				"version": 1
			}
		}
	}
}